:020000040000FA
:1000000000000120010300000D030000E1010000D9
:1000100011030000E9010000ED01000000000000F4
:100020000000000000000000000000003D02000091
:100030001903000000000000D5020000E5020000E6
:100040001F03000075B400001F0300001F03000021
:100050001F0300001F0300001F0300001F03000018
:100060001F0300001F0300001F0300001F03000008
:100070001F03000095B400001F030000B13300000F
:100080001F0300001F0300001F0300001F030000E8
:100090001F0300001F0300001F0300001F030000D8
:1000A0001F0300001F0300001F0300001F030000C8
:1000B0001F0300001F0300000000000000000000FC
:1000C0001F0300001F0300001F0300001F030000A8
:1000D0001F0300001F0300001F03000000F002F8D0
:1000E0001CF0B4F90AA090E8000C82448344AAF101
:1000F0000107DA4501D11CF0A9F9AFF2090EBAE8FF
:100100000F0013F0010F18BFFB1A43F0010318474B
:1001100024780400447804000A444FF0000C10F8DE
:10012000013B13F0070408BF10F8014B1D1108BF75
:1001300010F8015B641E05D010F8016B641E01F815
:10014000016BF9D113F0080F1EBF10F8014BAD1C65
:100150000C1B09D16D1E58BF01F801CBFAD505E083
:1001600014F8016B01F8016B6D1EF9D59142D6D3DD
:10017000704700000023002400250026103A28BF05
:1001800078C1FBD8520728BF30C148BF0B60704709
:100190001FB544F0C8FB9DE8030000F0EBFD00F044
:1001A000C0FB00F0B7FF00F0B1FD1FBD0B49D1F857
:1001B00000C04A685CF8043B1068184442F8040B1D
:1001C0008C4528BFA1F1DC0C8A4228BFA1F1DC02DA
:1001D000C1F800C04A6020F00040704724050020AC
:1001E000102304E0202302E0302300E040239C465B
:1001F000F0B404AE7546E80801D3EFF309860E4F5C
:100200000FCE0FC70FBC0FC74046494652465B464C
:100210000FC71DCE3100A60A00D304316E0900D2EB
:1002200048311FC7EFF309806946EFF3148663C7AF
:10023000604601493BF01EFA486B00201EF0040F97
:100240000CBFEFF30880EFF30980816911F8021CFD
:1002500091BB01B590E80F10E047BDE800508CE875
:100260000300244B93E80600914208BF704741B950
:100270001EF0100F10D12049086820F0010008601E
:100280000AE02CE9F00F1EF0100F08BF2CED108AC9
:10029000C1F838C081F822E01A6092F82210906B01
:1002A00061F0FF0E1EF0100F08BFB0EC108AB0E82E
:1002B000F00F80F309887047104A13689942FAD802
:1002C00001B552F821C00FC8E047BDE80050CCF896
:1002D0000000704701B53DF0B7FCBDE80140EFF309
:1002E000098CBEE701B53DF03DFFBDE80140EFF3ED
:1002F000098CB6E75C02002034EF00E08461040062
:10030000074880470748804707480047FEE7FEE761
:10031000FEE7FEE7FEE7FEE7FEE7FEE7FEE7FEE7B5
:1003200071CF000031CD0300DD00000070471CF0EC
:10033000B5B80844401E491E884370470821001D77
:10034000F7E72DE9F04117460E460446FFF7F6FFA2
:10035000A042054633D9002F1CBF06F10C001CF04B
:10036000FFF830467468F4B12168A94217D305F14B
:10037000080291423CBF6168416007D3626861191D
:100380004A602268521B0A6041602560002F1CBF32
:1003900006F10C001CF064F9201DBDE8F081204638
:1003A0006468002CE0D12946304600F0CFFC0028DC
:1003B000D7D1002F1CBF06F10C001CF051F9002012
:1003C000BDE8F08110B5044600F0B7FC0168204696
:1003D000BDE810400122B4E770B516460D46041F73
:1003E000002808BF70BD002E1CBF05F10C001CF0DA
:1003F000B7F82B465868002818BFA04238BF0346FC
:10040000F8D31968CA18A24218BF5C6003D12268E9
:100410001C461144196021680A19824218BF6060A5
:1004200004D142686260006808442060002E1CBF4E
:1004300005F10C001CF014F970BD10B5044600F075
:100440007CFC01682046BDE810400122C4E753EA65
:10045000020C00F069802DE9F04B4FF00006002BF4
:100460001FBFB3FA83F503FA05F424FA05F65E40DC
:1004700012BF1643B2FA82F502FA05F4C5F120055F
:100480001EBF22FA05FC44EA0C04203556EA044C4F
:100490004FEA144418BF641C4FF000084FF00009E5
:1004A000904271EB030C39D3002919BFB1FA81F7DF
:1004B00001FA07F6B0FA80F700FA07F6C7F120074D
:1004C0001EBF20FA07FC46EA0C062037B6FBF4FCF8
:1004D000A7EB0507103F07F01F0BCBF120062CFA06
:1004E00006F60CFA0BFB44BFB3460026202FA4BF30
:1004F0005E464FF0000B5BEA060C08BF4FF0010BA5
:1005000019EB0B0948EB0608ABFB027C06FB02CC9F
:100510000BFB03CCC01B71EB0C01C1E70B46024681
:1005200041464846BDE8F08B13B5084318BF4FF06D
:10053000FF300146AFF30080BDE81C40704753EA2E
:10054000020C23D010B54C1084EA530404D5404269
:10055000C1F1000138BF491E1B4204D55242C3F10C
:10056000000338BF5B1EFFF772FF14F0804F04D00A
:100570004042C1F1000138BF491E14F0004F04D0C1
:100580005242C3F1000338BF5B1E10BD13B5404299
:100590004FF0000070EB0104B8BF012001F00041F2
:1005A00000281CBF6FF000414FF0FF30AFF3008018
:1005B0001CBD70B5044685690068C10601D53026AA
:1005C00000E02026C00707D070BDD4E901213046E5
:1005D0009047206A401C20626D1EF6D570BD70B534
:1005E000044685690078C00707D170BDD4E90121B0
:1005F00020209047206A401C20626D1EF6D570BDF9
:100600002DE9F041044616460D464769007B8007F8
:100610002ED038461CF04EF850BB3EB3012E02D00F
:10062000022E25D104E0204600F066F805441DE0C6
:1006300038461CF02BF8E168002841F01001E16019
:1006400005DA204600F0BAFC0120BDE8F081C903BC
:100650000BD56268E16A914200D81146A269114443
:100660002269891A814200DD08460544002D01DA1D
:100670000220EAE7E16A6068E268814206D29103FB
:10068000E06203D522F4003141F01002A669002790
:10069000AE4213DCE16A814201D90B4600E0034619
:1006A00003EB060C2369ACEB030CAC4506DD814281
:1006B00001D98C4600E084469C4505D1A76027609F
:1006C00042F02000A5620DE0AD1BE669AE1B814241
:1006D000A66000D90846C01A281A20605819606020
:1006E00022F0200003490840E060002084F84870B0
:1006F000ABE70000BFCFD7FF10B50146C268900737
:1007000003D0900607D5886A0AE0FFF710FE0121A2
:100710000160881E10BD8B69486818440B69C01AB7
:1007200091F848301BB191F84910401A10BD1103DF
:10073000FCD50028FADD401E10BD2DE9F047044627
:100740004FF000094FF0FF37C568D4E90486A807C9
:1007500007D0204600F066FC30461BF091FF0028D1
:1007600002DA3846BDE8F087280502D54046FFF793
:1007700064FE4C21204600F05EFA206D20F001005E
:1007800020654846EEE770B50C46064601F14C057B
:1007900028461BF0E5FE2146304644F0B7F80446F3
:1007A00028461BF05DFF204670BD00002DE9F04794
:1007B00016468846070010D006F14C0081461BF013
:1007C000CFFE3046FFF7B9FF18F8010B61280DD0B6
:1007D000722805D0772841D105E00020BDE8F087D8
:1007E0000125002405E00225042402E0082448F243
:1007F000020518F8010B2B2806D0622809D018F83A
:10080000010C74280AD00BE045F0030544F0020403
:10081000EFE745F0040544F00104EAE744F0100472
:10082000384621461BF04AFF411C17D00021316198
:1008300071604FF40071F560F1617061200704D5BB
:10084000304602220021FFF7DBFE306D40F0010050
:10085000306548461BF004FF3046BFE70026F8E746
:100860002DE9F04115460E460746214C20461BF067
:1008700077FE2A4631463846FFF798FF0546204660
:100880001BF0EEFE2846BDE8F0812DE9F0410E4652
:100890008046174D28461BF063FE164C206DC1079D
:1008A00004D0410804D020F00104F7E7224612E00A
:1008B0005420FFF787FD070017D0206D47F0010196
:1008C000084354212065384600F0B5F907F14C0083
:1008D0001BF074FE3A4631464046FFF767FF044678
:1008E00028461BF0BDFE2046CDE70024F8E70000B7
:1008F000EC0000204C0300200B4910B5A1F17C0254
:100900000A4CC2E93712372106E000EB104342F8E7
:100910002130074B00FB03400B1EA1F10101F4DC69
:1009200010BD0120E8E70000C4040020E119D666EC
:10093000CD0D010030B503461D783DB10A4612F8D1
:10094000014B1CB1AC42FAD15B1CF5E7181A30BD63
:1009500040EA010310B59B070FD1042A0DD310C83C
:1009600008C9121F9C42F8D020BA19BA884201D98E
:10097000012010BD4FF0FF3010BD1AB1D30703D0D6
:10098000521C07E0002010BD10F8013B11F8014B8C
:100990001B1B07D110F8013B11F8014B1B1B01D1A8
:1009A000921EF1D1184610BD10B5431C02E010F89C
:1009B000011B71B18107FAD14FF0013202C88C1AC4
:1009C0008C4314EAC211F9D0C01A0A0603D0C01E23
:1009D00010BDC01A10BD0A0401D0801E10BD09024E
:1009E000FCD0401E10BD032A40F2308010F0030CF2
:1009F00000F0158011F8013BBCF1020F624498BF72
:100A000011F801CB00F8013B38BF11F8013BA2F10E
:100A1000040298BF00F801CB38BF00F8013B11F089
:100A2000030300F06780083AC0F0088051F8043BE7
:100A3000083A51F804CBA0E80810F5E7121D5CBF96
:100A400051F8043B40F8043BAFF30080D20724BFC9
:100A500011F8013B11F801CB48BF11F8012B24BF5D
:100A600000F8013B00F801CB48BF00F8012B7047AC
:100A7000431A28BF9A427FF6B6AF10441144032AA6
:100A800040F2268010F0030F1EBF11F8013D521EE8
:100A900000F8013D10F0030F7FF4F6AF11F00303EF
:100AA00000F06D80083AC0F00B8051F8043D083A20
:100AB00051F804CD40F8043D40F804CDFFF7F3BFF2
:100AC000121D5CBF51F8043D40F8043DAFF30080B7
:100AD000D20724BF11F8013D11F801CD48BF11F82C
:100AE000012C24BF00F8013D00F801CD48BF00F8FB
:100AF000012C704710B5203AC0F00B80B1E81850B7
:100B0000A0E81850B1E81850A0E81850203ABFF4F7
:100B1000F5AF5FEA027C24BFB1E81850A0E8185096
:100B200044BF18C918C0BDE810405FEA827C24BFEA
:100B300051F8043B40F8043B08BF7047D20728BF78
:100B400031F8023B48BF11F8012B28BF20F8023BC7
:100B500048BF00F8012B7047431A28BF9A427FF61E
:100B6000C9AF1044114410F0030F1EBF11F8013D2E
:100B7000521E00F8013D10F0030F7FF4F6AF103A5B
:100B8000C0F00A8010B531E9185020E91850103A29
:100B9000BFF4F9AFBDE81040530724BF31E9081096
:100BA00020E9081044BF51F8043D40F8043D12F01C
:100BB000030F08BF7047D20728BF31F8023D48BF76
:100BC00011F8012C28BF20F8023D48BF00F8012C85
:100BD000704702F0FF0343EA032242EA024200F0B8
:100BE0000AB802F0FF0343EA032242EA024200F09D
:100BF00024B84FF000020429C0F0128010F0030C5A
:100C000000F01B80CCF1040CBCF1020F18BF00F8FF
:100C1000012BA8BF20F8022BA1EB0C0100F00DB8AE
:100C20005FEAC17C24BF00F8012B00F8012B48BF0C
:100C300000F8012B70474FF0000200B513469446B0
:100C40009646203922BFA0E80C50A0E80C50B1F124
:100C50002001BFF4F7AF090728BFA0E80C5048BF38
:100C60000CC05DF804EB890028BF40F8042B08BFD6
:100C7000704748BF20F8022B11F0804F18BF00F8D2
:100C8000012B70470000000030B44FF0013C50F8D9
:100C9000042B51F8043BCCFA52F4D51A20D1FCB9FC
:100CA00050F8042B51F8043BCCFA52F4D51A17D162
:100CB000B4B950F8042B51F8043BCCFA52F4D51ACD
:100CC0000ED16CB950F8042B51F8043BCCFA52F415
:100CD000D51A05D1002CDAD030BC4FF00000704797
:100CE00029BAB1FA81F111F01801D1F12000844044
:100CF000F2D1CA40CB4012F0FF0213F0FF0330BC28
:100D0000D01A7047704770477047000070B5064CA6
:100D10007C44064D7D4404E0204601680844804739
:100D2000241DAC42F8D170BD546C0400546C040016
:100D3000004870472C050020704710B5FFF7F8FFFA
:100D4000083010BD704770477047704738B504468B
:100D50000A4600206946AFF30080002808BF38BD6E
:100D600002460099204600F0CBFA012038BD012050
:100D700000F016BBF8B5AFF30080054600200C4626
:100D8000102000BF0646A819A0420DD93246694678
:100D90000020AFF30080070008BF00F001FB0098BF
:100DA000A04218BF0546C419FFF7C7FF05600746F4
:100DB000F01D20F007004619284600F00AF8B4425A
:100DC00008BFF8BDA21B31463868BDE8F84000F006
:100DD00097BA00210160C0E901100C301BF0EEBB96
:100DE000102070472DE9F04705460C46C86820F4EE
:100DF000201040F48000C860800602D5084600F04C
:100E000034F9E06841F282014FF0FF3901400229D4
:100E100003D0204600F0D2F8B5E000F42041B1F54F
:100E2000004F0FD1C00306D56168E06A884200D840
:100E30000846606006E02069E062606060691BF05F
:100E400025FCA061A0680022EEB200280DDAE1685E
:100E50008B050AD4C043A06041F490302260E0606A
:100E60006068411C61600670A5E0E0689046226001
:100E700040F40050E060206968BB60691BF01AFC18
:100E8000012704F12405A0B1A08910F4407F08D007
:100E9000E069FFF797FA206118B1E06840F400605C
:100EA00016E0E7612561E06820F4407040F480605E
:100EB0000EE0E069FFF786FA00282061F1D0E068D3
:100EC00040F4006010F4407FE06002D140F4807094
:100ED000E06020696060E06825696FF0010AC10583
:100EE0001FD56168E06A884200D80846411B04D0DB
:100EF0002246284600F06CF8F0BBE068010203D5FA
:100F0000E562C4E9015854E0691CE1626160E1698D
:100F100040F48030491EC4E9021030462E70BDE80E
:100F2000F087010202D500F480320AE06068411CBB
:100F300061600670E0680A2E40F48030E06006D000
:100F40000022E16A6068814203D90B4602E0012277
:100F5000F7E70346A7895B1B7F0503D4E7699F4238
:100F600000DDE2B1814200D80146E5620F1AC4E912
:100F70000158002B09DD00E005E02246194628460D
:100F800000F026F808B14846C9E747B1A069E56214
:100F90006560C01BA061E06840F01000E060E068A0
:100FA000000208D56168A069E562491B08446560D4
:100FB000A0615046B3E73046B1E70000C16821F4B4
:100FC000001141F08001C160002181600160704723
:100FD0002DE9F047814614460E464FF0FF3832485F
:100FE000D5685769054209D03846A1691BF09CFBBA
:100FF000002811DB2C48C0430540E5602B463246F3
:10100000494638461BF096FBA16920F00042B21A0F
:1010100011440028A16103D02046FFF7CFFF4046CE
:10102000BDE8F08770B504460569C06A616888420A
:1010300000D80846E16821F42011E160C90312D507
:10104000A84208D02246411B2846FFF7C1FF10B135
:101050004FF0FF3070BD0020E562C4E90150E06848
:1010600020F48030E060002070BD10B50446C068F8
:1010700020F02000E060A16AA06988420DD02046DF
:10108000FFF7D0FFE06820F4405040F01000E0602F
:10109000A06AA0612069E062606044F24001E068FB
:1010A0008843E06010BD0000100002002DE9F04709
:1010B00004461E4690460D46C7684C3081461BF0DC
:1010C0004FFAB80714D0780212D44046B8F5807FA2
:1010D00009D0B0F5007F06D0B8F5806F08D10126A1
:1010E00004F1240506E0701E6FF07F41884201D3B1
:1010F000012409E02561E6616560E06820F4706024
:1011000040EA0800E060002448461BF0A9FA2046A7
:10111000BDE8F08710B565485421FFF78CFD6448A1
:101120005421FFF788FD63485421FFF784FD62488E
:101130005E49624A624B01605D4810605D4A1A6018
:10114000431C0B65511C01650120106557484C304C
:101150001BF034FA56484C301BF030FA55484C30EE
:101160001BF02CFA57481BF029FA58484F4A56A151
:101170007844FFF775FB20B9544878440A3800F0EA
:1011800008F954484A4A52A17844FFF769FB20B94C
:10119000504878440A3800F0FCF84F48454A4CA1C2
:1011A0007844FFF75DFB20B94B4878440A3800F0DB
:1011B000F0F840233D48DC0000212246FFF776FF8F
:1011C00020B142487844543800F0E3F838482246C9
:1011D00040230021FFF76AFF20B13E48784454388D
:1011E00000F0D7F83348224610230021FFF75EFFB6
:1011F000002806D038487844BDE81040563800F042
:10120000C8B810BD2B482DE9F041006D2D4E20F0DF
:10121000010430461BF0A4F9244D4C3528461BF040
:101220009FF92248FFF789FA28461BF019FA284649
:101230001BF0A4F91E4D4C3528461BF091F91C48B3
:10124000FFF77BFA28461BF00BFA28461BF096F9AD
:10125000184D4C3528461BF083F91648FFF76DFAF8
:1012600028461BF0FDF928461BF088F914E0206D94
:1012700020F0010504F14C0007461BF071F92046EF
:10128000FFF75BFA38461BF0EBF938461BF076F9AE
:101290002046FFF7D2F82C46002CE8D130461BF050
:1012A000DFF908481BF06AF9BDE8F0814C03002023
:1012B000A0030020F4030020E0000020E400002050
:1012C000E8000020EC00002072000000803E0400D6
:1012D000770000006F3E0400483E040010B5002077
:1012E00000F050F8AFF30080BDE8104001201BF083
:1012F000CBB9801A0844401E491E884310447047E9
:1013000070B5144605468C464368002B18BF6345EC
:1013100038BF1846F8D302681044604508D06646C6
:10132000604604220821FFF7E4FF811B8446641A0B
:101330002946CCF80040BDE8704000220CF10400C2
:10134000FFF74AB870B504460D4D28461BF008F962
:1013500003E043F0DBFA401C0ED0094914F8010BFE
:101360004C390028F5D10A2043F0D0FA044628462B
:101370001BF076F9204670BD4FF0FF34F7E7000010
:10138000EC03002010B500F01FF8BDE8104000F09D
:1013900016B810B500F030F8BDE8104000F00FB8F6
:1013A00010B500F043F8BDE8104000F008B810B5E3
:1013B000FFF7C3FC0068BDE8104000F05FB80028EC
:1013C00001D01BF061B9704710B5002102A000F0F8
:1013D0005AF8012010BD0000534947414252543A87
:1013E0002041626E6F726D616C207465726D696E02
:1013F0006174696F6E00000010B5014602A000F034
:1014000042F8012010BD0000534947525452454450
:101410003A2052656469726563743A2063616E278D
:1014200074206F70656E3A200000000010B501282E
:1014300005D0002103A000F026F8012010BD09A16D
:10144000F8E7000053494752544D454D3A204F7537
:1014500074206F662068656170206D656D6F7279AC
:10146000000000003A2048656170206D656D6F7264
:101470007920636F727275707465640010B50C30FA
:101480001BF07CF810BD70B505460C460A2000E044
:101490006D1C1BF027FA35B128780028F8D102E03E
:1014A000641C1BF01FFA14B120780028F8D1BDE8A5
:1014B00070400A201BF016BA83B080B583B0844612
:1014C00005A840F2A03E0EC005ABC2F2000E0020FF
:1014D0006FF0004162460293CDF800E03AF078F9EF
:1014E00003B0BDE8804003B07047000080B540F213
:1014F000000240F2000147F63060C0F20002C0F284
:101500000001C2F20000914218BF08464FF60041A8
:10151000C2F2000118BF1146FEF73AFE80BD00007E
:10152000002070470020704700207047002070475F
:10153000002070470020704700207047002070474F
:1015400080B582B04FF0000CCDF800C03AF040F901
:1015500002B080BD43F26021C2F20001086570470D
:1015600080B589B391F90200B0F1FF3F08DDC0B248
:1015700060280ED343F26020C2F20000806B17E0B7
:1015800043F26020C2F20000026C002A08BF80BD56
:101590000FE0402805D343F26020C2F20000C06B88
:1015A00006E0202808D343F26020C2F20000406B1E
:1015B00082680846904780BD43F26020C2F2000076
:1015C000006B82680846904780BD000080B543F2FA
:1015D0006021C2F2000181F8540045F20C0045F68A
:1015E0003802C0F20400C0F20402C1E90C00C1E9F3
:1015F0000E224CF695414CF64D42C0F20101C0F26C
:101600000102042004F086FA4CF67D31C0F201019B
:10161000002002F05BFA80BD1B296FF00A0202D0A5
:101620001D2918BF002280B510440BF085FF80BD36
:1016300010B582B040F2F021C2F20001096843F215
:101640006022C2F200028C88D06403F091FA043860
:10165000A04207DA00240020772100220223009410
:101660001BF0D4FA02B010BD10B5013880B20021D1
:101670001BF07CFBD0B104460068807800F01200BB
:10168000102813D109201BF029FB002808BF10BD2A
:10169000034620680122817801F0EF0181701E204D
:1016A000187220680189042004F088F910BD000038
:1016B000B0B543F2602CC2F2000C43F2B8209CF8A3
:1016C00054E0C2F2000000210122C0F82C1180F881
:1016D000302100BF0CEB011201310023002400BFB8
:1016E000C518C2502C3385F82840582B04F101044A
:1016F00085F824E0A98385F82910F1D1032900F1A8
:101700005800E7D145F22800C0F20400CCF83000C0
:10171000B0BD0000B0B582B004460B200D461BF0F2
:10172000DDFA70B103460320188002201872280ADF
:101730005D729872002520460021012200951BF061
:10174000C3FE02B0B0BD000043F2B82045F2C001B4
:10175000C2F20000C0F20401C0F82C117047000072
:1017600010B504460BF0B2FF43F2EC3CC2F2000CA1
:10177000DCF8201169B1238A0A8A934202D200223E
:1017800008E000BF0A46096821B1088A8342F9D2FD
:1017900000E000220CF5907021460BF037FF01208D
:1017A0001CF0DAFA0BF0AEFF10BD000043F2EC3192
:1017B000C2F20001C1F830017047000080B51CF092
:1017C000FDF880BDB0B50C46054602F09BF943F22A
:1017D0002451C2F20001C96804EB440201EB42014A
:1017E000097988423CBF0020B0BD2846214600F060
:1017F00001F8B0BD10B50C461CF0F2F8002814BF7B
:1018000030F81400002010BD2DE9F0410C460646CA
:101810001CF0A6F848B30546F4B143F22458C2F2CE
:10182000000898F8140000B300270AE0013798F880
:101830001410F8B20234884205F1020528BFBDE851
:10184000F081208828802388002BEFD0F9B2304621
:1018500000221CF09BF8E9E743F22450C2F200009A
:10186000007D41002846FFF7C4F9BDE8F081000083
:1018700043F22453C2F200031875C3E9031243F282
:10188000EC304DF6F511C2F20000C0F20101C0F8D3
:1018900034117047B0B514460D461CF0A1F800286D
:1018A00018BF20F81540B0BD43F23C51C2F2000110
:1018B00001EB400010F8010C70470000012A88BFBE
:1018C000704780B543F23C53C2F2000303EB400083
:1018D000831E08461946FFF786F8BDE8804070472A
:1018E00040B143F23C52C2F2000202EB400000F869
:1018F000011C10E043F23C5C6FF00100C2F2000CEE
:101900000CEB0003DA780230022A0A4608BF0122F3
:101910000428DA70F4D1704780B51DF0C1FE00686C
:1019200080BD000080B584B09C4613464FF0000E89
:101930001D22CDE9012E0022CDF800C01CF014FCC0
:1019400004B080BD80B584B09C4613464FF0000EB5
:101950001B22CDE9012E0022CDF800C01CF004FCB2
:1019600004B080BD80B543F26020C2F2000043F2B3
:10197000EC3C90F854E0C2F2000C0022634600BF39
:1019800001326FF01F0100BF58182C31382980F840
:101990002CE08284F8D1032A03F15803F0D145F2F8
:1019A000D800C0F20400CCF8280180BD80B543F215
:1019B000EC31C2F2000145F20C024CF6054343F251
:1019C000602C0020C0F20402C0F20103A1F12C0E31
:1019D000C2F2000CC1E94800C1E94A230CEB001334
:1019E00001300022714600BF81F851200132CB63E3
:1019F00081F85000022A01F12C01F5D103280EF1E3
:101A0000580EEBD145F2C800C0F20400CCF8340007
:101A100080BD000010B504460BF058FE43F2EC30D8
:101A2000C2F20000D0F8201171B10A8AA24201D19D
:101A3000002205E00A46096831B10B8AA342F9D1B8
:101A400000F590700BF010FE01201CF085F90BF0F2
:101A500059FE10BD70B582B015460C4606460BF017
:101A600035FE01A930461CF08FFA28B10646808960
:101A7000A04203D20D240CE00A240AE07068294633
:101A80002246FEF7B0FFB07B000744BFB068048079
:101A900000240BF037FE204602B070BDB0B51446EE
:101AA0000D461DF0FDFD45600473B0BD10B50C463C
:101AB0001DF0F6FD046010BD43F24C50C2F2000070
:101AC0000021C0E90C1143F2EC304FF2B161C2F2D7
:101AD0000000C0F20101C0F82C1140F280104FF25A
:101AE0005131C2F20000C0F20101416470470000B0
:101AF00047F2AC41C2F2000109688968814228BFFF
:101B000070476FEA5102824201F101029CBF10440A
:101B1000704749081144814228BF801A704700006D
:101B200080B541F2C94141F2F522C0F20201C0F292
:101B3000020203201EF098F843F28450C2F2000023
:101B40000021C0E90011C0E90211C0E90411C0E997
:101B5000061180BD80B541F21951C0F20201072083
:101B600000221EF081F841F2F551C0F20201082076
:101B700000221EF079F843F2AC60C2F2000024218A
:101B8000FFF759F880BD000080B540F26551C0F202
:101B90000201062000221EF067F843F2D060C2F274
:101BA00000003421FFF747F880BD000080B540F207
:101BB000C95140F29D32C0F20201C0F2020204207B
:101BC0001EF052F843F65800C2F200000021C0E9AE
:101BD0000011C0E90211C0E90411816180BD00005B
:101BE00080B541F2A15141F2FD22C0F20201C0F2E2
:101BF000020205201EF038F843F65800C2F2000039
:101C00000021C0E90011C0E90211C0E9041181619D
:101C100080BD00002DE9F04182B041F20015C4F210
:101C20000005D5F80402C00728D0286830B300208A
:101C3000286028684FF20450C4F201004FF480413C
:101C4000416047F61840C2F200000178012906D130
:101C500041F25051C4F2000109680A2909D0017803
:101C600002297AD141F25051C4F2000109680229D7
:101C700073D13CF06FFC02B0BDE8F081D5F80402EE
:101C8000400749D5A868002846D00020A86048F23F
:101C90004416A868C4F200064FF4003048F24054DD
:101CA000C6F8C4010820C4F200041AF03BFA02206E
:101CB000C5F8000143F6AC30C2F2000001780129FA
:101CC00040F0F28043F6A672C2F200021378032BB2
:101CD00040F0B68043F64650C2F20000007818216A
:101CE000022808BF0C210128A06808BF1821084459
:101CF00000F16A014FF204522160A5F1FC01C4F227
:101D00000102C2F880104FF48041C9301160606058
:101D1000002030603068EBE0D5F80402000740F1A5
:101D20001481E868002800F010810020E86043F684
:101D3000A676E868C2F20006307803282DD102208A
:101D400030703CF03DFC43F64050C2F200000168A8
:101D50000020884702B0BDE8F08143F6A671C2F2C8
:101D600000010A78032A18BF02780978042903D0F1
:101D70000178022940F0F78000226A6048F244119D
:101D80006A68C4F200014FF40032C1F8C0210A6849
:101D9000002A1CBF01220A60E5E03078042840F0E8
:101DA000D48043F64C50C2F20000006848F2405123
:101DB00043F6E842C4F20001C2F2000240788968AA
:101DC00012783823022A18BF032200FA02F041F2E7
:101DD000505708BF20231844C4F20007081A57F8C8
:101DE000084CA0F1090809F0B3FA04F07F01084497
:101DF0000221317043F6E941C2F200010E7847F644
:101E00001941C2F20001097843F64752C2F20002BA
:101E1000002908BF3146117043F6E442C2F20002C5
:101E2000D5F8001315684FF6BC62CFF6FF72BA58AA
:101E3000C907C0F1000041B240F09A80042098E048
:101E4000012931D11278042A2ED143F6E840C2F29A
:101E50000000007843F646520146C2F20002022812
:101E600018BF6FF0010192F800C043F64852A36812
:101E7000C2F2000292F900E07D22022808BF71221E
:101E8000D0180844BCF1020F08BF013070444FF273
:101E900004512060A5F58070C4F20101C1F88000F2
:101EA0004FF48040086041E0022945D143F6A67214
:101EB000C2F200021378042B20D1D0E901104FF2B6
:101EC000045233392160A5F1FC01C4F20102C2F8C9
:101ED00080104FF4804111602168002801F17D01DC
:101EE00061604FF000013160316818BF3CF06AFA60
:101EF00047F61840C2F2000002211CE002291BD163
:101F00001178032918D1D0E901104FF20452283971
:101F10002160A5F58071C4F20102C2F880104FF46F
:101F200080410028116018BF3CF04CFA47F6184079
:101F3000C2F2000001210170012046F8F80C20686F
:101F4000E168401AB0F1FF3F02DD02B0BDE8F08168
:101F50004FF20450C4F201004FF48041416047F653
:101F60001840C2F200000021017002B0BDE8F0810B
:101F7000002043460096A84702B0BDE8F08100006B
:101F800080B582B048F20830C4F200004FF400314E
:101F9000016041F20410C4F20000006808B102B010
:101FA00080BD3CF0D7FA43F6E440C2F20000D0F81E
:101FB00000C04FF0000E0320002100220023CDF8C6
:101FC00000E0E04702B080BD2DE9F04F87B0064643
:101FD0008A460888317CC840C00762D043F29C71B1
:101FE000C2F200014888984601304880D6E90001D5
:101FF000994649F8080FD960C8E90001B07C1D4630
:10200000DAF8041005F8130F14469874C1F3801021
:1020100011462A464B461DF099FD02284FF0000B51
:1020200000F0BD800694012808BF4FF0010BDAF8DC
:102030000400DAE904742978D9E90023CDE90274AF
:10204000C0F3C0070097C0F380001DF01FFDBAF871
:102050000210327C074621FA02F02978D9E90023E0
:1020600000F001001DF0D6FD874224D9DAF8040003
:10207000DAE904742978D9E90023CDE90274C0F3C0
:10208000C0070097C0F380001DF000FD00B30128D9
:1020900024D0022824D1BBF1000F21D04FF0000B37
:1020A0007DE043F29C70C2F2000001884FF0000B0B
:1020B0000131018073E0BAF80200317CD9E90023D4
:1020C000C840297800F001001DF0A4FD0028DED1F1
:1020D000BBF1000F08BF4FF0010B01E04FF0010B07
:1020E000707C0121800788F814B088F8151002D49C
:1020F0004FF0010B53E0F77CD6E90264DAF80400F4
:102100002978D9E90023CDE90423CDE900640291BF
:10211000C0F3001006993A461DF0DAFC8346012808
:1021200006D0BBF1020F05D100204FF0000B32E0CA
:10213000002030E00AF1040207CACDE90212C0F320
:10214000400500F0010039463246234600951DF057
:102150007BFC022812D14FF0000067B104F440412B
:1021600091F4804F4FF0000B15D19AF804008006CF
:102170004FF0000004D44FF0000B0CE001200AE007
:1021800043F29C72C2F20002118C4FF0010B01313C
:10219000118488F81500002818BF4FF0010B5FFA72
:1021A0008BF007B0BDE8F08F70B582B008F024FD69
:1021B0004FF6CD154FF639144FF6AD56C0F2010566
:1021C000C0F201044FF67953C0F20106C0F20103D8
:1021D000012029462246009601F042F84FF6895325
:1021E000C0F20103022029462246009601F038F889
:1021F0004FF6B5564FF69953C0F20106C0F20103EF
:10220000032000212246009601F02AF84FF64121D2
:10221000C0F20101012001F033F843F20470C2F270
:1022200000009821FEF707FD02B070BDB0B543F283
:10223000C27CC2F2000C00258CF8005043F2C37C33
:102240008C07C2F2000C0C468CF8005001F1040E11
:1022500018BF2EF0030404EB0013591A47F2A043F1
:10226000C2F2000391421C609CBF8CF800000D4636
:10227000A8B2B0BDB0B543F2C87CC2F2000C0025D4
:102280008CF8005043F2C97C8C07C2F2000C0C465B
:1022900000EBC0038CF8005001F1040E18BF2EF0C3
:1022A000030404EBC303591A47F2A443C2F2000328
:1022B00091421C609CBF8CF800000D46A8B2B0BDD6
:1022C00010B543F2CB7CC2F2000C4FF0000E43F28B
:1022D000CA738CF800E043F2CC7CC2F200038C0796
:1022E000C2F2000C83F800E001F104030C468CF804
:1022F00000E018BF23F0030404EBC003591A47F2AF
:10230000A843C2F2000391421C609CBF8CF80000FD
:102310008E461FFA8EF010BD2DE9F04F8BB00746A8
:1023200000788A4600F00F080888012101FA08F9B0
:1023300019EA000F0DD0144643F29C72C2F200025B
:1023400051887878013119F4C07F51800AD0012674
:10235000EDE043F29C70C2F20000018800260131DA
:102360000180E4E000F03F0083F8108058743846A4
:1023700010F8021B1D46C1F3801601F011F82B4620
:1023800043F8080FE960C5E90001DAF804002A46BD
:1023900002F8136FAE74C0F3801021460A929B4678
:1023A0001DF0D4FB02284FF0000600F0C080CDE9FC
:1023B0000745012808BF01260A9DDAF80400DAE97A
:1023C000044C2978DBE90023CDE9024CC0F3C004BA
:1023D0000094C0F380001DF059FBBAF80210CDF84C
:1023E00024B0044619EA01002978DBE9002318BF6C
:1023F00001201DF00FFC844215D9DDF828B0DDF86E
:102400002490DAF80400DAE9044C9BF80010D9E9CA
:102410000023CDE9024CC0F3C0040094C0F3800057
:102420001DF034FB0FE0BAF80200DDF828B010EA26
:102430000900DDF824909BF80010D9E9002318BFAB
:1024400001201DF0E7FB089D30B1012808D00228CB
:1024500007D136B100266AE0002E08BF012600E051
:1024600001260120B8F1050F2E75687526D800FAEF
:1024700008F010F02A0F21D017F8088B38464FEAE1
:10248000D81400F08DFF0746DAF804009BF800200E
:10249000D9E900368946CDE90436CDE900710292CA
:1024A000C0F30010079922461DF012FB06460128D2
:1024B00006D0022E06D10020002635E0012636E0A7
:1024C000002031E00AF1040207CACDE90212C0F38C
:1024D000400600F0010021463A464B4600961DF0AA
:1024E000B3FA022815D14FFA88F0B0F1FF3F4FF050
:1024F00000000CDC09F4404191F4804F4FF00006DD
:1025000012D19AF8040080064FF0000003D4002690
:102510000AE0012008E043F29C72C2F20002118C32
:102520000126013111846875002818BF0126F0B218
:102530000BB0BDE8F08F0000B0B546F28042C2F2A9
:10254000000292F8EBC081F800C092F8EAE092F83D
:10255000EB30734508D1D2E936E3D2E93854634011
:1025600085EA0E052B4302D04CF002030B70D2E932
:102570003812C0E90012B0BDB0B590F813C082F8AF
:1025800000C090F812E0C37C734508D1D0E900E3A5
:10259000D0E90254634085EA0E052B4302D04CF08B
:1025A00002031370D0E90202C1E90002B0BD0000CD
:1025B000B0B590F813C082F800C090F812E0C37C68
:1025C000734508D1D0E900E3D0E90254634085EABD
:1025D0000E052B4302D04CF002031370D0E9020227
:1025E000C1E90002B0BD0000B0B545F60002C2F27C
:1025F000000292F86BC181F800C092F86AE192F88B
:102600006B31734508D1D2E956E3D2E9585463409F
:1026100085EA0E052B4302D04CF002030B70D2E981
:102620005812C0E90012B0BDB0B590F813C082F8DE
:1026300000C090F812E0C37C734508D1D0E900E3F4
:10264000D0E90254634085EA0E052B4302D04CF0DA
:1026500002031370D0E90202C1E90002B0BD00001C
:10266000B0B590F813C082F800C090F812E0C37CB7
:10267000734508D1D0E900E3D0E90254634085EA0C
:102680000E052B4302D04CF002031370D0E9020276
:10269000C1E90002B0BD0000B0B590F813C082F8E7
:1026A00000C090F812E0C37C734508D1D0E900E384
:1026B000D0E90254634085EA0E052B4302D04CF06A
:1026C00002031370D0E90202C1E90002B0BD0000AC
:1026D00080B546F28041C2F2000191F8EA2091F8FB
:1026E000EB3093424FF00002C0E900220AD1D1E959
:1026F00036CED1E9383282EA0E0283EA0C031A435D
:1027000008BF80BDD1E93612C0E9001280BD0000CB
:1027100080B5827CC37C93424FF00002C1E9002265
:102720000AD1D0E900CED0E9023282EA0E0283EA71
:102730000C031A4308BF80BDD0E90002C1E90002C2
:1027400080BD000080B5827CC37C93424FF00002C4
:10275000C1E900220AD1D0E900CED0E9023282EAF2
:102760000E0283EA0C031A4308BF80BDD0E90002C1
:10277000C1E9000280BD000080B545F60001C2F24B
:10278000000191F86A2191F86B3193424FF00002F9
:10279000C0E900220AD1D1E956CED1E9583282EA05
:1027A0000E0283EA0C031A4308BF80BDD1E956121A
:1027B000C0E9001280BD000080B540F21561C0F292
:1027C0000201092000221DF04FFA43F6BC40C2F27C
:1027D00000002421FEF72FFA80BD000070B543F2FF
:1027E000C27C43F2C371C2F2000CC2F200019CF839
:1027F00000E009788E4524BF002070BD47F2A0415B
:10280000C2F200010968049C01EB0E1528720EF15A
:1028100001004FEA0E166C728CF8000001208A51FC
:102820006B6070BD70B543F2C271C2F200010C78EA
:10283000FCB147F2A044C2F200042468DDF810C0E5
:1028400091F800E004F10801002404E0013474452B
:1028500001F110010DD20D788542F7D151E90256F0
:102860005E4055403543F1D14D786545EED10120AC
:1028700070BD002070BD000043F2C270C2F20000C3
:10288000002101707047000043F2C370C2F20000E3
:10289000007870472DE9F04343F2C27CC2F2000C8D
:1028A0009CF80010A9B347F2A047C2F20007D7F87E
:1028B00000E0DDF81C809CF800900EF10804002573
:1028C00005E000BF013510344D45494621D2267838
:1028D0008642F7D154E902675F4056403E43F1D14A
:1028E00066784645EED1C8B202280CD3013885423D
:1028F00009D00EEB00121389000123805EF800005E
:10290000526844E90202481E8CF800000120BDE82C
:10291000F0830020BDE8F083F0B581B01E46154677
:1029200007461DF061F80446B0B943F2C87043F29F
:10293000C972C2F20000C2F200020178127891421C
:1029400056D247F2A442C2F20002126801EBC10360
:1029500002EBC30401310170002C4CD0DDE90610FC
:1029600046EA0742C4E908520A684B688F68C9689A
:102970002260E16001216360A76084F840100021BB
:10298000625C22B90E2901F10101F9D902E00021AE
:1029900084F84010016842688368C768204640F8A0
:1029A000101F0121C7608360426080F83110002150
:1029B0006218127C22B90E2901F10101F8D902E056
:1029C000002184F8411094F8411000294FF00001D3
:1029D000A4F84210C4E90A11C4E90C11C4E90E11AB
:1029E00003D11DF04DFAC4E90C01012001B0F0BD86
:1029F0000024002CB2D1002001B0F0BD2DE9F0413F
:102A000082B0DDE908781446064610463A46434649
:102A10000D461CF0E9FF20B190F8411019B10024D7
:102A200023E0002421E0D0E90E0169407040084312
:102A300001D1012419E043F2C470C2F20000D0F8C1
:102A400000C0BCF1000F0FD043F29C70C2F2000036
:102A5000818C002201318184304629462346CDE90C
:102A600000780024E04700E00024204602B0BDE8E2
:102A7000F0810000F0B583B043F2C876C2F20006E0
:102A800035786DB347F2A445C2F200052D6896F87B
:102A900000C005F1200400254FF0000E08E04FF0C3
:102AA000010E0126CEB10135654504F1480419D265
:102AB00094F82060002EF4D1D4E902674F404640DC
:102AC0003E43ECD1A67906F0010616702668A78869
:102AD000C3E900670026002EE5D14FF0010C1EE08F
:102AE0004FF0000EBEF1000F4FF0000C17D043F274
:102AF000C477C2F200073D688DB143F29C77C2F201
:102B000000077E8C01367E8492F800C0D3E900274E
:102B10006346009201220197A8474FF0000C6046DF
:102B200003B0F0BD43F2C870C2F200000021017092
:102B300070470000B0B51CF057FF18B1044690F87C
:102B4000400008B10020B0BD94F84200049D38B99F
:102B500020461DF095F9C4E90A01012084F84200DD
:102B6000D4E90A01C5E900010120B0BD80B51CF01F
:102B70003BFF28B1029990F843000870012080BD06
:102B8000002080BD43F2C970C2F200000078704797
:102B90002DE9F04381B043F2C878C2F2000898F8FA
:102BA000000050B347F2A4490026C2F200090125F3
:102BB000002708E084F8445098F800000137874265
:102BC00006F1480619D2D9F80000841994F841009A
:102BD00028B904F110001DF053F9C4E90C0194F870
:102BE00040000028E6D194F842000028E2D02046B8
:102BF0001DF046F9C4E90A01DCE701B0BDE8F08345
:102C000070B51446DDE90423054620460E461CF047
:102C1000EBFE10B190F8411009B1002070BDD0E971
:102C20000E0171406840084304BF012070BD0020C0
:102C300070BD000080B51CF0D7FE014600284FF0A3
:102C4000000008BF80BD91F8442081F84400104680
:102C500080BD000080B51CF0C7FE60B1D0E90C1249
:102C600011431CBF032080BD90F8411001200029B2
:102C700008BF022080BD002080BD000080B51CF090
:102C8000B3FE60B1D0E90A1211431CBF032080BD1E
:102C900090F840100120002908BF022080BD0020CC
:102CA00080BD000080B51CF09FFE00281CBFD0E94D
:102CB0000C0150EA010201D1002080BD029AC2E954
:102CC0000001012080BD000080B51CF08DFE0028B1
:102CD0001CBFD0E90A0150EA010201D1002080BDE9
:102CE000029AC2E90001012080BD0000B0B51CF0CD
:102CF0007BFEB8B143F2C874C2F200042578022DFD
:102D00000CD347F2A441C2F20001096805EBC502E9
:102D100001EBC20148394822FDF7ECFE681E207025
:102D20000120B0BD0020B0BD2DE9F0410C46117866
:102D3000D3E90023054608461CF056FE43F29C7872
:102D4000C2F2000808F1140728B1064690F84100C5
:102D500018B1002018E0002016E0D6E90E0161400D
:102D60006840084304BF0120BDE8F08106F110006F
:102D70002A4623461EF082FD00280FBF0020C6E928
:102D80000E5408F116070120398801313980BDE859
:102D9000F08100002DE9F04F81B043F2C875C2F216
:102DA00000050F462978002953D047F2A4469A46D9
:102DB0008346C2F200064FF000094FF0000800BF42
:102DC000306800EB090494F8400018B1002080B38B
:102DD0004AE000BFD4E90A01794080EA0B000843C9
:102DE00019D02E46154620465A463B461EF046FD53
:102DF00038B343F29C71C4E90AB7C2F20001488AB1
:102E0000002284F842202A46354647F2A446013083
:102E1000C2F20006488294F8260000F0010010700B
:102E2000206AA18CCAE900010120002808BF002007
:102E3000D0B9287808F10108804509F14809BFD3C5
:102E400007E02A46354647F2A4460020C2F20006B3
:102E5000EBE743F29C71C2F20001088A013008825C
:102E6000002001B0BDE8F08F012001B0BDE8F08F77
:102E700043F2C471C2F200010860704780B51CF0D3
:102E8000B3FD00280FBF0020029980F843100120F5
:102E900080BD000080B51CF0A7FD30B10299D1E9DA
:102EA0000012C0E90C12012080BD002080BD00008E
:102EB00070B543F20476C2F200060C460546C6F829
:102EC0008C00A6F8881000F085F9806A0078052843
:102ED0000AD196F87000002818BF70BD1CF016FFCC
:102EE0002846214607F0E6FE70BD000080B540F29E
:102EF000716140F2CD32C0F20201C0F20202022042
:102F00001CF0B2FE43F6F040C2F200002821FDF7AB
:102F100092FE80BDB0B541F2257441F2CD61C0F2A0
:102F20000204C0F202010020224600251CF09CFE93
:102F300041F27D61C0F20201012022461CF094FEA4
:102F400043F61850C2F20000C0E90055C0E902552E
:102F5000C0E904558561B0BD2DE9F0410C46054638
:102F600000F038F9806A007804280ED143F204702A
:102F7000C2F2000090F8700038B91CF0C7FE284675
:102F8000214607F077FFBDE8F08143F65808C2F20A
:102F90000008B8F8166007F0F3FF43F6A837C2F24E
:102FA00000073968401AB04202D2B8F8160003E0B0
:102FB00007F0E6FF3968401AA8F816001CF0A6FED4
:102FC0002846214607F0A0FFBDE8F08170B51D46F8
:102FD0001446064600F02AF808B1012070BD43F2FD
:102FE000CB7043F2CC72C2F20000C2F20002017850
:102FF0001278914224BF002070BD47F2A842C2F26D
:103000000002126845EA064302EBC10642F831406D
:10301000013173600170012070BD000043F2CA707D
:10302000C2F20000012101707047000010B543F2A8
:10303000CB7EC2F2000E9EF80010B1B143EA004C04
:1030400047F2A840C2F2000001689EF800E00020AC
:1030500001EBC00351F830405B68544083EA0C0335
:10306000234304D001307045F2D3002010BD01206D
:1030700010BD000043F2CB70C2F2000000210170CD
:1030800043F2CA70C2F200000170704743F2CC7084
:10309000C2F200000078704743F2CA70C2F200002A
:1030A00000787047F0B543F2CB7CC2F2000C9CF87C
:1030B0000010C9B143EA004E47F2A840C2F2000036
:1030C00000689CF800300024E6B200EBC60550F81A
:1030D00036606F68564087EA0E073E4306D00134DB
:1030E000E1B299421946EFD30020F0BDCAB2022ADC
:1030F00005D300EBC20050E90202C5E90002481EF8
:103100008CF800000120F0BD43F2CA70C2F200004A
:10311000002101707047000010B543F2D074C2F274
:1031200000042068002808BF10BD417D01EB41016B
:1031300004EBC101C968002918BF8847002020603E
:1031400010BD0000B0B543F2D075C2F200050446D0
:10315000286095F881000021002885F8821008BFBA
:1031600007F006FF95F8810030B195F88000617D89
:10317000814218BF1DF0A8FD95F8810010B9607D4F
:103180001DF08CFD607D00EB400005EBC000816808
:1031900009B12046884795F8820000281CBF00200E
:1031A0002860B0BD47F2AC40C2F200000068806801
:1031B0007047000043F2D070C2F2000090F8820025
:1031C0007047000047F2AC40C2F20000006800887F
:1031D0007047000043F2D070C2F2000000687047F0
:1031E00047F2AC40C2F200000068C088704700009F
:1031F000B0B50D46FEF77CFC04462846FEF778FC89
:1032000047F2AC41C2F20001844207D90968201A92
:103210008968B0EB510F88BF0020B0BD0968001B62
:103220008968B0EB510F92BF0020081A0130B0BD81
:1032300080B507F0C7FE43F2D070C2F200008421CF
:10324000FDF7F9FC80BD000047F2AC41C2F200017D
:103250000860704743F2D071C2F2000148607047C5
:1032600080B500EB400E43F2D070C2F2000000EBDC
:10327000CE000830DDF808C080E80E1080BD0000E8
:1032800043F2D07200EB4000C2F2000202EBC00039
:103290008161704743F2D070C2F2000001680029DA
:1032A0001CBF012180F8821070470000B0B543F2C6
:1032B000D075C2F2000595F88110044621B907F0D7
:1032C00057FE20461DF0EAFC04EB440005EBC0006D
:1032D000C1690131C161B0BD80B543F2D07100EB6D
:1032E0004002C2F2000101EBC202D369013BD3618B
:1032F0000BD191F8812042B191F88010814218BF22
:1033000080BD1DF0E1FC07F029FE80BD10B543F241
:10331000D074C2F20004206840B1407D00EB400050
:1033200004EBC0008069002818BF80470020616856
:103330002060012084F88200884710BD110A417086
:10334000110C4FEA132C8170110E0270C1700371C1
:1033500080F805C0704700000022014682800630D8
:103360000A60704780B50622FDF7F2FAB0FA80F0E5
:10337000400980BD8A88828009680160704700002A
:1033800080B582B00021ADF8041000916946062294
:10339000FDF7DEFAB0FA80F0400902B080BD00000F
:1033A000026881881046704702684168104670477D
:1033B00043F6A730C2F200000078002808BF70472B
:1033C0004FF20830C4F200000121016043F695007D
:1033D000C2F200004178FF2906D043F64451C2F200
:1033E0000001097841707047FEE70000D1F800C085
:1033F0004B68CA688968C26081604360C0F800C0D9
:10340000704700004A680968426001607047000028
:1034100001390138102200BF11F801CF10F8013F27
:10342000013A8CEA030C130680F800C0F4D170470F
:1034300080B581B145F20C1C013AC0F2040C00BF0A
:1034400012F801EFC3B283EA0E035CF823300139AE
:1034500083EA1020F4D1C04380BD00002DE9F04F75
:1034600083B043F6505BC2F2000BDBF8040010B1EE
:1034700003B0BDE8F08F9BF8095000260DF10B0852
:103480000DF102090DF1040A002403E0032C04F1FC
:103490000104EDD2E8B201358DF80B60022888BF37
:1034A0000025EFB2780050FA85F00BEB8000436AFC
:1034B0000196002BADF80260E8D0404649465246DE
:1034C00098470028E2D001999DF80B00CBF8041032
:1034D0008BF808008BF809501EF02EFA9DF80B109F
:1034E000BDF80220019B38461EF06AFA03B0BDE821
:1034F000F08F0000F0B581B043F65057C2F20007DC
:103500000D460646384668211446FDF794FB2846CA
:1035100021463E70BD81FC8100F03EF801B0F0BD57
:1035200080B543F65050C2F200004068002818BF32
:1035300080BD0020FFF792FF80BD0000032888BFF8
:10354000704700EB400C43F65050C2F2000000EB15
:103550008C001C300EC0704743F65051C2F200017F
:10356000886170474EF60450CEF200004FF00061C3
:1035700001607047B0B582B08DF807100DF10700FB
:1035800001211C46154611F041FC2046294611F048
:103590003DFC284602B0B0BD7047000010B514468F
:1035A00001294FF0000206D0052903D0022907D1D6
:1035B000012200E0032211461A461EF0CFF92246EE
:1035C000104610BD0139C9B2022984BF00207047DE
:1035D00080B54FEAC10C40F20241C0F2050121FA68
:1035E0000CF1C9B2FFF7C6FF80BD000080B5042012
:1035F00009F07CFF002808BF80BD014643F6046047
:10360000C2F20000007B05228A7009F0A3FF80BD92
:103610002DE9F04107460E20984616460C4609F063
:1036200065FF002808BFBDE8F08105460020A870AE
:10363000E81D41466C712F71AE71FFF79BFE43F69A
:103640000460C2F20000007B294609F083FFBDE858
:10365000F081000070B514460D4606460AF036F8B3
:1036600043F60C71C6EBC600C2F2000101EB40004C
:10367000C57004710AF046F870BD000080B50AF00C
:1036800025F840F2CC1045F23C61C2F20000C0F2D5
:10369000040101601EF052FE43F60870C2F2000001
:1036A00000210160002002F0E7F80AF02BF880BD4D
:1036B000B0B50C4605460AF009F843F60C71C5EBA7
:1036C000C500C2F2000101EB400084700AF01AF854
:1036D000B0BD0000B0B50C46054609F0F7FF43F653
:1036E0000C71C5EBC500C2F2000101EB4000047291
:1036F0000AF008F8B0BD000010B5044609F0E6FF76
:1037000043F60460C2F20000847309F0FBFF10BDB1
:10371000B0B50C46054609F0D9FF43F6C050C2F2D9
:1037200000002844C47709F0EDFFB0BD2DE9F04159
:10373000064603F108001C4690460F4609F0D6FEE7
:10374000002808BFBDE8F081054606990120A87051
:1037500005F1080022462E716F7185F80680EC7124
:10376000FDF741F943F60460C2F20000007B2946F0
:1037700009F0F0FEBDE8F081B0B50C46054609F051
:10378000A5FF43F60C71C5EBC500C2F2000101EBC9
:103790004000447209F0B6FFB0BD000070B5144699
:1037A0000D46064609F092FF43F6C050C2F20000F3
:1037B00000EB46000582C48209F0A4FF70BD000042
:1037C000F0B581B01C4615460E46074609F07EFF4F
:1037D00043F60C71C7EBC700C2F2000101EB4000D9
:1037E00046718571C47109F08DFF01B0F0BD000014
:1037F00070B506460C200D4609F078FE002808BF7B
:1038000070BD04460620A070601D29462671FFF792
:10381000B1FD43F60460C2F20000007B214609F0CE
:1038200099FE70BD2DE9F0410746122098461546D5
:103830000E4609F05BFE002808BFBDE8F081014696
:10384000022088700F717FB1002000BF325C0B181E
:103850005A7135F8102001EB4004228118F800203D
:10386000013087429A73F1D143F60460C2F200003E
:10387000007B09F06FFEBDE8F0810000B0B50446A2
:1038800008200D4609F032FE002808BFB0BD0146F1
:10389000032088700C713CB1081D6A1E12F8013FAC
:1038A000013C00F8013FF9D143F60460C2F2000088
:1038B000007B09F04FFEB0BDB0B50C46054609F0DF
:1038C00005FF43F60C71C5EBC500C2F2000101EB28
:1038D0004000447009F016FFB0BD0000B0B586B0DE
:1038E00094460A46DDE90A1E0C9C0125CDE900310B
:1038F00000216346CDF808E0049503941FF0B8F862
:1039000006B0B0BD10B5044609F0E0FE43F62861EC
:1039100004EB4400C2F2000101EB001030F8224C2D
:1039200009F0F0FE204610BD70B50446242015466F
:103930000E4609F0DBFD002808BF70BD01461920C6
:10394000887043F60460C2F20000007B0E800D71A7
:10395000CD704C7109F0FEFD70BD000043F628618A
:10396000C2F200010C31032207E000BF013A130646
:1039700001F1300104BF002070478B7A002BF5D095
:103980000B888342F2D108797047000043F6286122
:1039900000EB4000C2F2000101EB001010F81A0C1D
:1039A0007047000080B509F091FE40F2CC1045F25E
:1039B0009C6145F24862C2F20000C0F20401C0F20C
:1039C0000402C0E9031245F21871C0F204018163D8
:1039D00043F61C6045F25461C2F20000C0F20401DB
:1039E000016043F6FC6045F20471C2F20000C0F2CF
:1039F0000401016009F086FE80BD000043F62861E5
:103A000000EB4000C2F2000101EB00102A387047C1
:103A100043F6286100EB4000C2F2000101EB001008
:103A200010F81C0C7047000043F6286100EB4000C2
:103A3000C2F2000101EB00101638704780B509F0A2
:103A400045FE43F61C6045F27461C2F20000C0F20C
:103A50000401416043F6FC6045F20871C2F20000C7
:103A6000C0F20401416009F04DFE80BD80B586B012
:103A70009C460023CDE900330292049300220023E8
:103A8000CDF80CC01EF0F4FF06B080BD43F62861EF
:103A900000EB4000C2F2000101EB0010303870472B
:103AA00043F6286100EB4000C2F2000101EB001078
:103AB00010F81D0C7047000043F6286100EB400031
:103AC000C2F2000101EB001010387047B0B50C468F
:103AD000054609F0FBFD43F62860C2F2000000EB4A
:103AE0008500C0F8904009F00DFEB0BD43F6286196
:103AF00000EB4000C2F2000101EB001010F8170CBF
:103B00007047000043F6286100EB4000C2F200015C
:103B100001EB001010F8190C7047000010B50446B6
:103B200009F0D4FD43F60460C2F20000447309F0CA
:103B3000E9FD10BD80B5014601201FF033F880BDBE
:103B400070B516460C46054609F0C0FD2846FFF73D
:103B50001DFF68B143F6286105EB4500C2F2000184
:103B600001EB00103EB130F8221C214320F8221C4A
:103B700009F0C8FD70BD30F8221CA14320F8221CBA
:103B800009F0C0FD70BD000080B50A460146012065
:103B90001FF024F880BD000080B509F097FD43F6C2
:103BA0001C6045F28C61C2F20000C0F20401816029
:103BB00043F6FC6045F21071C2F20000C0F204014D
:103BC000816009F09FFD80BD80B5042009F08EFC66
:103BD000002808BF80BD014643F60460C2F2000021
:103BE000007B38228A7009F0B5FC80BD80B51FF0DB
:103BF00021FA80BD80B50A46014600201FF01AFA5E
:103C000080BD000010B5044643F60460C2F2000017
:103C10002146FFF7AFFB204601F0AEFC10BD0000CF
:103C200080B509F053FD40F2CC1045F23061C2F28C
:103C30000000C0F20401016045F29471C0F2040179
:103C400081621FF0D3FC20F055F843F6087045F26E
:103C50004D21C2F20000C0F200010160002001F01D
:103C6000FFFD4FF440500021012201F0DBFD09F07F
:103C700049FD80BD80B509F029FD43F61C6045F281
:103C80006C61C2F20000C0F20401416043F6FC60C6
:103C900045F20871C2F20000C0F20401416009F06F
:103CA00031FD80BD2DE9F0410C46054600264FF060
:103CB00001080020002708E0062E88BFBDE8F0813B
:103CC000F8B2032806F101060CD208FA06F22A42DD
:103CD000F2D000EB400004EB8001D0B21EF062FF96
:103CE0000137E9E7BDE8F0812DE9F04381B0914665
:103CF0000D46064600274FF001080020002400BFB3
:103D000008FA07F3334207D035F8101039F81020BD
:103D1000D8B21EF063FF0134062F04D8E0B20328A6
:103D200007F10107ECD301B0BDE8F08380B509F0DD
:103D3000CDFC43F61C6045F27C61C2F20000C0F28B
:103D40000401816043F6FC6045F21071C2F200008C
:103D5000C0F20401816009F0D5FC80BD80B509F096
:103D6000B5FC40F2CC1045F2C471C2F20000C0F2C2
:103D70000401816020F0E2FA20F0CAFC09F0C2FCE4
:103D800080BD000010B5D1B192F800E04FF0000CFA
:103D9000BEF1000F11D08BB273450ED9144614F842
:103DA000013F9446834208D06FEA0E0211440A0490
:103DB00004EB0E02E8D14FF0000C604610BD00206D
:103DC00010BD000080B599B143F60460C2F2000056
:103DD000007C002818BF80BD88787C2202EA500051
:103DE00040F2CC12C2F20002105882680846904796
:103DF00080BD000080B543F60461C2F20001087383
:103E00000020C875087443F66930C0F2020000F063
:103E10008BFE80BD43F60461C2F20001C97D00291A
:103E200008BF7047022804BF00207047032808BF5E
:103E30000120704780B5014603201FF0AFFE80BD12
:103E400080B582B0ADF8041043F62861C2F20001DB
:103E5000D1F89C107622ADF806006846ADF8022035
:103E6000884702B080BD000010B582B00C461EF03D
:103E70001FFD38B173218DF802106946ADF804407A
:103E80001FF002F802B010BDB0B584B00546084678
:103E900014461EF00DFD40B172218DF8061001A9E7
:103EA00002948DF80C501EF0EFFF04B0B0BD00007E
:103EB00043F60461C2F20001C97D002908BF7047C2
:103EC000002804BF02207047012808BF0320704764
:103ED00010B50446062009F009FB002808BF10BDF4
:103EE00001465020887043F60460C2F20000007B57
:103EF0000C7109F02FFB10BDB0B50C46054609F05A
:103F0000E5FB43F63A7105EB4500C2F2000101EB17
:103F10004000047109F0F6FBB0BD00002DE9F0414E
:103F2000044602F10800984615460F4609F0DEFAED
:103F3000002808BFBDE8F08106465120B070F01D92
:103F400041462A4634717771B571FCF74CFD43F652
:103F50000460C2F20000007B314609F0FBFABDE8C4
:103F6000F081000070B514460D46064609F0AEFB20
:103F700043F63A7106EB4600C2F2000101EB400243
:103F800021F81050548009F0BDFB70BD10B50446F7
:103F9000062009F0ABFA002808BF10BD01465220E8
:103FA000887043F60460C2F20000007B0C7109F0D7
:103FB000D1FA10BD10B50446062009F097FA002882
:103FC00008BF10BD01465320887043F60460C2F25A
:103FD0000000007B0C7109F0BDFA10BD80B509F03E
:103FE00075FB40F2CC1045F2A071C2F20000C0F2A5
:103FF000040141624FF410600021012201F012FC23
:1040000009F080FB80BD00002DE9F04381B004463B
:104010002C20984616460F4609F068FAF0B105467E
:10402000DDE908903121A9702880681D39462C717E
:10403000FFF7A0F905F10B003146FFF7D7F905F1BD
:104040001B004146FFF7D2F943F60460C2F20000BC
:10405000007B294685F82B9009F07CFA01B0BDE879
:10406000F083000080B509F031FB40F2CC1045F23E
:10407000B871C2F20000C0F20401816145F2AC7176
:10408000C0F20401C16309F03DFB80BD10B59AB0D8
:1040900040F2CC11C2F20001096A45F2307243F6D7
:1040A0000464C0F20402C2F200049142A0600AD08B
:1040B00000F05EFD442806D80020C0F27710A16809
:1040C000019001A888471AB010BD0000B0B50546A0
:1040D00010200C4609F00AFA002808BFB0BD0146BE
:1040E000222088700D8020686268A368486043F6CB
:1040F00004608A60CB60C2F20000007B09F02AFAFB
:10410000B0BD000080B509F0E1FA40F2CC1045F2F4
:10411000D071C2F20000C0F20401816020F00EF9FB
:1041200009F0F0FA80BD000080B520F02FF980BDC5
:1041300010B5044609F0CAFA43F60460C2F2000062
:10414000C47309F0DFFA10BD2DE9F04381B0914648
:104150000D46064600274FF001080020002400BF4E
:1041600008FA07F3334207D035F8101039F8102059
:10417000D8B220F031F90134062F04D8E0B2032878
:1041800007F10107ECD301B0BDE8F0832DE9F0435E
:1041900081B007461020984616468946102409F03B
:1041A000A5F930B3DDE908EC014684700771431DC1
:1041B00000200024002200BF27FA00F5ED0702D0FE
:1041C000355D01321D55D4B2022C03D8072800F109
:1041D0000100F1D343F60460C2F20000007B81F8D5
:1041E0000890A1F80AE0A1F80CC081F80E8009F04F
:1041F000B1F901B0BDE8F08380B5042009F076F98B
:10420000002808BF80BD014643F60460C2F20000EA
:10421000007B11228A7009F09DF980BDF0B581B054
:104220000746162015460C4609F060F968B10646A7
:104230000420B0703780347525B1301D29462246E0
:10424000FCF7D1FB304608F0C7FC01B0F0BD000020
:10425000B0B5054604200C4609F048F9002808BF0F
:10426000B0BD032181700580C47008F0B5FCB0BDFD
:10427000F0B581B00746202016460C4609F036F905
:1042800088B105462820A870281D31461A222F80A3
:10429000FCF7A9FB43F60460C2F20000007B29464C
:1042A000AC7709F057F901B0F0BD0000C0684DF6D9
:1042B000836100BAC4F21B31A0FB0112910C43F6DA
:1042C00009525143A0EB81107047000046F60810D8
:1042D000C2F200007047000043F68C70C2F200008A
:1042E0004068704743F68C70C2F200000068704767
:1042F00040F2CC1045F2DC71C2F20000C0F20401C1
:10430000416143F68C7045F2FA01C2F20000C0F23E
:104310000401C0E90011704740F2CC1045F2E87189
:10432000C2F20000C0F20401016270472DE9F041C1
:1043300004461620984616460F4609F0D7F800287E
:1043400008BFBDE8F08105462920A8702C802F7594
:104350006E751FB1281D4146FFF748F843F604600B
:10436000C2F20000007B294609F0F4F8BDE8F081B4
:10437000F0B581B0074608201C4615460E4609F0E8
:10438000B5F868B106990122827004F0070201F0C5
:1043900007010780067145718271C17108F01CFC2C
:1043A00001B0F0BDF0B581B0074608201C461546A7
:1043B0000E4609F09BF868B106990222827004F05B
:1043C000070201F007010780067145718271C17112
:1043D00008F002FC01B0F0BD80B5014646F60810B9
:1043E000C2F200006022FCF7FEFA80BDB0B50546BF
:1043F00006200C4609F07AF8002808BFB0BD052158
:1044000081700580047108F0E7FBB0BD10B504466B
:1044100080782C2801D02A2808D143F62860C2F2DF
:104420000000D0F8901009B12046884743F6046098
:10443000C2F2000081682046884710BDB0B514461E
:104440000D461EF04DFA002808BFB0BD002182893C
:10445000817445F2FA010576C0F20401104600228B
:10446000234601F0E3F8B0BD2DE9F0479846164623
:104470008946044609F02AF92046314620F0D6F84C
:10448000054620B92046314620F094F8054609F04B
:1044900039F94DB3122009F029F8F0B10746A87A8E
:1044A000DDF820A038805820B870B81D31463C7126
:1044B00087F80590FEF75EFF43F60460C2F2000045
:1044C0000021007B39743946A7F80C80A7F80EA0AC
:1044D00009F040F8A87ABDE8F08709F0F7F8284617
:1044E00020F0BAF809F00EF90020BDE8F0870000CE
:1044F000F0B591B00646104615460C463FF0C0FD9B
:1045000008B111B0F0BD09AF384621463FF07CFF3D
:1045100001A831463A463FF069FF384639463FF038
:1045200073FF204621462A463FF060FF2846294671
:104530003FF06AFF304631462A463FF08BFE284660
:1045400029462A463FF086FE284631462A463FF055
:1045500069FF304631462A463FF048FF284631463B
:1045600032463FF077FE304631462A463FF072FE33
:104570003046002140F064F880B145F21062C0F28C
:104580000402304631463FF037FD074630463FF0E3
:10459000DBFFF06940EAC770F06102E030463FF0AF
:1045A000D3FF284631463FF02FFF01AF284629466A
:1045B0003A463FF037FF284629463A463FF032FF59
:1045C000384639462A463FF02DFF304631463A46B6
:1045D0003FF00CFF09AF384631463A463FF022FF24
:1045E000304629463FF0BEFF284621463FF0BAFF3D
:1045F000204639463FF0B6FF11B0F0BD10B5044675
:104600003FF03EFD38B104F120003FF039FD0028B5
:1046100018BF012010BD002010BD00002DE9F04F93
:104620008BB004460078042827D88A461646DFE86F
:1046300000F003264266810004F12407DDF850A053
:104640003846314604F104083FF08CFF04F164055C
:1046500006F12001284604F144093FF083FF384663
:10466000294642464B46CDF800A009F085F9FF20C7
:10467000C4F8840000250120A9E00125A8E0D4F8B1
:10468000841018463FF0DCFFB0FA80F1221D4B0980
:10469000002818BF012002EB401704F1440606EB86
:1046A000401102EB431206EB4313384609F0F4F8CD
:1046B000002502208BE0D4F8841018463FF0C0FF9C
:1046C000B0FA80F14909221D002818BF012002EB31
:1046D000411704F1440303EB411102EB401203EBD9
:1046E0004013384609F08AF8D4F8840000250138D0
:1046F000C4F884004FF00300C8BF012067E01846EB
:10470000002100253FF09CFFB0FA80F1221D4B09EB
:10471000002818BF012002EB401704F1440606EB05
:10472000401102EB431206EB4313384609F0B4F88C
:1047300004204CE0184600213FF082FF0546B0FA05
:1047400080F0400904F1040903AF029004F1240150
:1047500038464A46002D18BF01253FF063FE04F19C
:10476000440808EB451B384639465A463FF03EFEA2
:104770003846394632463FF039FE384639463FF032
:1047800081FD06F12002384639463FF02FFE09EB45
:104790004515384639462A463FF028FE02992A46F2
:1047A00009EB411008EB41115B4609F027F8484638
:1047B00041463A4618F0DEF8504649463FF0D2FEF0
:1047C0000AF1200041463FF0CDFE01250520207072
:1047D00028460BB0BDE8F08F80B5930706D4D2070A
:1047E00000F10C0015D118F009F980BDC36802F082
:1047F000010203EA010040EA020C8842184618BF91
:104800000020002A08BF1846BCF1000F08BF604610
:1048100080BD18F0CBF880BD80B50C3018F08AF957
:1048200080BD000080B540F23712C8F201023FF0AF
:1048300097F980BD80B540F23112C8F201020146FD
:104840003FF08EF980BD000080B540F23812C8F20A
:1048500001023FF085F980BD80B540F23312C8F205
:1048600001023FF07DF980BD80B540F23212C8F2FE
:1048700001023FF075F980BD80B539F013FD3FF0BE
:10488000ADF880BD2DE9F04F85B04FF00008012450
:104890004FF480760827CDF8108004E06400013FD3
:1048A00006F1040610D0B5B2284638F0AFF900285A
:1048B000F4D0204638F0D4F90028EFD0284638F05C
:1048C00065F948EA0408E9E74FF4BE7038F09EF94C
:1048D00040B14FF4BE7038F059F904A848F00048D0
:1048E00038F046F95FEA08601CD00127002404E094
:1048F0000134082C4FEA470714D017EA080FF7D005
:10490000204638F08DF90546204638F093F90646E2
:1049100020461CF0DFFF0028EAD002462846314638
:104920009047E5E7B8F1FF3F02DD05B0BDE8F08F45
:1049300046F66C184FF000094FF0FF30C2F2000845
:104940000DF1080B03254FF0000ACDF80C900290F2
:1049500009E000BF4FF0000A4FF000095FEA0A606B
:104960004FF0000AE1D008EB090090F85040FF2C0E
:1049700038D004F03F063046594637F0FDFE88B384
:1049800030461CF0D1FF1CF0A5FFB5EB941F074685
:1049900000D03FB3A409032C03D1304603A937F05C
:1049A000F5FE304638F07AF80546304604A937F06F
:1049B000E3FE022D00D110B9032D11D180B9032CD3
:1049C00008D102213046022D08BF032138F004F837
:1049D0000AF1010A03252FB130462146B84701E00C
:1049E000032500BF09F10109B9F1040FBBD15FEA4A
:1049F0000A60AFD001A838F0BBF80198049988424A
:104A0000A8D0039904900291A6E700004EF6045046
:104A1000CEF200000068102101EA1060704700002B
:104A200044F20812C2F20002C2E904017047000019
:104A300070B582B039B1887801283DD1084621F09F
:104A400043F802B070BDC00736D044F20814C2F279
:104A500000040DF10701204608F058FD60B306463A
:104A60000DF1070509E000BF304608F065FD20465E
:104A7000294608F04BFD0646F0B19DF807000228D4
:104A80000CD0042812D1304622F0F6F994F8210017
:104A90000028E9D0304621F033FAE5E7304621F02E
:104AA00015F80028E3D0216904E000BFA1690029BE
:104AB000DAD030468847DAE702B070BD80B544F2FC
:104AC0004810C2F200000021C0E91C116FF01B0168
:104AD0004FF6FF7243181C3138299A85FAD14FF0EE
:104AE000FF31C0E91511C1651B21A0F87C1040F20F
:104AF0000511A0F880100021C0F8A01021F046F99F
:104B000080BD0000B0B50C46054640F206400321CA
:104B100020F084FF002808BFB0BD290AC5700171CC
:104B2000447120F0ABFFB0BD44F20811C2F20001A5
:104B30008860704744F24810C2F200006830704745
:104B400044F24810C2F20000B0F87E007047000046
:104B500044F24810C2F20000D0E922017047000080
:104B600044F24810C2F20000B0F892007047000012
:104B700044F24810C2F20000B0F87C007047000018
:104B800044F24810C2F2000090F894007047000010
:104B900080B5FFF74DFF80BD80B544F20811C2F229
:104BA000000181F820000020C1E90000FFF786FF26
:104BB00080BD00002DE9F0418846074642F22700FB
:104BC00027211C46164620F029FF002808BFBDE813
:104BD000F081054604304146EF70FEF7CBFB3068AC
:104BE0007168F268B368C5F81620C5F81230C5F8C8
:104BF0000E10C5F80A0020686168A268E368C5F86D
:104C00001A002846C5F81E10C5F82220C5F826301F
:104C100020F034FFBDE8F08180B542F23D00002174
:104C200020F0FCFE002818BF20F028FF80BD000007
:104C300080B542F22900002120F0F0FE002818BFC4
:104C400020F01CFF80BD0000B0B50C46054642F2C6
:104C500013000E2120F0E2FE002808BFB0BDA0F82E
:104C600003502178417161788171A178C171E17837
:104C700001722179417261798172A179C172E17900
:104C80000173217A4173617A8173A17AC173E17AE8
:104C9000017420F0F3FEB0BD80B542F20E00002199
:104CA00020F0BCFE002818BF20F0E8FE80BD000008
:104CB0002DE9F0470F46054642F20D0019219846AE
:104CC000914620F0ABFE002808BFBDE8F0870446FF
:104CD000C570280ADDE9081A2071380A0A9EA071F9
:104CE00004F10900677184F8079084F80880FEF7E2
:104CF00041FB84F80FA03078207470786074B0782D
:104D0000A074F078E0743079207570796075B079AE
:104D1000A075F079E075307A2076707A6076B07A96
:104D2000A076F07AE076204620F0A8FEBDE8F08775
:104D3000B0B50C46054642F21700202120F06EFE69
:104D4000002808BFB0BD29686A68EB68AD68C0F884
:104D50000F30C0F80B50C0F80720C0F803102168CE
:104D60006268A368E568C0F81310C0F81720C0F89F
:104D70001B30C0F81F5020F081FEB0BD2DE9F04778
:104D80000746007A144688460026002120FA01F2E0
:104D9000D20718BF0136062904D8F2B2042A01F15D
:104DA0000101F3D35FFA86F94FEA091000F10A0115
:104DB00042F2430020F032FE002808BFBDE8F08731
:104DC000824638788AF8030078788AF80400B87840
:104DD0008AF8050079680AF10600FEF7CBFA387AFE
:104DE00031068AF80C0034D04FEA490151FA86F1B5
:104DF000AAF103004FEA810CA21DA8F102030027CB
:104E00009E78E51900F8106FDE78467013F8046F8D
:104E100086705E78C670E65D06716E784671AE7813
:104E20008671EE78C671D61916F8021C017216F852
:104E3000011C4172D15D0C3781727178BC45C17221
:104E4000297A0173697A4173A97A8173E97AC17306
:104E5000D6D1504620F012FEBDE8F087F0B581B003
:104E60000E46074642F2420006211C46154620F037
:104E7000D5FD48B1290A8171210AC77006714571B3
:104E8000C471017220F0FAFD01B0F0BD70B50C469E
:104E9000064642F22600402120F0C0FD002808BF4F
:104EA00070BD0546033031462022FBF79CFD05F11D
:104EB000230021462022FBF796FD284620F0DEFD48
:104EC00070BD000010B5044642F21B00022120F024
:104ED000A5FD002808BF10BDA0F8034020F0CEFDBE
:104EE00010BD0000B0B50C46054642F21A00122172
:104EF00020F094FD002808BFB0BDA0F80350216841
:104F00006268A368E568C0F80510C0F80920C0F819
:104F10000D30C0F8115020F0B1FDB0BD80B542F2A7
:104F20004500002120F07AFD002818BF20F0A6FDE2
:104F300080BD00002DE9F04F81B00F46054642F2DA
:104F400044000E219846164620F068FDD0B1044674
:104F5000DDF83090DDE90ABAC570077106304146C8
:104F60006671FEF707FA4FEA1B2060734FEA1A20BA
:104F7000E073204684F80CB084F80EA084F81090FA
:104F800020F07CFD01B0BDE8F08F000010B50446B4
:104F900042F24600022120F041FD002808BF10BD6A
:104FA000A0F8034020F06AFD10BD000080B542F279
:104FB0001800002120F032FD002818BF20F05EFD0F
:104FC00080BD000080B542F20200002120F026FDE5
:104FD000002818BF20F052FD80BD000080B542F2CD
:104FE0000300002120F01AFD002818BF20F046FD24
:104FF00080BD000080B542F23A00002120F00EFD95
:10500000002818BF20F03AFD80BD000080B542F2B4
:105010002F00002120F002FD002818BF20F02EFDF7
:1050200080BD000080B542F23B00002120F0F6FC7C
:10503000002818BF20F022FD80BD000080B542F29C
:105040004A00002120F0EAFC002818BF20F016FDDD
:1050500080BD000080B542F22A00002120F0DEFC75
:10506000002818BF20F00AFD80BD000080B542F284
:105070001C00002120F0D2FC002818BF20F0FEFC0C
:1050800080BD000080B542F20F00002120F0C6FC78
:10509000002818BF20F0F2FC80BD0000B0B50C461F
:1050A000054642F22100032120F0B8FC002808BF89
:1050B000B0BD290AC5700171447120F0DFFCB0BD9C
:1050C000F0B581B00E46074642F220000E211C4684
:1050D000154620F0A3FCC8B1C7703F0A0899DDE966
:1050E00006320771370A87712F0A0772270AC372BF
:1050F0001B0A4273120AC173090A4671C5714472D0
:10510000877203738273017420F0B8FC01B0F0BDA4
:1051100010B5044642F23C00012120F07FFC00283B
:1051200008BF10BDC47020F0A9FC10BD70B50C46BE
:10513000054642F22800072120F070FC002808BF35
:1051400070BD064604302146F570FEF713F930466F
:1051500020F094FC70BD000010B5044642F26D00D2
:10516000022120F05BFC002808BF10BDA0F803401E
:1051700020F084FC10BD000010B5044642F22D0062
:10518000012120F04BFC002808BF10BDC47020F0A6
:1051900075FC10BDF0B581B00E46044642F2080021
:1051A000202120F03BFC78B1071D0546C47038462D
:1051B00031462246FBF717FC3819C4F11F01FBF7F3
:1051C00018FD284620F05AFC01B0F0BD10B5044689
:1051D00042F20A00012120F021FC002808BF10BD86
:1051E000C47020F04BFC10BD2DE9F0470F4605467A
:1051F00042F206000F219846164620F00FFC0028C8
:1052000008BFBDE8F0870446DDE90821C570280A1B
:10521000DDE90AA92071380AA07104F10A0067715A
:10522000E67184F80880627221B1FEF7A3F804F1F8
:10523000100001E0FEF790F880F800A080F80190DF
:10524000204620F01BFCBDE8F087000070B50C463E
:10525000054642F23500072120F0E0FB002808BF98
:1052600070BD064604302146F570FEF783F83046DF
:1052700020F004FC70BD000070B50D46064642F2F9
:1052800022000621144620F0C9FB002808BF70BD8B
:10529000310A0171290A8171210AC6704571C471F0
:1052A000017220F0EBFB70BD10B5044642F2010024
:1052B000082120F0B3FB002808BF10BD61682268F8
:1052C000C0F80710C0F8032020F0D8FB10BD000084
:1052D0002DE9F0411C460E460746FB2B03F1040165
:1052E00042F23700904628BF6FF00404FF2928BF20
:1052F000FF2120F093FB002808BFBDE8F08106994C
:105300000546E2B2C770067180F805800730AC71BF
:10531000FBF769FB284620F0B1FBBDE8F0810000F7
:1053200070B5064688000C46811C42F239001546CD
:1053300020F074FB002808BF70BDC67004716CB10A
:10534000A91F421C11F8063F013C02F8043F8B786C
:105350005370CB7893700B79D370F3D120F08EFB20
:1053600070BD000070B50C46064642F236001921A9
:1053700020F054FB002808BF70BDC6700546207899
:105380002871607868716068A8716068000AE871C7
:10539000E0882872A0686872A068000AA872608914
:1053A000E872207B2873607B6873A07BA8732169F7
:1053B00005F10F00FDF7DEFF207D6875607DA875A3
:1053C000A07DE875E07D2876207E6876607EA876F0
:1053D000A07EE876284620F051FB70BD2DE9F04311
:1053E00081B098461546894607460026002000BF32
:1053F00025FA00F1C90718BF0136062804D8F1B212
:10540000042900F10100F3D3F4B2A00050FA86F0B1
:10541000C11C42F2410020F001FBC8B13106C77047
:1054200080F80490457111D0A8F10601421C00BF1C
:105430008B7A013C02F8053F11F8063F53704B7818
:1054400093708B78D370CB781371F1D120F016FB69
:1054500001B0BDE8F08300002DE9F0411C460E4686
:105460000746FB2B03F1040142F23800904628BFA7
:105470006FF00404FF2928BFFF2120F0CFFA002895
:1054800008BFBDE8F08106990546E2B2C770067113
:1054900080F805800730AC71FBF7A5FA284620F0AC
:1054A000EDFABDE8F08100002DE9F04115460E4609
:1054B0000746FC2A02F1030142F23F00984628BF4A
:1054C0006FF00305FF2928BFFF2120F0A7FA00286D
:1054D00008BFBDE8F0810446EAB2C7700671063025
:1054E00041466571FBF77FFA204620F0C7FABDE818
:1054F000F0810000B0B50C4605464FF40150022182
:1055000020F08CFA002808BFB0BDC570047120F0EF
:10551000B5FAB0BDF0B581B00E46074642F23E0086
:1055200007211C46154620F079FA58B1310A41711D
:10553000290AC171210AC77006718571047241720E
:1055400020F09CFA01B0F0BDF0B581B00D460746E1
:1055500042F24E000821144620F060FA48B1064697
:1055600004302946F770FDF705FF3046B47220F08D
:1055700085FA01B0F0BD0000B0B5044642F2050066
:10558000062120F04BFA002808BFB0BD05460330C5
:105590002146FDF7EFFE284620F070FAB0BD00006E
:1055A000B0B50C46054642F20C00022120F036FA56
:1055B000002808BFB0BDC570047120F05FFAB0BD0F
:1055C000F0B581B00E46074642F20B0007211C469B
:1055D000154620F023FA58B10699320A42712A0A78
:1055E000C77006718571C2710472417220F046FA6B
:1055F00001B0F0BDF0B581B00E46044642F209009C
:10560000202120F00BFA78B1071D0546C4703846FA
:1056100031462246FBF7E7F93819C4F11F01FBF7C1
:10562000E8FA284620F02AFA01B0F0BDF0B581B0C2
:105630000E46074642F219001C211C46154620F072
:10564000EDF9C0B1A0F8037071683268C0F80910B4
:10565000290AC0F805204573817321686268A36830
:10566000E768C0F80F10C0F81320C0F81730C0F872
:105670001B7020F003FA01B0F0BD0000B0B50C467D
:10568000054642F22400042120F0C8F9002808BF92
:10569000B0BD290A0171210AC5704471817120F0E1
:1056A000EDF9B0BD80B541F20900002120F0B6F956
:1056B000002818BF20F0E2F980BD000080B541F25B
:1056C0000100002120F0AAF9002818BF20F0D6F927
:1056D00080BD000010B5044641F20540022120F0D3
:1056E0009DF9002808BF10BDA0F8034020F0C6F9BE
:1056F00010BD000080B544F22C10C2F20000012160
:10570000817640F60340002120F088F9002818BF78
:1057100020F0B4F980BD000080B544F20810C2F258
:105720000000012180F8211020F0EEFB80BD000078
:1057300044F20811C2F20001C86070472DE9F0433D
:1057400081B0B0F8008006464488404620F0A2FAB6
:1057500098B144F24819C2F2000909F170070546F0
:10576000384607F033FF60B199F8820048B1A1B222
:105770002846324620F012FC08E0304607F0DCFEF6
:1057800017E038460021324607F0CCFE4FF0FF30DC
:1057900010FA84F4FFF7D4F994FBF0F0297E084462
:1057A000013099F88010C2B28A42287601D3E87D90
:1057B00010B101B0BDE8F08344F20811C2F200015B
:1057C00001204A69E87540460121904701B0BDE8D3
:1057D000F083000010B5044640F60140082120F097
:1057E0001DF9002808BF10BD61682268C0F80710C5
:1057F000C0F8032020F042F910BD000010B50446A7
:1058000040F66340082120F009F9002808BF10BDC8
:1058100061682268C0F80710C0F8032020F02EF954
:1058200010BD000040F2282CC2F2000C32B1DCE9BD
:10583000003211431843CCE900017047DCE9002332
:1058400023EA010122EA0000CCE9000170470000D0
:1058500044F24811C2F20001A1F87C007047000038
:1058600044F2481045F61D51C2F20000C0F2020198
:10587000C0F8A0107047000044F24810C2F20000C7
:105880000021C0F8A0107047B0B50C46054640F6A0
:105890007C40042120F0C2F8002808BFB0BD290ACE
:1058A0000171210AC5704471817120F0E7F8B0BD23
:1058B000EFF3108000281CBF01207047EFF3118028
:1058C000002818BF01207047EFF3108000281CBF8C
:1058D00001207047EFF31180002818BF01207047A6
:1058E000EFF3108000281CBF01207047EFF31180F8
:1058F000002818BF01207047EFF3108000281CBF5C
:1059000001207047EFF31180002818BF0120704775
:10591000EFF3108000281CBF01207047EFF31180C7
:10592000002818BF01207047EFF30580002818BF3A
:1059300001207047EFF30580002818BF0120704751
:10594000EFF30580002818BF01207047EFF30580B2
:10595000002818BF01207047EFF30580002818BF0A
:1059600001207047EFF31480012121EA0000704705
:10597000B0B505F007F840F24824C2F20004012552
:105980006572BFF34F8FFFF741F8002808BFB0BD25
:10599000FDF7E8FDA572B0BD80B540F24820C2F227
:1059A000000000214172BFF34F8F827A12B18172E1
:1059B00007F00CF804F0F0FF80BD000080B519700E
:1059C000090A5970111D9970090A9871000AD97055
:1059D000110AD87118461A715971FFF7AFFE80BDD0
:1059E0002DE9F0410D460446FDF7B8FF002840D0F0
:1059F00044F244260138C2F2000637184FF012086C
:105A000030461E2187F8118007F0CAFE1420B480AA
:105A100021F0BEFF002808BFBDE8F081034680F8F2
:105A2000088044F21C20C2F2000090F82410597241
:105A300090F8241039750131CAB28A4218BF012288
:105A400080F8242008205881287821461873687827
:105A50000C225873A8789873E878D873287918744A
:105A600068795874A8799874E879D8740520FFF794
:105A7000A5FFBDE8F081000070B506460E20154672
:105A80000C4621F085FF002808BF70BD0346132097
:105A9000187202205881280A5873052021460622D0
:105AA0005E721D73FFF78AFF70BD000080B544F27F
:105AB0001C2047F62D01C2F20000C0F2020147F699
:105AC0009D1247F62903C0E9001147F63101C0F2E3
:105AD0000202C0F20203C0F20201C0E90223C0E9DF
