:1000000000000120794C0300B14C03006D1903007E
:10001000B54C0300791903007F19030000000000AC
:10002000000000000000000000000000113203008A
:10003000BD4C030000000000A9320300B9320300E8
:10004000C34C030099FB0200C34C0300C34C0300E4
:10005000C34C0300C34C0300C34C0300C34C030058
:10006000C34C0300C34C0300C34C0300C34C030048
:10007000C34C0300516F0300C34C03001906030077
:10008000C34C0300C34C0300C34C0300C34C030028
:10009000C34C0300C34C0300C34C0300C34C030018
:1000A000C34C0300C34C0300C34C0300C34C030008
:1000B000C34C0300C34C030000000000000000001C
:1000C000C34C0300C34C0300C34C0300C34C0300E8
:1000D000C34C0300C34C0300C34C030010B5054CD4
:1000E000237833B9044B13B10448AFF300800123E4
:1000F000237010BD300C002000000000D8E6030083
:1001000008B5034B1BB103490348AFF3008008BD9A
:1001100000000000340C0020D8E60300154B002B33
:1001200008BF134B9D46A3F5803A00218B460F462E
:100130001348144A121A39F091FA0F4B002B00D0D1
:1001400098470E4B002B00D0984700200021040058
:100150000D000D48002802D00C4832F011F938F09B
:1001600081FD2000290032F0DDFE32F006F900BFEB
:10017000000008000000012000000000812E0300A4
:10018000300C002088820020812303000000000042
:100190000368184710B5054B0360044600F076F875
:1001A000204600F0BFF9204610BD00BF08A903009B
:1001B00070470000C36810B52BB9044904484FF4D8
:1001C000FD7231F0D3FCBDE81040184784A803004D
:1001D000A2A80300F8B50546064655F8044B8CB9AD
:1001E0000D4F386818B14FF0FF3134F09FF8346884
:1001F00024B9284632F004FE2C463560386808B130
:1002000034F0ACF8AC4204D0044905488B2231F0FC
:10021000ADFC2046F8BD00BF18720020AEA8030058
:10022000D0A80300036801221B6900211847036856
:1002300000221B69114618476FF01500704770B512
:10024000D0E90213D0E908250446521845EB030310
:1002500000F058F9636B23B104F12800BDE8704049
:10026000184770BD38B50446154600F035F9064B01
:10027000236000220023C4E908230023636384F879
:100280003850204638BD00BF08A9030013B5044606
:1002900001A831F061F9204600F03EF9636B23B10B
:1002A00094F838300BB131F09DFF0023636301A84F
:1002B00031F05AF902B010BD70B5044615461E461D
:1002C00000F02AF9C4E90856A06931F00AF92A18A1
:1002D00046EB01032046BDE8704000F013B984B03E
:1002E00073B5054607AC01A884E80E0031F034F977
:1002F0006B6B23B995F838300BB131F05DFF94E8A2
:100300000F0005F1280686E80F00DDE90C232846DA
:10031000FFF7D2FF01A831F027F902B0BDE8704025
:1003200004B0704710B5044630F090FE002201463C
:100330002046FFF797FF024B2360204610BD00BF09
:10034000FCA8030030B5436B85B00446B3B100F19F
:1003500028030FCB6D4685E80F000023636394F8F4
:1003600038300BB131F03EFF039B2BB904490548EF
:100370004FF4FD7231F0FAFB2846984705B030BDC6
:1003800084A80300A2A8030010B5044631F0D0F8F9
:10039000012201462046FFF765FF024B23602046FD
:1003A00010BD00BF14A9030010B5044630F04EFE86
:1003B000002201462046FFF755FF024B23602046EE
:1003C00010BD00BF20A90300437D10B504461BB13A
:1003D000037D0BB131F006FF204610BD13B5044676
:1003E00001A831F0B9F8637D53B9237D0BB131F029
:1003F000E3FE206931F075F8C4E90001012363755B
:1004000001A831F0B1F802B010BD37B504460D4671
:1004100001A831F0A1F800230022C4E900236B7D7C
:100420004BB1286931F05DF8D5E90032C01A61EBB3
:100430000201C4E9000101A831F096F8204603B09A
:1004400030BD30B585B004460D4603A831F084F8C0
:1004500029466846FFF7D9FFD5E90210009B019AAB
:100460005B1840EB0202C4E9003203A831F07CF8CB
:10047000204605B030BD13B5044601A831F06CF834
:10048000206931F02EF800220023C4E90001C4E9FC
:10049000022301A831F068F802B010BDD0B50023E6
:1004A00000260027C0E90067C0E902670446016131
:1004B00002754375FFF7DFFF2046D0BD10B5044637
:1004C00030F0C4FD002201462046FFF7E7FF20463A
:1004D00010BD03681B68184710B50446074B23601E
:1004E00000220023C4E9022300230846A161C4E9D5
:1004F0000433034930F06CFF204610BD38A90300D7
:10050000D304000007B5009000F10801806930F0C5
:100510009EFF03B05DF804FB00F10801806930F034
:10052000C5BF000010B5034B03600446FFF7F4FF9E
:10053000204610BD38A903000020704700290CBFD9
:100540006FF0180000207047012070476FF0150011
:1005500070476FF01500704784B001A880E80E0066
:1005600004B0704738B500230446836519B90A46BC
:1005700000F00BF803E0002AFAD100F03EF8204624
:1005800038BD00F040B900F02CB9032938B5044655
:1005900007D9D31C23F003039A1A8A1A22F0030105
:1005A0001A460023C4E90433E2600D4605BBC4E9E2
:1005B00006512262256000F0F0F900F0F1F9C4E97B
:1005C0000A556060258184F8245004F1300000F061
:1005D00005FA00280BDB04F1440000F0F9F90028CB
:1005E00005DB04F1480000F0F3F900EAE07038BDE3
:1005F0002369013323616D08D8E737B505460846FE
:10060000019138F0D5FB044638B1024601992846DD
:10061000FFF7BBFF6C6103B030BD4FF0FF30FAE76E
:1006200073B5064627314830019021F0030500F0EC
:10063000D1F9B469019806F118035CB9F3699D42D8
:1006400023D8346A5B1BF36162190123326225608F
:10065000237107E02268954213D8E26872B11A60EC
:10066000A368936000F0B8F900234FF0FF32C4E9AB
:100670000532E3612434204602B070BDA2681A60DE
:10068000F0E704F10803A468D7E700F0A5F9F2E762
:1006900051F8083C73B505460C460BB1084698471F
:1006A000EB6833B1A4F12406B34202D82B6AB342FB
:1006B00004D2002304F8203C02B070BD05F14800CC
:1006C000019000F087F9AB69019805F11802ABB110
:1006D0001D6854F8241C8D420CD30FD144F8183CEB
:1006E00013689B6844F81C3C166002B0BDE870407B
:1006F00000F072B903F108029B68E8E7002344F8B0
:10070000183C1368EEE7F8B54B699B1A002BACBF99
:10071000D318131C4B61437A4B7100F14407054613
:1007200038460C46164600F055F9284603687BB358
:1007300059696269A1EB020CBCF1000F25DB914203
:1007400026D19B68A36013B104F108021A61224606
:10075000036842F80C3F002199601A61AB6A04609B
:1007600020616BB195F8242052B12A68A24207D1CA
:10077000E2682AB96169E86A891B21EAE171984750
:100780003846BDE8F84000F027B903F10800CDE78E
:10079000A36013B104F108021A610023E360DDE7EE
:1007A000F8B5144605460F46A2F1240600F0F8F805
:1007B00054F8103C44F8047C0344024644F8103CCE
:1007C00031462846FFF79FFF296914F8204C8C40DA
:1007D000E968761A05F13000344300F007F9204645
:1007E000F8BD13B504464430019000F0F3F801233E
:1007F0000198237200F0F0F804F1300002B0BDE877
:10080000104000F0F3B82DE9F74F04460F4600F012
:10081000C7F84FF00008054607EB000984F824806C
:1008200004F14406304600F0D5F8637A0133637270
:1008300063685B1B002B2368D8BF6560019301A927
:100840001BB15A69521B002A33DD236003B11C61BE
:100850003046C1F8008000F0BFF8019B01A863BBDF
:10086000019D4FF0010A002D34D100F099F8002FBE
:1008700082465CDBA9EB0005002D5ADCA36A9BB124
:10088000304600F0A7F8A36A43B1226832B151693B
:10089000E06AA1EB0A0121EAE1719847012384F89B
:1008A0002430304600F098F80023237203B0BDE8EE
:1008B000F08F03F108019B68C2E79D681A4600218A
:1008C00091601146D268002AFAD1016003F1080054
:1008D0002B46C4E72B6AD5F808B013B105F1240004
:1008E0009847AA69002A0BDB6B6913446B6100F01F
:1008F00057F8294602462046FFF705FF5D46B2E756
:10090000E36873B1AB420CD8236AAB4209D32B79AD
:1009100022690133DBB213FA02F214BF2B7185F89E
:1009200004A005F124012046FFF7B2FEE6E74FF0F0
:10093000FF35304600F04EF823683BB15969A1EB12
:100940000A0121EAE1718D4228BF0D46304600F0D0
:1009500043F8294604F1300000F04BF8237A7BB1CC
:10096000304600F037F8237A3BB10023304623723B
:1009700003B0BDE8F04F00F02FB8304600F02CF87F
:1009800000F00EF805464DE740F8101C704740F89F
:100990000C1C704740F8081C704731F073BB000016
:1009A00007B531F0DEF970B1084B6846196830F0D0
:1009B000BBFEDDE900014FF47A72002339F08AFDB5
:1009C00003B05DF804FB32F0DBF9F9E78032002078
:1009D0000020704731F0CCB931F0E0B908B50249D8
:1009E00032F0AEF9002008BD3CA90300012132F02D
:1009F000ADB908B5012341EAE172194632F0BDF9FB
:100A0000431E5842584108BD704703680BB1084661
:100A100018477047F0B5466832680446D7680B46F9
:100A200007C987B0DB68049301AD002385E80700A0
:100A3000059321682A463046B84707B0F0BD00004C
:100A4000436807B52BB90649064800931A4631F0AA
:100A5000FFFA1A681269184603B05DF804EB1047F4
:100A600043A9030043011880436807B52BB9074920
:100A7000074800931A4631F0EBFA002202771A6811
:100A80005269184603B05DF804EB104743A9030010
:100A900043011880436807B52BB9064906480093FF
:100AA0001A4631F0D5FA1A68D269184603B05DF8D3
:100AB00004EB104743A9030043011880436807B5BE
:100AC0002BB90649064800931A4631F0C1FA1A6854
:100AD000126B184603B05DF804EB104743A90300FE
:100AE0004301188013B5044631F042F9237F23B93E
:100AF00002B0BDE8104031F051B90023237731F046
:100B00004DF963682BB90649064800931A4631F03F
:100B10009FFA1A689268184602B0BDE81040104764
:100B200043A903004301188037B503460C4600F182
:100B3000080507C985E807000021E2689961197F67
:100B40005A6121B118B1019301A92846904703B019
:100B500030BD13B5044631F00BF9237F1BB131F0E2
:100B60001DF902B010BD0123237731F017F9A368F6
:100B700004F10800002BF4D06369019401A998479F
:100B8000EFE7000038B50C4A01600023C0E90333E9
:100B900004464360836183604261037749B9074D2E
:100BA0002B6813B901F040FC2860236855F8233006
:100BB0006360204638BD00BF0B0A0000740C0020A3
:100BC00070B560B9104C26683EB9202031F0C4FDE4
:100BD00031460546FFF7D6FF2560206870BD0B4CF7
:100BE0002378BFF35B8FDB0701D50948F6E7204682
:100BF00031F0D0FB0028F8D001210548FFF7C2FFF3
:100C0000204631F0E9FBF0E7500C00204C0C0020AE
:100C1000540C0020704708B50846FFF7D1FFBDE827
:100C20000840FFF796BF82B00346684680E806009A
:100C300003C883E80500002218461A7202B0704704
:100C400070B5057AC9B200239D4209D90468E2183B
:100C500056788E4205D0E25C01321344DBB2F3E7F2
:100C60000022104670BD73B5044602A800E90C00CE
:100C7000019AFE2A1EDC207A656883180133AB4294
:100C80001ADA2368D5B26E1C1E54237A2068013309
:100C9000DBB22372C154237A206800990133DBB29E
:100CA0002372184438F0D4FB237A1D4425720020A7
:100CB00002B070BD0420FBE70120F9E738B5044617
:100CC000084609780131CDB22A4650FA81F138F050
:100CD00059FC237A5B1B2372002038BDF7B5FE2B2D
:100CE0006D460E4685E80C00089F044619461DDC3B
:100CF0003A78013AD2B29A4206D10099B81C38F03B
:100D0000A7FB002003B0F0BD037A9A1A43680A4497
:100D10009A420DDC3946FFF7D1FF95E80C003146C9
:100D2000204603B0BDE8F040FFF79DBF0420E9E78F
:100D30000120E7E77FB502AC84E80C0005460E46CB
:100D4000FFF77EFF40B1009094E80C003146284642
:100D5000FFF7C4FF04B070BD94E80C00314628468C
:100D600004B0BDE87040FFF77EBF0000002A08B560
:100D7000C0E9001205DA0749074840F2752230F051
:100D8000F5FE29B922B10349044840F27622F6E77C
:100D900008BD00BF66A9030080A903008BA903005A
:100DA0007FB5012602AD04468DF8071032460DF1DD
:100DB00007012846FFF7DAFF95E80C003146204688
:100DC000FFF7B8FF04B070BD7FB50546084616466C
:100DD000019139F095F902AC024601992046FFF7DE
:100DE000C5FF94E80C0036B14FF009012846FFF723
:100DF000A1FF04B070BD4FF00801F7E7002A08B565
:100E0000C0E9001205DA0749074840F2752230F0C0
:100E1000ADFE29B922B10349044840F27622F6E733
:100E200008BD00BF66A9030080A903008BA90300C9
:100E300013B54B680A7A9A42044605DD0849094809
:100E400040F24B3230F092FE09686846FFF7D6FF59
:100E5000009B2360019B6360204602B010BD00BF71
:100E600066A90300A5A9030030B5C9B20025012475
:100E700005704470458680F83450F9B1022903D0DA
:100E800003290CBF02242C4600EB440104440B81CF
:100E9000BDF80C30CB81BDF810308B82BDF814301A
:100EA0004B83BDF818300B8401234A8084F832301C
:100EB000BDF81C30CB84BDF820308B8530BD036875
:100EC00010B59B681446984728B12368036063688F
:100ED0004360237A037210BD1B307047C06A7047AD
:100EE0001B3001F1100351F8042B40F8042B9942F8
:100EF000F9D17047C162704770B5044601F1100521
:100F00000A3051F8046B40F8046BA942F9D110681B
:100F1000606092882281A27E63F30002A27670BD97
:100F200010B501F10A0302461A3153F8044B42F896
:100F3000044B8B42F9D110BD036870B55B6E04465B
:100F40000E461546984790B923682046D3F8983046
:100F5000984760B12B680360AB88838016F0FD0F63
:100F6000C3790CBF0122002262F30003C37170BD7C
:100F7000036870B59B6804460D46984718B1037A1C
:100F80006FF300030372236829462046D3F890309C
:100F9000BDE870401847036810B55B6E044698477B
:100FA000014630B123682046D3F8A430BDE8104094
:100FB000184710BD704770477047704770477047BB
:100FC0007047F8B5002704463E4623682046D3F80C
:100FD0009C309847B84216D92368F9B2D3F8A030AC
:100FE00020469847236801469B6820469847054657
:100FF00038B1037ADB0704D4C37913F01E0F04D091
:1010000006460137E1E73EB1354623682946D3F865
:10101000A430204698472E463046F8BD0846704713
:1010200001B1CA6070470520704704299DBF142391
:1010300003FB0100303000207047000084B038B559
:1010400005AC84E80E00099D03682946D3F8B43046
:101050009847089B02462BB9064907484FF4FD7292
:1010600030F084FD294620469847BDE8384004B05A
:10107000704700BF84A80300A2A8030084B02DE934
:10108000F7430BAD85E80E004FF000080F9E0446B5
:10109000C146172723682046D3F89C30984740451F
:1010A00014D973684B4511D923685FFA88F1D3F8D6
:1010B000A030204698472368019001469B6820464F
:1010C0009847019998B908F10108E3E70E9B2BB9FD
:1010D000154916484FF4FD7230F048FD4A46314636
:1010E0002846984703B0BDE8F04304B07047C37981
:1010F000DB06E8D523682046D3F8A8309847034696
:101100000028E0D0316800F1140207FB091153F800
:10111000040B41F8040B9342F9D11A880A809B789A
:101120008B7009F10109CEE784A80300A2A803008F
:1011300010B5044B03600446D0F8940036F0CEFCA2
:10114000204610BD98AA030010B50446FFF7F0FF33
:101150002046B42131F018FB204610BD70B504467E
:101160000D4600681146002237F03EF923682846F4
:101170000122BDE87040102137F064BD0B461146D6
:1011800043B1DA7942F00802DA711A69943009320F
:10119000FFF7E4BF70470B46114643B1DA7942F0DE
:1011A0000402DA711A6994302332FFF7D7BF70470F
:1011B0000B46114643B1DA7942F01002DA711A692E
:1011C00094304332FFF7CABF70470B46114643B114
:1011D000DA7942F00202DA711A6994305432FFF778
:1011E000BDBF70472DE9F041044617461E460D4627
:1011F000E9B10969D0F894000022333137F0F4F8EE
:10120000D4F8943001220221384637F01BFD2969B9
:10121000D4F894000022353137F0E6F8D4F8943051
:1012200030460122BDE8F041082137F00BBDBDE892
:10123000F08173B504461E468DF807200D46E1B1D6
:101240000969D0F8940000223D3137F0CDF8D4F888
:10125000943001220621304637F0F4FC2969D4F895
:1012600094000022533137F0BFF80122D4F89430B3
:1012700011460DF1070037F0E5FC02B070BD10B566
:101280000446FFF72DFE04F11B0104F194001A221D
:10129000BDE81040FFF762BF38B50446084681B18B
:1012A0000969D4F8940004F198050022093137F057
:1012B0009BF8D4F8943001221A21284636F02EFFEC
:1012C000284638BD10B50446FFF716FED4F8940042
:1012D0000022032137F088F8D4F89430201D012231
:1012E000BDE81040172137F0ADBC11F0FD0F2DE91E
:1012F000F84F044690465FFA81FA0CBF4FF001099F
:101300004FF00009002723682046D3F89C30984707
:10131000B8423ED92368F9B2D3F8A03020469847A6
:10132000236801469B68064620469847054608B94B
:101330000137E8E7037ADB07FAD4BAF1020F90F835
:1013400007B002D11BF0100FF2D00622414628460A
:1013500038F04EF818B90BF001034B4516D01BF0CE
:10136000100FE5D023683146D3F8A83020469847BF
:1013700006460028DCD00622414638F039F800281D
:10138000D6D1B37D03F001034B45D1D12846BDE84A
:10139000F88F0025FAE713B5002204468DF80710F0
:1013A000D0F89400022137F01FF80122D4F89430CD
:1013B00011460DF1070037F045FC02B010BD38B5FD
:1013C0000446084681B10969D4F8940004F19805EF
:1013D00000223D3137F008F8D4F89430012217216B
:1013E000284636F09BFE284638BD38B504460846E8
:1013F00081B10969D4F8940004F1980500222331E1
:1014000036F0F2FFD4F8943001221A21284636F043
:1014100085FE284638BD2DE9F041044617461E4694
:101420000D46E9B10969D0F894000022193136F06F
:10143000DBFFD4F8943001220221384637F002FC59
:101440002969D4F8940000221B3136F0CDFFD4F87E
:10145000943030460122BDE8F041082137F0F2BB5C
:10146000BDE8F08170B505460C4699B1096900F1F7
:10147000980600225431D0F8940036F0B5FFD5F824
:10148000943001221021304636F048FEE368C5F85A
:10149000A8303446204670BD70B504460D4659B399
:1014A0000969D0F894000022643136F09DFFD4F829
:1014B00094300122042105F10C0037F0C3FB2969A7
:1014C000D4F89400002236F08FFFD4F89430012233
:1014D0000921284637F0B6FBD4F8940000222A21CF
:1014E00036F082FFD4F8943004F12C000122BDE8DC
:1014F0007040042137F0A6BB70BD002202608280DC
:1015000070477FB506460C4621B30969D0F89400B0
:10151000002236F069FF002300931B25013D07D010
:10152000D6F8943001220421684637F08BFBF5E7AA
:1015300001AE3046FFF7E1FF9DF80C30ADF80A50E0
:1015400065F300038DF80C3096E80700234603C3CB
:101550001A70E56004B070BD10B50446FFF7CDFF0A
:1015600010220021A01D38F079F8204610BD70B57A
:10157000054686B000242B682846D3F89C3098474F
:10158000A0420DD92B68E1B2D3F8A0302846984785
:101590002B680146D3F8A430284698470134EAE77F
:1015A00017220021684638F059F86E466846FFF762
:1015B000D3FF0FCE2C1D0FC496E8030044F8040B94
:1015C00024F8021B090C217010220021684638F013
:1015D00045F81022002105F11B0038F03FF806B055
:1015E00070BD00001A4B2DE9F041044640F8043B61
:1015F0000F462546FFF7B0FF1022002104F11B0023
:1016000038F02CF80026134BE66245F8303B04F125
:1016100094082846FFF771FF2B7AAE7166F300033A
:10162000EE712B7214354545F3D12E232364962396
:101630006365FE23A3664FF4B373E3674FF4E77368
:10164000C4F89470C4F890302046BDE8F08100BF23
:10165000D4A9030098AA030037B500221146044616
:1016600036F0C2FE002301938F25013D0FD00421E7
:10167000234601220DEB010037F0E4FA0128F4D0F3
:10168000204636F02BFA0024204603B030BD204619
:1016900036F0F2FA0028F7D0F2E7000037B5054639
:1016A00018B90024204603B030BD174936F022FC9B
:1016B000044630B91549284636F01CFC044600287B
:1016C000EFD000221146204636F08EFE234601223E
:1016D00002210DF1060036F021FD012804D020463C
:1016E000FFF7BAFF0446DDE7BDF80630012BF6D15F
:1016F00002220021204636F077FE204637F028F8F7
:10170000B0F50E7FEBD1CDE7C2A90300C6A9030057
:1017100073B5002504462A460221D0F894008DF8BE
:10172000075036F061FE0122D4F8943011460DF1D5
:10173000070036F0F3FC9DF8076096B9D4F89400E2
:10174000FFF78AFF32463146D4F8940036F04CFE5B
:10175000D4F894302B480122022137F073FA02B0FA
:1017600070BD2A460321D4F8940036F03DFED4F82B
:10177000943001221721201D36F0D0FC2A461A2170
:10178000D4F8940036F030FED4F8943001221021C1
:1017900004F11B0036F0C2FC2A462A21D4F894003A
:1017A00036F022FED4F894300122042104F12C00FA
:1017B00036F0B4FC04F1300623682046D3F89C30A0
:1017C0009847A842CBD93169D4F89400002236F06A
:1017D0000BFED4F8943001220921304636F09EFCED
:1017E0003169D4F894000022643136F0FDFD06F131
:1017F0000C00D4F894300122042136F08FFC01351E
:101800001436D9E78CAA0300C36810B52BB9044974
:1018100004484FF4FD7230F0A9F9BDE810401847B4
:1018200084A80300A2A8030084B038B505AC84E8FE
:101830000E00099D03682946D3F8AC309847294625
:1018400002462046FFF7E0FFBDE8384004B070478D
:1018500084B0F8B507AC84E80E000B9E036805461B
:10186000D3F8B030314698472B6807469B6831461D
:101870002846984768B167B190F90730002B08DA1D
:101880003A4631462046FFF7BFFFBDE8F84004B0B6
:1018900070470022F5E784B070B505AD85E80E000D
:1018A000099E03683146D3F8B03098470446B0B17A
:1018B00000F1100102220A9837F09AFD78B90B98CE
:1018C000082204F1120137F093FD40B92246314657
:1018D0002846FFF799FFBDE8704004B0704700222A
:1018E000F5E70000C36810B52BB9044904484FF46C
:1018F000FD7230F03BF9BDE81040184784A80300A2
:10190000A2A8030084B070B505AC84E80E00099E5F
:10191000036831469B680546984790B1C379DB065A
:101920000FD52B683146D3F8A83028469847024691
:1019300038B131462046FFF7D5FFBDE8704004B00E
:1019400070470022F5E70000C36810B52BB90449C1
:1019500004484FF4FD7230F009F9BDE81040184713
:1019600084A80300A2A8030084B02DE9F04385B049
:101970000DAE86E80E00119C054600274FF00308C7
:101980004FF002092B682846D3F89C309847B8429C
:101990005AD9227963799A4256D22B68F9B2D3F890
:1019A000A030284698472B68019001469B6828463E
:1019B00098470246002845D0C379DB0642D5938874
:1019C000ADF80C30237900680290C3EBC30C236898
:1019D00001996344C3F80100BDF80C00A3F80500A9
:1019E000D379226813F0010F2379C3EBC30314BF2B
:1019F00000200120D054237962790133DBB29A426E
:101A0000237121D02B682846D3F8A8309847C8B155
:101A10002379C3EBC302236813440268C3F801208F
:101A20008288A3F80520837D226813F0010F2379B3
:101A3000C3EBC30314BF02F8039002F803802379B9
:101A40000133237101379DE721463046FFF77CFFC4
:101A500005B0BDE8F04304B0704784B008B503A8F2
:101A600080E80E000799FFF76FFFBDE8084004B05B
:101A700070470020704770470220704706F0A8BEEC
:101A8000094BD3F88800002100F020020B461343D5
:101A900008D0064B18680B4600F02002134301D013
:101AA00006F0D9BC06F031BD383D0020E80000202A
:101AB000024A02600022C0E904217047C0AB030063
:101AC00010B50446406903689B6898472368204620
:101AD0001B6ABDE810401847036810B504465B6AEE
:101AE000984760690368BDE81040DB68184700004C
:101AF00007B5019100F068FC0368DB69984701991C
:101B000003F015FB20B104490448662230F02EF89A
:101B100003B05DF804FB00BF50AB0300A0AB0300B3
:101B200030B50B780E2B85B005460C461CD10979D3
:101B3000E37803EB012399B242F20F03994204F1D7
:101B400006025AD8B1F5005F10D840F663439942B7
:101B500000F0998030D840F60143994200F08B8024
:101B600040F6034399427FD005B030BDA1F5005344
:101B7000013B0E2BF8D801A252F823F07F1C000085
:101B8000931C0000BF1C0000691B00008D1C00009E
:101B9000691B0000691B0000691B0000691B000035
:101BA000691B0000691B0000691B0000691B000025
:101BB000691B0000B11C000041F20103994246D0AC
:101BC00041F209039942CFD15D4811466C4611F0AC
:101BD000D7FD00230093A3802B6821465B6928462C
:101BE0009847002852D094E803000290ADF80C10FA
:101BF000284602A9FFF77CFFB6E742F22403994288
:101C000000F086800FD842F21803994200F08E80CF
:101C100042F21C039942A7D110685168494B03C393
:101C200006F0A3FCA0E742F22F03994263D006D846
:101C300042F22A03994297D1A279434B56E042F2ED
:101C40003B0399420BD842F2390399428CD93E4B5F
:101C5000D3F8A030002B87D01046984784E742F293
:101C60004A039942F3D07FE7384B394800221A7073
:101C700006F0C0FD78E7374806F0E8FC74E7364820
:101C800006F0CBFD70E706F07AFD6DE706F049FC43
:101C90006AE7E179A2792C4B02EB0122A3F87E20BE
:101CA000227A83F8832083F8822006F052FC5BE7D7
:101CB000254BA27983F8842006F03FFC54E7E379B2
:101CC000A27902EB0322204B1046D1175206C3E93A
:101CD00022010AD5214A1268002102F0400050EA90
:101CE000010202D006F011FE3EE7002283F89120A7
:101CF000FFF7C6FE38E7617A237AE279A07903EB31
:101D0000012100EB022089B280B206F06DFB2BE7C7
:101D10000D4BD3F8A02012B106F03DFD24E7A3F847
:101D20009220A3F8942006F0F0FB1DE7074A1378F1
:101D3000022B02D801331370F5E711F055FE13E7BB
:101D4000A03D0020983D0020383D0020780C002068
:101D500084B2030094B203008CB20300E8000020B8
:101D6000406910B404682469A4465DF8044B6047D8
:101D7000036910B504461BB1043098470023236162
:101D800010BD0000F8B5084F05460C465CB1FF2CAD
:101D9000264628BFFF2628463B68F1B2A41B984779
:101DA000A4B23544F2E7F8BDE40000207047704764
:101DB0000079831E58425841704700000048704720
:101DC00010AE03000368DB691847704703685B6B5C
:101DD000184703680BB108461847704770477047AB
:101DE000704770477047704770477047704770473B
:101DF0007047704770477047F0B50746406889B034
:101E00000D46E8B1142011F00DFB044620B910492D
:101E100010484E222FF0AAFE95E80F0084E80F002C
:101E20006E4604AD86E80F0085E80F0000232361AD
:101E3000FB683BB9FC60D7E90101FEF7ECFE01202D
:101E400009B0F0BD1A461B69002BFBD11461F2E703
:101E5000E8AB030030AC0300036A0BB11430184741
:101E6000704703690BB104301847704710B504215F
:101E7000044630F089FC204610BD10B5042104460C
:101E800030F082FC204610BD00F0F4BF07B5019190
:101E900000F0F0FF019900F0F8FD002003B05DF8BC
:101EA00004FB13B50C4600F0E5FF0146684600F060
:101EB000DFFD009B2360019B6360002002B010BD2A
:101EC000034600789B78272B02D0282B03D070473D
:101ED000002109F0C7BC09F005BD00007FB51C4C0E
:101EE0002378BFF35B8FDA0705460ED4204630F027
:101EF00051FA50B1174E184B3360204630F06CFA4F
:101F0000164A1749304630F036FA164C2378BFF39C
:101F10005B8FDB0718D4204630F03CFAA0B102F00A
:101F2000F5FE039003F0C4FB039A0A4B009005F101
:101F30000C010D4803F096FF204630F04DFA074A99
:101F40000A49094830F017FA074804B070BD00BFCD
:101F5000C40C00200C0F00204CAD0300E00000205A
:101F6000AF1D0000C80C0020100F0020714D0000B4
:101F700038B50379022B04461ED1002303710F4BA1
:101F80001868FFF7A9FD236820465B6A984701F0AF
:101F900029F823682046DB6A984701F0D6FB2368BE
:101FA0002046DB69984704F0CBFAA06928B105699F
:101FB00011F05AFAA561F8E7092038BDCC0C0020D1
:101FC00038B5064B03600446406828B10569142102
:101FD00030F0DAFB2846F8E7204638BD2CAD030088
:101FE00010B50446FFF7ECFF20460C2130F0CCFB87
:101FF000204610BD38B5064B03600446406828B142
:102000000569142130F0C0FB2846F8E7204638BDAA
:102010001CAD030010B50446FFF7ECFF20460C2171
:1020200030F0B2FB204610BD38B5064B03600446C5
:10203000406828B10569142130F0A6FB2846F8E76E
:10204000204638BD3CAD030010B50446FFF7ECFF59
:1020500020460C2130F098FB204610BD38B5064BC9
:1020600003600446406828B10569142130F08CFBF8
:102070002846F8E7204638BDC4AD030010B5044635
:102080002830FFF7EBFF04F11C00FFF7CDFF04F150
:102090001000FFF7AFFF201DFFF792FF204610BD95
:1020A00010B50446FFF7DAFF20460C2130F06CFB38
:1020B000204610BD38B5064B03600446406828B181
:1020C0000569142130F060FB2846F8E7204638BD4A
:1020D00064AD030010B50446006A10B103685B6884
:1020E00098472046FFF7E6FF204610BD10B504468E
:1020F000FFF7E0FF20460C2130F046FB204610BDE4
:1021000070B4D0E901340568661005EB6400E4079B
:1021100044BFAC59E35870BC184730B4D0E9013221
:102120000468551004EB6200D20748BF625930BC06
:1021300048BFD3581847000010B5054B036004464C
:10214000FEF7A4F82046FEF7EDF9204610BD00BFCB
:1021500008A9030010B5054B03600446FEF796F886
:102160002046FEF7DFF9204610BD00BF08A9030096
:1021700038B50A4B044640F8203BFEF725F9084BDA
:10218000E360A06920B1056911F06EF9A561F8E777
:102190002046FEF73FFD204638BD00BFD4AD03000A
:1021A000B8AD030010B50446FFF7E2FF204640211A
:1021B00030F0EAFA204610BD37B50D4604460192CC
:1021C0002DF032FC019B2A46214603B0BDE8304089
:1021D000FFF7C6BD10B52DF027FC0368BDE8104021
:1021E000DB68184707B501902DF01EFC03680199C4
:1021F0001B6903B05DF804EB1847000070B54E4B47
:10220000196888B029B94D494D4840F285122FF020
:10221000ADFC0B684B4E9B684B4D04A89847049B44
:10222000059C06999DF81C0033602C6011F08EF817
:1022300083B223B94149454840F29312E7E7336836
:1022400082B213FA80F02B6830609B1A94422B60A4
:1022500006D900233E493F480093A21A2FF0F0FE12
:1022600011F034FA08F0F2FA08F002FB08F05AF91B
:1022700008F038FA08F088FA374811F00FFC0EF031
:1022800013FA364811F00AFC03900CF005FA0DF031
:1022900087FE0CF041FD0CF095FF0DF09DF80DF060
:1022A0006DFF0DF04DFA0DF0E7FF0DF095FB039873
:1022B0000DF0C4F92A4811F0F1FB0EF0F9FB0EF015
:1022C00079FA0EF09BFB0EF0D1FA264811F0E6FBEE
:1022D00008F0F0FB09F058FE09F0D0FC224809F0A4
:1022E0008DFE0AF051FF08F0E3FE09F02FFA1F48B7
:1022F00011F0D4FB0FF0BEFA11F014F811F008F849
:1023000010F070FC10F064FC194811F0C7FB194B79
:102310001870462005F0BAFE17480DF05DF9164911
:1023200003200CF01DFD154808F01CFC144808B0F3
:10233000BDE8704008F0FCBBCC0C002042AC0300B0
:102340008CAC0300A80C0020A40C0020A0AC03005F
:10235000B0AC030005011880BD06010055F6000071
:10236000C10A0100F9AA000067290000D91801007C
:102370002D24000028100020D1240000C11E0000E0
:10238000AD78000038B50D4A0D4B036000230446BC
:10239000C0E90323C0E905330371836020300D4693
:1023A000FEF78CF800220023C4E90E23054B2046DB
:1023B0001D60FFF723FF204638BD00BFB8AD030006
:1023C000D4AD0300CC0C002010B50D4C2378BFF326
:1023D0005B8FDB0711D420462FF0DCFF68B12DF0B6
:1023E00023FB01460748FFF7CDFF20462FF0F4FFFF
:1023F000054A064903482FF0BEFF024810BD00BF42
:10240000B80C0020C00D0020E00000207121000069
:1024100008B5FFF7D9FFBDE808400021FEF7FBBB78
:1024200008B5FFF7F5FF08BDFFF7CEBF37B50C467F
:1024300091B303F03DF9204604F034FB054658BB48
:10244000A378202B05D07A2B28D0204605F01CF845
:1024500022E0CDE90000FEF7B3FB009006F0A2FDFC
:102460002B4600F48052134307D00BF0A5FF0DF06C
:10247000ADFC0CF059FE0CF06DFFFFF7A5FF0368F3
:102480005B6A984700F05EFCFFF79EFF0223037132
:102490000D486946C368984703B030BDE378002B08
:1024A000D3D1228842F21F039A42CED1A379627916
:1024B000217902EB0322054BB1FA81F1186892B23F
:1024C0004909FFF755FCE7E7D00C0020CC0C0020B1
:1024D00010B54388412B04460AD102F017FC00686E
:1024E00070B16389E2882188BDE8104002F020BD08
:1024F000FFF76AFF21460020BDE81040FFF796BFB6
:1025000010BD000008B5044B1868FFF7D9FABDE804
:1025100008400CF0F7BF00BFCC0C0020F7B50479E1
:10252000012C05460F46164619D0022C19D0D4B9F5
:1025300020300190FDF79FFF0198FDF74FFF96E8CF
:1025400007000A4BC5E9045783E80700F2682846EC
:10255000C3E90324FFF7D6FF204603B0F0BD0924EA
:10256000FAE70024F8E70B24F6E700BFD00C0020C0
:1025700070B504468CB0A06970B1D0E903352BB9B1
:102580003D493E484FF4FD722FF0F0FA9847A0699C
:1025900010F06AFFA561EEE704F12005294604A8C2
:1025A000FDF74FFFD4E90E3204995B18059941EB12
:1025B0000202C4E90E322846FDF75DFFD4E90E01A0
:1025C0004FF47A72002337F0D5FF05460E4670B1FE
:1025D00011F0A2F84FF47A73A5FB030103FB061177
:1025E000D4E90E321B1A62EB0102C4E90E32244C0C
:1025F00011F06AFA2378BFF35B8FDB070ED4204615
:102600002FF0C8FE50B11F48FDF7CEFE20462FF038
:10261000E3FE1D4A1D491B482FF0ADFE07A82EF012
:102620009BFF11F047FAC8B10DF11F0011F03AF805
:102630009DF81F30BBB10021CDE909114FF47A712B
:10264000A0FB0101CDE90201114A124B089300924F
:1026500008AB0B920B480ECBFDF741FE07A82EF0FE
:1026600083FF0CB070BD2EF087FF0B4B186803681A
:102670009B699847F2E700BF84A80300A2A8030063
:10268000B40C0020800D0020E00000203921000063
:102690009101000021240000CC0C002030B51C4D1D
:1026A0002B78BFF35B8FDB078BB004460ED4284634
:1026B0002FF070FE50B11748FDF766FE28462FF048
:1026C0008BFE154A154913482FF055FE2046FFF79B
:1026D0004FFF11F0EFF9C8B10DF1170010F0E2FF54
:1026E0009DF8173093B10021CDE907114FF47A71AD
:1026F000A0FB0101CDE90201094A0A4B06930092B1
:1027000006AB099203480ECBFDF7E9FD0BB030BDD7
:10271000AC0C0020E80C0020E00000205521000057
:102720009101000021240000FFF722BF10B50C46E4
:10273000FFF74AFE0368DB6A9847214600F095FFE1
:10274000FFF742FE03685B6A9847446710BD10B507
:1027500010220446002136F081FF204610BD000003
:1027600070B504462F480578BFF35B8F15F001055F
:1027700055D12FF00FFE002851D002F099FF2368A9
:102780000646DB6920469847274C284B284A666155
:10279000C4E900352346103043F8102FE360254B81
:1027A000A061C4E9073504F12400FEF7A6FE04F198
:1027B0002A00FEF7A2FE04F13000FFF7C8FF04F183
:1027C0004000FFF7C4FF04F15000FFF7C0FF04F121
:1027D0006000FEF792FE04F16600FFF7B8FF0F23DA
:1027E00084F877304FF4807384F87650A4F878300A
:1027F00084F87A5004F17C067019143501F0DEFD7E
:10280000642DF9D1636907481C60012384F85030B6
:102810002FF0E2FD084A094903482FF0ACFD0248B9
:1028200070BD00BFC00C0020280E002064AD030066
:1028300074AD0300080F0020E0000020D520000048
:1028400010B5094C094B0022C0E908210260026161
:10285000C1E90142064C0860C1E90532054BCB6174
:10286000C1E9034010BD00BF631E0000591E0000F7
:10287000012100001B21000070B517480378BFF349
:102880005B8FDB0725D42FF085FD10B3134E347812
:10289000BFF35B8F14F001040FD130462FF07AFDA7
:1028A00058B10F4D3046C5E90744EC602FF094FD58
:1028B0000C4A0D4928462FF05EFD09490B48FFF7E9
:1028C000BFFF05482FF088FD064A094907482FF049
:1028D00052FD064870BD00BFBC0C00207C0C0020DF
:1028E000800C0020E0000020AD1D0000000E002044
:1028F000CB1D000038B50E4C2378BFF35B8FDB0790
:10290000054612D420462FF045FD70B12846FFF74A
:10291000B3FF0146074800F035FF20462FF05CFD6D
:10292000054A064903482FF026FD024838BD00BF7E
:10293000B00C0020280D0020E00000207D200000C9
:10294000044B0022C3E901221A611A60024ADA60CC
:10295000704700BFD00C0020D31D000003680BB1EE
:102960000846184770471FB50190FFF72DFD036813
:102970001B6B9847002301998DF80C3003AA01F0D6
:102980006DFD38B99DF80C30042B18BF052005B03B
:102990005DF804FB0520FAE738B5064B03600446F2
:1029A000406828B1056914212FF0EEFE2846F8E7AB
:1029B000204638BD28AE030010B50446FFF7ECFFF3
:1029C00020460C212FF0E0FE204610BD38B5064B06
:1029D00003600446406828B1056914212FF0D4FE35
:1029E0002846F8E7204638BD38AE030010B5044647
:1029F000FFF7ECFF20460C212FF0C6FE204610BD4D
:102A000010B504462C30FFF7E1FF04F12000FFF77A
:102A1000D7FA04F11400FFF7EDFA04F10800FFF70C
:102A2000BBFF204610BD0346002210B503F8012B62
:102A300000F1110403F8012B9C42FBD1418210BD2F
:102A4000C06A044B002818BF1846003818BF012080
:102A5000704700BF090A0000006C044B002818BF33
:102A60001846003818BF0120704700BF090A00004F
:102A7000B1F831220280B1F833224280B1F8352218
:102A80008280B1F83722C28070470B88A0F83132BB
:102A90004B88A0F833328B88A0F83532CB88A0F869
:102AA00037327047B0F8A0220346F3B40021C0F8D3
:102AB0009811501CA3F8A8014748C3F8A001474843
:102AC000C3F8A40103F5D670C3F89C014448C3F8C9
:102AD000AC014448444DC3F8B00103F5DC70C3F8C1
:102AE000B401571DD01CA3F81D02A3F82572288835
:102AF0003E4FA3F81F0203F50770B7F800C0C3F8F4
:102B0000C001C3F8CC5103F5E47003F22225C3E9F8
:102B10007415C3F8C401A3F827C23548354D364CA7
:102B2000364EC3F8D85103F5097C0225C3F8E0C13D
:102B300003F5F47CC3E979C0C3F8B861C3F8BC41BC
:102B4000C3F8C801A3F82212C3F8DC41A3F82A1283
:102B500083F8245203F5FC71C3F8EC71C3F8F861F3
:102B6000274EC3F8F41103F22A21C3F8F01131887B
:102B7000A3F82F1203F50B71C3F8001203F50271CD
:102B8000C3E981101F49C3F8FC410868496883F80C
:102B90002C526C4603C46C4603CC03F23127C3F8B5
:102BA000351203F50671C3E9847107321649C3F87B
:102BB000310292B203F5CC70A3F8A022A3F82D2223
:102BC000C3F80C62C3F8181283F81C52A3F8AA21A8
:102BD00002B0F0BC09F018BA17310000093000004B
:102BE0007CB4030074B4030072B403006CB403003B
:102BF00005000001F80008016EB4030002000001A6
:102C00007AB4030040AE030008000001B0F8A0123F
:102C1000394A4B1C70B5A0F84C32384BC0F84432DE
:102C2000374BC0F8483200F51473C0F84032354BCA
:102C3000C0F85032344BC0F8543200F51773C0F866
:102C40005832324BC0F85C32CB1C044600259BB294
:102C5000C0F83C52A0F8A032A0F891321088A4F835
:102C600093022B48C4F8600204F52470C4F864028F
:102C700004F51B70C4F868022648C4F87C52C4E905
:102C80009B0204F51F72C4E99D52234AC4F88022B6
:102C900094F8402102F1780004EB4000C4F884026B
:102CA00004F52370C4F888021C48C4F88C02202064
:102CB00084F89002062000FB02400226A0F878303B
:102CC000A0F87A6080F87C5002F18C003144013227
:102CD00024F8101084F8402104F50F70A4F84E3247
:102CE00009F092F994F840010D4A04F17801BDE829
:102CF000704008F0A7BD00BF7EB40300173100008C
:102D0000093000007CB4030078B403000200000125
:102D10006EB403000500000170B40300020020112E
:102D20001732000090F8A23210B504464BB90123C7
:102D300080F8A232FFF7B6FE2046BDE81040FFF74C
:102D400065BF10BD10B50446034809F057F9204689
:102D5000BDE81040FFF7E6BF6729000030B590F8E6
:102D6000944100F5A2730022944206D953F8040B53
:102D7000858B8D4202D00132F6E7002030BD000085
:102D80000022C0E901220261014A0160C26070476D
:102D90005D29000038B5104B0025C0E902350F4B06
:102DA0000560C0E905350E4B8580C0E908350D4B3F
:102DB0000446C0E90B3529463830FFF7E1FF2946C4
:102DC00004F14C00FFF7DCFF294604F16000FFF737
:102DD000D7FF204638BD00BF28AE03001CAD03005E
:102DE0002CAD030038AE030038B50446FFF7D2FF20
:102DF0000022626704F17E0304F1F60123F8062C39
:102E000023F8042C03F8022C06338B42F6D104F18C
:102E1000F00204F58C73002122F8021B9342FBD1CF
:102E200004F5A072002123F8021B9A42FBD14FF057
:102E3000000384F8403104F5CA7204F5A27300253A
:102E400043F8045B9A42FBD184F89451A4220021F8
:102E500004F5CC7036F002FC5C22002104F50F7002
:102E600036F0FCFBC4E9A655A4F8A05284F8A2529F
:102E7000204638BD10B50B4C2378BFF35B8FDB07C2
:102E80000ED420462FF086FA50B10748FFF7ACFF6A
:102E900020462FF0A1FA054A054903482FF06BFAA6
:102EA000014810BD2C10002044100020E00000203C
:102EB000012A000010B503460C4607C983E8070045
:102EC000E268DA6000221A61184610BD70B5044647
:102ED00086B0236B6363606B38B1C3682146984743
:102EE000636B002BF5D01B69F4E7206B28B10569F3
:102EF00014212FF049FC2846F8E72063A080E06801
:102F000028B1056914212FF03FFC2846F8E7E0605E
:102F1000A06928B1056914212FF036FC2846F8E78E
:102F2000656AA06135B12E69284614212FF02CFC6A
:102F30003546F7E72946656201A8FFF721FF01A999
:102F400004F13800FFF7B6FF294601A8FFF718FF84
:102F500001A904F14C00FFF7ADFF294601A8FFF7D6
:102F60000FFF01A904F16000FFF7A4FF284606B097
:102F700070BD000038B50446FFF7A8FFD4F898529A
:102F800055B16B69288AC4F8983209F05DF81821A8
:102F900028462FF0F9FBF1E7D4F89C5235B12B68A5
:102FA000C4F89C32284635F00BFFF5E7B4F8A801C9
:102FB00009F04AF8B4F84C0209F046F8D4F8D00108
:102FC00035F0FEFE2846064AA4F8A05284F8405187
:102FD00084F8945104F1780108F034FC284638BD97
:102FE00017320000FFF7C6BF38B504460D466368C8
:102FF000A360A06838B1C36829469847A368002B2E
:10300000F5D01B69F4E738BD2DE9F04F87B00E46C7
:10301000BDF840A0DDF844900746144651464A46A4
:103020003046984609F02EF8054688BB182C48D043
:1030300032D8122C47D0162C14BF00240424FFF7DA
:1030400019FF3146FFF78AFE8346002841D0FFF77B
:1030500003FD00283DD000235846039305930197B4
:10306000ADF80860ADF80A80ADF80CA0CDF810906E
:10307000FFF7F2FC68B30023ADF8143001A9DBF8C8
:103080004C300BF140009847BDF814300BB3DDB263
:10309000284607B0BDE8F08F522C16D0D22C16D19E
:1030A000FFF7E8FE436F53B1FFF7E4FE446F384685
:1030B0000AF092F839460246204600F0F5FE032455
:1030C000BDE70624BBE70124B9E70224B7E70446BD
:1030D000B5E70197ADF808608DF80A40ADF80C80AF
:1030E000ADF80EA0CDF81090FFF7C4FE01A9143082
:1030F000FFF77AFFCCE738B504460D466368A36056
:10310000A06838B1C36829469847A368002BF5D05A
:103110001B69F4E738BD2DE9F04387B00D461F4623
:103120000E9E8046FFF7A6FE2946FFF717FE0446CF
:1031300030B3FFF785FC18B34FF000092046CDE906
:103140000399CDF81490CDF80480ADF80850ADF88F
:103150000A70FFF775FC68B104F12C00A36BADF8A1
:10316000149001A99847BDF8140018B1C0B207B077
:10317000BDE8F083049B7360B368BDF80C201A802F
:103180000024CDE90344B3680594ADF80850ADF8C8
:103190000A701B88ADF80C3073680493CDF8048076
:1031A000FFF768FE01A92030FFF7A5FF2046DEE704
:1031B000C368184738B504460D466368A360A06825
:1031C00038B1C36829469847A368002BF5D01B691E
:1031D000F4E738BD08B5034608461146421E042AE6
:1031E0000AD8DFE802F01209030A0E0003F13800E2
:1031F0009B6B0BB1FFF7DCFF08BD03F14C00DB6CF0
:10320000F7E703F160001B6EF3E7012103F108000B
:10321000FFF7D0FFF0E713B5C388044613F0030FA0
:1032200014BF032104210191FFF724FEA288019914
:10323000FFF7D0FF02B010BD10B54388162B04462F
:103240000AD1FFF717FE006870B10368E289218890
:103250001B68BDE810401847122B05D1FFF70AFE86
:1032600001210830FFF7A6FF10BD000008B542F6A7
:1032700002110248FFF7D7FB08BD00BF3010002045
:1032800070470846704761B1CB7943F00803CB71B2
:10329000093102F1100352F8040B41F8040B9A4271
:1032A000F9D1704741B11288A1F819201A68C1F804
:1032B0001B205A68C1F81F20704710B569B101F191
:1032C000230302F1100052F8044B43F8044B8242EE
:1032D000F9D1CB7943F00403CB7110BD41B1128811
:1032E000A1F833201A68C1F835205A68C1F839208E
:1032F000704710B569B101F1430302F1100052F8B3
:10330000044B43F8044B8242F9D1CB7943F01003CC
:10331000CB7110BD59B11868C1F83D009B88A1F868
:10332000413091F8533062F3000381F85330704715
:1033300030B579B1CB7943F00203CB7102F11005BE
:1033400001F15403106851681C4603C40832AA42B4
:103350002346F7D130BD01B14A667047052070475A
:1033600004299DBF682303FB010030300020704713
:1033700001F13D00704701F12300704701F10900A0
:10338000704701F154007047002070477047704744
:1033900070470120704770B501F1080406460546E4
:1033A0000FCC0FC523682B60304670BD7047704747
:1033B0007047704770477047704770477047704755
:1033C0007047704703680BB108461847704710B53F
:1033D0001C2104462FF0D8F9204610BD10B54FF43B
:1033E0000E7104462FF0D0F9204610BD10B52021F3
:1033F00004462FF0C9F9204610BD10B50821044637
:103400002FF0C2F9204610BD37B50446057A0CF0FE
:10341000E3FE0022CDE90022034604F10F0204F18D
:10342000090128460CF0EAFA03B030BD0CF018BBD5
:1034300070B5421E00234D1E9D420CD912F8016F3B
:10344000741EE4B2FD2C18D91BB112F8014CB44221
:1034500013D10133F0E7435D03F03F033F2B06D167
:10346000014411F8020CFF3818BF012070BD23B9C8
:10347000084410F8020C0038F6E70120F6E743791B
:1034800003F0C003C02B02D10621FFF7D1BF0020FB
:103490007047437903F0C003402B03D10321084454
:1034A000FFF7C6BF00207047037819B143F004034B
:1034B0000370704703F0FB03FAE770B4D0E90134FE
:1034C0000568661005EB6400E40744BFAC59E35897
:1034D00070BC184730B4D0E901320468551004EBD1
:1034E0006200D20748BF625930BC48BFD358184762
:1034F00070B4D0E901340568661005EB6400E40798
:1035000044BFAC59E35870BC184770B4D0E90134DB
:103510000568661005EB6400E40744BFAC59E35846
:1035200070BC184770B4D0E901340568661005EB2B
:103530006400E40744BFAC59E35870BC184770B44A
:10354000D0E901340568661005EB6400E40744BF68
:10355000AC59E35870BC184730B4D0E90132046864
:10356000551004EB6200D20748BF625930BC48BF17
:10357000D358184710B4D0E901320168541001EB58
:103580006200D20748BF0A595DF8044B48BFD358C0
:103590001847000038B5064B03600446406828B160
:1035A000056914212FF0F0F82846F8E7204638BDC9
:1035B000C4B0030010B50446FFF7ECFF20460C2111
:1035C0002FF0E2F8204610BD30B5421E431D012108
:1035D00000200A2512F8014F303C934201FB040001
:1035E00005FB01F1F6D130BD0022026082800A683D
:1035F00002608A88828070470078C0F38002C0F33E
:103600004003134400F001001844704790F8323032
:1036100007B590F8332090F8341083B98DF8043052
:103620009DF804306AB143F0020301A88DF804301C
:10363000FFF73AFF9DF8040003B05DF804FB012397
:10364000ECE703F0FD03F0E790F832304BB990F867
:10365000333043B990F83430002B0CBF00200220E7
:1036600070470020704701207047C16470470068B0
:1036700010B103681B6818477047006D20B183685C
:103680008B4201D0C068F9E7704710B50446FFF7D8
:10369000F4FF28B103682146DB68BDE810401847F5
:1036A00010BD13B504460192FFF7E7FF38B1036878
:1036B000019A9B68214602B0BDE81040184702B04D
:1036C00010BD38B50446E36A2363206B38B1C36884
:1036D00021469847236B002BF5D01B69F4E7E06A7D
:1036E00028B1056914212FF04FF82846F8E7E06269
:1036F000A06828B1056914212FF046F82846F8E79C
:10370000A060606928B1056914212FF03DF82846B2
:10371000F8E76061206A28B1056914212FF034F8B8
:103720002846F8E7206238BD10B50446FFF7C9FF08
:10373000012384F85430206D20B1036821461B69B1
:103740009847F8E784F8540010BD08B5FFF7ECFF80
:1037500008BD000007490022C0E9011206490260C5
:10376000C0E904120549C0E907120549C0E90A1277
:10377000704700BF2CAD03001CAD03003CAD03003F
:10378000C4AD030038B504460D46FFF7E3FF0E4A0B
:1037900062640E4A65630023C4E90F33A364A36324
:1037A000C5E902230A4A84F85430C4E91333C5E951
:1037B0000424084A6C60C5E90623074B2B62636B3F
:1037C00020461C6038BD00BFC533000043380000F0
:1037D000BB3400008B360000D534000038B5036AD6
:1037E00004460D465BB16362606A40B1C368294616
:1037F0009847636A0BB9236AF5E71B69F3E738BD9D
:103800001FB50023CDE90133137800911B2B04D0A1
:103810001D2B11D005B05DF804FB5388ADF80430C2
:1038200001238DF806309368ADF808306946536877
:103830000393FFF7D3FFEDE75388ADF8043002237D
:10384000EFE708B51378013B1C2B12D8DFE803F033
:103850000F110F110F110F110F110F110F110F1168
:103860000F110F1111110F110F1112111200FFF78B
:1038700018FF08BDFFF7C4FFFBE700230371836057
:1038800003738365C365036618467047014B93F85D
:1038900091007047383D002007B5084611461A468A
:1038A0009DF814300093D2B29DF81030C0B20CF0E5
:1038B00001FD002003B05DF804FB07B50846114682
:1038C0001A469DF814300093D2B29DF81030C0B261
:1038D0000CF034FD002003B05DF804FB08B5084689
:1038E000C0B2D1B20CF020FC002008BD002008704E
:1038F00070470000024B1B6800201971704700BF21
:103900005401002008B50846C0B2D1B20CF035FD14
:10391000002008BDF0B589B001AD144602F1100CCD
:103920000F462A46206861682E4603C6083464455F
:103930003546F7D1596818680E9B05AC1B8803C43F
:10394000ADF81C309DF83C30002BF8B214BF0221BA
:1039500001210CF0CFFC002009B0F0BDF0B589B01A
:10396000002301ACCDE90533ADF81C3002F110079E
:1039700013460E46224618685968254603C5083383
:10398000BB422C46F7D1F0B203210CF0B3FC00206F
:1039900009B0F0BD37B50C46154605F0F9FA0146F9
:1039A0006846FFF721FE0098BDF804302060A38030
:1039B000002001232B7003B030BD08B508469DF8E8
:1039C000081059B9002B14BF022101211346C0B2BF
:1039D0000A4601210CF0E2FC002008BD0321F5E7B6
:1039E00008B5084600231A461946C0B20CF0D6FCAA
:1039F000002008BD10B500F1350301F11002184692
:103A000051F8044B43F8044B9142F9D10CF0D2FB2E
:103A1000002010BDF8B500F145031646184601F127
:103A2000100251F8044B43F8044B9142F9D10E4F68
:103A30000E4D0CF0B3FB3C78BFF35B8F14F0010428
:103A40000ED138462EF0A6FC50B13846C5E90744E1
:103A5000EC602EF0C1FC064A064928462EF08BFC8D
:103A60002E620020F8BD00BF7C0C0020800C0020DE
:103A7000E0000020AD1D0000F7B514461A464B1EAD
:103A8000022B0E462CD800EB81077D6D9DB104F111
:103A9000100354F8041B45F8041B9C42F9D1F0B202
:103AA000796D019009F086FB0198089909F08CFB6B
:103AB000002003B0F0BD0B49019210202EF060FEF3
:103AC000019A40B1034604F1100154F8045B43F835
:103AD000045B8C42F9D178650028E0D10720E8E743
:103AE0000420E6E7CCE6030038B54B1E022B0D465A
:103AF0000FD800EB8104606D20B110212EF044FE40
:103B0000002363650022E8B2114609F053FB002050
:103B100038BD0420FCE708B50846082106F0B4FECD
:103B2000002008BD21B1012303718160002070478E
:103B30000171FBE708B50846C0B210210CF004FB88
:103B4000002008BD38B50446206B28B1D0E9003507
:103B50005B6898472563F7E738BD10B50446FFF763
:103B6000F1FF204610BD90F8343070B5044603B123
:103B700019B1256B15B984F8345070BD012384F850
:103B80003430D5E9003628469B6898472B6828468C
:103B90005B6898472663F0E708B5036B23B90163B8
:103BA0000021FFF7E0FF08BD1A465B68002BFBD140
:103BB0005160F5E710B50446FFF7C4FF0649082039
:103BC0002EF0DEFD014630B100234360034B03605D
:103BD0002046FFF7E1FF10BDCCE60300A8B10300CB
:103BE00010B50446FFF752FE20B12046FFF7E2FF72
:103BF000002010BD0220FCE710B5002444600172D3
:103C0000094C11689288C0F80910A0F80D200460D2
:103C100000F10F0203F1100153F8044B42F8044B7A
:103C20008B42F9D110BD00BF94B1030073B50546B6
:103C30000E4620200849CDE900322EF0A1FD0446B1
:103C400040B13146DDE90032FFF7D6FF2146284674
:103C5000FFF7A2FF02B070BDCCE6030037B5044603
:103C6000CDE900320D46FFF711FE40B12046DDE9F7
:103C700000322946FFF7DAFF002003B030BD0220F2
:103C8000FBE708B513463AB1917D4069C943063355
:103C900001F00101FFF7E2FF08BDF8B505464069F4
:103CA00016460F46FFF79CFF17235E430024B442DD
:103CB00038680AD00219931D907DC04300F00101BD
:103CC0006869FFF7CBFF1734F1E718B1BDE8F8409A
:103CD0002EF05CBDF8BD006A08B528B10368D3F8C2
:103CE00094309847002008BD0920FCE708B5036A16
:103CF0002BB140694FF00802FFF7F0FD08BD092025
:103D0000FCE7036A1BB180F8781000207047092097
:103D10007047F7B50023CDE9003307460D4614463A
:103D200084B1082C78696946264638BF0826FFF713
:103D3000F2FE40B928463246694635F089FBA41B9D
:103D40003544EDE7204603B0F0BD70B50546C068C8
:103D5000134602680C46566B0A4605F12401B0472B
:103D6000503522461034106851682B4603C3083280
:103D7000A2421D46F7D170BDF0B50023142707FB02
:103D800003F2841894F88B603546F60707D47C322A
:103D900045F00103104484F88B30E167F0BD013336
:103DA000052BECD10020F9E770B50022142400F1B6
:103DB0007C0504FB02F3C61896F88B60F60705D560
:103DC000EE588E4202D17C33184470BD0132052A70
:103DD000EFD10020F9E710B51446FFF7E5FF40B139
:103DE000037C64F3410303741CB9DBB264F3451331
:103DF000037410BD70B5054600220C46FFF7EBFFBB
:103E0000E86803682146DB68BDE870400122184776
:103E1000F7B50646144601220D46FFF7DCFFF068B1
:103E20000B4A03680A27DE690523B4FBF2F101F1AE
:103E3000300C0DF803C0013B02FB1144591C92FBEE
:103E4000F7F2F2D16A462946B04703B0F0BD00BF91
:103E5000A086010070B50646154601220C46FFF704
:103E6000BAFFF06803682A4621469B6ABDE87040A5
:103E7000184770B5054601220C46FFF7ACFFE8680D
:103E8000036821465B6ABDE87040184770B5054677
:103E900001220C46FFF79FFFE868036821461B6A72
:103EA000BDE8704018470000036A13B504462BB9FB
:103EB0000B490C4840F275522DF058FE0192FFF765
:103EC00073FF034648B1206A019A01684C6C596837
:103ED000234602B0BDE81040184702B010BD00BF35
:103EE00048AE0300DBE30300036A70B505461646DF
:103EF0002BB91049104840F27B622DF037FEFFF7D6
:103F000053FF0446A0B1286A616803689B6898471C
:103F100070B1237CC279C3F3400363F38612C2718C
:103F2000286A6168036832469B6ABDE8704018479A
:103F300070BD00BF48AE0300DBE3030037B5056A80
:103F400004462DB90C490D4840F291622DF00EFE49
:103F5000CDE90023FFF728FF014650B1206A4968E8
:103F60000468DDE90023E46AA44603B0BDE83040FC
:103F7000604703B030BD00BF48AE0300DBE3030081
:103F8000036A70B5054616462BB90C490C4840F239
:103F90009F622DF0EBFDFFF707FF044668B1286A2A
:103FA000616803689B68984738B1286A616803684C
:103FB00032469B69BDE87040184770BD48AE0300AB
:103FC000DBE3030037B5056A04462DB90C490D48FB
:103FD00040F2B3622DF0CAFDCDE90023FFF7E4FE05
:103FE000014650B1206A49680468DDE90023E469AC
:103FF000A44603B0BDE83040604703B030BD00BF09
:1040000048AE0300DBE30300036A70B505461646BD
:104010002BB90C490C4840F2C1622DF0A7FDFFF707
:10402000C3FE044668B1286A616803689B689847C4
:1040300038B1286A6168036832461B6BBDE870407E
:10404000184770BD48AE0300DBE30300036A2DE9A7
:10405000F0410546884617462BB91649164840F2E6
:10406000E7622DF083FDFFF79FFE0646F8B1286A50
:10407000716803689B6898470446C0B1337CC27975
:10408000C3F3400363F34512C271286A7168036881
:104090003A461B6C9847E868E3790268946B41469E
:1040A0003A46A446C3F34013BDE8F0416047BDE87B
:1040B000F08100BF48AE0300DBE30300036A70B584
:1040C000064614464BB3FFF76FFE054608B90420B9
:1040D00070BD306A696803689B6898470028F6D00D
:1040E000EB7B13F0200211D0C3795A0603D4287C4D
:1040F00010F0020007D01B0603D504232370002014
:10410000E6E70323FAE702232370E1E713F0080050
:1041100001D00123F2E72070DAE70920D8E7000098
:1041200037B51446026A05462AB90D490D4840F2D2
:10413000D5622DF01BFD0193FFF736FE014668B1F5
:10414000286A019B4968E2B20468646BB2FA82F2A1
:104150005209A44603B0BDE83040604703B030BD0B
:1041600048AE0300DBE3030070B5054616460022A7
:104170000C46FFF730FEE868036866F07F022146D0
:10418000DB68D2B2984721462846FFF70DFE68B19A
:10419000C37B03F01803182B08D1E8680368214695
:1041A0009B69BDE870404FF00002184770BD036A7C
:1041B00037B504460D46A3B1FFF7F6FD98B1017C73
:1041C00094F876308DF8043001F0010101A8FFF772
:1041D0006BF99DF8042060692946FFF793FB03B053
:1041E00030BD0920FBE70420F9E70000F0B5036AC1
:1041F00087B004460D462BB9114912484FF4AB6203
:104200002DF0B4FCFFF7D0FD80B1266A0E4A33686A
:10421000039200229F6B04920C4B42680593CDE9F8
:104220000032029402AB0ECB3046B847E068036818
:10423000DB680022294607B0BDE8F040184700BF00
:1042400048AE0300DBE30300833C00003F35000081
:1042500070B50022142400F1800504FB02F3C61897
:1042600096F88B60F60705D5EE588E4202D17C3366
:10427000184470BD0132052AEFD10020F9E7000093
:10428000036A2DE9F041054616462BB90F4910483F
:1042900040F26A422DF06AFCFFF7DAFF044698B15B
:1042A00096B1286A616803689B68984760B1ED68B9
:1042B000C3792A682168976B28463246BC46C3F307
:1042C0004013BDE8F0416047BDE8F08148AE03000F
:1042D000DBE30300036A73B5064614462BB91349A2
:1042E000134840F21E422DF041FCFFF7B1FF054696
:1042F00080B1306A696803689B68984750B14CB1D7
:10430000C27929687069C2F38013120604D5224667
:10431000FFF724FB02B070BD019304F1100300937A
:10432000224604F11203FFF7F5FAF3E748AE030063
:10433000DBE30300036A73B5054616462BB9104943
:10434000104840F237422DF011FCFFF781FF044680
:1043500088B1286A616803689B689847034650B132
:10436000686921684EB1DB79DA090092C3F38013E2
:104370003246FFF722FB02B070BDFFF731FBFAE7D0
:1043800048AE0300DBE3030073B506461546FFF7AE
:104390005FFF044680B17DB1306A616803689B6845
:1043A000984748B1C3792A69009221687069C3F3BC
:1043B00040132A46FFF760FB02B070BD38B50446D3
:1043C0000025C0E900550830FDF797F8E57325741E
:1043D000204638BD30B587B00C4601A8FFF7EEFF88
:1043E00005AD01AA2346144603CCAC4218605960BF
:1043F000224603F10803F6D122781A7007B030BDC7
:10440000036A70B504460E462BB90C490C484FF4AC
:104410009B622DF0ABFBFFF7C7FC054660B1314650
:104420006069FFF761FB206A696803689B6E9847C3
:1044300029462046FFF7CEFF70BD00BF48AE0300FF
:10444000DBE3030008B5FFF746FC08BD08B5FFF73E
:104450004DFC08BD08B5FFF754FC08BD08B5FFF7D3
:104460002DFE08BD38B50C46E4B204F09BFD0123D7
:10447000A340DD171840294050EA010314BF012072
:10448000002038BD10B5044604F082FD01462046E8
:10449000FFF7AAF8204610BD03460A8B486918604A
:1044A0009A801846704708B50346086858618A889C
:1044B0001A8308460BF038F8002008BD07B50092B3
:1044C00000220B461046032109F0DEF8002003B05D
:1044D0005DF804FB08B5FFF7F1FF08BD07B50B4613
:1044E000009203210122002009F0CEF8002003B041
:1044F0005DF804FB08B5FFF7F1FF08BD37B59DF87F
:1045000018509DF81C40ADF80620817601AA0DF1E7
:1045100006010120ADF804300BF00EFB28460BF02D
:104520003DFB214601200BF033F8002003B030BDE5
:104530001FB5134671B1827E8DF80F200021CDE9A1
:1045400000110DF10F0201200BF0AEFA002005B0B2
:104550005DF804FB0BF0DEFAF8E77FB51C469DF82A
:1045600028609DF82050084611460AF021FCE1B26F
:1045700002200BF00DF830460AF072FDBDF82C3029
:10458000ADF80430BDF83030ADF80630BDF8343049
:10459000ADF80830BDF83830ADF80A30BDF83C3021
:1045A000ADF80C3001A8BDF84030ADF80E300AF07F
:1045B00047FC099B2A46012103200AF043FD0028FD
:1045C0000CBF0C20002004B070BD1FB5ADF8063044
:1045D000BDF81830ADF80830BDF81C30ADF80A3021
:1045E0000846BDF82030ADF80C3001A9BDF82430E4
:1045F000ADF80420C0B2ADF80E300AF045FC002042
:1046000005B05DF804FB08B5D2B2C9B203200AF0C8
:10461000B7FB002008BD08B50846114609F0B8F8F8
:10462000002008BD1FB5084619461446039009F03E
:10463000B3FE079B0398009300229DF81830E1B267
:1046400009F022F8002004B010BD13B5059C0194B8
:104650009DF810400094FFF7E5FF02B010BD1FB5B4
:10466000084619461446039009F096FE079B0398E6
:10467000009301229DF81830E1B209F005F80020FE
:1046800004B010BD13B5059C01949DF81040009432
:10469000FFF7E5FF02B010BD08B5104619B109F0EB
:1046A000FDFD002008BD09F00DFEFAE704F086BC10
:1046B000BF207047FB20704708B504F085FC032835
:1046C00028BF0320C0B208BD08B509F04FF800208C
:1046D00008BD73B50446C8B215468DF80430069E71
:1046E0000BF05CFA01A8FEF787FF04F11B02002320
:1046F000834204D2F15C02F8011B0133F8E79DF814
:104700000400A077DDE907120BF016FAE9B20120E8
:104710000AF03EFF002002B070BD07B5B1B1BDF890
:10472000101001910A214B434FF6FF718B4228BFB5
:104730000B469BB200930021D3B200F11B02807F95
:104740000BF0B2F9002003B05DF804FB0BF0E2F9C6
:10475000F8E72DE9F04F8BB00DF150080F4618F82F
:10476000044FDDF8689016462046DDE916121D4616
:10477000DDE918BA0AF032FBF9B202200AF008FFAC
:10478000F0B20AF06DFC4046FEF736FF01AA0023A6
:104790001146834202F10C021CD23BF8136022F84E
:1047A0000C6C3AF8136022F80A6C39F8136022F89E
:1047B000086C1B9E36F8136022F8066C1C9E36F8B7
:1047C000136022F8046C1D9E36F8136022F8026C08
:1047D0000133DEE720460AF037FB149BEAB221469C
:1047E00003200AF02FFC00280CBF0C2000200BB087
:1047F000BDE8F08F10B50246002392F82D40022C40
:1048000007D192F827408C4203D1203000EB0310EF
:1048100010BD0133032B02F11002EED10020F7E7A7
:1048200010B50246002392F82D40022C06D1946A5E
:10483000A14203D1203000EB031010BD0133032B44
:1048400002F11002EFD10020F7E710B50246002375
:1048500092F82D40012C07D192F827408C4203D1C9
:10486000203000EB031010BD0133032B02F11002C6
:10487000EED10020F7E730B50D4689B059B30021DD
:10488000FFF7E3FF0446C0B1037B0290002B4FF01B
:1048900000058379019300950BBF4FF4A0632B466D
:1048A00001220422294603200AF008FDA06020B35B
:1048B00002236373284609B030BD8DF81400ADF8AB
:1048C0001C008DF8180006AB07AA05A9012008F006
:1048D00003FF2046EFE7FFF78DFF044630B1017A72
:1048E000162203200AF04CFA6573E3E78DF81C00EA
:1048F00007A9012008F01CFFEBE70C20DBE72DE9FE
:10490000F04F032A8BB083469246994672D800290D
:104910004ED00024A0460A264FF6FF77A2453FD985
:10492000149B19F8041033F814307343BB4228BFAA
:104930003B4658460593FFF788FF19F80410059B7E
:104940000546D8B1027B0290002A8279019208BF05
:104950004FF4A0634FF0000200929BB20CBF012203
:10496000042203200AF0AAFCA86018B90C200BB09E
:10497000BDE8F08F02236B730134CFE70AAA4244EB
:1049800002F8101C1599095D02F80C1C0AAA02EB2A
:10499000480208F1010822F8083C5FFA88F8EBE7C2
:1049A00007AB08AA06A9404608F096FE0020DEE7FD
:1049B0000C460D460F46A24517D919F80410584663
:1049C000FFF718FF064638B1017A162203200AF0D5
:1049D000D7F977730134EEE70AAB2B4419F80420BA
:1049E00003F8082C0135EDB2F4E708A9284608F0D1
:1049F0009FFEDBE70420BAE790F82D3033B190F842
:104A00003D303BB190F84D3033B90223203000EBFC
:104A1000031070470123F9E70020704782B0F8B512
:104A200007469DF8246007931446FFF7E3FE05460A
:104A300028BB01463846FFF708FF034698B1012C12
:104A400001D0042C0DD19E71DDE90701221F5442D3
:104A50005441186099801C730020BDE8F84002B0F2
:104A600070474573F8E7012C01D0042CF4D1384687
:104A7000FFF7C2FF034620B101224273E3E706209D
:104A8000EBE70C20E9E72DE9F7439DF828909DF826
:104A900034809DF82C609DF8387005460020DCB20B
:104AA00008F092FE484608F0B1FE4146002008F0AA
:104AB0009FFE394600200AF06BFD0C9B32462146D2
:104AC000002008F0C1FD0C9A8DF8046052F8043BF8
:104AD0001288ADF80020002122462846FFF79EFFED
:104AE00003B0BDE8F0832DE9F04F85B016469DF880
:104AF00040208DF80D209DF854208DF80E2016F0E2
:104B0000100F9DF85C208DF80F2007460D469DF88C
:104B10003CB09DF844809DF84CA006F00100C6F31F
:104B20004002C6F38001C6F3C004C6F300190FD0DB
:104B300029B914B900285FD0A2B9042059E0002A8D
:104B4000FBD10028F9D0002C0CBF0424012409E07B
:104B5000002956D1002CF0D100284DD0002A14BFD6
:104B60000024052499B2BDF83820284608F02CFE10
:104B70009DF80D0008F04AFE5FFA8BF1284608F018
:104B800037FE5FFA8AF2002128460AF006FD9DF8FA
:104B90006410284609F0F0FB9DF80F309DF858206E
:104BA0009DF80E10284609F0D3FB9DF95020C6F35E
:104BB0008011284609F0BAFB4946284609F096FBC1
:104BC000C6F34011284609F0A1FB129B5FFA88F258
:104BD0002146284608F038FD129A8DF8048052F8D4
:104BE000043B1288ADF80020294622463846FFF7DC
:104BF00015FF05B0BDE8F08F002A0CBF0324022486
:104C0000B0E710B1002A9ED097E7002A14BF07240E
:104C10000624A7E72DE9F04F89B004460B8891F8E8
:104C200004B091F808A091F8099001930D4602A8EC
:104C30000A31FEF7D9FC05F1170104A8B5F8108078
:104C40006F8AAE8AFEF7D0FC05F11D0106A8FEF7BB
:104C5000CBFC019B02986360BDF80C30C4F80A00DD
:104C6000E3810498BDF81430C4F8160063830698F5
:104C7000BDF81C30E06101222046227084F801B0AA
:104C800084F808A084F80990A4F810806782A682AE
:104C9000238409B0BDE8F08F70B502230446037188
:104CA0000D46054B44F8083B06460FCD0FC42B6854
:104CB0002360304670BD00BFBCB1030010B5044690
:104CC000FCF71BFC0023A3716373204610BDF0B5F5
:104CD00085B0044600F1300602AF6846FFF7EEFFEC
:104CE0006A4604F12003154603CDBD4218605960A1
:104CF0002A4603F10803F6D1286818601034AA8800
:104D00009A80B442E9D1002005B0F0BD70B5144ED0
:104D10003578BFF35B8F15F001051FD130462DF0BC
:104D200039FBD8B10F4C04F1140025602561FCF764
:104D3000E4FB04F12000A577FFF7C0FF04F1300089
:104D4000FFF7BCFF04F14000FFF7B8FF30462DF03D
:104D500043FB054A054920462DF00DFB014870BD77
:104D6000E8120020EC120020E0000020C333000015
:104D700038B50B4B0B4D044640F8C83FFBF70AFA19
:104D8000204640F8885FFBF705FA204640F8485F68
:104D9000FBF700FA2046FEF7FDFB204638BD00BFBA
:104DA000FCA803002CA9030008B58069FFF75AFB93
:104DB00008BD08B58069FFF779FC08BD08B58069B2
:104DC000FFF776FC08BD08B58069FFF773FC80B279
:104DD00008BD37B5044668460D46FEF705FC684633
:104DE000FEF74DFBA8B1A0692946FFF75CFB70B93F
:104DF000012384F824302B68C4F82530AB88A4F84C
:104E000029302B68C4F83D30AB88A4F8413003B09A
:104E100030BD0420FBE713B590F824300B7090F8F8
:104E200024308169144668464BB9FFF72BFB009884
:104E3000BDF8043020600020A38002B010BDFFF751
:104E40002BFBF4E708B58069FFF7DDFB08BD82B0F6
:104E500002AB03E903009DF80500801101280BD087
:104E6000032803D028B1042002B07047002010703E
:104E7000FAE701231370F7E7022313700020F3E72A
:104E800037B54B7805460C4683B9006918B10A7AE4
:104E90004968FFF7B5FAE86840B103686168227AAB
:104EA00000919B6A8DF804206946984703B030BD95
:104EB00070477FB505460C460026286A02A9CDE951
:104EC0000266FEF728FE10B1002004B070BD9DF808
:104ED0000D3002A903F03F0368468DF80D30FEF750
:104EE00083FB0098BDF804302060A380214668460B
:104EF000FEF77AFB9DF8053013F0C00FDDD10621D7
:104F00006846FEF795FA0028DFD1D6E730B4C9B27B
:104F1000C0689DF80850002918BF0B2130B1046803
:104F20008DF80850246BA44630BC604730BC7047F5
:104F3000C06810B428B10468646BA4465DF8044BE3
:104F400060475DF8044B704730B4C9B2C0689DF843
:104F50000850002918BF0B2130B104688DF80850A3
:104F6000246BA44630BC604730BC7047F0B5C068C5
:104F700087B09DF830709DF838609DF84050C8B1FA
:104F8000C9B204688DF8083000290D9B039318BF3F
:104F90000C21BDF83C3024698DF80410ADF80620D2
:104FA0008DF809708DF81060ADF812308DF814503E
:104FB00001A9A04707B0F0BD07B5C06828B10368D4
:104FC000ADF804109B6901A9984703B05DF804FB94
:104FD00013B5C06840B1046824688DF800108DF8DE
:104FE000012001936946A04702B010BD08B5FFF744
:104FF000DBFE08BD08B54FF00C01FFF7F7FF08BD59
:1050000010B50446FFF7F6FF30B1A069FFF754FB77
:105010000F2828BF0F2010BD0120FCE730B589B054
:105020000C460546FFF7E6FFA378D8B1227A8DF843
:1050300014208DF81520A288ADF81820ADF81A209C
:10504000E288ADF81C20ADF81E2007AA029206AA3D
:10505000019205AA009221786278A869FFF739FBCE
:1050600009B030BD5B070CD4627823788DF804203A
:105070008DF80030A288E388217AA869FFF73EFA0C
:10508000EEE70420ECE790F8433073B50446A3B391
:10509000FFF7B0FFD0B1002504EBD50305F0070200
:1050A00093F808311341DB07EEB20CD56846FCF7E4
:1050B00024FA69462046FFF7FCFEF0B1A0696A4673
:1050C0003146FFF7A8FA01350F2DE5D16846FCF708
:1050D00014FA69462046FFF7ECFE70B1A0696946F4
:1050E000FFF7E1F948B90123009884F82430BDF8AE
:1050F0000430C4F82500A4F8293002B070BD08B50A
:10510000FFF757FE08BD08B5FFF758FE08BD08B504
:10511000FFF759FE08BD08B5FFF780FF08BD08B5C9
:10512000FFF790FE08BD08B5FFF775FE08BD08B58E
:10513000FFF74FFE08BD0000024A026000224260F5
:10514000C2607047C4B0030038B504466368A3600A
:10515000A06838B1C36821469847A368002BF5D0F2
:105160001B69F4E7606828B1056914212DF00CFB78
:105170002846F8E76060E06038BDB1F5486F28BFA9
:105180004FF44861062938BF06210180704707B5F2
:105190000988013110FB01F189B201A8FFF7EDFF89
:1051A000BDF80410490089B201A8FFF7E6FFBDF879
:1051B000043040F2E240584303B05DF804FBB1F51F
:1051C000486F28BF4FF448610A2938BF0A2101807F
:1051D00070472DE9F043C66887B00C4616B34D788A
:1051E0003368D1F8049009895F6A002D684618BFBA
:1051F0000B25FFF7C2FFA189B4F80A8001A8FFF7C9
:10520000DEFFBDF80030ADF81030BDF804308DF889
:105210000850CDF80C90ADF81280ADF8143002A90A
:105220003046B84707B0BDE8F08300002DE9F041F3
:1052300090F8123113F001038AB00C462FD0C568E4
:1052400035B32B68D1F8048009891E6A04A8FFF7DA
:1052500094FF618905A8FFF790FFE189A78906A857
:10526000FFF7ADFFBDF81030ADF82030BDF81430B9
:10527000ADF82230BDF81830CDF81C80ADF82470A0
:10528000ADF8263007A92846B0470AB0BDE8F0813E
:1052900009490A4800952B462A462CF0D9FECDE94B
:1052A0000233CB8901938B8900934B890A898069EA
:1052B0004968FFF78AF9E8E791AE030048011880D2
:1052C0002DE9F04390F812418BB014F00104BDF8C1
:1052D0004870BDF84C800D461E462CD0C4681CB3E7
:1052E0002368114604A8D3F82090FFF746FF314603
:1052F00005A8FFF742FF414606A8FFF760FFBDF88B
:105300001030ADF82030BDF81430ADF82230BDF8C3
:1053100018300795ADF82470ADF8263007A920465F
:10532000C8470BB0BDE8F0830749084800942346FE
:1053300022462CF08DFECDE90244CDE9007880694B
:10534000FFF743F9EDE700BF91AE03004801188075
:105350002DE9F04F1C46164693F8323094F833206E
:10536000134494F83420134413F0FF0F8FB0054614
:10537000884601D1042076E0CFB2FF2FFAD04FF05B
:1053800000092046FEF742F98DF834000DA8FEF71B
:1053900033F948452ED92046FEF756F9103004EB74
:1053A000400030F819100BA8FFF709FF2046FEF760
:1053B0004BF90A3004EB400030F819100CA8FFF745
:1053C000DCFE2046FEF740F90D3004EB40000DA94D
:1053D00030F81930BDF83000ADF83430FFF7D7FEA3
:1053E000BDF82C2042F2107353439842C2D209F107
:1053F0000109C6E72846FFF7FDFD8146002835D1A3
:105400002046FEF703F98DF834000DA8FEF7F4F8F6
:105410000128AFD19DF83430D907ABD54A4649466B
:10542000A869FFF785F82046FEF70EF900B204EBF5
:105430004000AD69C189838A478BB0F820C0B0F8BD
:1054400026E062788DF80820CDE907E3CDE9057CF8
:10545000CDE9031301968DF80080028941882378F5
:105460002846FFF77AF80FB0BDE8F08F00230093CD
:105470001A461946A869FFF750F92046D5F8188052
:1054800094F8009094F801A0FEF7C0F883462046F7
:10549000FEF7DAF807F0FD035A1E013045005342CB
:1054A000534105F12A022244099205F124022244C3
:1054B000089205F11E022244079205F118022244C7
:1054C000069205F112022244059205F10C022244D3
:1054D0000492AA1D22442C44039202948DF804B035
:1054E0000096524649464046FFF733F9BBE708B5F8
:1054F000FFF72EFF08BD00002DE9F041036A88B0D8
:105500000446BBB14069FEF7C1F903B205468046C7
:1055100003EB43001449C3EBC0002DF033F90646FA
:1055200060B10746B8F101080AD33846FCF714F811
:105530001737F7E7092008B0BDE8F0810720FAE740
:10554000206A04940368CDE90265DD6B074B05937F
:1055500002AB01930024064B0093069404AB0ECBE0
:10556000A8472046E7E700BFCCE603009B3C0000CD
:105570000B35000010B50446FDF7E9F8002323823F
:10558000C4F81230C4F81630204610BD38B50446B1
:10559000FBF7B3FF237A002565F300032372A5719F
:1055A000E57104F10900FFF7E5FF04F12300FFF7BF
:1055B000E1FF04F13D00FBF7CFFF04F15400FDF7DC
:1055C000C6F86566204638BD10B59AB00C466846E8
:1055D000FFF7DCFF68226946204633F039FF1AB036
:1055E00010BD0000F8B50546006A0C4610B103680E
:1055F0005B6898472046FCF751F81A49064680B187
:10560000B4202DF0BDF8044610B13146FBF7EAFF97
:105610002C62286A18B30368D3F88C3098470020AE
:10562000F8BD4FF40E702DF0ABF804460028EFD013
:105630000D4B40F8043BFBF78FFF04F11B00FDF717
:1056400086F8E6622646094B46F8303B04F50E77AD
:1056500030466836FFF79AFFBE42F9D1D8E70720F7
:10566000DEE700BFCCE60300D4A90300D4B00300FA
:1056700038B500250446056005718560057300F1A5
:105680000D0300F12D0203F8015B9342FBD125636A
:1056900084F8345004F13500FDF759F804F1450061
:1056A000FDF755F8C4E916552566204638BD0000BB
:1056B00010B50B4C2378BFF35B8FDB070ED420466D
:1056C0002CF068FE50B10748FFF7D2FF20462CF0BF
:1056D00083FE054A054903482CF04DFE014810BDE4
:1056E0003C13002040130020E00000205B3B000042
:1056F0007FB50446006A20B303689B6C9847054653
:10570000206A0368DB6C984706466846FDF71FF879
:1057100085B9102269462046FEF7FBFA78B9206A5F
:10572000036869461B6D9847206A036831465B6DC4
:1057300098476D46606932462946FEF76BF904B01A
:1057400070BD0920FBE730B5016A8BB0044651B348
:105750000B6802A8DB6D984706A8FCF7F8FF10223B
:1057600006A902A833F044FEB8B9102202A92046C7
:10577000FEF7CFFAA8B906A8FBF7BFFE60690DF1E6
:10578000070206A9FEF706F958B9206A036806AAB7
:105790009D6D9DF8073002A9A847606902A9FEF730
:1057A00029F90BB030BD0920FBE72DE9F34704468A
:1057B0004069DDF828A09DF82C6088461746994678
:1057C000FEF75BF8054600285DD10C992046FFF7EF
:1057D00009FF0546002856D160694946FEF78AF858
:1057E000BAF1000F53D05046FDF7EEFE0146606956
:1057F000FEF798F9012384F8793060690DF107010B
:10580000FEF774F894F8763004F17600B8F1000FE2
:105810003FD043F0010384F876303946FDF744FE6B
:105820009DF8072094F87630002A35D043F008031D
:1058300043F0100384F8763094F87730204623F054
:10584000080300F8773F3146FDF72EFE16B12046DB
:10585000FFF74EFFA369E0691C602146FCF766FF75
:10586000636920461C60FFF747FE60B12046FFF7E2
:105870006AFF064638B1206A10B103685B68984732
:10588000002323623546284602B0BDE8F08729464A
:10589000ADE703F0FE03BEE703F0F703C8E71FB56B
:1058A000089C02949DF81C400194069C0094FFF70C
:1058B0007CFF04B010BD08B5062233F099FDB0FAA4
:1058C00080F0400908BD0000036A37B505462BB9D2
:1058D0001A491B4840F27E422CF048F9FEF764FA60
:1058E000044688B1286A616803689B68984758B184
:1058F00095F876301B0709D505F12A01FFF7DBFF84
:10590000237C60F30413237403B030BD237CC3F302
:10591000800262F30413237405F160010191FFF723
:10592000CAFF30B9019904F10800FFF7C4FF00284D
:10593000EAD0237C43F01003E5E700BF48AE030044
:10594000DBE30300F0B5036A85B004460E46002B86
:1059500054D0FEF729FA0546002851D094F8793042
:105960001BB994F876301A074CD5002231462046F0
:10597000FEF731FA31462046FFF7A6FF94F877206C
:105980002B7C94F87670DB07C2F3C00343F002036C
:105990008DF8083095F90F3048BF47F00407002B09
:1059A000B6BFEA7BC2F38001C2F3801102A8FDF703
:1059B0007BFD94F87A2094F877300AB18DF808309E
:1059C0008DF80C3095F90F30E97B002B04DAC1F328
:1059D000801103A8FDF768FD2A7C9DF808309DF82A
:1059E0000C108DF804108DF8003060693B46C2F34E
:1059F00000123146FDF750FF05B0F0BD0920FBE76E
:105A00000420F9E70620F7E708B5FFF79BFF08BD7C
:105A10002DE9F04105460E461746FEF7C5F9044646
:105A200040B3FBB2022B0DD1C37B23F0380343F00C
:105A30002003E373E86803683A4631469B69BDE892
:105A4000F0411847DA1E012A05D8C37B23F03A0338
:105A500043F02203EDE7002BECD1C37B03F01803E6
:105A6000082BE7D101682846FFF7CEFFE37B43F020
:105A70001003E373BDE8F081F0B5036A85B0054615
:105A80000E46002B56D0FEF78FF90446002853D05F
:105A900031462846FFF718FF237C95F8767095F875
:105AA0007A10DA07A27B48BF47F0040702F00F0321
:105AB00002F0040200293AD095F877100B408DF8D7
:105AC00008306AB194F90F30002BB5BFE17B95F82F
:105AD0007720C1F38011C2F3800102A8FDF7E4FC36
