:020000040000FA
:1000000000000120FD02000009030000DD010000E6
:100010000D030000E5010000E90100000000000000
:100020000000000000000000000000003902000095
:100030001503000000000000D1020000E1020000F2
:100040001B030000A9B800001B0300001B030000F5
:100050001B0300001B0300001B0300001B03000028
:100060001B0300001B0300001B0300001B03000018
:100070001B030000C9B800001B03000095380000F6
:100080001B0300001B0300001B0300001B030000F8
:100090001B0300001B0300001B0300001B030000E8
:1000A0001B0300001B0300001B0300001B030000D8
:1000B0001B0300001B030000000000000000000004
:1000C0001B0300001B0300001B0300001B030000B8
:1000D0001B0300001B0300001B03000000F002F8DC
:1000E0001CF046FD0AA090E8000C82448344AAF16B
:1000F0000107DA4501D11CF03BFDAFF2090EBAE869
:100100000F0013F0010F18BFFB1A43F0010318474B
:1001100084830400A48304000A444FF0000C10F808
:10012000013B13F0070408BF10F8014B1D1108BF75
:1001300010F8015B641E05D010F8016B641E01F815
:10014000016BF9D113F0080F1EBF10F8014BAD1C65
:100150000C1B09D16D1E58BF01F801CBFAD505E083
:1001600014F8016B01F8016B6D1EF9D59142D6D3DD
:10017000704700000023002400250026103A28BF05
:1001800078C1FBD8520728BF30C148BF0B60704709
:100190001FB545F052F89DE8030000F05DFE00F049
:1001A00046FC01F045F91FBD0B49D1F800C04A6873
:1001B0005CF8043B1068184442F8040B8C4528BFD7
:1001C000A1F1DC0C8A4228BFA1F1DC02C1F800C019
:1001D0004A6020F0004070470C050020102304E026
:1001E000202302E0302300E040239C46F0B404AE1C
:1001F0007546E80801D3EFF309860E4F0FCE0FC7FF
:100200000FBC0FC74046494652465B460FC71DCE3E
:100210003100A60A00D304316E0900D248311FC74D
:10022000EFF309806946EFF3148663C7604601491E
:100230003BF03CFED86A00201EF0040F0CBFEFF329
:100240000880EFF30980816911F8021C91BB01B5A8
:1002500090E80F10E047BDE800508CE80300244B05
:1002600093E80600914208BF704741B91EF0100F95
:1002700010D12049086820F0010008600AE02CE94C
:10028000F00F1EF0100F08BF2CED108AC1F838C017
:1002900081F822E01A6092F82210906B61F0FF0E54
:1002A0001EF0100F08BFB0EC108AB0E8F00F80F31A
:1002B00009887047104A13689942FAD801B552F874
:1002C00021C00FC8E047BDE80050CCF800007047DF
:1002D00001B53EF0EDF8BDE80140EFF3098CBEE753
:1002E00001B53EF073FBBDE80140EFF3098CB6E7C2
:1002F0004402002034EF00E07C6E04000748804791
:100300000748804707480047FEE7FEE7FEE7FEE7AD
:10031000FEE7FEE7FEE7FEE7FEE7FEE7A5D3000007
:1003200069D50300DD00000070471CF049BC08449B
:10033000401E491E884370470821001DF7E72DE93C
:10034000F04117460E460446FFF7F6FFA042054669
:1003500033D9002F1CBF06F10C001CF093FC304673
:100360007468F4B12168A94217D305F108029142DB
:100370003CBF6168416007D3626861194A602268C6
:10038000521B0A6041602560002F1CBF06F10C0063
:100390001CF0F8FC201DBDE8F08120466468002CAC
:1003A000E0D12946304600F043FD0028D7D1002F88
:1003B0001CBF06F10C001CF0E5FC0020BDE8F0813C
:1003C00010B5044600F02BFD01682046BDE8104042
:1003D0000122B4E770B516460D46041F002808BF79
:1003E00070BD002E1CBF05F10C001CF04BFC2B4611
:1003F0005868002818BFA04238BF0346F8D31968D0
:10040000CA18A24218BF5C6003D122681C4611447E
:10041000196021680A19824218BF606004D14268DD
:100420006260006808442060002E1CBF05F10C00CB
:100430001CF0A8FC70BD10B5044600F0F0FC01688B
:100440002046BDE810400122C4E753EA020C00F048
:1004500069802DE9F04B4FF00006002B1FBFB3FA67
:1004600083F503FA05F424FA05F65E4012BF16433D
:10047000B2FA82F502FA05F4C5F120051EBF22FA90
:1004800005FC44EA0C04203556EA044C4FEA1444B7
:1004900018BF641C4FF000084FF00009904271EB48
:1004A000030C39D3002919BFB1FA81F701FA07F615
:1004B000B0FA80F700FA07F6C7F120071EBF20FA4E
:1004C00007FC46EA0C062037B6FBF4FCA7EB050751
:1004D000103F07F01F0BCBF120062CFA06F60CFAA2
:1004E0000BFB44BFB3460026202FA4BF5E464FF04F
:1004F000000B5BEA060C08BF4FF0010B19EB0B0970
:1005000048EB0608ABFB027C06FB02CC0BFB03CCE2
:10051000C01B71EB0C01C1E70B4602464146484641
:10052000BDE8F08B13B5084318BF4FF0FF3001460C
:10053000AFF30080BDE81C40704753EA020C23D0A3
:1005400010B54C1084EA530404D54042C1F10001B7
:1005500038BF491E1B4204D55242C3F1000338BFC5
:100560005B1EFFF772FF14F0804F04D04042C1F1D0
:10057000000138BF491E14F0004F04D05242C3F1AD
:10058000000338BF5B1E10BD13B540424FF00000A2
:1005900070EB0104B8BF012001F0004100281CBF2E
:1005A0006FF000414FF0FF30AFF300801CBD70B51D
:1005B000044685690068C10601D5302600E0202682
:1005C000C00707D070BDD4E9012130469047206AAA
:1005D000401C20626D1EF6D570BD70B5044685695D
:1005E0000078C00707D170BDD4E9012120209047D1
:1005F000206A401C20626D1EF6D570BD2DE9F041C9
:10060000044616460D464769007B80072ED03846C3
:100610001CF0E2FB50BB3EB3012E02D0022E25D1CE
:1006200004E0204600F066F805441DE038461CF062
:10063000BFFBE168002841F01001E16005DA2046C7
:1006400000F04AFE0120BDE8F081C9030BD56268C5
:10065000E16A914200D81146A26911442269891ABF
:10066000814200DD08460544002D01DA0220EAE758
:10067000E16A6068E268814206D29103E06203D5D4
:1006800022F4003141F01002A6690027AE4213DCCB
:10069000E16A814201D90B4600E0034603EB060CF8
:1006A0002369ACEB030CAC4506DD814201D98C46D5
:1006B00000E084469C4505D1A760276042F02000F9
:1006C000A5620DE0AD1BE669AE1B8142A66000D9B4
:1006D0000846C01A281A20605819606022F02000CD
:1006E00003490840E060002084F84870ABE7000050
:1006F000BFCFD7FF10B50146C268900703D0900660
:1007000007D5886A0AE0FFF710FE01210160881E04
:1007100010BD8B69486818440B69C01A91F84830BD
:100720001BB191F84910401A10BD1103FCD50028E7
:10073000FADD401E10BD2DE9F04704464FF00009D8
:100740004FF0FF37C568D4E90486A80707D02046D4
:1007500000F0F6FD30461CF025FB002802DA384692
:10076000BDE8F087280502D54046FFF764FE4C211E
:10077000204600F0E6FA206D20F001002065484692
:10078000EEE770B50C46064601F14C0528461CF014
:1007900079FA2146304644F043FD044628461CF0D1
:1007A000F1FA204670BD70B5044600F14C052846AC
:1007B0001CF068FA2046FFF79DFF044628461CF00F
:1007C000E1FA204670BD000070B505460A4E30467D
:1007D0001CF058FA05F14C0420461CF053FA284648
:1007E000FFF7A9FF054620461CF0CCFA30461CF066
:1007F000C9FA284670BD0000EC0000202DE9F04148
:1008000016460F46054600F14C0420461CF03AFA05
:10081000324639462846FFF7F1FE054620461CF0D1
:10082000B1FA2846BDE8F0812DE9F041044600F117
:100830004C0738461CF026FAE068810712D0800683
:1008400001D5A66A04E0A169606808442169461AD6
:10085000204600F075FD0022054631462046FFF790
:10086000CDFE00E0002538461CF08CFA2846BDE895
:10087000F0812DE9F04118B1BDE8F041FFF7D4BF98
:100880000B4E002530461CF0FDF90A4C6F1E07E0A8
:100890002046FFF7C9FF00B13D46206D20F001045E
:1008A000002CF5D130461CF06DFA2846DFE7000039
:1008B000EC000020340300202DE9F047164688465E
:1008C000070010D006F14C0081461CF0DBF93046E1
:1008D000FFF731FF18F8010B61280DD0722805D001
:1008E000772841D105E00020BDE8F08701250024EC
:1008F00005E00225042402E0082448F2020518F865
:10090000010B2B2806D0622809D018F8010C742896
:100910000AD00BE045F0030544F00204EFE745F090
:10092000040544F00104EAE744F010043846214687
:100930001CF056FA411C17D00021316171604FF450
:100940000071F560F1617061200704D53046022224
:100950000021FFF753FE306D40F00100306548463E
:100960001CF010FA3046BFE70026F8E72DE9F04109
:1009700015460E460746214C20461CF083F92A46B0
:1009800031463846FFF798FF054620461CF0FAF935
:100990002846BDE8F0812DE9F0410E468046174D0E
:1009A00028461CF06FF9164C206DC10704D0410891
:1009B00004D020F00104F7E7224612E05420FFF7AC
:1009C000FFFC070017D0206D47F0010108435421B8
:1009D0002065384600F0B5F907F14C001CF080F9AD
:1009E0003A4631464046FFF767FF044628461CF06A
:1009F000C9F92046CDE70024F8E70000EC0000200C
:100A0000340300200B4910B5A1F17C020A4CC2E965
:100A10003712372106E000EB104342F82130074B34
:100A200000FB03400B1EA1F10101F4DC10BD01200D
:100A3000E8E70000AC040020E119D666CD0D010006
:100A400030B503461D783DB10A4612F8014B1CB182
:100A5000AC42FAD15B1CF5E7181A30BD40EA01033D
:100A600010B59B070FD1042A0DD310C808C9121F57
:100A70009C42F8D020BA19BA884201D9012010BD91
:100A80004FF0FF3010BD1AB1D30703D0521C07E05E
:100A9000002010BD10F8013B11F8014B1B1B07D1C2
:100AA00010F8013B11F8014B1B1B01D1921EF1D133
:100AB000184610BD10B5431C02E010F8011B71B1BF
:100AC0008107FAD14FF0013202C88C1A8C4314EA24
:100AD000C211F9D0C01A0A0603D0C01E10BDC01A38
:100AE00010BD0A0401D0801E10BD0902FCD0401EBA
:100AF00010BD032A40F2308010F0030C00F0158086
:100B000011F8013BBCF1020F624498BF11F801CB10
:100B100000F8013B38BF11F8013BA2F1040298BF75
:100B200000F801CB38BF00F8013B11F0030300F0DF
:100B30006780083AC0F0088051F8043B083A51F841
:100B400004CBA0E80810F5E7121D5CBF51F8043B88
:100B500040F8043BAFF30080D20724BF11F8013BFB
:100B600011F801CB48BF11F8012B24BF00F8013B5D
:100B700000F801CB48BF00F8012B7047431A28BF8B
:100B80009A427FF6B6AF10441144032A40F2268001
:100B900010F0030F1EBF11F8013D521E00F8013D79
:100BA00010F0030F7FF4F6AF11F0030300F06D8037
:100BB000083AC0F00B8051F8043D083A51F804CDD2
:100BC00040F8043D40F804CDFFF7F3BF121D5CBFB1
:100BD00051F8043D40F8043DAFF30080D20724BF34
:100BE00011F8013D11F801CD48BF11F8012C24BFC7
:100BF00000F8013D00F801CD48BF00F8012C704716
:100C000010B5203AC0F00B80B1E81850A0E8185099
:100C1000B1E81850A0E81850203ABFF4F5AF5FEAE9
:100C2000027C24BFB1E81850A0E8185044BF18C98E
:100C300018C0BDE810405FEA827C24BF51F8043B35
:100C400040F8043B08BF7047D20728BF31F8023B89
:100C500048BF11F8012B28BF20F8023B48BF00F81D
:100C6000012B7047431A28BF9A427FF6C9AF104440
:100C7000114410F0030F1EBF11F8013D521E00F881
:100C8000013D10F0030F7FF4F6AF103AC0F00A8078
:100C900010B531E9185020E91850103ABFF4F9AFF7
:100CA000BDE81040530724BF31E9081020E90810BF
:100CB00044BF51F8043D40F8043D12F0030F08BF53
:100CC0007047D20728BF31F8023D48BF11F8012C08
:100CD00028BF20F8023D48BF00F8012C704702F001
:100CE000FF0343EA032242EA024200F00AB802F09C
:100CF000FF0343EA032242EA024200F024B84FF025
:100D000000020429C0F0128010F0030C00F01B80D8
:100D1000CCF1040CBCF1020F18BF00F8012BA8BFE6
:100D200020F8022BA1EB0C0100F00DB85FEAC17CAA
:100D300024BF00F8012B00F8012B48BF00F8012B5D
:100D400070474FF0000200B513469446964620398E
:100D500022BFA0E80C50A0E80C50B1F12001BFF474
:100D6000F7AF090728BFA0E80C5048BF0CC05DF8DA
:100D700004EB890028BF40F8042B08BF704748BF28
:100D800020F8022B11F0804F18BF00F8012B70479C
:100D900030B44FF0013C50F8042B51F8043BCCFA2E
:100DA00052F4D51A20D1FCB950F8042B51F8043B69
:100DB000CCFA52F4D51A17D1B4B950F8042B51F823
:100DC000043BCCFA52F4D51A0ED16CB950F8042B6E
:100DD00051F8043BCCFA52F4D51A05D1002CDAD0E4
:100DE00030BC4FF00000704729BAB1FA81F111F020
:100DF0001801D1F120008440F2D1CA40CB4012F05A
:100E0000FF0213F0FF0330BCD01A704770477047E1
:100E1000704700000048704714050020704710B567
:100E2000FFF7F8FF083010BD7047704770477047F4
:100E300038B504460A4600206946AFF30080002812
:100E400008BF38BD02460099204600F0E7FB0120AC
:100E500038BD012000F062BDF8B5AFF30080054653
:100E600000200C46102000BF0646A819A0420DD94C
:100E7000324669460020AFF30080070008BF00F04B
:100E80004DFD0098A04218BF0546C419FFF7C7FFE3
:100E900005600746F01D20F007004619284600F0BF
:100EA0000AF8B44208BFF8BDA21B31463868BDE855
:100EB000F84000F0B3BB00210160C0E901100C3024
:100EC0001BF00EBF1020704770B50D46014614464A
:100ED000D36850692A461BF0B9FF002807DA411C85
:100EE00007D0E16820F0004041F48041E160281A19
:100EF00070BD204600F0F0F94FF0FF3070BDC168C2
:100F00000022026021F4805141F0400111F4C06FD1
:100F1000C16001D08260704702694168891AC26964
:100F2000891A816070472DE9F0470446C06840F493
:100F30008000E060010312D520F40020E06081060B
:100F400006D4E26A61688A4200D80A46511A2160D2
:100F500040F40010E06094F82500BDE8F08720F42C
:100F60000010E060800602D5204600F00CFAE06830
:100F700042F281014FF0FF390140012903D02046A0
:100F800000F0AAF9B6E02168002600290ADAC94370
:100F900040F480502160C4E902606068411C6160D7
:100FA0000078DAE744F2400108420CD020F4A04077
:100FB00040F040002660E06021696068401AE16905
:100FC000401AA06096E0216991B9C00310D4E0698D
:100FD000FFF7F6F92061B0B1E06840F4006010F46A
:100FE000407FE06002D140F48070E0602069606082
:100FF000E068D4F814A0C1061AD5C0030ED5204667
:1010000000F09EF914E004F1240020610120E06169
:10101000E06820F4407040F48060E6E72169606891
:10102000401AA169014450461BF0B2FF0028A6DB1C
:10103000E068C0032AD56168E06A884200D80846A3
:101040002169451AE069471B1BD02046D4F8188057
:1010500000F076F908EB05015046C4F818801BF043
:1010600097FF00288BDBE06840F40030E06000026E
:1010700002D5A0692844A061E1692069C91B45180F
:101080000DE0204600F05CF9E769F5E72569616845
:10109000D4E90607491BE56208446560A061E06881
:1010A00020F0100010F4C06FE06002D0204600F085
:1010B000F9FBE06840F48050C4E90260000205D505
:1010C0002069E06260606FF0010046E72246394621
:1010D0002846FFF7F9FE411C0CD02918E16258B1EF
:1010E000401E2060681C6060E06840F40030E060F2
:1010F000287832E7484630E765602046FFF7FFFE74
:10110000F8E72DE9F04705460C46C86820F42010A2
:1011100040F48000C860800602D5084600F033F92C
:10112000E06841F282014FF0FF390140022903D00B
:10113000204600F0D1F8B5E000F42041B1F5004FB1
:101140000FD1C00306D56168E06A884200D808461E
:10115000606006E02069E062606060691BF028FE64
:10116000A061A0680022EEB200280DDAE1688B05CC
:101170000AD4C043A06041F490302260E06060680F
:10118000411C61600670A5E0E0689046226040F472
:101190000050E060206968BB60691BF01DFE0127FC
:1011A00004F12405A0B1A08910F4407F08D0E069C3
:1011B000FFF706F9206118B1E06840F4006016E01E
:1011C000E7612561E06820F4407040F480600EE043
:1011D000E069FFF7F5F800282061F1D0E06840F4FD
:1011E000006010F4407FE06002D140F48070E06065
:1011F00020696060E06825696FF0010AC1051FD5AC
:101200006168E06A884200D80846411B04D0224643
:10121000284600F06BF8F0BBE068010203D5E562F8
:10122000C4E9015854E0691CE1626160E16940F47D
:101230008030491EC4E9021030462E70BDE8F087A8
:10124000010202D500F480320AE06068411C61604E
:101250000670E0680A2E40F48030E06006D000227C
:10126000E16A6068814203D90B4602E00122F7E798
:101270000346A7895B1B7F0503D4E7699F4200DD16
:10128000E2B1814200D80146E5620F1AC4E9015873
:10129000002B09DD00E005E022461946284600F053
:1012A00025F808B14846C9E747B1A069E56265601D
:1012B000C01BA061E06840F01000E060E068000240
:1012C00008D56168A069E562491B08446560A061B2
:1012D0005046B3E73046B1E7C16821F4001141F050
:1012E0008001C16000218160016070472DE9F047F5
:1012F000814614460E464FF0FF383248D56857698C
:10130000054209D03846A1691BF042FE002811DBD6
:101310002C48C0430540E5602B46324649463846D6
:101320001BF03CFEA16920F00042B21A11440028D3
:10133000A16103D02046FFF7CFFF4046BDE8F0870C
:1013400070B504460569C06A6168884200D80846DD
:10135000E16821F42011E160C90312D5A84208D048
:101360002246411B2846FFF7C1FF10B14FF0FF3066
:1013700070BD0020E562C4E90150E06820F48030CF
:10138000E060002070BD10B50446C06820F0200069
:10139000E060A16AA06988420DD02046FFF7D0FF27
:1013A000E06820F4405040F01000E060A06AA061C6
:1013B0002069E062606044F24001E0688843E060D8
:1013C00010BD0000100002002DE9F04704461E4643
:1013D00090460D46C7684C3081461BF053FCB80759
:1013E00014D0780212D44046B8F5807F09D0B0F509
:1013F000007F06D0B8F5806F08D1012604F12405DE
:1014000006E0701E6FF07F41884201D3012409E09D
:101410002561E6616560E06820F4706040EA0800DC
:10142000E060002448461BF0ADFC2046BDE8F08794
:1014300010B565485421FFF784FC64485421FFF738
:1014400080FC63485421FFF77CFC62485E49624A95
:10145000624B01605D4810605D4A1A60431C0B6579
:10146000511C01650120106557484C301BF038FCB9
:1014700056484C301BF034FC55484C301BF030FCC7
:1014800057481BF02DFC58484F4A56A17844FFF7A7
:101490006DFA20B9544878440A3800F038FA5448B4
:1014A0004A4A52A17844FFF761FA20B9504878447B
:1014B0000A3800F02CFA4F48454A4CA17844FFF70F
:1014C00055FA20B94B4878440A3800F020FA4023F6
:1014D0003D48DC0000212246FFF776FF20B142485C
:1014E0007844543800F013FA38482246402300214B
:1014F000FFF76AFF20B13E487844543800F007FAFD
:101500003348224610230021FFF75EFF002806D053
:1015100038487844BDE81040563800F0F8B910BD9E
:101520002B482DE9F041006D2D4E20F0010430468E
:101530001BF0A8FB244D4C3528461BF0A3FB22488A
:10154000FFF7F9F828461BF01DFC28461BF0A8FB06
:101550001E4D4C3528461BF095FB1C48FFF7EBF859
:1015600028461BF00FFC28461BF09AFB184D4C3503
:1015700028461BF087FB1648FFF7DDF828461BF0CE
:1015800001FC28461BF08CFB14E0206D20F00105C7
:1015900004F14C0007461BF075FB2046FFF7CBF823
:1015A00038461BF0EFFB38461BF07AFB2046FEF76F
:1015B00042FF2C46002CE8D130461BF0E3FB0848E4
:1015C0001BF06EFBBDE8F08134030020880300208F
:1015D000DC030020E0000020E4000020E800002000
:1015E000EC000020720000005C480400770000005E
:1015F0004B4804002448040010B5002000F080F996
:10160000AFF30080BDE8104001201BF0CFBB801A73
:101610000844401E491E88431044704770B5144664
:1016200005468C464368002B18BF634538BF1846F3
:10163000F8D302681044604508D06646604604222C
:101640000821FFF7E4FF811B8446641A2946CCF881
:101650000040BDE8704000220CF10400FEF7BABE65
:1016600070B504460D4D28461BF00CFB03E043F01B
:10167000D7FD401C0ED0094914F8010B4C39002845
:10168000F5D10A2043F0CCFD044628461BF07AFB36
:10169000204670BD4FF0FF34F7E70000D403002070
:1016A0002DE9FF4F06461C468B4681B003F14C00E6
:1016B00000901BF0E7FABBF1000F06D003992768F2
:1016C000002528460BFB01F963E000247AE0002F97
:1016D00061DCE06948453FDABAF1000F3CD0207B7D
:1016E000800601D5A06A04E0A16960680844216908
:1016F000401A2246A9EB050180463046FFF7E4FB7D
:10170000002812DD8044A8F101010644A16122698C
:1017100016F8011C0027054411702169491CE1627B
:101720006160E16841F40031E160411C03D010B117
:10173000207B400642D52046FFF7E1FBC4F8188025
:1017400020696060E062E068276020F40030E060BB
:10175000E0694042A06018E0484503DAE06840F4E0
:101760000000E0602046FFF7DEFBE16821F40001A5
:10177000E160411C08D0811C0AD02768002807DBE3
:101780006D1C06F8010B19E02760B5FBFBF419E0AE
:101790000120824612E0A9EB0500B846B84200DA03
:1017A0008046304642466168FFF7A3F96168A7EBBF
:1017B0000807464401EB0800454460604D4586DB60
:1017C0002760039C00981BF0DDFA05B02046BDE8B9
:1017D000F08F2DE9F05F0E4680461C46924602FBD4
:1017E00006F503F14C0083461BF04CFA16B3A768CC
:1017F000002041E0002F41DCE069A8421CDAB9F189
:10180000000F19D0224629464046FFF76FFD08B168
:10181000A76029E0E06810F4C06F01D0002008E064
:1018200022696168891AE269511AC003A16001D472
:101830004842A060544618E0A84203DAE06840F449
:101840000000E060214698F80000FFF75AFCE168CC
:1018500021F40001E160411C06D0A76800280ADBE2
:101860006D1E08F1010818E0002458461BF08AFAA2
:101870002046BDE8F09F012081460EE0AF423E4683
:1018800000DD2E46414632466068FFF732F9606857
:10189000BF1BAD1B3044B0446060002DAADCA760C4
:1018A000C8E700002DE9F0470746134881461BF0C2
:1018B000E9F9124C40F2022817E094F85000C007F2
:1018C00010D0BC420ED004F14C0528461BF0DAF9CA
:1018D000E66828461BF056FA38EA060002D1204690
:1018E000FEF7A2FF206D20F00104002CE5D1484650
:1018F0001BF048FABDE8F087EC000020340300201C
:1019000010B500F01FF8BDE8104000F016B810B593
:1019100000F030F8BDE8104000F00FB810B500F04E
:1019200043F8BDE8104000F008B810B5FFF777FAAB
:101930000068BDE8104000F05FB8002801D01BF03F
:1019400035BA704710B5002102A000F05AF8012006
:1019500010BD0000534947414252543A2041626E43
:101960006F726D616C207465726D696E6174696F00
:101970006E00000010B5014602A000F042F8012000
:1019800010BD000053494752545245443A20526515
:101990006469726563743A2063616E2774206F70A6
:1019A000656E3A200000000010B5012805D0002126
:1019B00003A000F026F8012010BD09A1F8E70000FF
:1019C00053494752544D454D3A204F7574206F6628
:1019D0002068656170206D656D6F72790000000090
:1019E0003A2048656170206D656D6F727920636F74
:1019F000727275707465640010B50C301BF050F98C
:101A000010BD70B505460C460A2000E06D1C1BF0A9
:101A10009DFB35B128780028F8D102E0641C1BF04A
:101A200095FB14B120780028F8D1BDE870400A2059
:101A30001BF08CBB83B080B583B0844605A840F210
:101A4000883E0EC005ABC2F2000E00206FF00041D0
:101A500062460293CDF800E03AF0D6FA03B0BDE852
:101A6000804003B07047000080B540F2000240F2B1
:101A7000000147F6C050C0F20002C0F20001C2F2FD
:101A80000000914218BF08464FF60041C2F2000123
:101A900018BF1146FEF77CFB80BD00000020704798
:101AA00000207047002070470020704700207047DA
:101AB00000207047002070470020704780B582B03A
:101AC0004FF0000CCDF800C03AF09EFA02B080BD95
:101AD00043F24821C2F200010865704780B589B31E
:101AE00091F90200B0F1FF3F08DDC0B260280ED3CB
:101AF00043F24820C2F20000806B17E043F2482016
:101B0000C2F20000026C002A08BF80BD0FE040282E
:101B100005D343F24820C2F20000C06B06E0202843
:101B200008D343F24820C2F20000406B82680846A6
:101B3000904780BD43F24820C2F20000006B8268EB
:101B40000846904780BD000080B543F24821C2F2AC
:101B5000000181F8540045F6045046F23052C0F2BC
:101B60000400C0F20402C1E90C00C1E90E224DF2EA
:101B7000FD414DF2B542C0F20101C0F20102042064
:101B800004F0E2F94DF2E531C0F20101002002F06B
:101B90000FFA80BD1B296FF00A0202D01D2918BF61
:101BA000002280B510440BF0E1FE80BD10B582B07C
:101BB00040F2D821C2F20001096843F24822C2F281
:101BC00000028C88D06403F0E3F90438A04207DAFD
:101BD0000024002077210022022300941BF04AFCFD
:101BE00002B010BD10B5013880B200211BF0F2FC2C
:101BF000D0B104460068807800F01200102813D19C
:101C000009201BF09FFC002808BF10BD0346206878
:101C10000122817801F0EF0181701E201872206886
:101C20000189042004F0E4F810BD0000B0B543F2CF
:101C3000482CC2F2000C43F2A0209CF854E0C2F2FF
:101C4000000000210122C0F82C1180F8302100BFD3
:101C50000CEB011201310023002400BFC518C25053
:101C60002C3385F82840582B04F1010485F824E032
:101C7000A98385F82910F1D1032900F15800E7D193
:101C800045F62050C0F20400CCF83000B0BD000092
:101C9000B0B582B004460B200D461BF053FC70B16A
:101CA00003460320188002201872280A5D72987279
:101CB000002520460021012200951CF039F802B0D1
:101CC000B0BD000043F2A02045F6B851C2F20000BA
:101CD000C0F20401C0F82C117047000010B5044692
:101CE0000BF00EFF43F2D43CC2F2000CDCF82011E2
:101CF00069B1238A0A8A934202D2002208E000BF17
:101D00000A46096821B1088A8342F9D200E000221C
:101D10000CF5907021460BF093FE01201CF03AFC6C
:101D20000BF00AFF10BD000043F2D431C2F20001F3
:101D3000C1F830017047000080B51CF073FA80BD17
:101D40002DE9F0410C4606461CF03EFA48B3054624
:101D5000F4B143F20C58C2F2000898F8140000B332
:101D600000270AE0013798F81410F8B202348842CC
:101D700005F1020528BFBDE8F0812088288023886E
:101D8000002BEFD0F9B2304600221CF033FAE9E71D
:101D900043F20C50C2F20000007D41002846FEF7DD
:101DA000AEFFBDE8F081000043F20C53C2F2000325
:101DB0001875C3E9031243F2D4304EF25D21C2F22A
:101DC0000000C0F20101C0F83411704743F2245101
:101DD000C2F2000101EB400010F8010C7047000056
:101DE000012A88BF704780B543F22453C2F2000332
:101DF00003EB4000831E08461946FEF77AFEBDE855
:101E00008040704740B143F22452C2F2000202EB1C
:101E1000400000F8011C10E043F2245C6FF0010068
:101E2000C2F2000C0CEB0003DA780230022A0A46F8
:101E300008BF01220428DA70F4D1704780B51DF084
:101E4000CFFF006880BD000080B543F24820C2F299
:101E5000000043F2D43C90F854E0C2F2000C00229F
:101E6000634600BF01326FF01F0100BF58182C31CC
:101E7000382980F82CE08284F8D1032A03F1580332
:101E8000F0D145F6D050C0F20400CCF8280180BD56
:101E900080B543F2D431C2F2000145F604524DF24E
:101EA0006D4343F2482C0020C0F20402C0F201034B
:101EB000A1F12C0EC2F2000CC1E94800C1E94A238D
:101EC0000CEB001301300022714600BF81F8512055
:101ED0000132CB6381F85000022A01F12C01F5D1C7
:101EE00003280EF1580EEBD145F6C050C0F20400A5
:101EF000CCF8340080BD000010B504460BF000FEA5
:101F000043F2D430C2F20000D0F8201171B10A8A35
:101F1000A24201D1002205E00A46096831B10B8ACC
:101F2000A342F9D100F590700BF0B8FD01201CF030
:101F300031FB0BF001FE10BD70B582B015460C46AA
:101F400006460BF0DDFD01A930461CF03BFC28B134
:101F500006468089A04203D20D240CE00A240AE040
:101F6000706829462246FEF7C4FDB07B000744BFD7
:101F7000B068048000240BF0DFFD204602B070BD85
:101F8000B0B514460D461DF02BFF45600473B0BD7F
:101F900010B50C461DF024FF046010BD43F2345010
:101FA000C2F200000021C0E90C1143F2D4304FF618
:101FB000F151C2F20000C0F20101C0F82C1140F250
:101FC0006C104FF69121C2F20000C0F20101416491
:101FD0007047000047F23C41C2F20001096889687D
:101FE000814228BF70476FEA5102824201F101022B
:101FF0009CBF1044704749081144814228BF801A91
:102000007047000080B541F6094141F63522C0F223
:102010000201C0F2020203201EF0C6F943F26C5026
:10202000C2F200000021C0E90011C0E90211C0E9BC
:102030000411C0E9061180BD80B541F65941C0F2D6
:102040000201072000221EF0AFF941F63551C0F21F
:102050000201082000221EF0A7F943F29460C2F2A8
:1020600000002421FEF76DFE80BD000080B540F623
:10207000A541C0F20201062000221EF095F943F2AC
:10208000B860C2F200003421FEF75BFE80BD0000A4
:1020900080B540F6095140F6DD22C0F20201C0F2DF
:1020A000020204201EF080F943F64000C2F2000054
:1020B0000021C0E90011C0E90211C0E904118161E9
:1020C00080BD000080B541F6E14141F63D22C0F2FD
:1020D0000201C0F2020205201EF066F943F640003C
:1020E000C2F200000021C0E90011C0E90211C0E9FC
:1020F0000411816180BD00002DE9F04182B041F200
:102100000015C4F20005D5F80402C00728D02868DD
:1021100030B30020286028684FF20450C4F2010058
:102120004FF48041416047F6A830C2F200000178C8
:10213000012906D141F25051C4F2000109680A296F
:1021400009D0017802297AD141F25051C4F200013C
:102150000968022973D13CF031FE02B0BDE8F0817C
:10216000D5F80402400749D5A868002846D00020C9
:10217000A86048F24416A868C4F200064FF4003084
:1021800048F24054C6F8C4010820C4F200041AF012
:1021900067FB0220C5F8000143F69430C2F200004C
:1021A0000178012940F0F28043F68E72C2F20002FB
:1021B0001378032B40F0B68043F62E50C2F2000095
:1021C00000781821022808BF0C210128A06808BF48
:1021D0001821084400F16A014FF204522160A5F170
:1021E000FC01C4F20102C2F880104FF48041C930F2
:1021F00011606060002030603068EBE0D5F80402C8
:10220000000740F11481E868002800F010810020E8
:10221000E86043F68E76E868C2F20006307803285C
:102220002DD1022030703CF0FFFD43F62850C2F261
:10223000000001680020884702B0BDE8F08143F645
:102240008E71C2F200010A78032A18BF0278097859
:10225000042903D00178022940F0F78000226A6047
:1022600048F244116A68C4F200014FF40032C1F828
:10227000C0210A68002A1CBF01220A60E5E030780C
:10228000042840F0D48043F63450C2F200000068C5
:1022900048F2405143F6D042C4F20001C2F20002BB
:1022A0004078896812783823022A18BF032200FA7E
:1022B00002F041F2505708BF20231844C4F200072F
:1022C000081A57F8084CA0F1090809F05BFA04F065
:1022D0007F0108440221317043F6D141C2F200016E
:1022E0000E7847F6A931C2F20001097843F62F5261
:1022F000C2F20002002908BF3146117043F6CC42F9
:10230000C2F20002D5F8001315684FF6BC62CFF692
:10231000FF72BA58C907C0F1000041B240F09A807C
:10232000042098E0012931D11278042A2ED143F6F5
:10233000D040C2F20000007843F62E520146C2F2AD
:102340000002022818BF6FF0010192F800C043F6A6
:102350003052A368C2F2000292F900E07D22022806
:1023600008BF7122D0180844BCF1020F08BF013029
:1023700070444FF204512060A5F58070C4F2010151
:10238000C1F880004FF48040086041E0022945D147
:1023900043F68E72C2F200021378042B20D1D0E9EA
:1023A00001104FF2045233392160A5F1FC01C4F24F
:1023B0000102C2F880104FF48041116021680028AA
:1023C00001F17D0161604FF000013160316818BF9B
:1023D0003CF02CFC47F6A830C2F2000002211CE0C1
:1023E00002291BD11178032918D1D0E901104FF22D
:1023F000045228392160A5F58071C4F20102C2F8A7
:1024000080104FF480410028116018BF3CF00EFC92
:1024100047F6A830C2F2000001210170012046F801
:10242000F80C2068E168401AB0F1FF3F02DD02B00D
:10243000BDE8F0814FF20450C4F201004FF4804136
:10244000416047F6A830C2F200000021017002B0DE
:10245000BDE8F081002043460096A84702B0BDE8E1
:10246000F081000080B582B048F20830C4F200006C
:102470004FF40031016041F20410C4F20000006822
:1024800008B102B080BD3CF099FC43F6CC40C2F2EA
:102490000000D0F800C04FF0000E03200021002201
:1024A0000023CDF800E0E04702B080BD2DE9F04FF9
:1024B00087B006468A460888317CC840C00762D08B
:1024C00043F28471C2F20001488898460130488086
:1024D000D6E90001994649F8080FD960C8E900011A
:1024E000B07C1D46DAF8041005F8130F14469874F2
:1024F000C1F3801011462A464B461DF0C7FE022844
:102500004FF0000B00F0BD800694012808BF4FF08B
:10251000010BDAF80400DAE904742978D9E9002318
:10252000CDE90274C0F3C0070097C0F380001DF02E
:102530004DFEBAF80210327C074621FA02F02978E3
:10254000D9E9002300F001001DF004FF874224D9DF
:10255000DAF80400DAE904742978D9E90023CDE92E
:102560000274C0F3C0070097C0F380001DF02EFE78
:1025700000B3012824D0022824D1BBF1000F21D0C0
:102580004FF0000B7DE043F28470C2F2000001883E
:102590004FF0000B0131018073E0BAF80200317C8A
:1025A000D9E90023C840297800F001001DF0D2FECF
:1025B0000028DED1BBF1000F08BF4FF0010B01E096
:1025C0004FF0010B707C0121800788F814B088F867
:1025D000151002D44FF0010B53E0F77CD6E90264EA
:1025E000DAF804002978D9E90023CDE90423CDE9FC
:1025F00000640291C0F3001006993A461DF008FEEF
:102600008346012806D0BBF1020F05D100204FF010
:10261000000B32E0002030E00AF1040207CACDE9E5
:102620000212C0F3400500F001003946324623464D
:1026300000951DF0A9FD022812D14FF0000067B1EE
:1026400004F4404191F4804F4FF0000B15D19AF8FB
:10265000040080064FF0000004D44FF0000B0CE0A3
:1026600001200AE043F28472C2F20002118C4FF0A2
:10267000010B0131118488F81500002818BF4FF0B4
:10268000010B5FFA8BF007B0BDE8F08F70B582B038
:1026900008F0CCFC40F20D1540F2790440F2ED4612
:1026A000C0F20205C0F2020440F2B943C0F20206D1
:1026B000C0F20203012029462246009601F042F8AA
:1026C00040F2C943C0F20203022029462246009686
:1026D00001F038F840F2F54640F2D943C0F2020664
:1026E000C0F20203032000212246009601F02AF8DE
:1026F00040F28111C0F20201012001F033F843F2EF
:10270000EC60C2F200009821FEF71BFB02B070BD26
:10271000B0B543F2AA7CC2F2000C00258CF8005040
:1027200043F2AB7C8C07C2F2000C0C468CF80050D4
:1027300001F1040E18BF2EF0030404EB0013591A24
:1027400047F23043C2F2000391421C609CBF8CF8F8
:1027500000000D46A8B2B0BDB0B543F2B07CC2F2E5
:10276000000C00258CF8005043F2B17C8C07C2F2BB
:10277000000C0C4600EBC0038CF8005001F1040E75
:1027800018BF2EF0030404EBC303591A47F2344375
:10279000C2F2000391421C609CBF8CF800000D4601
:1027A000A8B2B0BD10B543F2B37CC2F2000C4FF03A
:1027B000000E43F2B2738CF800E043F2B47CC2F234
:1027C00000038C07C2F2000C83F800E001F104035F
:1027D0000C468CF800E018BF23F0030404EBC003A0
:1027E000591A47F23843C2F2000391421C609CBF61
:1027F0008CF800008E461FFA8EF010BD2DE9F04FC8
:102800008BB0074600788A4600F00F08088801213F
:1028100001FA08F919EA000F0DD0144643F2847248
:10282000C2F2000251887878013119F4C07F5180DA
:102830000AD00126EDE043F28470C2F20000018864
:10284000002601310180E4E000F03F0083F81080B1
:102850005874384610F8021B1D46C1F3801601F06B
:1028600011F82B4643F8080FE960C5E90001DAF8D2
:1028700004002A4602F8136FAE74C0F3801021469C
:102880000A929B461DF002FD02284FF0000600F060
:10289000C080CDE90745012808BF01260A9DDAF866
:1028A0000400DAE9044C2978DBE90023CDE9024C85
:1028B000C0F3C0040094C0F380001DF087FCBAF898
:1028C0000210CDF824B0044619EA01002978DBE9AA
:1028D000002318BF01201DF03DFD844215D9DDF80D
:1028E00028B0DDF82490DAF80400DAE9044C9BF80B
:1028F0000010D9E90023CDE9024CC0F3C0040094D4
:10290000C0F380001DF062FC0FE0BAF80200DDF8B1
:1029100028B010EA0900DDF824909BF80010D9E9EE
:10292000002318BF01201DF015FD089D30B10128BE
:1029300008D0022807D136B100266AE0002E08BF71
:10294000012600E001260120B8F1050F2E756875FB
:1029500026D800FA08F010F02A0F21D017F8088BBB
:1029600038464FEAD81400F08DFF0746DAF8040025
:102970009BF80020D9E900368946CDE90436CDE937
:1029800000710292C0F30010079922461DF040FC2E
:102990000646012806D0022E06D10020002635E08A
:1029A000012636E0002031E00AF1040207CACDE931
:1029B0000212C0F3400600F0010021463A464B46A1
:1029C00000961DF0E1FB022815D14FFA88F0B0F116
:1029D000FF3F4FF000000CDC09F4404191F4804FC0
:1029E0004FF0000612D19AF8040080064FF0000064
:1029F00003D400260AE0012008E043F28472C2F208
:102A00000002118C0126013111846875002818BF5D
:102A10000126F0B20BB0BDE8F08F0000B0B546F271
:102A20001042C2F2000292F8EBC081F800C092F8A6
:102A3000EAE092F8EB30734508D1D2E936E3D2E907
:102A40003854634085EA0E052B4302D04CF0020354
:102A50000B70D2E93812C0E90012B0BDB0B590F8E1
:102A600013C082F800C090F812E0C37C734508D10F
:102A7000D0E900E3D0E90254634085EA0E052B4318
:102A800002D04CF002031370D0E90202C1E9000247
:102A9000B0BD0000B0B590F813C082F800C090F847
:102AA00012E0C37C734508D1D0E900E3D0E90254B9
:102AB000634085EA0E052B4302D04CF002031370ED
:102AC000D0E90202C1E90002B0BD0000B0B545F294
:102AD0009072C2F2000292F86BC181F800C092F8C5
:102AE0006AE192F86B31734508D1D2E956E3D2E935
:102AF0005854634085EA0E052B4302D04CF0020384
:102B00000B70D2E95812C0E90012B0BDB0B590F810
:102B100013C082F800C090F812E0C37C734508D15E
:102B2000D0E900E3D0E90254634085EA0E052B4367
:102B300002D04CF002031370D0E90202C1E9000296
:102B4000B0BD0000B0B590F813C082F800C090F896
:102B500012E0C37C734508D1D0E900E3D0E9025408
:102B6000634085EA0E052B4302D04CF0020313703C
:102B7000D0E90202C1E90002B0BD0000B0B590F892
:102B800013C082F800C090F812E0C37C734508D1EE
:102B9000D0E900E3D0E90254634085EA0E052B43F7
:102BA00002D04CF002031370D0E90202C1E9000226
:102BB000B0BD000080B546F21041C2F2000191F8AC
:102BC000EA2091F8EB3093424FF00002C0E9002276
:102BD0000AD1D1E936CED1E9383282EA0E0283EA4F
:102BE0000C031A4308BF80BDD1E93612C0E90012B8
:102BF00080BD000080B5827CC37C93424FF0000210
:102C0000C1E900220AD1D0E900CED0E9023282EA3D
:102C10000E0283EA0C031A4308BF80BDD0E900020C
:102C2000C1E9000280BD000080B5827CC37C934274
:102C30004FF00002C1E900220AD1D0E900CED0E96C
:102C4000023282EA0E0283EA0C031A4308BF80BDF7
:102C5000D0E90002C1E9000280BD000080B545F264
:102C60009071C2F2000191F86A2191F86B319342A0
:102C70004FF00002C0E900220AD1D1E956CED1E9D5
:102C8000583282EA0E0283EA0C031A4308BF80BD61
:102C9000D1E95612C0E9001280BD000080B540F6AF
:102CA0005551C0F20201092000221DF07DFB43F6C0
:102CB000A440C2F200002421FEF743F880BD0000CA
:102CC00070B543F2AA7C43F2AB71C2F2000CC2F2BF
:102CD00000019CF800E009788E4524BF002070BDFB
:102CE00047F23041C2F200010968049C01EB0E1565
:102CF00028720EF101004FEA0E166C728CF800007B
:102D000001208A516B6070BD70B543F2AA71C2F2A6
:102D100000010C78FCB147F23044C2F20004246890
:102D2000DDF810C091F800E004F10801002404E08F
:102D30000134744501F110010DD20D788542F7D1AF
:102D400051E902565E4055403543F1D14D78654515
:102D5000EED1012070BD002070BD000043F2AA70CA
:102D6000C2F20000002101707047000043F2AB7016
:102D7000C2F20000007870472DE9F04343F2AA7CCC
:102D8000C2F2000C9CF80010A9B347F23047C2F21F
:102D90000007D7F800E0DDF81C809CF800900EF1E9
:102DA0000804002505E000BF013510344D454946B3
:102DB00021D226788642F7D154E902675F40564017
:102DC0003E43F1D166784645EED1C8B202280CD315
:102DD0000138854209D00EEB0012138900012380CF
:102DE0005EF80000526844E90202481E8CF80000B8
:102DF0000120BDE8F0830020BDE8F083F0B581B08C
:102E00001E46154607461DF08FF90446B0B943F239
:102E1000B07043F2B172C2F20000C2F20002017857
:102E20001278914256D247F23442C2F2000212683E
:102E300001EBC10302EBC30401310170002C4CD043
:102E4000DDE9061046EA0742C4E908520A684B6801
:102E50008F68C9682260E16001216360A76084F81F
:102E600040100021625C22B90E2901F10101F9D95B
:102E700002E0002184F84010016842688368C76856
:102E8000204640F8101F0121C7608360426080F82F
:102E9000311000216218127C22B90E2901F10101C2
:102EA000F8D902E0002184F8411094F8411000297B
:102EB0004FF00001A4F84210C4E90A11C4E90C1152
:102EC000C4E90E1103D11DF07BFBC4E90C01012004
:102ED00001B0F0BD0024002CB2D1002001B0F0BD43
:102EE0002DE9F04182B0DDE9087814460646104627
:102EF0003A4643460D461DF017F920B190F84110AF
:102F000019B1002423E0002421E0D0E90E0169403A
:102F10007040084301D1012419E043F2AC70C2F2C1
:102F20000000D0F800C0BCF1000F0FD043F2847055
:102F3000C2F20000818C0022013181843046294692
:102F40002346CDE900780024E04700E00024204635
:102F500002B0BDE8F0810000F0B583B043F2B07676
:102F6000C2F2000635786DB347F23445C2F200056F
:102F70002D6896F800C005F1200400254FF0000EE2
:102F800008E04FF0010E0126CEB10135654504F190
:102F9000480419D294F82060002EF4D1D4E90267D5
:102FA0004F4046403E43ECD1A67906F0010616702C
:102FB0002668A788C3E900670026002EE5D14FF0F8
:102FC000010C1EE04FF0000EBEF1000F4FF0000CA0
:102FD00017D043F2AC77C2F200073D688DB143F2DF
:102FE0008477C2F200077E8C01367E8492F800C09E
:102FF000D3E900276346009201220197A8474FF0CA
:10300000000C604603B0F0BD43F2B070C2F20000A5
:103010000021017070470000B0B51DF085F818B1AF
:10302000044690F8400008B10020B0BD94F842007A
:10303000049D38B920461DF0C3FAC4E90A010120F5
:1030400084F84200D4E90A01C5E900010120B0BDBD
:1030500080B51DF069F828B1029990F84300087016
:10306000012080BD002080BD43F2B170C2F200009B
:10307000007870472DE9F04381B043F2B078C2F296
:10308000000898F8000050B347F234490026C2F215
:1030900000090125002708E084F8445098F8000052
:1030A0000137874206F1480619D2D9F80000841981
:1030B00094F8410028B904F110001DF081FAC4E928
:1030C0000C0194F840000028E6D194F84200002852
:1030D000E2D020461DF074FAC4E90A01DCE701B031
:1030E000BDE8F08370B51446DDE9042305462046AB
:1030F0000E461DF019F810B190F8411009B10020EA
:1031000070BDD0E90E0171406840084304BF012042
:1031100070BD002070BD000080B51DF005F80146AF
:1031200000284FF0000008BF80BD91F8442081F8CE
:103130004400104680BD000080B51CF0F5FF60B172
:10314000D0E90C1211431CBF032080BD90F8411040
:103150000120002908BF022080BD002080BD0000A2
:1031600080B51CF0E1FF60B1D0E90A1211431CBF29
:10317000032080BD90F840100120002908BF0220E4
:1031800080BD002080BD000080B51CF0CDFF002870
:103190001CBFD0E90C0150EA010201D1002080BD22
:1031A000029AC2E90001012080BD000080B51CF038
:1031B000BBFF00281CBFD0E90A0150EA010201D17F
:1031C000002080BD029AC2E90001012080BD0000FC
:1031D000B0B51CF0A9FFB8B143F2B074C2F200045C
:1031E0002578022D0CD347F23441C2F20001096860
:1031F00005EBC50201EBC20148394822FDF700FD8D
:10320000681E20700120B0BD0020B0BD2DE9F04146
:103210000C461178D3E90023054608461CF084FFCC
:1032200043F28478C2F2000808F1140728B1064678
:1032300090F8410018B1002018E0002016E0D6E90F
:103240000E0161406840084304BF0120BDE8F081E1
:1032500006F110002A4623461EF0B0FE00280FBFDC
:103260000020C6E90E5408F1160701203988013103
:103270003980BDE8F08100002DE9F04F81B043F2C4
:10328000B075C2F200050F462978002953D047F2E5
:1032900034469A468346C2F200064FF000094FF0CA
:1032A000000800BF306800EB090494F8400018B132
:1032B000002080B34AE000BFD4E90A01794080EAE7
:1032C0000B00084319D02E46154620465A463B4669
:1032D0001EF074FE38B343F28471C4E90AB7C2F237
:1032E0000001488A002284F842202A46354647F2E7
:1032F00034460130C2F20006488294F8260000F0FD
:1033000001001070206AA18CCAE900010120002888
:1033100008BF0020D0B9287808F10108804509F1DC
:103320004809BFD307E02A46354647F23446002015
:10333000C2F20006EBE743F28471C2F20001088A90
:1033400001300882002001B0BDE8F08F012001B0FB
:10335000BDE8F08F43F2AC71C2F200010860704723
:1033600080B51CF0E1FE00280FBF0020029980F814
:103370004310012080BD000080B51CF0D5FE30B1A7
:103380000299D1E90012C0E90C12012080BD002091
:1033900080BD000070B543F2EC66C2F200060C4638
:1033A0000546C6F88C00A6F8881000F085F9806AFA
:1033B000007805280AD196F87000002818BF70BD63
:1033C0001DF044F82846214607F08EFE70BD00002F
:1033D00080B540F6B15140F60D32C0F20201C0F2A4
:1033E000020202201CF0E0FF43F6D840C2F20000C7
:1033F0002821FDF7A6FC80BDB0B541F6656441F615
:103400000D61C0F20204C0F2020100202246002534
:103410001CF0CAFF41F6BD51C0F202010120224654
:103420001CF0C2FF43F60050C2F20000C0E9005594
:10343000C0E90255C0E904558561B0BD2DE9F041F0
:103440000C46054600F038F9806A007804280ED151
:1034500043F2EC60C2F2000090F8700038B91CF042
:10346000F5FF2846214607F01FFFBDE8F08143F62F
:103470004008C2F20008B8F8166007F09BFF43F658
:103480009037C2F200073968401AB04202D2B8F849
:10349000160003E007F08EFF3968401AA8F81600FE
:1034A0001CF0D4FF2846214607F048FFBDE8F08114
:1034B00070B51D461446064600F02AF808B10120F2
:1034C00070BD43F2B37043F2B472C2F20000C2F2B4
:1034D000000201781278914224BF002070BD47F2AB
:1034E0003842C2F20002126845EA064302EBC10606
:1034F00042F83140013173600170012070BD00005D
:1035000043F2B270C2F20000012101707047000066
:1035100010B543F2B37EC2F2000E9EF80010B1B1B6
:1035200043EA004C47F23840C2F2000001689EF8BE
:1035300000E0002001EBC00351F830405B685440CC
:1035400083EA0C03234304D001307045F2D30020FA
:1035500010BD012010BD000043F2B370C2F20000A4
:103560000021017043F2B270C2F200000170704796
:1035700043F2B470C2F200000078704743F2B270B8
:10358000C2F2000000787047F0B543F2B37CC2F29B
:10359000000C9CF80010C9B143EA004E47F23840D5
:1035A000C2F2000000689CF800300024E6B200EB94
:1035B000C60550F836606F68564087EA0E073E43EE
:1035C00006D00134E1B299421946EFD30020F0BD94
:1035D000CAB2022A05D300EBC20050E90202C5E9D3
:1035E0000002481E8CF800000120F0BD43F2B270CA
:1035F000C2F20000002101707047000010B543F2D4
:10360000B874C2F200042068002808BF10BD417DD4
:1036100001EB410104EBC101C968002918BF8847CB
:103620000020206010BD0000B0B543F2B875C2F2B2
:1036300000050446286095F881000021002885F8DF
:10364000821008BF07F0AEFE95F8810030B195F802
:103650008000617D814218BF1DF0D6FE95F8810083
:1036600010B9607D1DF0BAFE607D00EB400005EBF7
:10367000C000816809B12046884795F8820000287B
:103680001CBF00202860B0BD47F23C40C2F20000E1
:10369000006880687047000043F2B870C2F2000012
:1036A00090F882007047000047F23C40C2F20000F0
:1036B000006800887047000043F2B870C2F2000052
:1036C0000068704747F23C40C2F200000068C088C2
:1036D00070470000B0B50D46FEF77CFC0446284656
:1036E000FEF778FC47F23C41C2F20001844207D960
:1036F0000968201A8968B0EB510F88BF0020B0BD5F
:103700000968001B8968B0EB510F92BF0020081AAE
:103710000130B0BD80B507F06FFE43F2B870C2F261
:1037200000008421FDF70DFB80BD000047F23C4105
:10373000C2F200010860704743F2B871C2F20001A2
:103740004860704780B500EB400E43F2B870C2F29B
:10375000000000EBCE000830DDF808C080E80E1055
:1037600080BD000043F2B87200EB4000C2F20002DC
:1037700002EBC0008161704743F2B870C2F20000F2
:10378000016800291CBF012180F8821070470000E9
:10379000B0B543F2B875C2F2000595F88110044641
:1037A00021B907F0FFFD20461DF018FE04EB440090
:1037B00005EBC000C1690131C161B0BD80B543F204
:1037C000B87100EB4002C2F2000101EBC202D36902
:1037D000013BD3610BD191F8812042B191F8801067
:1037E000814218BF80BD1DF00FFE07F0D1FD80BDE6
:1037F00010B543F2B874C2F20004206840B1407DB5
:1038000000EB400004EBC0008069002818BF80472F
:10381000002061682060012084F88200884710BD84
:10382000110A4170110C4FEA132C8170110E0270B5
:10383000C170037180F805C0704700000022014686
:10384000828006300A60704780B50622FDF706F9CF
:10385000B0FA80F0400980BD8A88828009680160E2
:103860007047000080B582B00021ADF804100091CF
:1038700069460622FDF7F2F8B0FA80F0400902B07E
:1038800080BD000002688188104670470268416868
:103890001046704743F68F30C2F2000000780028CF
:1038A00008BF70474FF20830C4F2000001210160E8
:1038B00043F67D00C2F200004178FF2906D043F6AE
:1038C0002C51C2F20001097841707047FEE70000F8
:1038D000D1F800C04B68CA688968C26081604360E3
:1038E000C0F800C0704700004A6809684260016083
:1038F0007047000001390138102200BF11F801CFD4
:1039000010F8013F013A8CEA030C130680F800C05E
:10391000F4D1704780B581B145F6046C013AC0F22C
:10392000040C00BF12F801EFC3B283EA0E035CF887
:103930002330013983EA1020F4D1C04380BD000058
:103940002DE9F04F83B043F6385BC2F2000BDBF891
:10395000040010B103B0BDE8F08F9BF809500026B9
:103960000DF10B080DF102090DF1040A002403E02A
:10397000032C04F10104EDD2E8B201358DF80B609F
:10398000022888BF0025EFB2780050FA85F00BEBD3
:103990008000436A0196002BADF80260E8D04046F3
:1039A0004946524698470028E2D001999DF80B00FD
:1039B000CBF804108BF808008BF809501EF05CFB64
:1039C0009DF80B10BDF80220019B38461EF098FBB5
:1039D00003B0BDE8F08F0000F0B581B043F6385772
:1039E000C2F200070D460646384668211446FDF728
:1039F000A8F9284621463E70BD81FC8100F03EF8C2
:103A000001B0F0BD80B543F63850C2F20000406806
:103A1000002818BF80BD0020FFF792FF80BD000086
:103A2000032888BF704700EB400C43F63850C2F2C1
:103A3000000000EB8C001C300EC0704743F638517C
:103A4000C2F20001886170474EF60450CEF20000C9
:103A50004FF0006101607047B0B582B08DF807107B
:103A60000DF1070001211C46154610F079FA204699
:103A7000294610F075FA284602B0B0BD7047000024
:103A800010B5144601294FF0000206D0052903D0D5
:103A9000022907D1012200E0032211461A461EF036
:103AA000FDFA2246104610BD0139C9B2022984BF71
:103AB0000020704780B54FEAC10C40F20241C0F2CD
:103AC000050121FA0CF1C9B2FFF7C6FF80BD000065
:103AD00080B5042009F024FF002808BF80BD0146FE
:103AE00043F6EC50C2F20000007B05228A7009F018
:103AF0004BFF80BD2DE9F04107460E209846164643
:103B00000C4609F00DFF002808BFBDE8F08105460E
:103B10000020A870E81D41466C712F71AE71FFF74F
:103B20009BFE43F6EC50C2F20000007B294609F0F0
:103B30002BFFBDE8F081000070B514460D46064627
:103B400009F0DEFF43F6F461C6EBC600C2F20001E5
:103B500001EB4000C570047109F0EEFF70BD00007C
:103B600080B509F0CDFF40F2B81046F23431C2F210
:103B70000000C0F2040101601EF080FF43F6F06017
:103B8000C2F2000000210160002002F08FF809F06D
:103B9000D3FF80BDB0B50C46054609F0B1FF43F632
:103BA000F461C5EBC500C2F2000101EB4000847076
:103BB00009F0C2FFB0BD0000B0B50C46054609F0E3
:103BC0009FFF43F6F461C5EBC500C2F2000101EBB3
:103BD0004000047209F0B0FFB0BD000010B504460B
:103BE00009F08EFF43F6EC50C2F20000847309F036
:103BF000A3FF10BDB0B50C46054609F081FF43F6A2
:103C0000A850C2F200002844C47709F095FFB0BD67
:103C10002DE9F041064603F108001C4690460F4688
:103C200009F07EFE002808BFBDE8F0810546069930
:103C30000120A87005F1080022462E716F7185F8E9
:103C40000680EC71FCF755FF43F6EC50C2F2000021
:103C5000007B294609F098FEBDE8F081B0B50C461E
:103C6000054609F04DFF43F6F461C5EBC500C2F20D
:103C7000000101EB4000447209F05EFFB0BD00009E
:103C800070B514460D46064609F03AFF43F6A850B3
:103C9000C2F2000000EB46000582C48209F04CFF2E
:103CA00070BD0000F0B581B01C4615460E460746B3
:103CB00009F026FF43F6F461C7EBC700C2F200012A
:103CC00001EB400046718571C47109F035FF01B008
:103CD000F0BD000070B506460C200D4609F020FE30
:103CE000002808BF70BD04460620A070601D29464C
:103CF0002671FFF7B1FD43F6EC50C2F20000007BE5
:103D0000214609F041FE70BD2DE9F0410746122021
:103D1000984615460E4609F003FE002808BFBDE888
:103D2000F0810146022088700F717FB1002000BF32
:103D3000325C0B185A7135F8102001EB40042281D7
:103D400018F80020013087429A73F1D143F6EC5005
:103D5000C2F20000007B09F017FEBDE8F081000010
:103D6000B0B5044608200D4609F0DAFD002808BF6A
:103D7000B0BD0146032088700C713CB1081D6A1E5D
:103D800012F8013F013C00F8013FF9D143F6EC5035
:103D9000C2F20000007B09F0F7FDB0BDB0B50C46E3
:103DA000054609F0ADFE43F6F461C5EBC500C2F26D
:103DB000000101EB4000447009F0BEFEB0BD000000
:103DC000B0B586B094460A46DDE90A1E0C9C012572
:103DD000CDE9003100216346CDF808E00495039455
:103DE0001FF0E6F906B0B0BD10B5044609F088FE34
:103DF00043F6106104EB4400C2F2000101EB001035
:103E000030F8224C09F098FE204610BD70B50446EB
:103E1000242015460E4609F083FD002808BF70BD1A
:103E200001461920887043F6EC50C2F20000007B76
:103E30000E800D71CD704C7109F0A6FD70BD0000B3
:103E400043F61061C2F200010C31032207E000BF0B
:103E5000013A130601F1300104BF002070478B7A4C
:103E6000002BF5D00B888342F2D10879704700000F
:103E700043F6106100EB4000C2F2000101EB0010BC
:103E800010F81A0C7047000080B509F039FE40F2B6
:103E9000B81046F2943146F24032C2F20000C0F24D
:103EA0000401C0F20402C0E9031246F21041C0F25C
:103EB0000401816343F6046046F24C31C2F2000013
:103EC000C0F20401016043F6E46046F2FC31C2F244
:103ED0000000C0F20401016009F02EFE80BD000068
:103EE00043F6106100EB4000C2F2000101EB00104C
:103EF0002A38704743F6106100EB4000C2F200011F
:103F000001EB001010F81C0C7047000043F6106124
:103F100000EB4000C2F2000101EB001016387047C0
:103F200080B509F0EDFD43F6046046F26C31C2F253
:103F30000000C0F20401416043F6E46046F2004133
:103F4000C2F20000C0F20401416009F0F5FD80BD3D
:103F500080B586B09C460023CDE9003302920493DD
:103F600000220023CDF80CC01FF022F906B080BD5E
:103F700043F6106100EB4000C2F2000101EB0010BB
:103F80003038704743F6106100EB4000C2F2000188
:103F900001EB001010F81D0C7047000043F6106193
:103FA00000EB4000C2F2000101EB00101038704736
:103FB000B0B50C46054609F0A3FD43F61060C2F209
:103FC000000000EB8500C0F8904009F0B5FDB0BDE1
:103FD00043F6106100EB4000C2F2000101EB00105B
:103FE00010F8170C7047000043F6106100EB40001A
:103FF000C2F2000101EB001010F8190C704700002C
:1040000010B5044609F07CFD43F6EC50C2F2000006
:10401000447309F091FD10BD80B5014601201FF0E9
:1040200061F980BD70B516460C46054609F068FD7D
:104030002846FFF71DFF68B143F6106105EB450008
:10404000C2F2000101EB00103EB130F8221C214306
:1040500020F8221C09F070FD70BD30F8221CA1432D
:1040600020F8221C09F068FD70BD000080B50A46EA
:10407000014601201FF052F980BD000080B509F013
:104080003FFD43F6046046F28431C2F20000C0F204
:104090000401816043F6E46046F20841C2F2000088
:1040A000C0F20401816009F047FD80BD80B50420A5
:1040B00009F036FC002808BF80BD014643F6EC50ED
:1040C000C2F20000007B38228A7009F05DFC80BDDE
:1040D00080B51FF04FFB80BD80B50A460146002029
:1040E0001FF048FB80BD000010B5044643F6EC50BD
:1040F000C2F200002146FFF7AFFB204601F04CFC66
:1041000010BD000080B509F0FBFC40F2B81046F28B
:104110002831C2F20000C0F20401016046F28C4175
:10412000C0F2040181621FF001FE20F083F943F622
:10413000F06045F26D61C2F20000C0F20001016062
:10414000002001F0A7FD4FF440500021012201F0B2
:1041500083FD09F0F1FC80BD80B509F0D1FC43F688
:10416000046046F26431C2F20000C0F20401416012
:1041700043F6E46046F20041C2F20000C0F20401DE
:10418000416009F0D9FC80BD2DE9F0410C4605469F
:1041900000264FF001080020002708E0062E88BF07
:1041A000BDE8F081F8B2032806F101060CD208FA46
:1041B00006F22A42F2D000EB400004EB8001D0B2BC
:1041C0001FF090F80137E9E7BDE8F0812DE9F043F1
:1041D00081B091460D46064600274FF001080020A9
:1041E000002400BF08FA07F3334207D035F8101057
:1041F00039F81020D8B21FF091F80134062F04D8F6
:10420000E0B2032807F10107ECD301B0BDE8F08369
:1042100080B509F075FC43F6046046F27431C2F2D1
:104220000000C0F20401816043F6E46046F20841F8
:10423000C2F20000C0F20401816009F07DFC80BD83
:1042400080B509F05DFC40F2B81046F2BC41C2F204
:104250000000C0F20401816020F010FC20F0F8FDA5
:1042600009F06AFC80BD000010B5D1B192F800E001
:104270004FF0000CBEF1000F11D08BB273450ED978
:10428000144614F8013F9446834208D06FEA0E02A8
:1042900011440A0404EB0E02E8D14FF0000C604612
:1042A00010BD002010BD000080B599B143F6EC5060
:1042B000C2F20000007C002818BF80BD88787C22F4
:1042C00002EA500040F2B812C2F2000210588268AE
:1042D0000846904780BD000080B543F6EC51C2F21D
:1042E000000108730020C875087444F2A920C0F2C8
:1042F000020000F029FE80BD43F6EC51C2F200013D
:10430000C97D002908BF7047022804BF00207047FC
:10431000032808BF0120704780B5014603201FF025
:10432000DDFF80BD80B582B0ADF8041043F61061AA
:10433000C2F20001D1F89C107622ADF80600684662
:10434000ADF80220884702B080BD000010B582B0F1
:104350000C461EF04DFE38B173218DF802106946EF
:10436000ADF804401FF030F902B010BDB0B584B014
:104370000546084614461EF03BFE40B172218DF8FA
:10438000061001A902948DF80C501FF01DF904B01D
:10439000B0BD000043F6EC51C2F20001C97D002916
:1043A00008BF7047002804BF02207047012808BFDB
:1043B0000320704710B50446062009F0B1FA002822
:1043C00008BF10BD01465220887043F6EC50C2F27F
:1043D0000000007B0C7109F0D7FA10BD10B504463F
:1043E000062009F09DFA002808BF10BD01465320A1
:1043F000887043F6EC50C2F20000007B0C7109F0AB
:10440000C3FA10BD80B509F07BFB40F2B81046F24C
:104410009841C2F20000C0F2040141624FF4106002
:104420000021012201F018FC09F086FB80BD00008C
:104430002DE9F04381B004462C20984616460F46DD
:1044400009F06EFAF0B10546DDE908903121A97056
:104450002880681D39462C71FFF7FEF905F10B0025
:104460003146FFF735FA05F11B004146FFF730FAF8
:1044700043F6EC50C2F20000007B294685F82B90F1
:1044800009F082FA01B0BDE8F083000080B52C206D
:1044900009F046FA002808BF80BD01463320887025
:1044A00043F6EC50C2F20000007B09F06DFA80BDCB
:1044B00080B509F025FB40F2B81046F2B041C2F2D7
:1044C0000000C0F20401816146F2A441C0F204017F
:1044D000C16309F031FB80BD10B504462C2009F002
:1044E0001FFA002808BF10BD014634208870002044
:1044F000088043F6EC50C2F20000007B0C7109F01A
:1045000043FA10BD10B59AB040F2B811C2F20001E2
:10451000096A46F2284243F6EC54C0F20402C2F2A1
:1045200000049142A0600AD000F032FD442806D871
:104530000020C0F27710A168019001A888471AB046
:1045400010BD0000B0B5054610200C4609F0E8F992
:10455000002808BFB0BD0146222088700D80206869
:104560006268A368486043F6EC508A60CB60C2F290
:104570000000007B09F008FAB0BD000080B509F02A
:10458000BFFA40F2B81046F2C841C2F20000C0F2D1
:104590000401816020F072FA09F0CEFA80BD0000BB
:1045A00080B520F093FA80BD10B5044609F0A8FA52
:1045B00043F6EC50C2F20000C47309F0BDFA10BD1E
:1045C0002DE9F04381B091460D46064600274FF095
:1045D00001080020002400BF08FA07F3334207D087
:1045E00035F8101039F81020D8B220F095FA0134BF
:1045F000062F04D8E0B2032807F10107ECD301B07D
:10460000BDE8F0832DE9F04381B0074610209846BD
:1046100016468946102409F083F930B3DDE908EC29
:10462000014684700771431D00200024002200BF52
:1046300027FA00F5ED0702D0355D01321D55D4B2E1
:10464000022C03D8072800F10100F1D343F6EC5007
:10465000C2F20000007B81F80890A1F80AE0A1F8FE
:104660000CC081F80E8009F08FF901B0BDE8F0832D
:1046700080B5042009F054F9002808BF80BD014628
:1046800043F6EC50C2F20000007B11228A7009F060
:104690007BF980BDF0B581B00746162015460C4663
:1046A00009F03EF968B106460420B07037803475D1
:1046B00025B1301D29462246FCF71BFA304608F08A
:1046C000A5FC01B0F0BD0000B0B5054604200C46C5
:1046D00009F026F9002808BFB0BD032181700580CC
:1046E000C47008F093FCB0BDF0B581B0074620203F
:1046F00016460C4609F014F988B105462820A87022
:10470000281D31461A222F80FCF7F3F943F6EC50AE
:10471000C2F20000007B2946AC7709F035F901B000
:10472000F0BD0000C0684DF6836100BAC4F21B31D1
:10473000A0FB0112910C43F609525143A0EB8110EA
:104740007047000046F69800C2F200007047000073
:1047500043F67470C2F200004068704743F674700C
:10476000C2F200000068704740F2B81046F2D4412F
:10477000C2F20000C0F20401416143F6747045F6D4
:10478000F251C2F20000C0F20401C0E9001170470A
:1047900040F2B81046F2E041C2F20000C0F204015B
:1047A000016270472DE9F0410446162098461646EE
:1047B0000F4609F0B5F8002808BFBDE8F0810546AE
:1047C0002920A8702C802F756E751FB1281D4146B9
:1047D000FFF77EF843F6EC50C2F20000007B29465A
:1047E00009F0D2F8BDE8F081F0B581B007460820A5
:1047F0001C4615460E4609F093F868B10699012249
:10480000827004F0070201F007010780067145710C
:104810008271C17108F0FAFB01B0F0BDF0B581B052
:10482000074608201C4615460E4609F079F868B17F
:1048300006990222827004F0070201F00701078046
:10484000067145718271C17108F0E0FB01B0F0BDE5
:1048500080B5014646F69800C2F200006022FCF7DF
:1048600048F980BD10B5044609F04AF943F6747062
:10487000C2F20000446009F05FF910BD10B50446B3
:1048800009F03EF943F67470C2F20000046009F0CA
:1048900053F910BDB0B5054606200C4609F040F8A6
:1048A000002808BFB0BD052181700580047108F0A3
:1048B000ADFBB0BD10B5044680782C2801D02A2865
:1048C00008D143F61060C2F20000D0F8901009B190
:1048D0002046884743F6EC50C2F20000816820462B
:1048E000884710BDB0B514460D461EF099FB002850
:1048F00008BFB0BD00218289817445F6F25105766A
:10490000C0F2040110460022234601F09FF8B0BD1A
:10491000F0B591B00646104615460C4640F03AF800
:1049200008B111B0F0BD09AF3846214640F0F6F9A4
:1049300001A831463A4640F0E3F93846394640F09E
:10494000EDF9204621462A4640F0DAF92846294664
:1049500040F0E4F9304631462A4640F005F9284651
:1049600029462A4640F000F9284631462A4640F0BA
:10497000E3F9304631462A4640F0C2F9284631462E
:10498000324640F0F1F8304631462A4640F0ECF825
:104990003046002140F0DEFA80B146F20832C0F223
:1049A0000402304631463FF0B1FF0746304640F042
:1049B00055FAF06940EAC770F06102E0304640F015
:1049C0004DFA2846314640F0A9F901AF284629465C
:1049D0003A4640F0B1F9284629463A4640F0ACF94B
:1049E000384639462A4640F0A7F9304631463A461D
:1049F00040F086F909AF384631463A4640F09CF916
:104A00003046294640F038FA2846214640F034FA2C
:104A10002046394640F030FA11B0F0BD10B50446DA
:104A20003FF0B8FF38B104F120003FF0B3FF002899
:104A300018BF012010BD002010BD00002DE9F04F6F
:104A40008BB004460078042827D88A461646DFE84B
:104A500000F003264266810004F12407DDF850A02F
:104A60003846314604F1040840F006FA04F16405C2
:104A700006F12001284604F1440940F0FDF93846CA
:104A8000294642464B46CDF800A009F08FF9FF2099
:104A9000C4F8840000250120A9E00125A8E0D4F88D
:104AA0008410184640F056FAB0FA80F1221D4B09E6
:104AB000002818BF012002EB401704F1440606EB62
:104AC000401102EB431206EB4313384609F0FEF89F
:104AD000002502208BE0D4F88410184640F03AFA02
:104AE000B0FA80F14909221D002818BF012002EB0D
:104AF000411704F1440303EB411102EB401203EBB5
:104B00004013384609F094F8D4F8840000250138A1
:104B1000C4F884004FF00300C8BF012067E01846C6
:104B20000021002540F016FAB0FA80F1221D4B0951
:104B3000002818BF012002EB401704F1440606EBE1
:104B4000401102EB431206EB4313384609F0BEF85E
:104B500004204CE01846002140F0FCF90546B0FA6C
:104B600080F0400904F1040903AF029004F124012C
:104B700038464A46002D18BF012540F0DDF804F103
:104B8000440808EB451B384639465A4640F0B8F809
:104B900038463946324640F0B3F8384639463FF099
:104BA000FBFF06F120023846394640F0A9F809EB30
:104BB0004515384639462A4640F0A2F802992A4659
:104BC00009EB411008EB41115B4609F031F848460A
:104BD00041463A4618F002FB5046494640F04CF92F
:104BE0000AF12000414640F047F9012505202070D8
:104BF00028460BB0BDE8F08F80B5930706D4D207E6
:104C000000F10C0015D118F02DFB80BDC36802F037
:104C1000010203EA010040EA020C8842184618BF6C
:104C20000020002A08BF1846BCF1000F08BF6046EC
:104C300080BD18F0EFFA80BD80B50C3018F0AEFBE7
:104C400080BD000080B540F23712C8F201023FF08B
:104C500011FC80BD80B540F23112C8F2010201465C
:104C60003FF008FC80BD000080B540F23812C8F269
:104C700001023FF0FFFB80BD80B540F23312C8F265
:104C800001023FF0F7FB80BD80B540F23212C8F25E
:104C900001023FF0EFFB80BD80B539F037FF3FF0F8
:104CA00027FB80BD2DE9F04F85B04FF000080124AF
:104CB0004FF480760827CDF8108004E06400013FAF
:104CC00006F1040610D0B5B2284638F0BBFB002828
:104CD000F4D0204638F0E0FB0028EFD0284638F02A
:104CE00071FB48EA0408E9E74FF4BE7038F0AAFB0C
:104CF00040B14FF4BE7038F065FB04A848F000489E
:104D000038F052FB5FEA08601CD00127002404E061
:104D10000134082C4FEA470714D017EA080FF7D0E0
:104D2000204638F099FB0546204638F09FFB0646A2
:104D300020461DF06FF90028EAD002462846314689
:104D40009047E5E7B8F1FF3F02DD05B0BDE8F08F21
:104D500046F6FC084FF000094FF0FF30C2F20008A1
:104D60000DF1080B03254FF0000ACDF80C900290CE
:104D700009E000BF4FF0000A4FF000095FEA0A6047
:104D80004FF0000AE1D008EB090090F85040FF2CEA
:104D900038D004F03F063046594638F009F988B358
:104DA00030461DF061F91DF035F9B5EB941F07464B
:104DB00000D03FB3A409032C03D1304603A938F037
:104DC00001F9304638F086FA0546304604A938F035
:104DD000EFF8022D00D110B9032D11D180B9032CA9
:104DE00008D102213046022D08BF032138F010FA05
:104DF0000AF1010A03252FB130462146B84701E0E8
:104E0000032500BF09F10109B9F1040FBBD15FEA25
:104E10000A60AFD001A838F0C7FA01980499884217
:104E2000A8D0039904900291A6E700004EF6045022
:104E3000CEF200000068102101EA10607047000007
:104E400044F29802C2F20002C2E904017047000075
:104E500070B582B039B1887801283DD1084621F07B
:104E60001BFA02B070BDC00736D044F29804C2F2FB
:104E700000040DF10701204608F062FD60B306460C
:104E80000DF1070509E000BF304608F06FFD204630
:104E9000294608F055FD0646F0B19DF807000228A6
:104EA0000CD0042812D1304622F0CEFB94F8210019
:104EB0000028E9D0304621F00BFCE5E7304621F030
:104EC000EDF90028E3D0216904E000BFA1690029C1
:104ED000DAD030468847DAE702B070BD80B544F2D8
:104EE000D800C2F200000021C0E91C116FF01B01C4
:104EF0004FF6FF7243181C3138299A85FAD14FF0CA
:104F0000FF31C0E91511C1651B21A0F87C1040F2EA
:104F10000511A0F880100021C0F8A01021F01EFBA0
:104F200080BD0000B0B50C46054640F206400321A6
:104F300021F05CF9002808BFB0BD290AC5700171D5
:104F4000447121F083F9B0BD44F29801C2F200012E
:104F50008860704744F2D800C2F2000068307047A1
:104F600044F2D800C2F20000B0F87E0070470000A2
:104F700044F2D800C2F20000D0E9220170470000DC
:104F800044F2D800C2F20000B0F89200704700006E
:104F900044F2D800C2F20000B0F87C007047000074
:104FA00044F2D800C2F2000090F89400704700006C
:104FB00080B5FFF74DFF80BD80B544F29801C2F285
:104FC000000181F820000020C1E90000FFF786FF02
:104FD00080BD00002DE9F0418846074642F22700D7
:104FE00027211C46164621F001F9002808BFBDE81C
:104FF000F081054604304146EF70FEF72DFC306825
:105000007168F268B368C5F81620C5F81230C5F8A3
:105010000E10C5F80A0020686168A268E368C5F848
:105020001A002846C5F81E10C5F82220C5F82630FB
:1050300021F00CF9BDE8F08180B542F23D0000217D
:1050400021F0D4F8002818BF21F000F980BD00003D
:1050500080B542F22900002121F0C8F8002818BFCD
:1050600021F0F4F880BD0000B0B50C46054642F2D0
:1050700013000E2121F0BAF8002808BFB0BDA0F837
:1050800003502178417161788171A178C171E17813
:1050900001722179417261798172A179C172E179DC
:1050A0000173217A4173617A8173A17AC173E17AC4
:1050B000017421F0CBF8B0BD80B542F20E000021A2
:1050C00021F094F8002818BF21F0C0F880BD00003E
:1050D0002DE9F0470F46054642F20D00192198468A
:1050E000914621F083F8002808BFBDE8F087044608
:1050F000C570280ADDE9081A2071380A0A9EA071D5
:1051000004F10900677184F8079084F80880FEF7BD
:10511000A3FB84F80FA03078207470786074B078A6
:10512000A074F078E0743079207570796075B0798A
:10513000A075F079E075307A2076707A6076B07A72
:10514000A076F07AE076204621F080F8BDE8F0877E
:10515000B0B50C46054642F21700202121F046F872
:10516000002808BFB0BD29686A68EB68AD68C0F860
:105170000F30C0F80B50C0F80720C0F803102168AA
:105180006268A368E568C0F81310C0F81720C0F87B
:105190001B30C0F81F5021F059F8B0BD2DE9F04781
:1051A0000746007A144688460026002120FA01F2BC
:1051B000D20718BF0136062904D8F2B2042A01F139
:1051C0000101F3D35FFA86F94FEA091000F10A01F1
:1051D00042F2430021F00AF8002808BFBDE8F0873A
:1051E000824638788AF8030078788AF80400B8781C
:1051F0008AF8050079680AF10600FEF72DFB387A77
:1052000031068AF80C0034D04FEA490151FA86F190
:10521000AAF103004FEA810CA21DA8F102030027A6
:105220009E78E51900F8106FDE78467013F8046F69
:1052300086705E78C670E65D06716E784671AE78EF
:105240008671EE78C671D61916F8021C017216F82E
:10525000011C4172D15D0C3781727178BC45C172FD
:10526000297A0173697A4173A97A8173E97AC173E2
:10527000D6D1504620F0EAFFBDE8F087F0B581B006
:105280000E46074642F2420006211C46154620F013
:10529000ADFF48B1290A8171210AC77006714571B5
:1052A000C471017220F0D2FF01B0F0BD70B50C46A0
:1052B000064642F22600402120F098FF002808BF51
:1052C00070BD0546033031462022FBF712FC05F184
:1052D000230021462022FBF70CFC284620F0B6FFD5
:1052E00070BD000010B5044642F21B00022120F000
:1052F0007DFF002808BF10BDA0F8034020F0A6FFE6
:1053000010BD0000B0B50C46054642F21A0012214D
:1053100020F06CFF002808BFB0BDA0F80350216842
:105320006268A368E568C0F80510C0F80920C0F8F5
:105330000D30C0F8115020F089FFB0BD80B542F2A9
:105340004500002120F052FF002818BF20F07EFF0A
:1053500080BD00002DE9F04F81B00F46054642F2B6
:1053600044000E219846164620F040FFD0B1044676
:10537000DDF83090DDE90ABAC570077106304146A4
:105380006671FEF769FA4FEA1B2060734FEA1A2034
:10539000E073204684F80CB084F80EA084F81090D6
:1053A00020F054FF01B0BDE8F08F000010B50446B6
:1053B00042F24600022120F019FF002808BF10BD6C
:1053C000A0F8034020F042FF10BD000080B542F27B
:1053D0001800002120F00AFF002818BF20F036FF37
:1053E00080BD000080B542F20200002120F0FEFEE8
:1053F000002818BF20F02AFF80BD000080B542F2CF
:105400000300002120F0F2FE002818BF20F01EFF4C
:1054100080BD000080B542F23A00002120F0E6FE97
:10542000002818BF20F012FF80BD000080B542F2B6
:105430002F00002120F0DAFE002818BF20F006FF20
:1054400080BD000080B542F23B00002120F0CEFE7E
:10545000002818BF20F0FAFE80BD000080B542F29F
:105460004A00002120F0C2FE002818BF20F0EEFE06
:1054700080BD000080B542F22A00002120F0B6FE77
:10548000002818BF20F0E2FE80BD000080B542F287
:105490001C00002120F0AAFE002818BF20F0D6FE34
:1054A00080BD000080B542F20F00002120F09EFE7A
:1054B000002818BF20F0CAFE80BD0000B0B50C4621
:1054C000054642F22100032120F090FE002808BF8B
:1054D000B0BD290AC5700171447120F0B7FEB0BD9E
:1054E000F0B581B00E46074642F220000E211C4660
:1054F000154620F07BFEC8B1C7703F0A0899DDE968
:1055000006320771370A87712F0A0772270AC3729A
:105510001B0A4273120AC173090A4671C5714472AB
:10552000877203738273017420F090FE01B0F0BDA6
:1055300010B5044642F23C00012120F057FE00283D
:1055400008BF10BDC47020F081FE10BD70B50C46C0
:10555000054642F22800072120F048FE002808BF37
:1055600070BD064604302146F570FEF775F93046E9
:1055700020F06CFE70BD000010B5044642F26D00D4
:10558000022120F033FE002808BF10BDA0F8034020
:1055900020F05CFE10BD000010B5044642F22D0064
:1055A000012120F023FE002808BF10BDC47020F0A8
:1055B0004DFE10BDF0B581B00E46044642F2080023
:1055C000202120F013FE78B1071D0546C47038462F
:1055D00031462246FBF78DFA3819C4F11F01FBF75B
:1055E0008EFB284620F032FE01B0F0BD10B5044617
:1055F00042F20A00012120F0F9FD002808BF10BD89
:10560000C47020F023FE10BD2DE9F0470F4605467B
:1056100042F206000F219846164620F0E7FD0028CA
:1056200008BFBDE8F0870446DDE90821C570280AF7
:10563000DDE90AA92071380AA07104F10A00677136
:10564000E67184F80880627221B1FEF705F904F171
:10565000100001E0FEF7F2F880F800A080F8019059
:10566000204620F0F3FDBDE8F087000070B50C4641
:10567000054642F23500072120F0B8FD002808BF9A
:1056800070BD064604302146F570FEF7E5F8304659
:1056900020F0DCFD70BD000070B50D46064642F2FC
:1056A00022000621144620F0A1FD002808BF70BD8D
:1056B000310A0171290A8171210AC6704571C471CC
:1056C000017220F0C3FD70BD10B5044642F2010026
:1056D000082120F08BFD002808BF10BD61682268FA
:1056E000C0F80710C0F8032020F0B0FD10BD000086
:1056F0002DE9F0411C460E460746FB2B03F1040141
:1057000042F23700904628BF6FF00404FF2928BFFB
:10571000FF2120F06BFD002808BFBDE8F08106994D
:105720000546E2B2C770067180F805800730AC719B
:10573000FBF7DFF9284620F089FDBDE8F081000085
:1057400070B5064688000C46811C42F239001546A9
:1057500020F04CFD002808BF70BDC67004716CB10C
:10576000A91F421C11F8063F013C02F8043F8B7848
:105770005370CB7893700B79D370F3D120F066FD22
:1057800070BD000070B50C46064642F23600192185
:1057900020F02CFD002808BF70BDC670054620789B
:1057A0002871607868716068A8716068000AE871A3
:1057B000E0882872A0686872A068000AA8726089F0
:1057C000E872207B2873607B6873A07BA8732169D3
:1057D00005F10F00FEF740F8207D6875607DA87523
:1057E000A07DE875E07D2876207E6876607EA876CC
:1057F000A07EE876284620F029FD70BD2DE9F04313
:1058000081B098461546894607460026002000BF0D
:1058100025FA00F1C90718BF0136062804D8F1B2ED
:10582000042900F10100F3D3F4B2A00050FA86F08D
:10583000C11C42F2410020F0D9FCC8B13106C7704A
:1058400080F80490457111D0A8F10601421C00BFF8
:105850008B7A013C02F8053F11F8063F53704B78F4
:1058600093708B78D370CB781371F1D120F0EEFC6C
:1058700001B0BDE8F08300002DE9F0411C460E4662
:105880000746FB2B03F1040142F23800904628BF83
:105890006FF00404FF2928BFFF2120F0A7FC002897
:1058A00008BFBDE8F08106990546E2B2C7700671EF
:1058B00080F805800730AC71FBF71BF9284620F013
:1058C000C5FCBDE8F08100002DE9F04115460E460B
:1058D0000746FC2A02F1030142F23F00984628BF26
:1058E0006FF00305FF2928BFFF2120F07FFC00286F
:1058F00008BFBDE8F0810446EAB2C7700671063001
:1059000041466571FBF7F5F8204620F09FFCBDE8A5
:10591000F0810000B0B50C4605464FF4015002215D
:1059200020F064FC002808BFB0BDC570047120F0F1
:105930008DFCB0BDF0B581B00E46074642F23E0088
:1059400007211C46154620F051FC58B1310A41711F
:10595000290AC171210AC7700671857104724172EA
:1059600020F074FC01B0F0BDF0B581B00D460746E3
:1059700042F24E000821144620F038FC48B1064699
:1059800004302946F770FDF767FF3046B47220F007
:105990005DFC01B0F0BD0000B0B5044642F2050068
:1059A000062120F023FC002808BFB0BD05460330C7
:1059B0002146FDF751FF284620F048FCB0BD00000D
:1059C000B0B50C46054642F20C00022120F00EFC58
:1059D000002808BFB0BDC570047120F037FCB0BD11
:1059E000F0B581B00E46074642F20B0007211C4677
:1059F000154620F0FBFB58B10699320A42712A0A7B
:105A0000C77006718571C2710472417220F01EFC6C
:105A100001B0F0BDF0B581B00E46044642F2090077
:105A2000202120F0E3FB78B1071D0546C4703846FD
:105A300031462246FBF75DF83819C4F11F01FBF728
:105A40005EF9284620F002FC01B0F0BDF0B581B04F
:105A50000E46074642F219001C211C46154620F04E
:105A6000C5FBC0B1A0F8037071683268C0F80910B6
:105A7000290AC0F805204573817321686268A3680C
:105A8000E768C0F80F10C0F81320C0F81730C0F84E
:105A90001B7020F0DBFB01B0F0BD0000B0B50C4680
:105AA000054642F22400042120F0A0FB002808BF94
:105AB000B0BD290A0171210AC5704471817120F0BD
:105AC000C5FBB0BD44F2D800C2F2000090F89100CE
:105AD000002818BF0120704780B541F2090000215D
