:1000000000000120B9380300F1380300390703006C
:10001000F5380300450703004B070300000000000C
:10002000000000000000000000000000B11D0300FF
:10003000FD38030000000000491E0300591E0300A4
:100040000339030089EA020003390300033903007E
:1000500003390300033903000339030003390300A4
:100060000339030003390300033903000339030094
:1000700003390300915B03000339030009F5020013
:100080000339030003390300033903000339030074
:100090000339030003390300033903000339030064
:1000A0000339030003390300033903000339030054
:1000B00003390300033903000000000000000000C2
:1000C0000339030003390300033903000339030034
:1000D00003390300033903000339030010B5054C4D
:1000E000237833B9044B13B10448AFF300800123E4
:1000F000237010BD300C002000000000B0B70300DA
:1001000008B5034B1BB103490348AFF3008008BD9A
:1001100000000000340C0020B0B70300154B002B8A
:1001200008BF134B9D46A3F5803A00218B460F462E
:100130001348144A121A37F091FA0F4B002B00D0D3
:1001400098470E4B002B00D0984700200021040058
:100150000D000D48002802D00C4830F0F7FF36F0B3
:1001600083FD2000290031F0ADFC30F0ECFF00BF32
:10017000000008000000012000000000211A030018
:10018000300C0020888200204D1103000000000088
:100190000368184710B5054B0360044600F04EF89D
:1001A000204600F097F9204610BD00BFD883030019
:1001B00070470000C36810B52BB9044904484FF4D8
:1001C000FD7230F0B9FBBDE810401847988303007A
:1001D000B6830300036801221B69002118470368E6
:1001E00000221B69114618476FF01500704770B563
:1001F000D0E90213D0E908250446521845EB030361
:1002000000F058F9636B23B104F12800BDE8704099
:10021000184770BD38B50446154600F035F9064B51
:10022000236000220023C4E908230023636384F8C9
:100230003850204638BD00BFD883030013B50446AC
:1002400001A830F001F9204600F03EF9636B23B1BC
:1002500094F838300BB130F0ABFE0023636301A893
:1002600030F0FAF802B010BD70B5044615461E46CF
:1002700000F02AF9C4E90856A06930F0AAF82A1853
:1002800046EB01032046BDE8704000F013B984B08E
:1002900073B5054607AC01A884E80E0030F0D4F829
:1002A0006B6B23B995F838300BB130F06BFE94E8E6
:1002B0000F0005F1280686E80F00DDE90C2328462B
:1002C000FFF7D2FF01A830F0C7F802B0BDE87040D8
:1002D00004B0704710B504462FF030FE00220146EE
:1002E0002046FFF797FF024B2360204610BD00BF5A
:1002F000CC83030030B5436B85B00446B3B100F145
:1003000028030FCB6D4685E80F000023636394F844
:1003100038300BB130F04CFE039B2BB90449054833
:100320004FF4FD7230F008FB2846984705B030BD09
:1003300098830300B683030010B5044630F070F8CC
:10034000012201462046FFF765FF024B236020464D
:1003500010BD00BFE483030010B504462FF0EEFD8E
:10036000002201462046FFF755FF024B236020463E
:1003700010BD00BFF0830300437D10B504461BB1E0
:10038000037D0BB130F014FE204610BD13B50446BA
:1003900001A830F059F8637D53B9237D0BB130F0DB
:1003A000F1FD206930F015F8C4E9000101236375FF
:1003B00001A830F051F802B010BD37B504460D4623
:1003C00001A830F041F800230022C4E900236B7D2E
:1003D0004BB128692FF0FDFFD5E90032C01A61EB5F
:1003E0000201C4E9000101A830F036F8204603B04C
:1003F00030BD30B585B004460D4603A830F024F872
:1004000029466846FFF7D9FFD5E90210009B019AFB
:100410005B1840EB0202C4E9003203A830F01CF87C
:10042000204605B030BD13B5044601A830F00CF8E5
:1004300020692FF0CEFF00220023C4E90001C4E9A7
:10044000022301A830F008F802B010BDD0B5002397
:1004500000260027C0E90067C0E902670446016181
:1004600002754375FFF7DFFF2046D0BD10B5044687
:100470002FF064FD002201462046FFF7E7FF2046EB
:1004800010BD03681B68184710B50446074B23606E
:1004900000220023C4E9022300230846A161C4E925
:1004A000043303492FF00CFF204610BD08840300DD
:1004B0008304000007B5009000F1080180692FF067
:1004C0003EFF03B05DF804FB00F1080180692FF0E6
:1004D00065BF000010B5034B03600446FFF7F4FF4F
:1004E000204610BD088403000020704700290CBF7F
:1004F0006FF0180000207047012070476FF0150062
:1005000070476FF01500704784B001A880E80E00B6
:1005100004B0704738B500230446836519B90A460C
:1005200000F00FF803E0002AFAD100F042F820466C
:1005300038BD10B5044600F04FF8204610BD00F05D
:1005400057B9032938B5044607D9D31C23F0030350
:100550009A1A8A1A22F003011A460023C4E90433C6
:10056000E2600D4605BBC4E906512262256000F039
:1005700009FA00F009FAC4E90A556060258184F897
:10058000245004F1300000F01FFA00280BDB04F1C6
:10059000440000F011FA002805DB04F1480000F0E7
:1005A0000BFA00EAE07038BD2369013323616D085E
:1005B000D8E737B505460846019136F0FBFB0446FF
:1005C00038B1024601992846FFF7BBFF6C6103B0C2
:1005D00030BD4FF0FF30FAE770B505680446B5B995
:1005E000A36A1BB1E06A4FF0FF31984704F148005D
:1005F00000F0E4F904F1440000F0E0F904F1300007
:1006000000F0EAF96069BDE8704036F0DBBBEE68E7
:1006100036B9EB6913B105F124009847AD68DEE700
:10062000F36913B106F124009847F668F0E773B553
:10063000064627314830019021F0030500F0BFF94C
:10064000B469019806F118035CB9F3699D4223D897
:10065000346A5B1BF36162190123326225602371E6
:1006600007E02268954213D8E26872B11A60A36865
:10067000936000F0A6F900234FF0FF32C4E9053281
:10068000E3612434204602B070BDA2681A60F0E72E
:1006900004F10803A468D7E700F093F9F2E751F8F2
:1006A000083C73B505460C460BB108469847EB6805
:1006B00033B1A4F12406B34202D82B6AB34204D268
:1006C000002304F8203C02B070BD05F14800019001
:1006D00000F075F9AB69019805F11802ABB11D681E
:1006E00054F8241C8D420CD30FD144F8183C1368E5
:1006F0009B6844F81C3C166002B0BDE8704000F0F6
:1007000060B903F108029B68E8E7002344F8183C4D
:100710001368EEE7F8B54B699B1A002BACBFD318F2
:10072000131C4B61437A4B7100F144070546384670
:100730000C46164600F043F9284603687BB3596916
:100740006269A1EB020CBCF1000F25DB914226D1BE
:100750009B68A36013B104F108021A612246036882
:1007600042F80C3F002199601A61AB6A0460206175
:100770006BB195F8242052B12A68A24207D1E268F1
:100780002AB96169E86A891B21EAE171984738460C
:10079000BDE8F84000F015B903F10800CDE7A3600B
:1007A00013B104F108021A610023E360DDE7F8B534
:1007B000144605460F46A2F1240600F0E5F854F869
:1007C000103C44F8047C0344024644F8103C314693
:1007D0002846FFF79FFF296914F8204C8C40E968F0
:1007E000761A05F13000344300F0F8F82046F8BDE1
:1007F0002DE9F74F04460F4600F0C6F84FF0000809
:10080000054607EB000984F8248004F144063046CD
:1008100000F0D5F8637A0133637263685B1B002BC9
:100820002368D8BF6560019301A91BB15A69521BA7
:10083000002A33DD236003B11C613046C1F800801B
:1008400000F0BFF8019B01A863BB019D4FF0010AB6
:10085000002D34D100F098F8002F82465CDBA9EB24
:100860000005002D5ADCA36A9BB1304600F0A7F8C2
:10087000A36A43B1226832B15169E06AA1EB0A016F
:1008800021EAE1719847012384F82430304600F0D2
:1008900098F80023237203B0BDE8F08F03F108013C
:1008A0009B68C2E79D681A46002191601146D26894
:1008B000002AFAD1016003F108002B46C4E72B6A35
:1008C000D5F808B013B105F124009847AA69002AA9
:1008D0000BDB6B6913446B6100F056F82946024646
:1008E0002046FFF717FF5D46B2E7E36873B1AB42FE
:1008F0000CD8236AAB4209D32B7922690133DBB2CE
:1009000013FA02F214BF2B7185F804A005F124013B
:100910002046FFF7C4FEE6E74FF0FF35304600F013
:100920004EF823683BB15969A1EB0A0121EAE17154
:100930008D4228BF0D46304600F043F8294604F1A9
:10094000300000F04EF8237A7BB1304600F037F8E3
:10095000237A3BB100233046237203B0BDE8F04F49
:1009600000F02FB8304600F02CF800F00DF80546E6
:100970004DE740F8101C704740F80C1C704740F8D9
:10098000081C704730F064BA07B530F0D0F870B189
:10099000084B684619682FF0ADFDDDE900014FF402
:1009A0007A72002337F020FB03B05DF804FB31F0CE
:1009B0001BF8F9E75032002000207047704730F0F4
:1009C000BDB830F0D1B8000008B5024930F0E6FFFC
:1009D000002008BD0C84030030F0E9BF012130F095
:1009E000E3BF08B5012341EAE172194630F0FAFF8E
:1009F000431E5842584108BD704703680BB1084672
:100A000018477047F0B5466832680446D7680B4609
:100A100007C987B0DB68049301AD002385E80700B0
:100A2000059321682A463046B84707B0F0BD00005C
:100A3000436807B52BB90649064800931A4630F0BB
:100A4000EDF91A68D269184603B05DF804EB104757
:100A50001384030043011880436807B52BB9064986
:100A6000064800931A4630F0D9F91A68526A1846B7
:100A700003B05DF804EB10471384030043011880B2
:100A800013B5044630F05AF8237F23B902B0BDE80D
:100A9000104030F069B80023237730F065F86368C0
:100AA0002BB90649064800931A4630F0B7F91A6880
:100AB0009268184602B0BDE8104010471384030046
:100AC0004301188037B503460C4600F1080507C9F5
:100AD00085E807000021E2689961197F5A6121B118
:100AE00018B1019301A92846904703B030BD13B552
:100AF000044630F023F8237F1BB130F035F802B004
:100B000010BD0123237730F02FF8A36804F108000B
:100B1000002BF4D06369019401A99847EFE7000026
:100B200038B50C4A01600023C0E903330446436032
:100B3000836183604261037749B9074D2B6813B91C
:100B400000F02AFF2860236855F8233063602046B0
:100B500038BD00BFFB090000740C002070B560B9FF
:100B6000104C26683EB9202030F0DCFC31460546AA
:100B7000FFF7D6FF2560206870BD0B4C2378BFF3CC
:100B80005B8FDB0701D50948F6E7204630F0E8FA2D
:100B90000028F8D001210548FFF7C2FF204630F0B9
:100BA00001FBF0E7500C00204C0C0020540C0020FE
:100BB000704708B50846FFF7D1FFBDE80840FFF7CA
:100BC00096BF82B00346684680E8060003C883E803
:100BD0000500002218461A7202B0704770B5057AF7
:100BE000C9B200239D4209D90468E21856788E42A2
:100BF00005D0E25C01321344DBB2F3E70022104679
:100C000070BD08B5FFF7EAFF10B100780130C0B23F
:100C100008BD73B5044602A800E90C00019AFE2A3B
:100C20001EDC207A656883180133AB421ADA236828
:100C3000D5B26E1C1E54237A20680133DBB22372B6
:100C4000C154237A206800990133DBB2237218441F
:100C500036F0FEFB237A1D442572002002B070BDE1
:100C60000420FBE70120F9E7F7B5064602A800E9F2
:100C700006001D46019C1B781A19FF2A22DC327AD5
:100C80007168101988421FDC3168691A521A591CA0
:100C9000521A05EB010705D0601C18443946284458
:100CA00036F070FC22460099384636F0D1FB2B789E
:100CB00053FA84F32B70337A53FA84F4347200209D
:100CC00003B0F0BD0420FBE70120F9E738B5044686
:100CD000084609780131CDB22A4650FA81F136F042
:100CE00051FC237A5B1B2372002038BD10B50446EB
:100CF000FFF774FF014620B12046BDE81040FFF722
:100D0000E5BF0D2010BDF7B5FE2B6D460E4685E8FC
:100D10000C00089F044619461DDC3A78013AD2B20D
:100D20009A4206D10099B81C36F092FB002003B01D
:100D3000F0BD037A9A1A43680A449A420DDC394698
:100D4000FFF7C4FF95E80C003146204603B0BDE82C
:100D5000F040FFF75EBF0420E9E70120E7E77FB539
:100D600002AC84E80C0005460E46FFF737FF40B1A1
:100D7000009094E80C0031462846FFF7C4FF04B009
:100D800070BD94E80C003146284604B0BDE87040C0
:100D9000FFF73FBF1FB501AB02930223039304ABE0
:100DA000ADF8041013E90C004FF01901FFF7D7FF5D
:100DB00005B05DF804FB0000002A08B5C0E9001288
:100DC00005DA0749074840F275222FF0B5FD29B929
:100DD00022B10349044840F27622F6E708BD00BF7D
:100DE00036840300508403005B8403007FB5012632
:100DF00002AD04468DF8071032460DF10701284672
:100E0000FFF7DAFF95E80C0031462046FFF7A7FF11
:100E100004B070BD7FB5054608461646019136F010
:100E20004FFF02AC024601992046FFF7C5FF94E848
:100E30000C0036B14FF009012846FFF790FF04B0CF
:100E400070BD4FF00801F7E72DE9F04F85B004467B
:100E50001E46684600239DF8387080E806000D465F
:100E6000904619461A46142043450BD000FB03FC5C
:100E700015F80CC0BCF1000F02D102320133F3E7C8
:100E80001031FBE7FE2957D8FE2A55D8002918BF94
:100E90004FF00209114408BF4FF00009002A18BFA3
:100EA0000222494401EB020920463146FFF7A9FE20
:100EB000394682462046FFF7A4FE227A63685044F2
:100EC0009B1A03444B4539D331462046FFF70EFFAA
:100ED00039462046FFF70AFF12354FF0000BC34595
:100EE0002ED015F8123C2946B3B9B24602220DF1B4
:100EF00008094846FFF760FF51462046FFF76EFE9F
:100F0000034670B199E806002046FFF7ADFE78B9B8
:100F10000BF1010B1435E2E7BA46A5F111011022DD
:100F2000E5E799E80C0051462046FFF772FEEEE730
:100F30000C2005B0BDE8F08F0420FAE70120F8E7A7
:100F40000020F6E71FB502AC002B84E8060014BFB2
:100F5000072306238DF8003094E8060014BF03230E
:100F60000223FFF771FF04B010BD0000002A08B58E
:100F7000C0E9001205DA0749074840F275222FF050
:100F8000DBFC29B922B10349044840F27622F6E796
:100F900008BD00BF36840300508403005B84030057
:100FA00013B54B680A7A9A42044605DD0849094898
:100FB00040F24B322FF0C0FC09686846FFF7D6FFBD
:100FC000009B2360019B6360204602B010BD00BF00
:100FD000368403007584030000220260828070471B
:100FE0000020704770470220704706F09DBB00004C
:100FF000094BD3F88800002100F020020B46134370
:1010000008D0064B18680B4600F02002134301D0AD
:1010100006F0CDB906F025BA383D0020E8000020E2
:10102000024A02600022C0E90421704700850300E3
:1010300010B50446406903689B68984723682046BA
:101040001B6ABDE810401847036810B504465B6A88
:10105000984760690368BDE81040DB6818470000E6
:1010600007B5019100F068FC0368DB6998470199B6
:1010700003F0FDFB20B10449044866222FF05CFC1C
:1010800003B05DF804FB00BF92840300E284030018
:1010900030B50B780E2B85B005460C461CD109796E
:1010A000E37803EB012399B242F20F03994204F172
:1010B00006025AD8B1F5005F10D840F66343994252
:1010C00000F0998030D840F60143994200F08B80BF
:1010D00040F6034399427FD005B030BDA1F50053DF
:1010E000013B0E2BF8D801A252F823F0EF110000BB
:1010F000031200002F120000D9100000FD110000A3
:10110000D9100000D9100000D9100000D91000003B
:10111000D9100000D9100000D9100000D91000002B
:10112000D91000002112000041F20103994246D07B
:1011300041F209039942CFD15D4811466C4611F046
:1011400099FA00230093A3802B6821465B69284607
:101150009847002852D094E803000290ADF80C1094
:10116000284602A9FFF77CFFB6E742F22403994222
:1011700000F086800FD842F21803994200F08E806A
:1011800042F21C039942A7D110685168494B03C32E
:1011900006F097F9A0E742F22F03994263D006D8F0
:1011A00042F22A03994297D1A279434B56E042F288
:1011B0003B0399420BD842F2390399428CD93E4BFA
:1011C000D3F8A030002B87D01046984784E742F22E
:1011D0004A039942F3D07FE7384B394800221A700E
:1011E00006F0B4FA78E7374806F0DCF974E73648D9
:1011F00006F0BFFA70E706F06EFA6DE706F03DF90B
:101200006AE7E179A2792C4B02EB0122A3F87E2058
:10121000227A83F8832083F8822006F046F95BE780
:10122000254BA27983F8842006F033F954E7E3795B
:10123000A27902EB0322204B1046D1175206C3E9D4
:1012400022010AD5214A1268002102F0400050EA2A
:10125000010202D006F005FB3EE7002283F8912050
:10126000FFF7C6FE38E7617A237AE279A07903EBCB
:10127000012100EB022089B280B206F061F82BE771
:101280000D4BD3F8A02012B106F031FA24E7A3F8F1
:101290009220A3F8942006F0E4F81DE7074A13789B
:1012A000022B02D801331370F5E711F017FB13E797
:1012B000A03D0020983D0020383D0020780C002003
:1012C000F48A0300048B0300FC8A0300E80000207A
:1012D000406910B404682469A4465DF8044B604773
:1012E000036910B504461BB10430984700232361FD
:1012F00010BD0000F8B5084F05460C465CB1FF2C48
:10130000264628BFFF2628463B68F1B2A41B984713
:10131000A4B23544F2E7F8BDE400002070477047FE
:101320000079831E584258417047000000487047BA
:10133000508703000368DB691847704703685B6BDD
:10134000184703680BB10846184770477047704745
:1013500070477047704770477047704770477047D5
:101360007047704770477047F0B50746406889B0CE
:101370000D46E8B1142010F0CFFF044620B9104903
:1013800010484E222FF0D8FA95E80F0084E80F009D
:101390006E4604AD86E80F0085E80F000023236148
:1013A000FB683BB9FC60D7E90101FFF702FC0120B3
:1013B00009B0F0BD1A461B69002BFBD11461F2E79E
:1013C0002885030070850300036A0BB114301847A9
:1013D000704703690BB104301847704710B50421FA
:1013E000044630F0B5F8204610BD10B5042104467F
:1013F00030F0AEF8204610BD01F0FEBB07B50191FC
:1014000001F0FAFB019900F0C0FE002003B05DF886
:1014100004FB13B50C4601F0EFFB0146684600F0F3
:10142000A7FE009B2360019B6360002002B010BDFB
:10143000034600789B78272B02D0282B03D07047D7
:10144000002109F0BBB909F0F9B900007FB51C4CC7
:101450002378BFF35B8FDA0705460ED420462FF0C2
:101460007FFE50B1174E184B336020462FF09AFE86
:10147000164A174930462FF064FE164C2378BFF306
:101480005B8FDB0718D420462FF06AFEA0B103F073
:101490001FF8039003F004FB039A0A4B009005F138
:1014A0000C010D4803F0F2FD20462FF07BFE074AA9
:1014B0000A4909482FF045FE074804B070BD00BF37
:1014C000C40C00200C0F00208C860300E0000020DC
:1014D0001F130000C80C0020100F0020354500002D
:1014E00038B50379022B04461ED1002303710F4B3C
:1014F0001868FFF7A9FD236820465B6A984701F04A
:1015000033FC23682046DB6A984701F0F3FE23682A
:101510002046DB69984704F027F9A06928B10569DE
:1015200010F01CFFA561F8E7092038BDCC0C0020A5
:1015300038B5064B03600446406828B1056914219C
:1015400030F006F82846F8E7204638BD6C860300E0
:1015500010B50446FFF7ECFF20460C212FF0F8FFF2
:10156000204610BD38B5064B03600446406828B1DC
:10157000056914212FF0ECFF2846F8E7204638BD16
:101580005C86030010B50446FFF7ECFF20460C21F3
:101590002FF0DEFF204610BD38B5064B0360044631
:1015A000406828B1056914212FF0D2FF2846F8E7DA
:1015B000204638BD7C86030010B50446FFF7ECFFDB
:1015C00020460C212FF0C4FF204610BD38B5064B35
:1015D00003600446406828B1056914212FF0B8FF64
:1015E0002846F8E7204638BD0487030010B50446B6
:1015F0002830FFF7EBFF04F11C00FFF7CDFF04F1EB
:101600001000FFF7AFFF201DFFF792FF204610BD2F
:1016100010B50446FFF7DAFF20460C212FF098FFA3
:10162000204610BD38B5064B03600446406828B11B
:10163000056914212FF08CFF2846F8E7204638BDB5
:10164000A486030010B50446006A10B103685B6805
:1016500098472046FFF7E6FF204610BD10B5044628
:10166000FFF7E0FF20460C212FF072FF204610BD4F
:1016700070B4D0E901340568661005EB6400E40736
:1016800044BFAC59E35870BC184730B4D0E90132BC
:101690000468551004EB6200D20748BF625930BCA1
:1016A00048BFD3581847000010B5054B03600446E7
:1016B000FEF7C4FD2046FEF70DFF204610BD00BF1B
:1016C000D883030010B5054B03600446FEF7B6FD52
:1016D0002046FEF7FFFE204610BD00BFD883030062
:1016E00038B50A4B044640F8203BFEF745FE084B50
:1016F000E360A06920B1056910F030FEA561F8E74C
:101700002046FFF755FA204638BD00BF1487030076
:10171000F886030010B50446FFF7E2FF204640219B
:101720002FF016FF204610BD37B50D460446019236
:101730002DF0F2F8019B2A46214603B0BDE8304067
:10174000FFF7C6BD10B52DF0E7F80368BDE81040FF
:10175000DB68184707B501902DF0DEF803680199A2
:101760001B6903B05DF804EB1847000070B54E4BE1
:10177000196888B029B94D494D4840F285122FF0BB
:10178000DBF80B684B4E9B684B4D04A89847049BB5
:10179000059C06999DF81C0033602C6010F050FDEC
:1017A00083B223B94149454840F29312E7E73368D1
:1017B00082B213FA80F02B6830609B1A94422B603F
:1017C00006D900233E493F480093A21A2FF01EFB82
:1017D00010F0F6FE07F0E6FF07F0F6FF07F04EFE0A
:1017E00007F02CFF07F07CFF374811F0D1F80DF01F
:1017F000D5FE364811F0CCF803900BF0CFFF0DF07A
:1018000061FB0CF0F1FA0CF0BFFC0CF0C7FD0DF021
:1018100047FC0CF077FF0DF0A9FC0DF0BFF8039822
:101820000CF0EEFE2A4811F0B3F80EF0BBF80DF004
:101830003BFF0EF05DF80DF093FF264811F0A8F87D
:1018400008F0E4F809F022FC09F080FA224809F0D7
:1018500057FC0AF01BFD08F0D7FB08F023FF1F48D8
:1018600011F096F80EF080FF10F0D6FC10F0CAFCD4
:1018700010F032F910F026F9194811F089F8194BD7
:101880001870462005F0AEFB17480CF087FE16498D
:1018900003200CF0CDFA154808F010F9144808B0F0
:1018A000BDE8704008F0F0B8CC0C00208285030041
:1018B000CC850300A80C0020A40C0020E0850300C8
:1018C000F085030005011880B1F5000019E600005D
:1018D000B5F90000519A0000B31E0000CD070100C9
:1018E0009D19000028100020411A0000311400004A
:1018F0000568000038B50D4A0D4B0360002304460F
:10190000C0E90323C0E905330371836020300D462D
:10191000FEF7ACFD00220023C4E90E23054B204650
:101920001D60FFF723FF204638BD00BFF886030087
:1019300014870300CC0C002010B50D4C2378BFF3A6
:101940005B8FDB0711D420462FF00AFC68B12CF026
:10195000E3FF01460748FFF7CDFF20462FF022FCAA
:10196000054A064903482FF0ECFB024810BD00BFB2
:10197000B80C0020C00D0020E0000020E11600009F
:1019800008B5FFF7D9FFBDE808400021FFF711B9FE
:1019900008B5FFF7F5FF08BDFFF7CEBF37B50C461A
:1019A00091B303F07DF8204604F0B0F8054658BB2B
:1019B000A378202B05D07A2B28D0204604F010FDE8
:1019C00022E0CDE90000FFF7C9F8009006F096FA92
:1019D0002B4600F48052134307D00BF06FFD0DF03F
:1019E00087F90CF083FB0CF097FCFFF7A5FF036869
:1019F0005B6A984700F026FDFFF79EFF0223037104
:101A00000D486946C368984703B030BDE378002BA2
:101A1000D3D1228842F21F039A42CED1A3796279B0
:101A2000217902EB0322054BB1FA81F1186892B2D9
:101A30004909FFF755FCE7E7D00C0020CC0C00204B
:101A400010B54388412B04460AD102F041FD0068DD
:101A500070B16389E2882188BDE8104002F045BE7C
:101A6000FFF76AFF21460020BDE81040FFF796BF50
:101A700010BD000008B5044B1868FFF7D9FABDE89F
:101A800008400CF021BD00BFCC0C0020F7B5047954
:101A9000012C05460F46164619D0022C19D0D4B990
:101AA00020300190FEF7BFFC0198FEF76FFC96E82E
:101AB00007000A4BC5E9045783E80700F268284687
:101AC000C3E90324FFF7D6FF204603B0F0BD092485
:101AD000FAE70024F8E70B24F6E700BFD00C00205B
:101AE00070B504468CB0A06970B1D0E903352BB94C
:101AF0003D493E484FF4FD722EF01EFF9847A06905
:101B000010F02CFCA561EEE704F12005294604A89D
:101B1000FEF76FFCD4E90E3204995B18059941EB8E
:101B20000202C4E90E322846FEF77DFCD4E90E011C
:101B30004FF47A72002336F0A7FA05460E4670B1CC
:101B400010F064FD4FF47A73A5FB030103FB06114B
:101B5000D4E90E321B1A62EB0102C4E90E32244CA6
:101B600010F02CFF2378BFF35B8FDB070ED42046E9
:101B70002FF0F6FA50B11F48FEF7EEFB20462FF08B
:101B800011FB1D4A1D491B482FF0DBFA07A82EF058
:101B90005BFC10F009FFC8B10DF11F0010F0FCFC58
:101BA0009DF81F30BBB10021CDE909114FF47A71C6
:101BB000A0FB0101CDE90201114A124B08930092EA
:101BC00008AB0B920B480ECBFEF761FB07A82EF07B
:101BD00043FC0CB070BD2EF047FC0B4B186803683B
:101BE0009B699847F2E700BF98830300B683030020
:101BF000B40C0020800D0020E0000020A916000099
:101C00009101000091190000CC0C002030B51C4D52
:101C10002B78BFF35B8FDB078BB004460ED42846CE
:101C20002FF09EFA50B11748FEF786FB28462FF09A
:101C3000B9FA154A154913482FF083FA2046FFF7E1
:101C40004FFF10F0B1FEC8B10DF1170010F0A4FC69
:101C50009DF8173093B10021CDE907114FF47A7147
:101C6000A0FB0101CDE90201094A0A4B069300924B
:101C700006AB099203480ECBFEF709FB0BB030BD53
:101C8000AC0C0020E80C0020E0000020C51600008D
:101C90009101000091190000FFF722BF10B510223A
:101CA0000446002135F0DAFC204610BD70B504462C
:101CB0002F480578BFF35B8F15F0010555D12FF044
:101CC0004FFA002851D002F0EBFE23680646DB698C
:101CD00020469847274C284B284A6661C4E90035BE
:101CE0002346103043F8102FE360254BA061C4E970
:101CF000073504F12400FFF76FF904F12A00FFF71C
:101D00006BF904F13000FFF7C9FF04F14000FFF761
:101D1000C5FF04F15000FFF7C1FF04F16000FFF7B9
:101D20005BF904F16600FFF7B9FF0F2384F8773001
:101D30004FF4807384F87650A4F8783084F87A50A1
:101D400004F17C067019143502F004F8642DF9D101
:101D5000636907481C60012384F850302FF022FA91
:101D6000084A094903482FF0ECF9024870BD00BF4A
:101D7000C00C0020280E0020A4860300B4860300B7
:101D8000080F0020E00000204516000010B5094CA7
:101D9000094B0022C0E9082102600261C1E9014249
:101DA000064C0860C1E90532054BCB61C1E903402F
:101DB00010BD00BFD3130000C9130000711600004E
:101DC0008B16000070B517480378BFF35B8FDB07F5
:101DD00025D42FF0C5F910B3134E3478BFF35B8FC1
:101DE00014F001040FD130462FF0BAF958B10F4D5D
:101DF0003046C5E90744EC602FF0D4F90C4A0D4990
:101E000028462FF09EF909490B48FFF7BFFF054808
:101E10002FF0C8F9064A094907482FF092F90648F9
:101E200070BD00BFBC0C00207C0C0020800C00208A
:101E3000E00000201D130000000E00203B130000F6
:101E400038B50E4C2378BFF35B8FDB07054612D401
:101E500020462FF085F970B12846FFF7B3FF014601
:101E6000074801F063FA20462FF09CF9054A06491D
:101E700003482FF066F9024838BD00BFB00C0020BF
:101E8000280D0020E0000020ED150000044B00228A
:101E9000C3E901221A611A60024ADA60704700BF82
:101EA000D00C00204313000003680BB1084618470C
:101EB00070471FB50190FFF73FFD03681B6B984704
:101EC000002301998DF80C3003AA01F08BFF38B97B
:101ED0009DF80C30042B18BF052005B05DF804FBFD
:101EE0000520FAE738B5064B03600446406828B180
:101EF000056914212FF02CFB2846F8E7204638BD51
:101F00006887030010B50446FFF7ECFF20460C215C
:101F10002FF01EFB204610BD38B5064B036004466B
:101F2000406828B1056914212FF012FB2846F8E714
:101F3000204638BD7887030010B50446FFF7ECFF54
:101F400020460C212FF004FB204610BD10B504469E
:101F50002C30FFF7E1FF04F12000FFF7E9FA04F16C
:101F60001400FFF7FFFA04F10800FFF7BBFF20465B
:101F700010BD0346002210B503F8012B00F1110437
:101F800003F8012B9C42FBD1418210BD08B50378B8
:101F90003BB90A789AB9408A4B8AC31A58425841C9
:101FA00008BD012B0BD10B78012B08D11022013178
:101FB000013035F01DFAB0FA80F04009F0E700205A
:101FC000EEE70000C06A044B002818BF184600382E
:101FD00018BF0120704700BFF9090000006C044BD6
:101FE000002818BF1846003818BF0120704700BFEE
:101FF000F90900002DE9F043074687B000260124C7
:102000003B7DB34233DDF2B202349A42A4B22AD20B
:10201000BB6953F8268098F828301C4498F8203083
:1020200013F0300FA4B206D0002598F82830AB4248
:1020300003D80134A4B20136E2E7EAB2934286BF84
:10204000D8F8243053F825904FF0000942F60211D9
:1020500001A8FFF78EFF01A94846FFF797FF002868
:10206000E9D10135E1E7002393F82830FFDE20466F
:1020700007B0BDE8F08338B54B6991F820500C46A5
:1020800073B90B8B63B9022D03D10846FFF79AFF92
:1020900090B115F04C0F03D02046FFF79FFF58B1C9
:1020A000402D0AD1E07FC0F30110033000F003009F
:1020B00001288CBF0020012038BD0120FCE7000072
:1020C000F0B590F84031132B4BD8274DB0F8A03223
:1020D00091F820602C46013314F8127BA0F8A0324E
:1020E00001351368002F18BF2C461C6090F8404142
:1020F000783400EB44045C6003F10C049C601B4CDE
:10210000DC6090F84031B0F8A052062404FB0304D0
:10211000A4F8785016F0100518BF0125A4F87A50DD
:10212000B40608D5062404FB0304B4F87A5045F03D
:102130000205A4F87A5091F85450062404FB0304D5
:10214000C5F3010584F87C508C8B03F18C010133BD
:1021500020F8114080F840311368103313600020DC
:10216000F0BD0720FCE700BF301000200200201166
:10217000B1F831220280B1F833224280B1F8352221
:102180008280B1F83722C28070470B88A0F83132C4
:102190004B88A0F833328B88A0F83532CB88A0F872
:1021A00037327047B0F8A0220346F3B40021C0F8DC
:1021B0009811501CA3F8A8014748C3F8A00147484C
:1021C000C3F8A40103F5D670C3F89C014448C3F8D2
:1021D000AC014448444DC3F8B00103F5DC70C3F8CA
:1021E000B401571DD01CA3F81D02A3F8257228883E
:1021F0003E4FA3F81F0203F50770B7F800C0C3F8FD
:10220000C001C3F8CC5103F5E47003F22225C3E901
:102210007415C3F8C401A3F827C23548354D364CB0
:10222000364EC3F8D85103F5097C0225C3F8E0C146
:1022300003F5F47CC3E979C0C3F8B861C3F8BC41C5
:10224000C3F8C801A3F82212C3F8DC41A3F82A128C
:1022500083F8245203F5FC71C3F8EC71C3F8F861FC
:10226000274EC3F8F41103F22A21C3F8F011318884
:10227000A3F82F1203F50B71C3F8001203F50271D6
:10228000C3E981101F49C3F8FC410868496883F815
:102290002C526C4603C46C4603CC03F23127C3F8BE
:1022A000351203F50671C3E9847107321649C3F884
:1022B000310292B203F5CC70A3F8A022A3F82D222C
:1022C000C3F80C62C3F8181283F81C52A3F8AA21B1
:1022D00002B0F0BC08F01ABF9B2E00008D2D00004C
:1022E000EC8C0300E48C0300E28C0300DC8C030024
:1022F00005000001F8000801DE8C03000200000167
:10230000EA8C03008087030008000001B0F8A012E7
:10231000394A4B1C70B5A0F84C32384BC0F84432E7
:10232000374BC0F8483200F51473C0F84032354BD3
:10233000C0F85032344BC0F8543200F51773C0F86F
:102340005832324BC0F85C32CB1C044600259BB29D
:10235000C0F83C52A0F8A032A0F891321088A4F83E
:1023600093022B48C4F8600204F52470C4F8640298
:1023700004F51B70C4F868022648C4F87C52C4E90E
:102380009B0204F51F72C4E99D52234AC4F88022BF
:1023900094F8402102F1780004EB4000C4F8840274
:1023A00004F52370C4F888021C48C4F88C0220206D
:1023B00084F89002062000FB02400226A0F8783044
:1023C000A0F87A6080F87C5002F18C003144013230
:1023D00024F8101084F8402104F50F70A4F84E3250
:1023E00008F094FE94F840010D4A04F17801BDE82C
:1023F000704008F0D3B900BFEE8C03009B2E0000A4
:102400008D2D0000EC8C0300E88C0300020000011D
:10241000DE8C030005000001E08C030002002011A7
:102420009B2F000090F8A23210B504464BB901234F
:1024300080F8A232FFF7B6FE2046BDE81040FFF755
:1024400065BF10BD10B50446034808F059FE20468C
:10245000BDE81040FFF7E6BFB31E000010B504460C
:1024600001F1080034F0A6FC28B1D4F89C320360D6
:10247000C4F89C02043010BD70B51546B0F8A02217
:102480002E68124B0132A0F8A02233600B78012B8A
:102490000C460CBF10210221B181FFF7DFFF2B6832
:1024A00022787060586872B904F112019A8934F088
:1024B000CFFF2B6803F10C029A604FF48072DA812F
:1024C00010332B6070BD611CF0E700BFEC8C030083
:1024D000F8B5B0F8A032176802339BB2A0F8A0326A
:1024E0008B83164B3B600B78002B3B460C4614BF8E
:1024F0001321052123F80C1FBB6015460646FFF784
:10250000ADFF2B6878604FF48072DA81586894F8D8
:1025100020200270B6F8A022A0F801202378033012
:1025200043B904F11201022234F092FF2B681033F8
:102530002B60F8BD611C1022F6E700BFDE8C0300A3
:102540002DE9F0431E46B0F8A03291F82070D6F87D
:10255000009001339BB2A0F8A0329383137887B028
:10256000054688461446002B40F0A68002F112036F
:10257000218BC9F80030A9F80C1028460231FFF76A
:102580006DFF3368C9F808009868628B20F8022B49
:102590005860616934F05CFF33689A6810889A89E2
:1025A0005B68121A0021184435F058F8326800238D
:1025B00093732178012908BF0B46937342F60211E9
:1025C00001A8FFF7D6FC01A92046FFF7DFFC80B386
:1025D00095F84031132B7BD8E37FD8077AD513F0D9
:1025E000060F77D10E9B326801211970937B43F05F
:1025F0002003937395F84031B5F8A002062202FB40
:102600000352A2F8780017F0100008BF0146A2F8A4
:102610007A100846B90644BF40F00201A2F87A10C9
:1026200003F18C02B8F81C1025F81210013385F85C
:102630004031A37F31681BB18B7B43F008038B7360
:102640000023CB73E37FDA0714D50123CB73E37F39
:10265000C3F34103022B31D0032B31D0012B01D125
:102660000923CB73BB0705D58B7B9D065CBF43F06D
:1026700004038B73E37F180718D5CA7B42F010035D
:10268000CB73E37FC3F30113022B1BD0032B1CD0AE
:10269000012B02D162F06F02CA7317F04C0F05D004
:1026A0008B7B9A065CBF43F002038B731031316061
:1026B000002007B0BDE8F083531C59E70B23D0E797
:1026C0000F23CEE762F04F02E6E762F00F02E3E786
:1026D0000720EEE70420ECE72DE9F0410B7891F8B4
:1026E0002070D2F8008006460C461546002B73D1A8
:1026F00001F11203218BC8F80030A8F80C10304605
:102700000231FFF7ABFE2B68C8F808009868628BAF
:1027100020F8022B5860616934F09AFE2B689A68A1
:1027200010889A895B680021121A184434F096FFC9
:102730002B6817F002021ABF042199739A7317F0DD
:102740004C001EBF997B41F0020199732178012949
:1027500002BF997B41F001019973A17F19B1997B67
:1027600041F008019973790642BF997B41F040011D
:1027700099739ABBDA7378B1D97B41F01002DA739E
:10278000E27FC2F30112022A39D0032A3AD0012A89
:1027900002D161F06F01D973DB7B07F0300703F0E2
:1027A00044033B4307D12046FFF70CFC18B92046F1
:1027B000FFF714FC50B196F89431132B25D806EB93
:1027C00083020133C2F8444186F894312B681033F8
:1027D0002B600020BDE8F0814B1C8BE70122DA73EF
:1027E000E27FC2F34102022A05D0032A05D0012A62
:1027F000C1D10922BEE70B22BCE70F22BAE761F084
:102800004F01C8E761F00F01C5E70720E2E72DE9B6
:10281000FF4706460D461746FFF72DFC00283BD024
:102820003A462946304695F82090FFF751FE3A4641
:1028300029463046FFF750FF044638BB8DF80F009D
:1028400080460DF10F0A95F82830434512D95FFAFA
:1028500088F293428ABF6B6A002253F82820CDF891
:1028600000A03B4629463046FFF76AFE68B908F1EA
:102870000108E8E719F030090CD09DF80F302BB9AA
:102880003A4629463046FFF71BFC0446204604B072
:10289000BDE8F0874C46F9E70424F7E72DE9F3415A
:1028A0000F460546FFF7BEFD18202EF03BFE284BD5
:1028B00083600026274BC360044606603846FFF756
:1028C00099FB01012846FFF7C9FD606048B918214E
:1028D00020462EF03DFE4FF00108404602B0BDE814
:1028E000F081019001AA39462846FFF7C5FDB5F8E9
:1028F000A0322382BB833B7DB34213DDF2B29A4206
:1029000036BFBB69002153F8261001AA2846FFF7FD
:102910007EFF804620B1182120462EF019FEDCE70C
:102920000136E8E7B5F8A03263822046D5F8983240
:10293000C5F89842636108F0E9FB074A95F8400141
:1029400005F1780107F02AFF4FF00008C5E700BF46
:102950009B2E00008D2D00009B2F0000FFF79EBFD7
:1029600030B590F8944100F5A2730022944206D944
:1029700053F8040B858B8D4202D00132F6E700201C
:1029800030BD002330B513700624137890F8405101
:102990009D4208D904FB0305B5F878508D4204D058
:1029A00001331370F1E7002030BD0120FCE710B5C2
:1029B00000231370137890F840419C4207D903F12B
:1029C0008C0430F814408C4203D00133F1E700202E
:1029D00010BD0120FCE773B50E461146FFF7C0FF9E
:1029E00018B390F8545015F003051ED0FEF7A4FF5D
:1029F00003681B6B9847002401AA31468DF80440F8
:102A000001F0F0F998B9022D9DF8040007D0032DCC
:102A100007D0012894BF0020012002B070BD022819
:102A2000F8E7031F58425841F7E70120F5E7204631
:102A3000F3E72DE9F34715460DF107029DF82870DD
:102A400080460C461E46FFF79CFFB0B1022E4DD1CA
:102A50002D88032420460BF043FA012805D19DF868
:102A600007102A46204607F001FF013C14F0FF043E
:102A7000F0D1002002B0BDE8F0872A46314620465A
:102A800008F082FBA0BB002FF3D10DF10702214615
:102A90004046FFF78CFF0028EBD003275FFA87F949
:102AA00048460BF01DFA01281DD122463946404602
:102AB000FFF791FFB8B19DF80710484607F0E0FE18
:102AC00010F0010F824605D02B463246214648467B
:102AD00008F06FF91AF0020F05D02B463246214656
:102AE000484608F059F9013FD8D1C2E70420C1E7B0
:102AF0000320BFE710B49DF8044001945DF8044B37
:102B0000FFF797BF0022C0E901220261014A01607C
:102B1000C2607047A91E000038B5104B0025C0E9FF
:102B200002350F4B0560C0E905350E4B8580C0E9C5
:102B300008350D4B0446C0E90B3529463830FFF700
:102B4000E1FF294604F14C00FFF7DCFF294604F1C0
:102B50006000FFF7D7FF204638BD00BF688703003D
:102B60005C8603006C8603007887030038B5044652
:102B7000FFF7D2FF0022626704F17E0304F1F60141
:102B800023F8062C23F8042C03F8022C06338B427E
:102B9000F6D104F1F00204F58C73002122F8021B37
:102BA0009342FBD104F5A072002123F8021B9A4244
:102BB000FBD14FF0000384F8403104F5CA7204F5EC
:102BC000A273002543F8045B9A42FBD184F8945128
:102BD000A422002104F5CC7034F040FD5C220021D9
:102BE00004F50F7034F03AFDC4E9A655A4F8A052DC
:102BF00084F8A252204638BD10B50B4C2378BFF3A1
:102C00005B8FDB070ED420462EF0AAFA50B107489E
:102C1000FFF7ACFF20462EF0C5FA054A05490348E8
:102C20002EF08FFA014810BD2C1000204410002017
:102C3000E00000204D1F000010B503460C4607C9F8
:102C400083E80700E268DA6000221A61184610BDC6
:102C500070B5044686B0236B6363606B38B1C3689C
:102C600021469847636B002BF5D01B69F4E7206B76
:102C700028B1056914212EF06BFC2846F8E7206383
:102C8000A080E06828B1056914212EF061FC284677
:102C9000F8E7E060A06928B1056914212EF058FC1E
:102CA0002846F8E7656AA06135B12E6928461421E7
:102CB0002EF04EFC3546F7E72946656201A8FFF77E
:102CC00021FF01A904F13800FFF7B6FF294601A84A
:102CD000FFF718FF01A904F14C00FFF7ADFF2946EB
:102CE00001A8FFF70FFF01A904F16000FFF7A4FF9F
:102CF000284606B070BD000038B50446FFF7A8FFAF
:102D0000D4F8985255B16B69288AC4F8983208F003
:102D10001DFA182128462EF01BFCF1E7D4F89C522E
:102D200035B12B68C4F89C32284634F04BF8F5E7EF
:102D3000B4F8A80108F00AFAB4F84C0208F006FA50
:102D4000D4F8D00134F03EF82846064AA4F8A05240
:102D500084F8405184F8945104F1780107F01EFD85
:102D6000284638BD9B2F0000FFF7C6BF38B5044684
:102D70000D466368A360A06838B1C36829469847C8
:102D8000A368002BF5D01B69F4E738BD2DE9F04F9F
:102D900087B00E46BDF840A0DDF8449007461446C3
:102DA00051464A463046984608F0EEF9054688BB3B
:102DB000182C48D032D8122C47D0162C14BF00241F
:102DC0000424FFF719FF3146FFF7CAFD83460028A8
:102DD00041D0FFF703F900283DD000235846039364
:102DE00005930197ADF80860ADF80A80ADF80CA026
:102DF000CDF81090FFF7F2F868B30023ADF8143067
:102E000001A9DBF84C300BF140009847BDF81430B5
:102E10000BB3DDB2284607B0BDE8F08F522C16D0B8
:102E2000D22C16D1FFF7E8FE436F53B1FFF7E4FE53
:102E3000446F384609F052FA39460246204600F0FF
:102E400029FD0324BDE70624BBE70124B9E70224DA
:102E5000B7E70446B5E70197ADF808608DF80A407A
:102E6000ADF80C80ADF80EA0CDF81090FFF7C4FEC1
:102E700001A91430FFF77AFFCCE738B504460D46B8
:102E80006368A360A06838B1C36829469847A368FF
:102E9000002BF5D01B69F4E738BD2DE9F04387B06E
:102EA0000D461F460E9E8046FFF7A6FE2946FFF7F9
:102EB00057FD044630B3FFF785F818B34FF000090B
:102EC0002046CDE90399CDF81490CDF80480ADF8F3
:102ED0000850ADF80A70FFF775F868B104F12C00DE
:102EE000A36BADF8149001A99847BDF8140018B170
:102EF000C0B207B0BDE8F083049B7360B368BDF84F
:102F00000C201A800024CDE90344B3680594ADF881
:102F10000850ADF80A701B88ADF80C307368049344
:102F2000CDF80480FFF768FE01A92030FFF7A5FF68
:102F30002046DEE7C368184738B504460D46636887
:102F4000A360A06838B1C36829469847A368002BDE
:102F5000F5D01B69F4E738BD08B5034608461146AD
:102F6000421E042A0AD8DFE802F01209030A0E0002
:102F700003F138009B6B0BB1FFF7DCFF08BD03F1D9
:102F80004C00DB6CF7E703F160001B6EF3E70121F7
:102F900003F10800FFF7D0FFF0E713B5C38804463C
:102FA00013F0030F14BF032104210191FFF724FE46
:102FB000A2880199FFF7D0FF02B010BD10B5438879
:102FC000162B04460AD1FFF717FE006870B103689C
:102FD000E28921881B68BDE810401847122B05D1F3
:102FE000FFF70AFE01210830FFF7A6FF10BD000021
:102FF00008B542F602110248FEF7BBFF08BD00BF4C
:103000003010002000207047704770470120704743
:1030100070B501F10804064605460FCC0FC52368BC
:103020002B60304670BD70477047704770477047DF
:1030300070477047704770477047704770477047D8
:1030400003680BB108461847704710B51C210446A9
:103050002EF07EFA204610BD10B5202104462EF039
:1030600077FA204610BD37B50446057A0CF02EF8E5
:103070000022CDE90022034604F10F0204F1090108
:1030800028460BF09DFC03B030BD70B5421E0023F6
:103090004D1E9D420CD912F8016F741EE4B2FD2C36
:1030A00018D91BB112F8014CB44213D10133F0E727
:1030B000435D03F03F033F2B06D1014411F8020C9E
:1030C000FF3818BF012070BD23B9084410F8020C66
:1030D0000038F6E70120F6E7437903F0C003C02B80
:1030E00002D10621FFF7D1BF00207047437903F0DA
:1030F000C003402B03D103210844FFF7C6BF0020C3
:103100007047037819B143F004030370704703F06C
:10311000FB03FAE770B4D0E901340568661005EBEB
:103120006400E40744BFAC59E35870BC184730B49E
:10313000D0E901320468551004EB6200D20748BFA1
:10314000625930BC48BFD358184770B4D0E9013435
:103150000568661005EB6400E40744BFAC59E3580A
:1031600070BC184770B4D0E901340568661005EBEF
:103170006400E40744BFAC59E35870BC184770B40E
:10318000D0E901340568661005EB6400E40744BF2C
:10319000AC59E35870BC184730B4D0E90132046828
:1031A000551004EB6200D20748BF625930BC48BFDB
:1031B000D358184710B4D0E901320168541001EB1C
:1031C0006200D20748BF0A595DF8044B48BFD35884
:1031D0001847000038B5064B03600446406828B124
:1031E000056914212EF0B4F92846F8E7204638BDC9
:1031F000088A030010B50446FFF7ECFF20460C21B7
:103200002EF0A6F9204610BD0022026082800A68D6
:1032100002608A8882807047006810B103681B686A
:1032200018477047006D20B183688B4201D0C06899
:10323000F9E7704710B50446FFF7F4FF28B10368BB
:103240002146DB68BDE81040184710BD13B50446A1
:103250000192FFF7E7FF38B10368019A9B682146A6
:1032600002B0BDE81040184702B010BD38B50446A2
:10327000E36A2363206B38B1C36821469847236B08
:10328000002BF5D01B69F4E7E06A28B10569142129
:103290002EF05EF92846F8E7E062A06828B10569DB
:1032A00014212EF055F92846F8E7A060606928B18E
:1032B000056914212EF04CF92846F8E76061206A70
:1032C00028B1056914212EF043F92846F8E7206259
:1032D00038BD10B50446FFF7C9FF012384F8543008
:1032E000206D20B1036821461B699847F8E784F8F0
:1032F000540010BD08B5FFF7ECFF08BD07490022D8
:10330000C0E9011206490260C0E904120549C0E99A
:1033100007120549C0E90A12704700BF6C86030016
:103320005C8603007C8603000487030038B50446EE
:103330000D46FFF7E3FF0E4A62640E4A6563002301
:10334000C4E90F33A364A363C5E902230A4A84F8DE
:103350005430C4E91333C5E90424084A6C60C5E954
:103360000623074B2B62636B20461C6038BD00BFF1
:1033700041300000EB330000153100003532000011
:103380002F31000038B5036A04460D465BB1636215
:10339000606A40B1C36829469847636A0BB9236ADB
:1033A000F5E71B69F3E738BD1FB50023CDE901330D
:1033B000137800911B2B04D01D2B11D005B05DF8A4
:1033C00004FB5388ADF8043001238DF80630936870
:1033D000ADF80830694653680393FFF7D3FFEDE774
:1033E0005388ADF804300223EFE708B51378013BAA
:1033F0001C2B12D8DFE803F00F110F110F110F1162
:103400000F110F110F110F110F110F1111110F11BA
:103410000F1112111200FFF719FF08BDFFF7C4FFCB
:10342000FBE70000014B93F891007047383D002006
:1034300007B5084611461A469DF814300093D2B2DB
:103440009DF81030C0B20BF0AFFE002003B05DF865
:1034500004FB07B5084611461A469DF81430009340
:10346000D2B29DF81030C0B20BF0E2FE002003B0E3
:103470005DF804FB08B50846C0B2D1B20BF0E6FD1A
:10348000002008BD08B50846C0B2D1B20BF0EFFE6F
:10349000002008BDF0B589B001AD144602F1100C52
:1034A0000F462A46206861682E4603C608346445E4
:1034B0003546F7D1596818680E9B05AC1B8803C4C4
:1034C000ADF81C309DF83C30002BF8B214BF02213F
:1034D00001210BF089FE002009B0F0BDF0B589B0E4
:1034E000002301ACCDE90533ADF81C3002F1100723
:1034F00013460E46224618685968254603C5083308
:10350000BB422C46F7D1F0B203210BF06DFE002038
:1035100009B0F0BD08B508469DF8081059B9002B50
:1035200014BF022101211346C0B20A4601210BF04B
:10353000AFFE002008BD0321F5E708B508460023CB
:103540001A461946C0B20BF0A3FE002008BD0000C9
:10355000F7B514461A464B1E022B0E462CD800EB2C
:1035600081077D6D9DB104F1100354F8041B45F8EB
:10357000041B9C42F9D1F0B2796D019008F09CFED9
:103580000198089908F0A2FE002003B0F0BD0B4995
:10359000019210202DF0DAFF019A40B1034604F1A8
:1035A000100154F8045B43F8045B8C42F9D1786550
:1035B0000028E0D10720E8E70420E6E7A8B70300E9
:1035C00038B54B1E022B0D460FD800EB8104606D01
:1035D00020B110212DF0BCFF002363650022E8B26A
:1035E000114608F069FE002038BD0420FCE708B54C
:1035F0000846082106F0F4F8002008BD08B5084682
:10360000C0B210210BF032FD002008BD38B50446D1
:10361000206B28B1D0E900355B6898472563F7E750
:1036200038BD10B50446FFF7F1FF204610BD90F8F5
:10363000343070B5044603B119B1256B15B984F85F
:10364000345070BD012384F83430D5E90036284663
:103650009B6898472B6828465B6898472663F0E785
:1036600008B5036B23B901630021FFF7E0FF08BD34
:103670001A465B68002BFBD15160F5E710B50024BA
:1036800044600172094C11689288C0F80910A0F8D2
:103690000D20046000F10F0203F1100153F8044BF8
:1036A00042F8044B8B42F9D110BD00BF188A0300C9
:1036B00073B505460E4620200849CDE900322DF0AD
:1036C00045FF044640B13146DDE90032FFF7D6FF41
:1036D00021462846FFF7C4FF02B070BDA8B703001B
:1036E00037B50446CDE900320D46FFF79BFE40B1E9
:1036F0002046DDE900322946FFF7DAFF002003B05B
:1037000030BD0220FBE708B513463AB1917D406910
:10371000C943063301F00101FFF7E2FF08BD08B518
:10372000036A2BB140694FF00802FFF7A3FE08BD02
:103730000920FCE770B50546C068134602680C46D0
:10374000566B0A4605F12401B04750352246103425
:10375000106851682B4603C30832A2421D46F7D1B8
:1037600070BDF0B50023142707FB03F2841894F80A
:103770008B603546F60707D47C3245F001031044D0
:1037800084F88B30E167F0BD0133052BECD10020CC
:10379000F9E770B50022142400F17C0504FB02F364
:1037A000C61896F88B60F60705D5EE588E4202D102
:1037B0007C33184470BD0132052AEFD10020F9E7AF
:1037C00010B51446FFF7E5FF40B1037C64F34103F5
:1037D00003741CB9DBB264F34513037410BD70B5F8
:1037E000054600220C46FFF7EBFFE8680368214618
:1037F000DB68BDE87040012218470000F7B50646B7
:10380000144601220D46FFF7DBFFF0680B4A036800
:103810000A27DE690523B4FBF2F101F1300C0DF843
:1038200003C0013B02FB1144591C92FBF7F2F2D199
:103830006A462946B04703B0F0BD00BFA08601002C
:1038400070B50646154601220C46FFF7B9FFF06831
:1038500003682A4621469B6ABDE87040184770B548
:10386000054601220C46FFF7ABFFE86803682146D6
:103870005B6ABDE87040184770B5054601220C46EA
:10388000FFF79EFFE868036821461B6ABDE87040A9
:1038900018470000036A13B504462BB90B490C48BE
:1038A00040F275522DF048F80192FFF772FF03467F
:1038B00048B1206A019A01684C6C5968234602B0ED
:1038C000BDE81040184702B010BD00BF8887030054
:1038D000D1870300036A70B5054616462BB9104917
:1038E000104840F27B622DF027F8FFF752FF0446A4
:1038F000A0B1286A616803689B68984770B1237C0F
:10390000C279C3F3400363F38612C271286A616807
:10391000036832469B6ABDE87040184770BD00BF1F
:1039200088870300D187030037B5056A04462DB99F
:103930000C490D4840F291622CF0FEFFCDE90023C6
:10394000FFF727FF014650B1206A49680468DDE9A6
:103950000023E46AA44603B0BDE83040604703B0EA
:1039600030BD00BF88870300D1870300036A70B5AC
:10397000054616462BB90C490C4840F29F622CF0C4
:10398000DBFFFFF706FF044668B1286A6168036839
:103990009B68984738B1286A6168036832469B691A
:1039A000BDE87040184770BD88870300D1870300C9
:1039B00037B5056A04462DB90C490D4840F2B3628B
:1039C0002CF0BAFFCDE90023FFF7E3FE014650B12A
:1039D000206A49680468DDE90023E469A44603B06D
:1039E000BDE83040604703B030BD00BF88870300AA
:1039F000D1870300036A70B5054616462BB90C49FA
:103A00000C4840F2C1622CF097FFFFF7C2FE04465B
:103A100068B1286A616803689B68984738B1286A6A
:103A20006168036832461B6BBDE87040184770BD83
:103A300088870300D1870300036A2DE9F04105461A
:103A4000884617462BB91649164840F2E7622CF013
:103A500073FFFFF79EFE0646F8B1286A7168036897
:103A60009B6898470446C0B1337CC279C3F34003D6
:103A700063F34512C271286A716803683A461B6C89
:103A80009847E868E3790268946B41463A46A44651
:103A9000C3F34013BDE8F0416047BDE8F08100BFCB
:103AA00088870300D1870300036A70B50646144671
:103AB0004BB3FFF76EFE054608B9042070BD306AAF
:103AC000696803689B6898470028F6D0EB7B13F081
:103AD000200211D0C3795A0603D4287C10F00200CA
:103AE00007D01B0603D5042323700020E6E7032339
:103AF000FAE702232370E1E713F0080001D0012365
:103B0000F2E72070DAE70920D8E7000037B514465D
:103B1000026A05462AB90D490D4840F2D5622CF0DB
:103B20000BFF0193FFF735FE014668B1286A019B40
:103B30004968E2B20468646BB2FA82F25209A446A0
:103B400003B0BDE83040604703B030BD8887030054
:103B5000D187030070B50546164600220C46FFF7D4
:103B60002FFEE868036866F07F022146DB68D2B268
:103B7000984721462846FFF70CFE68B1C37B03F047
:103B80001803182B08D1E868036821469B69BDE833
:103B900070404FF00002184770BD036A37B5044605
:103BA0000D46A3B1FFF7F5FD98B1017C94F876308E
:103BB0008DF8043001F0010101A8FFF7A2FA9DF889
:103BC000042060692946FFF75DFC03B030BD092081
:103BD000FBE70420F9E70000F0B5036A87B004466C
:103BE0000D462BB9114912484FF4AB622CF0A4FEDC
:103BF000FFF7CFFD80B1266A0E4A33680392002298
:103C00009F6B04920C4B42680593CDE900320294FD
:103C100002AB0ECB3046B847E0680368DB68002291
:103C2000294607B0BDE8F040184700BF8887030069
:103C3000D1870300073700007F31000070B50022F4
:103C4000142400F1800504FB02F3C61896F88B607B
:103C5000F60705D5EE588E4202D17C33184470BD6C
:103C60000132052AEFD10020F9E70000036A73B59D
:103C7000064614462BB91349134840F21E422CF055
:103C80005BFEFFF7DBFF054680B1306A69680368B9
:103C90009B68984750B14CB1C27929687069C2F3EA
:103CA0008013120604D52246FFF718FC02B070BD3F
:103CB000019304F110030093224604F11203FFF76D
:103CC000E9FBF3E788870300D1870300036A73B534
:103CD000054616462BB91049104840F237422CF0E1
:103CE0002BFEFFF7ABFF044688B1286A61680368C2
:103CF0009B689847034650B1686921684EB1DB79EB
:103D0000DA090092C3F380133246FFF703FC02B0D6
:103D100070BDFFF712FCFAE788870300D187030024
:103D200073B506461546FFF789FF044680B17DB19D
:103D3000306A616803689B68984748B1C3792A690B
:103D4000009221687069C3F340132A46FFF700FC14
:103D500002B070BD38B504460025C0E900550830F2
:103D6000FDF73AF9E5732574204638BD30B587B0C4
:103D70000C4601A8FFF7EEFF05AD01AA2346144645
:103D800003CCAC4218605960224603F10803F6D117
:103D900022781A7007B030BD036A70B504460E462B
:103DA0002BB90C490C484FF49B622CF0C5FDFFF772
:103DB000F0FC054660B131466069FFF701FC206AFE
:103DC000696803689B6E984729462046FFF7CEFF37
:103DD00070BD00BF88870300D187030008B5FFF7D7
:103DE0009EFC08BD08B5FFF75FFE08BD38B50C4660
:103DF000E4B204F083F80123A340DD171840294002
:103E000050EA010314BF0120002038BD10B504465C
:103E100004F06AF801462046FFF7F6F9204610BD87
:103E200003460A8B486918609A801846704708B59F
:103E30000346086858618A881A8308460AF056FBC8
:103E4000002008BD07B5009200220B461046032152
:103E500008F09CFC002003B05DF804FB08B5FFF7F8
:103E6000F1FF08BD07B50B46009203210122002097
:103E700008F08CFC002003B05DF804FB08B5FFF7E8
:103E8000F1FF08BD1FB5134671B1827E8DF80F207A
:103E90000021CDE900110DF10F0201200AF0D4FD3F
:103EA000002005B05DF804FB0AF004FEF8E71FB53A
:103EB000ADF80630BDF81830ADF80830BDF81C304C
:103EC000ADF80A300846BDF82030ADF80C3001A935
:103ED000BDF82430ADF80420C0B2ADF80E3009F0C2
:103EE000CFFF002005B05DF804FB08B5D2B2C9B21F
:103EF000032009F0ADFF002008BD08B508461146B3
:103F000008F0C8FC002008BD1FB508461946144635
:103F1000039009F0C3FA079B0398009300229DF8D1
:103F20001830E1B208F032FC002004B010BD13B527
:103F3000059C01949DF810400094FFF7E5FF02B046
:103F400010BD1FB5084619461446039009F0A6FA9D
:103F5000079B0398009301229DF81830E1B208F006
:103F600015FC002004B010BD13B5059C01949DF80C
:103F700010400094FFF7E5FF02B010BD08B51046F1
:103F800019B109F00DFA002008BD09F01DFAFAE791
:103F900003F0C0BFBF207047FB20704708B503F097
:103FA000BFFF032828BF0320C0B208BD08B508F032
:103FB0005FFC002008BD10B50246002392F82D409A
:103FC000022C07D192F827408C4203D1203000EB1D
:103FD000031010BD0133032B02F11002EED10020BB
:103FE000F7E710B50246002392F82D40022C06D1C7
:103FF000946AA14203D1203000EB031010BD0133BD
:10400000032B02F11002EFD10020F7E710B50246B2
:10401000002392F82D40012C07D192F827408C42C2
:1040200003D1203000EB031010BD0133032B02F14C
:104030001002EED10020F7E730B50D4689B059B334
:104040000021FFF7E3FF0446C0B1037B0290002B81
:104050004FF000058379019300950BBF4FF4A063E7
:104060002B4601220422294603200AF009F9A06008
:1040700020B302236373284609B030BD8DF81400C5
:10408000ADF81C008DF8180006AB07AA05A90120A1
:1040900008F0A4FB2046EFE7FFF78DFF044630B1A0
:1040A000017A1622032009F0D3FE6573E3E78DF849
:1040B0001C0007A9012008F0BDFBEBE70C20DBE7A3
:1040C0002DE9F04F032A8BB083469246994672D869
:1040D00000294ED00024A0460A264FF6FF77A245BD
:1040E0003FD9149B19F8041033F814307343BB42C2
:1040F00028BF3B4658460593FFF788FF19F8041080
:10410000059B0546D8B1027B0290002A8279019274
:1041100008BF4FF4A0634FF0000200929BB20CBFA7
:104120000122042203200AF0ABF8A86018B90C2081
:104130000BB0BDE8F08F02236B730134CFE70AAAFE
:10414000424402F8101C1599095D02F80C1C0AAAD9
:1041500002EB480208F1010822F8083C5FFA88F8EF
:10416000EBE707AB08AA06A9404608F037FB00209A
:10417000DEE70C460D460F46A24517D919F8041084
:104180005846FFF718FF064638B1017A1622032079
:1041900009F05EFE77730134EEE70AAB2B4419F8A1
:1041A000042003F8082C0135EDB2F4E708A92846ED
:1041B00008F040FBDBE70420BAE790F82D3033B17C
:1041C00090F83D303BB190F84D3033B902232030A8
:1041D00000EB031070470123F9E70020704782B01D
:1041E000F8B507469DF8246007931446FFF7E3FEF1
:1041F000054628BB01463846FFF708FF034698B13D
:10420000012C01D0042C0DD19E71DDE90701221F84
:1042100054425441186099801C730020BDE8F84056
:1042200002B070474573F8E7012C01D0042CF4D19B
:104230003846FFF7C2FF034620B101224273E3E78D
:104240000620EBE70C20E9E72DE9F7439DF82890DD
:104250009DF834809DF82C609DF83870054600204C
:10426000DCB208F033FB484608F052FB4146002020
:1042700008F040FB394600200AF06CF90C9B3246EE
:104280002146002008F062FA0C9A8DF8046052F87A
:10429000043B1288ADF80020002122462846FFF793
:1042A0009EFF03B0BDE8F0832DE9F04F85B01646C0
:1042B0009DF840208DF80D209DF854208DF80E209B
:1042C00016F0100F9DF85C208DF80F2007460D4664
:1042D0009DF83CB09DF844809DF84CA006F001008C
:1042E000C6F34002C6F38001C6F3C004C6F300194A
:1042F0000FD029B914B900285FD0A2B9042059E021
:10430000002AFBD10028F9D0002C0CBF0424012482
:1043100009E0002956D1002CF0D100284DD0002A08
:1043200014BF0024052499B2BDF83820284608F0AF
:10433000CDFA9DF80D0008F0EBFA5FFA8BF12846F4
:1043400008F0D8FA5FFA8AF2002128460AF007F945
:104350009DF86410284609F091F89DF80F309DF8FB
:1043600058209DF80E10284609F074F89DF9502049
:10437000C6F38011284609F05BF84946284609F043
:1043800037F8C6F34011284609F042F8129B5FFA4D
:1043900088F22146284608F0D9F9129A8DF804804F
:1043A00052F8043B1288ADF80020294622463846D0
:1043B000FFF715FF05B0BDE8F08F002A0CBF0324FE
:1043C0000224B0E710B1002A9ED097E7002A14BF5C
:1043D00007240624A7E72DE9F04F89B004460B888F
:1043E00091F804B091F808A091F8099001930D4656
:1043F00002A80A31FEF708FF05F1170104A8B5F875
:1044000010806F8AAE8AFEF7FFFE05F11D0106A837
:10441000FEF7FAFE019B02986360BDF80C30C4F809
:104420000A00E3810498BDF81430C4F816006383D1
:104430000698BDF81C30E06101222046227084F805
:1044400001B084F808A084F80990A4F8108067826D
:10445000A682238409B0BDE8F08F000070B5022366
:10446000044603710D46054B44F8083B06460FCD44
:104470000FC42B682360304670BD00BF2C8A030038
:1044800010B50446FCF7A8FD0023A3716373204612
:1044900010BDF0B585B0044600F1300602AF6846A5
:1044A000FFF7EEFF6A4604F12003154603CDBD4237
:1044B000186059602A4603F10803F6D1286818608D
:1044C0001034AA889A80B442E9D1002005B0F0BD2A
:1044D00070B5144E3578BFF35B8F15F001051FD111
:1044E00030462CF03DFED8B10F4C04F1140025608D
:1044F0002561FCF771FD04F12000A577FFF7C0FFEF
:1045000004F13000FFF7BCFF04F14000FFF7B8FFF3
:1045100030462CF047FE054A054920462CF011FE96
:10452000014870BDE8120020EC120020E0000020DD
:104530003F30000038B50B4B0B4D044640F8C83FE8
:10454000FBF728FE204640F8885FFBF723FE204655
:1045500040F8485FFBF71EFE2046FEF73BFE204674
:1045600038BD00BFCC830300FC83030008B580691D
:10457000FFF73CFC08BD08B58069FFF709FD08BDE1
:1045800008B58069FFF706FD08BD08B58069FFF72B
:1045900003FD80B208BD37B5044668460D46FEF7F8
:1045A00033FE6846FEF798FDA8B1A0692946FFF7DB
:1045B0003EFC70B9012384F824302B68C4F8253000
:1045C000AB88A4F829302B68C4F83D30AB88A4F838
:1045D000413003B030BD0420FBE713B590F8243020
:1045E0000B7090F824308169144668464BB9FFF788
:1045F0000DFC0098BDF8043020600020A38002B0BC
:1046000010BDFFF70DFCF4E782B002AB03E9030035
:104610009DF80500801101280BD0032803D028B194
:10462000042002B0704700201070FAE701231370D5
:10463000F7E7022313700020F3E737B54B78054600
:104640000C4683B9006918B10A7A4968FFF7A4FBE0
:10465000E86840B103686168227A00919B6A8DF82E
:1046600004206946984703B030BD70477FB50546C2
:104670000C460026286A02A9CDE90266FEF7B7FFBC
:1046800010B1002004B070BD9DF80D3002A903F0F8
:104690003F0368468DF80D30FEF7B6FD0098BDF873
:1046A00004302060A38021466846FEF7ADFD9DF8EA
:1046B000053013F0C00FDDD106216846FEF7E5FC9A
:1046C0000028DFD1D6E730B4C9B2C0689DF80850E1
:1046D000002918BF0B2130B104688DF80850246BF5
:1046E000A44630BC604730BC7047C06810B428B1E5
:1046F0000468646BA4465DF8044B60475DF8044BA6
:10470000704730B4C9B2C0689DF80850002918BF7E
:104710000B2130B104688DF80850246BA44630BCDE
:10472000604730BC7047F0B5C06887B09DF8307006
:104730009DF838609DF84050C8B1C9B204688DF842
:10474000083000290D9B039318BF0C21BDF83C30A5
:1047500024698DF80410ADF806208DF809708DF8E5
:104760001060ADF812308DF8145001A9A04707B0C1
:10477000F0BD07B5C06828B10368ADF804109B69A7
:1047800001A9984703B05DF804FB13B5C06840B1B8
:10479000046824688DF800108DF8012001936946A3
:1047A000A04702B010BD08B5FFF7E0FE08BD08B590
:1047B0004FF00C01FFF7F7FF08BD10B50446FFF7F7
:1047C000F6FF30B1A069FFF7E9FB0F2828BF0F20E3
:1047D00010BD0120FCE790F8433073B50446A3B345
:1047E000FFF7E5FFD0B1002504EBD50305F0070284
:1047F00093F808311341DB07EEB20CD56846FCF79D
:10480000EBFB69462046FFF731FFF0B1A0696A462D
:104810003146FFF772FB01350F2DE5D16846FCF7F5
:10482000DBFB69462046FFF721FF70B1A0696946AE
:10483000FFF7FDFA48B90123009884F82430BDF849
:104840000430C4F82500A4F8293002B070BD08B5C2
:10485000FFF791FE08BD08B5FFF792FE08BD08B549
:10486000FFF793FE08BD08B5FFF7B7FE08BD08B512
:10487000FFF791FE08BD0000024A0260002242607C
:10488000C2607047088A030038B504466368A360B5
:10489000A06838B1C36821469847A368002BF5D0BB
:1048A0001B69F4E7606828B1056914212CF050FEFB
:1048B0002846F8E76060E06038BDB1F5486F28BF72
:1048C0004FF44861062938BF062101807047B1F5D1
:1048D000486F28BF4FF448610A2938BF0A21018078
:1048E00070472DE9F043C66887B00C4616B34D7883
:1048F0003368D1F8049009895F6A002D684618BFB3
:104900000B25FFF7DAFFA189B4F80A8001A8FFF7A9
:10491000DEFFBDF80030ADF81030BDF804308DF882
:104920000850CDF80C90ADF81280ADF8143002A903
:104930003046B84707B0BDE8F08300002DE9F041EC
:1049400090F8123113F001038AB00C462FD0C568DD
:1049500035B32B68D1F8048009891E6A04A8FFF7D3
:10496000ACFF618905A8FFF7A8FFE189A78906A820
:10497000FFF7ADFFBDF81030ADF82030BDF81430B2
:10498000ADF82230BDF81830CDF81C80ADF8247099
:10499000ADF8263007A92846B0470AB0BDE8F08137
:1049A00009490A4800952B462A462CF037FACDE9EA
:1049B0000233CB8901938B8900934B890A898069E3
:1049C0004968FFF774FAE8E7D587030048011880C3
:1049D0002DE9F04390F812418BB014F00104BDF8BA
:1049E0004870BDF84C800D461E462CD0C4681CB3E0
:1049F0002368114604A8D3F82090FFF75EFF3146E4
:104A000005A8FFF75AFF414606A8FFF760FFBDF86B
:104A10001030ADF82030BDF81430ADF82230BDF8BC
:104A200018300795ADF82470ADF8263007A9204658
:104A3000C8470BB0BDE8F0830749084800942346F7
:104A400022462CF0EBF9CDE90244CDE900788069EB
:104A5000FFF72DFAEDE700BFD58703004801188066
:104A600038B500250446056005718560057300F1C1
:104A70000D0300F12D0203F8015B9342FBD1256386
:104A800084F8345004F13500FDF708F904F14500CD
:104A9000FDF704F9C4E916552566204638BD000027
:104AA00010B50B4C2378BFF35B8FDB070ED4204689
:104AB0002CF056FB50B10748FFF7D2FF20462CF0F0
:104AC00071FB054A054903482CF03BFB014810BD2A
:104AD0003C13002040130020E0000020233600009B
:104AE00008B5062232F084FCB0FA80F0400908BD17
:104AF000036A37B505462BB91A491B4840F27E4276
:104B00002BF01AFFFEF745FE044688B1286A61685B
:104B100003689B68984758B195F876301B0709D50C
:104B200005F12A01FFF7DCFF237C60F304132374F3
:104B300003B030BD237CC3F3800262F304132374FB
:104B400005F160010191FFF7CBFF30B9019904F144
:104B50000800FFF7C5FF0028EAD0237C43F01003CC
:104B6000E5E700BF88870300D1870300F0B5036A3B
:104B700085B004460E46002B54D0FEF70AFE0546CB
:104B8000002851D094F879301BB994F876301A0780
:104B90004CD5002231462046FEF712FE3146204613
:104BA000FFF7A6FF94F877202B7C94F87670DB074C
:104BB000C2F3C00343F002038DF8083095F90F30BB
:104BC00048BF47F00407002BB6BFEA7BC2F3800161
:104BD000C2F3801102A8FEF794FA94F87A2094F8B0
:104BE00077300AB18DF808308DF80C3095F90F3018
:104BF000E97B002B04DAC1F3801103A8FEF781FAE8
:104C00002A7C9DF808309DF80C108DF804108DF862
:104C1000003060693B46C2F300123146FEF708FCE3
:104C200005B0F0BD0920FBE70420F9E70620F7E70F
:104C300008B5FFF79BFF08BD2DE9F04105460E467C
:104C40001746FEF7A6FD044640B3FBB2022B0DD17A
:104C5000C37B23F0380343F02003E373E868036861
:104C60003A4631469B69BDE8F0411847DA1E012AF1
:104C700005D8C37B23F03A0343F02203EDE7002B72
:104C8000ECD1C37B03F01803082BE7D10168284659
:104C9000FFF7CEFFE37B43F01003E373BDE8F08141
:104CA000F0B5036A85B005460E46002B56D0FEF7D8
:104CB00070FD0446002853D031462846FFF718FF00
:104CC000237C95F8767095F87A10DA07A27B48BFB6
:104CD00047F0040702F00F0302F0040200293AD063
:104CE00095F877100B408DF808306AB194F90F30C1
:104CF000002BB5BFE17B95F87720C1F38011C2F39B
:104D0000800102A8FEF7FDF995F87720A37B02EA5F
:104D100013138DF80C305B070BD594F90F30002B73
:104D2000B6BFE27BC2F38001C2F3801103A8FEF795
:104D3000E8F9227C9DF808309DF80C108DF80410DD
:104D40008DF8003068693B46C2F300123146FEF729
:104D500080FB05B0F0BD03F00A03C4E70920F8E7C3
:104D60000420F6E708B5FFF79BFF08BD2DE9F041E9
:104D700090F879209DF818609DF81C7004460D4647
:104D80002AB91B0703D4FFF729F8BDE8F0812946AB
:104D90002046FEF7FEFC0028F7D0037C06F00F0645
:104DA0006FF3410346EA07168673037494F878306C
:104DB00033B1E068036829469B68BDE8F0411847B5
:104DC00029462046FFF7CEFFDFE70000036A2DE902
:104DD000F04104460E462BB91F49204840F2346288
:104DE0002BF0AAFDFEF7D5FC054648B3206A69689A
:104DF00003689B689847804610B304F16007394602
:104E0000FFF76EFE28B9394605F10800FFF768FE86
:104E100098B1012231462046FEF7D2FC3146606946
:104E200004F16602FEF7EAFB39464046FFF758FEFA
:104E300030B100232366BB8002E02B7C9A0601D5AB
:104E4000BDE8F08143F020032B74E068036831462D
:104E5000DB6ABDE8F041184788870300D18703006B
:104E600030B587B08B7A8DF804300C46CB7A8DF84C
:104E7000053005460C310DF10600FEF7C5F9227A22
:104E8000616803A8FBF798FF637A8DF8143001A9D5
:104E90002846FFF7E3FA284607B030BD2DE9F04772
:104EA000C46886B088469DF838A017461E46CCB127
:104EB000236810999DF83C20D3F814906D4628463D
:104EC000FBF77AFF95E8030006AB03E90300ADF8B2
:104ED00008808DF80A708DF80B608DF80CA002A97F
:104EE0002046C84706B0BDE8F08700002DE9F04F26
:104EF000054695B00C460026236820469B689847D7
:104F0000B0425AD92368F2B2DB68214607A8984715
:104F100095F838308BB195F83C30022B0DD19DF8C7
:104F20001D30012B09D10DF11E010CA8FEF76CF903
:104F30000CA8FEF7DBF800283DD1EF68002F3AD02F
:104F40009DF81C309DF92CB0042B9CBF1C4A12F814
:104F500003A03A689DF81D3001930DF10C09936888
:104F600000930DF11408484688BF4FF0000AFCF783
:104F700033F8DDE909124046FBF71EFF019B8DF86F
:104F800031300DF11E030D930E4B0E9398E8030084
:104F90000023ADF83E30FF238DF8403014AB8DF880
:104FA00030A08DF83CB0CDF8449003E90300009B9D
:104FB0000CA93846984701369EE715B0BDE8F08F3A
:104FC000548A03000100FF7F2DE9F04F1F468DB08A
:104FD00090F838309DF858A0179C9DF870900646C0
:104FE0008846154683B190F83C30022B0CD15AB15B
:104FF0001378012B08D1394604A8FEF705F904A857
:10500000FEF774F8002838D1F668002E35D03368E2
:105010009B68002D34D02D7804B124789DF8782039
:105020001F9901930DF1080B5846FBF7C5FE9DF83B
:1050300060208DF81A209DF964208DF81B209BE8D4
:1050400003009DF968208DF81C20BDF86C20ADF898
:105050001E200CAB1D9A8DF810808DF8115005970D
:105060008DF818A08DF819408DF82090099203E969
:105070000300019B04A9304698470DB0BDE8F08FAE
:10508000FF25C9E700220270427070472DE9F34105
:1050900004468846174600251E46FFF7EDFB089B91
:1050A0002362C4E90676C4E9045884F8245004F164
:1050B0002500FBF791FF4FF40033A36304F13D0695
:1050C000012384F83C3084F82B5084F82C5084F869
:1050D0002D502563A5863046FBF77EFF84F84350AC
:1050E00084F8445004F14800FBF736F904F18800D5
:1050F000FBF732F904F1C800FBF7ECF804F5847013
:10510000FFF7C0FF04F58570FFF7BCFF04F586705C
:10511000FFF7B8FF04F58770FFF7B4FF04F5887058
:10512000FFF7B0FF94F81231A06965F3000384F82B
:105130001231FFF7AEF9A3690B4A5C60C3E902259F
:105140000A4A1A616846A169FEF76AFEBDF8043092
:105150000098A4F84130A369C4F83D0020461C60C3
:1051600002B0BDE8F08100BF076300009931000084
:10517000CA08012301F0070103FA01F1835C194316
:1051800081547047CA08012301F007018B40815CFC
:1051900021EA030181547047F0B5064685B000F559
:1051A00085700C46114615461F46FFF7EBFFF06869
:1051B00080B1E4B203689DF828205B688DF8045044
:1051C000B4FA84F4640902978DF80C208DF80D4030
:1051D00001A9984705B0F0BD2DE9F04F91B00E46FA
:1051E00007461446FFF7E9FAB04240F28A8007EB1F
:1051F000D60306F0070593F80A11294111F00101C1
:105200007DD12378607E012BC0F340120C9201D82F
:10521000002A76D0052B6CD8DFE803F00308106B6A
:105220000C68002501234FF001080AE0012100234A
:105230000D46F8E700230125A84602E00025A84610
:105240000123A27B0F9294F917200D92227E0E92D9
:1052500048EA4303C0F300120B9243EA85030C9A19
:1052600094F80D9094F80CB094F80FE094F810A016
:105270008DF8089043EAC10343EA021206F00F03D7
:105280000A930E9B08930D9B06930F9B8DF8143089
:10529000C0F3C00104F1110342EA411100F0070C10
:1052A000C0F380120493A368009341EA82126368FA
:1052B000B8698DF804C031468DF824A08DF81CE043
:1052C0008DF80CB0FEF7F0FF68B907F5887031462D
:1052D000B8F1000F10D0FFF74BFFB86907F13D029E
:1052E0003146FEF70AFE11B0BDE8F08F00252B46CF
:1052F00099E700252B469FE7FFF744FFEDE70820DD
:10530000F1E70420EFE710B590F8083113F001033E
:1053100088B0044644D14FF480614FF40062CDE977
:1053200002120DF1150001228DF804308DF81030B5
:105330008DF812308DF811208DF813208DF814207F
:10534000FBF74AFE7F238DF81B30BDF81C3023F499
:10535000FF4323F07F0343F41C53ADF81C309DF84A
:105360000430032B11D1029A039B6FF07F418A42D4
:1053700028BF0A46A02A38BFA0228B4228BF0B466E
:10538000A02B38BFA0230292039301AA002120463C
:10539000FFF722FF94F8083143F0010384F8083145
:1053A00008B010BDF0B587B00D4606461446FFF7AD
:1053B00004FAA84202D8042007B0F0BD06EBD503DA
:1053C00005F0070293F808311341DB0704D4002DE0
:1053D000F1D13046FFF797FF3046FFF7E8F928B1E3
:1053E000224629463046FFF7F7FEE5E7002DE2D1D9
:1053F0002246617E12F8113B607B257BA77B0292DF
:1054000001F007018DF80C108DF800002289A188A9
:10541000B0698DF810708DF80450FEF715FFCBE7DA
:1054200008B5FFF7BFFF08BD008808B528B90349D4
:1054300003484FF488722BF07FFA08BD12880300EE
:1054400047880300002A38B5044602DB48689042CA
:1054500005DA0E490E4840F26F322BF06DFA5D1CF2
:1054600009D0002B02DBD518A84204DA0749094805
:105470004FF45C72F1E75D1C096808BF831A1144A0
:1054800020461A46FBF798FC204638BD36840300B8
:1054900054880300738803002DE9F04F2DED028B33
:1054A0008FB00DF1100B8BE80C009DF868309DF863
:1054B0006C700D4608EE103A0446FFF77EF9A842DC
:1054C00045D904EBD50905F0070899F8083143FAE6
:1054D00008F3DA0704D4002D39D12046FFF713FF73
:1054E0002046FFF764F928BB002D30D1059E1F2E02
:1054F0002DDC544B544AD4F818800499002F14BF63
:105500001F4617461F2E344628BF1F24224606A8D2
:1055100031F09EFF06ABC4F11F022946181932F084
:105520009DF806AAF1B24046B8470FB0BDEC028B19
:10553000BDE8F08F2046059EFFF789F9B04208DAF2
:105540000023424900931A4641482BF05FFC042097
:10555000EBE799F80A6146FA08F616F001060BD156
:105560002046DDF814A0FFF77AF9504504DA3949EE
:10557000009633463246E7E7002F53D12046059E7A
:10558000FFF769F9B04247DA99F80A3143FA08F3AC
:10559000DB0706D599F8103143FA08F818F0010F27
:1055A00035D1294604F58770FFF7E2FD2A4BA06943
:1055B0000393FEF7F1FCDDF814800746C146002393
:1055C0000293029B434502D353EA080338D147456F
:1055D0002AD94FF0030A4F453B46029A28BF4B4653
:1055E000594606A8FFF72EFF069B01939DF81C3035
:1055F0000093A069039E18EE103A52462946B04720
:10560000A9EB0709002890D1029B3B44D8E7134936
:1056100000973B463A4697E7294604F58770FFF71F
:10562000B1FDC3E70E4BC2E7029B13B94FF0010A6D
:10563000D1E74F4534BF4FF0000A4FF0020ACAE7E6
:10564000002072E77D3E00005D3E0000BF88030041
:105650000501FF80F38803002F3F00006E890300DF
:10566000693F00001FB502AC84E80C000123002252
:10567000CDE9003294E80C00FFF70EFF04B010BD36
:1056800013B56C4684E80C0094E80C00FFF7EAFFC1
:1056900002B010BD002303704370704730B504465C
:1056A00085B0FFF7F1F804F14800FAF7C7FD04F1FF
:1056B0008800FAF7C3FD2046FFF779F800284ED09E
:1056C000012303930025039B0E2B25D804EBD30263
:1056D00003F0070392F80A2142FA03F3D80707D52B
:1056E000CDE90055A06903AB01220021FEF7E8FCDB
:1056F000039B04EBD301DAB291F80C1103F007031A
:1057000041FA03F3D90703D5A0690021FEF736FC5F
:10571000039B01330393D6E704F58470FFF7BAFFC8
:1057200004F58670FFF7B6FF94F80A31DB0707D55A
:105730000021CDE900110B4BA0690122FEF7C0FC4E
:1057400004F58570FFF7A6FF04F58770FFF7A2FF49
:1057500004F58870FFF79EFFA069FEF727FC002084
:1057600005B030BD598A030008B5FFF797FF08BDA3
:105770001FB50024CDE90144039400910224694639
:1057800010308DF80640ADF80420ADF80A30FDF772
:10579000EDFA04B010BD000010B586B004466846AE
:1057A00080E80C0006A800E90C00039110E907004E
:1057B000034BE36084E80700204606B010BD00BF3D
:1057C0004B3100002DE9F0411F46036A88B00646C0
:1057D00015462BB92C492D4840F2AF422BF0ACF8BE
:1057E000FDF7BFFF044600284BD0EAB2DDE9110106
:1057F000E37BA181B2FA82F2520962F38203A060D4
:10580000E373306A03680EAA1B6E394698476060DE
:105810000146306A03689B68984702460E981060FC
:10582000BDF83C30938017F0FD0FD3790CBF0121F8
:10583000002161F30003D37194F90F30002BB5BF41
:10584000E37B96F87730C3F38013C3F38003C3B1CF
:10585000D3799B0715D5376A0D4A3B6804ADD3F859
:1058600020800B4B02933146002328460393FFF719
:1058700093FF63680193079B009395E80E003846F9
:10588000C04708B0BDE8F08188870300D1870300D6
:10589000213D000010B586B00446684680E80C0043
:1058A00006A800E90C00039110E90700034BE36030
:1058B00084E80700204606B010BD00BF6531000037
:1058C0002DE9F043036A89B005460C46002B39D018
:1058D000FDF75FFF064618B9042009B0BDE8F08364
:1058E000286A716803689B6898470028F4D0F37BA6
:1058F0005A0722D5C3795B071AD5D5F82080124AFA
:10590000D8F800300024D3F824900F4B029304AF52
:105910002346294638460394FFF7BCFF736801937A
:10592000079B0093404697E80E00C8472046D4E7FF
:1059300021462846FFF77CF9CFE721462846FEF7A7
:105940002CF9CAE70920C8E76D3C0000036A70B56E
:1059500005460E4643B3FDF71CFF044608B9042074
:1059600070BD286A616803689B6898470028F6D074
:10597000C279E37B510609D59A0717D443F008038F
:10598000E37331462846FFF79BFFE9E7227C5B077C
:1059900042F0010222743146284602D5FFF748F949
:1059A000DEE7FEF7FAF8DBE70920D9E70020D7E7C2
:1059B00008B5FFF7CBFF08BDF8B5036A04460F46EC
:1059C000D6B22BB919491A4840F2A2522AF0B4FFB4
:1059D000FDF7DFFE054638B3206A696803689B68F7
:1059E000984708B316F0080308D090F90730002B49
:1059F000AABF94F876300023C3F3C003710702D521
:105A0000C279520608D55BB9EB7B1B070CD439462B
:105A10002046FFF755FF07E02B7C43F001032B7472
:105A200039462046FFF704F9F8BD00BF8887030018
:105A3000D18703002DE9F0479846036A8AB00446EF
:105A400017462BB91649174840F202722AF074FF24
:105A5000FDF79FFE0546F8B1206A696803689B68F8
:105A60009847C8B1D4F820900F4AD9F8003006AE54
:105A7000D3F810A00C4B0493214600233046059325
:105A8000FFF708FFCDE902786B680193099B00934B
:105A900096E80E004846D0470AB0BDE8F08700BF40
:105AA00088870300D1870300CD3C00002DE9F04139
:105AB000036A88B004462BB91149124840F22F728C
:105AC0002AF03AFFFDF765FE0646A8B1276A0E4A9E
:105AD0003B6804ADD3F814800B4B0293214600239E
