:020000040000FA
:1000000000000120C9020000D5020000A901000083
:10001000D9020000B1010000B5010000000000009D
:1000200000000000000000000000000005020000C9
:10003000E1020000000000009D020000AD0200008F
:10004000E70200002DB80000E7020000E702000010
:10005000E7020000E7020000E7020000E7020000FC
:10006000E7020000E7020000E7020000E7020000EC
:10007000E70200004DB80000E7020000413A00002E
:10008000E7020000E7020000E7020000E7020000CC
:10009000E7020000E7020000E7020000E7020000BC
:1000A000E7020000E7020000E7020000E7020000AC
:1000B000E7020000E702000000000000000000006E
:1000C000E7020000E7020000E7020000E70200008C
:1000D000E7020000E7020000E702000000F002F87B
:1000E0001DF098F80AA090E8000C82448344AAF11D
:1000F0000107DA4501D11DF08DF8AFF2090EBAE81B
:100100000F0013F0010F18BFFB1A43F0010318474B
:1001100020890400408904000A444FF0000C10F8C4
:10012000013B13F0070408BF10F8014B1D1108BF75
:1001300010F8015B641E05D010F8016B641E01F815
:10014000016BF9D113F0080F1EBF10F8014BAD1C65
:100150000C1B09D16D1E58BF01F801CBFAD505E083
:1001600014F8016B01F8016B6D1EF9D59142D6D3DD
:10017000704700000023002400250026103A28BF05
:1001800078C1FBD8520728BF30C148BF0B60704709
:100190001FB545F0FEFA9DE8030000F0BFFD01F039
:1001A000A9F800F087FD1FBD102304E0202302E022
:1001B000302300E040239C46F0B404AE7546E808C6
:1001C00001D3EFF309860E4F0FCE0FC70FBC0FC739
:1001D0004046494652465B460FC71DCE3100A60A2F
:1001E00000D304316E0900D248311FC7EFF30980F4
:1001F0006946EFF3148663C7604601493CF058F93D
:10020000186A00201EF0040F0CBFEFF30880EFF314
:100210000980816911F8021C91BB01B590E80F10AB
:10022000E047BDE800508CE80300244B93E806004B
:10023000914208BF704741B91EF0100F10D12049FC
:10024000086820F0010008600AE02CE9F00F1EF0B9
:10025000100F08BF2CED108AC1F838C081F822E0D9
:100260001A6092F82210906B61F0FF0E1EF0100FD2
:1002700008BFB0EC108AB0E8F00F80F3098870472F
:10028000104A13689942FAD801B552F821C00FC834
:10029000E047BDE80050CCF80000704701B53EF0E3
:1002A000F1FBBDE80140EFF3098CBEE701B53EF07C
:1002B00077FEBDE80140EFF3098CB6E74C02002061
:1002C00034EF00E0FC73040007488047074880478C
:1002D00007480047FEE7FEE7FEE7FEE7FEE7FEE72A
:1002E000FEE7FEE7FEE7FEE729D300006DDB030033
:1002F000DD00000070471CF0B5BF0844401E491ED9
:10030000884370470821001DF7E72DE9F0411746A3
:100310000E460446FFF7F6FFA042054633D9002FEC
:100320001CBF06F10C001CF0FFFF30467468F4B1EE
:100330002168A94217D305F1080291423CBF6168C8
:10034000416007D3626861194A602268521B0A60E3
:1003500041602560002F1CBF06F10C001DF064F801
:10036000201DBDE8F08120466468002CE0D12946BC
:10037000304600F0BFFC0028D7D1002F1CBF06F18B
:100380000C001DF051F80020BDE8F08110B50446C6
:1003900000F0A7FC01682046BDE810400122B4E748
:1003A00070B516460D46041F002808BF70BD002E0C
:1003B0001CBF05F10C001CF0B7FF2B465868002845
:1003C00018BFA04238BF0346F8D31968CA18A24222
:1003D00018BF5C6003D122681C4611441960216873
:1003E0000A19824218BF606004D1426862600068E6
:1003F00008442060002E1CBF05F10C001DF014F80D
:1004000070BD10B5044600F06CFC01682046BDE8E4
:1004100010400122C4E753EA020C00F069802DE984
:10042000F04B4FF00006002B1FBFB3FA83F503FA21
:1004300005F424FA05F65E4012BF1643B2FA82F5BF
:1004400002FA05F4C5F120051EBF22FA05FC44EAB4
:100450000C04203556EA044C4FEA144418BF641CBF
:100460004FF000084FF00009904271EB030C39D3B4
:10047000002919BFB1FA81F701FA07F6B0FA80F73F
:1004800000FA07F6C7F120071EBF20FA07FC46EA6C
:100490000C062037B6FBF4FCA7EB0507103F07F06E
:1004A0001F0BCBF120062CFA06F60CFA0BFB44BF0F
:1004B000B3460026202FA4BF5E464FF0000B5BEA38
:1004C000060C08BF4FF0010B19EB0B0948EB0608AF
:1004D000ABFB027C06FB02CC0BFB03CCC01B71EB1D
:1004E0000C01C1E70B46024641464846BDE8F08B89
:1004F00013B5084318BF4FF0FF300146AFF300803B
:10050000BDE81C40704753EA020C23D010B54C10D4
:1005100084EA530404D54042C1F1000138BF491EAA
:100520001B4204D55242C3F1000338BF5B1EFFF7E4
:1005300072FF14F0804F04D04042C1F1000138BF77
:10054000491E14F0004F04D05242C3F1000338BFDB
:100550005B1E10BD13B540424FF0000070EB01046C
:10056000B8BF012001F0004100281CBF6FF000411E
:100570004FF0FF30AFF300801CBD70B504468569B5
:100580000068C10601D5302600E02026C00707D04C
:1005900070BDD4E9012130469047206A401C20629A
:1005A0006D1EF6D570BD70B5044685690078C0072C
:1005B00007D170BDD4E9012120209047206A401C5A
:1005C00020626D1EF6D570BD2DE9F0410446164639
:1005D0000D464769007B80072ED038461CF04EFF41
:1005E00050BB3EB3012E02D0022E25D104E020469E
:1005F00000F066F805441DE038461CF02BFFE1686A
:10060000002841F01001E16005DA204600F0C6FD47
:100610000120BDE8F081C9030BD56268E16A91420F
:1006200000D81146A26911442269891A814200DD6D
:1006300008460544002D01DA0220EAE7E16A606815
:10064000E268814206D29103E06203D522F40031D0
:1006500041F01002A6690027AE4213DCE16A814234
:1006600001D90B4600E0034603EB060C2369ACEB13
:10067000030CAC4506DD814201D98C4600E084467E
:100680009C4505D1A760276042F02000A5620DE0DF
:10069000AD1BE669AE1B8142A66000D90846C01AB0
:1006A000281A20605819606022F020000349084091
:1006B000E060002084F84870ABE70000BFCFD7FFB0
:1006C00010B50146C268900703D0900607D5886A26
:1006D0000AE0FFF710FE01210160881E10BD8B6942
:1006E000486818440B69C01A91F848301BB191F85A
:1006F0004910401A10BD1103FCD50028FADD401E38
:1007000010BD0000014900F029B80000900300204E
:100710002DE9F04704464FF000094FF0FF37C56858
:10072000D4E90486A80707D0204600F06BFD3046C8
:100730001CF08AFE002802DA3846BDE8F08728055A
:1007400002D54046FFF75DFE4C21204600F048FAF6
:10075000206D20F0010020654846EEE770B50C469C
:10076000064601F14C0528461CF0DEFD21463046C8
:1007700045F002F8044628461CF056FE204670BD9F
:1007800070B5044600F14C0528461CF0CDFD20460E
:10079000FFF796FF044628461CF046FE204670BD33
:1007A00070B505460A4E30461CF0BEFD05F14C04FE
:1007B00020461CF0B9FD2846FFF7AAFF0546204653
:1007C0001CF032FE30461CF02FFE284670BD0000A3
:1007D000EC0000202DE9F04116460F46054600F1D9
:1007E0004C0420461CF0A0FD324639462846FFF74F
:1007F000EBFE054620461CF017FE2846BDE8F081BA
:100800002DE9F041044600F14C0738461CF08CFD00
:10081000E068810712D0800601D5A66A04E0A169CC
:10082000606808442169461A204600F0EBFC00226B
:10083000054631462046FFF7C7FE00E00025384652
:100840001CF0F2FD2846BDE8F0812DE9F04118B119
:10085000BDE8F041FFF7D4BF0B4E002530461CF039
:1008600063FD0A4C6F1E07E02046FFF7C9FF00B189
:100870003D46206D20F00104002CF5D130461CF0DF
:10088000D3FD2846DFE70000EC0000203C030020F9
:100890002DE9F04716468846070010D006F14C00B7
:1008A00081461CF041FD3046FFF732FF18F8010B7E
:1008B00061280DD0722805D0772841D105E00020AD
:1008C000BDE8F0870125002405E00225042402E0AC
:1008D000082448F2020518F8010B2B2806D06228DC
:1008E00009D018F8010C74280AD00BE045F0030574
:1008F00044F00204EFE745F0040544F00104EAE7A0
:1009000044F01004384621461CF0BCFD411C17D0B1
:100910000021316171604FF40071F560F161706127
:10092000200704D5304602220021FFF74DFE306D2E
:1009300040F00100306548461CF076FD3046BFE7C8
:100940000026F8E72DE9F04115460E460746214CF2
:1009500020461CF0E9FC2A4631463846FFF798FF4E
:10096000054620461CF060FD2846BDE8F0812DE9D3
:10097000F0410E468046174D28461CF0D5FC164C1B
:10098000206DC10704D0410804D020F00104F7E72E
:10099000224612E05420FFF7F9FC070017D0206D23
:1009A00047F00101084354212065384600F018F94A
:1009B00007F14C001CF0E6FC3A4631464046FFF792
:1009C00067FF044628461CF02FFD2046CDE7002493
:1009D000F8E70000EC0000203C03002030B503469F
:1009E0001D783DB10A4612F8014B1CB1AC42FAD158
:1009F0005B1CF5E7181A30BD40EA010310B59B07F0
:100A00000FD1042A0DD310C808C9121F9C42F8D078
:100A100020BA19BA884201D9012010BD4FF0FF3029
:100A200010BD1AB1D30703D0521C07E0002010BD3F
:100A300010F8013B11F8014B1B1B07D110F8013BCB
:100A400011F8014B1B1B01D1921EF1D1184610BDAC
:100A500010B5431C02E010F8011B71B18107FAD1F7
:100A60004FF0013202C88C1A8C4314EAC211F9D03B
:100A7000C01A0A0603D0C01E10BDC01A10BD0A0459
:100A800001D0801E10BD0902FCD0401E10BD032AFB
:100A900040F2308010F0030C00F0158011F8013B9B
:100AA000BCF1020F624498BF11F801CB00F8013B82
:100AB00038BF11F8013BA2F1040298BF00F801CB46
:100AC00038BF00F8013B11F0030300F02580083A1D
:100AD000C0F0088051F8043B083A51F804CBA0E874
:100AE0000810F5E7121D5CBF51F8043B40F8043BC9
:100AF000AFF30080D20724BF11F8013B11F801CBFE
:100B000048BF11F8012B24BF00F8013B00F801CBCE
:100B100048BF00F8012B704710B5203AC0F00B8099
:100B2000B1E81850A0E81850B1E81850A0E81850E3
:100B3000203ABFF4F5AF5FEA027C24BFB1E8185059
:100B4000A0E8185044BF18C918C0BDE810405FEABB
:100B5000827C24BF51F8043B40F8043B08BF704737
:100B6000D20728BF31F8023B48BF11F8012B28BF3C
:100B700020F8023B48BF00F8012B704702F0FF034A
:100B800043EA032242EA024200F00AB802F0FF03FD
:100B900043EA032242EA024200F024B84FF0000286
:100BA0000429C0F0128010F0030C00F01B80CCF17F
:100BB000040CBCF1020F18BF00F8012BA8BF20F8ED
:100BC000022BA1EB0C0100F00DB85FEAC17C24BF41
:100BD00000F8012B00F8012B48BF00F8012B7047EB
:100BE0004FF0000200B5134694469646203922BFC6
:100BF000A0E80C50A0E80C50B1F12001BFF4F7AF11
:100C0000090728BFA0E80C5048BF0CC05DF804EBF2
:100C1000890028BF40F8042B08BF704748BF20F860
:100C2000022B11F0804F18BF00F8012B7047000015
:100C300030B44FF0013C50F8042B51F8043BCCFA8F
:100C400052F4D51A20D1FCB950F8042B51F8043BCA
:100C5000CCFA52F4D51A17D1B4B950F8042B51F884
:100C6000043BCCFA52F4D51A0ED16CB950F8042BCF
:100C700051F8043BCCFA52F4D51A05D1002CDAD045
:100C800030BC4FF00000704729BAB1FA81F111F081
:100C90001801D1F120008440F2D1CA40CB4012F0BB
:100CA000FF0213F0FF0330BCD01A70477047704743
:100CB0007047000070B5064C7C44064D7D4404E04E
:100CC0002046016808448047241DAC42F8D170BD1D
:100CD000A87D0400A87D0400004870473804002067
:100CE000704710B5FFF7F8FF083010BD7047704728
:100CF0007047704738B504460A4600206946AFF38E
:100D00000080002808BF38BD02460099204600F048
:100D1000E7FB012038BD012000F062BDF8B5AFF35C
:100D20000080054600200C46102000BF0646A8198A
:100D3000A0420DD9324669460020AFF3008007007B
:100D400008BF00F04DFD0098A04218BF0546C41929
:100D5000FFF7C7FF05600746F01D20F007004619A2
:100D6000284600F00AF8B44208BFF8BDA21B31467D
:100D70003868BDE8F84000F0B3BB00210160C0E96D
:100D800001100C301CF0FEBA1020704770B50D46F3
:100D900001461446D36850692A461CF0A9FB002876
:100DA00007DA411C07D0E16820F0004041F480419F
:100DB000E160281A70BD204600F0F0F94FF0FF30D6
:100DC00070BDC1680022026021F4805141F04001F1
:100DD00011F4C06FC16001D0826070470269416840
:100DE000891AC269891A816070472DE9F047044663
:100DF000C06840F48000E060010312D520F40020B8
:100E0000E060810606D4E26A61688A4200D80A4638
:100E1000511A216040F40010E06094F82500BDE80C
:100E2000F08720F40010E060800602D5204600F034
:100E30000CFAE06842F281014FF0FF3901400129CC
:100E400003D0204600F0AAF9B6E021680026002968
:100E50000ADAC94340F480502160C4E90260606846
:100E6000411C61600078DAE744F2400108420CD08E
:100E700020F4A04040F040002660E06021696068F6
:100E8000401AE169401AA06096E0216991B9C00357
:100E900010D4E069FFF77AFA2061B0B1E06840F45D
:100EA000006010F4407FE06002D140F48070E060A8
:100EB00020696060E068D4F814A0C1061AD5C003A8
:100EC0000ED5204600F09EF914E004F124002061C4
:100ED0000120E061E06820F4407040F48060E6E7C3
:100EE00021696068401AA169014450461CF0A2FBC8
:100EF0000028A6DBE068C0032AD56168E06A884262
:100F000000D808462169451AE069471B1BD02046D6
:100F1000D4F8188000F076F908EB05015046C4F8C3
:100F200018801CF087FB00288BDBE06840F4003061
:100F3000E060000202D5A0692844A061E16920694F
:100F4000C91B45180DE0204600F05CF9E769F5E79C
:100F500025696168D4E90607491BE56208446560B4
:100F6000A061E06820F0100010F4C06FE06002D0D3
:100F7000204600F0F9FBE06840F48050C4E90260CC
:100F8000000205D52069E06260606FF0010046E76D
:100F9000224639462846FFF7F9FE411C0CD0291895
:100FA000E16258B1401E2060681C6060E06840F457
:100FB0000030E060287832E7484630E76560204638
:100FC000FFF7FFFEF8E72DE9F04705460C46C86835
:100FD00020F4201040F48000C860800602D5084646
:100FE00000F033F9E06841F282014FF0FF3901402F
:100FF000022903D0204600F0D1F8B5E000F42041EA
:10100000B1F5004F0FD1C00306D56168E06A884290
:1010100000D80846606006E02069E06260606069B0
:101020001CF018FAA061A0680022EEB200280DDAC8
:10103000E1688B050AD4C043A06041F4903022607F
:10104000E0606068411C61600670A5E0E068904661
:10105000226040F40050E060206968BB60691CF0C9
:101060000DFA012704F12405A0B1A08910F4407FF6
:1010700008D0E069FFF78AF9206118B1E06840F410
:10108000006016E0E7612561E06820F4407040F4FC
:1010900080600EE0E069FFF779F900282061F1D067
:1010A000E06840F4006010F4407FE06002D140F45A
:1010B0008070E06020696060E06825696FF0010A77
:1010C000C1051FD56168E06A884200D80846411B07
:1010D00004D02246284600F06BF8F0BBE06801021D
:1010E00003D5E562C4E9015854E0691CE16261601E
:1010F000E16940F48030491EC4E9021030462E7088
:10110000BDE8F087010202D500F480320AE0606891
:10111000411C61600670E0680A2E40F48030E06097
:1011200006D00022E16A6068814203D90B4602E0E2
:101130000122F7E70346A7895B1B7F0503D4E76914
:101140009F4200DDE2B1814200D80146E5620F1AFC
:10115000C4E90158002B09DD00E005E022461946EC
:10116000284600F025F808B14846C9E747B1A0690C
:10117000E5626560C01BA061E06840F01000E060BF
:10118000E068000208D56168A069E562491B08446F
:101190006560A0615046B3E73046B1E7C16821F40D
:1011A000001141F08001C160002181600160704741
:1011B0002DE9F047814614460E464FF0FF3832487D
:1011C000D5685769054209D03846A1691CF032FA42
:1011D000002811DB2C48C0430540E5602B46324611
:1011E000494638461CF02CFAA16920F00042B21A98
:1011F00011440028A16103D02046FFF7CFFF4046ED
:10120000BDE8F08770B504460569C06A6168884228
:1012100000D80846E16821F42011E160C90312D525
:10122000A84208D02246411B2846FFF7C1FF10B153
:101230004FF0FF3070BD0020E562C4E90150E06866
:1012400020F48030E060002070BD10B50446C06816
:1012500020F02000E060A16AA06988420DD02046FD
:10126000FFF7D0FFE06820F4405040F01000E0604D
:10127000A06AA0612069E062606044F24001E06819
:101280008843E06010BD0000100002002DE9F04727
:1012900004461E4690460D46C7684C3081461CF0F9
:1012A00043F8B80714D0780212D44046B8F5807FCE
:1012B00009D0B0F5007F06D0B8F5806F08D10126BF
:1012C00004F1240506E0701E6FF07F41884201D3CF
:1012D000012409E02561E6616560E06820F4706042
:1012E00040EA0800E060002448461CF09DF82046D3
:1012F000BDE8F08710B565485421FFF771FC6448DC
:101300005421FFF76DFC63485421FFF769FC6248E4
:101310005E49624A624B01605D4810605D4A1A6036
:10132000431C0B65511C01650120106557484C306A
:101330001CF028F856484C301CF024F855484C3026
:101340001CF020F857481CF01DF858484F4A56A189
:101350007844FFF7F7FA20B9544878440A3800F087
:1013600038FA54484A4A52A17844FFF7EBFA20B9B8
:10137000504878440A3800F02CFA4F48454A4CA1AE
:101380007844FFF7DFFA20B94B4878440A3800F078
:1013900020FA40233D48DC0000212246FFF776FF7B
:1013A00020B142487844543800F013FA38482246B5
:1013B00040230021FFF76AFF20B13E4878445438AB
:1013C00000F007FA3348224610230021FFF75EFFA2
:1013D000002806D038487844BDE81040563800F060
:1013E000F8B910BD2B482DE9F041006D2D4E20F0CD
:1013F000010430461BF098FF244D4C3528461BF065
:1014000093FF2248FFF784F928461CF00DF8284680
:101410001BF098FF1E4D4C3528461BF085FF1C48DD
:10142000FFF776F928461BF0FFFF28461BF08AFFDE
:10143000184D4C3528461BF077FF1648FFF768F922
:1014400028461BF0F1FF28461BF07CFF14E0206DBE
:1014500020F0010504F14C0007461BF065FF204613
:10146000FFF756F938461BF0DFFF38461BF06AFFDE
:101470002046FEF7C6FF2C46002CE8D130461BF074
:10148000D3FF08481BF05EFFBDE8F0813C0300205D
:1014900090030020E4030020E0000020E40000208E
:1014A000E8000020EC00002072000000184F04004B
:1014B00077000000074F0400E04E040010B5002044
:1014C00000F080F9AFF30080BDE8104001201BF070
:1014D000BFBF801A0844401E491E8843104470470D
:1014E00070B5144605468C464368002B18BF63450B
:1014F00038BF1846F8D302681044604508D06646E5
:10150000604604220821FFF7E4FF811B8446641A29
:101510002946CCF80040BDE8704000220CF10400E0
:10152000FEF73EBF70B504460D4D28461BF0FCFE8D
:1015300003E044F021F9401C0ED0094914F8010BD6
:101540004C390028F5D10A2044F016F90446284603
:101550001BF06AFF204670BD4FF0FF34F7E7000034
:10156000DC0300202DE9FF4F06461C468B4681B068
:1015700003F14C0000901BF0D7FEBBF1000F06D02A
:1015800003992768002528460BFB01F963E0002436
:101590007AE0002F61DCE06948453FDABAF1000FDC
:1015A0003CD0207B800601D5A06A04E0A169606878
:1015B00008442169401A2246A9EB050180463046BD
:1015C000FFF7E4FB002812DD8044A8F10101064486
:1015D000A161226916F8011C0027054411702169D8
:1015E000491CE1626160E16841F40031E160411C45
:1015F00003D010B1207B400642D52046FFF7E1FB27
:10160000C4F8188020696060E062E068276020F418
:101610000030E060E0694042A06018E0484503DA2D
:10162000E06840F40000E0602046FFF7DEFBE16880
:1016300021F40001E160411C08D0811C0AD0276818
:10164000002807DB6D1C06F8010B19E02760B5FBCD
:10165000FBF419E00120824612E0A9EB0500B84630
:10166000B84200DA8046304642466168FFF70FFA1A
:101670006168A7EB0807464401EB08004544606039
:101680004D4586DB2760039C00981BF0CDFE05B01E
:101690002046BDE8F08F2DE9F05F0E4680461C46DF
:1016A000924602FB06F503F14C0083461BF03CFE1C
:1016B00016B3A768002041E0002F41DCE069A84292
:1016C0001CDAB9F1000F19D0224629464046FFF72F
:1016D0006FFD08B1A76029E0E06810F4C06F01D089
:1016E000002008E022696168891AE269511AC00382
:1016F000A16001D44842A060544618E0A84203DA31
:10170000E06840F40000E060214698F80000FFF730
:101710005AFCE16821F40001E160411C06D0A76891
:1017200000280ADB6D1E08F1010818E00024584665
:101730001BF07AFE2046BDE8F09F012081460EE0B6
:10174000AF423E4600DD2E46414632466068FFF716
:101750009EF96068BF1BAD1B3044B0446060002D33
:10176000AADCA760C8E700002DE9F0470746134848
:1017700081461BF0D9FD124C40F2022817E094F884
:101780005000C00710D0BC420ED004F14C052846D2
:101790001BF0CAFDE66828461BF046FE38EA060044
:1017A00002D12046FFF72CF8206D20F00104002C18
:1017B000E5D148461BF038FEBDE8F087EC0000207C
:1017C0003C03002010B500F01FF8BDE8104000F009
:1017D00016B810B500F030F8BDE8104000F00FB8B2
:1017E00010B500F043F8BDE8104000F008B810B59F
:1017F000FFF777FA0068BDE8104000F05FB80028F6
:1018000001D01BF025BE704710B5002102A000F0EA
:101810005AF8012010BD0000534947414252543A42
:101820002041626E6F726D616C207465726D696EBD
:101830006174696F6E00000010B5014602A000F0EF
:1018400042F8012010BD000053494752545245440C
:101850003A2052656469726563743A2063616E2749
:1018600074206F70656E3A200000000010B50128EA
:1018700005D0002103A000F026F8012010BD09A129
:10188000F8E7000053494752544D454D3A204F75F3
:1018900074206F662068656170206D656D6F727968
:1018A000000000003A2048656170206D656D6F7220
:1018B0007920636F727275707465640010B50C30B6
:1018C0001BF040FD10BD70B505460C460A2000E037
:1018D0006D1C1BF08DFF35B128780028F8D102E08F
:1018E000641C1BF085FF14B120780028F8D1BDE8F6
:1018F00070400A201BF07CBF83B080B583B0844663
:1019000005A840F2903E0EC005ABC2F2000E0020CA
:101910006FF0004162460293CDF800E03AF076FEA7
:1019200003B0BDE8804003B07047000080B540F2CE
:10193000000240F2000147F60050C0F20002C0F27F
:101940000001C2F20000914218BF08464FF6004164
:10195000C2F2000118BF1146FEF71AFC80BD00005C
:10196000002070470020704700207047002070471B
:10197000002070470020704700207047002070470B
:101980000020704780B582B04FF0000CCDF800C049
:101990003AF03CFE02B080BD43F28811C2F2000171
:1019A0000865704780B51CF061F8008880BD0000B4
:1019B00080B589B391F90200B0F1FF3F08DDC0B2F4
:1019C00060280ED343F28810C2F20000806B17E04B
:1019D00043F28810C2F20000026C002A08BF80BDEA
:1019E0000FE0402805D343F28810C2F20000C06B1C
:1019F00006E0202808D343F28810C2F20000406BB2
:101A000082680846904780BD43F28810C2F2000009
:101A1000006B82680846904780BD000080B543F2A5
:101A20008811C2F2000181F8540046F2842046F683
:101A3000B022C0F20400C0F20402C1E90C00C1E906
:101A40000E224DF6A1314DF65932C0F20101C0F21D
:101A50000102042004F03AFA4DF68921C0F2010196
:101A6000002002F093FA80BD1B296FF00A0202D019
:101A70001D2918BF002280B510440BF039FF80BD2E
:101A800010B582B040F2E021C2F20001096843F2D1
:101A90008812C2F200028C88D06403F04DFA043838
:101AA000A04207DA002400207721002202230094BC
:101AB0001CF032F802B010BDB0B582B004460A2066
:101AC0000D461CF091F860B10346022018801820E2
:101AD00018725D720025204600210C2200951CF032
:101AE0008BFC02B0B0BD00002DE9F04782B0DDF8FC
:101AF0002890804609F10F0080B21D4617460C461B
:101B00001CF072F8C8B1064609F10700DDE90B1AAE
:101B1000308006202A0A307206F10F00B2734A465E
:101B20007480B7807573FEF7B2FF404621460322EA
:101B30003346CDF800A01CF05FFC02B0BDE8F08792
:101B4000F0B581B006460D201C4617460D461CF028
:101B50004BF860B103460520188004201872304607
:101B6000294602225D809F8000941CF045FC01B054
:101B7000F0BD000010B5013880B200211CF07CF8E7
:101B8000D0B104460068807800F01200102813D10C
:101B900009201CF029F8002808BF10BD0346206862
:101BA0000122817801F0EF0181701E2018722068F7
:101BB0000189042004F0DEF810BD0000B0B543F246
:101BC000881CC2F2000C43F2E0109CF854E0C2F210
:101BD000000000210122C0F82C1180F8302100BF44
:101BE0000CEB011201310023002400BFC518C250C4
:101BF0002C3385F82840582B04F1010485F824E0A3
:101C0000A98385F82910F1D1032900F15800E7D103
:101C100046F2A020C0F20400CCF83000B0BD0000B5
:101C2000B0B582B004460B200D461BF0DDFF70B14D
:101C300003460320188002201872280A5D729872E9
:101C4000002520460021012200951CF0D5FB02B0A2
:101C5000B0BD00002DE9F04782B08046DDE90B09F8
:101C60000C46B9FA89F1B0FA80F04909400950EA06
:101C700001054FF00D0018BF03F10D0080B21E46A4
:101C800092461CF079F9F8B1074600680A99068077
:101C90003868A0F802A04FF0160038724FEA1420FE
:101CA0007C72B87235B107F10D0528463246FEF751
:101CB000EEFE294638680B224160404621463B46ED
:101CC000CDF800901CF098FB02B0BDE8F087000052
:101CD0002DE9F04381B0804603F10D001F46154603
:101CE0000C461BF081FFA8B10646781DDDE90819F6
:101CF00030801020307206F10D003A467480B580B5
:101D0000FEF7C5FE4046214608223346CDF8009036
:101D10001CF072FB01B0BDE8F08300002DE9F04338
:101D200081B0804603F10D001F4615460C461BF09E
:101D30005BFFA8B10646781DDDE908193080082050
:101D4000307206F10D003A467480B580FEF79FFEB2
:101D50004046214604223346CDF800901CF04CFB4F
:101D600001B0BDE8F083000043F2E01046F23831E4
:101D7000C2F20000C0F20401C0F82C11704700004C
:101D80002DE9F04782B0DDF828801D4691460C46CB
:101D9000064602F017F940B1304621462A4643462E
:101DA00000F026F802B0BDE8F08705F1170080B218
:101DB0001BF01AFFC8B1074605F10F003880D2208A
:101DC0003872200A07F10B0AB872504641462A467B
:101DD0007C72FEF75CFE4AF80590002530462146ED
:101DE00011223B4600951CF007FB02B0BDE8F087CE
:101DF0002DE9F04182B0804602F10B0080B21F460F
:101E000015460C461BF0F0FEA8B10646E81C3080D3
:101E10005220210A307206F10B00B17239462A466F
:101E20007472FEF734FE0027404621460A223346EC
:101E300000971CF0E1FA02B0BDE8F0812DE9F04115
:101E400082B0804602F10B0080B21F4615460C4658
:101E50001BF0CAFEA8B10646E81C30801220210AF9
:101E6000307206F10B00B17239462A467472FEF7E1
:101E70000EFE0027404621460922334600971CF0FB
:101E8000BBFA02B0BDE8F08110B504460BF0FAFDD4
:101E900043F2143CC2F2000CDCF8201169B1238A31
:101EA0000A8A934202D2002208E000BF0A4609686B
:101EB00021B1088A8342F9D200E000220CF590702B
:101EC00021460BF07FFD01201CF0C8FE0BF0F6FD53
:101ED00010BD000043F21431C2F20001C1F830011C
:101EE0007047000080B51CF001FD80BD2DE9F04178
:101EF0000C4606461CF0CCFC48B30546F4B143F250
:101F00004C48C2F2000898F8140000B300270AE019
:101F1000013798F81410F8B20234884205F102052E
:101F200028BFBDE8F081208828802388002BEFD0CF
:101F3000F9B2304600221CF0C1FCE9E743F24C4004
:101F4000C2F20000007D41002846FEF727FEBDE8F2
:101F5000F081000043F24C43C2F200031875C3E95C
:101F6000031243F214304EF62511C2F20000C0F203
:101F70000101C0F83411704743F26441C2F200011C
:101F800001EB400010F8010C70470000012A88BFE7
:101F9000704780B543F26443C2F2000303EB400094
:101FA000831E08461946FEF772FDBDE88040704763
:101FB00040B143F26442C2F2000202EB400000F87A
:101FC000011C10E043F2644C6FF00100C2F2000CFF
:101FD0000CEB0003DA780230022A0A4608BF01221D
:101FE0000428DA70F4D1704780B51EF05DFA0068FD
:101FF00080BD000080B543F28810C2F2000043F2B9
:10200000143C90F854E0C2F2000C0022634600BF7A
:1020100001326FF01F0100BF58182C31382980F8A9
:102020002CE08284F8D1032A03F15803F0D146F260
:102030005030C0F20400CCF8280180BD80B543F2D6
:102040001431C2F2000146F284224DF6113343F2FC
:10205000881C0020C0F20402C0F20103A1F12C0E82
:10206000C2F2000CC1E94800C1E94A230CEB00139D
:1020700001300022714600BF81F851200132CB634C
:1020800081F85000022A01F12C01F5D103280EF14C
:10209000580EEBD146F24030C0F20400CCF83400C8
:1020A00080BD000010B504460BF0ECFC43F2143088
:1020B000C2F20000D0F8201171B10A8AA24201D107
:1020C000002205E00A46096831B10B8AA342F9D122
:1020D00000F590700BF0A4FC01201CF0BFFD0BF08C
:1020E000EDFC10BD70B582B015460C4606460BF0EF
:1020F000C9FC01A930461CF0C9FE28B106468089FA
:10210000A04203D20D240CE00A240AE0706829469C
:102110002246FEF7BCFCB07B000744BFB0680480D9
:1021200000240BF0CBFC204602B070BDB0B51446C5
:102130000D461EF0B9F945600473B0BD10B50C46EC
:102140001EF0B2F9046010BD43F27440C2F2000008
:102150000021C0E90C1143F2143040F2B941C2F23F
:102160000000C0F20201C0F82C1140F2741040F2DD
:102170005911C2F20000C0F2020141647047000030
:1021800047F27C31C2F2000109688968814228BFA8
:1021900070476FEA5102824201F101029CBF104474
:1021A000704749081144814228BF801A70470000D7
:1021B00080B542F2D12142F2FD02C0F20201C0F22A
:1021C000020203201EF054FC43F2AC40C2F20000B5
:1021D0000021C0E90011C0E90211C0E90411C0E901
:1021E000061180BD80B542F22131C0F20201072004
:1021F00000221EF03DFC42F2FD31C0F20201082037
:1022000000221EF035FC43F2D450C2F2000024211B
:10221000FEF7E6FC80BD000080B541F26D31C0F2F2
:102220000201062000221EF023FC43F2F850C2F205
:1022300000003421FEF7D4FC80BD000080B541F2DF
:10224000D13141F2A512C0F20201C0F20202042013
:102250001EF00EFC43F28070C2F200000021C0E9C3
:102260000011C0E90211C0E90411816180BD0000C4
:1022700080B542F2A93142F20512C0F20201C0F269
:10228000020205201EF0F4FB43F28070C2F200004F
:102290000021C0E90011C0E90211C0E90411816107
:1022A00080BD00002DE9F04182B041F20015C4F27A
:1022B0000005D5F80402C00728D0286830B30020F4
:1022C000286028684FF20450C4F201004FF48041A6
:1022D000416047F6E820C2F200000178012906D1EA
:1022E00041F25051C4F2000109680A2909D001786D
:1022F00002297AD141F25051C4F200010968022941
:1023000073D13DF045F802B0BDE8F081D5F8040284
:10231000400749D5A868002846D00020A86048F2A8
:102320004416A868C4F200064FF4003048F2405446
:10233000C6F8C4010820C4F200041AF0CFFD022040
:10234000C5F8000143F6D420C2F20000017801294B
:1023500040F0F28043F6CE62C2F200021378032B03
:1023600040F0B68043F66E40C2F2000000781821BB
:10237000022808BF0C210128A06808BF18210844C2
:1023800000F16A014FF204522160A5F1FC01C4F290
:102390000102C2F880104FF48041C93011606060C2
:1023A000002030603068EBE0D5F80402000740F10F
:1023B0001481E868002800F010810020E86043F6EE
:1023C000CE66E868C2F20006307803282DD10220DC
:1023D00030703DF013F843F66840C2F20000016827
:1023E0000020884702B0BDE8F08143F6CE61C2F21A
:1023F00000010A78032A18BF02780978042903D05B
:102400000178022940F0F78000226A6048F2441106
:102410006A68C4F200014FF40032C1F8C0210A68B2
:10242000002A1CBF01220A60E5E03078042840F051
:10243000D48043F67440C2F20000006848F2405174
:1024400043F61042C4F20001C2F2000240788968EB
:1024500012783823022A18BF032200FA02F041F250
:10246000505708BF20231844C4F20007081A57F831
:10247000084CA0F1090809F047F904F07F0108446D
:102480000221317043F61141C2F200010E7847F685
:10249000E921C2F20001097843F66F42C2F200025C
:1024A000002908BF3146117043F60C42C2F2000207
:1024B000D5F8001315684FF6BC62CFF6FF72BA5814
:1024C000C907C0F1000041B240F09A80042098E0B2
:1024D000012931D11278042A2ED143F61040C2F2DC
:1024E0000000007843F66E420146C2F20002022864
:1024F00018BF6FF0010192F800C043F67042A36864
:10250000C2F2000292F900E07D22022808BF712287
:10251000D0180844BCF1020F08BF013070444FF2DC
:1025200004512060A5F58070C4F20101C1F880005B
:102530004FF48040086041E0022945D143F6CE6265
:10254000C2F200021378042B20D1D0E901104FF21F
:10255000045233392160A5F1FC01C4F20102C2F832
:1025600080104FF4804111602168002801F17D0145
:1025700061604FF000013160316818BF3CF040FEEF
:1025800047F6E820C2F2000002211CE002291BD11C
:102590001178032918D1D0E901104FF204522839DB
:1025A0002160A5F58071C4F20102C2F880104FF4D9
:1025B00080410028116018BF3CF022FE47F6E82059
:1025C000C2F2000001210170012046F8F80C2068D9
:1025D000E168401AB0F1FF3F02DD02B0BDE8F081D2
:1025E0004FF20450C4F201004FF48041416047F6BD
:1025F000E820C2F200000021017002B0BDE8F081C5
:10260000002043460096A84702B0BDE8F0810000D4
:1026100080B582B048F20830C4F200004FF40031B7
:10262000016041F20410C4F20000006808B102B079
:1026300080BD3CF0ADFE43F60C40C2F20000D0F885
:1026400000C04FF0000E0320002100220023CDF82F
:1026500000E0E04702B080BD2DE9F04F87B00646AC
:102660008A460888317CC840C00762D043F2C46102
:10267000C2F200014888984601304880D6E900013E
:10268000994649F8080FD960C8E90001B07C1D4699
:10269000DAF8041005F8130F14469874C1F380108B
:1026A00011462A464B461EF055F902284FF0000B02
:1026B00000F0BD800694012808BF4FF0010BDAF846
:1026C0000400DAE904742978D9E90023CDE9027419
:1026D000C0F3C0070097C0F380001EF0DBF8BAF823
:1026E0000210327C074621FA02F02978D9E900234A
:1026F00000F001001EF092F9874224D9DAF80400B4
:10270000DAE904742978D9E90023CDE90274C0F329
:10271000C0070097C0F380001EF0BCF800B301288A
:1027200024D0022824D1BBF1000F21D04FF0000BA0
:102730007DE043F2C460C2F2000001884FF0000B5C
:102740000131018073E0BAF80200317CD9E900233D
:10275000C840297800F001001EF060F90028DED1A1
:10276000BBF1000F08BF4FF0010B01E04FF0010B70
:10277000707C0121800788F814B088F8151002D405
:102780004FF0010B53E0F77CD6E90264DAF804005D
:102790002978D9E90023CDE90423CDE90064029129
:1027A000C0F3001006993A461EF096F883460128B9
:1027B00006D0BBF1020F05D100204FF0000B32E034
:1027C000002030E00AF1040207CACDE90212C0F38A
:1027D000400500F0010039463246234600951EF0C0
:1027E00037F8022812D14FF0000067B104F44041DD
:1027F00091F4804F4FF0000B15D19AF80400800639
:102800004FF0000004D44FF0000B0CE001200AE070
:1028100043F2C462C2F20002118C4FF0010B01318D
:10282000118488F81500002818BF4FF0010B5FFADB
:102830008BF007B0BDE8F08F70B582B008F0B8FB40
:1028400040F2D57540F2417440F6B536C0F202054B
:10285000C0F2020440F68133C0F20206C0F2020365
:10286000012029462246009601F042F840F69133B5
:10287000C0F20203022029462246009601F038F8F1
:1028800040F6BD3640F6A133C0F20206C0F20203A4
:10289000032000212246009601F02AF840F6490163
:1028A000C0F20201012001F033F843F22C60C2F2C1
:1028B00000009821FEF794F902B070BDB0B543F264
:1028C000EA6CC2F2000C00258CF8005043F2EB6C6D
:1028D0008C07C2F2000C0C468CF8005001F1040E7B
:1028E00018BF2EF0030404EB0013591A47F270339B
:1028F000C2F2000391421C609CBF8CF800000D46A0
:10290000A8B2B0BDB0B543F2F06CC2F2000C002525
:102910008CF8005043F2F16C8C07C2F2000C0C46AC
:1029200000EBC0038CF8005001F1040E18BF2EF02C
:10293000030404EBC303591A47F27433C2F20003D1
:1029400091421C609CBF8CF800000D46A8B2B0BD3F
:1029500010B543F2F36CC2F2000C4FF0000E43F2DC
:10296000F2638CF800E043F2F46CC2F200038C07CF
:10297000C2F2000C83F800E001F104030C468CF86D
:1029800000E018BF23F0030404EBC003591A47F218
:102990007833C2F2000391421C609CBF8CF80000A7
:1029A0008E461FFA8EF010BD2DE9F04F8BB0074612
:1029B00000788A4600F00F080888012101FA08F91A
:1029C00019EA000F0DD0144643F2C462C2F20002AD
:1029D00051887878013119F4C07F51800AD00126DE
:1029E000EDE043F2C460C2F200000188002601312C
:1029F0000180E4E000F03F0083F81080587438460E
:102A000010F8021B1D46C1F3801601F011F82B4689
:102A100043F8080FE960C5E90001DAF804002A4626
:102A200002F8136FAE74C0F3801021460A929B46E1
:102A30001DF090FF02284FF0000600F0C080CDE9A5
:102A40000745012808BF01260A9DDAF80400DAE9E3
:102A5000044C2978DBE90023CDE9024CC0F3C00423
:102A60000094C0F380001DF015FFBAF80210CDF8F5
:102A700024B0044619EA01002978DBE9002318BFD5
:102A800001201DF0CBFF844215D9DDF828B0DDF818
:102A90002490DAF80400DAE9044C9BF80010D9E934
:102AA0000023CDE9024CC0F3C0040094C0F38000C1
:102AB0001DF0F0FE0FE0BAF80200DDF828B010EAD1
:102AC0000900DDF824909BF80010D9E9002318BF15
:102AD00001201DF0A3FF089D30B1012808D0022875
:102AE00007D136B100266AE0002E08BF012600E0BB
:102AF00001260120B8F1050F2E75687526D800FA59
:102B000008F010F02A0F21D017F8088B38464FEA4A
:102B1000D81400F08DFF0746DAF804009BF8002077
:102B2000D9E900368946CDE90436CDE90071029233
:102B3000C0F30010079922461DF0CEFE064601287C
:102B400006D0022E06D10020002635E0012636E010
:102B5000002031E00AF1040207CACDE90212C0F3F5
:102B6000400600F0010021463A464B4600961DF013
:102B70006FFE022815D14FFA88F0B0F1FF3F4FF0F9
:102B800000000CDC09F4404191F4804F4FF0000646
:102B900012D19AF8040080064FF0000003D40026FA
:102BA0000AE0012008E043F2C462C2F20002118C84
:102BB0000126013111846875002818BF0126F0B282
:102BC0000BB0BDE8F08F0000B0B546F25032C2F253
:102BD000000292F8EBC081F800C092F8EAE092F8A7
:102BE000EB30734508D1D2E936E3D2E9385463407B
:102BF00085EA0E052B4302D04CF002030B70D2E99C
:102C00003812C0E90012B0BDB0B590F813C082F818
:102C100000C090F812E0C37C734508D1D0E900E30E
:102C2000D0E90254634085EA0E052B4302D04CF0F4
:102C300002031370D0E90202C1E90002B0BD000036
:102C4000B0B590F813C082F800C090F812E0C37CD1
:102C5000734508D1D0E900E3D0E90254634085EA26
:102C60000E052B4302D04CF002031370D0E9020290
:102C7000C1E90002B0BD0000B0B545F2D062C2F2B9
:102C8000000292F86BC181F800C092F86AE192F8F4
:102C90006B31734508D1D2E956E3D2E95854634009
:102CA00085EA0E052B4302D04CF002030B70D2E9EB
:102CB0005812C0E90012B0BDB0B590F813C082F848
:102CC00000C090F812E0C37C734508D1D0E900E35E
:102CD000D0E90254634085EA0E052B4302D04CF044
:102CE00002031370D0E90202C1E90002B0BD000086
:102CF000B0B590F813C082F800C090F812E0C37C21
:102D0000734508D1D0E900E3D0E90254634085EA75
:102D10000E052B4302D04CF002031370D0E90202DF
:102D2000C1E90002B0BD0000B0B590F813C082F850
:102D300000C090F812E0C37C734508D1D0E900E3ED
:102D4000D0E90254634085EA0E052B4302D04CF0D3
:102D500002031370D0E90202C1E90002B0BD000015
:102D600080B546F25031C2F2000191F8EA2091F8A4
:102D7000EB3093424FF00002C0E900220AD1D1E9C2
:102D800036CED1E9383282EA0E0283EA0C031A43C6
:102D900008BF80BDD1E93612C0E9001280BD000035
:102DA00080B5827CC37C93424FF00002C1E90022CF
:102DB0000AD1D0E900CED0E9023282EA0E0283EADB
:102DC0000C031A4308BF80BDD0E90002C1E900022C
:102DD00080BD000080B5827CC37C93424FF000022E
:102DE000C1E900220AD1D0E900CED0E9023282EA5C
:102DF0000E0283EA0C031A4308BF80BDD0E900022B
:102E0000C1E9000280BD000080B545F2D061C2F288
:102E1000000191F86A2191F86B3193424FF0000262
:102E2000C0E900220AD1D1E956CED1E9583282EA6E
:102E30000E0283EA0C031A4308BF80BDD1E9561283
:102E4000C0E9001280BD000080B541F21D41C0F212
:102E50000201092000221DF00BFE43F6E430C2F20D
:102E600000002421FDF7BCFE80BD000070B543F2D8
:102E7000EA6C43F2EB61C2F2000CC2F200019CF872
:102E800000E009788E4524BF002070BD47F2703104
:102E9000C2F200010968049C01EB0E1528720EF1C4
:102EA00001004FEA0E166C728CF8000001208A5166
:102EB0006B6070BD70B543F2EA61C2F200010C783C
:102EC000FCB147F27034C2F200042468DDF810C08F
:102ED00091F800E004F10801002404E00134744595
:102EE00001F110010DD20D788542F7D151E902565A
:102EF0005E4055403543F1D14D786545EED1012016
:102F000070BD002070BD000043F2EA60C2F2000014
:102F1000002101707047000043F2EB60C2F2000034
:102F2000007870472DE9F04343F2EA6CC2F2000CDE
:102F30009CF80010A9B347F27037C2F20007D7F827
:102F400000E0DDF81C809CF800900EF108040025DC
:102F500005E000BF013510344D45494621D22678A1
:102F60008642F7D154E902675F4056403E43F1D1B3
:102F700066784645EED1C8B202280CD301388542A6
:102F800009D00EEB00121389000123805EF80000C7
:102F9000526844E90202481E8CF800000120BDE896
:102FA000F0830020BDE8F083F0B581B01E461546E1
:102FB00007461DF01DFC0446B0B943F2F06043F231
:102FC000F162C2F20000C2F200020178127891426E
:102FD00056D247F27432C2F20002126801EBC1030A
:102FE00002EBC30401310170002C4CD0DDE9061066
:102FF00046EA0742C4E908520A684B688F68C96804
:103000002260E16001216360A76084F84010002124
:10301000625C22B90E2901F10101F9D902E0002117
:1030200084F84010016842688368C768204640F809
:10303000101F0121C7608360426080F831100021B9
:103040006218127C22B90E2901F10101F8D902E0BF
:10305000002184F8411094F8411000294FF000013C
:10306000A4F84210C4E90A11C4E90C11C4E90E1114
:1030700003D11DF009FEC4E90C01012001B0F0BD2F
:103080000024002CB2D1002001B0F0BD2DE9F041A8
:1030900082B0DDE908781446064610463A464346B3
:1030A0000D461DF0A5FB20B190F8411019B1002488
:1030B00023E0002421E0D0E90E016940704008437C
:1030C00001D1012419E043F2EC60C2F20000D0F813
:1030D00000C0BCF1000F0FD043F2C460C2F2000088
:1030E000818C002201318184304629462346CDE976
:1030F00000780024E04700E00024204602B0BDE84C
:10310000F0810000F0B583B043F2F066C2F2000631
:1031100035786DB347F27435C2F200052D6896F824
:1031200000C005F1200400254FF0000E08E04FF02C
:10313000010E0126CEB10135654504F1480419D2CE
:1031400094F82060002EF4D1D4E902674F40464045
:103150003E43ECD1A67906F0010616702668A788D2
:10316000C3E900670026002EE5D14FF0010C1EE0F8
:103170004FF0000EBEF1000F4FF0000C17D043F2DD
:10318000EC67C2F200073D688DB143F2C467C2F23A
:1031900000077E8C01367E8492F800C0D3E90027B8
:1031A0006346009201220197A8474FF0000C604649
:1031B00003B0F0BD43F2F060C2F2000000210170E4
:1031C00070470000B0B51DF013FB18B1044690F82D
:1031D000400008B10020B0BD94F84200049D38B909
:1031E00020461DF051FDC4E90A01012084F8420087
:1031F000D4E90A01C5E900010120B0BD80B51DF088
:10320000F7FA28B1029990F843000870012080BDB8
:10321000002080BD43F2F160C2F2000000787047E8
:103220002DE9F04381B043F2F068C2F2000898F84B
:10323000000050B347F274390026C2F2000901259C
:10324000002708E084F8445098F8000001378742CE
:1032500006F1480619D2D9F80000841994F8410003
:1032600028B904F110001DF00FFDC4E90C0194F819
:1032700040000028E6D194F842000028E2D0204621
:103280001DF002FDC4E90A01DCE701B0BDE8F083EE
:1032900070B51446DDE90423054620460E461DF0B0
:1032A000A7FA10B190F8411009B1002070BDD0E923
:1032B0000E0171406840084304BF012070BD00202A
:1032C00070BD000080B51DF093FA014600284FF054
:1032D000000008BF80BD91F8442081F844001046EA
:1032E00080BD000080B51DF083FA60B1D0E90C12FA
:1032F00011431CBF032080BD90F84110012000291C
:1033000008BF022080BD002080BD000080B51DF0F8
:103310006FFA60B1D0E90A1211431CBF032080BDCF
:1033200090F840100120002908BF022080BD002035
:1033300080BD000080B51DF05BFA00281CBFD0E9FD
:103340000C0150EA010201D1002080BD029AC2E9BD
:103350000001012080BD000080B51DF049FA002861
:103360001CBFD0E90A0150EA010201D1002080BD52
:10337000029AC2E90001012080BD0000B0B51DF035
:1033800037FAB8B143F2F064C2F200042578022D96
:103390000CD347F27431C2F20001096805EBC50293
:1033A00001EBC20148394822FDF7B6FB681E2070C8
:1033B0000120B0BD0020B0BD2DE9F0410C461178D0
:1033C000D3E90023054608461DF012FA43F2C4680B
:1033D000C2F2000808F1140728B1064690F841002F
:1033E00018B1002018E0002016E0D6E90E01614077
:1033F0006840084304BF0120BDE8F08106F11000D9
:103400002A4623461FF03EF900280FBF0020C6E9D8
:103410000E5408F116070120398801313980BDE8C2
:10342000F08100002DE9F04F81B043F2F065C2F267
:1034300000050F462978002953D047F274369A4682
:103440008346C2F200064FF000094FF0000800BFAB
:10345000306800EB090494F8400018B1002080B3F4
:103460004AE000BFD4E90A01794080EA0B00084332
:1034700019D02E46154620465A463B461FF002F903
:1034800038B343F2C461C4E90AB7C2F20001488A02
:10349000002284F842202A46354647F2743601302D
:1034A000C2F20006488294F8260000F00100107075
:1034B000206AA18CCAE900010120002808BF002071
:1034C000D0B9287808F10108804509F14809BFD32F
:1034D00007E02A46354647F274360020C2F200065D
:1034E000EBE743F2C461C2F20001088A01300882AE
:1034F000002001B0BDE8F08F012001B0BDE8F08FE1
:1035000043F2EC61C2F200010860704780B51DF023
:103510006FF900280FBF0020029980F843100120A6
:1035200080BD000080B51DF063F930B10299D1E98A
:103530000012C0E90C12012080BD002080BD0000F7
:1035400070B543F22C66C2F200060C460546C6F87A
:103550008C00A6F8881000F085F9806A00780528AC
:103560000AD196F87000002818BF70BD1DF0D2FA7D
:103570002846214607F07AFD70BD000080B541F273
:10358000794141F2D512C0F20201C0F202020220DA
:103590001DF06EFA43F61840C2F200002821FDF734
:1035A0001FFB80BDB0B542F22D5442F2D541C0F2AE
:1035B0000204C0F202010020224600251DF058FA44
:1035C00042F28541C0F20201012022461DF050FA6C
:1035D00043F64040C2F20000C0E90055C0E9025580
:1035E000C0E904558561B0BD2DE9F0410C460546A2
:1035F00000F038F9806A007804280ED143F22C607C
:10360000C2F2000090F8700038B91DF083FA284625
:10361000214607F00BFEBDE8F08143F28078C2F24C
:103620000008B8F8166007F087FE43F6D027C2F20C
:1036300000073968401AB04202D2B8F8160003E019
:1036400007F07AFE3968401AA8F816001DF062FAF1
:103650002846214607F034FEBDE8F08170B51D46CE
:103660001446064600F02AF808B1012070BD43F266
:10367000F36043F2F462C2F20000C2F20002017889
:103680001278914224BF002070BD47F27832C2F216
:103690000002126845EA064302EBC10642F83140D7
:1036A000013173600170012070BD000043F2F260CF
:1036B000C2F20000012101707047000010B543F212
:1036C000F36EC2F2000E9EF80010B1B143EA004C56
:1036D00047F27830C2F2000001689EF800E0002056
:1036E00001EBC00351F830405B68544083EA0C039F
:1036F000234304D001307045F2D3002010BD0120D7
:1037000010BD000043F2F360C2F20000002101701E
:1037100043F2F260C2F200000170704743F2F460BD
:10372000C2F200000078704743F2F260C2F200007B
:1037300000787047F0B543F2F36CC2F2000C9CF8CD
:103740000010C9B143EA004E47F27830C2F20000DF
:1037500000689CF800300024E6B200EBC60550F883
:1037600036606F68564087EA0E073E4306D0013444
:10377000E1B299421946EFD30020F0BDCAB2022A45
:1037800005D300EBC20050E90202C5E90002481E61
:103790008CF800000120F0BD43F2F260C2F200009C
:1037A000002101707047000010B543F2F864C2F2C6
:1037B00000042068002808BF10BD417D01EB4101D5
:1037C00004EBC101C968002918BF884700202060A8
:1037D00010BD0000B0B543F2F865C2F20005044622
:1037E000286095F881000021002885F8821008BF24
:1037F00007F09AFD95F8810030B195F88000617D61
:10380000814218BF1EF064F995F8810010B9607DFF
:103810001EF048F9607D00EB400005EBC0008168B8
:1038200009B12046884795F8820000281CBF002077
:103830002860B0BD47F27C30C2F2000000688068AA
:103840007047000043F2F860C2F2000090F8820076
:103850007047000047F27C30C2F200000068008828
:103860007047000043F2F860C2F200000068704741
:1038700047F27C30C2F200000068C0887047000048
:10388000B0B50D46FEF77CFC04462846FEF778FCF2
:1038900047F27C31C2F20001844207D90968201A3C
:1038A0008968B0EB510F88BF0020B0BD0968001BCC
:1038B0008968B0EB510F92BF0020081A0130B0BDEB
:1038C00080B507F05BFD43F2F860C2F2000084218E
:1038D000FDF786F980BD000047F27C31C2F200019D
:1038E0000860704743F2F861C2F200014860704717
:1038F00080B500EB400E43F2F860C2F2000000EB2E
:10390000CE000830DDF808C080E80E1080BD000051
:1039100043F2F86200EB4000C2F2000202EBC0008A
:103920008161704743F2F860C2F20000016800292B
:103930001CBF012180F8821070470000B0B543F22F
:10394000F865C2F2000595F88110044621B907F028
:10395000EBFC20461EF0A6F804EB440005EBC0008B
:10396000C1690131C161B0BD80B543F2F86100EBBE
:103970004002C2F2000101EBC202D369013BD361F4
:103980000BD191F8812042B191F88010814218BF8B
:1039900080BD1EF09DF807F0BDFC80BD10B543F260
:1039A000F864C2F20004206840B1407D00EB4000A2
:1039B00004EBC0008069002818BF804700206168C0
:1039C0002060012084F88200884710BD110A4170F0
:1039D000110C4FEA132C8170110E0270C17003712B
:1039E00080F805C070470000002201468280063042
:1039F0000A60704780B50622FCF7FEFFB0FA80F03F
:103A0000400980BD8A888280096801607047000093
:103A100080B582B00021ADF80410009169460622FD
:103A2000FCF7EAFFB0FA80F0400902B080BD000068
:103A300002688188104670470268416810467047E6
:103A400043F6CF20C2F200000078002808BF70477C
:103A50004FF20830C4F200000121016043F2BD7052
:103A6000C2F200004178FF2906D043F66C41C2F251
:103A70000001097841707047FEE70000D1F800C0EE
:103A80004B68CA688968C26081604360C0F800C042
:103A9000704700004A680968426001607047000092
:103AA00001390138102200BF11F801CF10F8013F91
:103AB000013A8CEA030C130680F800C0F4D1704779
:103AC00080B581B146F2843C013AC0F2040C00BFDB
:103AD00012F801EFC3B283EA0E035CF82330013918
:103AE00083EA1020F4D1C04380BD00002DE9F04FDF
:103AF00083B043F6784BC2F2000BDBF8040010B140
:103B000003B0BDE8F08F9BF8095000260DF10B08BB
:103B10000DF102090DF1040A002403E0032C04F165
:103B20000104EDD2E8B201358DF80B60022888BFA0
:103B30000025EFB2780050FA85F00BEB8000436A65
:103B40000196002BADF80260E8D040464946524647
:103B500098470028E2D001999DF80B00CBF804109B
:103B60008BF808008BF809501EF0EAFD9DF80B1049
:103B7000BDF80220019B38461EF026FE03B0BDE8CA
:103B8000F08F0000F0B581B043F67847C2F200072D
:103B90000D460646384668211446FDF721F82846AA
:103BA00021463E70BD81FC8100F03EF801B0F0BDC1
:103BB00080B543F67840C2F200004068002818BF84
:103BC00080BD0020FFF792FF80BD0000032888BF62
:103BD000704700EB400C43F67840C2F2000000EB67
:103BE0008C001C300EC0704743F67841C2F20001D1
:103BF000886170474EF60450CEF200004FF000612D
:103C000001607047B0B582B08DF807100DF1070064
:103C100001211C4615460FF01BFD204629460FF0DA
:103C200017FD284602B0B0BD7047000010B514461D
:103C300001294FF0000206D0052903D0022907D13F
:103C4000012200E0032211461A461EF08BFD224697
:103C5000104610BD0139C9B2022984BF0020704747
:103C600080B54FEAC10C40F20241C0F2050121FAD1
:103C70000CF1C9B2FFF7C6FF80BD000080B504207B
:103C800009F010FE002808BF80BD014643F62C5005
:103C9000C2F20000007B05228A7009F037FE80BD69
:103CA00080B509F0EFFE40F2C01046F6B401C2F252
:103CB0000000C0F2040101601FF044FA43F63060D6
:103CC000C2F2000000210160002001F0B1FF09F004
:103CD000F5FE80BD70B506460C200D4609F0E2FDEC
:103CE000002808BF70BD04460620A070601D29464C
:103CF0002671FFF787FE43F62C50C2F20000007BCE
:103D0000214609F003FE70BD2DE9F041074612205F
:103D1000984615460E4609F0C5FD002808BFBDE8C7
:103D2000F0810146022088700F717FB1002000BF32
:103D3000325C0B185A7135F8102001EB40042281D7
:103D400018F80020013087429A73F1D143F62C50C5
:103D5000C2F20000007B09F0D9FDBDE8F08100004F
:103D6000B0B5044608200D4609F09CFD002808BFA8
:103D7000B0BD0146032088700C713CB1081D6A1E5D
:103D800012F8013F013C00F8013FF9D143F62C50F5
:103D9000C2F20000007B09F0B9FDB0BDB0B586B03D
:103DA00094460A46DDE90A1E0C9C0125CDE9003146
:103DB00000216346CDF808E0049503941FF05CFDF4
:103DC00006B0B0BD10B5044609F05CFE43F6505194
:103DD00004EB4400C2F2000101EB001030F8224C69
:103DE00009F06CFE204610BD70B50446242015462F
:103DF0000E4609F057FD002808BF70BD0146192086
:103E0000887043F62C50C2F20000007B0E800D71CA
:103E1000CD704C7109F07AFD70BD000043F6505131
:103E2000C2F200010C31032207E000BF013A130681
:103E300001F1300104BF002070478B7A002BF5D0D0
:103E40000B888342F2D108797047000043F6505145
:103E500000EB4000C2F2000101EB001010F81A0C58
:103E60007047000080B509F00DFE40F2C01046F624
:103E7000141146F6C002C2F20000C0F20401C0F202
:103E80000402C0E9031246F69011C0F204018163F6
:103E900043F6445046F6CC01C2F20000C0F20401E1
:103EA000016043F6246046F67C11C2F20000C0F2C5
:103EB0000401016009F002FE80BD000043F650518C
:103EC00000EB4000C2F2000101EB00102A387047FD
:103ED00043F6505100EB4000C2F2000101EB00102C
:103EE00010F81C0C7047000043F6505100EB4000E6
:103EF000C2F2000101EB00101638704780B509F0DE
:103F0000C1FD43F6445046F6EC01C2F20000C0F297
:103F10000401416043F6246046F68011C2F20000BD
:103F2000C0F20401416009F0C9FD80BD80B586B0D2
:103F30009C460023CDE90033029204930022002323
:103F4000CDF80CC01FF098FC06B080BD43F6505170
:103F500000EB4000C2F2000101EB00103038704766
:103F600043F6505100EB4000C2F2000101EB00109B
:103F700010F81D0C7047000043F6505100EB400054
:103F8000C2F2000101EB001010387047B0B50C46CA
:103F9000054609F077FD43F65050C2F2000000EBF1
:103FA0008500C0F8904009F089FDB0BD43F650513E
:103FB00000EB4000C2F2000101EB001010F8170CFA
:103FC0007047000043F6505100EB4000C2F2000180
:103FD00001EB001010F8190C7047000010B50446F2
:103FE00009F050FD43F62C50C2F20000447309F072
:103FF00065FD10BD80B5014601201FF0D7FC80BDD6
:1040000070B516460C46054609F03CFD2846FFF7FC
:104010001DFF68B143F6505105EB4500C2F20001A7
:1040200001EB00103EB130F8221C214320F8221C85
:1040300009F044FD70BD30F8221CA14320F8221C79
:1040400009F03CFD70BD000080B50A460146012024
:104050001FF0C8FC80BD000080B509F013FD43F6D9
:10406000445046F60411C2F20000C0F2040181601F
:1040700043F6246046F68811C2F20000C0F2040143
:10408000816009F01BFD80BD80B5042009F00AFCA9
:10409000002808BF80BD014643F62C50C2F2000044
:1040A000007B38228A7009F031FC80BD80B50A4659
:1040B000014600201FF0C2FE80BD000010B504467E
:1040C00043F62C50C2F200002146FFF79BFC20462D
:1040D00001F02EFC10BD000080B509F0D3FC40F2C9
:1040E000C01046F6A801C2F20000C0F2040101604F
:1040F00046F60C21C0F20401816220F07BF920F029
:10410000FDFC43F6306045F20561C2F20000C0F2EA
:1041100000010160002001F07FFD4FF440500021BC
:10412000012201F05BFD09F0C9FC80BD80B509F0FA
:10413000A9FC43F6445046F6E401C2F20000C0F286
:104140000401416043F6246046F68011C2F200008B
:10415000C0F20401416009F0B1FC80BD2DE9F041DD
:104160000C46054600264FF001080020002708E015
:10417000062E88BFBDE8F081F8B2032806F10106DB
:104180000CD208FA06F22A42F2D000EB400004EB0F
:104190008001D0B21FF00AFC0137E9E7BDE8F081E9
:1041A0002DE9F04381B091460D46064600274FF0B9
:1041B00001080020002400BF08FA07F3334207D0AB
:1041C00035F8101039F81020D8B21FF00BFC01346C
:1041D000062F04D8E0B2032807F10107ECD301B0A1
:1041E000BDE8F08380B509F04DFC43F6445046F637
:1041F000F401C2F20000C0F20401816043F62460C1
:1042000046F68811C2F20000C0F20401816009F094
:1042100055FC80BD80B509F035FC40F2C01046F673
:104220003C21C2F20000C0F20401816020F08AFF4C
:1042300021F072F909F042FC80BD000010B5D1B147
:1042400092F800E04FF0000CBEF1000F11D08BB2DD
:1042500073450ED9144614F8013F9446834208D0A2
:104260006FEA0E0211440A0404EB0E02E8D14FF08B
:10427000000C604610BD002010BD000080B599B153
:1042800043F62C50C2F20000007C002818BF80BD0D
:1042900088787C2202EA500040F2C012C2F200028A
:1042A000105882680846904780BD000080B543F6EC
:1042B0002C51C2F2000108730020C875087444F63E
:1042C0007110C0F2020000F013FE80BD43F62C51C5
:1042D000C2F20001C97D002908BF7047022804BF4F
:1042E00000207047032808BF0120704780B50146B1
:1042F000032020F057FB80BD80B582B0ADF80410DC
:1043000043F65051C2F20001D1F89C107622ADF86C
:1043100006006846ADF80220884702B080BD000064
:1043200010B582B00C461FF0C7F938B173218DF873
:1043300002106946ADF804401FF0AAFC02B010BD9F
:10434000B0B584B00546084614461FF0B5F940B133
:1043500072218DF8061001A902948DF80C501FF0FF
:1043600097FC04B0B0BD000043F62C51C2F200012E
:10437000C97D002908BF7047002804BF022070478C
:10438000012808BF0320704710B50446062009F035
:1043900089FA002808BF10BD01465220887043F6F4
:1043A0002C50C2F20000007B0C7109F0AFFA10BD76
:1043B00010B50446062009F075FA002808BF10BDA4
:1043C00001465320887043F62C50C2F20000007B57
:1043D0000C7109F09BFA10BD80B509F053FB40F257
:1043E000C01046F61821C2F20000C0F2040141627A
:1043F0004FF410600021012201F0F0FB09F05EFB98
:1044000080BD00002DE9F04381B004462C20984681
:1044100016460F4609F046FAF0B10546DDE9089068
:104420003121A9702880681D39462C71FFF7EAFAFE
:1044300005F10B003146FFF721FB05F11B0041465A
:10444000FFF71CFB43F62C50C2F20000007B29460C
:1044500085F82B9009F05AFA01B0BDE8F08300000E
:1044600080B52C2009F01EFA002808BF80BD014647
:104470003320887043F62C50C2F20000007B09F014
:1044800045FA80BD80B509F0FDFA40F2C01046F64D
:104490003021C2F20000C0F20401816146F62421FD
:1044A000C0F20401C16309F009FB80BD10B59AB0E8
:1044B00040F2C011C2F20001096A46F6A81243F6A2
:1044C0002C54C0F20402C2F200049142A0600AD04F
:1044D00000F032FD442806D80020C0F27710A16811
:1044E000019001A888471AB010BD0000B0B505467C
:1044F00010200C4609F0D6F9002808BFB0BD0146CF
:10450000222088700D8020686268A368486043F6A6
:104510002C508A60CB60C2F20000007B09F0F6F9F3
:10452000B0BD000080B509F0ADFA40F2C01046F60B
:104530004821C2F20000C0F20401816020F002FEB6
:1045400009F0BCFA80BD000080B520F023FE80BDDC
:1045500010B5044609F096FA43F62C50C2F200005A
:10456000C47309F0ABFA10BD2DE9F04381B0914658
:104570000D46064600274FF001080020002400BF2A
:1045800008FA07F3334207D035F8101039F8102035
:10459000D8B220F025FE0134062F04D8E0B203285B
:1045A00007F10107ECD301B0BDE8F0832DE9F0433A
:1045B00081B007461020984616468946102409F017
:1045C00071F930B3DDE908EC014684700771431DD1
:1045D00000200024002200BF27FA00F5ED0702D0DA
:1045E000355D01321D55D4B2022C03D8072800F1E5
:1045F0000100F1D343F62C50C2F20000007B81F899
:104600000890A1F80AE0A1F80CC081F80E8009F02A
:104610007DF901B0BDE8F08380B5042009F042F9CE
:10462000002808BF80BD014643F62C50C2F20000AE
:10463000007B11228A7009F069F980BDF0B581B064
:104640000746162015460C4609F02CF968B10646B7
:104650000420B0703780347525B1301D29462246BC
:10466000FCF715FA304608F093FC01B0F0BD0000ED
:10467000B0B5054604200C4609F014F9002808BF1F
:10468000B0BD032181700580C47008F081FCB0BD0D
:10469000F0B581B00746202016460C4609F002F915
:1046A00088B105462820A870281D31461A222F807F
:1046B000FCF7EDF943F62C50C2F20000007B2946CE
:1046C000AC7709F023F901B0F0BD0000C0684DF6E9
:1046D000836100BAC4F21B31A0FB0112910C43F6B6
:1046E00009525143A0EB81107047000046F2D87088
:1046F000C2F200007047000043F6B460C2F200004E
:104700004068704743F6B460C2F20000006870472A
:1047100040F2C01046F65421C2F20000C0F204017B
:10472000416143F6B46046F27231C2F20000C0F259
:104730000401C0E90011704740F2C01046F6602144
:10474000C2F20000C0F20401016270472DE9F0419D
:1047500004461620984616460F4609F0A3F800288E
:1047600008BFBDE8F08105462920A8702C802F7570
:104770006E751FB1281D4146FFF780F943F62C5096
:10478000C2F20000007B294609F0C0F8BDE8F081C4
:10479000F0B581B0074608201C4615460E4609F0C4
:1047A00081F868B106990122827004F0070201F0D5
:1047B00007010780067145718271C17108F0E8FB3D
:1047C00001B0F0BDF0B581B0074608201C46154683
:1047D0000E4609F067F868B106990222827004F06B
:1047E000070201F007010780067145718271C171EE
:1047F00008F0CEFB01B0F0BD80B5014646F2D8709E
:10480000C2F200006022FCF742F980BD10B50446F8
:1048100009F038F943F6B460C2F20000446009F0D0
:104820004DF910BD10B5044609F02CF943F6B460FB
:10483000C2F20000046009F041F910BDB0B50546B0
:1048400006200C4609F02EF8002808BFB0BD05214F
:1048500081700580047108F09BFBB0BD10B5044663
:1048600080782C2801D02A2808D143F65050C2F273
:104870000000D0F8901009B12046884743F62C502C
:10488000C2F2000081682046884710BDB0B51446CA
:104890000D461EF029FF002808BFB0BD0021828907
:1048A000817446F272310576C0F20401104600228E
:1048B000234601F097F8B0BDF0B591B0064610461A
:1048C00015460C4640F012FB08B111B0F0BD09AF1F
:1048D0003846214640F0CEFC01A831463A4640F029
:1048E000BBFC3846394640F0C5FC204621462A46E6
:1048F00040F0B2FC2846294640F0BCFC3046314628
:104900002A4640F0DDFB284629462A4640F0D8FBDF
:10491000284631462A4640F0BBFC304631462A46FE
:1049200040F09AFC28463146324640F0C9FB3046FA
:1049300031462A4640F0C4FB3046002140F0B6FD27
:1049400080B146F68802C0F204023046314640F09B
:1049500089FA0746304640F02DFDF06940EAC770FD
:10496000F06102E0304640F025FD2846314640F037
:1049700081FC01AF284629463A4640F089FC28468A
:1049800029463A4640F084FC384639462A4640F0EB
:104990007FFC304631463A4640F05EFC09AF38466F
:1049A00031463A4640F074FC3046294640F010FD4E
:1049B0002846214640F00CFD2046394640F008FDCF
:1049C00011B0F0BD10B5044640F090FA38B104F1D2
:1049D000200040F08BFA002818BF012010BD0020F5
:1049E00010BD00002DE9F04F8BB00446007804287C
:1049F00027D88A461646DFE800F003264266810083
:104A000004F12407DDF850A03846314604F10408CB
:104A100040F0DEFC04F1640506F12001284604F1B3
:104A2000440940F0D5FC3846294642464B46CDF86D
:104A300000A009F07DF9FF20C4F8840000250120C2
:104A4000A9E00125A8E0D4F88410184640F02EFD16
:104A5000B0FA80F1221D4B09002818BF012002EB9B
:104A6000401704F1440606EB401102EB431206EB3B
:104A70004313384609F0ECF8002502208BE0D4F807
:104A80008410184640F012FDB0FA80F14909221D49
:104A9000002818BF012002EB411704F1440303EB87
:104AA000411102EB401203EB4013384609F082F843
:104AB000D4F8840000250138C4F884004FF00300C6
:104AC000C8BF012067E018460021002540F0EEFC39
:104AD000B0FA80F1221D4B09002818BF012002EB1B
:104AE000401704F1440606EB401102EB431206EBBB
:104AF0004313384609F0ACF804204CE01846002176
:104B000040F0D4FC0546B0FA80F0400904F10409F5
:104B100003AF029004F1240138464A46002D18BF25
:104B2000012540F0B5FB04F1440808EB451B38466D
:104B300039465A4640F090FB38463946324640F0F6
:104B40008BFB3846394640F0D3FA06F1200238464E
:104B5000394640F081FB09EB4515384639462A466F
:104B600040F07AFB02992A4609EB411008EB41110B
:104B70005B4609F01FF8484641463A4618F080FE69
:104B80005046494640F024FC0AF12000414640F0DE
:104B90001FFC01250520207028460BB0BDE8F08FD2
:104BA00080B5930706D4D20700F10C0015D118F098
:104BB000ABFE80BDC36802F0010203EA010040EAD7
:104BC000020C8842184618BF0020002A08BF184669
:104BD000BCF1000F08BF604680BD18F06DFE80BDBF
:104BE00080B50C3018F02CFF80BD000080B540F27D
:104BF0003712C8F201023FF0E9FE80BD80B540F2F5
:104C00003112C8F2010201463FF0E0FE80BD000013
:104C100080B540F23812C8F201023FF0D7FE80BDE5
:104C200080B540F23312C8F201023FF0CFFE80BDE2
:104C300080B540F23212C8F201023FF0C7FE80BDDB
:104C400080B53AF04DFA3FF0FFFD80BD2DE9F04F01
:104C500085B04FF0000801244FF480760827CDF886
:104C6000108004E06400013F06F1040610D0B5B2E4
:104C7000284638F0E9FE0028F4D0204638F00EFF30
:104C80000028EFD0284638F09FFE48EA0408E9E7FC
:104C90004FF4BE7038F0D8FE40B14FF4BE7038F01B
:104CA00093FE04A848F0004838F080FE5FEA0860F0
:104CB0001CD00127002404E00134082C4FEA4707E8
:104CC00014D017EA080FF7D0204638F0C7FE054683
:104CD000204638F0CDFE064620461DF0FFFC002899
:104CE000EAD00246284631469047E5E7B8F1FF3F53
:104CF00002DD05B0BDE8F08F46F63C084FF0000934
:104D00004FF0FF30C2F200080DF1080B03254FF001
:104D1000000ACDF80C90029009E000BF4FF0000AA5
:104D20004FF000095FEA0A604FF0000AE1D008EB9B
:104D3000090090F85040FF2C38D004F03F06304670
:104D4000594638F037FC88B330461DF0F1FC1DF0B1
:104D5000C5FCB5EB941F074600D03FB3A409032C54
:104D600003D1304603A938F02FFC304638F0B4FDAB
:104D70000546304604A938F01DFC022D00D110B9BB
:104D8000032D11D180B9032C08D102213046022D08
:104D900008BF032138F03EFD0AF1010A03252FB1B7
:104DA00030462146B84701E0032500BF09F101095B
:104DB000B9F1040FBBD15FEA0A60AFD001A838F0A7
:104DC000F5FD019804998842A8D0039904900291B6
:104DD000A6E700004EF60450CEF200000068102155
:104DE00001EA10607047000043F6D872C2F2000278
:104DF000C2E904017047000070B582B039B188780B
:104E000001283DD1084621F075FD02B070BDC007F4
:104E100036D043F6D874C2F200040DF107012046E3
:104E200008F050FD60B306460DF1070509E000BF2C
:104E3000304608F05DFD2046294608F043FD064651
:104E4000F0B19DF8070002280CD0042812D130469A
:104E500022F028FF94F821000028E9D0304621F004
:104E600065FFE5E7304621F047FD0028E3D02169E2
:104E700004E000BFA1690029DAD030468847DAE7AC
:104E800002B070BD80B544F21800C2F200000021EB
:104E9000C0E91C116FF01B014FF6FF7243181C3163
:104EA00038299A85FAD14FF0FF31C0E91511C16553
:104EB0001B21A0F87C1040F20511A0F88010002101
:104EC000C0F8A01021F078FE80BD0000B0B50C46FF
:104ED000054640F20640032121F0B6FC002808BF39
:104EE000B0BD290AC5700171447121F0DDFCB0BD6F
:104EF00043F6D871C2F200018860704744F218008E
:104F0000C2F200006830704744F21800C2F200009C
:104F1000B0F87E007047000044F21800C2F20000B2
:104F2000D0E922017047000044F21800C2F20000EC
:104F3000B0F892007047000044F21800C2F200007E
:104F4000B0F87C007047000080B5FFF755FF80BDCA
:104F500080B543F6D871C2F2000181F8200000202C
:104F6000C1E90000FFF78EFF80BD00002DE9F04190
:104F70008846074642F2270027211C46164621F0A4
:104F800063FC002808BFBDE8F081054604304146B7
:104F9000EF70FEF737FD30687168F268B368C5F8E6
:104FA0001620C5F81230C5F80E10C5F80A002068A2
:104FB0006168A268E368C5F81A002846C5F81E10A3
:104FC000C5F82220C5F8263021F06EFCBDE8F0813E
:104FD00080B542F23D00002121F036FC002818BFC8
:104FE00021F062FC80BD000080B542F22900002162
:104FF00021F02AFC002818BF21F056FC80BD0000DB
:10500000B0B50C46054642F213000E2121F01CFCFF
:10501000002808BFB0BDA0F8035021784171617825
:105020008171A178C171E178017221794172617950
:105030008172A179C172E1790173217A4173617A38
:105040008173A17AC173E17A017421F02DFCB0BDA6
:1050500080B542F20E00002121F0F6FB002818BFB7
:1050600021F022FC80BD00002DE9F0470F460546E7
:1050700042F20D0019219846914621F0E5FB0028E7
:1050800008BFBDE8F0870446C570280ADDE9081AA4
:105090002071380A0A9EA07104F10900677184F832
:1050A000079084F80880FEF7ADFC84F80FA03078F4
:1050B000207470786074B078A074F078E0743079FF
:1050C000207570796075B079A075F079E075307AE7
:1050D0002076707A6076B07AA076F07AE076204614
:1050E00021F0E2FBBDE8F087B0B50C46054642F280
:1050F0001700202121F0A8FB002808BFB0BD2968B7
:105100006A68EB68AD68C0F80F30C0F80B50C0F8A3
:105110000720C0F8031021686268A368E568C0F83A
:105120001310C0F81720C0F81B30C0F81F5021F032
:10513000BBFBB0BD2DE9F0470746007A1446884610
:105140000026002120FA01F2D20718BF01360629F5
:1051500004D8F2B2042A01F10101F3D35FFA86F90F
:105160004FEA091000F10A0142F2430021F06CFB02
:10517000002808BFBDE8F087824638788AF8030027
:1051800078788AF80400B8788AF8050079680AF116
:105190000600FEF737FC387A31068AF80C0034D066
:1051A0004FEA490151FA86F1AAF103004FEA810C56
:1051B000A21DA8F1020300279E78E51900F8106FE0
:1051C000DE78467013F8046F86705E78C670E65D10
:1051D00006716E784671AE788671EE78C671D61912
:1051E00016F8021C017216F8011C4172D15D0C37D1
:1051F00081727178BC45C172297A0173697A4173F1
:10520000A97A8173E97AC173D6D1504621F04CFB5B
:10521000BDE8F087F0B581B00E46074642F2420085
:1052200006211C46154621F00FFB48B1290A817161
:10523000210AC77006714571C471017221F034FBF7
:1052400001B0F0BD70B50C46064642F22600402182
:1052500021F0FAFA002808BF70BD05460330314638
:105260002022FBF714FC05F1230021462022FBF746
:105270000EFC284621F018FB70BD000010B5044656
:1052800042F21B00022121F0DFFA002808BF10BD06
:10529000A0F8034021F008FB10BD0000B0B50C469B
:1052A000054642F21A00122121F0CEFA002808BF6A
:1052B000B0BDA0F8035021686268A368E568C0F833
:1052C0000510C0F80920C0F80D30C0F8115021F0C9
:1052D000EBFAB0BD80B542F24500002121F0B4FAEE
:1052E000002818BF21F0E0FA80BD00002DE9F04F42
:1052F00081B00F46054642F244000E2198461646FC
:1053000021F0A2FAD0B10446DDF83090DDE90ABA06
:10531000C5700771063041466671FEF773FB4FEAB0
:105320001B2060734FEA1A20E073204684F80CB00B
:1053300084F80EA084F8109021F0B6FA01B0BDE810
:10534000F08F000010B5044642F24600022121F021
:105350007BFA002808BF10BDA0F8034021F0A4FA92
:1053600010BD000080B542F21800002121F06CFA57
:10537000002818BF21F098FA80BD000080B542F2E5
:105380000200002121F060FA002818BF21F08CFAF9
:1053900080BD000080B542F20300002121F054FAE4
:1053A000002818BF21F080FA80BD000080B542F2CD
:1053B0003A00002121F048FA002818BF21F074FAC1
:1053C00080BD000080B542F22F00002121F03CFAA0
:1053D000002818BF21F068FA80BD000080B542F2B5
:1053E0003B00002121F030FA002818BF21F05CFAC0
:1053F00080BD000080B542F24A00002121F024FA6D
:10540000002818BF21F050FA80BD000080B542F29C
:105410002A00002121F018FA002818BF21F044FAD0
:1054200080BD000080B542F21C00002121F00CFA82
:10543000002818BF21F038FA80BD000080B542F284
:105440000F00002121F000FA002818BF21F02CFAEB
:1054500080BD0000B0B50C46054642F22100032194
:1054600021F0F2F9002808BFB0BD290AC57001710A
:10547000447121F019FAB0BDF0B581B00E4607466F
:1054800042F220000E211C46154621F0DDF9C8B17C
:10549000C7703F0A0899DDE906320771370A87713C
:1054A0002F0A0772270AC3721B0A4273120AC173BA
:1054B000090A4671C571447287720373827301745D
:1054C00021F0F2F901B0F0BD10B5044642F23C0003
:1054D000012121F0B9F9002808BF10BDC47021F0E6
:1054E000E3F910BD70B50C46054642F228000721CD
:1054F00021F0AAF9002808BF70BD064604302146F5
:10550000F570FEF77FFA304621F0CEF970BD00004D
:1055100010B5044642F26D00022121F095F90028F1
:1055200008BF10BDA0F8034021F0BEF910BD000077
:1055300010B5044642F22D00012121F085F9002822
:1055400008BF10BDC47021F0AFF910BDF0B581B037
:105550000E46044642F20800202121F075F978B188
:10556000071D0546C470384631462246FBF78FFAC0
:105570003819C4F11F01FBF711FB284621F094F9FB
:1055800001B0F0BD10B5044642F20A00012121F03D
:105590005BF9002808BF10BDC47021F085F910BD6B
:1055A0002DE9F0470F46054642F206000F219846C6
:1055B000164621F049F9002808BFBDE8F0870446E7
:1055C000DDE90821C570280ADDE90AA92071380A39
:1055D000A07104F10A006771E67184F808806272B4
:1055E00021B1FEF70FFA04F1100001E0FEF7FCF91B
:1055F00080F800A080F80190204621F055F9BDE820
:10560000F087000070B50C46054642F235000721D0
:1056100021F01AF9002808BF70BD06460430214663
:10562000F570FEF7EFF9304621F03EF970BD00004D
:1056300070B50D46064642F222000621144621F0BE
:1056400003F9002808BF70BD310A0171290A817170
:10565000210AC6704571C471017221F025F970BD2F
:1056600010B5044642F20100082121F0EDF80028AF
:1056700008BF10BD61682268C0F80710C0F8032099
:1056800021F012F910BD00002DE9F0411C460E4634
:105690000746FB2B03F1040142F23700904628BF76
:1056A0006FF00404FF2928BFFF2121F0CDF8002866
:1056B00008BFBDE8F08106990546E2B2C7700671E1
:1056C00080F805800730AC71FBF7E1F9284621F03E
:1056D000EBF8BDE8F081000070B5064688000C4686
:1056E000811C42F23900154621F0AEF8002808BFAF
:1056F00070BDC67004716CB1A91F421C11F8063F41
:10570000013C02F8043F8B785370CB7893700B798F
:10571000D370F3D121F0C8F870BD000070B50C460D
:10572000064642F23600192121F08EF8002808BF03
:1057300070BDC67005462078287160786871606811
:10574000A8716068000AE871E0882872A068687231
:10575000A068000AA8726089E872207B2873607BC9
:105760006873A07BA873216905F10F00FEF74AF961
:10577000207D6875607DA875A07DE875E07D287640
:10578000207E6876607EA876A07EE876284621F0A6
:105790008BF870BD2DE9F04381B0984615468946D7
:1057A00007460026002000BF25FA00F1C90718BFF0
:1057B0000136062804D8F1B2042900F10100F3D320
:1057C000F4B2A00050FA86F0C11C42F2410021F070
:1057D0003BF8C8B13106C77080F80490457111D00C
:1057E000A8F10601421C00BF8B7A013C02F8053F7C
:1057F00011F8063F53704B7893708B78D370CB7849
:105800001371F1D121F050F801B0BDE8F083000030
:105810002DE9F0411C460E460746FB2B03F104011F
:1058200042F23800904628BF6FF00404FF2928BFD9
:10583000FF2121F009F8002808BFBDE8F081069992
:105840000546E2B2C770067180F805800730AC717A
:10585000FBF71DF9284621F027F8BDE8F08100008C
:105860002DE9F04115460E460746FC2A02F10301D8
:1058700042F23F00984628BF6FF00305FF2928BF7A
:10588000FF2120F0E1FF002808BFBDE8F0810446B9
:10589000EAB2C7700671063041466571FBF7F7F84A
:1058A000204621F001F8BDE8F0810000B0B50C46BB
:1058B00005464FF40150022120F0C6FF002808BF22
:1058C000B0BDC570047120F0EFFFB0BDF0B581B080
:1058D0000E46074642F23E0007211C46154620F0C0
:1058E000B3FF58B1310A4171290AC171210AC77049
:1058F000067185710472417220F0D6FF01B0F0BDCF
:10590000F0B581B00D46074642F24E00082114461C
:1059100020F09AFF48B1064604302946F770FEF79A
:1059200071F83046B47220F0BFFF01B0F0BD000046
:10593000B0B5044642F20500062120F085FF00289C
:1059400008BFB0BD054603302146FEF75BF8284688
:1059500020F0AAFFB0BD0000B0B50C46054642F2EB
:105960000C00022120F070FF002808BFB0BDC570F8
:10597000047120F099FFB0BDF0B581B00E46074626
:1059800042F20B0007211C46154620F05DFF58B17E
:105990000699320A42712A0AC77006718571C2716E
:1059A0000472417220F080FF01B0F0BDF0B581B00B
:1059B0000E46044642F20900202120F045FF78B14E
:1059C000071D0546C470384631462246FBF75FF88E
:1059D0003819C4F11F01FBF7E1F8284620F064FFF5
:1059E00001B0F0BDF0B581B00E46074642F2190095
:1059F0001C211C46154620F027FFC0B1A0F80370FB
:105A000071683268C0F80910290AC0F8052045738A
:105A1000817321686268A368E768C0F80F10C0F856
:105A20001320C0F81730C0F81B7020F03DFF01B004
:105A3000F0BD0000B0B50C46054642F2240004213A
:105A400020F002FF002808BFB0BD290A0171210A19
:105A5000C5704471817120F027FFB0BD80B541F25F
:105A60000900002120F0F0FE002818BF20F01CFFE4
:105A700080BD000080B541F20100002120F0E4FE6D
:105A8000002818BF20F010FF80BD000010B50446AC
:105A900041F20540022120F0D7FE002808BF10BDCA
:105AA000A0F8034020F000FF10BD000080B543F6D1
:105AB000FC70C2F200000121817640F60340002113
:105AC00020F0C2FE002818BF20F0EEFE80BD0000CE
:105AD00080B543F6D870C2F20000012180F8211091
