:100000000000012009450300414503008913030056
:1000100045450300951303009B13030000000000F7
:10002000000000000000000000000000012A0300A2
:100030004D45030000000000992A0300A92A03008F
:1000400053450300D9F6020053450300534503000E
:100050005345030053450300534503005345030034
:100060005345030053450300534503005345030024
:1000700053450300A16703005345030059010300E2
:100080005345030053450300534503005345030004
:1000900053450300534503005345030053450300F4
:1000A00053450300534503005345030053450300E4
:1000B000534503005345030000000000000000000A
:1000C00053450300534503005345030053450300C4
:1000D00053450300534503005345030010B5054C39
:1000E000237833B9044B13B10448AFF300800123E4
:1000F000237010BD300C002000000000C8D40300A5
:1001000008B5034B1BB103490348AFF3008008BD9A
:1001100000000000340C0020C8D40300154B002B55
:1001200008BF134B9D46A3F5803A00218B460F462E
:100130001348144A121A38F049FC0F4B002B00D018
:1001400098470E4B002B00D0984700200021040058
:100150000D000D48002802D00C4831F01FFE37F08A
:100160003FFF2000290032F0D5FA31F014FE00BF25
:1001700000000800000001200000000071260300BC
:10018000300C0020288200209D1D0300000000008C
:100190000368184710B5054B0360044600F072F879
:1001A000204600F0BBF9204610BD00BF5897030061
:1001B00070470000C36810B52BB9044904484FF4D8
:1001C000FD7231F0E1F9BDE81040184718970300BF
:1001D0003697030084B070B505AD85E80E00102198
:1001E000064600F048FA044678B195E80F0084E826
:1001F0000F002046074900F0E0FB22463046BDE8EC
:100200007040054904B000F0F6BABDE8704004B093
:10021000704700BFB1010000B50100000368012272
:100220001B6900211847036800221B691146184703
:100230006FF01500704770B5D0E90213D0E90825BA
:100240000446521845EB030300F058F9636B23B1E1
:1002500004F12800BDE87040184770BD38B5044669
:10026000154600F035F9064B236000220023C4E94F
:1002700008230023636384F83850204638BD00BF4C
:100280005897030013B5044601A830F005FF204637
:1002900000F03EF9636B23B194F838300BB131F0C4
:1002A000AFFC0023636301A830F0FEFE02B010BD76
:1002B00070B5044615461E4600F02AF9C4E90856F2
:1002C000A06930F0AEFE2A1846EB01032046BDE8D7
:1002D000704000F013B984B073B5054607AC01A8AF
:1002E00084E80E0030F0D8FE6B6B23B995F83830F7
:1002F0000BB131F06FFC94E80F0005F1280686E899
:100300000F00DDE90C232846FFF7D2FF01A830F0EB
:10031000CBFE02B0BDE8704004B0704710B5044693
:1003200030F034FC002201462046FFF797FF024BD5
:100330002360204610BD00BF4C97030030B5436BCF
:1003400085B00446B3B100F128030FCB6D4685E8B4
:100350000F000023636394F838300BB131F050FC88
:10036000039B2BB9044905484FF4FD7231F00CF999
:100370002846984705B030BD18970300369703000C
:1003800010B5044630F074FE012201462046FFF706
:1003900065FF024B2360204610BD00BF6497030039
:1003A00010B5044630F0F2FB002201462046FFF76C
:1003B00055FF024B2360204610BD00BF709703001D
:1003C000437D10B504461BB1037D0BB131F018FC21
:1003D000204610BD13B5044601A830F05DFE637DD4
:1003E00053B9237D0BB131F0F5FB206930F019FED4
:1003F000C4E900010123637501A830F055FE02B085
:1004000010BD37B504460D4601A830F045FE002367
:100410000022C4E900236B7D4BB1286930F001FE56
:10042000D5E90032C01A61EB0201C4E9000101A85C
:1004300030F03AFE204603B030BD30B585B00446FA
:100440000D4603A830F028FE29466846FFF7D9FF7D
:10045000D5E90210009B019A5B1840EB0202C4E947
:10046000003203A830F020FE204605B030BD13B5A1
:10047000044601A830F010FE206930F0D2FD0022C1
:100480000023C4E90001C4E9022301A830F00CFEF6
:1004900002B010BDD0B5002300260027C0E90067D8
:1004A000C0E902670446016102754375FFF7DFFF8B
:1004B0002046D0BD10B5044630F068FB002201464E
:1004C0002046FFF7E7FF204610BD03681B6818476A
:1004D00010B50446074B236000220023C4E9022321
:1004E00000230846A161C4E90433034930F010FD3C
:1004F000204610BD88970300CB04000007B500908C
:1005000000F10801806930F042FD03B05DF804FBA2
:1005100000F10801806930F069BD000010B5034B9F
:1005200003600446FFF7F4FF204610BD88970300E0
:100530000020704700290CBF6FF0180000207047A2
:10054000012070476FF0150070476FF0150070477D
:1005500084B001A880E80E0004B0704738B50023CD
:100560000446836519B90A4600F00FF803E0002A33
:10057000FAD100F042F8204638BD10B5044600F02C
:100580004FF8204610BD00F057B9032938B504468E
:1005900007D9D31C23F003039A1A8A1A22F0030105
:1005A0001A460023C4E90433E2600D4605BBC4E9E2
:1005B00006512262256000F003FA00F003FAC4E954
:1005C0000A556060258184F8245004F1300000F061
:1005D00019FA00280BDB04F1440000F00BFA0028A4
:1005E00005DB04F1480000F005FA00EAE07038BDD0
:1005F0002369013323616D08D8E737B505460846FE
:10060000019137F093FD044638B10246019928461E
:10061000FFF7BBFF6C6103B030BD4FF0FF30FAE76E
:1006200070B505680446B5B9A36A1BB1E06A4FF01E
:10063000FF31984704F1480000F0DEF904F144006E
:1006400000F0DAF904F1300000F0E4F96069BDE887
:10065000704037F073BDEE6836B9EB6913B105F140
:1006600024009847AD68DEE7F36913B106F1240072
:100670009847F668F0E773B5064627314830019091
:1006800021F0030500F0B9F9B469019806F11803E7
:100690005CB9F3699D4223D8346A5B1BF36162192C
:1006A000012332622560237107E02268954213D846
:1006B000E26872B11A60A368936000F0A0F90023A9
:1006C0004FF0FF32C4E90532E3612434204602B022
:1006D00070BDA2681A60F0E704F10803A468D7E7C8
:1006E00000F08DF9F2E751F8083C73B505460C4669
:1006F0000BB108469847EB6833B1A4F12406B34226
:1007000002D82B6AB34204D2002304F8203C02B082
:1007100070BD05F14800019000F06FF9AB690198D8
:1007200005F11802ABB11D6854F8241C8D420CD39E
:100730000FD144F8183C13689B6844F81C3C1660C1
:1007400002B0BDE8704000F05AB903F108029B689E
:10075000E8E7002344F8183C1368EEE7F8B54B6966
:100760009B1A002BACBFD318131C4B61437A4B71FF
:1007700000F14407054638460C46164600F03DF9A0
:10078000284603687BB359696269A1EB020CBCF18E
:10079000000F25DB914226D19B68A36013B104F1C1
:1007A00008021A612246036842F80C3F0021996052
:1007B0001A61AB6A046020616BB195F8242052B1D4
:1007C0002A68A24207D1E2682AB96169E86A891BEE
:1007D00021EAE17198473846BDE8F84000F00FB9CA
:1007E00003F10800CDE7A36013B104F108021A6118
:1007F0000023E360DDE7F8B5144605460F46A2F195
:10080000240600F0DFF854F8103C44F8047C03445C
:10081000024644F8103C31462846FFF79FFF2969FD
:1008200014F8204C8C40E968761A05F13000344306
:1008300000F0F2F82046F8BD2DE9F74F04460F46C8
:1008400000F0C0F84FF00008054607EB000984F8F7
:10085000248004F14406304600F0CFF8637A013377
:10086000637263685B1B002B2368D8BF65600193CC
:1008700001A91BB15A69521B002A33DD236003B161
:100880001C613046C1F8008000F0B9F8019B01A856
:1008900063BB019D4FF0010A002D34D100F092F8A6
:1008A000002F82465CDBA9EB0005002D5ADCA36A11
:1008B0009BB1304600F0A1F8A36A43B1226832B17F
:1008C0005169E06AA1EB0A0121EAE171984701232D
:1008D00084F82430304600F092F80023237203B0ED
:1008E000BDE8F08F03F108019B68C2E79D681A46D6
:1008F000002191601146D268002AFAD1016003F10B
:1009000008002B46C4E72B6AD5F808B013B105F1EF
:1009100024009847AA69002A0BDB6B6913446B61BA
:1009200000F050F8294602462046FFF717FF5D46C3
:10093000B2E7E36873B1AB420CD8236AAB4209D388
:100940002B7922690133DBB213FA02F214BF2B7147
:1009500085F804A005F124012046FFF7C4FEE6E770
:100960004FF0FF35304600F048F823683BB1596935
:10097000A1EB0A0121EAE1718D4228BF0D46304604
:1009800000F03DF8294604F1300000F048F8237AE1
:100990007BB1304600F031F8237A3BB1002330467A
:1009A000237203B0BDE8F04F00F029B8304600F0E4
:1009B00026F800F007F805464DE740F8081C704798
:1009C00031F06EB807B530F0DAFE70B1084B68460A
:1009D000196830F0B7FBDDE900014FF47A720023AB
:1009E00038F0C2FC03B05DF804FB31F025FEF9E7F6
:1009F0005032002000207047704730F0C7BE30F002
:100A0000DBBE000008B5024931F0F0FD002008BD52
:100A10008C97030031F0F3BD012131F0EDBD08B535
:100A2000012341EAE172194631F004FE431E5842A7
:100A3000584108BD704703680BB108461847704716
:100A4000F0B5466832680446D7680B4607C987B0D8
:100A5000DB68049301AD002385E807000593216856
:100A60002A463046B84707B0F0BD0000436807B5D6
:100A70002BB90649064800931A4630F0F7FF1A686A
:100A80001269184603B05DF804EB10479397030012
:100A900043011880436807B52BB9074907480093FD
:100AA0001A4630F0E3FF002202771A6852691846AE
:100AB00003B05DF804EB10479397030043011880DF
:100AC000436807B52BB90649064800931A4630F02B
:100AD000CDFF1A68D269184603B05DF804EB1047E1
:100AE0009397030043011880436807B52BB9064963
:100AF000064800931A4630F0B9FF1A68D26A1846C1
:100B000003B05DF804EB104793970300430118808E
:100B100013B5044630F03AFE237F23B902B0BDE896
:100B2000104030F049BE0023237730F045FE636863
:100B30002BB90649064800931A4630F097FF1A6809
:100B40009268184602B0BDE8104010479397030022
:100B50004301188037B503460C4600F1080507C964
:100B600085E807000021E2689961197F5A6121B187
:100B700018B1019301A92846904703B030BD13B5C1
:100B8000044630F003FE237F1BB130F015FE02B0A7
:100B900010BD0123237730F00FFEA36804F1080095
:100BA000002BF4D06369019401A99847EFE7000096
:100BB00038B50C4A01600023C0E9033304464360A2
:100BC000836183604261037749B9074D2B6813B98C
:100BD00000F008FF2860236855F823306360204642
:100BE00038BD00BF370A0000740C002070B560B932
:100BF000104C26683EB9202031F0BCFA314605463B
:100C0000FFF7D6FF2560206870BD0B4C2378BFF33B
:100C10005B8FDB0701D50948F6E7204631F0C8F8BD
:100C20000028F8D001210548FFF7C2FF204631F027
:100C3000E1F8F0E7500C00204C0C0020540C002090
:100C4000704708B50846FFF7D1FFBDE80840FFF739
:100C500096BF33B405680C4695B103466A4653F80F
:100C6000040F596803C24A1011F0010F009B1CBF0A
:100C7000AA58D35805EB6100214602B030BC184792
:100C800002B030BC704700002DE9F041054608680D
:100C90006A68904286B03CD18A882B899A4238D1C2
:100CA000AB691D4F05F10C0098471C4BD5F800802F
:100CB00001950026CDE90236D8F80840059604973C
:100CC000B4B1E368BB421AD10C22214601A837F027
:100CD00047FDA0B9D8F80C30A6B99C4208BFC8F8A7
:100CE0000C602369C8F808301421204631F058FA06
:100CF0002021284606B0BDE8F04131F051BA264621
:100D00002469DDE79C4208BFC8F80C6023693361A1
:100D1000EAE706B0BDE8F081530C0000890C000042
:100D2000027E920710B40B4608D5046854B1828B3A
:100D3000016A20465DF8044B02F0D2B908205DF844
:100D4000044B70470620FAE72DE9F843044616469F
:100D5000FFF7E6FF054610BB20202768D4F8209057
:100D6000B4F81C8031F006FAC0E90079A0F80880D8
:100D7000044600F10C0396E8070083E80700F368D7
:100D80001420C4E9063531F0F5F9074A0460C0E9DA
:100D90000125064AC0E90325BA681AB9B860284691
:100DA000BDE8F8830261F9E7890C0000530C0000EC
:100DB00010B40468134634B10A46014620465DF873
:100DC000044B02F0A3B906205DF8044B704782B0D3
:100DD0000346684680E8060003C883E80500002251
:100DE00018461A7202B0704710B5426804460021D6
:100DF000006837F0EBFD0023237210BD70B5057A53
:100E0000C9B200239D4209D90468E21856788E427F
:100E100005D0E25C01321344DBB2F3E70022104656
:100E200070BD73B5044602A800E90C00019AFE2AC1
:100E30001EDC207A656883180133AB421ADA236816
:100E4000D5B26E1C1E54237A20680133DBB22372A4
:100E5000C154237A206800990133DBB2237218440D
:100E600037F0AEFC237A1D442572002002B070BD1D
:100E70000420FBE70120F9E738B504460846097865
:100E80000131CDB22A4650FA81F137F033FD237A91
:100E90005B1B2372002038BDF7B5FE2B6D460E4656
:100EA00085E80C00089F044619461DDC3A78013A93
:100EB000D2B29A4206D10099B81C37F081FC0020CA
:100EC00003B0F0BD037A9A1A43680A449A420DDCD3
:100ED0003946FFF7D1FF95E80C003146204603B0B4
:100EE000BDE8F040FFF79DBF0420E9E70120E7E7F8
:100EF0007FB502AC84E80C0005460E46FFF77EFF86
:100F000040B1009094E80C0031462846FFF7C4FF3A
:100F100004B070BD94E80C003146284604B0BDE82A
:100F20007040FFF77EBF0000002A08B5C0E900123C
:100F300005DA0749074840F2752230F025FB29B948
:100F400022B10349044840F27622F6E708BD00BF0B
:100F5000B6970300D0970300DB9703007FB5012607
:100F600002AD04468DF8071032460DF10701284600
:100F7000FFF7DAFF95E80C0031462046FFF7B8FF8F
:100F800004B070BD7FB5054608461646019138F09D
:100F900057F802AC024601992046FFF7C5FF94E8D6
:100FA0000C0036B14FF009012846FFF7A1FF04B04D
:100FB00070BD4FF00801F7E7002A08B5C0E900123C
:100FC00005DA0749074840F2752230F0DDFA29B901
:100FD00022B10349044840F27622F6E708BD00BF7B
:100FE000B6970300D0970300DB97030013B54B6857
:100FF0000A7A9A42044605DD0849094840F24B3214
:1010000030F0C2FA09686846FFF7D6FF009B2360FC
:10101000019B6360204602B010BD00BFB69703007D
:10102000F59703000022026082807047002070471D
:1010300070470220704707F0A3B80000094BD3F8AF
:101040008800002100F020020B46134308D0064B15
:1010500018680B4600F02002134301D006F0D3BEFF
:1010600006F02BBFD83C0020E8000020024A0260B6
:101070000022C0E9042170478098030010B504469F
:10108000406903689B689847236820461B6ABDE84F
:1010900010401847036810B504465B6A98476069BA
:1010A0000368BDE81040DB681847000007B50191F0
:1010B00000F068FC0368DB699847019903F030FB96
:1010C00020B104490448662230F05EFA03B05DF8AE
:1010D00004FB00BF129803006298030030B50B7840
:1010E0000E2B85B005460C461CD10979E37803EB3D
:1010F000012399B242F20F03994204F106025AD831
:10110000B1F5005F10D840F66343994200F0998032
:1011100030D840F60143994200F08B8040F60343FB
:1011200099427FD005B030BDA1F50053013B0E2B95
:10113000F8D801A252F823F03B1200004F12000031
:101140007B1200002511000049120000251100004B
:1011500025110000251100002511000025110000B7
:1011600025110000251100002511000025110000A7
:101170006D12000041F20103994246D041F2090389
:101180009942CFD15D4811466C4612F099F8002380
:101190000093A3802B6821465B6928469847002866
:1011A00052D094E803000290ADF80C10284602A932
:1011B000FFF77CFFB6E742F22403994200F08680F5
:1011C0000FD842F21803994200F08E8042F21C03BD
:1011D0009942A7D110685168494B03C306F09DFEA0
:1011E000A0E742F22F03994263D006D842F22A03C5
:1011F000994297D1A279434B56E042F23B03994280
:101200000BD842F2390399428CD93E4BD3F8A03027
:10121000002B87D01046984784E742F24A03994250
:10122000F3D07FE7384B394800221A7006F0BAFF36
:1012300078E7374806F0E2FE74E7364806F0C5FF67
:1012400070E706F074FF6DE706F043FE6AE7E179A8
:10125000A2792C4B02EB0122A3F87E20227A83F89C
:10126000832083F8822006F04CFE5BE7254BA279B1
:1012700083F8842006F039FE54E7E379A27902EB83
:101280000322204B1046D1175206C3E922010AD58A
:10129000214A1268002102F0400050EA010202D007
:1012A00007F00BF83EE7002283F89120FFF7C6FE17
:1012B00038E7617A237AE279A07903EB012100EB28
:1012C000022089B280B206F067FD2BE70D4BD3F800
:1012D000A02012B106F037FF24E7A3F89220A3F86C
:1012E000942006F0EAFD1DE7074A1378022B02D886
:1012F00001331370F5E712F017F913E7403D0020B2
:10130000383D0020D83C0020780C0020009F0300CE
:10131000109F0300089F0300E8000020406910B4FC
:1013200004682469A4465DF8044B6047036910B55E
:1013300004461BB1043098470023236110BD000010
:10134000F8B5084F05460C465CB1FF2C264628BF71
:10135000FF2628463B68F1B2A41B9847A4B2354447
:10136000F2E7F8BDE4000020704770470079831E63
:10137000584258417047000000487047D09A030017
:101380000368DB691847704703685B6B184703689D
:101390000BB1084618477047704770477047704751
:1013A0007047704770477047704770477047704785
:1013B00070477047F0B50746406889B00D46E8B100
:1013C000142011F0CFFD044620B9104910484E22D8
:1013D00030F0DAF895E80F0084E80F006E4604ADAF
:1013E00086E80F0085E80F0000232361FB683BB906
:1013F000FC60D7E90101FFF724FC012009B0F0BD32
:101400001A461B69002BFBD11461F2E7A898030070
:10141000F0980300036A0BB1143018477047036952
:101420000BB104301847704710B50421044630F062
:10143000B7FE204610BD10B50421044630F0B0FEC2
:10144000204610BD00F0FEBF07B5019100F0FAFF85
:10145000019900F002FE002003B05DF804FB13B513
:101460000C4600F0EFFF0146684600F0E9FD009BE6
:101470002360019B6360002002B010BD034600782A
:101480009B78272B02D0282B03D0704700210AF02D
:1014900091B80AF0CFB800007FB51C4C2378BFF399
:1014A0005B8FDA0705460ED4204630F081FC50B140
:1014B000174E184B3360204630F09CFC164A1749F3
:1014C000304630F066FC164C2378BFF35B8FDB07A9
:1014D00018D4204630F06CFCA0B102F06DFF0390F0
:1014E00003F036FA039A0A4B009005F10C010D48FF
:1014F00003F0F6FE204630F07DFC074A0A49094811
:1015000030F047FC074804B070BD00BFC40C002099
:101510000C0F00200C9A0300E00000206B13000069
:10152000C80C0020100F00201D44000038B50379BE
:10153000022B04461ED1002303710F4B1868FFF7DE
:10154000A9FD236820465B6A984701F033F82368B9
:101550002046DB6A984701F029FE23682046DB69B4
:10156000984704F02BFAA06928B1056911F01CFD19
:10157000A561F8E7092038BDCC0C002038B5064B32
:1015800003600446406828B10569142130F008FE64
:101590002846F8E7204638BDEC99030010B504460C
:1015A000FFF7ECFF20460C2130F0FAFD204610BD7D
:1015B00038B5064B03600446406828B1056914211C
:1015C00030F0EEFD2846F8E7204638BDDC990300F0
:1015D00010B50446FFF7ECFF20460C2130F0E0FD8B
:1015E000204610BD38B5064B03600446406828B15C
:1015F0000569142130F0D4FD2846F8E7204638BDAF
:10160000FC99030010B50446FFF7ECFF20460C21BF
:1016100030F0C6FD204610BD38B5064B03600446C9
:10162000406828B10569142130F0BAFD2846F8E772
:10163000204638BD849A030010B504462830FFF7D1
:10164000EBFF04F11C00FFF7CDFF04F11000FFF7E2
:10165000AFFF201DFFF792FF204610BD10B50446D6
:10166000FFF7DAFF20460C2130F09AFD204610BD2E
:1016700038B5064B03600446406828B1056914215B
:1016800030F08EFD2846F8E7204638BD249A030046
:1016900010B50446006A10B103685B68984720469D
:1016A000FFF7E6FF204610BD10B50446FFF7E0FF48
:1016B00020460C2130F074FD204610BD70B4D0E9F6
:1016C00001340568661005EB6400E40744BFAC59BB
:1016D000E35870BC184730B4D0E9013204685510A3
:1016E00004EB6200D20748BF625930BC48BFD358F0
:1016F0001847000010B5054B03600446FEF7C2FD15
:101700002046FEF70BFF204610BD00BF5897030090
:1017100010B5054B03600446FEF7B4FD2046FEF706
:10172000FDFE204610BD00BF5897030038B50A4B98
:10173000044640F8203BFEF743FE084BE360A069F7
:1017400020B1056911F030FCA561F8E72046FFF7EC
:1017500077FA204638BD00BF949A0300789A0300B8
:1017600010B50446FFF7E2FF2046402130F018FD97
:10177000204610BD37B50D46044601922DF0F4FE0B
:10178000019B2A46214603B0BDE83040FFF7C6BDA5
:1017900010B52DF0E9FE0368BDE81040DB6818477E
:1017A00007B501902DF0E0FE036801991B6903B0B5
:1017B0005DF804EB1847000070B54E4B196888B00F
:1017C00029B94D494D4840F285122FF0DDFE0B68D6
:1017D0004B4E9B684B4D04A89847049B059C06996B
:1017E0009DF81C0033602C6011F050FB83B223B9CC
:1017F0004149454840F29312E7E7336882B213FA51
:1018000080F02B6830609B1A94422B6006D900232D
:101810003E493F480093A21A30F020F911F0F6FC3F
:1018200008F0ECFC08F0FCFC08F054FB08F032FC7B
:1018300008F082FC374811F0D1FE0EF0D5FC364896
:1018400011F0CCFE03900CF0CFFD0EF061F90DF01D
:10185000F1F80DF0BFFA0DF0C7FB0EF047FA0DF0EE
:1018600077FD0EF0A9FA0DF0BFFE03980DF0EEFC27
:101870002A4811F0B3FE0EF0BBFE0EF03BFD0EF059
:101880005DFE0EF093FD264811F0A8FE08F0EAFD7B
:101890000AF022FA0AF09AF822480AF057FA0BF0F6
:1018A0001BFB09F0E5F809F06FFD1F4811F096FEEB
:1018B0000FF080FD11F0D6FA11F0CAFA10F032FFE5
:1018C00010F026FF194811F089FE194B18704620B8
:1018D00006F0B4F817480DF087FC164903200DF008
:1018E000CDF8154808F016FE144808B0BDE8704061
:1018F00008F0F6BDCC0C0020029903004C990300BF
:10190000A80C0020A40C002060990300709903002B
:1019100005011880FD01010065F2000001060100CB
:10192000A9A40000FF1E000019140100E91900001D
:10193000281000208D1A00007D1400005D72000048
:1019400038B50D4A0D4B036000230446C0E903235C
:10195000C0E905330371836020300D46FEF7AAFD10
:1019600000220023C4E90E23054B20461D60FFF72B
:1019700023FF204638BD00BF789A0300949A0300E5
:10198000CC0C002010B50D4C2378BFF35B8FDB0728
:1019900011D4204630F00CFA68B12DF0E5FD014677
:1019A0000748FFF7CDFF204630F024FA054A0649E4
:1019B000034830F0EEF9024810BD00BFB80C00201B
:1019C000C00D0020E00000202D17000008B5FFF733
:1019D000D9FFBDE808400021FFF733B908B5FFF78C
:1019E000F5FF08BDFFF7CEBF37B50C4691B302F047
:1019F000AFFF204604F0B4FD054658BBA378202B6A
:101A000005D07A2B28D0204605F016FA22E0CDE941
:101A10000000FFF7EBF8009006F09CFF2B4600F467
:101A20008052134307D00CF06FFB0DF087FF0DF0D1
:101A300083F90DF097FAFFF7A5FF03685B6A9847F3
:101A400000F068FCFFF79EFF022303710D48694612
:101A5000C368984703B030BDE378002BD3D1228808
:101A600042F21F039A42CED1A3796279217902EB27
:101A70000322054BB1FA81F1186892B24909FFF7C8
:101A800055FCE7E7D00C0020CC0C002010B54388B3
:101A9000412B04460AD102F08FFC006870B16389C3
:101AA000E2882188BDE8104002F07CBDFFF76AFFA4
:101AB00021460020BDE81040FFF796BF10BD000092
:101AC00008B5044B1868FFF7D9FABDE808400DF0D7
:101AD00021BB00BFCC0C0020F7B50479012C0546D2
:101AE0000F46164619D0022C19D0D4B920300190D7
:101AF000FEF7BDFC0198FEF76DFC96E807000A4B67
:101B0000C5E9045783E80700F2682846C3E90324BF
:101B1000FFF7D6FF204603B0F0BD0924FAE7002402
:101B2000F8E70B24F6E700BFD00C002070B50446A0
:101B30008CB0A06970B1D0E903352BB93D493E485E
:101B40004FF4FD722FF020FD9847A06911F02CFA98
:101B5000A561EEE704F12005294604A8FEF76DFC17
:101B6000D4E90E3204995B18059941EB0202C4E9ED
:101B70000E322846FEF77BFCD4E90E014FF47A7250
:101B8000002337F041FC05460E4670B111F064FBAE
:101B90004FF47A73A5FB030103FB0611D4E90E325F
:101BA0001B1A62EB0102C4E90E32244C11F02CFD29
:101BB0002378BFF35B8FDB070ED4204630F0F8F8B4
:101BC00050B11F48FEF7ECFB204630F013F91D4AD8
:101BD0001D491B4830F0DDF807A82FF05DFA11F021
:101BE00009FDC8B10DF11F0011F0FCFA9DF81F307E
:101BF000BBB10021CDE909114FF47A71A0FB0101BD
:101C0000CDE90201114A124B0893009208AB0B92E6
:101C10000B480ECBFEF75FFB07A82FF045FA0CB080
:101C200070BD2FF049FA0B4B186803689B69984701
:101C3000F2E700BF1897030036970300B40C0020AA
:101C4000800D0020E0000020F5160000910100004A
:101C5000DD190000CC0C002030B51C4D2B78BFF3F3
:101C60005B8FDB078BB004460ED4284630F0A0F81B
:101C700050B11748FEF784FB284630F0BBF8154AF0
:101C80001549134830F085F82046FFF74FFF11F053
:101C9000B1FCC8B10DF1170011F0A4FA9DF817308E
:101CA00093B10021CDE907114FF47A71A0FB010136
:101CB000CDE90201094A0A4B0693009206AB09924C
:101CC00003480ECBFEF707FB0BB030BDAC0C002079
:101CD000E80C0020E0000020111700009101000036
:101CE000DD190000FFF722BF10B5102204460021C5
:101CF00036F06CFE204610BD70B504462F480578BE
:101D0000BFF35B8F15F0010555D130F051F8002875
:101D100051D002F01DFE23680646DB692046984735
:101D2000274C284B284A6661C4E900352346103009
:101D300043F8102FE360254BA061C4E9073504F197
:101D40002400FFF76FF904F12A00FFF76BF904F1A3
:101D50003000FFF7C9FF04F14000FFF7C5FF04F1B1
:101D60005000FFF7C1FF04F16000FFF75BF904F1D9
:101D70006600FFF7B9FF0F2384F877304FF48073C4
:101D800084F87650A4F8783084F87A5004F17C0610
:101D90007019143501F052FF642DF9D163690748B9
:101DA0001C60012384F8503030F024F8084A0949B7
:101DB00003482FF0EEFF024870BD00BFC00C0020AA
:101DC000280E0020249A0300349A0300080F0020F4
:101DD000E00000209116000010B5094C094B0022CC
:101DE000C0E9082102600261C1E90142064C0860B5
:101DF000C1E90532054BCB61C1E9034010BD00BF0D
:101E00001F14000015140000BD160000D7160000B6
:101E100070B517480378BFF35B8FDB0725D42FF02D
:101E2000C7FF10B3134E3478BFF35B8F14F0010477
:101E30000FD130462FF0BCFF58B10F4D3046C5E9E9
:101E40000744EC602FF0D6FF0C4A0D4928462FF0CE
:101E5000A0FF09490B48FFF7BFFF05482FF0CAFF55
:101E6000064A094907482FF094FF064870BD00BF95
:101E7000BC0C00207C0C0020800C0020E000002026
:101E800069130000000E00208713000038B50E4CC7
:101E90002378BFF35B8FDB07054612D420462FF073
:101EA00087FF70B12846FFF7B3FF0146074801F0EE
:101EB00099F920462FF09EFF054A064903482FF066
:101EC00068FF024838BD00BFB00C0020280D00207C
:101ED000E000002039160000044B0022C3E9012273
:101EE0001A611A60024ADA60704700BFD00C002005
:101EF0008F13000003680BB10846184770471FB5E1
:101F00000190FFF73FFD03681B6B98470023019981
:101F10008DF80C3003AA01F0D9FE38B99DF80C30C9
:101F2000042B18BF052005B05DF804FB0520FAE777
:101F300038B5064B03600446406828B10569142192
:101F400030F02EF92846F8E7204638BDE89A03001D
:101F500010B50446FFF7ECFF20460C2130F020F9C5
:101F6000204610BD38B5064B03600446406828B1D2
:101F70000569142130F014F92846F8E7204638BDE9
:101F8000F89A030010B50446FFF7ECFF20460C2139
:101F900030F006F9204610BD10B504462C30FFF78E
:101FA000E1FF04F12000FFF7E9FA04F11400FFF764
:101FB000FFFA04F10800FFF7BBFF204610BD0346FF
:101FC000002210B503F8012B00F1110403F8012BD6
:101FD0009C42FBD1418210BD08B503783BB90A7819
:101FE0009AB9408A4B8AC31A5842584108BD012BFE
:101FF0000BD10B78012B08D110220131013036F0C2
:10200000AFFBB0FA80F04009F0E70020EEE70000F7
:10201000C06A044B002818BF1846003818BF0120BA
:10202000704700BF350A0000006C044B002818BF41
:102030001846003818BF0120704700BF350A00005D
:10204000B1F831220280B1F833224280B1F8352252
:102050008280B1F83722C28070470B88A0F83132F5
:102060004B88A0F833328B88A0F83532CB88A0F8A3
:1020700037327047B0F8A0220346F3B40021C0F80D
:102080009811501CA3F8A8014748C3F8A00147487D
:10209000C3F8A40103F5D670C3F89C014448C3F803
:1020A000AC014448444DC3F8B00103F5DC70C3F8FB
:1020B000B401571DD01CA3F81D02A3F8257228886F
:1020C0003E4FA3F81F0203F50770B7F800C0C3F82E
:1020D000C001C3F8CC5103F5E47003F22225C3E933
:1020E0007415C3F8C401A3F827C23548354D364CE2
:1020F000364EC3F8D85103F5097C0225C3F8E0C178
:1021000003F5F47CC3E979C0C3F8B861C3F8BC41F6
:10211000C3F8C801A3F82212C3F8DC41A3F82A12BD
:1021200083F8245203F5FC71C3F8EC71C3F8F8612D
:10213000274EC3F8F41103F22A21C3F8F0113188B5
:10214000A3F82F1203F50B71C3F8001203F5027107
:10215000C3E981101F49C3F8FC410868496883F846
:102160002C526C4603C46C4603CC03F23127C3F8EF
:10217000351203F50671C3E9847107321649C3F8B5
:10218000310292B203F5CC70A3F8A022A3F82D225D
:10219000C3F80C62C3F8181283F81C52A3F8AA21E2
:1021A00002B0F0BC09F0D8BDE7260000D925000038
:1021B000F8A00300F0A00300EEA00300E8A00300D5
:1021C00005000001F8000801EAA003000200000178
:1021D000F6A00300009B030008000001B0F8A01265
:1021E000394A4B1C70B5A0F84C32384BC0F8443219
:1021F000374BC0F8483200F51473C0F84032354B05
:10220000C0F85032344BC0F8543200F51773C0F8A0
:102210005832324BC0F85C32CB1C044600259BB2CE
:10222000C0F83C52A0F8A032A0F891321088A4F86F
:1022300093022B48C4F8600204F52470C4F86402C9
:1022400004F51B70C4F868022648C4F87C52C4E93F
:102250009B0204F51F72C4E99D52234AC4F88022F0
:1022600094F8402102F1780004EB4000C4F88402A5
:1022700004F52370C4F888021C48C4F88C0220209E
:1022800084F89002062000FB02400226A0F8783075
:10229000A0F87A6080F87C5002F18C003144013261
:1022A00024F8101084F8402104F50F70A4F84E3281
:1022B00009F052FD94F840010D4A04F17801BDE89F
:1022C000704009F067B900BFFAA00300E7260000DC
:1022D000D9250000F8A00300F4A0030002000001CB
:1022E000EAA0030005000001ECA003000200201199
:1022F000E727000090F8A23210B504464BB901233D
:1023000080F8A232FFF7B6FE2046BDE81040FFF786
:1023100065BF10BD10B50446034809F017FD2046FF
:10232000BDE81040FFF7E6BFFF1E000030B590F893
:10233000944100F5A2730022944206D953F8040B8D
:10234000858B8D4202D00132F6E7002030BD0000BF
:102350000022C0E901220261014A0160C2607047A7
:10236000F51E000038B5104B0025C0E902350F4BB3
:102370000560C0E905350E4B8580C0E908350D4B79
:102380000446C0E90B3529463830FFF7E1FF2946FE
:1023900004F14C00FFF7DCFF294604F16000FFF771
:1023A000D7FF204638BD00BFE89A0300DC99030040
:1023B000EC990300F89A030038B50446FFF7D2FF02
:1023C0000022626704F17E0304F1F60123F8062C73
:1023D00023F8042C03F8022C06338B42F6D104F1C7
:1023E000F00204F58C73002122F8021B9342FBD10A
:1023F00004F5A072002123F8021B9A42FBD14FF092
:10240000000384F8403104F5CA7204F5A273002574
:1024100043F8045B9A42FBD184F89451A422002132
:1024200004F5CC7036F0D2FA5C22002104F50F706E
:1024300036F0CCFAC4E9A655A4F8A05284F8A2520A
:10244000204638BD10B50B4C2378BFF35B8FDB07FC
:102450000ED420462FF0ACFC50B10748FFF7ACFF7C
:1024600020462FF0C7FC054A054903482FF091FC90
:10247000014810BD2C10002044100020E000002076
:10248000991F000010B503460C4607C983E80700F2
:10249000E268DA6000221A61184610BD70B5044681
:1024A00086B0236B6363606B38B1C368214698477D
:1024B000636B002BF5D01B69F4E7206B28B105692D
:1024C00014212FF06DFE2846F8E72063A080E06815
:1024D00028B1056914212FF063FE2846F8E7E06073
:1024E000A06928B1056914212FF05AFE2846F8E7A3
:1024F000656AA06135B12E69284614212FF050FE7F
:102500003546F7E72946656201A8FFF721FF01A9D3
:1025100004F13800FFF7B6FF294601A8FFF718FFBE
:1025200001A904F14C00FFF7ADFF294601A8FFF710
:102530000FFF01A904F16000FFF7A4FF284606B0D1
:1025400070BD000038B50446FFF7A8FFD4F89852D4
:1025500055B16B69288AC4F8983209F01DFC18211E
:1025600028462FF01DFEF1E7D4F89C5235B12B68B8
:10257000C4F89C32284635F0E1FDF5E7B4F8A8012F
:1025800009F00AFCB4F84C0209F006FCD4F8D001BA
:1025900035F0D4FD2846064AA4F8A05284F84051EC
:1025A00084F8945104F1780108F0F4FF284638BD0E
:1025B000E7270000FFF7C6BF38B504460D4663683D
:1025C000A360A06838B1C36829469847A368002B68
:1025D000F5D01B69F4E738BD2DE9F04F87B00E4602
:1025E000BDF840A0DDF844900746144651464A46DF
:1025F0003046984609F0EEFB054688BB182C48D0BB
:1026000032D8122C47D0162C14BF00240424FFF714
:1026100019FF3146FFF78AFE8346002841D0FFF7B5
:1026200003FD00283DD000235846039305930197EE
:10263000ADF80860ADF80A80ADF80CA0CDF81090A8
:10264000FFF7F2FC68B30023ADF8143001A9DBF802
:102650004C300BF140009847BDF814300BB3DDB29D
:10266000284607B0BDE8F08F522C16D0D22C16D1D8
:10267000FFF7E8FE436F53B1FFF7E4FE446F3846BF
:102680000AF052FC39460246204601F077F803244E
:10269000BDE70624BBE70124B9E70224B7E70446F7
:1026A000B5E70197ADF808608DF80A40ADF80C80E9
:1026B000ADF80EA0CDF81090FFF7C4FE01A91430BC
:1026C000FFF77AFFCCE738B504460D466368A36090
:1026D000A06838B1C36829469847A368002BF5D095
:1026E0001B69F4E738BD2DE9F04387B00D461F465E
:1026F0000E9E8046FFF7A6FE2946FFF717FE04460A
:1027000030B3FFF785FC18B34FF000092046CDE940
:102710000399CDF81490CDF80480ADF80850ADF8C9
:102720000A70FFF775FC68B104F12C00A36BADF8DB
:10273000149001A99847BDF8140018B1C0B207B0B1
:10274000BDE8F083049B7360B368BDF80C201A8069
:102750000024CDE90344B3680594ADF80850ADF802
:102760000A701B88ADF80C3073680493CDF80480B0
:10277000FFF768FE01A92030FFF7A5FF2046DEE73E
:10278000C368184738B504460D466368A360A0685F
:1027900038B1C36829469847A368002BF5D01B6958
:1027A000F4E738BD08B5034608461146421E042A20
:1027B0000AD8DFE802F01209030A0E0003F138001C
:1027C0009B6B0BB1FFF7DCFF08BD03F14C00DB6C2A
:1027D000F7E703F160001B6EF3E7012103F1080046
:1027E000FFF7D0FFF0E713B5C388044613F0030FDB
:1027F00014BF032104210191FFF724FEA28801994F
:10280000FFF7D0FF02B010BD10B54388162B044669
:102810000AD1FFF717FE006870B10368E2892188CA
:102820001B68BDE810401847122B05D1FFF70AFEC0
:1028300001210830FFF7A6FF10BD000008B542F6E1
:1028400002110248FFF7BBFB08BD00BF301000209B
:10285000002070477047704770470120704770B57F
:1028600001F10804064605460FCC0FC523682B600E
:10287000304670BD7047704770477047704770476B
:1028800070477047704770477047704770470368DC
:102890000BB108461847704710B50446806908B167
:1028A00035F04CFC204610BD10B50446806935F06B
:1028B00045FC204610BD10B51C2104462FF070FCCD
:1028C000204610BD10B50446FFF7E6FF20461C2148
:1028D0002FF066FC204610BD10B50446FFF7E4FF5C
:1028E000204620212FF05CFC204610BD38B5064B59
:1028F00003600446206E28B185691C212FF050FC2E
:102900002566F7E7204638BDD09D030010B5044684
:10291000FFF7ECFF20468C212FF042FC204610BD33
:1029200010B5602104462FF03BFC204610BD10B5C9
:10293000202104462FF034FC204610BD37B5044654
:10294000057A0DF0E9F90022CDE90022034604F1F1
:102950000F0204F1090128460CF058FE03B030BD07
:1029600070B5421E00234D1E9D420CD912F8016F16
:10297000741EE4B2FD2C18D91BB112F8014CB442FC
:1029800013D10133F0E7435D03F03F033F2B06D142
:10299000014411F8020CFF3818BF012070BD23B9A3
:1029A000084410F8020C0038F6E70120F6E74379F6
:1029B00003F0C003C02B02D10621FFF7D1BF0020D6
:1029C0007047437903F0C003402B03D1032108442F
:1029D000FFF7C6BF00207047037819B143F0040326
:1029E0000370704703F0FB03FAE770B4D0E90134D9
:1029F0000568661005EB6400E40744BFAC59E35872
:102A000070BC184730B4D0E901320468551004EBAB
:102A10006200D20748BF625930BC48BFD35818473C
:102A200070B4D0E901340568661005EB6400E40772
:102A300044BFAC59E35870BC184770B4D0E90134B6
:102A40000568661005EB6400E40744BFAC59E35821
:102A500070BC184770B4D0E901340568661005EB06
:102A60006400E40744BFAC59E35870BC184730B465
:102A7000D0E901320468551004EB6200D20748BF68
:102A8000625930BC48BFD358184710B4D0E901325E
:102A90000168541001EB6200D20748BF0A595DF883
:102AA000044B48BFD358184738B5064B036004465B
:102AB000406828B1056914212FF072FB2846F8E719
:102AC000204638BD889D030010B50446FFF7ECFF93
:102AD00020460C212FF064FB204610BD70B5044643
:102AE000013004F111060346002503F8015BB342EF
:102AF000FBD101236582237042B901F11003994291
:102B000007D013F8012D00F8012BF8E7102235F05B
:102B1000F1FEA27B637B43EA02236382204670BD01
:102B200030B589B004460D4603A84FF42051FFF795
:102B300046FA9DF80C30E0B26BB110230DF10D0296
:102B40000024CDE9002429464FF6FF7208F0ECFA84
:102B5000204609B030BD02230DF11E02F0E710B58A
:102B60000B7803704B8A4382421C4B1C113153F883
:102B7000044B42F8044B8B42F9D110BD0022026095
:102B800082800A6802608A888280704738B502684D
:102B90000B689A4205460C4601D0002038BD04312E
:102BA0000430FFF719FA0028F7D02A7E237E53401D
:102BB0005A06F2D16A8B638B9A42EED1EA69E369D5
:102BC0009A42EAD1286A236AC31A58425841E5E773
:102BD000036D01222BB1197909B983F88820DB68CC
:102BE000F8E7704730B50B46044600F1380507C9D1
:102BF00085E80700DB6863640023A36430BD38B553
:102C0000046D0D465CB12379032B09D1294604F1EB
:102C10001000FFF7BBFF18B1012384F85E3038BD08
:102C2000E468EFE708B5044B1B680846C0B2998812
:102C300008F07BF9002008BD50010020006810B1A9
:102C400003681B6818477047006D20B183688B428A
:102C500001D0C068F9E7704710B50446FFF7F4FFEC
:102C600028B103682146DB68BDE81040184710BD55
:102C7000006D20B183688B4201D0C068F9E77047CE
:102C8000036D0BB9016570471A46DB68002BFBD159
:102C9000D16070472DE9F0411E4690F854308046CF
:102CA0000D46174613B10620BDE8F081FFF7E0FF9F
:102CB00004460028F7D111491C202FF06FFA014675
:102CC000D0B1012303710E4B0360C0E902540782A7
:102CD0004682868284614046FFF7D2FFE8B226B979
:102CE000394608F0E7F83046DEE7234632463946F3
:102CF00008F000FA2046D7E70720D5E7C0D4030044
:102D0000989D0300036D6BB18B4202D1DB680365B4
:102D100070471A46DB682BB18B42FAD1D968D16073
:102D20000022DA607047034638309A6B0AB15B6C58
:102D30001847704713B504460192FFF785FF38B175
:102D40000368019A9B68214602B0BDE8104018470D
:102D500002B010BDC8B207F0E3BB37B504460D465C
:102D600001462846FFF7CEFF2368A1685B68019102
:102D70002046984701992846FFF7D5FF03B030BD9C
:102D800008B5FFF7EAFF08BD08B5FFF7E6FF08BD85
:102D9000D2E90113022B10B5044607D14A7809780D
:102DA00041EA0221FFF70BF9204610BD0122FFF78F
:102DB00095FEF9E7036E0BB9016670471A469B69E9
:102DC000002BFBD19161704738B500250446294698
:102DD00040F8045BFFF7F3F84FF48033C4E907359C
:102DE00025766583204638BDD1E90032052A10B525
:102DF000044607D11979DB7843EA0121FFF7DFF8B0
:102E0000204610BD0122D91CFFF768FEF8E70368D1
:102E1000187800F07F007047036898785B7843EA81
:102E2000002070472DE9F0430546002745F8047B54
:102E3000044687B00E462846394690469946FFF725
:102E4000BEF826600EA901A8C4E907772776678334
:102E500001AEFFF7C9FF0FCE0FC533682B600EA878
:102E6000FFF7D5FFA4F81A9020760EA8FFF7D4FF3D
:102E7000A0832046E783C4F8208007B0BDE8F08334
:102E80002DE9F0411E460B6A83601A4B03600D4624
:102E90004FF0000851F8043BC0F80C80174603229D
:102EA0000446027103611430FFF759FE2B7E6A8BD2
:102EB000628584F82830EA692B6AC4E90B2397E815
:102EC000070004F1340383E80700FB68C4E9103805
:102ED00096E8070004F1480383E80700F36884F8E4
:102EE0005E80C4E91538AB8B0133A4F85C30204612
:102EF000BDE8F081EC9D030008B5C28DB0F85C1010
:102F0000007A002307F0BEFF002008BD2DE9F7433B
:102F1000984690F8543007460E46914623B1062451
:102F2000204603B0BDE8F083096AFFF78DFE044632
:102F30000028F4D1B28BF38B9A4207D1CDE900601F
:102F4000D8F80C30694640469847E9E710496020B8
:102F50002FF024F90546C0B143464A463146FFF7F3
:102F60008FFF29463846FFF78BFE39462846FFF784
:102F7000C3FF04460028D3D038462946FFF7C2FED7
:102F80002B6828465B689847CAE70724C8E700BF54
:102F9000C0D4030073B504460846214616461D46B4
:102FA000FFF7B0FE04F1100300936946636D8DF8DE
:102FB000046004F148008DF80550984723682046C6
:102FC0005B68984702B070BD08B50B220023FFF77D
:102FD000E1FF08BD08B506220023FFF7DBFF08BDAF
:102FE00008B513790A2B06BF00231A460B22FFF7F8
:102FF000D1FF08BD2DE9F043044695B00F461546B4
:1030000000262B6828469B689847B04246D92B6813
:10301000D4F80890DB6832462946684698472B6802
:10302000BDF80080DB683246294606A898470DF1B6
:103030001A010EA8CDE90C79FFF791FD04F11003F8
:1030400000930CAB0193ADF84C80236C694604F1FE
:103050003400984794F85E3043B100231A4639464D
:103060002046FFF797FF15B0BDE8F0832B68324686
:10307000DB68294606A89847BDF81820E38D9A42D8
:10308000EBD02B683246DB68294606A89847BDF886
:1030900018300133A4F85C300136B2E739462046D7
:1030A000FFF72AFF02460028DDD00E23D7E710B530
:1030B00090F85E4024B100231A46FFF76BFF10BD65
:1030C0001478012C05D0052CF9D1043AFFF792FFB2
:1030D000F5E7FFF785FFF2E708B5FFF779FD08BDD3
:1030E00008B5FFF7D7FD08BD30B50B46054607C943
:1030F00087B0DB68049301AC84E807000023214615
:1031000028460593FFF76EFD07B030BD08B5FFF701
:10311000FDFE08BD08B5FFF772FD08BD08B5FFF755
:1031200081FD08BD38B50446E36A2363206B38B1DE
:10313000C36821469847236B002BF5D01B69F4E741
:10314000E06A28B1056914212FF02AF82846F8E72B
:10315000E062A06828B1056914212FF021F8284603
:10316000F8E7A060606928B1056914212FF018F80C
:103170002846F8E76061206A28B1056914212FF01C
:103180000FF82846F8E7206238BD10B50446FFF76F
:10319000C9FF012384F85430206D20B10368214613
:1031A0001B699847F8E784F8540010BD08B5FFF78D
:1031B000ECFF08BD07490022C0E901120649026080
:1031C000C0E904120549C0E907120549C0E90A121D
:1031D000704700BFEC990300DC990300FC990300E1
:1031E000849A030038B504460D46FFF7E3FF0E4A04
:1031F00062640E4A65630023C4E90F33A364A363CA
:10320000C5E902230A4A84F85430C4E91333C5E9F6
:103210000424084A6C60C5E90623074B2B62636BE4
:1032200020461C6038BD00BF8F280000A33200007C
:10323000EB290000592C0000052A000038B5036A6C
:1032400004460D465BB16362606A40B1C3682946BB
:103250009847636A0BB9236AF5E71B69F3E738BD42
:103260001FB50023CDE90133137800911B2B04D047
:103270001D2B11D005B05DF804FB5388ADF8043068
:1032800001238DF806309368ADF80830694653681D
:103290000393FFF7D3FFEDE75388ADF80430022323
:1032A000EFE708B51378013B1C2B12D8DFE803F0D9
:1032B0000F110F110F110F110F110F110F110F110E
:1032C0000F110F1111110F110F1112111200FFF731
:1032D00031FD08BDFFF7C4FFFBE70000014B93F889
:1032E00091007047D83C002007B5084611461A46A1
:1032F0009DF814300093D2B29DF81030C0B20CF09B
:1033000079FD002003B05DF804FB07B508461146BF
:103310001A469DF814300093D2B29DF81030C0B216
:103320000CF0ACFD002003B05DF804FB08B50846C6
:10333000C0B2D1B20CF0B0FC002008BD08B5084600
:10334000C0B2D1B20CF0B9FD002008BDF0B589B013
:1033500001AD144602F1100C0F462A462068616840
:103360002E4603C6083464453546F7D159681868B7
:103370000E9B05AC1B8803C4ADF81C309DF83C3097
:10338000002BF8B214BF022101210CF053FD0020E4
:1033900009B0F0BDF0B589B0002301ACCDE905332B
:1033A000ADF81C3002F1100713460E46224618688D
:1033B0005968254603C50833BB422C46F7D1F0B205
:1033C00003210CF037FD002009B0F0BD08B5084618
:1033D0009DF8081059B9002B14BF02210121134692
:1033E000C0B20A4601210CF079FD002008BD03217E
:1033F000F5E708B5084600231A461946C0B20CF096
:103400006DFD002008BD0000F7B514461A464B1E9E
:10341000022B0E462CD800EB81077D6D9DB104F187
:10342000100354F8041B45F8041B9C42F9D1F0B278
:10343000796D019009F066FD0198089909F06CFD1D
:10344000002003B0F0BD0B49019210202EF0A6FE23
:10345000019A40B1034604F1100154F8045B43F8AB
:10346000045B8C42F9D178650028E0D10720E8E7B9
:103470000420E6E7C0D4030038B54B1E022B0D46EE
:103480000FD800EB8104606D20B110212EF088FE72
:10349000002363650022E8B2114609F033FD0020E5
:1034A00038BD0420FCE708B50846082106F0C4FE34
:1034B000002008BD08B50846C0B210210CF0FCFB86
:1034C000002008BD38B50446206B28B1D0E900358E
:1034D0005B6898472563F7E738BD10B50446FFF7EA
:1034E000F1FF204610BD90F8343070B5044603B1AA
:1034F00019B1256B15B984F8345070BD012384F8D7
:103500003430D5E9003628469B6898472B68284612
:103510005B6898472663F0E708B5036B23B901633E
:103520000021FFF7E0FF08BD1A465B68002BFBD1C6
:103530005160F5E710B5002444600172094C116830
:103540009288C0F80910A0F80D20046000F10F0265
:1035500003F1100153F8044B42F8044B8B42F9D1AC
:1035600010BD00BF089E030073B505460E4620201F
:103570000849CDE900322EF011FE044640B1314633
:10358000DDE90032FFF7D6FF21462846FFF7C4FFEA
:1035900002B070BDC0D4030037B50446CDE9003297
:1035A0000D46FFF79BFE40B12046DDE9003229467B
:1035B000FFF7DAFF002003B030BD0220FBE708B5BB
:1035C00013463AB1917D4069C943063301F00101C8
:1035D000FFF7E2FF08BD08B5036A2BB140694FF061
:1035E0000802FFF7A3FE08BD0920FCE770B5046AD6
:1035F0002CB90849084840F299522DF0C5FF2368BC
:1036000020465D6DDB6C98472B46411C2046BDE88B
:1036100070401847089B0300519B030070B5054696
:10362000C068134602680C46566B0A4605F1240131
:10363000B047503522461034106851682B4603C3FA
:103640000832A2421D46F7D170BDF0B50023142701
:1036500007FB03F2841894F88B603546F60707D40D
:103660007C3245F00103104484F88B30E167F0BDF3
:103670000133052BECD10020F9E770B500221424AA
:1036800000F17C0504FB02F3C61896F88B60F60780
:1036900005D5EE588E4202D17C33184470BD0132FC
:1036A000052AEFD10020F9E710B51446FFF7E5FF32
:1036B00040B1037C64F3410303741CB9DBB264F3CF
:1036C0004513037410BD70B5054600220C46FFF784
:1036D000EBFFE86803682146DB68BDE87040012223
:1036E00018470000F7B50646144601220D46FFF7BD
:1036F000DBFFF0680B4A03680A27DE690523B4FB89
:10370000F2F101F1300C0DF803C0013B02FB114452
:10371000591C92FBF7F2F2D16A462946B04703B032
:10372000F0BD00BFA086010070B506461546012217
:103730000C46FFF7B9FFF06803682A4621469B6AEA
:10374000BDE87040184770B5054601220C46FFF7EA
:10375000ABFFE868036821465B6ABDE87040184724
:1037600070B5054601220C46FFF79EFFE868036826
:1037700021461B6ABDE8704018470000036A13B574
:1037800004462BB90B490C4840F275522DF0FCFE53
:103790000192FFF772FF034648B1206A019A01685F
:1037A0004C6C5968234602B0BDE81040184702B07F
:1037B00010BD00BF089B0300519B0300036A70B556
:1037C000054616462BB91049104840F27B622DF091
:1037D000DBFEFFF752FF0446A0B1286A6168036868
:1037E0009B68984770B1237CC279C3F3400363F3AD
:1037F0008612C271286A6168036832469B6ABDE816
:103800007040184770BD00BF089B0300519B030028
:1038100037B5056A04462DB90C490D4840F291624E
:103820002DF0B2FECDE90023FFF727FF014650B18E
:10383000206A49680468DDE90023E46AA44603B00D
:10384000BDE83040604703B030BD00BF089B0300B7
:10385000519B0300036A70B5054616462BB90C4907
:103860000C4840F29F622DF08FFEFFF706FF0446E2
:1038700068B1286A616803689B68984738B1286A0C
:103880006168036832469B69BDE87040184770BDA7
:10389000089B0300519B030037B5056A04462DB908
:1038A0000C490D4840F2B3622DF06EFECDE90023C5
:1038B000FFF7E3FE014650B1206A49680468DDE97C
:1038C0000023E469A44603B0BDE83040604703B07C
:1038D00030BD00BF089B0300519B0300036A70B515
:1038E000054616462BB90C490C4840F2C1622DF032
:1038F0004BFEFFF7C2FE044668B1286A61680368A0
:103900009B68984738B1286A6168036832461B6B28
:10391000BDE87040184770BD089B0300519B030031
:10392000036A2DE9F0410546884617462BB916492A
:10393000164840F2E7622DF027FEFFF79EFE06468E
:10394000F8B1286A716803689B6898470446C0B15B
:10395000337CC279C3F3400363F34512C271286A12
:10396000716803683A461B6C9847E868E379026817
:10397000946B41463A46A446C3F34013BDE8F04178
:103980006047BDE8F08100BF089B0300519B030026
:10399000036A70B5064614464BB3FFF76EFE054644
:1039A00008B9042070BD306A696803689B6898474D
:1039B0000028F6D0EB7B13F0200211D0C3795A0611
:1039C00003D4287C10F0020007D01B0603D5042383
:1039D00023700020E6E70323FAE702232370E1E7E0
:1039E00013F0080001D00123F2E72070DAE7092084
:1039F000D8E7000037B51446026A05462AB90D49D2
:103A00000D4840F2D5622DF0BFFD0193FFF735FE62
:103A1000014668B1286A019B4968E2B20468646B98
:103A2000B2FA82F25209A44603B0BDE830406047C2
:103A300003B030BD089B0300519B030070B50546E1
:103A4000164600220C46FFF72FFEE868036866F072
:103A50007F022146DB68D2B2984721462846FFF70D
:103A60000CFE68B1C37B03F01803182B08D1E8687B
:103A7000036821469B69BDE870404FF0000218477B
:103A800070BD036A37B504460D46A3B1FFF7F5FDD7
:103A900098B1017C94F876308DF8043001F0010182
:103AA00001A8FEF799FF9DF8042060692946FFF7F9
:103AB00045FC03B030BD0920FBE70420F9E7000016
:103AC000F0B5036A87B004460D462BB91149124878
:103AD0004FF4AB622DF058FDFFF7CFFD80B1266AA1
:103AE0000E4A3368039200229F6B04920C4B42688B
:103AF0000593CDE90032029402AB0ECB3046B847B5
:103B0000E0680368DB680022294607B0BDE8F040A2
:103B1000184700BF089B0300519B0300BF350000FE
:103B2000552A000070B50022142400F1800504FB22
:103B300002F3C61896F88B60F60705D5EE588E424C
:103B400002D17C33184470BD0132052AEFD1002028
:103B5000F9E70000036A73B5064614462BB913490A
:103B6000134840F21E422DF00FFDFFF7DBFF054624
:103B700080B1306A696803689B68984750B14CB15E
:103B8000C27929687069C2F38013120604D52246EF
:103B9000FFF700FC02B070BD019304F11003009325
:103BA000224604F11203FFF7D1FBF3E7089B030061
:103BB000519B0300036A73B5054616462BB910499D
:103BC000104840F237422DF0DFFCFFF7ABFF044610
:103BD00088B1286A616803689B689847034650B1BA
:103BE000686921684EB1DB79DA090092C3F380136A
:103BF0003246FFF7EBFB02B070BDFFF7FAFBFAE7C6
:103C0000089B0300519B030073B506461546FFF75A
:103C100089FF044680B17DB1306A616803689B68A2
:103C2000984748B1C3792A69009221687069C3F343
:103C300040132A46FFF7E8FB02B070BD38B50446D2
:103C40000025C0E900550830FDF7ECF9E57325744F
:103C5000204638BD30B587B00C4601A8FFF7EEFF0F
:103C600005AD01AA2346144603CCAC421860596046
:103C7000224603F10803F6D122781A7007B030BD4E
:103C8000036A70B504460E462BB90C490C484FF434
:103C90009B622DF079FCFFF7F0FC054660B13146E0
:103CA0006069FFF7E9FB206A696803689B6E9847C3
:103CB00029462046FFF7CEFF70BD00BF089B0300DA
:103CC000519B030008B5FFF786FC08BD08B5FFF758
:103CD0005FFE08BD38B50C46E4B204F03BFE01239C
:103CE000A340DD171840294050EA010314BF01200A
:103CF000002038BD10B5044604F022FE01462046DF
:103D0000FEF73CFF204610BD03460A8B4869186049
:103D10009A801846704708B50346086858618A8833
:103D20001A8308460BF008FA002008BD07B5009278
:103D300000220B461046032109F04EFB002003B081
:103D40005DF804FB08B5FFF7F1FF08BD07B50B46AA
:103D5000009203210122002009F03EFB002003B065
:103D60005DF804FB08B5FFF7F1FF08BD1FB513466A
:103D700071B1827E8DF80F200021CDE900110DF187
:103D80000F0201200BF086FC002005B05DF804FB5B
:103D90000BF0B6FCF8E71FB5ADF80630BDF81830EB
:103DA000ADF80830BDF81C30ADF80A300846BDF853
:103DB0002030ADF80C3001A9BDF82430ADF8042056
:103DC000C0B2ADF80E300AF081FE002005B05DF8FB
:103DD00004FB08B5D2B2C9B203200AF05FFE00208E
:103DE00008BD08B50846114609F07AFB002008BD59
:103DF0001FB508461946144603900AF075F9079B4B
:103E00000398009300229DF81830E1B209F0E4FA1B
:103E1000002004B010BD13B5059C01949DF810401E
:103E20000094FFF7E5FF02B010BD1FB50846194624
:103E3000144603900AF058F9079B03980093012257
:103E40009DF81830E1B209F0C7FA002004B010BDA7
:103E500013B5059C01949DF810400094FFF7E5FF11
:103E600002B010BD08B5104619B10AF0BFF8002025
:103E700008BD0AF0CFF8FAE704F078BDBF2070471C
:103E8000FB20704708B504F077FD032828BF032006
:103E9000C0B208BD08B509F011FB002008BD10B57F
:103EA0000246002392F82D40022C07D192F82740B9
:103EB0008C4203D1203000EB031010BD0133032BE3
:103EC00002F11002EED10020F7E710B50246002300
:103ED00092F82D40022C06D1946AA14203D12030E1
:103EE00000EB031010BD0133032B02F11002EFD1E0
:103EF0000020F7E710B50246002392F82D40012C70
:103F000007D192F827408C4203D1203000EB0310F8
:103F100010BD0133032B02F11002EED10020F7E7B0
:103F200030B50D4689B059B30021FFF7E3FF0446D1
:103F3000C0B1037B0290002B4FF000058379019301
:103F400000950BBF4FF4A0632B46012204222946A3
:103F500003200AF0BBFFA06020B30223637328464E
:103F600009B030BD8DF81400ADF81C008DF81800B4
:103F700006AB07AA05A9012009F056FA2046EFE78B
:103F8000FFF78DFF044630B1017A162203200AF0B4
:103F900085FD6573E3E78DF81C0007A9012009F092
:103FA0006FFAEBE70C20DBE72DE9F04F032A8BB02B
:103FB00083469246994672D800294ED00024A046E6
:103FC0000A264FF6FF77A2453FD9149B19F8041033
:103FD00033F814307343BB4228BF3B465846059321
:103FE000FFF788FF19F80410059B0546D8B1027B3E
:103FF0000290002A8279019208BF4FF4A0634FF02B
:10400000000200929BB20CBF0122042203200AF09E
:104010005DFFA86018B90C200BB0BDE8F08F02233B
:104020006B730134CFE70AAA424402F8101C1599B9
:10403000095D02F80C1C0AAA02EB480208F101080B
:1040400022F8083C5FFA88F8EBE707AB08AA06A954
:10405000404609F0E9F90020DEE70C460D460F4620
:10406000A24517D919F804105846FFF718FF06465D
:1040700038B1017A162203200AF010FD777301345B
:10408000EEE70AAB2B4419F8042003F8082C01359D
:10409000EDB2F4E708A9284609F0F2F9DBE70420BD
:1040A000BAE790F82D3033B190F83D303BB190F83D
:1040B0004D3033B90223203000EB03107047012349
:1040C000F9E70020704782B0F8B507469DF82460F4
:1040D00007931446FFF7E3FE054628BB0146384622
:1040E000FFF708FF034698B1012C01D0042C0DD135
:1040F0009E71DDE90701221F5442544118609980E6
:104100001C730020BDE8F84002B070474573F8E723
:10411000012C01D0042CF4D13846FFF7C2FF03462E
:1041200020B101224273E3E70620EBE70C20E9E728
:104130002DE9F7439DF828909DF834809DF82C6078
:104140009DF8387005460020DCB209F0E5F94846D4
:1041500009F004FA4146002009F0F2F9394600203E
:104160000BF01EF80C9B32462146002009F014F992
:104170000C9A8DF8046052F8043B1288ADF80020C8
:10418000002122462846FFF79EFF03B0BDE8F083DA
:104190002DE9F04F85B016469DF840208DF80D2092
:1041A0009DF854208DF80E2016F0100F9DF85C201D
:1041B0008DF80F2007460D469DF83CB09DF84480D1
:1041C0009DF84CA006F00100C6F34002C6F3800142
:1041D000C6F3C004C6F300190FD029B914B90028DA
:1041E0005FD0A2B9042059E0002AFBD10028F9D001
:1041F000002C0CBF0424012409E0002956D1002C16
:10420000F0D100284DD0002A14BF0024052499B213
:10421000BDF83820284609F07FF99DF80D0009F017
:104220009DF95FFA8BF1284609F08AF95FFA8AF264
:10423000002128460AF0B9FF9DF86410284609F0CD
:1042400043FF9DF80F309DF858209DF80E1028462A
:1042500009F026FF9DF95020C6F38011284609F089
:104260000DFF4946284609F0E9FEC6F340112846ED
:1042700009F0F4FE129B5FFA88F22146284609F005
:104280008BF8129A8DF8048052F8043B1288ADF82E
:104290000020294622463846FFF715FF05B0BDE845
:1042A000F08F002A0CBF03240224B0E710B1002ACB
:1042B0009ED097E7002A14BF07240624A7E72DE91C
:1042C000F04F89B004460B8891F804B091F808A02B
:1042D00091F8099001930D4602A80A31FEF74EFCB1
:1042E00005F1170104A8B5F810806F8AAE8AFEF7B1
:1042F00045FC05F11D0106A8FEF740FC019B029854
:104300006360BDF80C30C4F80A00E3810498BDF87E
:104310001430C4F8160063830698BDF81C30E061C1
:1043200001222046227084F801B084F808A084F8A5
:104330000990A4F810806782A682238409B0BDE8A2
:10434000F08F000070B50223044603710D46054B43
:1043500044F8083B06460FCD0FC42B682360304657
:1043600070BD00BF1C9E030010B50446FCF75AFE4A
:104370000023A3716373204610BDF0B585B00446D9
:1043800000F1300602AF6846FFF7EEFF6A4604F11F
:104390002003154603CDBD42186059602A4603F13B
:1043A0000803F6D1286818601034AA889A80B442AD
:1043B000E9D1002005B0F0BD70B5144E3578BFF3DB
:1043C0005B8F15F001051FD130462DF0F1FCD8B1FF
:1043D0000F4C04F1140025602561FCF723FE04F165
:1043E0002000A577FFF7C0FF04F13000FFF7BCFF06
:1043F00004F14000FFF7B8FF30462DF0FBFC054A02
:10440000054920462DF0C5FC014870BDE81200208A
:10441000EC120020E00000208D28000038B50B4B86
:104420000B4D044640F8C83FFBF7B4FE204640F869
:10443000885FFBF7AFFE204640F8485FFBF7AAFE17
:104440002046FEF731FB204638BD00BF4C970300E5
:104450007C97030008B58069FFF73CFC08BD08B5F0
:104460008069FFF709FD08BD08B58069FFF706FD03
:1044700008BD08B58069FFF703FD80B208BD37B5F8
:10448000044668460D46FEF779FB6846FEF78FFA4C
:10449000A8B1A0692946FFF73EFC70B9012384F852
:1044A00024302B68C4F82530AB88A4F829302B6859
:1044B000C4F83D30AB88A4F8413003B030BD0420CF
:1044C000FBE782B002AB03E903009DF80500801111
:1044D00001280BD0032803D028B1042002B0704774
:1044E00000201070FAE701231370F7E7022313701E
:1044F0000020F3E737B54B7805460C4683B90069D1
:1045000018B10A7A4968FFF7BBFBE86840B1036855
:104510006168227A00919B6A8DF804206946984769
:1045200003B030BD70477FB505460C460026286AAB
:1045300002A9CDE90266FEF7B6FF10B1002004B073
:1045400070BD9DF80D3002A903F03F0368468DF859
:104550000D30FEF713FB0098BDF804302060A380F7
:1045600021466846FEF70AFB9DF8053013F0C00FA0
:10457000DDD106216846FEF7F3F90028DFD1D6E742
:1045800030B4C9B2C0689DF80850002918BF0B218B
:1045900030B104688DF80850246BA44630BC6047E5
:1045A00030BC7047C06810B428B10468646BA4467E
:1045B0005DF8044B60475DF8044B704730B4C9B2F6
:1045C000C0689DF80850002918BF0B2130B104685D
:1045D0008DF80850246BA44630BC604730BC70474F
:1045E000F0B5C06887B09DF830709DF838609DF8D0
:1045F0004050C8B1C9B204688DF8083000290D9B3D
:10460000039318BF0C21BDF83C3024698DF80410C9
:10461000ADF806208DF809708DF81060ADF81230F5
:104620008DF8145001A9A04707B0F0BD07B5C068C8
:1046300028B10368ADF804109B6901A9984703B03D
:104640005DF804FB13B5C06840B1046824688DF8B8
:1046500000108DF8012001936946A04702B010BDFB
:1046600008B5FFF7F7FE08BD08B54FF00C01FFF7DE
:10467000F7FF08BD10B50446FFF7F6FF30B1A0699B
:10468000FFF700FC0F2828BF0F2010BD0120FCE71A
:1046900090F8433073B50446A3B3FFF7E5FFD0B1FC
:1046A000002504EBD50305F0070293F80831134108
:1046B000DB07EEB20CD56846FCF7B4FC6946204631
:1046C000FFF731FFF0B1A0696A463146FFF789FB79
:1046D00001350F2DE5D16846FCF7A4FC694620465C
:1046E000FFF721FF70B1A0696946FFF714FB48B9D5
:1046F0000123009884F82430BDF80430C4F8250064
:10470000A4F8293002B070BD08B5FFF7A8FE08BDB7
:1047100008B5FFF7A9FE08BD08B5FFF7AAFE08BD5A
:1047200008B5FFF7ACFE08BD024A026000224260F5
:10473000C2607047889D030038B504466368A36073
:10474000A06838B1C36821469847A368002BF5D00C
:104750001B69F4E7606828B1056914212DF020FD7C
:104760002846F8E76060E06038BDB1F5486F28BFC3
:104770004FF44861062938BF062101807047B1F522
:10478000486F28BF4FF448610A2938BF0A210180C9
:1047900070472DE9F043C66887B00C4616B34D78D4
:1047A0003368D1F8049009895F6A002D684618BF04
:1047B0000B25FFF7DAFFA189B4F80A8001A8FFF7FB
:1047C000DEFFBDF80030ADF81030BDF804308DF8D4
:1047D0000850CDF80C90ADF81280ADF8143002A955
:1047E0003046B84707B0BDE8F08300002DE9F0413E
:1047F00090F8123113F001038AB00C462FD0C5682F
:1048000035B32B68D1F8048009891E6A04A8FFF724
:10481000ACFF618905A8FFF7A8FFE189A78906A871
:10482000FFF7ADFFBDF81030ADF82030BDF8143003
:10483000ADF82230BDF81830CDF81C80ADF82470EA
:10484000ADF8263007A92846B0470AB0BDE8F08188
:1048500009490A4800952B462A462DF007F9CDE96B
:104860000233CB8901938B8900934B890A89806934
:104870004968FFF790FAE8E7559B03004801188064
:104880002DE9F04390F812418BB014F00104BDF80B
:104890004870BDF84C800D461E462CD0C4681CB331
:1048A0002368114604A8D3F82090FFF75EFF314635
:1048B00005A8FFF75AFF414606A8FFF760FFBDF8BD
:1048C0001030ADF82030BDF81430ADF82230BDF80E
:1048D00018300795ADF82470ADF8263007A92046AA
:1048E000C8470BB0BDE8F083074908480094234649
:1048F00022462DF0BBF8CDE90244CDE9007880696D
:10490000FFF749FAEDE700BF559B03004801188007
:1049100038B500250446056005718560057300F112
:104920000D0300F12D0203F8015B9342FBD12563D7
:1049300084F8345004F13500FDF7D6F904F1450050
:10494000FDF7D2F9C4E916552566204638BD0000AA
:1049500010B50B4C2378BFF35B8FDB070ED42046DA
:104960002DF026FA50B10748FFF7D2FF20462DF070
:1049700041FA054A054903482DF00BFA014810BDDC
:104980003C13002040130020E0000020DB34000036
:1049900008B5062233F0E4FEB0FA80F0400908BD05
:1049A000036A37B505462BB91A491B4840F27E42C7
:1049B0002CF0EAFDFEF761FE044688B1286A6168C2
:1049C00003689B68984758B195F876301B0709D55E
:1049D00005F12A01FFF7DCFF237C60F30413237445
:1049E00003B030BD237CC3F3800262F3041323744D
:1049F00005F160010191FFF7CBFF30B9019904F196
:104A00000800FFF7C5FF0028EAD0237C43F010031D
:104A1000E5E700BF089B0300519B0300F0B5036A64
:104A200085B004460E46002B54D0FEF726FE054600
:104A3000002851D094F879301BB994F876301A07D1
:104A40004CD5002231462046FEF72EFE3146204648
:104A5000FFF7A6FF94F877202B7C94F87670DB079D
:104A6000C2F3C00343F002038DF8083095F90F300C
:104A700048BF47F00407002BB6BFEA7BC2F38001B2
:104A8000C2F3801102A8FDF7A7FF94F87A2094F8EA
:104A900077300AB18DF808308DF80C3095F90F3069
:104AA000E97B002B04DAC1F3801103A8FDF794FF22
:104AB0002A7C9DF808309DF80C108DF804108DF8B4
:104AC000003060693B46C2F300123146FEF70CFC31
:104AD00005B0F0BD0920FBE70420F9E70620F7E761
:104AE00008B5FFF79BFF08BD2DE9F04105460E46CE
:104AF0001746FEF7C2FD044640B3FBB2022B0DD1B0
:104B0000C37B23F0380343F02003E373E8680368B2
:104B10003A4631469B69BDE8F0411847DA1E012A42
:104B200005D8C37B23F03A0343F02203EDE7002BC3
:104B3000ECD1C37B03F01803082BE7D101682846AA
:104B4000FFF7CEFFE37B43F01003E373BDE8F08192
:104B5000F0B5036A85B005460E46002B56D0FEF729
:104B60008CFD0446002853D031462846FFF718FF35
:104B7000237C95F8767095F87A10DA07A27B48BF07
:104B800047F0040702F00F0302F0040200293AD0B4
:104B900095F877100B408DF808306AB194F90F3012
:104BA000002BB5BFE17B95F87720C1F38011C2F3EC
:104BB000800102A8FDF710FF95F87720A37B02EA99
:104BC00013138DF80C305B070BD594F90F30002BC5
:104BD000B6BFE27BC2F38001C2F3801103A8FDF7E8
:104BE000FBFE227C9DF808309DF80C108DF8041017
:104BF0008DF8003068693B46C2F300123146FEF77B
:104C000084FB05B0F0BD03F00A03C4E70920F8E710
:104C10000420F6E708B5FFF79BFF08BD2DE9F0413A
:104C200090F879209DF818609DF81C7004460D4698
:104C30002AB91B0703D4FFF745F8BDE8F0812946E0
:104C40002046FEF71AFD0028F7D0037C06F00F0679
:104C50006FF3410346EA07168673037494F87830BD
:104C600033B1E068036829469B68BDE8F041184706
:104C700029462046FFF7CEFFDFE70000036A2DE953
:104C8000F04104460E462BB91F49204840F23462D9
:104C90002CF07AFCFEF7F1FC054648B3206A6968FF
:104CA00003689B689847804610B304F16007394653
:104CB000FFF76EFE28B9394605F10800FFF768FED8
:104CC00098B1012231462046FEF7EEFC314660697C
:104CD00004F16602FEF7EEFB39464046FFF758FE48
:104CE00030B100232366BB8002E02B7C9A0601D5FD
:104CF000BDE8F08143F020032B74E068036831467F
:104D0000DB6ABDE8F0411847089B0300519B030094
:104D100030B587B08B7A8DF804300C46CB7A8DF89D
:104D2000053005460C310DF10600FDF727FF227A0C
:104D3000616803A8FCF7F8F8637A8DF8143001A9CC
:104D40002846FFF7FFFA284607B030BD2DE9F047A7
:104D5000C46886B088469DF838A017461E46CCB178
:104D6000236810999DF83C20D3F814906D4628468E
:104D7000FCF7DAF895E8030006AB03E90300ADF8A9
:104D800008808DF80A708DF80B608DF80CA002A9D0
:104D90002046C84706B0BDE8F08700002DE9F04F77
:104DA000054695B00C460026236820469B68984728
:104DB000B0425AD92368F2B2DB68214607A8984767
:104DC00095F838308BB195F83C30022B0DD19DF819
:104DD0001D30012B09D10DF11E010CA8FDF7CEFEEF
:104DE0000CA8FDF7EEFD00283DD1EF68002F3AD06A
:104DF0009DF81C309DF92CB0042B9CBF1C4A12F866
:104E000003A03A689DF81D3001930DF10C099368D9
:104E100000930DF11408484688BF4FF0000AFCF7D4
:104E200001F9DDE909124046FCF77EF8019B8DF897
:104E300031300DF11E030D930E4B0E9398E80300D5
:104E40000023ADF83E30FF238DF8403014AB8DF8D1
:104E500030A08DF83CB0CDF8449003E90300009BEE
:104E60000CA93846984701369EE715B0BDE8F08F8B
:104E7000449E03000100FF7F2DE9F04F1F468DB0D7
:104E800090F838309DF858A0179C9DF87090064611
:104E90008846154683B190F83C30022B0CD15AB1AC
:104EA0001378012B08D1394604A8FDF767FE04A842
:104EB000FDF787FD002838D1F668002E35D033681D
:104EC0009B68002D34D02D7804B124789DF878208B
:104ED0001F9901930DF1080B5846FCF725F89DF832
:104EE00060208DF81A209DF964208DF81B209BE826
:104EF00003009DF968208DF81C20BDF86C20ADF8EA
:104F00001E200CAB1D9A8DF810808DF8115005975E
:104F10008DF818A08DF819408DF82090099203E9BA
:104F20000300019B04A9304698470DB0BDE8F08FFF
:104F3000FF25C9E72DE9F04F984690F8543087B027
:104F4000DDE9107B81468A4616461BB1062007B074
:104F5000BDE8F08F1146FDF78BFE04460028F5D121
:104F600031464846FDF7F6FEBAF1030F054640F01C
:104F700088808DF81040FCF735FD03681B6B98475F
:104F800004AA3146FEF7A2FE20B99DF81030023B7C
:104F9000022B79D90F3DADB2BD4201D20320D6E735
:104FA000D9F834403A46594604A8FBF7BDFF646A75
:104FB000049B0093F0B2BDF81430226A414606F01B
:104FC0009FF9236AD9F84C00013323620028BED030
:104FD000FEF70CFB68E0BAF1010F4BD1EB1E9BB260
:104FE000BB4209D2384633F0A1F80446002846D027
:104FF0003A46594633F0E4FB2C4920202DF0CEF8F8
:105000000146002838D002230371294B03604FF476
:10501000306383834FF0000AFF238660C0F80CA042
:10502000A0F810804782A0F814A0846183774846D6
:10503000FDF726FEF6B284B16A1F594604A8FBF7B5
:1050400073FF049B0093CDE901AABDF814305246CA
:105050004146304606F0E3F926E03A46594604A8B0
:10506000FBF762FF049BBDF814204146304605F073
:1050700039FF19E002206AE7204633F05FF8072085
:1050800065E7BAF1020FA6D1033DADB2BD4285D3AB
:105090003A46594604A8FBF747FF049BBDF8142085
:1050A0004146F0B206F098F9002050E7C0D4030062
:1050B000B49D030013B5059C0194049C0094FFF774
:1050C00039FF02B010BD70B504461546084686B0DB
:1050D000A168FDF73FFEEB68A988628AA5680B44CA
:1050E0009BB29342A38218D2D21A0538A169268AAC
:1050F0008242A8BF0246194404A8FBF715FF00230B
:10510000CDE90133049B0093A28ABDF814303146E7
:10511000E8B206F084F906B070BD0121E8B206F0ED
:10512000BFF9F8E710B503460C4607C983E8070046
:10513000E268DA6000221A61184610BD70B50026D8
:105140001D46134B06710446C0E9021640F8103B99
:105150001146FFF7E7FF95E8070004F1240383E811
:105160000700EB680499C4E90C3604F13800FDF738
:10517000F6FC059904F14C00FDF7F1FC266604F1FC
:105180006400FDF721FE84F88860204670BD00BFF2
:10519000D09D03002DE9F04F1E4699B090F8543091
:1051A000229D07468846914623B10624204619B021
:1051B000BDE8F08FFDF748FD0028F6D1D9F80030A2
:1051C00033B9346824B941463846FDF7ACFDEDE704
:1051D000494604A8FFF7A6FF96E807000DF1240949
:1051E0000DF1380B89E80700F3680C9329464FF05E
:1051F000000A584613ACCDF834A0FDF7B0FC239953
:105200002046FDF7ACFC24498C202CF0C7FF064655
:1052100000283FD04B4604AA4146CDE900B4FFF731
:105220008DFF31463846FDF72BFD214628468DF887
:105230004CA0ADF85EA0FCF7CFFE78B1012140464E
:10524000FDF76EFC04460028B0D038463146FDF725
:1052500059FD336830465B689847A7E72B78B3B9A8
:1052600005F1120102222046FBF75EFE139B01931B
:105270000024BDF85030009302944FF420534FF6B1
:10528000FF7201215FFA88F005F0D5FE8EE7691CF8
:105290001022E8E7072489E7C0D4030070B58CB07A
:1052A0001C4605460E4602A81146FFF73BFF94E850
:1052B000070007AB83E80700E2680A9200220B921E
:1052C000119A0192109A0092314602AA2846FFF7DD
:1052D00061FF0CB070BD0022027042707047000088
:1052E0002DE9F34104468846174600251E46FFF780
:1052F0001BFA089B2362C4E90676C4E9045884F8C3
:10530000245004F12500FBF78DFE4FF40033A36316
:1053100004F13D06012384F83C3084F82B5084F8D6
:105320002C5084F82D502563A5863046FBF77AFE75
:1053300084F8435084F8445004F14800FBF730F8F7
:1053400004F18800FBF72CF804F1C800FAF7E6FF37
:1053500004F58470FFF7BFFF04F58570FFF7BBFF0E
:1053600004F58670FFF7B7FF04F58770FFF7B3FF0A
:1053700004F58870FFF7AFFF94F81231A06965F368
:10538000000384F81231FEF7F8FFA3690B4A5C6052
:10539000C3E902250A4A1A616846A169FEF7B4FC0E
:1053A000BDF804300098A4F84130A369C4F83D006A
:1053B00020461C6002B0BDE8F08100BF5F6D0000B8
:1053C0006F2A0000CA08012301F0070103FA01F166
:1053D000835C194381547047CA08012301F0070117
:1053E0008B40815C21EA030181547047F0B5064689
:1053F00085B000F585700C46114615461F46FFF72F
:10540000EBFFF06880B1E4B203689DF828205B6888
:105410008DF80450B4FA84F4640902978DF80C20D6
:105420008DF80D4001A9984705B0F0BD2DE9F04F6A
:1054300091B00E4607461446FFF71CF9B04240F201
:105440008A8007EBD60306F0070593F80A11294175
:1054500011F001017DD12378607E012BC0F3401251
:105460000C9201D8002A76D0052B6CD8DFE803F027
:105470000308106B0C68002501234FF001080AE0B7
:10548000012100230D46F8E700230125A84602E08C
:105490000025A8460123A27B0F9294F917200D92B4
:1054A000227E0E9248EA4303C0F300120B9243EAB5
:1054B00085030C9A94F80D9094F80CB094F80FE0D2
:1054C00094F810A08DF8089043EAC10343EA021251
:1054D00006F00F030A930E9B08930D9B06930F9BF8
:1054E0008DF81430C0F3C00104F1110342EA4111F8
:1054F00000F0070CC0F380120493A368009341EA04
:1055000082126368B8698DF804C031468DF824A012
:105510008DF81CE08DF80CB0FEF73AFE68B907F57F
:1055200088703146B8F1000F10D0FFF74BFFB86913
:1055300007F13D023146FEF754FC11B0BDE8F08F93
:1055400000252B4699E700252B469FE7FFF744FFF0
:10555000EDE70820F1E70420EFE710B590F80831F7
:1055600013F0010388B0044644D14FF480614FF436
:105570000062CDE902120DF1150001228DF8043010
:105580008DF810308DF812308DF811208DF8132021
:105590008DF81420FBF746FD7F238DF81B30BDF8F6
:1055A0001C3023F4FF4323F07F0343F41C53ADF876
:1055B0001C309DF80430032B11D1029A039B6FF02D
:1055C0007F418A4228BF0A46A02A38BFA0228B42C8
:1055D00028BF0B46A02B38BFA0230292039301AA39
:1055E00000212046FFF722FF94F8083143F0010321
:1055F00084F8083108B010BDF0B587B00D460646F6
:105600001446FFF737F8A84202D8042007B0F0BDCF
:1056100006EBD50305F0070293F808311341DB07C9
:1056200004D4002DF1D13046FFF797FF3046FFF745
:105630001BF828B1224629463046FFF7F7FEE5E77A
:10564000002DE2D12246617E12F8113B607B257B62
:10565000A77B029201F007018DF80C108DF8000075
:105660002289A188B0698DF810708DF80450FEF77A
:105670005FFDCBE708B5FFF7BFFF08BD008808B5A1
:1056800028B9034903484FF488722BF07DFF08BD09
:10569000929B0300C79B0300002A38B5044602DB37
:1056A0004868904205DA0E490E4840F26F322BF0FE
:1056B0006BFF5D1C09D0002B02DBD518A84204DA71
:1056C000074909484FF45C72F1E75D1C096808BF9F
:1056D000831A114420461A46FBF726FC204638BDA3
:1056E000B6970300D49B0300F39B03002DE9F04F12
:1056F0002DED028B8FB00DF1100B8BE80C009DF897
:1057000068309DF86C700D4608EE103A0446FEF7BE
:10571000B1FFA84245D904EBD50905F0070899F86F
:10572000083143FA08F3DA0704D4002D39D12046B2
:10573000FFF713FF2046FEF797FF28BB002D30D15F
:10574000059E1F2E2DDC544B544AD4F81880049922
:10575000002F14BF1F4617461F2E344628BF1F2494
:10576000224606A833F02CF806ABC4F11F022946E6
:10577000181933F02BF906AAF1B24046B8470FB01A
:10578000BDEC028BBDE8F08F2046059EFEF7BCFF06
:10579000B04208DA0023424900931A4641482CF0EF
:1057A0005DF90420EBE799F80A6146FA08F616F06D
:1057B00001060BD12046DDF814A0FEF7ADFF5045E1
:1057C00004DA3949009633463246E7E7002F53D1D1
:1057D0002046059EFEF79CFFB04247DA99F80A3151
:1057E00043FA08F3DB0706D599F8103143FA08F8B5
:1057F00018F0010F35D1294604F58770FFF7E2FD57
:105800002A4BA0690393FEF73BFBDDF814800746A3
:10581000C14600230293029B434502D353EA080387
:1058200038D147452AD94FF0030A4F453B46029AE3
:1058300028BF4B46594606A8FFF72EFF069B01934B
:105840009DF81C300093A069039E18EE103A524652
:105850002946B047A9EB0709002890D1029B3B4499
:10586000D8E7134900973B463A4697E7294604F59F
:105870008770FFF7B1FDC3E70E4BC2E7029B13B978
:105880004FF0010AD1E74F4534BF4FF0000A4FF007
:10589000020ACAE7002072E7653D0000453D0000AE
:1058A0003F9C03000501FF80739C0300173E00002E
:1058B000EE9C0300513E00001FB502AC84E80C00D2
:1058C00001230022CDE9003294E80C00FFF70EFF1F
:1058D00004B010BD13B56C4684E80C0094E80C00CD
:1058E000FFF7EAFF02B010BD00230370437070475A
:1058F00030B5044685B0FEF71FFF04F14800FAF703
:10590000C1FC04F18800FAF7BDFC2046FEF7ACFEAE
:1059100000284ED0012303930025039B0E2B25D88E
:1059200004EBD30203F0070392F80A2142FA03F3CF
:10593000D80707D5CDE90055A06903AB01220021A6
:10594000FEF732FB039B04EBD301DAB291F80C11A2
:1059500003F0070341FA03F3D90703D5A069002137
:10596000FEF780FA039B01330393D6E704F58470B6
:10597000FFF7BAFF04F58670FFF7B6FF94F80A3117
:10598000DB0707D50021CDE900110B4BA0690122EF
:10599000FEF70AFB04F58570FFF7A6FF04F5877094
:1059A000FFF7A2FF04F58870FFF79EFFA069FEF7DE
:1059B00071FA002005B030BD679E030008B5FFF7FF
:1059C00097FF08BDC3681847F0B5036E93B006464D
:1059D00023B93046FDF7C1F913B0F0BD436A002B7F
:1059E000F7D0036900F11007CBB1002109A8FCF73B
:1059F000E6FA316E0023043104A80E93FDF7AFF8E8
:105A0000336E04ACD3F800C00FCC09AD0FC52368CA
:105A10002B6009A93846CDF838C0FFF7D3FF09A895
:105A200009ADFDF7D1F90FCD06F164040FC40FCD18
:105A30000FC42B682360336EB4685A881D880392A4
:105A400042F6030109A8FCF7BAFA9DF82430039A3C
:105A5000E0B24BB110230DF125010024CDE9001473
:105A6000294605F019FBB7E702230DF13601F4E7EB
:105A700070B5B0F8823086B004460D46D3B900F157
:105A80004C0601A930468DF80430ADF81630FCF70D
:105A9000A3FA28B904F168013046FCF79DFA48B131
:105AA000236E5B88A4F8823004F16401236B04F157
:105AB00024009847206E836923661C212CF070FB1C
:105AC000236E294620461BB9FDF747F906B070BD85
:105AD000FFF77AFFFAE72DE9F04F044695B08946C3
