:020000040000FA
:1000000000000120C9020000D5020000A901000083
:10001000D9020000B1010000B5010000000000009D
:1000200000000000000000000000000005020000C9
:10003000E1020000000000009D020000AD0200008F
:10004000E702000079B10000E7020000E7020000CB
:10005000E7020000E7020000E7020000E7020000FC
:10006000E7020000E7020000E7020000E7020000EC
:10007000E702000099B10000E70200003133000000
:10008000E7020000E7020000E7020000E7020000CC
:10009000E7020000E7020000E7020000E7020000BC
:1000A000E7020000E7020000E7020000E7020000AC
:1000B000E7020000E702000000000000000000006E
:1000C000E7020000E7020000E7020000E70200008C
:1000D000E7020000E7020000E702000000F002F87B
:1000E00019F048FE0AA090E8000C82448344AAF16B
:1000F0000107DA4501D119F03DFEAFF2090EBAE869
:100100000F0013F0010F18BFFB1A43F0010318474B
:10011000604C0400804C04000A444FF0000C10F8BE
:10012000013B13F0070408BF10F8014B1D1108BF75
:1001300010F8015B641E05D010F8016B641E01F815
:10014000016BF9D113F0080F1EBF10F8014BAD1C65
:100150000C1B09D16D1E58BF01F801CBFAD505E083
:1001600014F8016B01F8016B6D1EF9D59142D6D3DD
:10017000704700000023002400250026103A28BF05
:1001800078C1FBD8520728BF30C148BF0B60704709
:100190001FB542F016F89DE8030000F0AFFD00F037
:1001A0007DFF00F077FD1FBD102304E0202302E057
:1001B000302300E040239C46F0B404AE7546E808C6
:1001C00001D3EFF309860E4F0FCE0FC70FBC0FC739
:1001D0004046494652465B460FC71DCE3100A60A2F
:1001E00000D304316E0900D248311FC7EFF30980F4
:1001F0006946EFF3148663C76046014938F088FE0C
:10020000686A00201EF0040F0CBFEFF30880EFF3C4
:100210000980816911F8021C91BB01B590E80F10AB
:10022000E047BDE800508CE80300244B93E806004B
:10023000914208BF704741B91EF0100F10D12049FC
:10024000086820F0010008600AE02CE9F00F1EF0B9
:10025000100F08BF2CED108AC1F838C081F822E0D9
:100260001A6092F82210906B61F0FF0E1EF0100FD2
:1002700008BFB0EC108AB0E8F00F80F3098870472F
:10028000104A13689942FAD801B552F821C00FC834
:10029000E047BDE80050CCF80000704701B53BF0E6
:1002A00021F9BDE80140EFF3098CBEE701B53BF051
:1002B000A7FBBDE80140EFF3098CB6E75C02002024
:1002C00034EF00E01C3A04000748804707488047A5
:1002D00007480047FEE7FEE7FEE7FEE7FEE7FEE72A
:1002E000FEE7FEE7FEE7FEE775CC0000CDA50300C4
:1002F000DD000000704719F065BD0844401E491E2E
:10030000884370470821001DF7E72DE9F0411746A3
:100310000E460446FFF7F6FFA042054633D9002FEC
:100320001CBF06F10C0019F0AFFD30467468F4B143
:100330002168A94217D305F1080291423CBF6168C8
:10034000416007D3626861194A602268521B0A60E3
:1003500041602560002F1CBF06F10C0019F014FE4F
:10036000201DBDE8F08120466468002CE0D12946BC
:10037000304600F0AFFC0028D7D1002F1CBF06F19B
:100380000C0019F001FE0020BDE8F08110B5044614
:1003900000F097FC01682046BDE810400122B4E758
:1003A00070B516460D46041F002808BF70BD002E0C
:1003B0001CBF05F10C0019F067FD2B46586800289A
:1003C00018BFA04238BF0346F8D31968CA18A24222
:1003D00018BF5C6003D122681C4611441960216873
:1003E0000A19824218BF606004D1426862600068E6
:1003F00008442060002E1CBF05F10C0019F0C4FD5C
:1004000070BD10B5044600F05CFC01682046BDE8F4
:1004100010400122C4E753EA020C00F069802DE984
:10042000F04B4FF00006002B1FBFB3FA83F503FA21
:1004300005F424FA05F65E4012BF1643B2FA82F5BF
:1004400002FA05F4C5F120051EBF22FA05FC44EAB4
:100450000C04203556EA044C4FEA144418BF641CBF
:100460004FF000084FF00009904271EB030C39D3B4
:10047000002919BFB1FA81F701FA07F6B0FA80F73F
:1004800000FA07F6C7F120071EBF20FA07FC46EA6C
:100490000C062037B6FBF4FCA7EB0507103F07F06E
:1004A0001F0BCBF120062CFA06F60CFA0BFB44BF0F
:1004B000B3460026202FA4BF5E464FF0000B5BEA38
:1004C000060C08BF4FF0010B19EB0B0948EB0608AF
:1004D000ABFB027C06FB02CC0BFB03CCC01B71EB1D
:1004E0000C01C1E70B46024641464846BDE8F08B89
:1004F00013B5084318BF4FF0FF300146AFF300803B
:10050000BDE81C40704753EA020C23D010B54C10D4
:1005100084EA530404D54042C1F1000138BF491EAA
:100520001B4204D55242C3F1000338BF5B1EFFF7E4
:1005300072FF14F0804F04D04042C1F1000138BF77
:10054000491E14F0004F04D05242C3F1000338BFDB
:100550005B1E10BD13B540424FF0000070EB01046C
:10056000B8BF012001F0004100281CBF6FF000411E
:100570004FF0FF30AFF300801CBD70B504468569B5
:100580000068C10601D5302600E02026C00707D04C
:1005900070BDD4E9012130469047206A401C20629A
:1005A0006D1EF6D570BD70B5044685690078C0072C
:1005B00007D170BDD4E9012120209047206A401C5A
:1005C00020626D1EF6D570BD2DE9F0410446164639
:1005D0000D464769007B80072ED0384619F0FEFC97
:1005E00050BB3EB3012E02D0022E25D104E020469E
:1005F00000F066F805441DE0384619F0DBFCE168C0
:10060000002841F01001E16005DA204600F09AFC74
:100610000120BDE8F081C9030BD56268E16A91420F
:1006200000D81146A26911442269891A814200DD6D
:1006300008460544002D01DA0220EAE7E16A606815
:10064000E268814206D29103E06203D522F40031D0
:1006500041F01002A6690027AE4213DCE16A814234
:1006600001D90B4600E0034603EB060C2369ACEB13
:10067000030CAC4506DD814201D98C4600E084467E
:100680009C4505D1A760276042F02000A5620DE0DF
:10069000AD1BE669AE1B8142A66000D90846C01AB0
:1006A000281A20605819606022F020000349084091
:1006B000E060002084F84870ABE70000BFCFD7FFB0
:1006C00010B50146C268900703D0900607D5886A26
:1006D0000AE0FFF710FE01210160881E10BD8B6942
:1006E000486818440B69C01A91F848301BB191F85A
:1006F0004910401A10BD1103FCD50028FADD401E38
:1007000010BD2DE9F04704464FF000094FF0FF37C8
:10071000C568D4E90486A80707D0204600F046FC47
:10072000304619F041FC002802DA3846BDE8F0876F
:10073000280502D54046FFF764FE4C21204600F014
:1007400040FA206D20F0010020654846EEE770B5C4
:100750000C46064601F14C05284619F095FB21464A
:10076000304641F021FD0446284619F00DFC204694
:1007700070BD00002DE9F04716468846070010D0EE
:1007800006F14C00814619F07FFB3046FFF7B9FFB8
:1007900018F8010B61280DD0722805D0772841D1B7
:1007A00005E00020BDE8F0870125002405E00225D2
:1007B000042402E0082448F2020518F8010B2B2853
:1007C00006D0622809D018F8010C74280AD00BE072
:1007D00045F0030544F00204EFE745F0040544F05A
:1007E0000104EAE744F010043846214619F0FAFB08
:1007F000411C17D00021316171604FF40071F56028
:10080000F1617061200704D5304602220021FFF714
:10081000DBFE306D40F001003065484619F0B4FB56
:100820003046BFE70026F8E72DE9F04115460E46B1
:100830000746214C204619F027FB2A463146384608
:10084000FFF798FF0546204619F09EFB2846BDE8B5
:10085000F0812DE9F0410E468046174D284619F0EB
:1008600013FB164C206DC10704D0410804D020F0C2
:100870000104F7E7224612E05420FFF787FD070046
:1008800017D0206D47F001010843542120653846F8
:1008900000F097F907F14C0019F024FB3A46314675
:1008A0004046FFF767FF0446284619F06DFB2046D7
:1008B000CDE70024F8E70000EC0000204C03002006
:1008C00030B503461D783DB10A4612F8014B1CB104
:1008D000AC42FAD15B1CF5E7181A30BD40EA0103BF
:1008E00010B59B070FD1042A0DD310C808C9121FD9
:1008F0009C42F8D020BA19BA884201D9012010BD13
:100900004FF0FF3010BD1AB1D30703D0521C07E0DF
:10091000002010BD10F8013B11F8014B1B1B07D143
:1009200010F8013B11F8014B1B1B01D1921EF1D1B4
:10093000184610BD10B5431C02E010F8011B71B140
:100940008107FAD14FF0013202C88C1A8C4314EAA5
:10095000C211F9D0C01A0A0603D0C01E10BDC01AB9
:1009600010BD0A0401D0801E10BD0902FCD0401E3B
:1009700010BD032A40F2308010F0030C00F0158007
:1009800011F8013BBCF1020F624498BF11F801CB92
:1009900000F8013B38BF11F8013BA2F1040298BFF7
:1009A00000F801CB38BF00F8013B11F0030300F061
:1009B0006780083AC0F0088051F8043B083A51F8C3
:1009C00004CBA0E80810F5E7121D5CBF51F8043B0A
:1009D00040F8043BAFF30080D20724BF11F8013B7D
:1009E00011F801CB48BF11F8012B24BF00F8013BDF
:1009F00000F801CB48BF00F8012B7047431A28BF0D
:100A00009A427FF6B6AF10441144032A40F2268082
:100A100010F0030F1EBF11F8013D521E00F8013DFA
:100A200010F0030F7FF4F6AF11F0030300F06D80B8
:100A3000083AC0F00B8051F8043D083A51F804CD53
:100A400040F8043D40F804CDFFF7F3BF121D5CBF32
:100A500051F8043D40F8043DAFF30080D20724BFB5
:100A600011F8013D11F801CD48BF11F8012C24BF48
:100A700000F8013D00F801CD48BF00F8012C704797
:100A800010B5203AC0F00B80B1E81850A0E818501B
:100A9000B1E81850A0E81850203ABFF4F5AF5FEA6B
:100AA000027C24BFB1E81850A0E8185044BF18C910
:100AB00018C0BDE810405FEA827C24BF51F8043BB7
:100AC00040F8043B08BF7047D20728BF31F8023B0B
:100AD00048BF11F8012B28BF20F8023B48BF00F89F
:100AE000012B7047431A28BF9A427FF6C9AF1044C2
:100AF000114410F0030F1EBF11F8013D521E00F803
:100B0000013D10F0030F7FF4F6AF103AC0F00A80F9
:100B100010B531E9185020E91850103ABFF4F9AF78
:100B2000BDE81040530724BF31E9081020E9081040
:100B300044BF51F8043D40F8043D12F0030F08BFD4
:100B40007047D20728BF31F8023D48BF11F8012C89
:100B500028BF20F8023D48BF00F8012C704702F082
:100B6000FF0343EA032242EA024200F00AB802F01D
:100B7000FF0343EA032242EA024200F024B84FF0A6
:100B800000020429C0F0128010F0030C00F01B805A
:100B9000CCF1040CBCF1020F18BF00F8012BA8BF68
:100BA00020F8022BA1EB0C0100F00DB85FEAC17C2C
:100BB00024BF00F8012B00F8012B48BF00F8012BDF
:100BC00070474FF0000200B5134694469646203910
:100BD00022BFA0E80C50A0E80C50B1F12001BFF4F6
:100BE000F7AF090728BFA0E80C5048BF0CC05DF85C
:100BF00004EB890028BF40F8042B08BF704748BFAA
:100C000020F8022B11F0804F18BF00F8012B70471D
:100C100030B44FF0013C50F8042B51F8043BCCFAAF
:100C200052F4D51A20D1FCB950F8042B51F8043BEA
:100C3000CCFA52F4D51A17D1B4B950F8042B51F8A4
:100C4000043BCCFA52F4D51A0ED16CB950F8042BEF
:100C500051F8043BCCFA52F4D51A05D1002CDAD065
:100C600030BC4FF00000704729BAB1FA81F111F0A1
:100C70001801D1F120008440F2D1CA40CB4012F0DB
:100C8000FF0213F0FF0330BCD01A70477047704763
:100C90007047000070B5064C7C44064D7D4404E06E
:100CA0002046016808448047241DAC42F8D170BD3D
:100CB000084104000841040000487047480400202F
:100CC000704710B5FFF7F8FF083010BD7047704748
:100CD0007047704738B504460A4600206946AFF3AE
:100CE0000080002808BF38BD02460099204600F069
:100CF000CBFA012038BD012000F016BBF8B5AFF3E8
:100D00000080054600200C46102000BF0646A819AA
:100D1000A0420DD9324669460020AFF3008007009B
:100D200008BF00F001FB0098A04218BF0546C41997
:100D3000FFF7C7FF05600746F01D20F007004619C2
:100D4000284600F00AF8B44208BFF8BDA21B31469D
:100D50003868BDE8F84000F097BA00210160C0E9AA
:100D600001100C3019F0BEB8102070472DE9F04783
:100D700005460C46C86820F4201040F48000C86086
:100D8000800602D5084600F034F9E06841F282019D
:100D90004FF0FF390140022903D0204600F0D2F87D
:100DA000B5E000F42041B1F5004F0FD1C00306D5E6
:100DB0006168E06A884200D80846606006E0206901
:100DC000E0626060606919F0F5F8A061A068002237
:100DD000EEB200280DDAE1688B050AD4C043A060AA
:100DE00041F490302260E0606068411C61600670F0
:100DF000A5E0E0689046226040F40050E060206981
:100E000068BB606919F0EAF8012704F12405A0B174
:100E1000A08910F4407F08D0E069FFF7B7FA20619D
:100E200018B1E06840F4006016E0E7612561E06811
:100E300020F4407040F480600EE0E069FFF7A6FA0D
:100E400000282061F1D0E06840F4006010F4407F99
:100E5000E06002D140F48070E06020696060E0688A
:100E600025696FF0010AC1051FD56168E06A8842F3
:100E700000D80846411B04D02246284600F06CF8F2
:100E8000F0BBE068010203D5E562C4E9015854E013
:100E9000691CE1626160E16940F48030491EC4E987
:100EA000021030462E70BDE8F087010202D500F432
:100EB00080320AE06068411C61600670E0680A2EBA
:100EC00040F48030E06006D00022E16A6068814230
:100ED00003D90B4602E00122F7E70346A7895B1B13
:100EE0007F0503D4E7699F4200DDE2B1814200D86B
:100EF0000146E5620F1AC4E90158002B09DD00E044
:100F000005E022461946284600F026F808B1484672
:100F1000C9E747B1A069E5626560C01BA061E068F0
:100F200040F01000E060E068000208D56168A06948
:100F3000E562491B08446560A0615046B3E730464E
:100F4000B1E70000C16821F4001141F08001C160E7
:100F500000218160016070472DE9F0478146144609
:100F60000E464FF0FF383248D5685769054209D020
:100F70003846A16919F06CF8002811DB2C48C043F1
:100F80000540E5602B4632464946384619F066F87A
:100F9000A16920F00042B21A11440028A16103D0D7
:100FA0002046FFF7CFFF4046BDE8F08770B5044606
:100FB0000569C06A6168884200D80846E16821F482
:100FC0002011E160C90312D5A84208D02246411B76
:100FD0002846FFF7C1FF10B14FF0FF3070BD002071
:100FE000E562C4E90150E06820F48030E060002050
:100FF00070BD10B50446C06820F02000E060A16A12
:10100000A06988420DD02046FFF7D0FFE06820F4A9
:10101000405040F01000E060A06AA0612069E062EA
:10102000606044F24001E0688843E06010BD000069
:10103000100002002DE9F04704461E4690460D467A
:10104000C7684C30814618F01FFFB80714D07802EB
:1010500012D44046B8F5807F09D0B0F5007F06D0A5
:10106000B8F5806F08D1012604F1240506E0701E52
:101070006FF07F41884201D3012409E02561E661D8
:101080006560E06820F4706040EA0800E0600024D9
:10109000484618F079FF2046BDE8F08710B565484E
:1010A0005421FFF78EFD64485421FFF78AFD634801
:1010B0005421FFF786FD62485E49624A624B016037
:1010C0005D4810605D4A1A60431C0B65511C016548
:1010D0000120106557484C3018F004FF56484C303A
:1010E00018F000FF55484C3018F0FCFE574818F037
:1010F000F9FE58484F4A56A17844FFF795FB20B9AE
:10110000544878440A3800F008F954484A4A52A131
:101110007844FFF789FB20B9504878440A3800F03A
:10112000FCF84F48454A4CA17844FFF77DFB20B9B5
:101130004B4878440A3800F0F0F840233D48DC0082
:1011400000212246FFF776FF20B142487844543808
:1011500000F0E3F83848224640230021FFF76AFFF9
:1011600020B13E487844543800F0D7F8334822463E
:1011700010230021FFF75EFF002806D0384878448E
:10118000BDE81040563800F0C8B810BD2B482DE916
:10119000F041006D2D4E20F00104304618F074FE31
:1011A000244D4C35284618F06FFE2248FFF7A9FA67
:1011B000284618F0E9FE284618F074FE1E4D4C35FE
:1011C000284618F061FE1C48FFF79BFA284618F0E5
:1011D000DBFE284618F066FE184D4C35284618F000
:1011E00053FE1648FFF78DFA284618F0CDFE284624
:1011F00018F058FE14E0206D20F0010504F14C00B9
:10120000074618F041FE2046FFF77BFA384618F0F3
:10121000BBFE384618F046FE2046FFF7F2F82C4693
:10122000002CE8D1304618F0AFFE084818F03AFE1E
:10123000BDE8F0814C030020A0030020F40300204F
:10124000E0000020E4000020E8000020EC00002086
:101250007200000090170400770000007F17040060
:101260005817040010B5002000F050F8AFF30080CC
:10127000BDE81040012018F09BBE801A0844401EB3
:10128000491E88431044704770B5144605468C4685
:101290004368002B18BF634538BF1846F8D302686F
:1012A0001044604508D06646604604220821FFF7D6
:1012B000E4FF811B8446641A2946CCF80040BDE84F
:1012C000704000220CF10400FFF76AB870B50446C4
:1012D0000D4D284618F0D8FD03E040F065FF401C96
:1012E0000ED0094914F8010B4C390028F5D10A2019
:1012F00040F05AFF0446284618F046FE204670BDCE
:101300004FF0FF34F7E70000EC03002010B500F0C9
:101310001FF8BDE8104000F016B810B500F030F826
:10132000BDE8104000F00FB810B500F043F8BDE87C
:10133000104000F008B810B5FFF7C3FC0068BDE826
:10134000104000F05FB8002801D018F031BE70479F
:1013500010B5002102A000F05AF8012010BD0000D5
:10136000534947414252543A2041626E6F726D6157
:101370006C207465726D696E6174696F6E00000037
:1013800010B5014602A000F042F8012010BD000097
:1013900053494752545245443A2052656469726534
:1013A00063743A2063616E2774206F70656E3A2013
:1013B0000000000010B5012805D0002103A000F0B6
:1013C00026F8012010BD09A1F8E700005349475253
:1013D000544D454D3A204F7574206F662068656105
:1013E00070206D656D6F7279000000003A204865CD
:1013F0006170206D656D6F727920636F72727570A8
:101400007465640010B50C3018F04CFD10BD70B55B
:1014100005460C460A2000E06D1C18F0F7FE35B1B9
:1014200028780028F8D102E0641C18F0EFFE14B10F
:1014300020780028F8D1BDE870400A2018F0E6BEF8
:1014400083B080B583B0844605A840F2A03E0EC0AC
:1014500005ABC2F2000E00206FF00041624602931D
:10146000CDF800E037F002FE03B0BDE8804003B0E5
:101470007047000080B540F2000240F2000147F6DC
:101480005050C0F20002C0F20001C2F200009142CE
:1014900018BF08464FF60041C2F2000118BF1146BE
:1014A000FEF776FE80BD00000020704700207047E8
:1014B00000207047002070470020704700207047D0
:1014C00080B582B04FF0000CCDF800C037F0CEFDF3
:1014D00002B080BD43F2D811C2F200010865704726
:1014E00080B589B391F90200B0F1FF3F08DDC0B2C9
:1014F00060280ED343F2D810C2F20000806B17E0D0
:1015000043F2D810C2F20000026C002A08BF80BD6E
:101510000FE0402805D343F2D810C2F20000C06BA0
:1015200006E0202808D343F2D810C2F20000406B36
:1015300082680846904780BD43F2D810C2F200008E
:10154000006B82680846904780BD000080B543F27A
:10155000D811C2F2000181F8540042F6A40043F20F
:10156000D002C0F20400C0F20402C1E90C00C1E9DB
:101570000E224AF2BD514AF27552C0F20101C0F288
:101580000102042004F048F94AF2A541C0F2010129
:10159000002002F04BFA80BD1B296FF00A0202D036
:1015A0001D2918BF002280B510440BF047FE80BDF6
:1015B00010B582B040F2F021C2F20001096843F296
:1015C000D812C2F200028C88D06403F053F90438B8
:1015D000A04207DA00240020772100220223009491
:1015E00018F0A8FF02B010BD10B5013880B200217C
:1015F00019F050F8D0B104460068807800F012006D
:10160000102813D1092018F0FDFF002808BF10BDD5
:10161000034620680122817801F0EF0181701E20CD
:10162000187220680189042004F04AF810BD0000F7
:10163000B0B543F2D81CC2F2000C43F230209CF843
:1016400054E0C2F2000000210122C0F82C1180F801
:10165000302100BF0CEB011201310023002400BF38
:10166000C518C2502C3385F82840582B04F10104CA
:1016700085F824E0A98385F82910F1D1032900F128
:101680005800E7D142F6C000C0F20400CCF83000A8
:10169000B0BD0000B0B582B004460B200D4618F076
:1016A000B1FF70B103460320188002201872280A87
:1016B0005D7298720025204600210122009519F0E4
:1016C00097FB02B0B0BD000043F2302042F6581143
:1016D000C2F20000C0F20401C0F82C1170470000F3
:1016E00010B504460BF074FE43F2643CC2F2000CE9
:1016F000DCF8201169B1238A0A8A934202D20022BF
:1017000008E000BF0A46096821B1088A8342F9D27D
:1017100000E000220CF5907021460BF0F9FD01204D
:1017200019F0AEFF0BF070FE10BD000043F2643103
:10173000C2F20001C1F830017047000080B519F015
:10174000D1FD80BDB0B50C46054602F08BF943F2E1
:101750009C41C2F20001C96804EB440201EB420162
:10176000097988423CBF0020B0BD2846214600F0E0
:1017700001F8B0BD10B50C4619F0C6FD002814BF25
:1017800030F81400002010BD2DE9F0410C4606464B
:1017900019F07AFD48B30546F4B143F29C48C2F211
:1017A000000898F8140000B300270AE0013798F801
:1017B0001410F8B20234884205F1020528BFBDE8D2
:1017C000F081208828802388002BEFD0F9B23046A2
:1017D000002219F06FFDE9E743F29C40C2F20000DD
:1017E000007D41002846FFF7CAF9BDE8F0810000FE
:1017F00043F29C43C2F200031875C3E9031243F29B
:1018000064304BF21D31C2F20000C0F20101C0F899
:1018100034117047B0B514460D4619F075FD002817
:1018200018BF20F81540B0BD43F2B441C2F2000128
:1018300001EB400010F8010C70470000012A88BF3E
:10184000704780B543F2B443C2F2000303EB40009B
:10185000831E08461946FFF78CF8BDE880407047A4
:1018600040B143F2B442C2F2000202EB400000F881
:10187000011C10E043F2B44C6FF00100C2F2000C06
:101880000CEB0003DA780230022A0A4608BF012274
:101890000428DA70F4D1704780B51BF095FB00681E
:1018A00080BD000080B584B09C4613464FF0000E0A
:1018B0001D22CDE9012E0022CDF800C01AF0E8F873
:1018C00004B080BD80B584B09C4613464FF0000E36
:1018D0001B22CDE9012E0022CDF800C01AF0D8F865
:1018E00004B080BD80B543F2D810C2F2000043F2CC
:1018F000643C90F854E0C2F2000C0022634600BF42
:1019000001326FF01F0100BF58182C31382980F8C0
:101910002CE08284F8D1032A03F15803F0D142F677
:101920007010C0F20400CCF8280180BD80B543F2ED
:101930006431C2F2000142F6A4024AF22D5343F28E
:10194000D81C0020C0F20402C0F20103A1F12C0E49
:10195000C2F2000CC1E94800C1E94A230CEB0013B4
:1019600001300022714600BF81F851200132CB6363
:1019700081F85000022A01F12C01F5D103280EF163
:10198000580EEBD142F66010C0F20400CCF83400DF
:1019900080BD000010B504460BF01AFD43F2643020
:1019A000C2F20000D0F8201171B10A8AA24201D11E
:1019B000002205E00A46096831B10B8AA342F9D139
:1019C00000F590700BF0D2FC012019F059FE0BF0DD
:1019D0001BFD10BD70B582B015460C4606460BF0D7
:1019E000F7FC01A9304619F063FF28B1064680894B
:1019F000A04203D20D240CE00A240AE070682946B4
:101A00002246FEF7B6FFB07B000744BFB0680480F3
:101A100000240BF0F9FC204602B070BDB0B51446AE
:101A20000D461BF0D1FA45600473B0BD10B50C46ED
:101A30001BF0CAFA046010BD43F2C440C2F20000B9
:101A40000021C0E90C1143F264304CF6D971C2F2A6
:101A50000000C0F20101C0F82C1140F280104CF6D9
:101A60007941C2F20000C0F20101416470470000F8
:101A700047F2CC31C2F2000109688968814228BF6F
:101A800070476FEA5102824201F101029CBF10448B
:101A9000704749081144814228BF801A70470000EE
:101AA00080B54EF6F1514EF61D42C0F20101C0F272
:101AB000010203201BF06CFD43F2FC40C2F2000067
:101AC0000021C0E90011C0E90211C0E90411C0E918
:101AD000061180BD80B54EF64161C0F201010720BC
:101AE00000221BF055FD4EF61D71C0F201010820C9
:101AF00000221BF04DFD43F22460C2F200002421BD
:101B0000FFF75FF880BD000080B54DF68D61C0F233
:101B10000101062000221BF03BFD43F24860C2F2A7
:101B200000003421FFF74DF880BD000080B54DF670
:101B3000F1614DF6C542C0F20101C0F2010204207C
:101B40001BF026FD43F2D070C2F200000021C0E974
:101B50000011C0E90211C0E90411816180BD0000DB
:101B600080B54EF6C9614EF62542C0F20101C0F2C1
:101B7000010205201BF00CFD43F2D070C2F2000000
:101B80000021C0E90011C0E90211C0E9041181611E
:101B900080BD00002DE9F04182B041F20015C4F291
:101BA0000005D5F80402C00728D0286830B300200B
:101BB000286028684FF20450C4F201004FF48041BD
:101BC000416047F63830C2F200000178012906D1A1
:101BD00041F25051C4F2000109680A2909D0017884
:101BE00002297AD141F25051C4F200010968022958
:101BF00073D13AF0FDF802B0BDE8F081D5F80402E7
:101C0000400749D5A868002846D00020A86048F2BF
:101C10004416A868C4F200064FF4003048F240545D
:101C2000C6F8C4010820C4F2000417F00FFF022018
:101C3000C5F8000143F62430C2F200000178012902
:101C400040F0F28043F61E72C2F200021378032BBA
:101C500040F0B68043F6BE40C2F200000078182182
:101C6000022808BF0C210128A06808BF18210844D9
:101C700000F16A014FF204522160A5F1FC01C4F2A7
:101C80000102C2F880104FF48041C93011606060D9
:101C9000002030603068EBE0D5F80402000740F126
:101CA0001481E868002800F010810020E86043F605
:101CB0001E76E868C2F20006307803282DD1022093
:101CC00030703AF0CBF843F6B840C2F20000016839
:101CD0000020884702B0BDE8F08143F61E71C2F2D1
:101CE00000010A78032A18BF02780978042903D072
:101CF0000178022940F0F78000226A6048F244111E
:101D00006A68C4F200014FF40032C1F8C0210A68C9
:101D1000002A1CBF01220A60E5E03078042840F068
:101D2000D48043F6C440C2F20000006848F240513B
:101D300043F66042C4F20001C2F2000240788968B2
:101D400012783823022A18BF032200FA02F041F267
:101D5000505708BF20231844C4F20007081A57F848
:101D6000084CA0F1090809F075F904F07F01084456
:101D70000221317043F66141C2F200010E7847F64C
:101D80003931C2F20001097843F6BF42C2F20002C3
:101D9000002908BF3146117043F65C42C2F20002CE
:101DA000D5F8001315684FF6BC62CFF6FF72BA582B
:101DB000C907C0F1000041B240F09A80042098E0C9
:101DC000012931D11278042A2ED143F66040C2F2A3
:101DD0000000007843F6BE420146C2F2000202282B
:101DE00018BF6FF0010192F800C043F6C042A3682B
:101DF000C2F2000292F900E07D22022808BF71229F
:101E0000D0180844BCF1020F08BF013070444FF2F3
:101E100004512060A5F58070C4F20101C1F8800072
:101E20004FF48040086041E0022945D143F61E721C
:101E3000C2F200021378042B20D1D0E901104FF236
:101E4000045233392160A5F1FC01C4F20102C2F849
:101E500080104FF4804111602168002801F17D015C
:101E600061604FF000013160316818BF39F0F8FE51
:101E700047F63830C2F2000002211CE002291BD1D3
:101E80001178032918D1D0E901104FF204522839F2
:101E90002160A5F58071C4F20102C2F880104FF4F0
:101EA00080410028116018BF39F0DAFE47F638305B
:101EB000C2F2000001210170012046F8F80C2068F0
:101EC000E168401AB0F1FF3F02DD02B0BDE8F081E9
:101ED0004FF20450C4F201004FF48041416047F6D4
:101EE0003830C2F200000021017002B0BDE8F0817C
:101EF000002043460096A84702B0BDE8F0810000EC
:101F000080B582B048F20830C4F200004FF40031CE
:101F1000016041F20410C4F20000006808B102B090
:101F200080BD39F065FF43F65C40C2F20000D0F896
:101F300000C04FF0000E0320002100220023CDF846
:101F400000E0E04702B080BD2DE9F04F87B00646C3
:101F50008A460888317CC840C00762D043F21471B9
:101F6000C2F200014888984601304880D6E9000155
:101F7000994649F8080FD960C8E90001B07C1D46B0
:101F8000DAF8041005F8130F14469874C1F38010A2
:101F900011462A464B461BF06DFA02284FF0000B03
:101FA00000F0BD800694012808BF4FF0010BDAF85D
:101FB0000400DAE904742978D9E90023CDE9027430
:101FC000C0F3C0070097C0F380001BF0F3F9BAF824
:101FD0000210327C074621FA02F02978D9E9002361
:101FE00000F001001BF0AAFA874224D9DAF80400B5
:101FF000DAE904742978D9E90023CDE90274C0F341
:10200000C0070097C0F380001BF0D4F900B301288B
:1020100024D0022824D1BBF1000F21D04FF0000BB7
:102020007DE043F21470C2F2000001884FF0000B13
:102030000131018073E0BAF80200317CD9E9002354
:10204000C840297800F001001BF078FA0028DED1A2
:10205000BBF1000F08BF4FF0010B01E04FF0010B87
:10206000707C0121800788F814B088F8151002D41C
:102070004FF0010B53E0F77CD6E90264DAF8040074
:102080002978D9E90023CDE90423CDE90064029140
:10209000C0F3001006993A461BF0AEF983460128BA
:1020A00006D0BBF1020F05D100204FF0000B32E04B
:1020B000002030E00AF1040207CACDE90212C0F3A1
:1020C000400500F0010039463246234600951BF0DA
:1020D0004FF9022812D14FF0000067B104F44041DB
:1020E00091F4804F4FF0000B15D19AF80400800650
:1020F0004FF0000004D44FF0000B0CE001200AE088
:1021000043F21472C2F20002118C4FF0010B013144
:10211000118488F81500002818BF4FF0010B5FFAF2
:102120008BF007B0BDE8F08F70B582B008F0E6FB29
:102130004DF2F5254DF261244DF2D566C0F2010550
:10214000C0F201044DF2A163C0F20106C0F2010326
:10215000012029462246009601F042F84DF2B16373
:10216000C0F20103022029462246009601F038F809
:102170004DF2DD664DF2C163C0F20106C0F201030B
:10218000032000212246009601F02AF84DF2693121
:10219000C0F20101012001F033F843F27C60C2F289
:1021A00000009821FEF70DFD02B070BDB0B543F2FE
:1021B0003A7CC2F2000C00258CF8005043F23B7CC4
:1021C0008C07C2F2000C0C468CF8005001F1040E92
:1021D00018BF2EF0030404EB0013591A47F2C03362
:1021E000C2F2000391421C609CBF8CF800000D46B7
:1021F000A8B2B0BDB0B543F2407CC2F2000C0025DD
:102200008CF8005043F2417C8C07C2F2000C0C4663
:1022100000EBC0038CF8005001F1040E18BF2EF043
:10222000030404EBC303591A47F2C433C2F2000398
:1022300091421C609CBF8CF800000D46A8B2B0BD56
:1022400010B543F2437CC2F2000C4FF0000E43F293
:1022500042738CF800E043F2447CC2F200038C0726
:10226000C2F2000C83F800E001F104030C468CF884
:1022700000E018BF23F0030404EBC003591A47F22F
:10228000C833C2F2000391421C609CBF8CF800006E
:102290008E461FFA8EF010BD2DE9F04F8BB0074629
:1022A00000788A4600F00F080888012101FA08F931
:1022B00019EA000F0DD0144643F21472C2F2000264
:1022C00051887878013119F4C07F51800AD00126F5
:1022D000EDE043F21470C2F20000018800260131E3
:1022E0000180E4E000F03F0083F810805874384625
:1022F00010F8021B1D46C1F3801601F011F82B46A1
:1023000043F8080FE960C5E90001DAF804002A463D
:1023100002F8136FAE74C0F3801021460A929B46F8
:102320001BF0A8F802284FF0000600F0C080CDE9AD
:102330000745012808BF01260A9DDAF80400DAE9FA
:10234000044C2978DBE90023CDE9024CC0F3C0043A
:102350000094C0F380001BF02DF8BAF80210CDF8FD
:1023600024B0044619EA01002978DBE9002318BFEC
:1023700001201BF0E3F8844215D9DDF828B0DDF820
:102380002490DAF80400DAE9044C9BF80010D9E94B
:102390000023CDE9024CC0F3C0040094C0F38000D8
:1023A0001BF008F80FE0BAF80200DDF828B010EAD8
:1023B0000900DDF824909BF80010D9E9002318BF2C
:1023C00001201BF0BBF8089D30B1012808D002287D
:1023D00007D136B100266AE0002E08BF012600E0D2
:1023E00001260120B8F1050F2E75687526D800FA70
:1023F00008F010F02A0F21D017F8088B38464FEA62
:10240000D81400F08DFF0746DAF804009BF800208E
:10241000D9E900368946CDE90436CDE9007102924A
:10242000C0F30010079922461AF0E6FF064601287D
:1024300006D0022E06D10020002635E0012636E027
:10244000002031E00AF1040207CACDE90212C0F30C
:10245000400600F0010021463A464B4600961AF02D
:1024600087FF022815D14FFA88F0B0F1FF3F4FF0F7
:1024700000000CDC09F4404191F4804F4FF000065D
:1024800012D19AF8040080064FF0000003D4002611
:102490000AE0012008E043F21472C2F20002118C3B
:1024A0000126013111846875002818BF0126F0B299
:1024B0000BB0BDE8F08F0000B0B546F2A032C2F21A
:1024C000000292F8EBC081F800C092F8EAE092F8BE
:1024D000EB30734508D1D2E936E3D2E93854634092
:1024E00085EA0E052B4302D04CF002030B70D2E9B3
:1024F0003812C0E90012B0BDB0B590F813C082F830
:1025000000C090F812E0C37C734508D1D0E900E325
:10251000D0E90254634085EA0E052B4302D04CF00B
:1025200002031370D0E90202C1E90002B0BD00004D
:10253000B0B590F813C082F800C090F812E0C37CE8
:10254000734508D1D0E900E3D0E90254634085EA3D
:102550000E052B4302D04CF002031370D0E90202A7
:10256000C1E90002B0BD0000B0B545F22072C2F270
:10257000000292F86BC181F800C092F86AE192F80B
:102580006B31734508D1D2E956E3D2E95854634020
:1025900085EA0E052B4302D04CF002030B70D2E902
:1025A0005812C0E90012B0BDB0B590F813C082F85F
:1025B00000C090F812E0C37C734508D1D0E900E375
:1025C000D0E90254634085EA0E052B4302D04CF05B
:1025D00002031370D0E90202C1E90002B0BD00009D
:1025E000B0B590F813C082F800C090F812E0C37C38
:1025F000734508D1D0E900E3D0E90254634085EA8D
:102600000E052B4302D04CF002031370D0E90202F6
:10261000C1E90002B0BD0000B0B590F813C082F867
:1026200000C090F812E0C37C734508D1D0E900E304
:10263000D0E90254634085EA0E052B4302D04CF0EA
:1026400002031370D0E90202C1E90002B0BD00002C
:1026500080B546F2A031C2F2000191F8EA2091F86B
:10266000EB3093424FF00002C0E900220AD1D1E9D9
:1026700036CED1E9383282EA0E0283EA0C031A43DD
:1026800008BF80BDD1E93612C0E9001280BD00004C
:1026900080B5827CC37C93424FF00002C1E90022E6
:1026A0000AD1D0E900CED0E9023282EA0E0283EAF2
:1026B0000C031A4308BF80BDD0E90002C1E9000243
:1026C00080BD000080B5827CC37C93424FF0000245
:1026D000C1E900220AD1D0E900CED0E9023282EA73
:1026E0000E0283EA0C031A4308BF80BDD0E9000242
:1026F000C1E9000280BD000080B545F22071C2F240
:10270000000191F86A2191F86B3193424FF0000279
:10271000C0E900220AD1D1E956CED1E9583282EA85
:102720000E0283EA0C031A4308BF80BDD1E956129A
:10273000C0E9001280BD000080B54DF63D71C0F2C9
:102740000101092000221AF023FF43F63440C2F2AF
:1027500000002421FEF735FA80BD000070B543F279
:102760003A7C43F23B71C2F2000CC2F200019CF8C9
:1027700000E009788E4524BF002070BD47F2C031CB
:10278000C2F200010968049C01EB0E1528720EF1DB
:1027900001004FEA0E166C728CF8000001208A517D
:1027A0006B6070BD70B543F23A71C2F200010C78F3
:1027B000FCB147F2C034C2F200042468DDF810C056
:1027C00091F800E004F10801002404E001347445AC
:1027D00001F110010DD20D788542F7D151E9025671
:1027E0005E4055403543F1D14D786545EED101202D
:1027F00070BD002070BD000043F23A70C2F20000CC
:10280000002101707047000043F23B70C2F20000EB
:10281000007870472DE9F04343F23A7CC2F2000C95
:102820009CF80010A9B347F2C037C2F20007D7F8EE
:1028300000E0DDF81C809CF800900EF108040025F3
:1028400005E000BF013510344D45494621D22678B8
:102850008642F7D154E902675F4056403E43F1D1CA
:1028600066784645EED1C8B202280CD301388542BD
:1028700009D00EEB00121389000123805EF80000DE
:10288000526844E90202481E8CF800000120BDE8AD
:10289000F0830020BDE8F083F0B581B01E461546F8
:1028A00007461AF035FD0446B0B943F2407043F2D2
:1028B0004172C2F20000C2F2000201781278914225
:1028C00056D247F2C432C2F20002126801EBC103D1
:1028D00002EBC30401310170002C4CD0DDE906107D
:1028E00046EA0742C4E908520A684B688F68C9681B
:1028F0002260E16001216360A76084F8401000213C
:10290000625C22B90E2901F10101F9D902E000212E
:1029100084F84010016842688368C768204640F820
:10292000101F0121C7608360426080F831100021D0
:102930006218127C22B90E2901F10101F8D902E0D6
:10294000002184F8411094F8411000294FF0000153
:10295000A4F84210C4E90A11C4E90C11C4E90E112B
:1029600003D11AF021FFC4E90C01012001B0F0BD30
:102970000024002CB2D1002001B0F0BD2DE9F041BF
:1029800082B0DDE908781446064610463A464346CA
:102990000D461AF0BDFC20B190F8411019B1002489
:1029A00023E0002421E0D0E90E0169407040084393
:1029B00001D1012419E043F23C70C2F20000D0F8CA
:1029C00000C0BCF1000F0FD043F21470C2F200003F
:1029D000818C002201318184304629462346CDE98D
:1029E00000780024E04700E00024204602B0BDE863
:1029F000F0810000F0B583B043F24076C2F20006E9
:102A000035786DB347F2C435C2F200052D6896F8EB
:102A100000C005F1200400254FF0000E08E04FF043
:102A2000010E0126CEB10135654504F1480419D2E5
:102A300094F82060002EF4D1D4E902674F4046405C
:102A40003E43ECD1A67906F0010616702668A788E9
:102A5000C3E900670026002EE5D14FF0010C1EE00F
:102A60004FF0000EBEF1000F4FF0000C17D043F2F4
:102A70003C77C2F200073D688DB143F21477C2F291
:102A800000077E8C01367E8492F800C0D3E90027CF
:102A90006346009201220197A8474FF0000C604660
:102AA00003B0F0BD43F24070C2F20000002101709B
:102AB00070470000B0B51AF02BFC18B1044690F82E
:102AC000400008B10020B0BD94F84200049D38B920
:102AD00020461AF069FEC4E90A01012084F8420088
:102AE000D4E90A01C5E900010120B0BD80B51AF0A2
:102AF0000FFC28B1029990F843000870012080BDB6
:102B0000002080BD43F24170C2F20000007870479F
:102B10002DE9F04381B043F24078C2F2000898F802
:102B2000000050B347F2C4390026C2F20009012563
:102B3000002708E084F8445098F8000001378742E5
:102B400006F1480619D2D9F80000841994F841001A
:102B500028B904F110001AF027FEC4E90C0194F81A
:102B600040000028E6D194F842000028E2D0204638
:102B70001AF01AFEC4E90A01DCE701B0BDE8F083EF
:102B800070B51446DDE90423054620460E461AF0CA
:102B9000BFFB10B190F8411009B1002070BDD0E921
:102BA0000E0171406840084304BF012070BD002041
:102BB00070BD000080B51AF0ABFB014600284FF055
:102BC000000008BF80BD91F8442081F84400104601
:102BD00080BD000080B51AF09BFB60B1D0E90C12FB
:102BE00011431CBF032080BD90F841100120002933
:102BF00008BF022080BD002080BD000080B51AF013
:102C000087FB60B1D0E90A1211431CBF032080BDCD
:102C100090F840100120002908BF022080BD00204C
:102C200080BD000080B51AF073FB00281CBFD0E9FE
:102C30000C0150EA010201D1002080BD029AC2E9D4
:102C40000001012080BD000080B51AF061FB002862
:102C50001CBFD0E90A0150EA010201D1002080BD69
:102C6000029AC2E90001012080BD0000B0B51AF04F
:102C70004FFBB8B143F24074C2F200042578022D34
:102C80000CD347F2C431C2F20001096805EBC5025A
:102C900001EBC20148394822FDF7F2FE681E2070A0
:102CA0000120B0BD0020B0BD2DE9F0410C461178E7
:102CB000D3E90023054608461AF02AFB43F21478AC
:102CC000C2F2000808F1140728B1064690F8410046
:102CD00018B1002018E0002016E0D6E90E0161408E
:102CE0006840084304BF0120BDE8F08106F11000F0
:102CF0002A4623461CF056FA00280FBF0020C6E9DA
:102D00000E5408F116070120398801313980BDE8D9
:102D1000F08100002DE9F04F81B043F24075C2F21E
:102D200000050F462978002953D047F2C4369A4649
:102D30008346C2F200064FF000094FF0000800BFC2
:102D4000306800EB090494F8400018B1002080B30B
:102D50004AE000BFD4E90A01794080EA0B00084349
:102D600019D02E46154620465A463B461CF01AFA04
:102D700038B343F21471C4E90AB7C2F20001488AB9
:102D8000002284F842202A46354647F2C4360130F4
:102D9000C2F20006488294F8260000F0010010708C
:102DA000206AA18CCAE900010120002808BF002088
:102DB000D0B9287808F10108804509F14809BFD346
:102DC00007E02A46354647F2C4360020C2F2000624
:102DD000EBE743F21471C2F20001088A0130088265
:102DE000002001B0BDE8F08F012001B0BDE8F08FF8
:102DF00043F23C71C2F200010860704780B51AF0DE
:102E000087FA00280FBF0020029980F843100120A4
:102E100080BD000080B51AF07BFA30B10299D1E98B
:102E20000012C0E90C12012080BD002080BD00000E
:102E300070B543F27C66C2F200060C460546C6F841
:102E40008C00A6F8881000F085F9806A00780528C3
:102E50000AD196F87000002818BF70BD1AF0EAFB7E
:102E60002846214607F0A8FD70BD000080B54DF64C
:102E700099714DF6F542C0F20101C0F20102022043
:102E80001AF086FB43F66840C2F200002821FDF7E5
:102E900098FE80BDB0B54FF24D044EF6F571C0F20C
:102EA0000104C0F201010020224600251AF070FB47
:102EB0004EF6A571C0F20101012022461AF068FB0E
:102EC00043F69040C2F20000C0E90055C0E9025547
:102ED000C0E904558561B0BD2DE9F0410C460546B9
:102EE00000F038F9806A007804280ED143F27C6043
:102EF000C2F2000090F8700038B91AF09BFB284627
:102F0000214607F039FEBDE8F08143F2D078C2F2E5
:102F10000008B8F8166007F0B5FE43F62037C2F295
:102F200000073968401AB04202D2B8F8160003E030
:102F300007F0A8FE3968401AA8F816001AF07AFBC4
:102F40002846214607F062FEBDE8F08170B51D46B7
:102F50001446064600F02AF808B1012070BD43F27D
:102F6000437043F24472C2F20000C2F200020178E0
:102F70001278914224BF002070BD47F2C832C2F2DD
:102F80000002126845EA064302EBC10642F83140EE
:102F9000013173600170012070BD000043F2427086
:102FA000C2F20000012101707047000010B543F229
:102FB000437EC2F2000E9EF80010B1B143EA004C0D
:102FC00047F2C830C2F2000001689EF800E000201D
:102FD00001EBC00351F830405B68544083EA0C03B6
:102FE000234304D001307045F2D3002010BD0120EE
:102FF00010BD000043F24370C2F2000000210170D6
:1030000043F24270C2F200000170704743F2447014
:10301000C2F200000078704743F24270C2F2000032
:1030200000787047F0B543F2437CC2F2000C9CF884
:103030000010C9B143EA004E47F2C830C2F20000A6
:1030400000689CF800300024E6B200EBC60550F89A
:1030500036606F68564087EA0E073E4306D001345B
:10306000E1B299421946EFD30020F0BDCAB2022A5C
:1030700005D300EBC20050E90202C5E90002481E78
:103080008CF800000120F0BD43F24270C2F2000053
:10309000002101707047000010B543F24874C2F27D
:1030A00000042068002808BF10BD417D01EB4101EC
:1030B00004EBC101C968002918BF884700202060BF
:1030C00010BD0000B0B543F24875C2F200050446D9
:1030D000286095F881000021002885F8821008BF3B
:1030E00007F0C8FD95F8810030B195F88000617D4A
:1030F000814218BF1BF07CFA95F8810010B9607D01
:103100001BF060FA607D00EB400005EBC0008168B9
:1031100009B12046884795F8820000281CBF00208E
:103120002860B0BD47F2CC30C2F200000068806871
:103130007047000043F24870C2F2000090F882002D
:103140007047000047F2CC30C2F2000000680088EF
:103150007047000043F24870C2F2000000687047F8
:1031600047F2CC30C2F200000068C088704700000F
:10317000B0B50D46FEF77CFC04462846FEF778FC09
:1031800047F2CC31C2F20001844207D90968201A03
:103190008968B0EB510F88BF0020B0BD0968001BE3
:1031A0008968B0EB510F92BF0020081A0130B0BD02
:1031B00080B507F089FD43F24870C2F20000842117
:1031C000FDF7FFFC80BD000047F2CC31C2F20001E8
:1031D0000860704743F24871C2F2000148607047CE
:1031E00080B500EB400E43F24870C2F2000000EBE5
:1031F000CE000830DDF808C080E80E1080BD000069
:1032000043F2487200EB4000C2F2000202EBC00041
:103210008161704743F24870C2F2000001680029E2
:103220001CBF012180F8821070470000B0B543F246
:103230004875C2F2000595F88110044621B907F0DF
:1032400019FD20461BF0BEF904EB440005EBC0005D
:10325000C1690131C161B0BD80B543F2487100EB75
:103260004002C2F2000101EBC202D369013BD3610B
:103270000BD191F8812042B191F88010814218BFA2
:1032800080BD1BF0B5F907F0EBFC80BD10B543F233
:103290004874C2F20004206840B1407D00EB400059
:1032A00004EBC0008069002818BF804700206168D7
:1032B0002060012084F88200884710BD110A417007
:1032C000110C4FEA132C8170110E0270C170037142
:1032D00080F805C070470000002201468280063059
:1032E0000A60704780B50622FDF7F8FAB0FA80F060
:1032F000400980BD8A8882800968016070470000AB
:1033000080B582B00021ADF8041000916946062214
:10331000FDF7E4FAB0FA80F0400902B080BD000089
:1033200002688188104670470268416810467047FD
:1033300043F61F30C2F200000078002808BF704733
:103340004FF20830C4F200000121016043F60D0085
:10335000C2F200004178FF2906D043F6BC41C2F218
:103360000001097841707047FEE70000D1F800C005
:103370004B68CA688968C26081604360C0F800C059
:10338000704700004A6809684260016070470000A9
:1033900001390138102200BF11F801CF10F8013FA8
:1033A000013A8CEA030C130680F800C0F4D1704790
:1033B00080B581B142F6A41C013AC0F2040C00BFF2
:1033C00012F801EFC3B283EA0E035CF8233001392F
:1033D00083EA1020F4D1C04380BD00002DE9F04FF6
:1033E00083B043F6C84BC2F2000BDBF8040010B107
:1033F00003B0BDE8F08F9BF8095000260DF10B08D3
:103400000DF102090DF1040A002403E0032C04F17C
:103410000104EDD2E8B201358DF80B60022888BFB7
:103420000025EFB2780050FA85F00BEB8000436A7C
:103430000196002BADF80260E8D04046494652465E
:1034400098470028E2D001999DF80B00CBF80410B2
:103450008BF808008BF809501BF002FF9DF80B1049
:10346000BDF80220019B38461BF03EFF03B0BDE8CB
:10347000F08F0000F0B581B043F6C847C2F20007F4
:103480000D460646384668211446FDF79AFB284645
:1034900021463E70BD81FC8100F03EF801B0F0BDD8
:1034A00080B543F6C840C2F200004068002818BF4B
:1034B00080BD0020FFF792FF80BD0000032888BF79
:1034C000704700EB400C43F6C840C2F2000000EB2E
:1034D0008C001C300EC0704743F6C841C2F2000198
:1034E000886170474EF60450CEF200004FF0006144
:1034F00001607047B0B582B08DF807100DF107007C
:1035000001211C46154610F031F92046294610F0DD
:103510002DF9284602B0B0BD7047000010B5144622
:1035200001294FF0000206D0052903D0022907D156
:10353000012200E0032211461A461BF0A3FE224698
:10354000104610BD0139C9B2022984BF002070475E
:1035500080B54FEAC10C40F20241C0F2050121FAE8
:103560000CF1C9B2FFF7C6FF80BD000080B5042092
:1035700009F03EFE002808BF80BD014643F67C509E
:10358000C2F20000007B05228A7009F065FE80BD52
:103590002DE9F04107460E20984616460C4609F0E4
:1035A00027FE002808BFBDE8F08105460020A8706E
:1035B000E81D41466C712F71AE71FFF79BFE43F61B
:1035C0007C50C2F20000007B294609F045FEBDE8B0
:1035D000F081000070B514460D46064609F0F8FE6D
:1035E00043F68461C6EBC600C2F2000101EB400065
:1035F000C570047109F008FF70BD000080B509F0C6
:10360000E7FE40F2CC1042F6D461C2F20000C0F2F4
:10361000040101601CF026FB43F68060C2F200004A
:1036200000210160002001F0A9FF09F0EDFE80BD3E
:10363000B0B50C46054609F0CBFE43F68461C5EBF8
:10364000C500C2F2000101EB4000847009F0DCFE0D
:10365000B0BD0000B0B50C46054609F0B9FE43F612
:103660008461C5EBC500C2F2000101EB40000472A9
:1036700009F0CAFEB0BD000010B5044609F0A8FE6E
:1036800043F67C50C2F20000847309F0BDFE10BD09
:10369000B0B50C46054609F09BFE43F63850C2F221
:1036A00000002844C47709F0AFFEB0BD2DE9F04119
:1036B000064603F108001C4690460F4609F098FDA7
:1036C000002808BFBDE8F081054606990120A870D2
:1036D00005F1080022462E716F7185F80680EC71A5
:1036E000FDF747F943F67C50C2F20000007B294603
:1036F00009F0B2FDBDE8F081B0B50C46054609F011
:1037000067FE43F68461C5EBC500C2F2000101EB20
:103710004000447209F078FEB0BD000070B5144658
:103720000D46064609F054FE43F63850C2F200003A
:1037300000EB46000582C48209F066FE70BD000001
:10374000F0B581B01C4615460E46074609F040FE0E
:1037500043F68461C7EBC700C2F2000101EB4000F1
:1037600046718571C47109F04FFE01B0F0BD0000D3
:1037700070B506460C200D4609F03AFD002808BF3A
:1037800070BD04460620A070601D29462671FFF713
:10379000B1FD43F67C50C2F20000007B214609F0E7
:1037A0005BFD70BD2DE9F041074612209846154695
:1037B0000E4609F01DFD002808BFBDE8F081014656
:1037C000022088700F717FB1002000BF325C0B189F
:1037D0005A7135F8102001EB4004228118F80020BE
:1037E000013087429A73F1D143F67C50C2F2000057
:1037F000007B09F031FDBDE8F0810000B0B5044662
:1038000008200D4609F0F4FC002808BFB0BD0146B1
:10381000032088700C713CB1081D6A1E12F8013F2C
:10382000013C00F8013FF9D143F67C50C2F20000A0
:10383000007B09F011FDB0BDB0B50C46054609F09E
:10384000C7FD43F68461C5EBC500C2F2000101EB80
:103850004000447009F0D8FDB0BD0000B0B586B09E
:1038600094460A46DDE90A1E0C9C0125CDE900318B
:1038700000216346CDF808E0049503941CF08CFD0C
:1038800006B0B0BD10B5044609F0A2FD43F6A05144
:1038900004EB4400C2F2000101EB001030F8224CAE
:1038A00009F0B2FD204610BD70B50446242015462F
:1038B0000E4609F09DFC002808BF70BD0146192086
:1038C000887043F67C50C2F20000007B0E800D71C0
:1038D000CD704C7109F0C0FC70BD000043F6A051E2
:1038E000C2F200010C31032207E000BF013A1306C7
:1038F00001F1300104BF002070478B7A002BF5D016
:103900000B888342F2D108797047000043F6A0513A
:1039100000EB4000C2F2000101EB001010F81A0C9D
:103920007047000080B509F053FD40F2CC1042F61C
:10393000347142F6E062C2F20000C0F20401C0F24B
:103940000402C0E9031242F6B071C0F204018163BF
:1039500043F6945042F6EC61C2F20000C0F204015A
:10396000016043F6746042F69C71C2F20000C0F23E
:103970000401016009F048FD80BD000043F6A0513C
:1039800000EB4000C2F2000101EB00102A38704742
:1039900043F6A05100EB4000C2F2000101EB001021
:1039A00010F81C0C7047000043F6A05100EB4000DB
:1039B000C2F2000101EB00101638704780B509F023
:1039C00007FD43F6945042F60C71C2F20000C0F2BB
:1039D0000401416043F6746042F6A071C2F2000037
:1039E000C0F20401416009F00FFD80BD43F6A05113
:1039F00000EB4000C2F2000101EB001030387047CC
:103A000043F6A05100EB4000C2F2000101EB0010B0
:103A100010F81D0C7047000043F6A05100EB400069
:103A2000C2F2000101EB001010387047B0B50C462F
:103A3000054609F0CDFC43F6A050C2F2000000EBB1
:103A40008500C0F8904009F0DFFCB0BD43F6A051FE
:103A500000EB4000C2F2000101EB001010F8170C5F
:103A60007047000043F6A05100EB4000C2F2000195
:103A700001EB001010F8190C7047000070B51646E5
:103A80000C46054609F0A4FC2846FFF73FFF68B145
:103A900043F6A05105EB4500C2F2000101EB001016
:103AA0003EB130F8221C214320F8221C09F0ACFC66
:103AB00070BD30F8221CA14320F8221C09F0A4FCA0
:103AC00070BD000080B509F083FC43F6945042F6C7
:103AD0002471C2F20000C0F20401816043F67460F8
:103AE00042F6A871C2F20000C0F20401816009F040
:103AF0008BFC80BD80B5042009F07AFB002808BF4C
:103B000080BD014643F67C50C2F20000007B3822A3
:103B10008A7009F0A1FB80BD80B51CF0EDFE80BD70
:103B200080B50A46014600201CF0E6FE80BD00007C
:103B300010B5044643F67C50C2F200002146FFF760
:103B4000D9FB204601F09AFB10BD000080B509F0BA
:103B50003FFC40F2CC1042F6C861C2F20000C0F255
:103B60000401016043F22C01C0F2040181621DF0E6
:103B70009FF91DF021FD43F6806044F65171C2F2B9
:103B80000000C0F200010160002001F0EBFC4FF4E6
:103B900040500021012201F0C7FC09F035FC80BD36
:103BA00080B509F015FC43F6945042F60471C2F258
:103BB0000000C0F20401416043F6746042F6A07157
:103BC000C2F20000C0F20401416009F01DFC80BD9A
:103BD00080B509F0FDFB43F6945042F61471C2F231
:103BE0000000C0F20401816043F6746042F6A871DF
:103BF000C2F20000C0F20401816009F005FC80BD42
:103C000080B509F0E5FB40F2CC1043F25C01C2F252
:103C10000000C0F2040181601DF0F2FF1EF0C6F941
:103C200009F0F2FB80BD000010B5D1B192F800E0C0
:103C30004FF0000CBEF1000F11D08BB273450ED9BE
:103C4000144614F8013F9446834208D06FEA0E02EE
:103C500011440A0404EB0E02E8D14FF0000C604658
:103C600010BD002010BD000080B599B143F67C5016
:103C7000C2F20000007C002818BF80BD88787C223A
:103C800002EA500040F2CC12C2F2000210588268E0
:103C90000846904780BD000080B543F67C51C2F2D3
:103CA000000108730020C875087441F22D40C0F26D
:103CB000020000F0BBFD80BD43F67C51C2F2000162
:103CC000C97D002908BF7047022804BF0020704743
:103CD000032808BF0120704780B5014603201DF06E
:103CE000BFFB80BD80B582B0ADF8041043F6A05193
:103CF000C2F20001D1F89C107622ADF806006846A9
:103D0000ADF80220884702B080BD000010B582B037
:103D10000C461CF061FA38B173218DF80210694627
:103D2000ADF804401CF012FD02B010BDB0B584B077
:103D30000546084614461CF04FFA40B172218DF832
:103D4000061001A902948DF80C501CF0FFFC04B081
:103D5000B0BD000043F67C51C2F20001C97D0029CC
:103D600008BF7047002804BF02207047012808BF21
:103D70000320704710B50446062009F039FA0028E0
:103D800008BF10BD01465220887043F67C50C2F235
:103D90000000007B0C7109F05FFA10BD10B50446FD
:103DA000062009F025FA002808BF10BD014653205F
:103DB000887043F67C50C2F20000007B0C7109F061
:103DC0004BFA10BD80B509F003FB40F2CC1043F272
:103DD0003801C2F20000C0F2040141624FF41060E9
:103DE0000021012201F0A0FB09F00EFB80BD0000C4
:103DF0002DE9F04381B004462C20984616460F4624
:103E000009F0F6F9F0B10546DDE908903121A97015
:103E10002880681D39462C71FFF76CFA05F10B00FC
:103E20003146FFF7A3FA05F11B004146FFF79EFA62
:103E300043F67C50C2F20000007B294685F82B90A7
:103E400009F00AFA01B0BDE8F083000080B509F07E
:103E5000BFFA40F2CC1043F25001C2F20000C0F2AF
:103E60000401816143F24401C0F20401C16309F01D
:103E7000CBFA80BD10B59AB040F2CC11C2F200016D
:103E8000096A42F6C87243F67C54C0F20402C2F2D8
:103E900000049142A0600AD000F0ECFC442806D84F
:103EA0000020C0F27710A168019001A888471AB0DD
:103EB00010BD0000B0B5054610200C4609F098F979
:103EC000002808BFB0BD0146222088700D80206800
:103ED0006268A368486043F67C508A60CB60C2F297
:103EE0000000007B09F0B8F9B0BD000080B509F012
:103EF0006FFA40F2CC1043F26801C2F20000C0F247
:103F0000040181601DF07CFE09F07EFA80BD000096
:103F100080B51DF09DFE80BD2DE9F04381B00746C0
:103F20001020984616468946102409F061F930B3EE
:103F3000DDE908EC014684700771431D0020002470
:103F4000002200BF27FA00F5ED0702D0355D0132EF
:103F50001D55D4B2022C03D8072800F10100F1D37B
:103F600043F67C50C2F20000007B81F80890A1F873
:103F70000AE0A1F80CC081F80E8009F06DF901B0DB
:103F8000BDE8F08380B5042009F032F9002808BFAD
:103F900080BD014643F67C50C2F20000007B112236
:103FA0008A7009F059F980BDF0B581B00746162036
:103FB00015460C4609F01CF968B106460420B0709D
:103FC0003780347525B1301D29462246FCF7D1FCD7
:103FD000304608F083FC01B0F0BD0000B0B50546E6
:103FE00004200C4609F004F9002808BFB0BD0321E5
:103FF00081700580C47008F071FCB0BDF0B581B06F
:104000000746202016460C4609F0F2F888B105460E
:104010002820A870281D31461A222F80FCF7A9FC01
:1040200043F67C50C2F20000007B2946AC7709F0D1
:1040300013F901B0F0BD0000C0684DF6836100BA0D
:10404000C4F21B31A0FB0112910C43F609525143FB
:10405000A0EB81107047000046F62800C2F2000075
:104060007047000043F60470C2F2000040687047D9
:1040700043F60470C2F200000068704740F2CC10B2
:1040800043F27401C2F20000C0F20401416143F640
:10409000047042F69211C2F20000C0F20401C0E9BD
:1040A0000011704740F2CC1043F28001C2F20000D0
:1040B000C0F20401016270472DE9F0410446162068
:1040C000984616460F4609F093F8002808BFBDE849
:1040D000F08105462920A8702C802F756E751FB1C0
:1040E000281D4146FFF742F943F67C50C2F200001A
:1040F000007B294609F0B0F8BDE8F081F0B581B049
:10410000074608201C4615460E4609F071F868B1AE
:1041100006990122827004F0070201F0070107806E
:10412000067145718271C17108F0D8FB01B0F0BD14
:10413000F0B581B0074608201C4615460E4609F02A
:1041400057F868B106990222827004F0070201F064
:1041500007010780067145718271C17108F0BEFBCD
:1041600001B0F0BD80B5014646F62800C2F200005D
:104170006022FCF7FEFB80BDB0B5054606200C466C
:1041800009F036F8002808BFB0BD05218170058010
:10419000047108F0A3FBB0BD10B5044680782C284C
:1041A00001D02A2808D143F6A050C2F20000D0F86E
:1041B000901009B12046884743F67C50C2F20000B7
:1041C00081682046884710BDB0B514460D461CF0E6
:1041D0001BF8002808BFB0BD00218289817442F617
:1041E00092110576C0F2040110460022234601F028
:1041F0009FF8B0BDF0B591B00646104615460C4686
:104200003DF08CFB08B111B0F0BD09AF3846214636
:104210003DF048FD01A831463A463DF035FD3846AF
:1042200039463DF03FFD204621462A463DF02CFD13
:10423000284629463DF036FD304631462A463DF0B7
:1042400057FC284629462A463DF052FC284631466E
:104250002A463DF035FD304631462A463DF014FDF4
:104260002846314632463DF043FC304631462A4628
:104270003DF03EFC304600213DF030FE80B142F67C
:10428000A862C0F20402304631463DF003FB074607
:1042900030463DF0A7FDF06940EAC770F06102E0EA
:1042A00030463DF09FFD284631463DF0FBFC01AF16
:1042B000284629463A463DF003FD284629463A4617
:1042C0003DF0FEFC384639462A463DF0F9FC3046C2
:1042D00031463A463DF0D8FC09AF384631463A46B9
:1042E0003DF0EEFC304629463DF08AFD2846214649
:1042F0003DF086FD204639463DF082FD11B0F0BD0F
:1043000010B504463DF00AFB38B104F120003DF041
:1043100005FB002818BF012010BD002010BD0000C3
:104320002DE9F04F8BB004460078042827D88A4640
:104330001646DFE800F003264266810004F12407F8
:10434000DDF850A03846314604F104083DF058FD30
:1043500004F1640506F12001284604F144093DF00A
:104360004FFD3846294642464B46CDF800A009F09D
:1043700085F9FF20C4F8840000250120A9E001256B
:10438000A8E0D4F8841018463DF0A8FDB0FA80F1FA
:10439000221D4B09002818BF012002EB401704F131
:1043A000440606EB401102EB431206EB431338467A
:1043B00009F0F4F8002502208BE0D4F884101846A8
:1043C0003DF08CFDB0FA80F14909221D002818BF8C
:1043D000012002EB411704F1440303EB411102EB0E
:1043E000401203EB4013384609F08AF8D4F88400F1
:1043F00000250138C4F884004FF00300C8BF012035
:1044000067E01846002100253DF068FDB0FA80F114
:10441000221D4B09002818BF012002EB401704F1B0
:10442000440606EB401102EB431206EB43133846F9
:1044300009F0B4F804204CE0184600213DF04EFD90
:104440000546B0FA80F0400904F1040903AF029078
:1044500004F1240138464A46002D18BF01253DF0DD
:104460002FFC04F1440808EB451B384639465A46F0
:104470003DF00AFC3846394632463DF005FC3846E8
:1044800039463DF04DFB06F12002384639463DF0F5
:10449000FBFB09EB4515384639462A463DF0F4FB4F
:1044A00002992A4609EB411008EB41115B4609F0DD
:1044B00027F8484641463A4615F0F0FE5046494630
:1044C0003DF09EFC0AF1200041463DF099FC01259B
:1044D0000520207028460BB0BDE8F08F80B593070B
:1044E00006D4D20700F10C0015D115F01BFF80BDDA
:1044F000C36802F0010203EA010040EA020C8842AC
:10450000184618BF0020002A08BF1846BCF1000F4B
:1045100008BF604680BD15F0DDFE80BD80B50C3063
:1045200015F09CFF80BD000080B540F23712C8F244
:1045300001023CF063FF80BD80B540F23112C8F249
:10454000010201463CF05AFF80BD000080B540F2F8
:104550003812C8F201023CF051FF80BD80B540F234
:104560003312C8F201023CF049FF80BD80B540F231
:104570003212C8F201023CF041FF80BD80B537F035
:10458000DFFA3CF079FE80BD2DE9F04F85B04FF0A9
:10459000000801244FF480760827CDF8108004E04D
:1045A0006400013F06F1040610D0B5B2284635F08C
:1045B0007BFF0028F4D0204635F0A0FF0028EFD084
:1045C000284635F031FF48EA0408E9E74FF4BE70A9
:1045D00035F06AFF40B14FF4BE7035F025FF04A8F6
:1045E00048F0004835F012FF5FEA08601CD0012750
:1045F000002404E00134082C4FEA470714D017EADE
:10460000080FF7D0204635F059FF0546204635F013
:104610005FFF064620461AF0F1FD0028EAD0024668
:10462000284631469047E5E7B8F1FF3F02DD05B087
:10463000BDE8F08F46F68C084FF000094FF0FF30D0
:10464000C2F200080DF1080B03254FF0000ACDF867
:104650000C90029009E000BF4FF0000A4FF00009F3
:104660005FEA0A604FF0000AE1D008EB090090F819
:104670005040FF2C38D004F03F063046594635F004
:10468000C9FC88B330461AF0E3FD1AF0B7FDB5EB6C
:10469000941F074600D03FB3A409032C03D1304632
:1046A00003A935F0C1FC304635F046FE05463046DC
:1046B00004A935F0AFFC022D00D110B9032D11D1A2
:1046C00080B9032C08D102213046022D08BF0321F6
:1046D00035F0D0FD0AF1010A03252FB130462146FD
:1046E000B84701E0032500BF09F10109B9F1040F42
:1046F000BBD15FEA0A60AFD001A835F087FE019810
:1047000004998842A8D0039904900291A6E700007A
:104710004EF60450CEF200000068102101EA10604D
:104720007047000044F22802C2F20002C2E904010C
:104730007047000070B582B039B1887801283DD14A
:1047400008461EF00FFE02B070BDC00736D044F21E
:104750002804C2F200040DF10701204608F058FDBC
:1047600060B306460DF1070509E000BF304608F0CA
:1047700065FD2046294608F04BFD0646F0B19DF840
:10478000070002280CD0042812D130461FF0C2FFC7
:1047900094F821000028E9D030461EF0FFFFE5E73D
:1047A00030461EF0E1FD0028E3D0216904E000BF9F
:1047B000A1690029DAD030468847DAE702B070BD37
:1047C00080B544F26800C2F200000021C0E91C116B
:1047D0006FF01B014FF6FF7243181C3138299A8580
:1047E000FAD14FF0FF31C0E91511C1651B21A0F8C6
:1047F0007C1040F20511A0F880100021C0F8A01034
:104800001EF012FF80BD0000B0B50C46054640F218
:10481000064003211EF050FD002808BFB0BD290A44
:10482000C570017144711EF077FDB0BD44F22801DE
:10483000C2F200018860704744F26800C2F20000D2
:104840006830704744F26800C2F20000B0F87E00A1
:104850007047000044F26800C2F20000D0E9220173
:104860007047000044F26800C2F20000B0F8920005
:104870007047000044F26800C2F20000B0F87C000B
:104880007047000044F26800C2F2000090F8940003
:104890007047000080B5FFF74DFF80BD80B544F242
:1048A0002801C2F2000181F820000020C1E90000C7
:1048B000FFF786FF80BD00002DE9F04188460746DE
:1048C00042F2270027211C4616461EF0F5FC002860
:1048D00008BFBDE8F081054604304146EF70FEF7A1
:1048E00009FD30687168F268B368C5F81620C5F82C
:1048F0001230C5F80E10C5F80A0020686168A26879
:10490000E368C5F81A002846C5F81E10C5F822202D
:10491000C5F826301EF000FDBDE8F08180B542F2FA
:104920003D0000211EF0C8FC002818BF1EF0F4FC5A
:1049300080BD000080B542F2290000211EF0BCFCC1
:10494000002818BF1EF0E8FC80BD0000B0B50C4682
:10495000054642F213000E211EF0AEFC002808BFEF
:10496000B0BDA0F803502178417161788171A178C0
:10497000C171E17801722179417261798172A17905
:10498000C172E1790173217A4173617A8173A17AED
:10499000C173E17A01741EF0BFFCB0BD80B542F274
:1049A0000E0000211EF088FC002818BF1EF0B4FC89
:1049B00080BD00002DE9F0470F46054642F20D008C
:1049C0001921984691461EF077FC002808BFBDE8E3
:1049D000F0870446C570280ADDE9081A2071380AF4
:1049E0000A9EA07104F10900677184F8079084F8A9
:1049F0000880FEF77FFC84F80FA030782074707870
:104A00006074B078A074F078E074307920757079B3
:104A10006075B079A075F079E075307A2076707A9B
:104A20006076B07AA076F07AE07620461EF074FCCC
:104A3000BDE8F087B0B50C46054642F217002021CC
:104A40001EF03AFC002808BFB0BD29686A68EB6810
:104A5000AD68C0F80F30C0F80B50C0F80720C0F8A0
:104A6000031021686268A368E568C0F81310C0F8F5
:104A70001720C0F81B30C0F81F501EF04DFCB0BD11
:104A80002DE9F0470746007A1446884600260021A3
:104A900020FA01F2D20718BF0136062904D8F2B273
:104AA000042A01F10101F3D35FFA86F94FEA0910F4
:104AB00000F10A0142F243001EF0FEFB002808BF8D
:104AC000BDE8F087824638788AF8030078788AF85B
:104AD0000400B8788AF8050079680AF10600FEF744
:104AE00009FC387A31068AF80C0034D04FEA4901C3
:104AF00051FA86F1AAF103004FEA810CA21DA8F138
:104B0000020300279E78E51900F8106FDE784670E2
:104B100013F8046F86705E78C670E65D06716E7875
:104B20004671AE788671EE78C671D61916F8021CF9
:104B3000017216F8011C4172D15D0C3781727178D7
:104B4000BC45C172297A0173697A4173A97A81736C
:104B5000E97AC173D6D150461EF0DEFBBDE8F0877E
:104B6000F0B581B00E46074642F2420006211C46CF
:104B700015461EF0A1FB48B1290A8171210AC770B0
:104B800006714571C47101721EF0C6FB01B0F0BD23
:104B900070B50C46064642F2260040211EF08CFB02
:104BA000002808BF70BD0546033031462022FBF7C0
:104BB000E0FE05F1230021462022FBF7DAFE28461D
:104BC0001EF0AAFB70BD000010B5044642F21B00A7
:104BD00002211EF071FB002808BF10BDA0F80340A1
:104BE0001EF09AFB10BD0000B0B50C46054642F21F
:104BF0001A0012211EF060FB002808BFB0BDA0F80B
:104C0000035021686268A368E568C0F80510C0F821
:104C10000920C0F80D30C0F811501EF07DFBB0BD6A
:104C200080B542F2450000211EF046FB002818BF67
:104C30001EF072FB80BD00002DE9F04F81B00F46E1
:104C4000054642F244000E21984616461EF034FBFB
:104C5000D0B10446DDF83090DDE90ABAC5700771BD
:104C6000063041466671FEF745FB4FEA1B20607334
:104C70004FEA1A20E073204684F80CB084F80EA0A6
:104C800084F810901EF048FB01B0BDE8F08F0000E2
:104C900010B5044642F2460002211EF00DFB00282A
:104CA00008BF10BDA0F803401EF036FB10BD000089
:104CB00080B542F2180000211EF0FEFA002818BF4D
:104CC0001EF02AFB80BD000080B542F202000021E8
:104CD0001EF0F2FA002818BF1EF01EFB80BD000077
:104CE00080B542F2030000211EF0E6FA002818BF4A
:104CF0001EF012FB80BD000080B542F23A00002198
:104D00001EF0DAFA002818BF1EF006FB80BD000076
:104D100080B542F22F0000211EF0CEFA002818BF05
:104D20001EF0FAFA80BD000080B542F23B0000217F
:104D30001EF0C2FA002818BF1EF0EEFA80BD000077
:104D400080B542F24A0000211EF0B6FA002818BFD2
:104D50001EF0E2FA80BD000080B542F22A00002178
:104D60001EF0AAFA002818BF1EF0D6FA80BD000077
:104D700080B542F21C0000211EF09EFA002818BFE8
:104D80001EF0CAFA80BD000080B542F20F0000217B
:104D90001EF092FA002818BF1EF0BEFA80BD000077
:104DA000B0B50C46054642F2210003211EF084FAFC
:104DB000002808BFB0BD290AC570017144711EF0FA
:104DC000ABFAB0BDF0B581B00E46074642F2200006
:104DD0000E211C4615461EF06FFAC8B1C7703F0A77
:104DE0000899DDE906320771370A87712F0A0772C1
:104DF000270AC3721B0A4273120AC173090A467159
:104E0000C571447287720373827301741EF084FA51
:104E100001B0F0BD10B5044642F23C0001211EF085
:104E20004BFA002808BF10BDC4701EF075FA10BD03
:104E300070B50C46054642F2280007211EF03CFAE8
:104E4000002808BF70BD064604302146F570FEF705
:104E500051FA30461EF060FA70BD000010B50446ED
:104E600042F26D0002211EF027FA002808BF10BD93
:104E7000A0F803401EF050FA10BD000010B5044623
:104E800042F22D0001211EF017FA002808BF10BDC4
:104E9000C4701EF041FA10BDF0B581B00E46044654
:104EA00042F2080020211EF007FA78B1071D0546DE
:104EB000C470384631462246FBF75BFD3819C4F111
:104EC0001F01FBF75CFE28461EF026FA01B0F0BD7C
:104ED00010B5044642F20A0001211EF0EDF9002847
:104EE00008BF10BDC4701EF017FA10BD2DE9F047C1
:104EF0000F46054642F206000F21984616461EF060
:104F0000DBF9002808BFBDE8F0870446DDE9082189
:104F1000C570280ADDE90AA92071380AA07104F1D8
:104F20000A006771E67184F80880627221B1FEF7A9
:104F3000E1F904F1100001E0FEF7CEF980F800A0DD
:104F400080F8019020461EF0E7F9BDE8F0870000E8
:104F500070B50C46054642F2350007211EF0ACF94B
:104F6000002808BF70BD064604302146F570FEF7E4
:104F7000C1F930461EF0D0F970BD000070B50D4685
:104F8000064642F22200062114461EF095F900283A
:104F900008BF70BD310A0171290A8171210AC670EA
:104FA0004571C47101721EF0B7F970BD10B50446A9
:104FB00042F2010008211EF07FF9002808BF10BD51
:104FC00061682268C0F80710C0F803201EF0A4F939
:104FD00010BD00002DE9F0411C460E460746FB2B94
:104FE00003F1040142F23700904628BF6FF0040439
:104FF000FF2928BFFF211EF05FF9002808BFBDE888
:10500000F08106990546E2B2C770067180F8058006
:105010000730AC71FBF7ADFC28461EF07DF9BDE80A
:10502000F081000070B5064688000C46811C42F2F3
:10503000390015461EF040F9002808BF70BDC67043
:1050400004716CB1A91F421C11F8063F013C02F823
:10505000043F8B785370CB7893700B79D370F3D176
:105060001EF05AF970BD000070B50C46064642F2BB
:10507000360019211EF020F9002808BF70BDC67047
:10508000054620782871607868716068A87160684A
:10509000000AE871E0882872A0686872A068000AB7
:1050A000A8726089E872207B2873607B6873A07B9C
:1050B000A873216905F10F00FEF71CF9207D6875C2
:1050C000607DA875A07DE875E07D2876207E6876F5
:1050D000607EA876A07EE87628461EF01DF970BD99
:1050E0002DE9F04381B098461546894607460026CB
:1050F000002000BF25FA00F1C90718BF01360628B5
:1051000004D8F1B2042900F10100F3D3F4B2A000F5
:1051100050FA86F0C11C42F241001EF0CDF8C8B131
:105120003106C77080F80490457111D0A8F10601CE
:10513000421C00BF8B7A013C02F8053F11F8063F84
:1051400053704B7893708B78D370CB781371F1D107
:105150001EF0E2F801B0BDE8F08300002DE9F04157
:105160001C460E460746FB2B03F1040142F23800B1
:10517000904628BF6FF00404FF2928BFFF211EF0CE
:105180009BF8002808BFBDE8F08106990546E2B209
:10519000C770067180F805800730AC71FBF7E9FB3A
:1051A00028461EF0B9F8BDE8F08100002DE9F04175
:1051B00015460E460746FC2A02F1030142F23F0063
:1051C000984628BF6FF00305FF2928BFFF211EF076
:1051D00073F8002808BFBDE8F0810446EAB2C77042
:1051E0000671063041466571FBF7C3FB20461EF091
:1051F00093F8BDE8F0810000B0B50C4605464FF4C9
:10520000015002211EF058F8002808BFB0BDC5703B
:1052100004711EF081F8B0BDF0B581B00E460746AE
:1052200042F23E0007211C4615461EF045F858B1D3
:10523000310A4171290AC171210AC770067185714D
:10524000047241721EF068F801B0F0BDF0B581B093
:105250000D46074642F24E00082114461EF02CF877
:1052600048B1064604302946F770FEF743F8304649
:10527000B4721EF051F801B0F0BD0000B0B50446A4
:1052800042F2050006211EF017F8002808BFB0BD45
:10529000054603302146FEF72DF828461EF03CF85F
:1052A000B0BD0000B0B50C46054642F20C0002212C
:1052B0001EF002F8002808BFB0BDC57004711EF0D2
:1052C0002BF8B0BDF0B581B00E46074642F20B0098
:1052D00007211C4615461DF0EFFF58B10699320A0A
:1052E00042712A0AC77006718571C27104724172D7
:1052F0001EF012F801B0F0BDF0B581B00E460446C4
:1053000042F2090020211DF0D7FF78B1071D0546A4
:10531000C470384631462246FBF72BFB3819C4F1DE
:105320001F01FBF72CFC28461DF0F6FF01B0F0BD75
:10533000F0B581B00E46074642F219001C211C460A
:1053400015461DF0B9FFC0B1A0F80370716832684E
:10535000C0F80910290AC0F8052045738173216837
:105360006268A368E768C0F80F10C0F81320C0F89F
:105370001730C0F81B701DF0CFFF01B0F0BD00006A
:10538000B0B50C46054642F2240004211DF094FFFE
:10539000002808BFB0BD290A0171210AC5704471F7
:1053A00081711DF0B9FFB0BD80B541F20900002147
:1053B0001DF082FF002818BF1DF0AEFF80BD000069
:1053C00080B541F2010000211DF076FF002818BFD2
:1053D0001DF0A2FF80BD000010B5044641F205405B
:1053E00002211DF069FF002808BF10BDA0F803408E
:1053F0001DF092FF10BD000080B544F24C00C2F2D7
:1054000000000121817640F6034000211DF054FF89
:10541000002818BF1DF080FF80BD000080B544F259
:105420002800C2F20000012180F821101EF0BAF914
:1054300080BD000044F22801C2F20001C86070473C
:105440002DE9F04381B0B0F800800646448840461C
:105450001EF06EF898B144F26809C2F2000909F131
:1054600070070546384607F033FF60B199F88200AF
:1054700048B1A1B2284632461EF0DEF908E03046B7
:1054800007F0DCFE17E038460021324607F0CCFE7C
:105490004FF0FF3010FA84F4FFF7D4F994FBF0F0EA
:1054A000297E0844013099F88010C2B28A422876D9
:1054B00001D3E87D10B101B0BDE8F08344F22801CA
:1054C000C2F2000101204A69E87540460121904777
:1054D00001B0BDE8F083000010B5044640F601407D
:1054E00008211DF0E9FE002808BF10BD6168226890
:1054F000C0F80710C0F803201DF00EFF10BD00001B
:1055000010B5044640F6634008211DF0D5FE002882
:1055100008BF10BD61682268C0F80710C0F80320FA
:105520001DF0FAFE10BD000040F2282CC2F2000C63
:1055300032B1DCE9003211431843CCE90001704775
:10554000DCE9002323EA010122EA0000CCE90001A2
:105550007047000044F26801C2F20001A1F87C002B
:105560007047000044F2680043F2B951C2F20000F3
:10557000C0F20201C0F8A0107047000044F26800B9
:10558000C2F200000021C0F8A0107047B0B50C4670
:10559000054640F67C4004211DF08EFE002808BF21
:1055A000B0BD290A0171210AC570447181711DF0D5
:1055B000B3FEB0BDEFF3108000281CBF0120704780
:1055C000EFF31180002818BF01207047EFF310801F
:1055D00000281CBF01207047EFF31180002818BF7E
:1055E00001207047EFF3108000281CBF0120704796
:1055F000EFF31180002818BF01207047EFF31080EF
:1056000000281CBF01207047EFF31180002818BF4D
:1056100001207047EFF3108000281CBF0120704765
:10562000EFF31180002818BF01207047EFF30580C9
:10563000002818BF01207047EFF30580002818BF2D
:1056400001207047EFF30580002818BF0120704744
:10565000EFF30580002818BF01207047EFF30580A5
:10566000002818BF01207047EFF31480012121EAC0
:1056700000007047B0B505F007F840F24824C2F2C8
:10568000000401256572BFF34F8FFFF741F8002832
:1056900008BFB0BDFDF726FFA572B0BD80B540F2D2
:1056A0004820C2F2000000214172BFF34F8F827A7E
:1056B00012B1817207F00CF804F0F0FF80BD000019
:1056C00080B51970090A5970111D9970090A9871ED
:1056D000000AD970110AD87118461A715971FFF76A
:1056E000AFFE80BD2DE9F0410D460446FEF7F6F809
:1056F000002840D044F264160138C2F20006371880
:105700004FF0120830461E2187F8118007F0CAFEBC
:105710001420B4801FF08AFD002808BFBDE8F08186
:10572000034680F8088044F23C10C2F2000090F872
:105730002410597290F8241039750131CAB28A4286
:1057400018BF012280F8242008205881287821469B
:10575000187368780C225873A8789873E878D8730F
:105760002879187468795874A8799874E879D87485
:105770000520FFF7A5FFBDE8F081000070B50646E3
:105780000E2015460C461FF051FD002808BF70BDC5
:1057900003461320187202205881280A58730520E6
:1057A000214606225E721D73FFF78AFF70BD00005E
:1057B00080B544F23C1045F2C901C2F20000C0F2CB
:1057C000020145F2392245F2C503C0E9001145F254
:1057D000CD01C0F20202C0F20203C0F20201C0E930
:1057E0000223C0E904330162012180F8241045F24C
:1057F000D10045F25D11C0F20200C0F20201FEF7D5
:1058000091FF80BD44F23C1045F29911C2F20000B4
:10581000C0F202018161704744F23C1CC2F2000CEC
:1058200010230428604608BF0C2318BF0430016011
:105830004CF803207047000080B531B1887801280A
:1058400018BF80BD08461FF031FD80BD44F26411D1
:10585000C2F2000101228A710873087470470000C7
:1058600044F23C1045F2B921C2F20000C0F202013C
:10587000C16144F26410C2F200000021818281758E
:105880007047000047F2E830C2F20000006844F2BE
:10589000DC11007940F27D22C2F20001C0F2030265
:1058A00009284A6038BF704746F23870C2F20000DB
:1058B000016A41F48041016270470000F0B581B097
:1058C00047F2E834C2F200042068007B90B147F24E
:1058D000D430C2F2000000682168002283782BBB1C
:1058E00090F82131012B21D00B7B01329A4200F636
:1058F000F800F3D32068007BA8B147F2D436002526
:10590000C2F20006002706E020680137007B05F69A
:10591000F805874207D23068415D0029F4D0284459
:1059200022F094FDF0E7002001B0F0BD0C2001B0A2
:10593000F0BD000080B544F23021C2F2000151F800
:105940002000002818BF804780BD00002DE9F041ED
:1059500098B042F6C450C0F2040090E80E50D0E96E
:105960000545C06910AE86E80E50CDE91545179083
:1059700042F27C20C0F2040090E82E0000F1100EEC
:105980009EE810508DE82E0000F12005D0F81C8014
:105990002ECD00F13007C06BCDE9044C0DF1200C89
:1059A000D0CF8CE82E00CDE906E8CDE90E7046F2A6
:1059B0008070C2F2000090F820100D960C9419B17E
:1059C0000C2018B0BDE8F081012180F8221080F889
:1059D0002010684610A922F0B9FD002018B0BDE8DB
:1059E000F0810000F0B581B046F28077C2F2000786
:1059F00097F820200AB10C2418E097F823400646B7
:105A0000B4FA84F00D464109304630F0CFF987F8FA
:105A1000220040B1012087F820003046294622F0BC
:105A200095FD002402E0002C18BF1224204601B08E
:105A3000F0BD000080B546F28070C2F2000090F820
:105A4000201000291CBF0C2080BD90F821100122DD
:105A500080F8202039B146F28070C2F2000022F0B6
:105A6000F7FD002080BD22F0DDFD002080BD00009C
:105A7000B0B547F2E83CC2F2000CDCF80010097B3C
:105A8000E1B147F2D43E0023C2F2000E0022002111
:105A900008E000BFDCF800400131247B03F6F80386
:105AA000A14209D2DEF80040E55C002DF2D01C4492
:105AB000647884540132EDE7D0B2B0BD0022D0B298
:105AC000B0BD000047F2DC31C2F2000109684FF4BA
:105AD0003C7200FB0210D0F8F401704747F2DC3151
