:020000040000FA
:1000000000000120C9020000D5020000A901000083
:10001000D9020000B1010000B5010000000000009D
:1000200000000000000000000000000005020000C9
:10003000E1020000000000009D020000AD0200008F
:10004000E7020000E9B00000E7020000E70200005C
:10005000E7020000E7020000E7020000E7020000FC
:10006000E7020000E7020000E7020000E7020000EC
:10007000E702000009B10000E7020000A132000021
:10008000E7020000E7020000E7020000E7020000CC
:10009000E7020000E7020000E7020000E7020000BC
:1000A000E7020000E7020000E7020000E7020000AC
:1000B000E7020000E702000000000000000000006E
:1000C000E7020000E7020000E7020000E70200008C
:1000D000E7020000E7020000E702000000F002F87B
:1000E00018F01CFB0AA090E8000C82448344AAF19B
:1000F0000107DA4501D118F011FBAFF2090EBAE899
:100100000F0013F0010F18BFFB1A43F0010318474B
:100110003C3704005C3704000A444FF0000C10F830
:10012000013B13F0070408BF10F8014B1D1108BF75
:1001300010F8015B641E05D010F8016B641E01F815
:10014000016BF9D113F0080F1EBF10F8014BAD1C65
:100150000C1B09D16D1E58BF01F801CBFAD505E083
:1001600014F8016B01F8016B6D1EF9D59142D6D3DD
:10017000704700000023002400250026103A28BF05
:1001800078C1FBD8520728BF30C148BF0B60704709
:100190001FB540F020FC9DE8030000F0AFFD00F02B
:1001A0007DFF00F077FD1FBD102304E0202302E057
:1001B000302300E040239C46F0B404AE7546E808C6
:1001C00001D3EFF309860E4F0FCE0FC70FBC0FC739
:1001D0004046494652465B460FC71DCE3100A60A2F
:1001E00000D304316E0900D248311FC7EFF30980F4
:1001F0006946EFF3148663C76046014937F0A0FAF9
:10020000506A00201EF0040F0CBFEFF30880EFF3DC
:100210000980816911F8021C91BB01B590E80F10AB
:10022000E047BDE800508CE80300244B93E806004B
:10023000914208BF704741B91EF0100F10D12049FC
:10024000086820F0010008600AE02CE9F00F1EF0B9
:10025000100F08BF2CED108AC1F838C081F822E0D9
:100260001A6092F82210906B61F0FF0E1EF0100FD2
:1002700008BFB0EC108AB0E8F00F80F3098870472F
:10028000104A13689942FAD801B552F821C00FC834
:10029000E047BDE80050CCF80000704701B539F0E8
:1002A0002BFDBDE80140EFF3098CBEE701B539F045
:1002B000B1FFBDE80140EFF3098CB6E7440200202E
:1002C00034EF00E0342204000748804707488047A5
:1002D00007480047FEE7FEE7FEE7FEE7FEE7FEE72A
:1002E000FEE7FEE7FEE7FEE7E5CB0000E18D030059
:1002F000DD000000704718F039BA0844401E491E5E
:10030000884370470821001DF7E72DE9F0411746A3
:100310000E460446FFF7F6FFA042054633D9002FEC
:100320001CBF06F10C0018F083FA30467468F4B173
:100330002168A94217D305F1080291423CBF6168C8
:10034000416007D3626861194A602268521B0A60E3
:1003500041602560002F1CBF06F10C0018F0E8FA80
:10036000201DBDE8F08120466468002CE0D12946BC
:10037000304600F0AFFC0028D7D1002F1CBF06F19B
:100380000C0018F0D5FA0020BDE8F08110B5044645
:1003900000F097FC01682046BDE810400122B4E758
:1003A00070B516460D46041F002808BF70BD002E0C
:1003B0001CBF05F10C0018F03BFA2B4658680028CA
:1003C00018BFA04238BF0346F8D31968CA18A24222
:1003D00018BF5C6003D122681C4611441960216873
:1003E0000A19824218BF606004D1426862600068E6
:1003F00008442060002E1CBF05F10C0018F098FA8C
:1004000070BD10B5044600F05CFC01682046BDE8F4
:1004100010400122C4E753EA020C00F069802DE984
:10042000F04B4FF00006002B1FBFB3FA83F503FA21
:1004300005F424FA05F65E4012BF1643B2FA82F5BF
:1004400002FA05F4C5F120051EBF22FA05FC44EAB4
:100450000C04203556EA044C4FEA144418BF641CBF
:100460004FF000084FF00009904271EB030C39D3B4
:10047000002919BFB1FA81F701FA07F6B0FA80F73F
:1004800000FA07F6C7F120071EBF20FA07FC46EA6C
:100490000C062037B6FBF4FCA7EB0507103F07F06E
:1004A0001F0BCBF120062CFA06F60CFA0BFB44BF0F
:1004B000B3460026202FA4BF5E464FF0000B5BEA38
:1004C000060C08BF4FF0010B19EB0B0948EB0608AF
:1004D000ABFB027C06FB02CC0BFB03CCC01B71EB1D
:1004E0000C01C1E70B46024641464846BDE8F08B89
:1004F00013B5084318BF4FF0FF300146AFF300803B
:10050000BDE81C40704753EA020C23D010B54C10D4
:1005100084EA530404D54042C1F1000138BF491EAA
:100520001B4204D55242C3F1000338BF5B1EFFF7E4
:1005300072FF14F0804F04D04042C1F1000138BF77
:10054000491E14F0004F04D05242C3F1000338BFDB
:100550005B1E10BD13B540424FF0000070EB01046C
:10056000B8BF012001F0004100281CBF6FF000411E
:100570004FF0FF30AFF300801CBD70B504468569B5
:100580000068C10601D5302600E02026C00707D04C
:1005900070BDD4E9012130469047206A401C20629A
:1005A0006D1EF6D570BD70B5044685690078C0072C
:1005B00007D170BDD4E9012120209047206A401C5A
:1005C00020626D1EF6D570BD2DE9F0410446164639
:1005D0000D464769007B80072ED0384618F0D2F9C7
:1005E00050BB3EB3012E02D0022E25D104E020469E
:1005F00000F066F805441DE0384618F0AFF9E168F0
:10060000002841F01001E16005DA204600F09AFC74
:100610000120BDE8F081C9030BD56268E16A91420F
:1006200000D81146A26911442269891A814200DD6D
:1006300008460544002D01DA0220EAE7E16A606815
:10064000E268814206D29103E06203D522F40031D0
:1006500041F01002A6690027AE4213DCE16A814234
:1006600001D90B4600E0034603EB060C2369ACEB13
:10067000030CAC4506DD814201D98C4600E084467E
:100680009C4505D1A760276042F02000A5620DE0DF
:10069000AD1BE669AE1B8142A66000D90846C01AB0
:1006A000281A20605819606022F020000349084091
:1006B000E060002084F84870ABE70000BFCFD7FFB0
:1006C00010B50146C268900703D0900607D5886A26
:1006D0000AE0FFF710FE01210160881E10BD8B6942
:1006E000486818440B69C01A91F848301BB191F85A
:1006F0004910401A10BD1103FCD50028FADD401E38
:1007000010BD2DE9F04704464FF000094FF0FF37C8
:10071000C568D4E90486A80707D0204600F046FC47
:10072000304618F015F9002802DA3846BDE8F0879F
:10073000280502D54046FFF764FE4C21204600F014
:1007400040FA206D20F0010020654846EEE770B5C4
:100750000C46064601F14C05284618F069F821467A
:10076000304640F02BF90446284618F0E1F82046C0
:1007700070BD00002DE9F04716468846070010D0EE
:1007800006F14C00814618F053F83046FFF7B9FFE8
:1007900018F8010B61280DD0722805D0772841D1B7
:1007A00005E00020BDE8F0870125002405E00225D2
:1007B000042402E0082448F2020518F8010B2B2853
:1007C00006D0622809D018F8010C74280AD00BE072
:1007D00045F0030544F00204EFE745F0040544F05A
:1007E0000104EAE744F010043846214618F0CEF838
:1007F000411C17D00021316171604FF40071F56028
:10080000F1617061200704D5304602220021FFF714
:10081000DBFE306D40F001003065484618F088F886
:100820003046BFE70026F8E72DE9F04115460E46B1
:100830000746214C204617F0FBFF2A463146384632
:10084000FFF798FF0546204618F072F82846BDE8E5
:10085000F0812DE9F0410E468046174D284617F0ED
:10086000E7FF164C206DC10704D0410804D020F0EA
:100870000104F7E7224612E05420FFF787FD070046
:1008800017D0206D47F001010843542120653846F8
:1008900000F097F907F14C0017F0F8FF3A4631469F
:1008A0004046FFF767FF0446284618F041F8204607
:1008B000CDE70024F8E70000EC000020340300201E
:1008C00030B503461D783DB10A4612F8014B1CB104
:1008D000AC42FAD15B1CF5E7181A30BD40EA0103BF
:1008E00010B59B070FD1042A0DD310C808C9121FD9
:1008F0009C42F8D020BA19BA884201D9012010BD13
:100900004FF0FF3010BD1AB1D30703D0521C07E0DF
:10091000002010BD10F8013B11F8014B1B1B07D143
:1009200010F8013B11F8014B1B1B01D1921EF1D1B4
:10093000184610BD10B5431C02E010F8011B71B140
:100940008107FAD14FF0013202C88C1A8C4314EAA5
:10095000C211F9D0C01A0A0603D0C01E10BDC01AB9
:1009600010BD0A0401D0801E10BD0902FCD0401E3B
:1009700010BD032A40F2308010F0030C00F0158007
:1009800011F8013BBCF1020F624498BF11F801CB92
:1009900000F8013B38BF11F8013BA2F1040298BFF7
:1009A00000F801CB38BF00F8013B11F0030300F061
:1009B0006780083AC0F0088051F8043B083A51F8C3
:1009C00004CBA0E80810F5E7121D5CBF51F8043B0A
:1009D00040F8043BAFF30080D20724BF11F8013B7D
:1009E00011F801CB48BF11F8012B24BF00F8013BDF
:1009F00000F801CB48BF00F8012B7047431A28BF0D
:100A00009A427FF6B6AF10441144032A40F2268082
:100A100010F0030F1EBF11F8013D521E00F8013DFA
:100A200010F0030F7FF4F6AF11F0030300F06D80B8
:100A3000083AC0F00B8051F8043D083A51F804CD53
:100A400040F8043D40F804CDFFF7F3BF121D5CBF32
:100A500051F8043D40F8043DAFF30080D20724BFB5
:100A600011F8013D11F801CD48BF11F8012C24BF48
:100A700000F8013D00F801CD48BF00F8012C704797
:100A800010B5203AC0F00B80B1E81850A0E818501B
:100A9000B1E81850A0E81850203ABFF4F5AF5FEA6B
:100AA000027C24BFB1E81850A0E8185044BF18C910
:100AB00018C0BDE810405FEA827C24BF51F8043BB7
:100AC00040F8043B08BF7047D20728BF31F8023B0B
:100AD00048BF11F8012B28BF20F8023B48BF00F89F
:100AE000012B7047431A28BF9A427FF6C9AF1044C2
:100AF000114410F0030F1EBF11F8013D521E00F803
:100B0000013D10F0030F7FF4F6AF103AC0F00A80F9
:100B100010B531E9185020E91850103ABFF4F9AF78
:100B2000BDE81040530724BF31E9081020E9081040
:100B300044BF51F8043D40F8043D12F0030F08BFD4
:100B40007047D20728BF31F8023D48BF11F8012C89
:100B500028BF20F8023D48BF00F8012C704702F082
:100B6000FF0343EA032242EA024200F00AB802F01D
:100B7000FF0343EA032242EA024200F024B84FF0A6
:100B800000020429C0F0128010F0030C00F01B805A
:100B9000CCF1040CBCF1020F18BF00F8012BA8BF68
:100BA00020F8022BA1EB0C0100F00DB85FEAC17C2C
:100BB00024BF00F8012B00F8012B48BF00F8012BDF
:100BC00070474FF0000200B5134694469646203910
:100BD00022BFA0E80C50A0E80C50B1F12001BFF4F6
:100BE000F7AF090728BFA0E80C5048BF0CC05DF85C
:100BF00004EB890028BF40F8042B08BF704748BFAA
:100C000020F8022B11F0804F18BF00F8012B70471D
:100C100030B44FF0013C50F8042B51F8043BCCFAAF
:100C200052F4D51A20D1FCB950F8042B51F8043BEA
:100C3000CCFA52F4D51A17D1B4B950F8042B51F8A4
:100C4000043BCCFA52F4D51A0ED16CB950F8042BEF
:100C500051F8043BCCFA52F4D51A05D1002CDAD065
:100C600030BC4FF00000704729BAB1FA81F111F0A1
:100C70001801D1F120008440F2D1CA40CB4012F0DB
:100C8000FF0213F0FF0330BCD01A70477047704763
:100C90007047000070B5064C7C44064D7D4404E06E
:100CA0002046016808448047241DAC42F8D170BD3D
:100CB000E42B0400E42B04000048704730040020BB
:100CC000704710B5FFF7F8FF083010BD7047704748
:100CD0007047704738B504460A4600206946AFF3AE
:100CE0000080002808BF38BD02460099204600F069
:100CF000CBFA012038BD012000F016BBF8B5AFF3E8
:100D00000080054600200C46102000BF0646A819AA
:100D1000A0420DD9324669460020AFF3008007009B
:100D200008BF00F001FB0098A04218BF0546C41997
:100D3000FFF7C7FF05600746F01D20F007004619C2
:100D4000284600F00AF8B44208BFF8BDA21B31469D
:100D50003868BDE8F84000F097BA00210160C0E9AA
:100D600001100C3017F092BD102070472DE9F047AC
:100D700005460C46C86820F4201040F48000C86086
:100D8000800602D5084600F034F9E06841F282019D
:100D90004FF0FF390140022903D0204600F0D2F87D
:100DA000B5E000F42041B1F5004F0FD1C00306D5E6
:100DB0006168E06A884200D80846606006E0206901
:100DC000E0626060606917F0C9FDA061A068002260
:100DD000EEB200280DDAE1688B050AD4C043A060AA
:100DE00041F490302260E0606068411C61600670F0
:100DF000A5E0E0689046226040F40050E060206981
:100E000068BB606917F0BEFD012704F12405A0B19D
:100E1000A08910F4407F08D0E069FFF7B7FA20619D
:100E200018B1E06840F4006016E0E7612561E06811
:100E300020F4407040F480600EE0E069FFF7A6FA0D
:100E400000282061F1D0E06840F4006010F4407F99
:100E5000E06002D140F48070E06020696060E0688A
:100E600025696FF0010AC1051FD56168E06A8842F3
:100E700000D80846411B04D02246284600F06CF8F2
:100E8000F0BBE068010203D5E562C4E9015854E013
:100E9000691CE1626160E16940F48030491EC4E987
:100EA000021030462E70BDE8F087010202D500F432
:100EB00080320AE06068411C61600670E0680A2EBA
:100EC00040F48030E06006D00022E16A6068814230
:100ED00003D90B4602E00122F7E70346A7895B1B13
:100EE0007F0503D4E7699F4200DDE2B1814200D86B
:100EF0000146E5620F1AC4E90158002B09DD00E044
:100F000005E022461946284600F026F808B1484672
:100F1000C9E747B1A069E5626560C01BA061E068F0
:100F200040F01000E060E068000208D56168A06948
:100F3000E562491B08446560A0615046B3E730464E
:100F4000B1E70000C16821F4001141F08001C160E7
:100F500000218160016070472DE9F0478146144609
:100F60000E464FF0FF383248D5685769054209D020
:100F70003846A16917F040FD002811DB2C48C0431A
:100F80000540E5602B4632464946384617F03AFDA3
:100F9000A16920F00042B21A11440028A16103D0D7
:100FA0002046FFF7CFFF4046BDE8F08770B5044606
:100FB0000569C06A6168884200D80846E16821F482
:100FC0002011E160C90312D5A84208D02246411B76
:100FD0002846FFF7C1FF10B14FF0FF3070BD002071
:100FE000E562C4E90150E06820F48030E060002050
:100FF00070BD10B50446C06820F02000E060A16A12
:10100000A06988420DD02046FFF7D0FFE06820F4A9
:10101000405040F01000E060A06AA0612069E062EA
:10102000606044F24001E0688843E06010BD000069
:10103000100002002DE9F04704461E4690460D467A
:10104000C7684C30814617F0F3FBB80714D078021C
:1010500012D44046B8F5807F09D0B0F5007F06D0A5
:10106000B8F5806F08D1012604F1240506E0701E52
:101070006FF07F41884201D3012409E02561E661D8
:101080006560E06820F4706040EA0800E0600024D9
:10109000484617F04DFC2046BDE8F08710B565487E
:1010A0005421FFF78EFD64485421FFF78AFD634801
:1010B0005421FFF786FD62485E49624A624B016037
:1010C0005D4810605D4A1A60431C0B65511C016548
:1010D0000120106557484C3017F0D8FB56484C306B
:1010E00017F0D4FB55484C3017F0D0FB574817F099
:1010F000CDFB58484F4A56A17844FFF795FB20B9DD
:10110000544878440A3800F008F954484A4A52A131
:101110007844FFF789FB20B9504878440A3800F03A
:10112000FCF84F48454A4CA17844FFF77DFB20B9B5
:101130004B4878440A3800F0F0F840233D48DC0082
:1011400000212246FFF776FF20B142487844543808
:1011500000F0E3F83848224640230021FFF76AFFF9
:1011600020B13E487844543800F0D7F8334822463E
:1011700010230021FFF75EFF002806D0384878448E
:10118000BDE81040563800F0C8B810BD2B482DE916
:10119000F041006D2D4E20F00104304617F048FB61
:1011A000244D4C35284617F043FB2248FFF7A9FA97
:1011B000284617F0BDFB284617F048FB1E4D4C355E
:1011C000284617F035FB1C48FFF79BFA284617F016
:1011D000AFFB284617F03AFB184D4C35284617F060
:1011E00027FB1648FFF78DFA284617F0A1FB284683
:1011F00017F02CFB14E0206D20F0010504F14C00E9
:10120000074617F015FB2046FFF77BFA384617F024
:101210008FFB384617F01AFB2046FFF7F2F82C46F2
:10122000002CE8D1304617F083FB084817F00EFB7E
:10123000BDE8F0813403002088030020DC03002097
:10124000E0000020E4000020E8000020EC00002086
:1012500072000000ACFF0300770000009BFF03005A
:1012600074FF030010B5002000F050F8AFF30080C9
:10127000BDE81040012017F06FBB801A0844401EE3
:10128000491E88431044704770B5144605468C4685
:101290004368002B18BF634538BF1846F8D302686F
:1012A0001044604508D06646604604220821FFF7D6
:1012B000E4FF811B8446641A2946CCF80040BDE84F
:1012C000704000220CF10400FFF76AB870B50446C4
:1012D0000D4D284617F0ACFA03E03FF06FFB401CC1
:1012E0000ED0094914F8010B4C390028F5D10A2019
:1012F0003FF064FB0446284617F01AFB204670BDF9
:101300004FF0FF34F7E70000D403002010B500F0E1
:101310001FF8BDE8104000F016B810B500F030F826
:10132000BDE8104000F00FB810B500F043F8BDE87C
:10133000104000F008B810B5FFF7C3FC0068BDE826
:10134000104000F05FB8002801D017F005BB7047CF
:1013500010B5002102A000F05AF8012010BD0000D5
:10136000534947414252543A2041626E6F726D6157
:101370006C207465726D696E6174696F6E00000037
:1013800010B5014602A000F042F8012010BD000097
:1013900053494752545245443A2052656469726534
:1013A00063743A2063616E2774206F70656E3A2013
:1013B0000000000010B5012805D0002103A000F0B6
:1013C00026F8012010BD09A1F8E700005349475253
:1013D000544D454D3A204F7574206F662068656105
:1013E00070206D656D6F7279000000003A204865CD
:1013F0006170206D656D6F727920636F72727570A8
:101400007465640010B50C3017F020FA10BD70B58B
:1014100005460C460A2000E06D1C17F0CBFB35B1E9
:1014200028780028F8D102E0641C17F0C3FB14B13F
:1014300020780028F8D1BDE870400A2017F0BABB28
:1014400083B080B583B0844605A840F2883E0EC0C4
:1014500005ABC2F2000E00206FF00041624602931D
:10146000CDF800E036F01AFA03B0BDE8804003B0D2
:101470007047000080B540F2000240F2000147F6DC
:101480003850C0F20002C0F20001C2F200009142E6
:1014900018BF08464FF60041C2F2000118BF1146BE
:1014A000FEF776FE80BD00000020704700207047E8
:1014B00000207047002070470020704700207047D0
:1014C000002070470020704780B582B04FF0000CBC
:1014D000CDF800C036F0E2F902B080BD43F2C01191
:1014E000C2F200010865704780B589B391F9020026
:1014F000B0F1FF3F08DDC0B260280ED343F2C01048
:10150000C2F20000806B17E043F2C010C2F200008C
:10151000026C002A08BF80BD0FE0402805D343F2CB
:10152000C010C2F20000C06B06E0202808D343F2CE
:10153000C010C2F20000406B82680846904780BD30
:1015400043F2C010C2F20000006B82680846904768
:1015500080BD000080B543F2C011C2F2000181F8E5
:10156000540041F2C00041F6E802C0F20400C0F2AB
:101570000402C1E90C00C1E90E2248F6657148F683
:101580001D72C0F20101C0F20102042004F0FCF857
:1015900048F64D61C0F20101002002F0FFF980BD64
:1015A0001B296FF00A0202D01D2918BF002280B546
:1015B00010440BF0FBFD80BD10B582B040F2D82185
:1015C000C2F20001096843F2C012C2F200028C8824
:1015D000D06403F007F90438A04207DA00240020A1
:1015E000772100220223009417F078FC02B010BD8E
:1015F00010B5013880B2002117F020FDD0B10446AB
:101600000068807800F01200102813D1092017F02C
:10161000CDFC002808BF10BD034620680122817858
:1016200001F0EF0181701E201872206801890420EA
:1016300003F0FEFF10BD0000B0B543F2C01CC2F2C3
:10164000000C43F218209CF854E0C2F20000002184
:101650000122C0F82C1180F8302100BF0CEB0112E0
:1016600001310023002400BFC518C2502C3385F877
:101670002840582B04F1010485F824E0A98385F85B
:101680002910F1D1032900F15800E7D141F2DC0023
:10169000C0F20400CCF83000B0BD0000B0B582B09C
:1016A00004460B200D4617F081FC70B10346032061
:1016B000188002201872280A5D7298720025204650
:1016C00000210122009518F067F802B0B0BD0000BB
:1016D00043F2182041F27411C2F20000C0F204017A
:1016E000C0F82C117047000010B504460BF028FE1E
:1016F00043F24C3CC2F2000CDCF8201169B1238AA1
:101700000A8A934202D2002208E000BF0A46096812
:1017100021B1088A8342F9D200E000220CF59070D2
:1017200021460BF0ADFD012018F068FC0BF024FE03
:1017300010BD000043F24C31C2F20001C1F830018B
:101740007047000080B518F0A1FA80BD2DE9F04186
:101750000C46064618F06CFA48B30546F4B143F25D
:101760008448C2F2000898F8140000B300270AE089
:10177000013798F81410F8B20234884205F10205D6
:1017800028BFBDE8F081208828802388002BEFD077
:10179000F9B23046002218F061FAE9E743F28440DA
:1017A000C2F20000007D41002846FFF7E8F9BDE8DD
:1017B000F081000043F28443C2F200031875C3E9CC
:1017C000031243F24C3049F6C541C2F20000C0F2A8
:1017D0000101C0F83411704743F29C41C2F200018C
:1017E00001EB400010F8010C70470000012A88BF8F
:1017F000704780B543F29C43C2F2000303EB400004
:10180000831E08461946FFF7B4F8BDE880407047CC
:1018100040B143F29C42C2F2000202EB400000F8E9
:10182000011C10E043F29C4C6FF00100C2F2000C6E
:101830000CEB0003DA780230022A0A4608BF0122C4
:101840000428DA70F4D1704780B519F0FDFF006804
:1018500080BD000080B543F2C010C2F2000043F228
:101860004C3C90F854E0C2F2000C0022634600BFEA
:1018700001326FF01F0100BF58182C31382980F851
:101880002CE08284F8D1032A03F15803F0D141F20D
:101890008C10C0F20400CCF8280180BD80B543F262
:1018A0004C31C2F2000141F2C00248F6D56343F266
:1018B000C01C0020C0F20402C0F20103A1F12C0EF2
:1018C000C2F2000CC1E94800C1E94A230CEB001345
:1018D00001300022714600BF81F851200132CB63F4
:1018E00081F85000022A01F12C01F5D103280EF1F4
:1018F000580EEBD141F27C10C0F20400CCF8340059
:1019000080BD000010B504460BF01AFD43F24C30C8
:10191000C2F20000D0F8201171B10A8AA24201D1AE
:10192000002205E00A46096831B10B8AA342F9D1C9
:1019300000F590700BF0D2FC012018F05FFB0BF06B
:101940001BFD10BD70B582B015460C4606460BF067
:10195000F7FC01A9304618F069FC28B106468089D9
:10196000A04203D20D240CE00A240AE07068294644
:101970002246FEF7FEFFB07B000744BFB06804803C
:1019800000240BF0F9FC204602B070BDB0B514463F
:101990000D4619F059FF45600473B0BD10B50C46F3
:1019A00019F052FF046010BD43F2AC40C2F20000D7
:1019B0000021C0E90C1143F24C304BF65901C2F240
:1019C0000000C0F20101C0F82C1140F26C104BF283
:1019D000F941C2F20000C0F2010141647047000009
:1019E00047F2B431C2F2000109688968814228BF18
:1019F00070476FEA5102824201F101029CBF10441C
:101A0000704749081144814228BF801A704700007E
:101A100080B54DF271614DF29D42C0F20101C0F2FC
:101A2000010203201AF0F4F943F2E440C2F200008C
:101A30000021C0E90011C0E90211C0E90411C0E9A8
:101A4000061180BD80B54DF2C161C0F201010720D1
:101A500000221AF0DDF94DF29D71C0F2010108205B
:101A600000221AF0D5F943F20C60C2F200002421E2
:101A7000FFF7A7F880BD000080B54CF20D71C0F2F1
:101A80000101062000221AF0C3F943F23060C2F2CD
:101A900000003421FFF795F880BD000080B54CF2BE
:101AA00071714CF24552C0F20101C0F201020420F2
:101AB0001AF0AEF943F2B870C2F200000021C0E99A
:101AC0000011C0E90211C0E90411816180BD00006C
:101AD00080B54DF249714DF2A542C0F20101C0F24C
:101AE000010205201AF094F943F2B870C2F2000026
:101AF0000021C0E90011C0E90211C0E904118161AF
:101B000080BD00002DE9F04182B041F20015C4F221
:101B10000005D5F80402C00728D0286830B300209B
:101B2000286028684FF20450C4F201004FF480414D
:101B3000416047F62030C2F200000178012906D149
:101B400041F25051C4F2000109680A2909D0017814
:101B500002297AD141F25051C4F2000109680229E8
:101B600073D138F04FFD02B0BDE8F081D5F8040222
:101B7000400749D5A868002846D00020A86048F250
:101B80004416A868C4F200064FF4003048F24054EE
:101B9000C6F8C4010820C4F2000416F02BFC022091
:101BA000C5F8000143F60C30C2F2000001780129AB
:101BB00040F0F28043F60672C2F200021378032B63
:101BC00040F0B68043F6A640C2F20000007818212B
:101BD000022808BF0C210128A06808BF182108446A
:101BE00000F16A014FF204522160A5F1FC01C4F238
:101BF0000102C2F880104FF48041C930116060606A
:101C0000002030603068EBE0D5F80402000740F1B6
:101C10001481E868002800F010810020E86043F695
:101C20000676E868C2F20006307803282DD102203B
:101C3000307038F01DFD43F6A040C2F2000001688C
:101C40000020884702B0BDE8F08143F60671C2F279
:101C500000010A78032A18BF02780978042903D002
:101C60000178022940F0F78000226A6048F24411AE
:101C70006A68C4F200014FF40032C1F8C0210A685A
:101C8000002A1CBF01220A60E5E03078042840F0F9
:101C9000D48043F6AC40C2F20000006848F24051E4
:101CA00043F64842C4F20001C2F20002407889685B
:101CB00012783823022A18BF032200FA02F041F2F8
:101CC000505708BF20231844C4F20007081A57F8D9
:101CD000084CA0F1090809F075F904F07F010844E7
:101CE0000221317043F64941C2F200010E7847F6F5
:101CF0002131C2F20001097843F6A742C2F2000284
:101D0000002908BF3146117043F64442C2F2000276
:101D1000D5F8001315684FF6BC62CFF6FF72BA58BB
:101D2000C907C0F1000041B240F09A80042098E059
:101D3000012931D11278042A2ED143F64840C2F24B
:101D40000000007843F6A6420146C2F200020228D3
:101D500018BF6FF0010192F800C043F6A842A368D3
:101D6000C2F2000292F900E07D22022808BF71222F
:101D7000D0180844BCF1020F08BF013070444FF284
:101D800004512060A5F58070C4F20101C1F8800003
:101D90004FF48040086041E0022945D143F60672C5
:101DA000C2F200021378042B20D1D0E901104FF2C7
:101DB000045233392160A5F1FC01C4F20102C2F8DA
:101DC00080104FF4804111602168002801F17D01ED
:101DD00061604FF000013160316818BF38F04AFB94
:101DE00047F62030C2F2000002211CE002291BD17C
:101DF0001178032918D1D0E901104FF20452283983
:101E00002160A5F58071C4F20102C2F880104FF480
:101E100080410028116018BF38F02CFB47F62030B5
:101E2000C2F2000001210170012046F8F80C206880
:101E3000E168401AB0F1FF3F02DD02B0BDE8F08179
:101E40004FF20450C4F201004FF48041416047F664
:101E50002030C2F200000021017002B0BDE8F08124
:101E6000002043460096A84702B0BDE8F08100007C
:101E700080B582B048F20830C4F200004FF400315F
:101E8000016041F20410C4F20000006808B102B021
:101E900080BD38F0B7FB43F64440C2F20000D0F8F2
:101EA00000C04FF0000E0320002100220023CDF8D7
:101EB00000E0E04702B080BD2DE9F04F87B0064654
:101EC0008A460888317CC840C00762D043F2FC6172
:101ED000C2F200014888984601304880D6E90001E6
:101EE000994649F8080FD960C8E90001B07C1D4641
:101EF000DAF8041005F8130F14469874C1F3801033
:101F000011462A464B4619F0F5FE02284FF0000B09
:101F100000F0BD800694012808BF4FF0010BDAF8ED
:101F20000400DAE904742978D9E90023CDE90274C0
:101F3000C0F3C0070097C0F3800019F07BFEBAF829
:101F40000210327C074621FA02F02978D9E90023F1
:101F500000F0010019F032FF874224D9DAF80400BA
:101F6000DAE904742978D9E90023CDE90274C0F3D1
:101F7000C0070097C0F3800019F05CFE00B3012891
:101F800024D0022824D1BBF1000F21D04FF0000B48
:101F90007DE043F2FC60C2F2000001884FF0000BCC
:101FA0000131018073E0BAF80200317CD9E90023E5
:101FB000C840297800F0010019F000FF0028DED1A8
:101FC000BBF1000F08BF4FF0010B01E04FF0010B18
:101FD000707C0121800788F814B088F8151002D4AD
:101FE0004FF0010B53E0F77CD6E90264DAF8040005
:101FF0002978D9E90023CDE90423CDE900640291D1
:10200000C0F3001006993A4619F036FE83460128BF
:1020100006D0BBF1020F05D100204FF0000B32E0DB
:10202000002030E00AF1040207CACDE90212C0F331
:10203000400500F00100394632462346009519F06C
:10204000D7FD022812D14FF0000067B104F44041DF
:1020500091F4804F4FF0000B15D19AF804008006E0
:102060004FF0000004D44FF0000B0CE001200AE018
:1020700043F2FC62C2F20002118C4FF0010B0131FD
:10208000118488F81500002818BF4FF0010B5FFA83
:102090008BF007B0BDE8F08F70B582B008F0E6FBBA
:1020A0004BF675354BF6E1244BF65576C0F201053B
:1020B000C0F201044BF62173C0F20106C0F2010325
:1020C000012029462246009601F042F84BF6317372
:1020D000C0F20103022029462246009601F038F89A
:1020E0004BF65D764BF64173C0F20106C0F2010378
:1020F000032000212246009601F02AF84BF6E93130
:10210000C0F20101012001F033F843F26460C2F231
:1021100000009821FEF755FD02B070BDB0B543F246
:10212000227CC2F2000C00258CF8005043F2237C84
:102130008C07C2F2000C0C468CF8005001F1040E22
:1021400018BF2EF0030404EB0013591A47F2A8330A
:10215000C2F2000391421C609CBF8CF800000D4647
:10216000A8B2B0BDB0B543F2287CC2F2000C002585
:102170008CF8005043F2297C8C07C2F2000C0C460C
:1021800000EBC0038CF8005001F1040E18BF2EF0D4
:10219000030404EBC303591A47F2AC33C2F2000341
:1021A00091421C609CBF8CF800000D46A8B2B0BDE7
:1021B00010B543F22B7CC2F2000C4FF0000E43F23C
:1021C0002A738CF800E043F22C7CC2F200038C07E7
:1021D000C2F2000C83F800E001F104030C468CF815
:1021E00000E018BF23F0030404EBC003591A47F2C0
:1021F000B033C2F2000391421C609CBF8CF8000017
:102200008E461FFA8EF010BD2DE9F04F8BB00746B9
:1022100000788A4600F00F080888012101FA08F9C1
:1022200019EA000F0DD0144643F2FC62C2F200021C
:1022300051887878013119F4C07F51800AD0012685
:10224000EDE043F2FC60C2F200000188002601319B
:102250000180E4E000F03F0083F8108058743846B5
:1022600010F8021B1D46C1F3801601F011F82B4631
:1022700043F8080FE960C5E90001DAF804002A46CE
:1022800002F8136FAE74C0F3801021460A929B4689
:1022900019F030FD02284FF0000600F0C080CDE9B3
:1022A0000745012808BF01260A9DDAF80400DAE98B
:1022B000044C2978DBE90023CDE9024CC0F3C004CB
:1022C0000094C0F3800019F0B5FCBAF80210CDF804
:1022D00024B0044619EA01002978DBE9002318BF7D
:1022E000012019F06BFD844215D9DDF828B0DDF826
:1022F0002490DAF80400DAE9044C9BF80010D9E9DC
:102300000023CDE9024CC0F3C0040094C0F3800068
:1023100019F090FC0FE0BAF80200DDF828B010EADE
:102320000900DDF824909BF80010D9E9002318BFBC
:10233000012019F043FD089D30B1012808D0022882
:1023400007D136B100266AE0002E08BF012600E062
:1023500001260120B8F1050F2E75687526D800FA00
:1023600008F010F02A0F21D017F8088B38464FEAF2
:10237000D81400F08DFF0746DAF804009BF800201F
:10238000D9E900368946CDE90436CDE900710292DB
:10239000C0F300100799224619F06EFC064601288A
:1023A00006D0022E06D10020002635E0012636E0B8
:1023B000002031E00AF1040207CACDE90212C0F39D
:1023C000400600F0010021463A464B46009619F0BF
:1023D0000FFC022815D14FFA88F0B0F1FF3F4FF003
:1023E00000000CDC09F4404191F4804F4FF00006EE
:1023F00012D19AF8040080064FF0000003D40026A2
:102400000AE0012008E043F2FC62C2F20002118CF3
:102410000126013111846875002818BF0126F0B229
:102420000BB0BDE8F08F0000B0B546F28832C2F2C2
:10243000000292F8EBC081F800C092F8EAE092F84E
:10244000EB30734508D1D2E936E3D2E93854634022
:1024500085EA0E052B4302D04CF002030B70D2E943
:102460003812C0E90012B0BDB0B590F813C082F8C0
:1024700000C090F812E0C37C734508D1D0E900E3B6
:10248000D0E90254634085EA0E052B4302D04CF09C
:1024900002031370D0E90202C1E90002B0BD0000DE
:1024A000B0B590F813C082F800C090F812E0C37C79
:1024B000734508D1D0E900E3D0E90254634085EACE
:1024C0000E052B4302D04CF002031370D0E9020238
:1024D000C1E90002B0BD0000B0B545F20872C2F219
:1024E000000292F86BC181F800C092F86AE192F89C
:1024F0006B31734508D1D2E956E3D2E958546340B1
:1025000085EA0E052B4302D04CF002030B70D2E992
:102510005812C0E90012B0BDB0B590F813C082F8EF
:1025200000C090F812E0C37C734508D1D0E900E305
:10253000D0E90254634085EA0E052B4302D04CF0EB
:1025400002031370D0E90202C1E90002B0BD00002D
:10255000B0B590F813C082F800C090F812E0C37CC8
:10256000734508D1D0E900E3D0E90254634085EA1D
:102570000E052B4302D04CF002031370D0E9020287
:10258000C1E90002B0BD0000B0B590F813C082F8F8
:1025900000C090F812E0C37C734508D1D0E900E395
:1025A000D0E90254634085EA0E052B4302D04CF07B
:1025B00002031370D0E90202C1E90002B0BD0000BD
:1025C00080B546F28831C2F2000191F8EA2091F814
:1025D000EB3093424FF00002C0E900220AD1D1E96A
:1025E00036CED1E9383282EA0E0283EA0C031A436E
:1025F00008BF80BDD1E93612C0E9001280BD0000DD
:1026000080B5827CC37C93424FF00002C1E9002276
:102610000AD1D0E900CED0E9023282EA0E0283EA82
:102620000C031A4308BF80BDD0E90002C1E90002D3
:1026300080BD000080B5827CC37C93424FF00002D5
:10264000C1E900220AD1D0E900CED0E9023282EA03
:102650000E0283EA0C031A4308BF80BDD0E90002D2
:10266000C1E9000280BD000080B545F20871C2F2E8
:10267000000191F86A2191F86B3193424FF000020A
:10268000C0E900220AD1D1E956CED1E9583282EA16
:102690000E0283EA0C031A4308BF80BDD1E956122B
:1026A000C0E9001280BD000080B54CF2BD71C0F2DF
:1026B00001010920002219F0ABFB43F61C40C2F2D5
:1026C00000002421FEF77DFA80BD000070B543F2C2
:1026D000227C43F22371C2F2000CC2F200019CF88A
:1026E00000E009788E4524BF002070BD47F2A83174
:1026F000C2F200010968049C01EB0E1528720EF16C
:1027000001004FEA0E166C728CF8000001208A510D
:102710006B6070BD70B543F22271C2F200010C789B
:10272000FCB147F2A834C2F200042468DDF810C0FE
:1027300091F800E004F10801002404E0013474453C
:1027400001F110010DD20D788542F7D151E9025601
:102750005E4055403543F1D14D786545EED10120BD
:1027600070BD002070BD000043F22270C2F2000074
:10277000002101707047000043F22370C2F2000094
:10278000007870472DE9F04343F2227CC2F2000C3E
:102790009CF80010A9B347F2A837C2F20007D7F897
:1027A00000E0DDF81C809CF800900EF10804002584
:1027B00005E000BF013510344D45494621D2267849
:1027C0008642F7D154E902675F4056403E43F1D15B
:1027D00066784645EED1C8B202280CD3013885424E
:1027E00009D00EEB00121389000123805EF800006F
:1027F000526844E90202481E8CF800000120BDE83E
:10280000F0830020BDE8F083F0B581B01E46154688
:10281000074619F0BDF90446B0B943F2287043F2F7
:102820002972C2F20000C2F20002017812789142CD
:1028300056D247F2AC32C2F20002126801EBC10379
:1028400002EBC30401310170002C4CD0DDE906100D
:1028500046EA0742C4E908520A684B688F68C968AB
:102860002260E16001216360A76084F840100021CC
:10287000625C22B90E2901F10101F9D902E00021BF
:1028800084F84010016842688368C768204640F8B1
:10289000101F0121C7608360426080F83110002161
:1028A0006218127C22B90E2901F10101F8D902E067
:1028B000002184F8411094F8411000294FF00001E4
:1028C000A4F84210C4E90A11C4E90C11C4E90E11BC
:1028D00003D119F0A9FBC4E90C01012001B0F0BD3E
:1028E0000024002CB2D1002001B0F0BD2DE9F04150
:1028F00082B0DDE908781446064610463A4643465B
:102900000D4619F045F920B190F8411019B1002495
:1029100023E0002421E0D0E90E0169407040084323
:1029200001D1012419E043F22470C2F20000D0F872
:1029300000C0BCF1000F0FD043F2FC60C2F20000F7
:10294000818C002201318184304629462346CDE91D
:1029500000780024E04700E00024204602B0BDE8F3
:10296000F0810000F0B583B043F22876C2F2000691
:1029700035786DB347F2AC35C2F200052D6896F894
:1029800000C005F1200400254FF0000E08E04FF0D4
:10299000010E0126CEB10135654504F1480419D276
:1029A00094F82060002EF4D1D4E902674F404640ED
:1029B0003E43ECD1A67906F0010616702668A7887A
:1029C000C3E900670026002EE5D14FF0010C1EE0A0
:1029D0004FF0000EBEF1000F4FF0000C17D043F285
:1029E0002477C2F200073D688DB143F2FC67C2F262
:1029F00000077E8C01367E8492F800C0D3E9002760
:102A00006346009201220197A8474FF0000C6046F0
:102A100003B0F0BD43F22870C2F200000021017043
:102A200070470000B0B519F0B3F818B1044690F83B
:102A3000400008B10020B0BD94F84200049D38B9B0
:102A4000204619F0F1FAC4E90A01012084F8420095
:102A5000D4E90A01C5E900010120B0BD80B519F033
:102A600097F828B1029990F843000870012080BDC2
:102A7000002080BD43F22970C2F200000078704748
:102A80002DE9F04381B043F22878C2F2000898F8AB
:102A9000000050B347F2AC390026C2F2000901250C
:102AA000002708E084F8445098F800000137874276
:102AB00006F1480619D2D9F80000841994F84100AB
:102AC00028B904F1100019F0AFFAC4E90C0194F828
:102AD00040000028E6D194F842000028E2D02046C9
:102AE00019F0A2FAC4E90A01DCE701B0BDE8F083FD
:102AF00070B51446DDE90423054620460E4619F05C
:102B000047F810B190F8411009B1002070BDD0E92C
:102B10000E0171406840084304BF012070BD0020D1
:102B200070BD000080B519F033F8014600284FF061
:102B3000000008BF80BD91F8442081F84400104691
:102B400080BD000080B519F023F860B1D0E90C1207
:102B500011431CBF032080BD90F8411001200029C3
:102B600008BF022080BD002080BD000080B519F0A4
:102B70000FF860B1D0E90A1211431CBF032080BDD9
:102B800090F840100120002908BF022080BD0020DD
:102B900080BD000080B518F0FBFF00281CBFD0E905
:102BA0000C0150EA010201D1002080BD029AC2E965
:102BB0000001012080BD000080B518F0E9FF002869
:102BC0001CBFD0E90A0150EA010201D1002080BDFA
:102BD000029AC2E90001012080BD0000B0B518F0E2
:102BE000D7FFB8B143F22874C2F200042578022D51
:102BF0000CD347F2AC31C2F20001096805EBC50203
:102C000001EBC20148394822FDF73AFF681E2070E7
:102C10000120B0BD0020B0BD2DE9F0410C46117877
:102C2000D3E900230546084618F0B2FF43F2FC68DA
:102C3000C2F2000808F1140728B1064690F84100D6
:102C400018B1002018E0002016E0D6E90E0161401E
:102C50006840084304BF0120BDE8F08106F1100080
:102C60002A4623461AF0DEFE00280FBF0020C6E9E0
:102C70000E5408F116070120398801313980BDE86A
:102C8000F08100002DE9F04F81B043F22875C2F2C7
:102C900000050F462978002953D047F2AC369A46F2
:102CA0008346C2F200064FF000094FF0000800BF53
:102CB000306800EB090494F8400018B1002080B39C
:102CC0004AE000BFD4E90A01794080EA0B000843DA
:102CD00019D02E46154620465A463B461AF0A2FE0B
:102CE00038B343F2FC61C4E90AB7C2F20001488A72
:102CF000002284F842202A46354647F2AC3601309D
:102D0000C2F20006488294F8260000F0010010701C
:102D1000206AA18CCAE900010120002808BF002018
:102D2000D0B9287808F10108804509F14809BFD3D6
:102D300007E02A46354647F2AC360020C2F20006CC
:102D4000EBE743F2FC61C2F20001088A013008821D
:102D5000002001B0BDE8F08F012001B0BDE8F08F88
:102D600043F22471C2F200010860704780B518F088
:102D70000FFF00280FBF0020029980F843100120A8
:102D800080BD000080B518F003FF30B10299D1E991
:102D90000012C0E90C12012080BD002080BD00009F
:102DA00070B543F26466C2F200060C460546C6F8EA
:102DB0008C00A6F8881000F085F9806A0078052854
:102DC0000AD196F87000002818BF70BD19F072F88B
:102DD0002846214607F0A8FD70BD000080B54CF6DE
:102DE00019014CF27552C0F20101C0F20102022039
:102DF00019F00EF843F65040C2F200002821FDF70A
:102E0000E0FE80BDB0B54DF6CD044DF67501C0F2C3
:102E10000104C0F2010100202246002518F0F8FF4D
:102E20004DF62501C0F201010120224618F0F0FF05
:102E300043F67840C2F20000C0E90055C0E90255EF
:102E4000C0E904558561B0BD2DE9F0410C46054649
:102E500000F038F9806A007804280ED143F26460EB
:102E6000C2F2000090F8700038B919F023F8284633
:102E7000214607F039FEBDE8F08143F2B878C2F28E
:102E80000008B8F8166007F0B5FE43F60837C2F23E
:102E900000073968401AB04202D2B8F8160003E0C1
:102EA00007F0A8FE3968401AA8F8160019F002F8D1
:102EB0002846214607F062FEBDE8F08170B51D4648
:102EC0001446064600F02AF808B1012070BD43F20E
:102ED0002B7043F22C72C2F20000C2F200020178A1
:102EE0001278914224BF002070BD47F2B032C2F286
:102EF0000002126845EA064302EBC10642F831407F
:102F0000013173600170012070BD000043F22A702E
:102F1000C2F20000012101707047000010B543F2B9
:102F20002B7EC2F2000E9EF80010B1B143EA004CB5
:102F300047F2B030C2F2000001689EF800E00020C5
:102F400001EBC00351F830405B68544083EA0C0346
:102F5000234304D001307045F2D3002010BD01207E
:102F600010BD000043F22B70C2F20000002101707E
:102F700043F22A70C2F200000170704743F22C70D5
:102F8000C2F200000078704743F22A70C2F20000DB
:102F900000787047F0B543F22B7CC2F2000C9CF82D
:102FA0000010C9B143EA004E47F2B030C2F200004F
:102FB00000689CF800300024E6B200EBC60550F82B
:102FC00036606F68564087EA0E073E4306D00134EC
:102FD000E1B299421946EFD30020F0BDCAB2022AED
:102FE00005D300EBC20050E90202C5E90002481E09
:102FF0008CF800000120F0BD43F22A70C2F20000FC
:10300000002101707047000010B543F23074C2F225
:1030100000042068002808BF10BD417D01EB41017C
:1030200004EBC101C968002918BF8847002020604F
:1030300010BD0000B0B543F23075C2F20005044681
:10304000286095F881000021002885F8821008BFCB
:1030500007F0C8FD95F8810030B195F88000617DDA
:10306000814218BF19F004FF95F8810010B9607D06
:1030700019F0E8FE607D00EB400005EBC0008168C0
:1030800009B12046884795F8820000281CBF00201F
:103090002860B0BD47F2B430C2F20000006880681A
:1030A0007047000043F23070C2F2000090F88200D6
:1030B0007047000047F2B430C2F200000068008898
:1030C0007047000043F23070C2F2000000687047A1
:1030D00047F2B430C2F200000068C08870470000B8
:1030E000B0B50D46FEF77CFC04462846FEF778FC9A
:1030F00047F2B431C2F20001844207D90968201AAC
:103100008968B0EB510F88BF0020B0BD0968001B73
:103110008968B0EB510F92BF0020081A0130B0BD92
:1031200080B507F089FD43F23070C2F200008421BF
:10313000FDF747FD80BD000047F2B431C2F2000147
:103140000860704743F23071C2F200014860704776
:1031500080B500EB400E43F23070C2F2000000EB8D
:10316000CE000830DDF808C080E80E1080BD0000F9
:1031700043F2307200EB4000C2F2000202EBC000EA
:103180008161704743F23070C2F20000016800298B
:103190001CBF012180F8821070470000B0B543F2D7
:1031A0003075C2F2000595F88110044621B907F088
:1031B00019FD204619F046FE04EB440005EBC00063
:1031C000C1690131C161B0BD80B543F2307100EB1E
:1031D0004002C2F2000101EBC202D369013BD3619C
:1031E0000BD191F8812042B191F88010814218BF33
:1031F00080BD19F03DFE07F0EBFC80BD10B543F239
:103200003074C2F20004206840B1407D00EB400001
:1032100004EBC0008069002818BF80470020616867
:103220002060012084F88200884710BD110A417097
:10323000110C4FEA132C8170110E0270C1700371D2
:1032400080F805C0704700000022014682800630E9
:103250000A60704780B50622FDF740FBB0FA80F0A7
:10326000400980BD8A88828009680160704700003B
:1032700080B582B00021ADF80410009169460622A5
:10328000FDF72CFBB0FA80F0400902B080BD0000D1
:10329000026881881046704702684168104670478E
:1032A00043F60730C2F200000078002808BF7047DC
:1032B0004FF20830C4F200000121016043F2F570C2
:1032C000C2F200004178FF2906D043F6A441C2F2C1
:1032D0000001097841707047FEE70000D1F800C096
:1032E0004B68CA688968C26081604360C0F800C0EA
:1032F000704700004A68096842600160704700003A
:1033000001390138102200BF11F801CF10F8013F38
:10331000013A8CEA030C130680F800C0F4D1704720
:1033200080B581B141F2C01C013AC0F2040C00BF6B
:1033300012F801EFC3B283EA0E035CF823300139BF
:1033400083EA1020F4D1C04380BD00002DE9F04F86
:1033500083B043F6B04BC2F2000BDBF8040010B1AF
:1033600003B0BDE8F08F9BF8095000260DF10B0863
:103370000DF102090DF1040A002403E0032C04F10D
:103380000104EDD2E8B201358DF80B60022888BF48
:103390000025EFB2780050FA85F00BEB8000436A0D
:1033A0000196002BADF80260E8D0404649465246EF
:1033B00098470028E2D001999DF80B00CBF8041043
:1033C0008BF808008BF809501AF08AFB9DF80B1057
:1033D000BDF80220019B38461AF0C6FB03B0BDE8D9
:1033E000F08F0000F0B581B043F6B047C2F200079D
:1033F0000D460646384668211446FDF7E2FB28468E
:1034000021463E70BD81FC8100F03EF801B0F0BD68
:1034100080B543F6B040C2F200004068002818BFF3
:1034200080BD0020FFF792FF80BD0000032888BF09
:10343000704700EB400C43F6B040C2F2000000EBD6
:103440008C001C300EC0704743F6B041C2F2000140
:10345000886170474EF60450CEF200004FF00061D4
:1034600001607047B0B582B08DF807100DF107000C
:1034700001211C4615460FF079F8204629460FF029
:1034800075F8284602B0B0BD7047000010B514466C
:1034900001294FF0000206D0052903D0022907D1E7
:1034A000012200E0032211461A461AF02BFB2246A5
:1034B000104610BD0139C9B2022984BF00207047EF
:1034C00080B54FEAC10C40F20241C0F2050121FA79
:1034D0000CF1C9B2FFF7C6FF80BD000080B5042023
:1034E00009F03EFE002808BF80BD014643F6645047
:1034F000C2F20000007B05228A7009F065FE80BDE3
:103500002DE9F04107460E20984616460C4609F074
:1035100027FE002808BFBDE8F08105460020A870FE
:10352000E81D41466C712F71AE71FFF79BFE43F6AB
:103530006450C2F20000007B294609F045FEBDE858
:10354000F081000070B514460D46064609F0F8FEFD
:1035500043F66C61C6EBC600C2F2000101EB40000D
:10356000C570047109F008FF70BD000080B509F056
:10357000E7FE40F2B81041F2EC61C2F20000C0F286
:10358000040101601AF0AEFF43F66860C2F2000069
:1035900000210160002001F0A9FF09F0EDFE80BDCF
:1035A000B0B50C46054609F0CBFE43F66C61C5EBA1
:1035B000C500C2F2000101EB4000847009F0DCFE9E
:1035C000B0BD0000B0B50C46054609F0B9FE43F6A3
:1035D0006C61C5EBC500C2F2000101EB4000047252
:1035E00009F0CAFEB0BD000010B5044609F0A8FEFF
:1035F00043F66450C2F20000847309F0BDFE10BDB2
:10360000B0B50C46054609F09BFE43F62050C2F2C9
:1036100000002844C47709F0AFFEB0BD2DE9F041A9
:10362000064603F108001C4690460F4609F098FD37
:10363000002808BFBDE8F081054606990120A87062
:1036400005F1080022462E716F7185F80680EC7135
:10365000FDF78FF943F66450C2F20000007B294663
:1036600009F0B2FDBDE8F081B0B50C46054609F0A1
:1036700067FE43F66C61C5EBC500C2F2000101EBC9
:103680004000447209F078FEB0BD000070B51446E9
:103690000D46064609F054FE43F62050C2F20000E3
:1036A00000EB46000582C48209F066FE70BD000092
:1036B000F0B581B01C4615460E46074609F040FE9F
:1036C00043F66C61C7EBC700C2F2000101EB40009A
:1036D00046718571C47109F04FFE01B0F0BD000064
:1036E00070B506460C200D4609F03AFD002808BFCB
:1036F00070BD04460620A070601D29462671FFF7A4
:10370000B1FD43F66450C2F20000007B214609F08F
:103710005BFD70BD2DE9F041074612209846154625
:103720000E4609F01DFD002808BFBDE8F0810146E6
:10373000022088700F717FB1002000BF325C0B182F
:103740005A7135F8102001EB4004228118F800204E
:10375000013087429A73F1D143F66450C2F20000FF
:10376000007B09F031FDBDE8F0810000B0B50446F2
:1037700008200D4609F0F4FC002808BFB0BD014642
:10378000032088700C713CB1081D6A1E12F8013FBD
:10379000013C00F8013FF9D143F66450C2F2000049
:1037A000007B09F011FDB0BDB0B50C46054609F02F
:1037B000C7FD43F66C61C5EBC500C2F2000101EB29
:1037C0004000447009F0D8FDB0BD0000B0B586B02F
:1037D00094460A46DDE90A1E0C9C0125CDE900311C
:1037E00000216346CDF808E0049503941BF014FA19
:1037F00006B0B0BD10B5044609F0A2FD43F68851ED
:1038000004EB4400C2F2000101EB001030F8224C3E
:1038100009F0B2FD204610BD70B5044624201546BF
:103820000E4609F09DFC002808BF70BD0146192016
:10383000887043F66450C2F20000007B0E800D7168
:10384000CD704C7109F0C0FC70BD000043F688518A
:10385000C2F200010C31032207E000BF013A130657
:1038600001F1300104BF002070478B7A002BF5D0A6
:103870000B888342F2D108797047000043F68851E3
:1038800000EB4000C2F2000101EB001010F81A0C2E
:103890007047000080B509F053FD40F2B81041F2C6
:1038A0004C7141F2F862C2F20000C0F20401C0F2B1
:1038B0000402C0E9031241F2C871C0F2040181633D
:1038C00043F67C5041F20471C2F20000C0F20401E0
:1038D000016043F65C6041F2B471C2F20000C0F2D4
:1038E0000401016009F048FD80BD000043F68851E5
:1038F00000EB4000C2F2000101EB00102A387047D3
:1039000043F6885100EB4000C2F2000101EB0010C9
:1039100010F81C0C7047000043F6885100EB400083
:10392000C2F2000101EB00101638704780B509F0B3
:1039300007FD43F67C5041F22471C2F20000C0F250
:103940000401416043F65C6041F2B871C2F20000CC
:10395000C0F20401416009F00FFD80BD43F68851BB
:1039600000EB4000C2F2000101EB0010303870475C
:1039700043F6885100EB4000C2F2000101EB001059
:1039800010F81D0C7047000043F6885100EB400012
:10399000C2F2000101EB001010387047B0B50C46C0
:1039A000054609F0CDFC43F68850C2F2000000EB5A
:1039B0008500C0F8904009F0DFFCB0BD43F68851A7
:1039C00000EB4000C2F2000101EB001010F8170CF0
:1039D0007047000043F6885100EB4000C2F200013E
:1039E00001EB001010F8190C7047000070B5164676
:1039F0000C46054609F0A4FC2846FFF73FFF68B1D6
:103A000043F6885105EB4500C2F2000101EB0010BE
:103A10003EB130F8221C214320F8221C09F0ACFCF6
:103A200070BD30F8221CA14320F8221C09F0A4FC30
:103A300070BD000080B509F083FC43F67C5041F274
:103A40003C71C2F20000C0F20401816043F65C6088
:103A500041F2C071C2F20000C0F20401816009F0BD
:103A60008BFC80BD80B5042009F07AFB002808BFDC
:103A700080BD014643F66450C2F20000007B38224C
:103A80008A7009F0A1FB80BD80B51BF075FB80BD7D
:103A900080B50A46014600201BF06EFB80BD000089
:103AA00010B5044643F66450C2F200002146FFF709
:103AB000D9FB204601F09AFB10BD000080B509F04B
:103AC0003FFC40F2B81041F2E061C2F20000C0F2E7
:103AD0000401016041F64401C0F2040181621BF05F
:103AE00027FE1CF0A9F943F6686044F6C161C2F2F2
:103AF0000000C0F200010160002001F0EBFC4FF477
:103B000040500021012201F0C7FC09F035FC80BDC6
:103B100080B509F015FC43F67C5041F21C71C2F2ED
:103B20000000C0F20401416043F65C6041F2B871EC
:103B3000C2F20000C0F20401416009F01DFC80BD2A
:103B400080B509F0FDFB43F67C5041F22C71C2F2C6
:103B50000000C0F20401816043F65C6041F2C07174
:103B6000C2F20000C0F20401816009F005FC80BDD2
:103B700080B509F0E5FB40F2B81041F67401C2F2DD
:103B80000000C0F2040181601CF07AFC1CF04EFEC3
:103B900009F0F2FB80BD000010B5D1B192F800E051
:103BA0004FF0000CBEF1000F11D08BB273450ED94F
:103BB000144614F8013F9446834208D06FEA0E027F
:103BC00011440A0404EB0E02E8D14FF0000C6046E9
:103BD00010BD002010BD000080B599B143F66450BF
:103BE000C2F20000007C002818BF80BD88787C22CB
:103BF00002EA500040F2B812C2F200021058826885
:103C00000846904780BD000080B543F66451C2F27B
:103C1000000108730020C87508744FF6AD40C0F26B
:103C2000010000F0BBFD80BD43F66451C2F200010B
:103C3000C97D002908BF7047022804BF00207047D3
:103C4000032808BF0120704780B5014603201CF0FF
:103C500047F880BD80B582B0ADF8041043F68851B6
:103C6000C2F20001D1F89C107622ADF80600684639
:103C7000ADF80220884702B080BD000010B582B0C8
:103C80000C461AF0E9FE38B173218DF8021069462E
:103C9000ADF804401BF09AF902B010BDB0B584B085
:103CA0000546084614461AF0D7FE40B172218DF839
:103CB000061001A902948DF80C501BF087F904B08E
:103CC000B0BD000043F66451C2F20001C97D002975
:103CD00008BF7047002804BF02207047012808BFB2
:103CE0000320704710B50446062009F039FA002871
:103CF00008BF10BD01465220887043F66450C2F2DE
:103D00000000007B0C7109F05FFA10BD10B504468D
:103D1000062009F025FA002808BF10BD01465320EF
:103D2000887043F66450C2F20000007B0C7109F009
:103D30004BFA10BD80B509F003FB40F2B81041F614
:103D40005001C2F20000C0F2040141624FF4106061
:103D50000021012201F0A0FB09F00EFB80BD000054
:103D60002DE9F04381B004462C20984616460F46B4
:103D700009F0F6F9F0B10546DDE908903121A970A6
:103D80002880681D39462C71FFF76CFA05F10B008D
:103D90003146FFF7A3FA05F11B004146FFF79EFAF3
:103DA00043F66450C2F20000007B294685F82B9050
:103DB00009F00AFA01B0BDE8F083000080B509F00F
:103DC000BFFA40F2B81041F66801C2F20000C0F23A
:103DD0000401816141F65C01C0F20401C16309F094
:103DE000CBFA80BD10B59AB040F2B811C2F2000112
:103DF000096A41F2E07243F66454C0F20402C2F26E
:103E000000049142A0600AD000F0ECFC442806D8DF
:103E10000020C0F27710A168019001A888471AB06D
:103E200010BD0000B0B5054610200C4609F098F909
:103E3000002808BFB0BD0146222088700D80206890
:103E40006268A368486043F664508A60CB60C2F23F
:103E50000000007B09F0B8F9B0BD000080B509F0A2
:103E60006FFA40F2B81041F68001C2F20000C0F2D1
:103E7000040181601CF004FB09F07EFA80BD0000A3
:103E800080B51CF025FB80BD2DE9F04381B00746CD
:103E90001020984616468946102409F061F930B37F
:103EA000DDE908EC014684700771431D0020002401
:103EB000002200BF27FA00F5ED0702D0355D013280
:103EC0001D55D4B2022C03D8072800F10100F1D30C
:103ED00043F66450C2F20000007B81F80890A1F81C
:103EE0000AE0A1F80CC081F80E8009F06DF901B06C
:103EF000BDE8F08380B5042009F032F9002808BF3E
:103F000080BD014643F66450C2F20000007B1122DE
:103F10008A7009F059F980BDF0B581B007461620C6
:103F200015460C4609F01CF968B106460420B0702D
:103F30003780347525B1301D29462246FCF719FD1E
:103F4000304608F083FC01B0F0BD0000B0B5054676
:103F500004200C4609F004F9002808BFB0BD032175
:103F600081700580C47008F071FCB0BDF0B581B0FF
:103F70000746202016460C4609F0F2F888B105469F
:103F80002820A870281D31461A222F80FCF7F1FC4A
:103F900043F66450C2F20000007B2946AC7709F07A
:103FA00013F901B0F0BD0000C0684DF6836100BA9E
:103FB000C4F21B31A0FB0112910C43F6095251438C
:103FC000A0EB81107047000046F61000C2F200001E
:103FD0007047000043F6EC60C2F200004068704792
:103FE00043F6EC60C2F200000068704740F2B8107F
:103FF00041F68C01C2F20000C0F20401416143F6B7
:10400000EC6041F2AE11C2F20000C0F20401C0E95E
:104010000011704740F2B81041F69801C2F200005A
:10402000C0F20401016270472DE9F04104461620F8
:10403000984616460F4609F093F8002808BFBDE8D9
:10404000F08105462920A8702C802F756E751FB150
:10405000281D4146FFF742F943F66450C2F20000C2
:10406000007B294609F0B0F8BDE8F081F0B581B0D9
:10407000074608201C4615460E4609F071F868B13F
:1040800006990122827004F0070201F007010780FF
:10409000067145718271C17108F0D8FB01B0F0BDA5
:1040A000F0B581B0074608201C4615460E4609F0BB
:1040B00057F868B106990222827004F0070201F0F5
:1040C00007010780067145718271C17108F0BEFB5E
:1040D00001B0F0BD80B5014646F61000C2F2000006
:1040E0006022FCF746FC80BDB0B5054606200C46B4
:1040F00009F036F8002808BFB0BD052181700580A1
:10410000047108F0A3FBB0BD10B5044680782C28DC
:1041100001D02A2808D143F68850C2F20000D0F816
:10412000901009B12046884743F66450C2F200005F
:1041300081682046884710BDB0B514460D461AF078
:10414000A3FC002808BFB0BD00218289817441F220
:10415000AE110576C0F2040110460022234601F09C
:104160009FF8B0BDF0B591B00646104615460C4616
:104170003BF0DEFF08B111B0F0BD09AF3846214673
:104180003CF09AF901A831463A463CF087F93846A6
:1041900039463CF091F9204621462A463CF07EF90A
:1041A000284629463CF088F9304631462A463CF0FC
:1041B000A9F8284629462A463CF0A4F82846314664
:1041C0002A463CF087F9304631462A463CF066F9EB
:1041D0002846314632463CF095F8304631462A466C
:1041E0003CF090F8304600213CF082FA80B141F278
:1041F000C062C0F20402304631463BF055FF07462C
:1042000030463CF0F9F9F06940EAC770F06102E02D
:1042100030463CF0F1F9284631463CF04DF901AF0B
:10422000284629463A463CF055F9284629463A465A
:104230003CF050F9384639462A463CF04BF93046B6
:1042400031463A463CF02AF909AF384631463A46FB
:104250003CF040F9304629463CF0DCF9284621463E
:104260003CF0D8F9204639463CF0D4F911B0F0BD05
:1042700010B504463BF05CFF38B104F120003BF080
:1042800057FF002818BF012010BD002010BD0000FE
:104290002DE9F04F8BB004460078042827D88A46D1
:1042A0001646DFE800F003264266810004F1240789
:1042B000DDF850A03846314604F104083CF0AAF974
:1042C00004F1640506F12001284604F144093CF09C
:1042D000A1F93846294642464B46CDF800A009F0E0
:1042E00085F9FF20C4F8840000250120A9E00125FC
:1042F000A8E0D4F8841018463CF0FAF9B0FA80F13E
:10430000221D4B09002818BF012002EB401704F1C1
:10431000440606EB401102EB431206EB431338460A
:1043200009F0F4F8002502208BE0D4F88410184638
:104330003CF0DEF9B0FA80F14909221D002818BFCF
:10434000012002EB411704F1440303EB411102EB9E
:10435000401203EB4013384609F08AF8D4F8840081
:1043600000250138C4F884004FF00300C8BF0120C5
:1043700067E01846002100253CF0BAF9B0FA80F158
:10438000221D4B09002818BF012002EB401704F141
:10439000440606EB401102EB431206EB431338468A
:1043A00009F0B4F804204CE0184600213CF0A0F9D4
:1043B0000546B0FA80F0400904F1040903AF029009
:1043C00004F1240138464A46002D18BF01253CF06F
:1043D00081F804F1440808EB451B384639465A4633
:1043E0003CF05CF83846394632463CF057F83846DF
:1043F00039463BF09FFF06F12002384639463CF033
:104400004DF809EB4515384639462A463CF046F842
:1044100002992A4609EB411008EB41115B4609F06D
:1044200027F8484641463A4614F00CFC50464946A7
:104430003CF0F0F80AF1200041463CF0EBF8012591
:104440000520207028460BB0BDE8F08F80B593079B
:1044500006D4D20700F10C0015D114F037FC80BD52
:10446000C36802F0010203EA010040EA020C88423C
:10447000184618BF0020002A08BF1846BCF1000FDC
:1044800008BF604680BD14F0F9FB80BD80B50C30DC
:1044900014F0B8FC80BD000080B540F23712C8F2BD
:1044A00001023BF0B5FB80BD80B540F23112C8F28D
:1044B000010201463BF0ACFB80BD000080B540F23C
:1044C0003812C8F201023BF0A3FB80BD80B540F278
:1044D0003312C8F201023BF09BFB80BD80B540F275
:1044E0003212C8F201023BF093FB80BD80B535F07B
:1044F00031FF3BF0CBFA80BD2DE9F04F85B04FF096
:10450000000801244FF480760827CDF8108004E0DD
:104510006400013F06F1040610D0B5B2284634F01D
:10452000CDFB0028F4D0204634F0F2FB0028EFD079
:10453000284634F083FB48EA0408E9E74FF4BE70EC
:1045400034F0BCFB40B14FF4BE7034F077FB04A8EC
:1045500048F0004834F064FB5FEA08601CD0012793
:10456000002404E00134082C4FEA470714D017EA6E
:10457000080FF7D0204634F0ABFB0546204634F058
:10458000B1FB0646204619F079FA0028EAD0024627
:10459000284631469047E5E7B8F1FF3F02DD05B018
:1045A000BDE8F08F46F674084FF000094FF0FF3079
:1045B000C2F200080DF1080B03254FF0000ACDF8F8
:1045C0000C90029009E000BF4FF0000A4FF0000984
:1045D0005FEA0A604FF0000AE1D008EB090090F8AA
:1045E0005040FF2C38D004F03F063046594634F096
:1045F00029F988B3304619F06BFA19F03FFAB5EB98
:10460000941F074600D03FB3A409032C03D13046C2
:1046100003A934F021F9304634F09EFA05463046BD
:1046200004A934F00FF9022D00D110B9032D11D1D6
:1046300080B9032C08D102213046022D08BF032186
:1046400034F030FA0AF1010A03252FB13046214631
:10465000B84701E0032500BF09F10109B9F1040FD2
:10466000BBD15FEA0A60AFD001A834F0D9FA019853
:1046700004998842A8D0039904900291A6E700000B
:104680004EF60450CEF200000068102101EA1060DE
:104690007047000044F21002C2F20002C2E90401B5
:1046A0007047000070B582B039B1887801283DD1DB
:1046B00008461DF06FFA02B070BDC00736D044F254
:1046C0001004C2F200040DF10701204608F058FD65
:1046D00060B306460DF1070509E000BF304608F05B
:1046E00065FD2046294608F04BFD0646F0B19DF8D1
:1046F000070002280CD0042812D130461EF022FCFC
:1047000094F821000028E9D030461DF05FFCE5E771
:1047100030461DF041FA0028E3D0216904E000BFD3
:10472000A1690029DAD030468847DAE702B070BDC7
:1047300080B544F25000C2F200000021C0E91C1113
:104740006FF01B014FF6FF7243181C3138299A8510
:10475000FAD14FF0FF31C0E91511C1651B21A0F856
:104760007C1040F20511A0F880100021C0F8A010C4
:104770001DF072FB80BD0000B0B50C46054640F24E
:10478000064003211DF0B0F9002808BFB0BD290A7A
:10479000C570017144711DF0D7F9B0BD44F210012C
:1047A000C2F200018860704744F25000C2F200007B
:1047B0006830704744F25000C2F20000B0F87E004A
:1047C0007047000044F25000C2F20000D0E922011C
:1047D0007047000044F25000C2F20000B0F89200AE
:1047E0007047000044F25000C2F20000B0F87C00B4
:1047F0007047000044F25000C2F2000090F89400AC
:104800007047000080B5FFF74DFF80BD80B544F2D2
:104810001001C2F2000181F820000020C1E900006F
:10482000FFF786FF80BD00002DE9F041884607466E
:1048300042F2270027211C4616461DF055F9002894
:1048400008BFBDE8F081054604304146EF70FEF731
:1048500009FD30687168F268B368C5F81620C5F8BC
:104860001230C5F80E10C5F80A0020686168A26809
:10487000E368C5F81A002846C5F81E10C5F82220BE
:10488000C5F826301DF060F9BDE8F08180B542F230
:104890003D0000211DF028F9002818BF1DF054F933
:1048A00080BD000080B542F2290000211DF01CF9F6
:1048B000002818BF1DF048F980BD0000B0B50C46B7
:1048C000054642F213000E211DF00EF9002808BF24
:1048D000B0BDA0F803502178417161788171A17851
:1048E000C171E17801722179417261798172A17996
:1048F000C172E1790173217A4173617A8173A17A7E
:10490000C173E17A01741DF01FF9B0BD80B542F2A8
:104910000E0000211DF0E8F8002818BF1DF014F962
:1049200080BD00002DE9F0470F46054642F20D001C
:104930001921984691461DF0D7F8002808BFBDE818
:10494000F0870446C570280ADDE9081A2071380A84
:104950000A9EA07104F10900677184F8079084F839
:104960000880FEF77FFC84F80FA030782074707800
:104970006074B078A074F078E07430792075707944
:104980006075B079A075F079E075307A2076707A2C
:104990006076B07AA076F07AE07620461DF0D4F802
:1049A000BDE8F087B0B50C46054642F2170020215D
:1049B0001DF09AF8002808BFB0BD29686A68EB6846
:1049C000AD68C0F80F30C0F80B50C0F80720C0F831
:1049D000031021686268A368E568C0F81310C0F886
:1049E0001720C0F81B30C0F81F501DF0ADF8B0BD47
:1049F0002DE9F0470746007A144688460026002134
:104A000020FA01F2D20718BF0136062904D8F2B203
:104A1000042A01F10101F3D35FFA86F94FEA091084
:104A200000F10A0142F243001DF05EF8002808BFC1
:104A3000BDE8F087824638788AF8030078788AF8EB
:104A40000400B8788AF8050079680AF10600FEF7D4
:104A500009FC387A31068AF80C0034D04FEA490153
:104A600051FA86F1AAF103004FEA810CA21DA8F1C8
:104A7000020300279E78E51900F8106FDE78467073
:104A800013F8046F86705E78C670E65D06716E7806
:104A90004671AE788671EE78C671D61916F8021C8A
:104AA000017216F8011C4172D15D0C378172717868
:104AB000BC45C172297A0173697A4173A97A8173FD
:104AC000E97AC173D6D150461DF03EF8BDE8F087B3
:104AD000F0B581B00E46074642F2420006211C4660
:104AE00015461DF001F848B1290A8171210AC770E5
:104AF00006714571C47101721DF026F801B0F0BD58
:104B000070B50C46064642F2260040211CF0ECFF30
:104B1000002808BF70BD0546033031462022FBF750
:104B200028FF05F1230021462022FBF722FF28461B
:104B30001DF00AF870BD000010B5044642F21B00DB
:104B400002211CF0D1FF002808BF10BDA0F80340CF
:104B50001CF0FAFF10BD0000B0B50C46054642F24D
:104B60001A0012211CF0C0FF002808BFB0BDA0F839
:104B7000035021686268A368E568C0F80510C0F8B2
:104B80000920C0F80D30C0F811501CF0DDFFB0BD99
:104B900080B542F2450000211CF0A6FF002818BF96
:104BA0001CF0D2FF80BD00002DE9F04F81B00F4610
:104BB000054642F244000E21984616461CF094FF2A
:104BC000D0B10446DDF83090DDE90ABAC57007714E
:104BD000063041466671FEF745FB4FEA1B206073C5
:104BE0004FEA1A20E073204684F80CB084F80EA037
:104BF00084F810901CF0A8FF01B0BDE8F08F000011
:104C000010B5044642F2460002211CF06DFF002858
:104C100008BF10BDA0F803401CF096FF10BD0000B7
:104C200080B542F2180000211CF05EFF002818BF7A
:104C30001CF08AFF80BD000080B542F20200002116
:104C40001CF052FF002818BF1CF07EFF80BD000042
:104C500080B542F2030000211CF046FF002818BF77
:104C60001CF072FF80BD000080B542F23A000021C6
:104C70001CF03AFF002818BF1CF066FF80BD000042
:104C800080B542F22F0000211CF02EFF002818BF33
:104C90001CF05AFF80BD000080B542F23B000021AD
:104CA0001CF022FF002818BF1CF04EFF80BD000042
:104CB00080B542F24A0000211CF016FF002818BF00
:104CC0001CF042FF80BD000080B542F22A000021A6
:104CD0001CF00AFF002818BF1CF036FF80BD000042
:104CE00080B542F21C0000211CF0FEFE002818BF17
:104CF0001CF02AFF80BD000080B542F20F000021A9
:104D00001CF0F2FE002818BF1CF01EFF80BD000042
:104D1000B0B50C46054642F2210003211CF0E4FE2A
:104D2000002808BFB0BD290AC570017144711CF08C
:104D30000BFFB0BDF0B581B00E46074642F2200031
:104D40000E211C4615461CF0CFFEC8B1C7703F0AA5
:104D50000899DDE906320771370A87712F0A077251
:104D6000270AC3721B0A4273120AC173090A4671E9
:104D7000C571447287720373827301741CF0E4FE80
:104D800001B0F0BD10B5044642F23C0001211CF018
:104D9000ABFE002808BF10BDC4701CF0D5FE10BDCE
:104DA00070B50C46054642F2280007211CF09CFE17
:104DB000002808BF70BD064604302146F570FEF796
:104DC00051FA30461CF0C0FE70BD000010B504461C
:104DD00042F26D0002211CF087FE002808BF10BDC2
:104DE000A0F803401CF0B0FE10BD000010B5044652
:104DF00042F22D0001211CF077FE002808BF10BDF3
:104E0000C4701CF0A1FE10BDF0B581B00E46044682
:104E100042F2080020211CF067FE78B1071D05460C
:104E2000C470384631462246FBF7A3FD3819C4F159
:104E30001F01FBF7A4FE28461CF086FE01B0F0BD62
:104E400010B5044642F20A0001211CF04DFE002874
:104E500008BF10BDC4701CF077FE10BD2DE9F047EF
:104E60000F46054642F206000F21984616461CF0F2
:104E70003BFE002808BFBDE8F0870446DDE90821B5
:104E8000C570280ADDE90AA92071380AA07104F169
:104E90000A006771E67184F80880627221B1FEF73A
:104EA000E1F904F1100001E0FEF7CEF980F800A06E
:104EB00080F8019020461CF047FEBDE8F087000016
:104EC00070B50C46054642F2350007211CF00CFE79
:104ED000002808BF70BD064604302146F570FEF775
:104EE000C1F930461CF030FE70BD000070B50D46B3
:104EF000064642F22200062114461CF0F5FD002869
:104F000008BF70BD310A0171290A8171210AC6707A
:104F10004571C47101721CF017FE70BD10B50446D6
:104F200042F2010008211CF0DFFD002808BF10BD7F
:104F300061682268C0F80710C0F803201CF004FE66
:104F400010BD00002DE9F0411C460E460746FB2B24
:104F500003F1040142F23700904628BF6FF00404C9
:104F6000FF2928BFFF211CF0BFFD002808BFBDE8B6
:104F7000F08106990546E2B2C770067180F8058097
:104F80000730AC71FBF7F5FC28461CF0DDFDBDE8F1
:104F9000F081000070B5064688000C46811C42F284
:104FA000390015461CF0A0FD002808BF70BDC67072
:104FB00004716CB1A91F421C11F8063F013C02F8B4
:104FC000043F8B785370CB7893700B79D370F3D107
:104FD0001CF0BAFD70BD000070B50C46064642F2EA
:104FE000360019211CF080FD002808BF70BDC67076
:104FF000054620782871607868716068A8716068DB
:10500000000AE871E0882872A0686872A068000A47
:10501000A8726089E872207B2873607B6873A07B2C
:10502000A873216905F10F00FEF71CF9207D687552
:10503000607DA875A07DE875E07D2876207E687685
:10504000607EA876A07EE87628461CF07DFD70BDC7
:105050002DE9F04381B0984615468946074600265B
:10506000002000BF25FA00F1C90718BF0136062845
:1050700004D8F1B2042900F10100F3D3F4B2A00086
:1050800050FA86F0C11C42F241001CF02DFDC8B15F
:105090003106C77080F80490457111D0A8F106015F
:1050A000421C00BF8B7A013C02F8053F11F8063F15
:1050B00053704B7893708B78D370CB781371F1D198
:1050C0001CF042FD01B0BDE8F08300002DE9F04185
:1050D0001C460E460746FB2B03F1040142F2380042
:1050E000904628BF6FF00404FF2928BFFF211CF061
:1050F000FBFC002808BFBDE8F08106990546E2B236
:10510000C770067180F805800730AC71FBF731FC81
:1051100028461CF019FDBDE8F08100002DE9F041A2
:1051200015460E460746FC2A02F1030142F23F00F3
:10513000984628BF6FF00305FF2928BFFF211CF008
:10514000D3FC002808BFBDE8F0810446EAB2C7706E
:105150000671063041466571FBF70BFC20461CF0DA
:10516000F3FCBDE8F0810000B0B50C4605464FF4F5
:10517000015002211CF0B8FC002808BFB0BDC5706A
:1051800004711CF0E1FCB0BDF0B581B00E460746DD
:1051900042F23E0007211C4615461CF0A5FC58B102
:1051A000310A4171290AC171210AC77006718571DE
:1051B000047241721CF0C8FC01B0F0BDF0B581B0C2
:1051C0000D46074642F24E00082114461CF08CFCA6
:1051D00048B1064604302946F770FEF743F83046DA
:1051E000B4721CF0B1FC01B0F0BD0000B0B50446D3
:1051F00042F2050006211CF077FC002808BFB0BD74
:10520000054603302146FEF72DF828461CF09CFC8D
:10521000B0BD0000B0B50C46054642F20C000221BC
:105220001CF062FC002808BFB0BDC57004711CF002
:105230008BFCB0BDF0B581B00E46074642F20B00C4
:1052400007211C4615461CF04FFC58B10699320A3E
:1052500042712A0AC77006718571C2710472417267
:105260001CF072FC01B0F0BDF0B581B00E460446F2
:1052700042F2090020211CF037FC78B1071D0546D9
:10528000C470384631462246FBF773FB3819C4F127
:105290001F01FBF774FC28461CF056FC01B0F0BD62
:1052A000F0B581B00E46074642F219001C211C469B
:1052B00015461CF019FCC0B1A0F803707168326883
:1052C000C0F80910290AC0F80520457381732168C8
:1052D0006268A368E768C0F80F10C0F81320C0F830
:1052E0001730C0F81B701CF02FFC01B0F0BD00009F
:1052F000B0B50C46054642F2240004211CF0F4FB34
:10530000002808BFB0BD290A0171210AC570447187
:1053100081711CF019FCB0BD80B541F2090000217B
:105320001CF0E2FB002818BF1CF00EFC80BD000042
:1053300080B541F2010000211CF0D6FB002818BF07
:105340001CF002FC80BD000010B5044641F205408F
:1053500002211CF0C9FB002808BF10BDA0F80340C3
:105360001CF0F2FB10BD000080B544F23400C2F224
:1053700000000121817640F6034000211CF0B4FBBF
:10538000002818BF1CF0E0FB80BD000080B544F28F
:105390001000C2F20000012180F821101CF01AFE5A
:1053A00080BD000044F21001C2F20001C8607047E5
:1053B0002DE9F04381B0B0F80080064644884046AD
:1053C0001CF0CEFC98B144F25009C2F2000909F178
:1053D00070070546384607F033FF60B199F8820040
:1053E00048B1A1B2284632461CF03EFE08E03046E5
:1053F00007F0DCFE17E038460021324607F0CCFE0D
:105400004FF0FF3010FA84F4FFF7D4F994FBF0F07A
:10541000297E0844013099F88010C2B28A42287669
:1054200001D3E87D10B101B0BDE8F08344F2100172
:10543000C2F2000101204A69E87540460121904707
:1054400001B0BDE8F083000010B5044640F601400D
:1054500008211CF049FB002808BF10BD61682268C4
:10546000C0F80710C0F803201CF06EFB10BD000050
:1054700010B5044640F6634008211CF035FB0028B7
:1054800008BF10BD61682268C0F80710C0F803208B
:105490001CF05AFB10BD000040F2102CC2F2000CB0
:1054A00032B1DCE9003211431843CCE90001704706
:1054B000DCE9002323EA010122EA0000CCE9000133
:1054C0007047000044F25001C2F20001A1F87C00D4
:1054D0007047000044F2500041F6E951C2F200006A
:1054E000C0F20201C0F8A0107047000044F2500062
:1054F000C2F200000021C0F8A0107047B0B50C4601
:10550000054640F67C4004211CF0EEFA002808BF56
:10551000B0BD290A0171210AC570447181711CF066
:1055200013FBB0BDEFF3108000281CBF01207047B3
:10553000EFF31180002818BF01207047EFF31080AF
:1055400000281CBF01207047EFF31180002818BF0E
:1055500001207047EFF3108000281CBF0120704726
:10556000EFF31180002818BF01207047EFF310807F
:1055700000281CBF01207047EFF31180002818BFDE
:1055800001207047EFF3108000281CBF01207047F6
:10559000EFF31180002818BF01207047EFF305805A
:1055A000002818BF01207047EFF30580002818BFBE
:1055B00001207047EFF30580002818BF01207047D5
:1055C000EFF30580002818BF01207047EFF3058036
:1055D000002818BF01207047EFF31480012121EA51
:1055E00000007047B0B505F007F840F23024C2F271
:1055F000000401256572BFF34F8FFFF741F80028C3
:1056000008BFB0BDFDF726FFA572B0BD80B540F262
:105610003020C2F2000000214172BFF34F8F827A26
:1056200012B1817207F00CF804F0F0FF80BD0000A9
:1056300080B51970090A5970111D9970090A98717D
:10564000000AD970110AD87118461A715971FFF7FA
:10565000AFFE80BD2DE9F0410D460446FEF7F6F899
:10566000002840D044F24C160138C2F20006371828
:105670004FF0120830461E2187F8118007F0CAFE4D
:105680001420B4801EF0EAF9002808BFBDE8F081BC
:10569000034680F8088044F22410C2F2000090F81B
:1056A0002410597290F8241039750131CAB28A4217
:1056B00018BF012280F8242008205881287821462C
:1056C000187368780C225873A8789873E878D873A0
:1056D0002879187468795874A8799874E879D87416
:1056E0000520FFF7A5FFBDE8F081000070B5064674
:1056F0000E2015460C461EF0B1F9002808BF70BDFB
:1057000003461320187202205881280A5873052076
:10571000214606225E721D73FFF78AFF70BD0000EE
:1057200080B544F2241043F6F901C2F20000C0F241
:10573000020143F6692243F6F503C0E9001143F67E
:10574000FD01C0F20202C0F20203C0F20201C0E990
:105750000223C0E904330162012180F8241043F6DA
:10576000011043F68D11C0F20200C0F20201FEF7F3
:1057700091FF80BD44F2241043F6C911C2F200002B
:10578000C0F202018161704744F2241CC2F2000C95
:1057900010230428604608BF0C2318BF04300160A2
:1057A0004CF803207047000080B531B1887801289B
:1057B00018BF80BD08461EF091F980BD44F24C111F
:1057C000C2F2000101228A71087308747047000058
:1057D00044F2241043F6E921C2F20000C0F20201B3
:1057E000C16144F24C10C2F2000000218182817537
:1057F0007047000047F2D030C2F20000006844F267
:10580000C41100794EF6AD22C2F20001C0F20202CC
:1058100009284A6038BF704746F22070C2F2000083
:10582000016A41F48041016270470000F0B581B027
:1058300047F2D034C2F200042068007B90B147F2F6
:10584000BC30C2F2000000682168002283782BBBC4
:1058500090F82131012B21D00B7B01329A4200F6C6
:10586000F800F3D32068007BA8B147F2BC360025CE
:10587000C2F20006002706E020680137007B05F62B
:10588000F805874207D23068415D0029F4D02844EA
:1058900021F0F4F9F0E7002001B0F0BD0C2001B0D8
:1058A000F0BD000080B544F21821C2F2000151F8A9
:1058B0002000002818BF804780BD00002DE9F0417E
:1058C00098B041F2E050C0F2040090E80E50D0E9E8
:1058D0000545C06910AE86E80E50CDE91545179014
:1058E00040F69020C0F2040090E82E0000F1100E67
:1058F0009EE810508DE82E0000F12005D0F81C80A5
:105900002ECD00F13007C06BCDE9044C0DF1200C19
:10591000D0CF8CE82E00CDE906E8CDE90E7046F236
:105920006870C2F2000090F820100D960C9419B126
:105930000C2018B0BDE8F081012180F8221080F819
:105940002010684610A921F019FA002018B0BDE80F
:10595000F0810000F0B581B046F26877C2F200072E
:1059600097F820200AB10C2418E097F82340064647
:10597000B4FA84F00D46410930462EF02FFE87F828
:10598000220040B1012087F820003046294621F04E
:10599000F5F9002402E0002C18BF1224204601B0C3
:1059A000F0BD000080B546F26870C2F2000090F8C9
:1059B000201000291CBF0C2080BD90F8211001226E
:1059C00080F8202039B146F26870C2F2000021F060
:1059D00057FA002080BD21F03DFA002080BD000074
:1059E000B0B547F2D03CC2F2000CDCF80010097BE5
:1059F000E1B147F2BC3E0023C2F2000E00220021BA
:105A000008E000BFDCF800400131247B03F6F80316
:105A1000A14209D2DEF80040E55C002DF2D01C4422
:105A2000647884540132EDE7D0B2B0BD0022D0B228
:105A3000B0BD000047F2C431C2F2000109684FF462
:105A40003C7200FB0210D0F8F401704747F2C431F9
:105A5000C2F2000109684FF43C7200FB0210D0E969
:105A600048017047B0B5C0B20C4621F0C3F840B150
:105A700090F93C000021002505F076FA20702846B8
:105A8000B0BD4220B0BD000047F2C431C2F20001F7
:105A900009684FF43C7200FB0210807870470000E8
:105AA00047F2C431C2F2000109684FF43C7200FBB6
:105AB000021090F91A01704747F2C431C2F2000196
:105AC00009684FF43C7200FB021090F845007047E3
:105AD00047F2C431C2F2000109684FF43C7200FB86
