:020000040000FA
:1000000000000120C9020000D5020000A901000083
:10001000D9020000B1010000B5010000000000009D
:1000200000000000000000000000000005020000C9
:10003000E1020000000000009D020000AD0200008F
:10004000E7020000BDB60000E7020000E702000082
:10005000E7020000E7020000E7020000E7020000FC
:10006000E7020000E7020000E7020000E7020000EC
:10007000E7020000DDB60000E7020000A93600003C
:10008000E7020000E7020000E7020000E7020000CC
:10009000E7020000E7020000E7020000E7020000BC
:1000A000E7020000E7020000E7020000E7020000AC
:1000B000E7020000E702000000000000000000006E
:1000C000E7020000E7020000E7020000E70200008C
:1000D000E7020000E7020000E702000000F002F87B
:1000E00021F0DAFE0AA090E8000C82448344AAF1D1
:1000F0000107DA4501D121F0CFFEAFF2090EBAE8CF
:100100000F0013F0010F18BFFB1A43F0010318474B
:100110002C1205004C1205000A444FF0000C10F898
:10012000013B13F0070408BF10F8014B1D1108BF75
:1001300010F8015B641E05D010F8016B641E01F815
:10014000016BF9D113F0080F1EBF10F8014BAD1C65
:100150000C1B09D16D1E58BF01F801CBFAD505E083
:1001600014F8016B01F8016B6D1EF9D59142D6D3DD
:10017000704700000023002400250026103A28BF05
:1001800078C1FBD8520728BF30C148BF0B60704709
:100190001FB54DF0E0F89DE8030000F03FFE01F0D0
:1001A0000DF800F007FE1FBD102304E0202302E03D
:1001B000302300E040239C46F0B404AE7546E808C6
:1001C00001D3EFF309860E4F0FCE0FC70FBC0FC739
:1001D0004046494652465B460FC71DCE3100A60A2F
:1001E00000D304316E0900D248311FC7EFF30980F4
:1001F0006946EFF3148663C76046014943F04CFE3D
:10020000806B00201EF0040F0CBFEFF30880EFF3AB
:100210000980816911F8021C91BB01B590E80F10AB
:10022000E047BDE800508CE80300244B93E806004B
:10023000914208BF704741B91EF0100F10D12049FC
:10024000086820F0010008600AE02CE9F00F1EF0B9
:10025000100F08BF2CED108AC1F838C081F822E0D9
:100260001A6092F82210906B61F0FF0E1EF0100FD2
:1002700008BFB0EC108AB0E8F00F80F3098870472F
:10028000104A13689942FAD801B552F821C00FC834
:10029000E047BDE80050CCF80000704701B546F0DB
:1002A000E5F8BDE80140EFF3098CBEE701B546F083
:1002B0006BFBBDE80140EFF3098CB6E75402002068
:1002C00034EF00E09CF3040007488047074880476C
:1002D00007480047FEE7FEE7FEE7FEE7FEE7FEE72A
:1002E000FEE7FEE7FEE7FEE7B9D100005555040042
:1002F000DD000000704721F0F7BD0844401E491E94
:10030000884370470821001DF7E72DE9F0411746A3
:100310000E460446FFF7F6FFA042054633D9002FEC
:100320001CBF06F10C0021F041FE30467468F4B1A8
:100330002168A94217D305F1080291423CBF6168C8
:10034000416007D3626861194A602268521B0A60E3
:1003500041602560002F1CBF06F10C0021F0A6FEB5
:10036000201DBDE8F08120466468002CE0D12946BC
:10037000304600F03FFD0028D7D1002F1CBF06F10A
:100380000C0021F093FE0020BDE8F08110B504467A
:1003900000F027FD01682046BDE810400122B4E7C7
:1003A00070B516460D46041F002808BF70BD002E0C
:1003B0001CBF05F10C0021F0F9FD2B465868002800
:1003C00018BFA04238BF0346F8D31968CA18A24222
:1003D00018BF5C6003D122681C4611441960216873
:1003E0000A19824218BF606004D1426862600068E6
:1003F00008442060002E1CBF05F10C0021F056FEC1
:1004000070BD10B5044600F0ECFC01682046BDE864
:1004100010400122C4E753EA020C00F069802DE984
:10042000F04B4FF00006002B1FBFB3FA83F503FA21
:1004300005F424FA05F65E4012BF1643B2FA82F5BF
:1004400002FA05F4C5F120051EBF22FA05FC44EAB4
:100450000C04203556EA044C4FEA144418BF641CBF
:100460004FF000084FF00009904271EB030C39D3B4
:10047000002919BFB1FA81F701FA07F6B0FA80F73F
:1004800000FA07F6C7F120071EBF20FA07FC46EA6C
:100490000C062037B6FBF4FCA7EB0507103F07F06E
:1004A0001F0BCBF120062CFA06F60CFA0BFB44BF0F
:1004B000B3460026202FA4BF5E464FF0000B5BEA38
:1004C000060C08BF4FF0010B19EB0B0948EB0608AF
:1004D000ABFB027C06FB02CC0BFB03CCC01B71EB1D
:1004E0000C01C1E70B46024641464846BDE8F08B89
:1004F00013B5084318BF4FF0FF300146AFF300803B
:10050000BDE81C40704753EA020C23D010B54C10D4
:1005100084EA530404D54042C1F1000138BF491EAA
:100520001B4204D55242C3F1000338BF5B1EFFF7E4
:1005300072FF14F0804F04D04042C1F1000138BF77
:10054000491E14F0004F04D05242C3F1000338BFDB
:100550005B1E10BD13B540424FF0000070EB01046C
:10056000B8BF012001F0004100281CBF6FF000411E
:100570004FF0FF30AFF300801CBD70B504468569B5
:100580000068C10601D5302600E02026C00707D04C
:1005900070BDD4E9012130469047206A401C20629A
:1005A0006D1EF6D570BD70B5044685690078C0072C
:1005B00007D170BDD4E9012120209047206A401C5A
:1005C00020626D1EF6D570BD2DE9F0410446164639
:1005D0000D464769007B80072ED0384621F090FDFC
:1005E00050BB3EB3012E02D0022E25D104E020469E
:1005F00000F066F805441DE0384621F06DFDE16825
:10060000002841F01001E16005DA204600F02AFDE3
:100610000120BDE8F081C9030BD56268E16A91420F
:1006200000D81146A26911442269891A814200DD6D
:1006300008460544002D01DA0220EAE7E16A606815
:10064000E268814206D29103E06203D522F40031D0
:1006500041F01002A6690027AE4213DCE16A814234
:1006600001D90B4600E0034603EB060C2369ACEB13
:10067000030CAC4506DD814201D98C4600E084467E
:100680009C4505D1A760276042F02000A5620DE0DF
:10069000AD1BE669AE1B8142A66000D90846C01AB0
:1006A000281A20605819606022F020000349084091
:1006B000E060002084F84870ABE70000BFCFD7FFB0
:1006C00010B50146C268900703D0900607D5886A26
:1006D0000AE0FFF710FE01210160881E10BD8B6942
:1006E000486818440B69C01A91F848301BB191F85A
:1006F0004910401A10BD1103FCD50028FADD401E38
:1007000010BD0000014900F029B800009803002046
:100710002DE9F04704464FF000094FF0FF37C56858
:10072000D4E90486A80707D0204600F0CFFC304665
:1007300021F0CCFC002802DA3846BDE8F087280515
:1007400002D54046FFF75DFE4C21204600F0C8FA76
:10075000206D20F0010020654846EEE770B50C469C
:10076000064601F14C05284621F020FC2146304682
:100770004CF0E4FD0446284621F098FC204670BD6C
:100780002DE9F04716468846070010D006F14C00C8
:10079000814621F00BFC3046FFF7BAFF18F8010B39
:1007A00061280DD0722805D0772841D105E00020BE
:1007B000BDE8F0870125002405E00225042402E0BD
:1007C000082448F2020518F8010B2B2806D06228ED
:1007D00009D018F8010C74280AD00BE045F0030585
:1007E00044F00204EFE745F0040544F00104EAE7B1
:1007F00044F010043846214621F086FC411C17D0F5
:100800000021316171604FF40071F560F161706138
:10081000200704D5304602220021FFF7D5FE306DB7
:1008200040F001003065484621F040FC3046BFE70B
:100830000026F8E72DE9F04115460E460746214C03
:10084000204621F0B3FB2A4631463846FFF798FF91
:100850000546204621F02AFC2846BDE8F0812DE916
:10086000F0410E468046174D284621F09FFB164C5E
:10087000206DC10704D0410804D020F00104F7E73F
:10088000224612E05420FFF781FD070017D0206DAB
:1008900047F00101084354212065384600F020FA52
:1008A00007F14C0021F0B0FB3A4631464046FFF7D5
:1008B00067FF0446284621F0F9FB2046CDE70024D7
:1008C000F8E70000EC00002044030020401ECAB2FC
:1008D00010F8011F8A4202D00029F9D10020704788
:1008E00030B503461D781DB10A4603E0AC4201D184
:1008F000181A30BD12F8014B002CF7D15B1CF1E740
:1009000030B503461D783DB10A4612F8014B1CB1C3
:10091000AC42FAD15B1CF5E7181A30BD40EA01037E
:1009200010B59B070FD1042A0DD310C808C9121F98
:100930009C42F8D020BA19BA884201D9012010BDD2
:100940004FF0FF3010BD1AB1D30703D0521C07E09F
:10095000002010BD10F8013B11F8014B1B1B07D103
:1009600010F8013B11F8014B1B1B01D1921EF1D174
:10097000184610BD40EA0103024630B59B0710D16E
:100980004FF0013400E008C208C91D1B9D4315EA61
:10099000C41FF8D013F0FF0102F8011B0DD01B0A91
:1009A000F8E711F8013B002B02F8013B05D011F8E4
:1009B000013B002B02F8013BF3D130BD10B5431CC5
:1009C00002E010F8011B71B18107FAD14FF001323A
:1009D00002C88C1A8C4314EAC211F9D0C01A0A0654
:1009E00003D0C01E10BDC01A10BD0A0401D0801E65
:1009F00010BD0902FCD0401E10BD40EA010370B5D5
:100A00009B072ED14FF00136042A2AD308C810C9FB
:100A10009D1B9D43121F15EAC61517D0D8B2E1B22F
:100A2000401A50EA056110D198B2A1B2401A50EABA
:100A300005410AD123F07F4024F07F41401A50EA5B
:100A4000052102D1180EA0EB146070BDA342DBD0CB
:100A500018BA21BA884201D9012070BD4FF0FF3089
:100A600070BD0AB9002070BD10F8013B11F8014BB0
:100A700063B1A3420AD1521E08D010F8013B11F80D
:100A8000014B1BB1A34201D1521EEDD1181B70BD09
:100A9000032A40F2308010F0030C00F0158011F8AA
:100AA000013BBCF1020F624498BF11F801CB00F882
:100AB000013B38BF11F8013BA2F1040298BF00F8D6
:100AC00001CB38BF00F8013B11F0030300F0678051
:100AD000083AC0F0088051F8043B083A51F804CBBA
:100AE000A0E80810F5E7121D5CBF51F8043B40F880
:100AF000043BAFF30080D20724BF11F8013B11F88B
:100B000001CB48BF11F8012B24BF00F8013B00F8CE
:100B100001CB48BF00F8012B7047431A28BF9A4207
:100B20007FF6B6AF10441144032A40F2268010F03D
:100B3000030F1EBF11F8013D521E00F8013D10F0D9
:100B4000030F7FF4F6AF11F0030300F06D80083A55
:100B5000C0F00B8051F8043D083A51F804CD40F83C
:100B6000043D40F804CDFFF7F3BF121D5CBF51F800
:100B7000043D40F8043DAFF30080D20724BF11F8D4
:100B8000013D11F801CD48BF11F8012C24BF00F838
:100B9000013D00F801CD48BF00F8012C704710B5A9
:100BA000203AC0F00B80B1E81850A0E81850B1E826
:100BB0001850A0E81850203ABFF4F5AF5FEA027C65
:100BC00024BFB1E81850A0E8185044BF18C918C095
:100BD000BDE810405FEA827C24BF51F8043B40F836
:100BE000043B08BF7047D20728BF31F8023B48BF1B
:100BF00011F8012B28BF20F8023B48BF00F8012B59
:100C00007047431A28BF9A427FF6C9AF1044114477
:100C100010F0030F1EBF11F8013D521E00F8013DF8
:100C200010F0030F7FF4F6AF103AC0F00A8010B551
:100C300031E9185020E91850103ABFF4F9AFBDE877
:100C40001040530724BF31E9081020E9081044BFC1
:100C500051F8043D40F8043D12F0030F08BF7047FF
:100C6000D20728BF31F8023D48BF11F8012C28BF38
:100C700020F8023D48BF00F8012C704702F0FF0346
:100C800043EA032242EA024200F00AB802F0FF03FC
:100C900043EA032242EA024200F024B84FF0000285
:100CA0000429C0F0128010F0030C00F01B80CCF17E
:100CB000040CBCF1020F18BF00F8012BA8BF20F8EC
:100CC000022BA1EB0C0100F00DB85FEAC17C24BF40
:100CD00000F8012B00F8012B48BF00F8012B7047EA
:100CE0004FF0000200B5134694469646203922BFC5
:100CF000A0E80C50A0E80C50B1F12001BFF4F7AF10
:100D0000090728BFA0E80C5048BF0CC05DF804EBF1
:100D1000890028BF40F8042B08BF704748BF20F85F
:100D2000022B11F0804F18BF00F8012B7047000014
:100D300030B44FF0013C50F8042B51F8043BCCFA8E
:100D400052F4D51A20D1FCB950F8042B51F8043BC9
:100D5000CCFA52F4D51A17D1B4B950F8042B51F883
:100D6000043BCCFA52F4D51A0ED16CB950F8042BCE
:100D700051F8043BCCFA52F4D51A05D1002CDAD044
:100D800030BC4FF00000704729BAB1FA81F111F080
:100D90001801D1F120008440F2D1CA40CB4012F0BA
:100DA000FF0213F0FF0330BCD01A70477047704742
:100DB0007047000070B5064C7C44064D7D4404E04D
:100DC0002046016808448047241DAC42F8D170BD1C
:100DD000B4050500B4050500004870474004002034
:100DE000704710B5FFF7F8FF083010BD7047704727
:100DF0007047704738B504460A4600206946AFF38D
:100E00000080002808BF38BD02460099204600F047
:100E1000CBFA012038BD012000F016BBF8B5AFF3C6
:100E20000080054600200C46102000BF0646A81989
:100E3000A0420DD9324669460020AFF3008007007A
:100E400008BF00F001FB0098A04218BF0546C41976
:100E5000FFF7C7FF05600746F01D20F007004619A1
:100E6000284600F00AF8B44208BFF8BDA21B31467C
:100E70003868BDE8F84000F097BA00210160C0E989
:100E800001100C3021F0C0B8102070472DE9F04758
:100E900005460C46C86820F4201040F48000C86065
:100EA000800602D5084600F034F9E06841F282017C
:100EB0004FF0FF390140022903D0204600F0D2F85C
:100EC000B5E000F42041B1F5004F0FD1C00306D5C5
:100ED0006168E06A884200D80846606006E02069E0
:100EE000E0626060606921F0F7F8A061A06800220C
:100EF000EEB200280DDAE1688B050AD4C043A06089
:100F000041F490302260E0606068411C61600670CE
:100F1000A5E0E0689046226040F40050E06020695F
:100F200068BB606921F0ECF8012704F12405A0B149
:100F3000A08910F4407F08D0E069FFF727FA20610C
:100F400018B1E06840F4006016E0E7612561E068F0
:100F500020F4407040F480600EE0E069FFF716FA7C
:100F600000282061F1D0E06840F4006010F4407F78
:100F7000E06002D140F48070E06020696060E06869
:100F800025696FF0010AC1051FD56168E06A8842D2
:100F900000D80846411B04D02246284600F06CF8D1
:100FA000F0BBE068010203D5E562C4E9015854E0F2
:100FB000691CE1626160E16940F48030491EC4E966
:100FC000021030462E70BDE8F087010202D500F411
:100FD00080320AE06068411C61600670E0680A2E99
:100FE00040F48030E06006D00022E16A606881420F
:100FF00003D90B4602E00122F7E70346A7895B1BF2
:101000007F0503D4E7699F4200DDE2B1814200D849
:101010000146E5620F1AC4E90158002B09DD00E022
:1010200005E022461946284600F026F808B1484651
:10103000C9E747B1A069E5626560C01BA061E068CF
:1010400040F01000E060E068000208D56168A06927
:10105000E562491B08446560A0615046B3E730462D
:10106000B1E70000C16821F4001141F08001C160C6
:1010700000218160016070472DE9F04781461446E8
:101080000E464FF0FF383248D5685769054209D0FF
:101090003846A16921F06EF8002811DB2C48C043C6
:1010A0000540E5602B4632464946384621F068F84F
:1010B000A16920F00042B21A11440028A16103D0B6
:1010C0002046FFF7CFFF4046BDE8F08770B50446E5
:1010D0000569C06A6168884200D80846E16821F461
:1010E0002011E160C90312D5A84208D02246411B55
:1010F0002846FFF7C1FF10B14FF0FF3070BD002050
:10110000E562C4E90150E06820F48030E06000202E
:1011100070BD10B50446C06820F02000E060A16AF0
:10112000A06988420DD02046FFF7D0FFE06820F488
:10113000405040F01000E060A06AA0612069E062C9
:10114000606044F24001E0688843E06010BD000048
:10115000100002002DE9F04704461E4690460D4659
:10116000C7684C30814620F021FFB80714D07802C0
:1011700012D44046B8F5807F09D0B0F5007F06D084
:10118000B8F5806F08D1012604F1240506E0701E31
:101190006FF07F41884201D3012409E02561E661B7
:1011A0006560E06820F4706040EA0800E0600024B8
:1011B000484620F07BFF2046BDE8F08710B5654823
:1011C0005421FFF78DFD64485421FFF789FD6348E2
:1011D0005421FFF785FD62485E49624A624B016017
:1011E0005D4810605D4A1A60431C0B65511C016527
:1011F0000120106557484C3020F006FF56484C300F
:1012000020F002FF55484C3020F0FEFE574820F0F9
:10121000FBFE58484F4A56A17844FFF70BFB20B914
:10122000544878440A3800F008F954484A4A52A110
:101230007844FFF7FFFA20B9504878440A3800F0A4
:10124000FCF84F48454A4CA17844FFF7F3FA20B91F
:101250004B4878440A3800F0F0F840233D48DC0061
:1012600000212246FFF776FF20B1424878445438E7
:1012700000F0E3F83848224640230021FFF76AFFD8
:1012800020B13E487844543800F0D7F8334822461D
:1012900010230021FFF75EFF002806D0384878446D
:1012A000BDE81040563800F0C8B810BD2B482DE9F5
:1012B000F041006D2D4E20F00104304620F076FE06
:1012C000244D4C35284620F071FE2248FFF720FAC5
:1012D000284620F0EBFE284620F076FE1E4D4C35C9
:1012E000284620F063FE1C48FFF712FA284620F03B
:1012F000DDFE284620F068FE184D4C35284620F0CB
:1013000055FE1648FFF704FA284620F0CFFE28467F
:1013100020F05AFE14E0206D20F0010504F14C008D
:10132000074620F043FE2046FFF7F2F9384620F04A
:10133000BDFE384620F048FE2046FFF762F82C46F6
:10134000002CE8D1304620F0B1FE084820F03CFEE9
:10135000BDE8F0814403002098030020EC03002046
:10136000E0000020E4000020E8000020EC00002065
:1013700072000000F4CF040077000000E3CF040007
:10138000BCCF040010B5002000F050F8AFF300808F
:10139000BDE81040012020F09DBE801A0844401E88
:1013A000491E88431044704770B5144605468C4664
:1013B0004368002B18BF634538BF1846F8D302684E
:1013C0001044604508D06646604604220821FFF7B5
:1013D000E4FF811B8446641A2946CCF80040BDE82E
:1013E000704000220CF10400FEF7DABF70B504462D
:1013F0000D4D284620F0DAFD03E04BF09FFF401C26
:101400000ED0094914F8010B4C390028F5D10A20F7
:101410004BF094FF0446284620F048FE204670BD5D
:101420004FF0FF34F7E70000E403002010B500F0B0
:101430001FF8BDE8104000F016B810B500F030F805
:10144000BDE8104000F00FB810B500F043F8BDE85B
:10145000104000F008B810B5FFF7C3FC0068BDE805
:10146000104000F05FB8002801D020F033BE704774
:1014700010B5002102A000F05AF8012010BD0000B4
:10148000534947414252543A2041626E6F726D6136
:101490006C207465726D696E6174696F6E00000016
:1014A00010B5014602A000F042F8012010BD000076
:1014B00053494752545245443A2052656469726513
:1014C00063743A2063616E2774206F70656E3A20F2
:1014D0000000000010B5012805D0002103A000F095
:1014E00026F8012010BD09A1F8E700005349475232
:1014F000544D454D3A204F7574206F6620686561E4
:1015000070206D656D6F7279000000003A204865AB
:101510006170206D656D6F727920636F7272757086
:101520007465640010B50C3020F04EFD10BD70B530
:1015300005460C460A2000E06D1C20F0F9FE35B18E
:1015400028780028F8D102E0641C20F0F1FE14B1E4
:1015500020780028F8D1BDE870400A2020F0E8BECD
:1015600083B080B583B0844605A840F2983E0EC093
:1015700005ABC2F2000E00206FF0004162460293FC
:10158000CDF800E042F036FD03B0BDE8804003B086
:101590007047000080B540F2000240F2000147F6BB
:1015A0009060C0F20002C0F20001C2F2000091425D
:1015B00018BF08464FF60041C2F2000118BF11469D
:1015C000FEF7E6FD80BD0000002070470020704758
:1015D00000207047002070470020704700207047AF
:1015E00000207047002070470020704780B582B00F
:1015F0004FF0000CCDF800C042F0FCFC02B080BD02
:1016000043F2F021C2F200010865704780B520F076
:10161000CDFF008880BD000080B589B391F902003C
:10162000B0F1FF3F08DDC0B260280ED343F2F020D6
:10163000C2F20000806B17E043F2F020C2F200001B
:10164000026C002A08BF80BD0FE0402805D343F29A
:10165000F020C2F20000C06B06E0202808D343F25D
:10166000F020C2F20000406B82680846904780BDBF
:1016700043F2F020C2F20000006B826808469047F7
:1016800080BD000080B543F2F021C2F2000181F874
:1016900054004EF228204EF65022C0F20400C0F250
:1016A0000402C1E90C00C1E90E2242F2E16142F2FA
:1016B0009962C0F20201C0F20202042004F04EFB63
:1016C00042F2C951C0F20201002002F07BFB80BD52
:1016D0001B296FF00A0202D01D2918BF002280B515
:1016E00010440CF04DF880BD10B582B040F2E821F6
:1016F000C2F20001096843F2F022C2F200028C88B3
:10170000D06403F04FFB0438A04207DA0024002025
:10171000772100220223009420F09EFF02B010BD2A
:10172000B0B582B004460A200D4620F0FDFF60B13E
:10173000034602201880182018725D72002520468A
:1017400000210C22009521F0F7FB02B0B0BD000093
:101750002DE9F04782B0DDF82890804609F10F00AE
:1017600080B21D4617460C4620F0DEFFC8B1064683
:1017700009F10700DDE90B1A308006202A0A3072D1
:1017800006F10F00B2734A467480B7807573FFF795
:101790007FF94046214603223346CDF800A021F0D0
:1017A000CBFB02B0BDE8F087F0B581B006460D2056
:1017B0001C4617460D4620F0B7FF60B103460520D2
:1017C0001880042018723046294602225D809F80CE
:1017D000009421F0B1FB01B0F0BD000010B501385C
:1017E00080B2002120F0E8FFD0B104460068807884
:1017F00000F01200102813D1092020F095FF0028D6
:1018000008BF10BD034620680122817801F0EF0176
:1018100081701E20187220680189042004F0F2F9FA
:1018200010BD0000B0B543F2F02CC2F2000C43F240
:1018300048309CF854E0C2F2000000210122C0F8B8
:101840002C1180F8302100BF0CEB01120131002374
:10185000002400BFC518C2502C3385F82840582BEF
:1018600004F1010485F824E0A98385F82910F1D159
:10187000032900F15800E7D14EF24420C0F20400E1
:10188000CCF83000B0BD0000B0B582B004460B20EB
:101890000D4620F049FF70B1034603201880022056
:1018A0001872280A5D7298720025204600210122D4
:1018B000009521F041FB02B0B0BD00002DE9F047DA
:1018C00082B08046DDE90B090C46B9FA89F1B0FA1D
:1018D00080F04909400950EA01054FF00D0018BF9A
:1018E00003F10D0080B21E46924621F0E5F8F8B1F2
:1018F000074600680A9906803868A0F802A04FF0F1
:10190000160038724FEA14207C72B87235B107F1B4
:101910000D0528463246FFF7BBF8294638680B22EA
:101920004160404621463B46CDF8009021F004FB43
:1019300002B0BDE8F08700002DE9F04381B0804699
:1019400003F10D001F4615460C4620F0EDFEA8B130
:101950000646781DDDE9081930801020307206F146
:101960000D003A467480B580FFF792F84046214654
:1019700008223346CDF8009021F0DEFA01B0BDE830
:10198000F08300002DE9F04381B0804603F10D00A3
:101990001F4615460C4620F0C7FEA8B10646781D26
:1019A000DDE9081930800820307206F10D003A4652
:1019B0007480B580FFF76CF8404621460422334618
:1019C000CDF8009021F0B8FA01B0BDE8F083000036
:1019D00043F248304EF2DC21C2F20000C0F20401B2
:1019E000C0F82C11704700002DE9F04782B0DDF8F7
:1019F00028801D4691460C46064602F0FFF940B18C
:101A0000304621462A46434600F026F802B0BDE89B
:101A1000F08705F1170080B220F086FEC8B10746B6
:101A200005F10F003880D2203872200A07F10B0A26
:101A3000B872504641462A467C72FFF729F84AF8A8
:101A4000059000253046214611223B46009521F0A5
:101A500073FA02B0BDE8F0872DE9F04182B080460C
:101A600002F10B0080B21F4615460C4620F05CFECA
:101A7000A8B10646E81C30805220210A307206F1D7
:101A80000B00B17239462A467472FFF701F800273D
:101A9000404621460A223346009721F04DFA02B013
:101AA000BDE8F0812DE9F04182B0804602F10B00E3
:101AB00080B21F4615460C4620F036FEA8B10646F9
:101AC000E81C30801220210A307206F10B00B1723E
:101AD00039462A467472FEF7DBFF0027404621464E
:101AE00009223346009721F027FA02B0BDE8F081C1
:101AF00010B504460BF00EFF43F27C4CC2F2000C12
:101B0000DCF8201169B1238A0A8A934202D20022AA
:101B100008E000BF0A46096821B1088A8342F9D269
:101B200000E000220CF5907021460BF093FE01209E
:101B300021F034FE0BF00AFF10BD000043F27C419F
:101B4000C2F20001C1F830017047000080B521F0F9
:101B50006DFC80BD2DE9F0410C46064621F038FCB5
:101B600048B30546F4B143F2B458C2F2000898F8FD
:101B7000140000B300270AE0013798F81410F8B2F7
:101B80000234884205F1020528BFBDE8F0812088B3
:101B900028802388002BEFD0F9B23046002221F0B4
:101BA0002DFCE9E743F2B450C2F20000007D410091
:101BB0002846FFF773F8BDE8F081000043F2B45304
:101BC000C2F200031875C3E9031243F27C4043F2EA
:101BD0006541C2F20000C0F20201C0F83411704742
:101BE00043F2CC51C2F2000101EB400010F8010CAD
:101BF00070470000012A88BF704780B543F2CC537C
:101C0000C2F2000303EB4000831E08461946FEF7AC
:101C10003FFFBDE88040704740B143F2CC52C2F272
:101C2000000202EB400000F8011C10E043F2CC5C23
:101C30006FF00100C2F2000C0CEB0003DA78023006
:101C4000022A0A4608BF01220428DA70F4D170473C
:101C500080B523F0C9F9006880BD000080B543F26B
:101C6000F020C2F2000043F27C4C90F854E0C2F243
:101C7000000C0022634600BF01326FF01F0100BF5D
:101C800058182C31382980F82CE08284F8D1032AA6
:101C900003F15803F0D14EF2F420C0F20400CCF866
:101CA000280180BD80B543F27C41C2F200014EF2B2
:101CB000282242F2516343F2F02C0020C0F20402C9
:101CC000C0F20203A1F12C0EC2F2000CC1E94800DF
:101CD000C1E94A230CEB001301300022714600BF1A
:101CE00081F851200132CB6381F85000022A01F1C2
:101CF0002C01F5D103280EF1580EEBD14EF2E42061
:101D0000C0F20400CCF8340080BD000010B50446D9
:101D10000BF000FE43F27C40C2F20000D0F820112C
:101D200071B10A8AA24201D1002205E00A4609687F
:101D300031B10B8AA342F9D100F590700BF0B8FDD8
:101D4000012021F02BFD0BF001FE10BD70B582B01B
:101D500015460C4606460BF0DDFD01A9304621F084
:101D600035FE28B106468089A04203D20D240CE03E
:101D70000A240AE0706829462246FEF789FEB07BF5
:101D8000000744BFB068048000240BF0DFFD20464C
:101D900002B070BDB0B514460D4623F025F945607C
:101DA0000473B0BD10B50C4623F01EF9046010BDDD
:101DB00043F2DC50C2F200000021C0E90C1143F2F2
:101DC0007C4044F6F971C2F20000C0F20201C0F892
:101DD0002C1140F2781044F69941C2F20000C0F292
:101DE000020141647047000047F2E441C2F2000181
:101DF00009688968814228BF70476FEA51028242B0
:101E000001F101029CBF104470474908114481420E
:101E100028BF801A7047000080B546F6116146F66B
:101E20003D42C0F20201C0F20202032023F0C0FBD7
:101E300043F21460C2F200000021C0E90011C0E9C1
:101E40000211C0E90411C0E9061180BD80B546F653
:101E50006161C0F202010720002223F0A9FB46F6CF
:101E60003D71C0F202010820002223F0A1FB43F2E1
:101E70003C70C2F200002421FEF732FF80BD00005A
:101E800080B545F6AD61C0F202010620002223F0C4
:101E90008FFB43F26070C2F200003421FEF720FF96
:101EA00080BD000080B545F6117145F6E542C0F2EF
:101EB0000201C0F20202042023F07AFB43F6E8009C
:101EC000C2F200000021C0E90011C0E90211C0E91E
:101ED0000411816180BD000080B546F6E96146F6D7
:101EE0004542C0F20201C0F20202052023F060FB6D
:101EF00043F6E800C2F200000021C0E90011C0E989
:101F00000211C0E90411816180BD00002DE9F0419A
:101F100082B041F20015C4F20005D5F80402C007F2
:101F200028D0286830B30020286028684FF2045079
:101F3000C4F201004FF48041416047F67840C2F29C
:101F400000000178012906D141F25051C4F200018C
:101F500009680A2909D0017802297AD141F2505141
:101F6000C4F200010968022973D144F017FF02B0DE
:101F7000BDE8F081D5F80402400749D5A8680028DB
:101F800046D00020A86048F24416A868C4F20006B3
:101F90004FF4003048F24054C6F8C4010820C4F29F
:101FA00000041FF0DDFD0220C5F8000143F63C40AF
:101FB000C2F200000178012940F0F28044F23602BA
:101FC000C2F200021378032B40F0B68043F6D650DD
:101FD000C2F2000000781821022808BF0C21012855
:101FE000A06808BF1821084400F16A014FF20452AA
:101FF0002160A5F1FC01C4F20102C2F880104FF487
:102000008041C93011606060002030603068EBE0D2
:10201000D5F80402000740F11481E868002800F0B8
:1020200010810020E86044F23606E868C2F200063B
:10203000307803282DD10220307044F0E5FE43F6BD
:10204000D050C2F2000001680020884702B0BDE80D
:10205000F08144F23601C2F200010A78032A18BF67
:1020600002780978042903D00178022940F0F7802A
:1020700000226A6048F244116A68C4F200014FF419
:102080000032C1F8C0210A68002A1CBF01220A6080
:10209000E5E03078042840F0D48043F6DC50C2F20A
:1020A0000000006848F2405143F67852C4F2000143
:1020B000C2F200024078896812783823022A18BFD9
:1020C000032200FA02F041F2505708BF20231844BF
:1020D000C4F20007081A57F8084CA0F1090809F0E3
:1020E0005BFA04F07F0108440221317043F6795114
:1020F000C2F200010E7847F67941C2F20001097878
:1021000043F6D752C2F20002002908BF31461170CF
:1021100043F67452C2F20002D5F8001315684FF668
:10212000BC62CFF6FF72BA58C907C0F1000041B2D5
:1021300040F09A80042098E0012931D11278042AD5
:102140002ED143F67850C2F20000007843F6D65202
:102150000146C2F20002022818BF6FF0010192F896
:1021600000C043F6D852A368C2F2000292F900E020
:102170007D22022808BF7122D0180844BCF1020F4A
:1021800008BF013070444FF204512060A5F5807003
:10219000C4F20101C1F880004FF48040086041E0C2
:1021A000022945D144F23602C2F200021378042B10
:1021B00020D1D0E901104FF2045233392160A5F14A
:1021C000FC01C4F20102C2F880104FF4804111609A
:1021D0002168002801F17D0161604FF0000131604C
:1021E000316818BF44F012FD47F67840C2F2000093
:1021F00002211CE002291BD11178032918D1D0E952
:1022000001104FF2045228392160A5F58071C4F203
:102210000102C2F880104FF480410028116018BFFD
:1022200044F0F4FC47F67840C2F20000012101704E
:10223000012046F8F80C2068E168401AB0F1FF3F31
:1022400002DD02B0BDE8F0814FF20450C4F201009B
:102250004FF48041416047F67840C2F2000000210F
:10226000017002B0BDE8F081002043460096A84707
:1022700002B0BDE8F081000080B582B048F20830BD
:10228000C4F200004FF40031016041F20410C4F2C6
:102290000000006808B102B080BD44F07FFD43F645
:1022A0007450C2F20000D0F800C04FF0000E0320BE
:1022B000002100220023CDF800E0E04702B080BDFD
:1022C0002DE9F04F87B006468A460888317CC84021
:1022D000C00762D043F62C01C2F20001488898463C
:1022E00001304880D6E90001994649F8080FD960C5
:1022F000C8E90001B07C1D46DAF8041005F8130F98
:1023000014469874C1F3801011462A464B4623F0B8
:10231000C1F802284FF0000B00F0BD8006940128A0
:1023200008BF4FF0010BDAF80400DAE904742978E9
:10233000D9E90023CDE90274C0F3C0070097C0F3C8
:10234000800023F047F8BAF80210327C074621FAE1
:1023500002F02978D9E9002300F0010023F0FEF80B
:10236000874224D9DAF80400DAE904742978D9E933
:102370000023CDE90274C0F3C0070097C0F38000CA
:1023800023F028F800B3012824D0022824D1BBF17F
:10239000000F21D04FF0000B7DE043F62C00C2F27D
:1023A000000001884FF0000B0131018073E0BAF8A2
:1023B0000200317CD9E90023C840297800F00100EF
:1023C00023F0CCF80028DED1BBF1000F08BF4FF09E
:1023D000010B01E04FF0010B707C0121800788F8B0
:1023E00014B088F8151002D44FF0010B53E0F77CBD
:1023F000D6E90264DAF804002978D9E90023CDE9A6
:102400000423CDE900640291C0F3001006993A4616
:1024100023F002F88346012806D0BBF1020F05D154
:1024200000204FF0000B32E0002030E00AF10402FF
:1024300007CACDE90212C0F3400500F00100394699
:1024400032462346009522F0A3FF022812D14FF016
:10245000000067B104F4404191F4804F4FF0000B4D
:1024600015D19AF8040080064FF0000004D44FF014
:10247000000B0CE001200AE043F62C02C2F200023D
:10248000118C4FF0010B0131118488F815000028E0
:1024900018BF4FF0010B5FFA8BF007B0BDE8F08F6B
:1024A00070B582B008F0CCFC45F2153545F28124B8
:1024B00045F2F566C0F20205C0F2020445F2C163BE
:1024C000C0F20206C0F2020301202946224600960D
:1024D00001F042F845F2D163C0F20203022029461E
:1024E0002246009601F038F845F2FD6645F2E163B8
:1024F000C0F20206C0F20203032000212246009629
:1025000001F02AF845F28931C0F20201012001F000
:1025100033F843F29470C2F200009821FEF7E0FB1A
:1025200002B070BDB0B543F6520CC2F2000C0025EB
:102530008CF8005043F6530C8C07C2F2000C0C468A
:102540008CF8005001F1040E18BF2EF0030404EBC8
:102550000013591A47F2D843C2F2000391421C609B
:102560009CBF8CF800000D46A8B2B0BDB0B543F6D4
:10257000580CC2F2000C00258CF8005043F6590CA0
:102580008C07C2F2000C0C4600EBC0038CF8005024
:1025900001F1040E18BF2EF0030404EBC303591A13
:1025A00047F2DC43C2F2000391421C609CBF8CF8EE
:1025B00000000D46A8B2B0BD10B543F65B0CC2F2E8
:1025C000000C4FF0000E43F65A038CF800E043F67F
:1025D0005C0CC2F200038C07C2F2000C83F800E02E
:1025E00001F104030C468CF800E018BF23F003044B
:1025F00004EBC003591A47F2E043C2F200039142D0
:102600001C609CBF8CF800008E461FFA8EF010BD37
:102610002DE9F04F8BB0074600788A4600F00F088E
:102620000888012101FA08F919EA000F0DD01446B3
:1026300043F62C02C2F2000251887878013119F475
:10264000C07F51800AD00126EDE043F62C00C2F293
:1026500000000188002601310180E4E000F03F0025
:1026600083F810805874384610F8021B1D46C1F3D9
:10267000801601F011F82B4643F8080FE960C5E910
:102680000001DAF804002A4602F8136FAE74C0F3B2
:10269000801021460A929B4622F0FCFE02284FF051
:1026A000000600F0C080CDE90745012808BF0126DB
:1026B0000A9DDAF80400DAE9044C2978DBE9002302
:1026C000CDE9024CC0F3C0040094C0F3800022F0B6
:1026D00081FEBAF80210CDF824B0044619EA0100D0
:1026E0002978DBE9002318BF012022F037FF84425C
:1026F00015D9DDF828B0DDF82490DAF80400DAE91D
:10270000044C9BF80010D9E90023CDE9024CC0F33A
:10271000C0040094C0F3800022F05CFE0FE0BAF821
:102720000200DDF828B010EA0900DDF824909BF8DB
:102730000010D9E9002318BF012022F00FFF089DE7
:1027400030B1012808D0022807D136B100266AE04E
:10275000002E08BF012600E001260120B8F1050F78
:102760002E75687526D800FA08F010F02A0F21D0CF
:1027700017F8088B38464FEAD81400F08DFF07464B
:10278000DAF804009BF80020D9E900368946CDE943
:102790000436CDE900710292C0F300100799224679
:1027A00022F03AFE0646012806D0022E06D100206D
:1027B000002635E0012636E0002031E00AF104026F
:1027C00007CACDE90212C0F3400600F0010021461D
:1027D0003A464B46009622F0DBFD022815D14FFA0F
:1027E00088F0B0F1FF3F4FF000000CDC09F44041ED
:1027F00091F4804F4FF0000612D19AF80400800641
:102800004FF0000003D400260AE0012008E043F660
:102810002C02C2F20002118C01260131118468756C
:10282000002818BF0126F0B20BB0BDE8F08F000001
:10283000B0B546F2B842C2F2000292F8EBC081F89D
:1028400000C092F8EAE092F8EB30734508D1D2E983
:1028500036E3D2E93854634085EA0E052B4302D0B3
:102860004CF002030B70D2E93812C0E90012B0BD7F
:10287000B0B590F813C082F800C090F812E0C37CA5
:10288000734508D1D0E900E3D0E90254634085EAFA
:102890000E052B4302D04CF002031370D0E9020264
:1028A000C1E90002B0BD0000B0B590F813C082F8D5
:1028B00000C090F812E0C37C734508D1D0E900E372
:1028C000D0E90254634085EA0E052B4302D04CF058
:1028D00002031370D0E90202C1E90002B0BD00009A
:1028E000B0B545F63802C2F2000292F86BC181F829
:1028F00000C092F86AE192F86B31734508D1D2E9D1
:1029000056E3D2E95854634085EA0E052B4302D0C2
:102910004CF002030B70D2E95812C0E90012B0BDAE
:10292000B0B590F813C082F800C090F812E0C37CF4
:10293000734508D1D0E900E3D0E90254634085EA49
:102940000E052B4302D04CF002031370D0E90202B3
:10295000C1E90002B0BD0000B0B590F813C082F824
:1029600000C090F812E0C37C734508D1D0E900E3C1
:10297000D0E90254634085EA0E052B4302D04CF0A7
:1029800002031370D0E90202C1E90002B0BD0000E9
:10299000B0B590F813C082F800C090F812E0C37C84
:1029A000734508D1D0E900E3D0E90254634085EAD9
:1029B0000E052B4302D04CF002031370D0E9020243
:1029C000C1E90002B0BD000080B546F2B841C2F2D4
:1029D000000191F8EA2091F8EB3093424FF00002A9
:1029E000C0E900220AD1D1E936CED1E9383282EAF3
:1029F0000E0283EA0C031A4308BF80BDD1E93612E8
:102A0000C0E9001280BD000080B5827CC37C934287
:102A10004FF00002C1E900220AD1D0E900CED0E98E
:102A2000023282EA0E0283EA0C031A4308BF80BD19
:102A3000D0E90002C1E9000280BD000080B5827CBF
:102A4000C37C93424FF00002C1E900220AD1D0E9D1
:102A500000CED0E9023282EA0E0283EA0C031A4366
:102A600008BF80BDD0E90002C1E9000280BD0000BE
:102A700080B545F63801C2F2000191F86A2191F85B
:102A80006B3193424FF00002C0E900220AD1D1E934
:102A900056CED1E9583282EA0E0283EA0C031A4379
:102AA00008BF80BDD1E95612C0E9001280BD000008
:102AB00080B545F65D71C0F202010920002222F0C6
:102AC00077FD43F64C50C2F200002421FEF708F9CE
:102AD00080BD000070B543F6520C43F65301C2F2BC
:102AE000000CC2F200019CF800E009788E4524BF7A
:102AF000002070BD47F2D841C2F200010968049C71
:102B000001EB0E1528720EF101004FEA0E166C72E1
:102B10008CF8000001208A516B6070BD70B543F6DF
:102B20005201C2F200010C78FCB147F2D844C2F263
:102B300000042468DDF810C091F800E004F10801F9
:102B4000002404E00134744501F110010DD20D7828
:102B50008542F7D151E902565E4055403543F1D1E7
:102B60004D786545EED1012070BD002070BD00009C
:102B700043F65200C2F200000021017070470000CD
:102B800043F65300C2F20000007870472DE9F0438D
:102B900043F6520CC2F2000C9CF80010A9B347F2A5
:102BA000D847C2F20007D7F800E0DDF81C809CF897
:102BB00000900EF10804002505E000BF0135103437
:102BC0004D45494621D226788642F7D154E902671D
:102BD0005F4056403E43F1D166784645EED1C8B2DB
:102BE00002280CD30138854209D00EEB001213895C
:102BF000000123805EF80000526844E90202481E8A
:102C00008CF800000120BDE8F0830020BDE8F083CF
:102C1000F0B581B01E461546074622F089FB0446F2
:102C2000B0B943F6580043F65902C2F20000C2F2AE
:102C3000000201781278914256D247F2DC42C2F289
:102C40000002126801EBC10302EBC3040131017001
:102C5000002C4CD0DDE9061046EA0742C4E90852D0
:102C60000A684B688F68C9682260E160012163606F
:102C7000A76084F840100021625C22B90E2901F19E
:102C80000101F9D902E0002184F84010016842688E
:102C90008368C768204640F8101F0121C760836021
:102CA000426080F8311000216218127C22B90E298E
:102CB00001F10101F8D902E0002184F8411094F8F3
:102CC000411000294FF00001A4F84210C4E90A1194
:102CD000C4E90C11C4E90E1103D122F075FDC4E959
:102CE0000C01012001B0F0BD0024002CB2D1002065
:102CF00001B0F0BD2DE9F04182B0DDE9087814465D
:102D0000064610463A4643460D4622F011FB20B1D6
:102D100090F8411019B1002423E0002421E0D0E90B
:102D20000E0169407040084301D1012419E043F6C7
:102D30005400C2F20000D0F800C0BCF1000F0FD068
:102D400043F62C00C2F20000818C00220131818404
:102D5000304629462346CDE900780024E04700E0CC
:102D60000024204602B0BDE8F0810000F0B583B039
:102D700043F65806C2F2000635786DB347F2DC45DB
:102D8000C2F200052D6896F800C005F12004002568
:102D90004FF0000E08E04FF0010E0126CEB10135D4
:102DA000654504F1480419D294F82060002EF4D14E
:102DB000D4E902674F4046403E43ECD1A67906F085
:102DC000010616702668A788C3E900670026002E52
:102DD000E5D14FF0010C1EE04FF0000EBEF1000FE8
:102DE0004FF0000C17D043F65407C2F200073D68BD
:102DF0008DB143F62C07C2F200077E8C01367E842B
:102E000092F800C0D3E9002763460092012201979F
:102E1000A8474FF0000C604603B0F0BD43F65800E1
:102E2000C2F200000021017070470000B0B522F02E
:102E30007FFA18B1044690F8400008B10020B0BDF8
:102E400094F84200049D38B9204622F0BDFCC4E944
:102E50000A01012084F84200D4E90A01C5E9000111
:102E60000120B0BD80B522F063FA28B1029990F834
:102E700043000870012080BD002080BD43F659004A
:102E8000C2F20000007870472DE9F04381B043F6AC
:102E90005808C2F2000898F8000050B347F2DC4925
:102EA0000026C2F200090125002708E084F84450FA
:102EB00098F800000137874206F1480619D2D9F880
:102EC0000000841994F8410028B904F1100022F0A0
:102ED0007BFCC4E90C0194F840000028E6D194F88A
:102EE00042000028E2D0204622F06EFCC4E90A012C
:102EF000DCE701B0BDE8F08370B51446DDE90423DA
:102F0000054620460E4622F013FA10B190F8411003
:102F100009B1002070BDD0E90E017140684008433E
:102F200004BF012070BD002070BD000080B522F0FC
:102F3000FFF9014600284FF0000008BF80BD91F85E
:102F4000442081F84400104680BD000080B522F086
:102F5000EFF960B1D0E90C1211431CBF032080BD12
:102F600090F841100120002908BF022080BD0020F8
:102F700080BD000080B522F0DBF960B1D0E90A1213
:102F800011431CBF032080BD90F840100120002990
:102F900008BF022080BD002080BD000080B522F067
:102FA000C7F900281CBFD0E90C0150EA010201D189
:102FB000002080BD029AC2E90001012080BD00000E
:102FC00080B522F0B5F900281CBFD0E90A0150EA0B
:102FD000010201D1002080BD029AC2E90001012056
:102FE00080BD0000B0B522F0A3F9B8B143F6580493
:102FF000C2F200042578022D0CD347F2DC41C2F264
:103000000001096805EBC50201EBC20148394822FD
:10301000FDF7C5FD681E20700120B0BD0020B0BDC9
:103020002DE9F0410C461178D3E900230546084606
:1030300022F07EF943F62C08C2F2000808F11407CA
:1030400028B1064690F8410018B1002018E0002091
:1030500016E0D6E90E0161406840084304BF012034
:10306000BDE8F08106F110002A46234624F0AAF8B4
:1030700000280FBF0020C6E90E5408F116070120F2
:10308000398801313980BDE8F08100002DE9F04F29
:1030900081B043F65805C2F200050F462978002991
:1030A00053D047F2DC469A468346C2F200064FF000
:1030B00000094FF0000800BF306800EB090494F8E5
:1030C000400018B1002080B34AE000BFD4E90A01F3
:1030D000794080EA0B00084319D02E461546204659
:1030E0005A463B4624F06EF838B343F62C01C4E947
:1030F0000AB7C2F20001488A002284F842202A4618
:10310000354647F2DC460130C2F20006488294F8A8
:10311000260000F001001070206AA18CCAE90001AD
:103120000120002808BF0020D0B9287808F1010844
:10313000804509F14809BFD307E02A46354647F2E2
:10314000DC460020C2F20006EBE743F62C01C2F297
:103150000001088A01300882002001B0BDE8F08F2C
:10316000012001B0BDE8F08F43F65401C2F2000126
:103170000860704780B522F0DBF800280FBF002000
:10318000029980F84310012080BD000080B522F034
:10319000CFF830B10299D1E90012C0E90C12012038
:1031A00080BD002080BD000070B543F29476C2F26D
:1031B00000060C460546C6F88C00A6F8881000F0FC
:1031C00085F9806A007805280AD196F870000028F1
:1031D00018BF70BD22F03EFA2846214607F08EFE49
:1031E00070BD000080B545F6B97145F61552C0F2C4
:1031F0000201C0F20202022022F0DAF943F6805006
:10320000C2F200002821FDF76BFD80BDB0B547F28A
:103210006D0447F21501C0F20204C0F20201002061
:103220002246002522F0C4F946F6C571C0F202011B
:103230000120224622F0BCF943F6A850C2F2000059
:10324000C0E90055C0E90255C0E904558561B0BD2B
:103250002DE9F0410C46054600F038F9806A007807
:1032600004280ED143F29470C2F2000090F870006E
:1032700038B922F0EFF92846214607F01FFFBDE8D4
:10328000F08143F6E808C2F20008B8F8166007F0CB
:103290009BFF43F63847C2F200073968401AB04234
:1032A00002D2B8F8160003E007F08EFF3968401A22
:1032B000A8F8160022F0CEF92846214607F048FF6C
:1032C000BDE8F08170B51D461446064600F02AF8A8
:1032D00008B1012070BD43F65B0043F65C02C2F208
:1032E0000000C2F2000201781278914224BF00204F
:1032F00070BD47F2E042C2F20002126845EA06439E
:1033000002EBC10642F831400131736001700120C7
:1033100070BD000043F65A00C2F2000001210170A6
:103320007047000010B543F65B0EC2F2000E9EF827
:103330000010B1B143EA004C47F2E040C2F2000095
:1033400001689EF800E0002001EBC00351F8304016
:103350005B68544083EA0C03234304D0013070457A
:10336000F2D3002010BD012010BD000043F65B0029
:10337000C2F200000021017043F65A00C2F20000C0
:103380000170704743F65C00C2F20000007870479D
:1033900043F65A00C2F2000000787047F0B543F6D9
:1033A0005B0CC2F2000C9CF80010C9B143EA004E5D
:1033B00047F2E040C2F2000000689CF800300024B0
:1033C000E6B200EBC60550F836606F68564087EAF3
:1033D0000E073E4306D00134E1B299421946EFD3BD
:1033E0000020F0BDCAB2022A05D300EBC20050E9AA
:1033F0000202C5E90002481E8CF800000120F0BD61
:1034000043F65A00C2F2000000210170704700002C
:1034100010B543F66004C2F200042068002808BF1B
:1034200010BD417D01EB410104EBC101C9680029D8
:1034300018BF88470020206010BD0000B0B543F6DB
:103440006005C2F200050446286095F8810000215D
:10345000002885F8821008BF07F0AEFE95F88100BD
:1034600030B195F88000617D814218BF23F0D0F81B
:1034700095F8810010B9607D23F0B4F8607D00EB11
:10348000400005EBC000816809B12046884795F8E7
:10349000820000281CBF00202860B0BD47F2E44035
:1034A000C2F20000006880687047000043F66000C8
:1034B000C2F2000090F882007047000047F2E4403A
:1034C000C2F20000006800887047000043F6600008
:1034D000C2F200000068704747F2E440C2F2000008
:1034E0000068C08870470000B0B50D46FEF77CFC50
:1034F00004462846FEF778FC47F2E441C2F2000198
:10350000844207D90968201A8968B0EB510F88BF37
:103510000020B0BD0968001B8968B0EB510F92BF55
:103520000020081A0130B0BD80B507F06FFE43F6E9
:103530006000C2F200008421FDF7D2FB80BD0000D4
:1035400047F2E441C2F200010860704743F66001AF
:10355000C2F200014860704780B500EB400E43F6B0
:103560006000C2F2000000EBCE000830DDF808C0B9
:1035700080E80E1080BD000043F6600200EB4000C2
:10358000C2F2000202EBC0008161704743F66000A6
:10359000C2F20000016800291CBF012180F88210DE
:1035A00070470000B0B543F66005C2F2000595F81B
:1035B0008110044621B907F0FFFD204623F012F8E0
:1035C00004EB440005EBC000C1690131C161B0BD2D
:1035D00080B543F6600100EB4002C2F2000101EB4E
:1035E000C202D369013BD3610BD191F8812042B172
:1035F00091F88010814218BF80BD23F009F807F0D0
:10360000D1FD80BD10B543F66004C2F2000420680D
:1036100040B1407D00EB400004EBC0008069002811
:1036200018BF8047002061682060012084F8820074
:10363000884710BD110A4170110C4FEA132C81709C
:10364000110E0270C170037180F805C07047000050
:1036500000220146828006300A60704780B506224B
:10366000FDF75CF9B0FA80F0400980BD8A8882805D
:10367000096801607047000080B582B00021ADF894
:103680000410009169460622FDF748F9B0FA80F06F
:10369000400902B080BD0000026881881046704772
:1036A000026841681046704743F63740C2F2000096
:1036B0000078002808BF70474FF20830C4F20000BD
:1036C0000121016043F62510C2F200004178FF2974
:1036D00006D043F6D451C2F2000109784170704718
:1036E000FEE70000D1F800C04B68CA688968C26074
:1036F00081604360C0F800C0704700004A680968F4
:10370000426001607047000001390138102200BF9B
:1037100011F801CF10F8013F013A8CEA030C1306AF
:1037200080F800C0F4D1704780B581B14EF2283CDA
:10373000013AC0F2040C00BF12F801EFC3B283EAF1
:103740000E035CF82330013983EA1020F4D1C04322
:1037500080BD00002DE9F04F83B043F6E05BC2F27C
:10376000000BDBF8040010B103B0BDE8F08F9BF84C
:10377000095000260DF10B080DF102090DF1040AA4
:10378000002403E0032C04F10104EDD2E8B201357A
:103790008DF80B60022888BF0025EFB2780050FA40
:1037A00085F00BEB8000436A0196002BADF80260B8
:1037B000E8D040464946524698470028E2D0019951
:1037C0009DF80B00CBF804108BF808008BF809501B
:1037D00023F056FD9DF80B10BDF80220019B3846E2
:1037E00023F092FD03B0BDE8F08F0000F0B581B08A
:1037F00043F6E057C2F200070D46064638466821F8
:103800001446FDF76DFA284621463E70BD81FC81C5
:1038100000F03EF801B0F0BD80B543F6E050C2F2D2
:1038200000004068002818BF80BD0020FFF792FF0D
:1038300080BD0000032888BF704700EB400C43F6B2
:10384000E050C2F2000000EB8C001C300EC070474C
:1038500043F6E051C2F20001886170474EF6045011
:10386000CEF200004FF0006101607047B0B582B049
:103870008DF807100DF1070001211C46154610F0C8
:10388000C7FD2046294610F0C3FD284602B0B0BD52
:103890007047000010B5144601294FF0000206D011
:1038A000052903D0022907D1012200E00322114695
:1038B0001A4623F0F7FC2246104610BD0139C9B262
:1038C000022984BF0020704780B54FEAC10C40F246
:1038D0000241C0F2050121FA0CF1C9B2FFF7C6FF9F
:1038E00080BD000080B5042009F024FF002808BF37
:1038F00080BD014643F69460C2F20000007B0522C1
:103900008A7009F04BFF80BD2DE9F04107460E207B
:10391000984616460C4609F00DFF002808BFBDE882
:10392000F08105460020A870E81D41466C712F719A
:10393000AE71FFF79BFE43F69460C2F20000007B7D
:10394000294609F02BFFBDE8F081000070B5144650
:103950000D46064609F0DEFF43F69C71C6EBC60035
:10396000C2F2000101EB4000C570047109F0EEFFE6
:1039700070BD000080B509F0CDFF40F2C4104EF6D6
:103980005401C2F20000C0F20401016024F07AF98F
:1039900043F69870C2F2000000210160002002F09E
:1039A0008FF809F0D3FF80BDB0B50C46054609F08D
:1039B000B1FF43F69C71C5EBC500C2F2000101EBFB
:1039C0004000847009F0C2FFB0BD0000B0B50C46E5
:1039D000054609F09FFF43F69C71C5EBC500C2F296
:1039E000000101EB4000047209F0B0FFB0BD00001F
:1039F00010B5044609F08EFF43F69460C2F2000051
:103A0000847309F0A3FF10BDB0B50C46054609F05C
:103A100081FF43F65060C2F200002844C47709F0E9
:103A200095FFB0BD2DE9F041064603F108001C46A4
:103A300090460F4609F07EFE002808BFBDE8F081E1
:103A4000054606990120A87005F1080022462E714E
:103A50006F7185F80680EC71FDF71AF843F69460F3
:103A6000C2F20000007B294609F098FEBDE8F08113
:103A7000B0B50C46054609F04DFF43F69C71C5EB09
:103A8000C500C2F2000101EB4000447209F05EFF84
:103A9000B0BD000070B514460D46064609F03AFF69
:103AA00043F65060C2F2000000EB46000582C4827B
:103AB00009F04CFF70BD0000F0B581B01C46154602
:103AC0000E46074609F026FF43F69C71C7EBC70078
:103AD000C2F2000101EB400046718571C47109F02A
:103AE00035FF01B0F0BD000070B506460C200D4654
:103AF00009F020FE002808BF70BD04460620A07013
:103B0000601D29462671FFF7B1FD43F69460C2F2AD
:103B10000000007B214609F041FE70BD2DE9F04117
:103B200007461220984615460E4609F003FE002867
:103B300008BFBDE8F0810146022088700F717FB197
:103B4000002000BF325C0B185A7135F8102001EBD1
:103B50004004228118F80020013087429A73F1D185
:103B600043F69460C2F20000007B09F017FEBDE846
:103B7000F0810000B0B5044608200D4609F0DAFDDA
:103B8000002808BFB0BD0146032088700C713CB10D
:103B9000081D6A1E12F8013F013C00F8013FF9D1EF
:103BA00043F69460C2F20000007B09F0F7FDB0BD5F
:103BB000B0B50C46054609F0ADFE43F69C71C5EB69
:103BC000C500C2F2000101EB4000447009F0BEFEE6
:103BD000B0BD0000B0B586B094460A46DDE90A1EC5
:103BE0000C9C0125CDE9003100216346CDF808E0A9
:103BF0000495039424F0E0FB06B0B0BD10B5044674
:103C000009F088FE43F6B86104EB4400C2F20001FB
:103C100001EB001030F8224C09F098FE204610BD50
:103C200070B50446242015460E4609F083FD002891
:103C300008BF70BD01461920887043F69460C2F237
:103C40000000007B0E800D71CD704C7109F0A6FD57
:103C500070BD000043F6B861C2F200010C310322CE
:103C600007E000BF013A130601F1300104BF002054
:103C700070478B7A002BF5D00B888342F2D10879FC
:103C80007047000043F6B86100EB4000C2F200014B
:103C900001EB001010F81A0C7047000080B509F015
:103CA00039FE40F2C4104EF6B4014EF66002C2F284
:103CB0000000C0F20401C0F20402C0E903124EF693
:103CC0003011C0F20401816343F6AC604EF66C0122
:103CD000C2F20000C0F20401016043F68C704EF69F
:103CE0001C11C2F20000C0F20401016009F02EFEB6
:103CF00080BD000043F6B86100EB4000C2F2000155
:103D000001EB00102A38704743F6B86100EB400021
:103D1000C2F2000101EB001010F81C0C704700000B
:103D200043F6B86100EB4000C2F2000101EB001065
:103D30001638704780B509F0EDFD43F6AC604EF6DD
:103D40008C01C2F20000C0F20401416043F68C70A5
:103D50004EF62011C2F20000C0F20401416009F0E9
:103D6000F5FD80BD80B586B09C460023CDE90033CB
:103D70000292049300220023CDF80CC024F01CFB17
:103D800006B080BD43F6B86100EB4000C2F200010E
:103D900001EB00103038704743F6B86100EB40008B
:103DA000C2F2000101EB001010F81D0C704700007A
:103DB00043F6B86100EB4000C2F2000101EB0010D5
:103DC00010387047B0B50C46054609F0A3FD43F620
:103DD000B860C2F2000000EB8500C0F8904009F026
:103DE000B5FDB0BD43F6B86100EB4000C2F2000182
:103DF00001EB001010F8170C7047000043F6B86193
:103E000000EB4000C2F2000101EB001010F8190CA9
:103E10007047000010B5044609F07CFD43F694603D
:103E2000C2F20000447309F091FD10BD80B5014657
:103E3000012024F05BFB80BD70B516460C4605469C
:103E400009F068FD2846FFF71DFF68B143F6B86129
:103E500005EB4500C2F2000101EB00103EB130F865
:103E6000221C214320F8221C09F070FD70BD30F89F
:103E7000221CA14320F8221C09F068FD70BD00003F
:103E800080B50A460146012024F04CFB80BD0000AD
:103E900080B509F03FFD43F6AC604EF6A401C2F2D6
:103EA0000000C0F20401816043F68C704EF62811C8
:103EB000C2F20000C0F20401816009F047FD80BD3C
:103EC00080B5042009F036FC002808BF80BD0146FB
:103ED00043F69460C2F20000007B38228A7009F039
:103EE0005DFC80BD80B524F049FD80BD80B50A46EB
:103EF0000146002024F042FD80BD000010B50446BC
:103F000043F69460C2F200002146FFF7AFFB204663
:103F100001F04CFC10BD000080B509F0FBFC40F244
:103F2000C4104EF64801C2F20000C0F20401016064
:103F30004EF6AC11C0F20401816224F0FBFF25F0C3
:103F40007DFB43F6987045F28141C2F20000C0F259
:103F500000010160002001F0A7FD4FF44050002156
:103F6000012201F083FD09F0F1FC80BD80B509F06C
:103F7000D1FC43F6AC604EF68401C2F20000C0F200
:103F80000401416043F68C704EF62011C2F200002D
:103F9000C0F20401416009F0D9FC80BD2DE9F04177
:103FA0000C46054600264FF001080020002708E0D7
:103FB000062E88BFBDE8F081F8B2032806F101069D
:103FC0000CD208FA06F22A42F2D000EB400004EBD1
:103FD0008001D0B224F08AFA0137E9E7BDE8F08128
:103FE0002DE9F04381B091460D46064600274FF07B
:103FF00001080020002400BF08FA07F3334207D06D
:1040000035F8101039F81020D8B224F08BFA0134AA
:10401000062F04D8E0B2032807F10107ECD301B062
:10402000BDE8F08380B509F075FC43F6AC604EF650
:104030009401C2F20000C0F20401816043F68C706A
:104040004EF62811C2F20000C0F20401816009F0AE
:104050007DFC80BD80B509F05DFC40F2C4104EF6D9
:10406000DC11C2F20000C0F20401816025F00AFEFA
:1040700025F0F2FF09F06AFC80BD000010B5D1B157
:1040800092F800E04FF0000CBEF1000F11D08BB29F
:1040900073450ED9144614F8013F9446834208D064
:1040A0006FEA0E0211440A0404EB0E02E8D14FF04D
:1040B000000C604610BD002010BD000080B599B115
:1040C00043F69460C2F20000007C002818BF80BD57
:1040D00088787C2202EA500040F2C412C2F2000248
:1040E000105882680846904780BD000080B543F6AE
:1040F0009461C2F2000108730020C875087449F287
:10410000B140C0F2020000F029FE80BD43F6946188
:10411000C2F20001C97D002908BF7047022804BF10
:1041200000207047032808BF0120704780B5014672
:10413000032025F0D7F980BD80B582B0ADF804101A
:1041400043F6B861C2F20001D1F89C107622ADF8B6
:1041500006006846ADF80220884702B080BD000026
:1041600010B582B00C4624F047F838B173218DF8B1
:1041700002106946ADF8044024F02AFB02B010BDDD
:10418000B0B584B005460846144624F035F840B171
:1041900072218DF8061001A902948DF80C5024F0BC
:1041A00017FB04B0B0BD000043F69461C2F20001F9
:1041B000C97D002908BF7047002804BF022070474E
:1041C000012808BF0320704710B50446062009F0F7
:1041D000B1FA002808BF10BD01465220887043F68E
:1041E0009460C2F20000007B0C7109F0D7FA10BD98
:1041F00010B50446062009F09DFA002808BF10BD3E
:1042000001465320887043F69460C2F20000007BA0
:104210000C7109F0C3FA10BD80B509F07BFB40F2C8
:10422000C4104EF6B811C2F20000C0F2040141629F
:104230004FF410600021012201F018FC09F086FB08
:1042400080BD00002DE9F04381B004462C20984643
:1042500016460F4609F06EFAF0B10546DDE9089002
:104260003121A9702880681D39462C71FFF7FEF9AD
:1042700005F10B003146FFF735FA05F11B00414609
:10428000FFF730FA43F69460C2F20000007B294643
:1042900085F82B9009F082FA01B0BDE8F0830000A8
:1042A00080B52C2009F046FA002808BF80BD0146E1
:1042B0003320887043F69460C2F20000007B09F05E
:1042C0006DFA80BD80B509F025FB40F2C4104EF6B2
:1042D000D011C2F20000C0F2040181614EF6C41197
:1042E000C0F20401C16309F031FB80BD10B5044682
:1042F0002C2009F01FFA002808BF10BD0146342009
:1043000088700020088043F69460C2F20000007BB1
:104310000C7109F043FA10BD10B59AB040F2C41107
:10432000C2F20001096A4EF6481243F69464C0F2E4
:104330000402C2F200049142A0600AD000F032FDF3
:10434000442806D80020C0F27710A168019001A887
:1043500088471AB010BD0000B0B5054610200C46C5
:1043600009F0E8F9002808BFB0BD01462220887096
:104370000D8020686268A368486043F694608A6094
:10438000CB60C2F20000007B09F008FAB0BD00006B
:1043900080B509F0BFFA40F2C4104EF6E811C2F23F
:1043A0000000C0F20401816025F06CFC09F0CEFA37
:1043B00080BD000080B525F08DFC80BD10B50446A1
:1043C00009F0A8FA43F69460C2F20000C47309F041
:1043D000BDFA10BD2DE9F04381B091460D46064669
:1043E00000274FF001080020002400BF08FA07F35F
:1043F000334207D035F8101039F81020D8B225F024
:104400008FFC0134062F04D8E0B2032807F101071E
:10441000ECD301B0BDE8F0832DE9F04381B007464D
:104420001020984616468946102409F083F930B3C7
:10443000DDE908EC014684700771431D002000246B
:10444000002200BF27FA00F5ED0702D0355D0132EA
:104450001D55D4B2022C03D8072800F10100F1D376
:1044600043F69460C2F20000007B81F80890A1F846
:104470000AE0A1F80CC081F80E8009F08FF901B0B4
:10448000BDE8F08380B5042009F054F9002808BF86
:1044900080BD014643F69460C2F20000007B112209
:1044A0008A7009F07BF980BDF0B581B0074616200F
:1044B00015460C4609F03EF968B106460420B07076
:1044C0003780347525B1301D29462246FCF7E0FAC5
:1044D000304608F0A5FC01B0F0BD0000B0B50546BF
:1044E00004200C4609F026F9002808BFB0BD0321BE
:1044F00081700580C47008F093FCB0BDF0B581B048
:104500000746202016460C4609F014F988B10546E6
:104510002820A870281D31461A222F80FCF7B8FAEF
:1045200043F69460C2F20000007B2946AC7709F0A4
:1045300035F901B0F0BD0000C0684DF6836100BAE6
:10454000C4F21B31A0FB0112910C43F609525143F6
:10455000A0EB81107047000046F64010C2F2000048
:104560007047000044F21C00C2F20000406870472F
:1045700044F21C00C2F200000068704740F2C41010
:104580004EF6F411C2F20000C0F20401416144F29F
:104590001C004EF21631C2F20000C0F20401C0E964
:1045A0000011704740F2C4104EF60021C2F2000024
:1045B000C0F20401016270472DE9F0410446162063
:1045C000984616460F4609F0B5F8002808BFBDE822
:1045D000F08105462920A8702C802F756E751FB1BB
:1045E000281D4146FFF77EF843F69460C2F20000B2
:1045F000007B294609F0D2F8BDE8F081F0B581B022
:10460000074608201C4615460E4609F093F868B187
:1046100006990122827004F0070201F00701078069
:10462000067145718271C17108F0FAFB01B0F0BDED
:10463000F0B581B0074608201C4615460E4609F025
:1046400079F868B106990222827004F0070201F03D
:1046500007010780067145718271C17108F0E0FBA6
:1046600001B0F0BD80B5014646F64010C2F2000030
:104670006022FCF70DFA80BD10B5044609F04AF936
:1046800044F21C00C2F20000446009F05FF910BD62
:1046900010B5044609F03EF944F21C00C2F20000D5
:1046A000046009F053F910BDB0B5054606200C466C
:1046B00009F040F8002808BFB0BD052181700580D1
:1046C000047108F0ADFBB0BD10B5044680782C280D
:1046D00001D02A2808D143F6B860C2F20000D0F811
:1046E000901009B12046884743F69460C2F200005A
:1046F00081682046884710BDB0B514460D4623F0AA
:1047000093FD002808BFB0BD0021828981744EF25C
:1047100016310576C0F2040110460022234601F04E
:104720009FF8B0BDF0B591B00646104615460C4650
:1047300048F0BEF908B111B0F0BD09AF38462146C6
:1047400048F07AFB01A831463A4648F067FB384604
:10475000394648F071FB204621462A4648F05EFB68
:104760002846294648F068FB304631462A4648F03C
:1047700089FA284629462A4648F084FA28463146CE
:104780002A4648F067FB304631462A4648F046FB49
:1047900028463146324648F075FA304631462A46B8
:1047A00048F070FA3046002148F062FC80B14EF6C5
:1047B0002802C0F204023046314648F035F9074677
:1047C000304648F0D9FBF06940EAC770F06102E07A
:1047D000304648F0D1FB2846314648F02DFB01AF6A
:1047E000284629463A4648F035FB284629463A46A7
:1047F00048F030FB384639462A4648F02BFB304615
:1048000031463A4648F00AFB09AF384631463A4647
:1048100048F020FB3046294648F0BCFB284621469C
:1048200048F0B8FB2046394648F0B4FB11B0F0BD63
:1048300010B5044648F03CF938B104F1200048F0C6
:1048400037F9002818BF012010BD002010BD00005E
:104850002DE9F04F8BB004460078042827D88A460B
:104860001646DFE800F003264266810004F12407C3
:10487000DDF850A03846314604F1040848F08AFBC0
:1048800004F1640506F12001284604F1440948F0CA
:1048900081FB3846294642464B46CDF800A009F038
:1048A0008FF9FF20C4F8840000250120A9E001252C
:1048B000A8E0D4F88410184648F0DAFBB0FA80F18A
:1048C000221D4B09002818BF012002EB401704F1FC
:1048D000440606EB401102EB431206EB4313384645
:1048E00009F0FEF8002502208BE0D4F88410184669
:1048F00048F0BEFBB0FA80F14909221D002818BF1C
:10490000012002EB411704F1440303EB411102EBD8
:10491000401203EB4013384609F094F8D4F88400B1
:1049200000250138C4F884004FF00300C8BF0120FF
:1049300067E018460021002548F09AFBB0FA80F1A4
:10494000221D4B09002818BF012002EB401704F17B
:10495000440606EB401102EB431206EB43133846C4
:1049600009F0BEF804204CE01846002148F080FB16
:104970000546B0FA80F0400904F1040903AF029043
:1049800004F1240138464A46002D18BF012548F09D
:1049900061FA04F1440808EB451B384639465A468B
:1049A00048F03CFA38463946324648F037FA38463D
:1049B000394648F07FF906F120023846394648F07A
:1049C0002DFA09EB4515384639462A4648F026FAAD
:1049D00002992A4609EB411008EB41115B4609F0A8
:1049E00031F8484641463A461DF0EAFC50464946F1
:1049F00048F0D0FA0AF12000414648F0CBFA0125F0
:104A00000520207028460BB0BDE8F08F80B59307D5
:104A100006D4D20700F10C0015D11DF015FD80BDA4
:104A2000C36802F0010203EA010040EA020C884276
:104A3000184618BF0020002A08BF1846BCF1000F16
:104A400008BF604680BD1DF0D7FC80BD80B50C302E
:104A50001DF096FD80BD000080B540F23712C8F20F
:104A6000010247F095FD80BD80B540F23112C8F2D9
:104A70000102014647F08CFD80BD000080B540F288
:104A80003812C8F2010247F083FD80BD80B540F2C4
:104A90003312C8F2010247F07BFD80BD80B540F2C1
:104AA0003212C8F2010247F073FD80BD80B542F0BA
:104AB0000BF847F0ABFC80BD2DE9F04F85B04FF00F
:104AC000000801244FF480760827CDF8108004E018
:104AD0006400013F06F1040610D0B5B2284640F04C
:104AE000A7FC0028F4D0204640F0CCFC0028EFD0F2
:104AF000284640F05DFC48EA0408E9E74FF4BE7040
:104B000040F096FC40B14FF4BE7040F051FC04A858
:104B100048F0004840F03EFC5FEA08601CD00127E6
:104B2000002404E00134082C4FEA470714D017EAA8
:104B3000080FF7D0204640F085FC0546204640F09F
:104B40008BFC0646204622F069FB0028EAD002468C
:104B5000284631469047E5E7B8F1FF3F02DD05B052
:104B6000BDE8F08F46F6A4184FF000094FF0FF3073
:104B7000C2F200080DF1080B03254FF0000ACDF832
:104B80000C90029009E000BF4FF0000A4FF00009BE
:104B90005FEA0A604FF0000AE1D008EB090090F8E4
:104BA0005040FF2C38D004F03F063046594640F0C4
:104BB000F5F988B3304622F05BFB22F02FFBB5EB12
:104BC000941F074600D03FB3A409032C03D13046FD
:104BD00003A940F0EDF9304640F072FB054630463F
:104BE00004A940F0DBF9022D00D110B9032D11D139
:104BF00080B9032C08D102213046022D08BF0321C1
:104C000040F0FCFA0AF1010A03252FB13046214693
:104C1000B84701E0032500BF09F10109B9F1040F0C
:104C2000BBD15FEA0A60AFD001A840F0B3FB0198A6
:104C300004998842A8D0039904900291A6E7000045
:104C40004EF60450CEF200000068102101EA106018
:104C50007047000044F24012C2F20002C2E90401AF
:104C60007047000070B582B039B1887801283DD115
:104C7000084626F0DFFB02B070BDC00736D044F214
:104C80004014C2F200040DF10701204608F062FD55
:104C900060B306460DF1070509E000BF304608F095
:104CA0006FFD2046294608F055FD0646F0B19DF8F7
:104CB000070002280CD0042812D1304627F092FDBC
:104CC00094F821000028E9D0304626F0CFFDE5E732
:104CD000304626F0B1FB0028E3D0216904E000BF94
:104CE000A1690029DAD030468847DAE702B070BD02
:104CF00080B544F28010C2F200000021C0E91C110E
:104D00006FF01B014FF6FF7243181C3138299A854A
:104D1000FAD14FF0FF31C0E91511C1651B21A0F890
:104D20007C1040F20511A0F880100021C0F8A010FE
:104D300026F0E2FC80BD0000B0B50C46054640F20E
:104D40000640032126F020FB002808BFB0BD290A39
:104D5000C5700171447126F047FBB0BD44F24011AB
:104D6000C2F200018860704744F28010C2F2000075
:104D70006830704744F28010C2F20000B0F87E0044
:104D80007047000044F28010C2F20000D0E9220116
:104D90007047000044F28010C2F20000B0F89200A8
:104DA0007047000044F28010C2F20000B0F87C00AE
:104DB0007047000044F28010C2F2000090F89400A6
:104DC0007047000080B5FFF74DFF80BD80B544F20D
:104DD0004011C2F2000181F820000020C1E900006A
:104DE000FFF786FF80BD00002DE9F04188460746A9
:104DF00042F2270027211C46164626F0C5FA002855
:104E000008BFBDE8F081054604304146EF70FEF76B
:104E10002DFC30687168F268B368C5F81620C5F8D3
:104E20001230C5F80E10C5F80A0020686168A26843
:104E3000E368C5F81A002846C5F81E10C5F82220F8
:104E4000C5F8263026F0D0FABDE8F08180B542F2F0
:104E50003D00002126F098FA002818BF26F0C4FA79
:104E600080BD000080B542F22900002126F08CFAB6
:104E7000002818BF26F0B8FA80BD0000B0B50C4677
:104E8000054642F213000E2126F07EFA002808BFE4
:104E9000B0BDA0F803502178417161788171A1788B
:104EA000C171E17801722179417261798172A179D0
:104EB000C172E1790173217A4173617A8173A17AB8
:104EC000C173E17A017426F08FFAB0BD80B542F269
:104ED0000E00002126F058FA002818BF26F084FAA8
:104EE00080BD00002DE9F0470F46054642F20D0057
:104EF00019219846914626F047FA002808BFBDE8D8
:104F0000F0870446C570280ADDE9081A2071380ABE
:104F10000A9EA07104F10900677184F8079084F873
:104F20000880FEF7A3FB84F80FA030782074707817
:104F30006074B078A074F078E0743079207570797E
:104F40006075B079A075F079E075307A2076707A66
:104F50006076B07AA076F07AE076204626F044FAC1
:104F6000BDE8F087B0B50C46054642F21700202197
:104F700026F00AFA002808BFB0BD29686A68EB6805
:104F8000AD68C0F80F30C0F80B50C0F80720C0F86B
:104F9000031021686268A368E568C0F81310C0F8C0
:104FA0001720C0F81B30C0F81F5026F01DFAB0BD06
:104FB0002DE9F0470746007A14468846002600216E
:104FC00020FA01F2D20718BF0136062904D8F2B23E
:104FD000042A01F10101F3D35FFA86F94FEA0910BF
:104FE00000F10A0142F2430026F0CEF9002808BF82
:104FF000BDE8F087824638788AF8030078788AF826
:105000000400B8788AF8050079680AF10600FEF70E
:105010002DFB387A31068AF80C0034D04FEA49016A
:1050200051FA86F1AAF103004FEA810CA21DA8F102
:10503000020300279E78E51900F8106FDE784670AD
:1050400013F8046F86705E78C670E65D06716E7840
:105050004671AE788671EE78C671D61916F8021CC4
:10506000017216F8011C4172D15D0C3781727178A2
:10507000BC45C172297A0173697A4173A97A817337
:10508000E97AC173D6D1504626F0AEF9BDE8F08773
:10509000F0B581B00E46074642F2420006211C469A
:1050A000154626F071F948B1290A8171210AC770A5
:1050B00006714571C471017226F096F901B0F0BD18
:1050C00070B50C46064642F22600402126F05CF9F7
:1050D000002808BF70BD0546033031462022FBF78B
:1050E000D7FC05F1230021462022FBF7D1FC2846FE
:1050F00026F07AF970BD000010B5044642F21B009C
:10510000022126F041F9002808BF10BDA0F8034095
:1051100026F06AF910BD0000B0B50C46054642F213
:105120001A00122126F030F9002808BFB0BDA0F8FF
:10513000035021686268A368E568C0F80510C0F8EC
:105140000920C0F80D30C0F8115026F04DF9B0BD5F
:1051500080B542F24500002126F016F9002818BF5C
:1051600026F042F980BD00002DE9F04F81B00F46D6
:10517000054642F244000E219846164626F004F9F0
:10518000D0B10446DDF83090DDE90ABAC570077188
:10519000063041466671FEF769FA4FEA1B206073DC
:1051A0004FEA1A20E073204684F80CB084F80EA071
:1051B00084F8109026F018F901B0BDE8F08F0000D7
:1051C00010B5044642F24600022126F0DDF8002820
:1051D00008BF10BDA0F8034026F006F910BD00007E
:1051E00080B542F21800002126F0CEF8002818BF42
:1051F00026F0FAF880BD000080B542F202000021DE
:1052000026F0C2F8002818BF26F0EEF880BD000096
:1052100080B542F20300002126F0B6F8002818BF3E
:1052200026F0E2F880BD000080B542F23A0000218D
:1052300026F0AAF8002818BF26F0D6F880BD000096
:1052400080B542F22F00002126F09EF8002818BFFA
:1052500026F0CAF880BD000080B542F23B00002174
:1052600026F092F8002818BF26F0BEF880BD000096
:1052700080B542F24A00002126F086F8002818BFC7
:1052800026F0B2F880BD000080B542F22A0000216D
:1052900026F07AF8002818BF26F0A6F880BD000096
:1052A00080B542F21C00002126F06EF8002818BFDD
:1052B00026F09AF880BD000080B542F20F00002170
:1052C00026F062F8002818BF26F08EF880BD000096
:1052D000B0B50C46054642F22100032126F054F8F1
:1052E000002808BFB0BD290AC5700171447126F0BD
:1052F0007BF8B0BDF0B581B00E46074642F2200003
:105300000E211C46154626F03FF8C8B1C7703F0A6B
:105310000899DDE906320771370A87712F0A07728B
:10532000270AC3721B0A4273120AC173090A467123
:10533000C5714472877203738273017426F054F846
:1053400001B0F0BD10B5044642F23C00012126F048
:105350001BF8002808BF10BDC47026F045F810BD2A
:1053600070B50C46054642F22800072126F00CF8DD
:10537000002808BF70BD064604302146F570FEF7D0
:1053800075F9304626F030F870BD000010B50446BF
:1053900042F26D00022125F0F7FF002808BF10BD82
:1053A000A0F8034026F020F810BD000010B5044618
:1053B00042F22D00012125F0E7FF002808BF10BDB3
:1053C000C47026F011F810BDF0B581B00E46044649
:1053D00042F20800202125F0D7FF78B1071D0546CD
:1053E000C470384631462246FBF752FB3819C4F1E7
:1053F0001F01FBF753FC284625F0F6FF01B0F0BD76
:1054000010B5044642F20A00012125F0BDFF002834
:1054100008BF10BDC47025F0E7FF10BD2DE9F047AF
:105420000F46054642F206000F219846164625F023
:10543000ABFF002808BFBDE8F0870446DDE908217E
:10544000C570280ADDE90AA92071380AA07104F1A3
:105450000A006771E67184F80880627221B1FEF774
:1054600005F904F1100001E0FEF7F2F880F800A061
:1054700080F80190204625F0B7FFBDE8F0870000D6
:1054800070B50C46054642F23500072125F07CFF39
:10549000002808BF70BD064604302146F570FEF7AF
:1054A000E5F8304625F0A0FF70BD000070B50D4650
:1054B000064642F222000621144625F065FF002828
:1054C00008BF70BD310A0171290A8171210AC670B5
:1054D0004571C471017225F087FF70BD10B5044697
:1054E00042F20100082125F04FFF002808BF10BD3F
:1054F00061682268C0F80710C0F8032025F074FF27
:1055000010BD00002DE9F0411C460E460746FB2B5E
:1055100003F1040142F23700904628BF6FF0040403
:10552000FF2928BFFF2125F02FFF002808BFBDE875
:10553000F08106990546E2B2C770067180F80580D1
:105540000730AC71FBF7A4FA284625F04DFFBDE803
:10555000F081000070B5064688000C46811C42F2BE
:105560003900154625F010FF002808BF70BDC67031
:1055700004716CB1A91F421C11F8063F013C02F8EE
:10558000043F8B785370CB7893700B79D370F3D141
:1055900025F02AFF70BD000070B50C46064642F2A9
:1055A0003600192125F0F0FE002808BF70BDC67036
:1055B000054620782871607868716068A871606815
:1055C000000AE871E0882872A0686872A068000A82
:1055D000A8726089E872207B2873607B6873A07B67
:1055E000A873216905F10F00FEF740F8207D68756A
:1055F000607DA875A07DE875E07D2876207E6876C0
:10560000607EA876A07EE876284625F0EDFE70BD87
:105610002DE9F04381B09846154689460746002695
:10562000002000BF25FA00F1C90718BF013606287F
:1056300004D8F1B2042900F10100F3D3F4B2A000C0
:1056400050FA86F0C11C42F2410025F09DFEC8B11F
:105650003106C77080F80490457111D0A8F1060199
:10566000421C00BF8B7A013C02F8053F11F8063F4F
:1056700053704B7893708B78D370CB781371F1D1D2
:1056800025F0B2FE01B0BDE8F08300002DE9F04145
:105690001C460E460746FB2B03F1040142F238007C
:1056A000904628BF6FF00404FF2928BFFF2125F092
:1056B0006BFE002808BFBDE8F08106990546E2B2FE
:1056C000C770067180F805800730AC71FBF7E0F910
:1056D000284625F089FEBDE8F08100002DE9F04163
:1056E00015460E460746FC2A02F1030142F23F002E
:1056F000984628BF6FF00305FF2928BFFF2125F03A
:1057000043FE002808BFBDE8F0810446EAB2C77036
:105710000671063041466571FBF7BAF9204625F05F
:1057200063FEBDE8F0810000B0B50C4605464FF4BD
:105730000150022125F028FE002808BFB0BDC57029
:10574000047125F051FEB0BDF0B581B00E4607469C
:1057500042F23E0007211C46154625F015FE58B1C1
:10576000310A4171290AC171210AC7700671857118
:105770000472417225F038FE01B0F0BDF0B581B081
:105780000D46074642F24E000821144625F0FCFD66
:1057900048B1064604302946F770FDF767FF3046EA
:1057A000B47225F021FE01B0F0BD0000B0B5044692
:1057B00042F20500062125F0E7FD002808BFB0BD34
:1057C000054603302146FDF751FF284625F00CFE23
:1057D000B0BD0000B0B50C46054642F20C000221F7
:1057E00025F0D2FD002808BFB0BDC570047125F0BA
:1057F000FBFDB0BDF0B581B00E46074642F20B008E
:1058000007211C46154625F0BFFD58B10699320AFE
:1058100042712A0AC77006718571C27104724172A1
:1058200025F0E2FD01B0F0BDF0B581B00E460446B2
:1058300042F20900202125F0A7FD78B1071D054699
:10584000C470384631462246FBF722F93819C4F1B4
:105850001F01FBF723FA284625F0C6FD01B0F0BD75
:10586000F0B581B00E46074642F219001C211C46D5
:10587000154625F089FDC0B1A0F803707168326843
:10588000C0F80910290AC0F8052045738173216802
:105890006268A368E768C0F80F10C0F81320C0F86A
:1058A0001730C0F81B7025F09FFD01B0F0BD00005F
:1058B000B0B50C46054642F22400042125F064FDF3
:1058C000002808BFB0BD290A0171210AC5704471C2
:1058D000817125F089FDB0BD44F28010C2F2000054
:1058E00090F89100002818BF0120704780B541F260
:1058F0000900002125F048FD002818BF25F074FD9F
:1059000080BD000080B541F20100002125F03CFD82
:10591000002818BF25F068FD80BD000010B50446C2
:1059200041F20540022125F02FFD002808BF10BDDF
:10593000A0F8034025F058FD10BD000080B544F2EA
:105940006410C2F200000121817640F6034000217C
:1059500025F01AFD002818BF25F046FD80BD000087
:1059600080B544F24010C2F20000012180F82110FD
:1059700025F080FF80BD000044F24011C2F200011A
:10598000C86070472DE9F04381B0B0F8008006464A
:105990004488404625F034FE98B144F28019C2F2A2
:1059A000000909F170070546384607F033FF60B17A
:1059B00099F8820048B1A1B22846324625F0A4FFEA
:1059C00008E0304607F0DCFE17E03846002132469A
:1059D00007F0CCFE4FF0FF3010FA84F4FFF7CAF95D
:1059E00094FBF0F0297E0844013099F88010C2B28F
:1059F0008A42287601D3E87D10B101B0BDE8F0837A
:105A000044F24011C2F2000101204A69E8754046A3
:105A10000121904701B0BDE8F083000010B50446B5
:105A200040F60140082125F0AFFC002808BF10BD5A
:105A300061682268C0F80710C0F8032025F0D4FC84
:105A400010BD000010B5044640F66340082125F063
:105A50009BFC002808BF10BD61682268C0F80710D1
:105A6000C0F8032025F0C0FC10BD000040F2202C3F
:105A7000C2F2000C32B1DCE9003211431843CCE928
:105A800000017047DCE9002323EA010122EA00005B
:105A9000CCE900017047000044F28011C2F200011D
:105AA000A1F87C007047000044F280104BF289613D
:105AB000C2F20000C0F20201C0F8A010704700005E
:105AC00044F28010C2F200000021C0F8A01070471C
:105AD000B0B50C46054640F67C40042125F054FC48
