:020000040000FA
:1000000000000120C9020000D5020000A901000083
:10001000D9020000B1010000B5010000000000009D
:1000200000000000000000000000000005020000C9
:10003000E1020000000000009D020000AD0200008F
:10004000E7020000D5B30000E7020000E70200006D
:10005000E7020000E7020000E7020000E7020000FC
:10006000E7020000E7020000E7020000E7020000EC
:10007000E7020000F5B30000E7020000A935000028
:10008000E7020000E7020000E7020000E7020000CC
:10009000E7020000E7020000E7020000E7020000BC
:1000A000E7020000E7020000E7020000E7020000AC
:1000B000E7020000E702000000000000000000006E
:1000C000E7020000E7020000E7020000E70200008C
:1000D000E7020000E7020000E702000000F002F87B
:1000E00020F09CFB0AA090E8000C82448344AAF113
:1000F0000107DA4501D120F091FBAFF2090EBAE811
:100100000F0013F0010F18BFFB1A43F0010318474B
:1001100098F90400B8F904000A444FF0000C10F8F4
:10012000013B13F0070408BF10F8014B1D1108BF75
:1001300010F8015B641E05D010F8016B641E01F815
:10014000016BF9D113F0080F1EBF10F8014BAD1C65
:100150000C1B09D16D1E58BF01F801CBFAD505E083
:1001600014F8016B01F8016B6D1EF9D59142D6D3DD
:10017000704700000023002400250026103A28BF05
:1001800078C1FBD8520728BF30C148BF0B60704709
:100190001FB54BF084FD9DE8030000F0BFFD00F0AB
:1001A0008DFF00F087FD1FBD102304E0202302E037
:1001B000302300E040239C46F0B404AE7546E808C6
:1001C00001D3EFF309860E4F0FCE0FC70FBC0FC739
:1001D0004046494652465B460FC71DCE3100A60A2F
:1001E00000D304316E0900D248311FC7EFF30980F4
:1001F0006946EFF3148663C76046014942F00EFB7F
:10020000706B00201EF0040F0CBFEFF30880EFF3BB
:100210000980816911F8021C91BB01B590E80F10AB
:10022000E047BDE800508CE80300244B93E806004B
:10023000914208BF704741B91EF0100F10D12049FC
:10024000086820F0010008600AE02CE9F00F1EF0B9
:10025000100F08BF2CED108AC1F838C081F822E0D9
:100260001A6092F82210906B61F0FF0E1EF0100FD2
:1002700008BFB0EC108AB0E8F00F80F3098870472F
:10028000104A13689942FAD801B552F821C00FC834
:10029000E047BDE80050CCF80000704701B544F0DD
:1002A000A7FDBDE80140EFF3098CBEE701B545F0BD
:1002B0002DF8BDE80140EFF3098CB6E74C020020B1
:1002C00034EF00E0CCDC0400074880470748804753
:1002D00007480047FEE7FEE7FEE7FEE7FEE7FEE72A
:1002E000FEE7FEE7FEE7FEE7D1CE0000D93E0400C0
:1002F000DD000000704720F0B9BA0844401E491ED6
:10030000884370470821001DF7E72DE9F0411746A3
:100310000E460446FFF7F6FFA042054633D9002FEC
:100320001CBF06F10C0020F003FB30467468F4B1EA
:100330002168A94217D305F1080291423CBF6168C8
:10034000416007D3626861194A602268521B0A60E3
:1003500041602560002F1CBF06F10C0020F068FBF7
:10036000201DBDE8F08120466468002CE0D12946BC
:10037000304600F0BFFC0028D7D1002F1CBF06F18B
:100380000C0020F055FB0020BDE8F08110B50446BC
:1003900000F0A7FC01682046BDE810400122B4E748
:1003A00070B516460D46041F002808BF70BD002E0C
:1003B0001CBF05F10C0020F0BBFA2B465868002842
:1003C00018BFA04238BF0346F8D31968CA18A24222
:1003D00018BF5C6003D122681C4611441960216873
:1003E0000A19824218BF606004D1426862600068E6
:1003F00008442060002E1CBF05F10C0020F018FB03
:1004000070BD10B5044600F06CFC01682046BDE8E4
:1004100010400122C4E753EA020C00F069802DE984
:10042000F04B4FF00006002B1FBFB3FA83F503FA21
:1004300005F424FA05F65E4012BF1643B2FA82F5BF
:1004400002FA05F4C5F120051EBF22FA05FC44EAB4
:100450000C04203556EA044C4FEA144418BF641CBF
:100460004FF000084FF00009904271EB030C39D3B4
:10047000002919BFB1FA81F701FA07F6B0FA80F73F
:1004800000FA07F6C7F120071EBF20FA07FC46EA6C
:100490000C062037B6FBF4FCA7EB0507103F07F06E
:1004A0001F0BCBF120062CFA06F60CFA0BFB44BF0F
:1004B000B3460026202FA4BF5E464FF0000B5BEA38
:1004C000060C08BF4FF0010B19EB0B0948EB0608AF
:1004D000ABFB027C06FB02CC0BFB03CCC01B71EB1D
:1004E0000C01C1E70B46024641464846BDE8F08B89
:1004F00013B5084318BF4FF0FF300146AFF300803B
:10050000BDE81C40704753EA020C23D010B54C10D4
:1005100084EA530404D54042C1F1000138BF491EAA
:100520001B4204D55242C3F1000338BF5B1EFFF7E4
:1005300072FF14F0804F04D04042C1F1000138BF77
:10054000491E14F0004F04D05242C3F1000338BFDB
:100550005B1E10BD13B540424FF0000070EB01046C
:10056000B8BF012001F0004100281CBF6FF000411E
:100570004FF0FF30AFF300801CBD70B504468569B5
:100580000068C10601D5302600E02026C00707D04C
:1005900070BDD4E9012130469047206A401C20629A
:1005A0006D1EF6D570BD70B5044685690078C0072C
:1005B00007D170BDD4E9012120209047206A401C5A
:1005C00020626D1EF6D570BD2DE9F0410446164639
:1005D0000D464769007B80072ED0384620F052FA3E
:1005E00050BB3EB3012E02D0022E25D104E020469E
:1005F00000F066F805441DE0384620F02FFAE16867
:10060000002841F01001E16005DA204600F0AAFC64
:100610000120BDE8F081C9030BD56268E16A91420F
:1006200000D81146A26911442269891A814200DD6D
:1006300008460544002D01DA0220EAE7E16A606815
:10064000E268814206D29103E06203D522F40031D0
:1006500041F01002A6690027AE4213DCE16A814234
:1006600001D90B4600E0034603EB060C2369ACEB13
:10067000030CAC4506DD814201D98C4600E084467E
:100680009C4505D1A760276042F02000A5620DE0DF
:10069000AD1BE669AE1B8142A66000D90846C01AB0
:1006A000281A20605819606022F020000349084091
:1006B000E060002084F84870ABE70000BFCFD7FFB0
:1006C00010B50146C268900703D0900607D5886A26
:1006D0000AE0FFF710FE01210160881E10BD8B6942
:1006E000486818440B69C01A91F848301BB191F85A
:1006F0004910401A10BD1103FCD50028FADD401E38
:1007000010BD0000014900F029B80000900300204E
:100710002DE9F04704464FF000094FF0FF37C56858
:10072000D4E90486A80707D0204600F04FFC3046E5
:1007300020F08EF9002802DA3846BDE8F087280557
:1007400002D54046FFF75DFE4C21204600F049FAF5
:10075000206D20F0010020654846EEE770B50C469C
:10076000064601F14C05284620F0E2F821463046C5
:100770004BF088FA0446284620F05AF9204670BD0E
:100780002DE9F04716468846070010D006F14C00C8
:10079000814620F0CDF83046FFF7BAFF18F8010B7C
:1007A00061280DD0722805D0772841D105E00020BE
:1007B000BDE8F0870125002405E00225042402E0BD
:1007C000082448F2020518F8010B2B2806D06228ED
:1007D00009D018F8010C74280AD00BE045F0030585
:1007E00044F00204EFE745F0040544F00104EAE7B1
:1007F00044F010043846214620F048F9411C17D037
:100800000021316171604FF40071F560F161706138
:10081000200704D5304602220021FFF7D5FE306DB7
:1008200040F001003065484620F002F93046BFE74D
:100830000026F8E72DE9F04115460E460746214C03
:10084000204620F075F82A4631463846FFF798FFD3
:100850000546204620F0ECF82846BDE8F0812DE959
:10086000F0410E468046174D284620F061F8164CA0
:10087000206DC10704D0410804D020F00104F7E73F
:10088000224612E05420FFF781FD070017D0206DAB
:1008900047F00101084354212065384600F0A1F9D2
:1008A00007F14C0020F072F83A4631464046FFF717
:1008B00067FF0446284620F0BBF82046CDE7002419
:1008C000F8E70000EC0000203C030020401ECAB204
:1008D00010F8011F8A4202D00029F9D10020704788
:1008E00030B503461D781DB10A4603E0AC4201D184
:1008F000181A30BD12F8014B002CF7D15B1CF1E740
:1009000030B503461D783DB10A4612F8014B1CB1C3
:10091000AC42FAD15B1CF5E7181A30BD40EA01037E
:1009200010B59B070FD1042A0DD310C808C9121F98
:100930009C42F8D020BA19BA884201D9012010BDD2
:100940004FF0FF3010BD1AB1D30703D0521C07E09F
:10095000002010BD10F8013B11F8014B1B1B07D103
:1009600010F8013B11F8014B1B1B01D1921EF1D174
:10097000184610BD40EA0103024630B59B0710D16E
:100980004FF0013400E008C208C91D1B9D4315EA61
:10099000C41FF8D013F0FF0102F8011B0DD01B0A91
:1009A000F8E711F8013B002B02F8013B05D011F8E4
:1009B000013B002B02F8013BF3D130BD10B5431CC5
:1009C00002E010F8011B71B18107FAD14FF001323A
:1009D00002C88C1A8C4314EAC211F9D0C01A0A0654
:1009E00003D0C01E10BDC01A10BD0A0401D0801E65
:1009F00010BD0902FCD0401E10BD40EA010370B5D5
:100A00009B072ED14FF00136042A2AD308C810C9FB
:100A10009D1B9D43121F15EAC61517D0D8B2E1B22F
:100A2000401A50EA056110D198B2A1B2401A50EABA
:100A300005410AD123F07F4024F07F41401A50EA5B
:100A4000052102D1180EA0EB146070BDA342DBD0CB
:100A500018BA21BA884201D9012070BD4FF0FF3089
:100A600070BD0AB9002070BD10F8013B11F8014BB0
:100A700063B1A3420AD1521E08D010F8013B11F80D
:100A8000014B1BB1A34201D1521EEDD1181B70BD09
:100A9000032A40F2308010F0030C00F0158011F8AA
:100AA000013BBCF1020F624498BF11F801CB00F882
:100AB000013B38BF11F8013BA2F1040298BF00F8D6
:100AC00001CB38BF00F8013B11F0030300F0258093
:100AD000083AC0F0088051F8043B083A51F804CBBA
:100AE000A0E80810F5E7121D5CBF51F8043B40F880
:100AF000043BAFF30080D20724BF11F8013B11F88B
:100B000001CB48BF11F8012B24BF00F8013B00F8CE
:100B100001CB48BF00F8012B704710B5203AC0F058
:100B20000B80B1E81850A0E81850B1E81850A0E8C0
:100B30001850203ABFF4F5AF5FEA027C24BFB1E859
:100B40001850A0E8185044BF18C918C0BDE810409C
:100B50005FEA827C24BF51F8043B40F8043B08BFA5
:100B60007047D20728BF31F8023B48BF11F8012B6C
:100B700028BF20F8023B48BF00F8012B704702F065
:100B8000FF0343EA032242EA024200F00AB802F0FD
:100B9000FF0343EA032242EA024200F024B84FF086
:100BA00000020429C0F0128010F0030C00F01B803A
:100BB000CCF1040CBCF1020F18BF00F8012BA8BF48
:100BC00020F8022BA1EB0C0100F00DB85FEAC17C0C
:100BD00024BF00F8012B00F8012B48BF00F8012BBF
:100BE00070474FF0000200B51346944696462039F0
:100BF00022BFA0E80C50A0E80C50B1F12001BFF4D6
:100C0000F7AF090728BFA0E80C5048BF0CC05DF83B
:100C100004EB890028BF40F8042B08BF704748BF89
:100C200020F8022B11F0804F18BF00F8012B7047FD
:100C300030B44FF0013C50F8042B51F8043BCCFA8F
:100C400052F4D51A20D1FCB950F8042B51F8043BCA
:100C5000CCFA52F4D51A17D1B4B950F8042B51F884
:100C6000043BCCFA52F4D51A0ED16CB950F8042BCF
:100C700051F8043BCCFA52F4D51A05D1002CDAD045
:100C800030BC4FF00000704729BAB1FA81F111F081
:100C90001801D1F120008440F2D1CA40CB4012F0BB
:100CA000FF0213F0FF0330BCD01A70477047704743
:100CB0007047000070B5064C7C44064D7D4404E04E
:100CC0002046016808448047241DAC42F8D170BD1D
:100CD00020EE040020EE0400004870473804002095
:100CE000704710B5FFF7F8FF083010BD7047704728
:100CF0007047704738B504460A4600206946AFF38E
:100D00000080002808BF38BD02460099204600F048
:100D1000CBFA012038BD012000F016BBF8B5AFF3C7
:100D20000080054600200C46102000BF0646A8198A
:100D3000A0420DD9324669460020AFF3008007007B
:100D400008BF00F001FB0098A04218BF0546C41977
:100D5000FFF7C7FF05600746F01D20F007004619A2
:100D6000284600F00AF8B44208BFF8BDA21B31467D
:100D70003868BDE8F84000F097BA00210160C0E98A
:100D800001100C301FF002BE102070472DE9F04713
:100D900005460C46C86820F4201040F48000C86066
:100DA000800602D5084600F034F9E06841F282017D
:100DB0004FF0FF390140022903D0204600F0D2F85D
:100DC000B5E000F42041B1F5004F0FD1C00306D5C6
:100DD0006168E06A884200D80846606006E02069E1
:100DE000E062606060691FF039FEA061A0680022C7
:100DF000EEB200280DDAE1688B050AD4C043A0608A
:100E000041F490302260E0606068411C61600670CF
:100E1000A5E0E0689046226040F40050E060206960
:100E200068BB60691FF02EFE012704F12405A0B104
:100E3000A08910F4407F08D0E069FFF7A7FA20618D
:100E400018B1E06840F4006016E0E7612561E068F1
:100E500020F4407040F480600EE0E069FFF796FAFD
:100E600000282061F1D0E06840F4006010F4407F79
:100E7000E06002D140F48070E06020696060E0686A
:100E800025696FF0010AC1051FD56168E06A8842D3
:100E900000D80846411B04D02246284600F06CF8D2
:100EA000F0BBE068010203D5E562C4E9015854E0F3
:100EB000691CE1626160E16940F48030491EC4E967
:100EC000021030462E70BDE8F087010202D500F412
:100ED00080320AE06068411C61600670E0680A2E9A
:100EE00040F48030E06006D00022E16A6068814210
:100EF00003D90B4602E00122F7E70346A7895B1BF3
:100F00007F0503D4E7699F4200DDE2B1814200D84A
:100F10000146E5620F1AC4E90158002B09DD00E023
:100F200005E022461946284600F026F808B1484652
:100F3000C9E747B1A069E5626560C01BA061E068D0
:100F400040F01000E060E068000208D56168A06928
:100F5000E562491B08446560A0615046B3E730462E
:100F6000B1E70000C16821F4001141F08001C160C7
:100F700000218160016070472DE9F04781461446E9
:100F80000E464FF0FF383248D5685769054209D000
:100F90003846A1691FF0B0FD002811DB2C48C04382
:100FA0000540E5602B463246494638461FF0AAFD0B
:100FB000A16920F00042B21A11440028A16103D0B7
:100FC0002046FFF7CFFF4046BDE8F08770B50446E6
:100FD0000569C06A6168884200D80846E16821F462
:100FE0002011E160C90312D5A84208D02246411B56
:100FF0002846FFF7C1FF10B14FF0FF3070BD002051
:10100000E562C4E90150E06820F48030E06000202F
:1010100070BD10B50446C06820F02000E060A16AF1
:10102000A06988420DD02046FFF7D0FFE06820F489
:10103000405040F01000E060A06AA0612069E062CA
:10104000606044F24001E0688843E06010BD000049
:10105000100002002DE9F04704461E4690460D465A
:10106000C7684C3081461FF063FCB80714D0780283
:1010700012D44046B8F5807F09D0B0F5007F06D085
:10108000B8F5806F08D1012604F1240506E0701E32
:101090006FF07F41884201D3012409E02561E661B8
:1010A0006560E06820F4706040EA0800E0600024B9
:1010B00048461FF0BDFC2046BDE8F08710B56548E6
:1010C0005421FFF78EFD64485421FFF78AFD6348E1
:1010D0005421FFF786FD62485E49624A624B016017
:1010E0005D4810605D4A1A60431C0B65511C016528
:1010F0000120106557484C301FF048FC56484C30D2
:101100001FF044FC55484C301FF040FC57481FF07E
:101110003DFC58484F4A56A17844FFF78BFB20B955
:10112000544878440A3800F008F954484A4A52A111
:101130007844FFF77FFB20B9504878440A3800F024
:10114000FCF84F48454A4CA17844FFF773FB20B99F
:101150004B4878440A3800F0F0F840233D48DC0062
:1011600000212246FFF776FF20B1424878445438E8
:1011700000F0E3F83848224640230021FFF76AFFD9
:1011800020B13E487844543800F0D7F8334822461E
:1011900010230021FFF75EFF002806D0384878446E
:1011A000BDE81040563800F0C8B810BD2B482DE9F6
:1011B000F041006D2D4E20F0010430461FF0B8FBC9
:1011C000244D4C3528461FF0B3FB2248FFF7A0FA08
:1011D00028461FF02DFC28461FF0B8FB1E4D4C354D
:1011E00028461FF0A5FB1C48FFF792FA28461FF07F
:1011F0001FFC28461FF0AAFB184D4C3528461FF04F
:1012000097FB1648FFF784FA28461FF011FC284682
:101210001FF09CFB14E0206D20F0010504F14C0050
:1012200007461FF085FB2046FFF772FA38461FF08D
:10123000FFFB38461FF08AFB2046FFF7E2F82C46FA
:10124000002CE8D130461FF0F3FB08481FF07EFB6E
:10125000BDE8F0813C03002090030020E40300205F
:10126000E0000020E4000020E8000020EC00002066
:101270007200000024BA04007700000013BA0400D2
:10128000ECB9040010B5002000F050F8AFF3008076
:10129000BDE8104001201FF0DFBB801A0844401E4B
:1012A000491E88431044704770B5144605468C4665
:1012B0004368002B18BF634538BF1846F8D302684F
:1012C0001044604508D06646604604220821FFF7B6
:1012D000E4FF811B8446641A2946CCF80040BDE82F
:1012E000704000220CF10400FFF75AB870B50446B4
:1012F0000D4D28461FF01CFB03E04AF0C3FC401CC8
:101300000ED0094914F8010B4C390028F5D10A20F8
:101310004AF0B8FC044628461FF08AFB204670BD00
:101320004FF0FF34F7E70000DC03002010B500F0B9
:101330001FF8BDE8104000F016B810B500F030F806
:10134000BDE8104000F00FB810B500F043F8BDE85C
:10135000104000F008B810B5FFF7C3FC0068BDE806
:10136000104000F05FB8002801D01FF075BB704737
:1013700010B5002102A000F05AF8012010BD0000B5
:10138000534947414252543A2041626E6F726D6137
:101390006C207465726D696E6174696F6E00000017
:1013A00010B5014602A000F042F8012010BD000077
:1013B00053494752545245443A2052656469726514
:1013C00063743A2063616E2774206F70656E3A20F3
:1013D0000000000010B5012805D0002103A000F096
:1013E00026F8012010BD09A1F8E700005349475233
:1013F000544D454D3A204F7574206F6620686561E5
:1014000070206D656D6F7279000000003A204865AC
:101410006170206D656D6F727920636F7272757087
:101420007465640010B50C301FF090FA10BD70B5F3
:1014300005460C460A2000E06D1C1FF03BFC35B150
:1014400028780028F8D102E0641C1FF033FC14B1A6
:1014500020780028F8D1BDE870400A201FF02ABC8F
:1014600083B080B583B0844605A840F2903E0EC09C
:1014700005ABC2F2000E00206FF0004162460293FD
:10148000CDF800E041F078FA03B0BDE8804003B049
:101490007047000080B540F2000240F2000147F6BC
:1014A0005860C0F20002C0F20001C2F20000914296
:1014B00018BF08464FF60041C2F2000118BF11469E
:1014C000FEF766FE80BD00000020704700207047D8
:1014D00000207047002070470020704700207047B0
:1014E00000207047002070470020704780B582B010
:1014F0004FF0000CCDF800C041F03EFA02B080BDC4
:1015000043F2E021C2F200010865704780B51FF088
:101510000FFD008880BD000080B589B391F90200FD
:10152000B0F1FF3F08DDC0B260280ED343F2E020E7
:10153000C2F20000806B17E043F2E020C2F200002C
:10154000026C002A08BF80BD0FE0402805D343F29B
:10155000E020C2F20000C06B06E0202808D343F26E
:10156000E020C2F20000406B82680846904780BDD0
:1015700043F2E020C2F20000006B82680846904708
:1015800080BD000080B543F2E021C2F2000181F885
:1015900054004CF658304DF28032C0F20400C0F2D4
:1015A0000402C1E90C00C1E90E2241F2650141F2D9
:1015B0001D02C0F20201C0F20202042004F05AFA35
:1015C00040F64D71C0F20201002002F093FA80BD96
:1015D0001B296FF00A0202D01D2918BF002280B516
:1015E00010440BF059FF80BD10B582B040F2E021ED
:1015F000C2F20001096843F2E022C2F200028C88C4
:10160000D06403F063FA0438A04207DA0024002013
:1016100077210022022300941FF0E0FC02B010BDED
:10162000B0B582B004460A200D461FF03FFD60B100
:10163000034602201880182018725D72002520468B
:1016400000210C22009520F039F902B0B0BD000055
:101650002DE9F04782B0DDF82890804609F10F00AF
:1016600080B21D4617460C461FF020FDC8B1064645
:1016700009F10700DDE90B1A308006202A0A3072D2
:1016800006F10F00B2734A467480B7807573FFF796
:10169000FFF94046214603223346CDF800A020F052
:1016A0000DF902B0BDE8F087F0B581B006460D2017
:1016B0001C4617460D461FF0F9FC60B10346052095
:1016C0001880042018723046294602225D809F80CF
:1016D000009420F0F3F801B0F0BD000010B501381F
:1016E00080B200211FF02AFDD0B104460068807846
:1016F00000F01200102813D109201FF0D7FC002899
:1017000008BF10BD034620680122817801F0EF0177
:1017100081701E20187220680189042004F0FEF8F0
:1017200010BD0000B0B543F2E02CC2F2000C43F251
:1017300038309CF854E0C2F2000000210122C0F8C9
:101740002C1180F8302100BF0CEB01120131002375
:10175000002400BFC518C2502C3385F82840582BF0
:1017600004F1010485F824E0A98385F82910F1D15A
:10177000032900F15800E7D14CF67430C0F20400A0
:10178000CCF83000B0BD0000B0B582B004460B20EC
:101790000D461FF08BFC70B1034603201880022019
:1017A0001872280A5D7298720025204600210122D5
:1017B000009520F083F802B0B0BD00002DE9F0479D
:1017C00082B08046DDE90B090C46B9FA89F1B0FA1E
:1017D00080F04909400950EA01054FF00D0018BF9B
:1017E00003F10D0080B21E4692461FF027FEF8B1AD
:1017F000074600680A9906803868A0F802A04FF0F2
:10180000160038724FEA14207C72B87235B107F1B5
:101810000D0528463246FFF73BF9294638680B226A
:101820004160404621463B46CDF8009020F046F806
:1018300002B0BDE8F08700002DE9F04381B080469A
:1018400003F10D001F4615460C461FF02FFCA8B1F2
:101850000646781DDDE9081930801020307206F147
:101860000D003A467480B580FFF712F940462146D4
:1018700008223346CDF8009020F020F801B0BDE8F2
:10188000F08300002DE9F04381B0804603F10D00A4
:101890001F4615460C461FF009FCA8B10646781DE8
:1018A000DDE9081930800820307206F10D003A4653
:1018B0007480B580FFF7ECF8404621460422334699
:1018C000CDF800901FF0FAFF01B0BDE8F0830000F2
:1018D00043F238304CF60C41C2F20000C0F2040171
:1018E000C0F82C11704700002DE9F04782B0DDF8F8
:1018F00028801D4691460C46064602F017F940B175
:10190000304621462A46434600F026F802B0BDE89C
:10191000F08705F1170080B21FF0C8FBC8B1074679
:1019200005F10F003880D2203872200A07F10B0A27
:10193000B872504641462A467C72FFF7A9F84AF829
:10194000059000253046214611223B4600951FF0A8
:10195000B5FF02B0BDE8F0872DE9F04182B08046C6
:1019600002F10B0080B21F4615460C461FF09EFB8D
:10197000A8B10646E81C30805220210A307206F1D8
:101980000B00B17239462A467472FFF781F80027BE
:10199000404621460A22334600971FF08FFF02B0CF
:1019A000BDE8F0812DE9F04182B0804602F10B00E4
:1019B00080B21F4615460C461FF078FBA8B10646BC
:1019C000E81C30801220210A307206F10B00B1723F
:1019D00039462A467472FFF75BF8002740462146D5
:1019E0000922334600971FF069FF02B0BDE8F0817D
:1019F00010B504460BF01AFE43F26C4CC2F2000C18
:101A0000DCF8201169B1238A0A8A934202D20022AB
:101A100008E000BF0A46096821B1088A8342F9D26A
:101A200000E000220CF5907021460BF09FFD012094
:101A300020F076FB0BF016FE10BD000043F26C4167
:101A4000C2F20001C1F830017047000080B520F0FB
:101A5000AFF980BD2DE9F0410C46064620F07AF939
:101A600048B30546F4B143F2A458C2F2000898F80E
:101A7000140000B300270AE0013798F81410F8B2F8
:101A80000234884205F1020528BFBDE8F0812088B4
:101A900028802388002BEFD0F9B23046002220F0B6
:101AA0006FF9E9E743F2A450C2F20000007D410063
:101AB0002846FFF774F8BDE8F081000043F2A45314
:101AC000C2F200031875C3E9031243F26C4041F6F9
:101AD000E951C2F20000C0F20201C0F834117047AF
:101AE00043F2BC51C2F2000101EB400010F8010CBE
:101AF00070470000012A88BF704780B543F2BC538D
:101B0000C2F2000303EB4000831E08461946FEF7AD
:101B1000BFFFBDE88040704740B143F2BC52C2F203
:101B2000000202EB400000F8011C10E043F2BC5C34
:101B30006FF00100C2F2000C0CEB0003DA78023007
:101B4000022A0A4608BF01220428DA70F4D170473D
:101B500080B521F00BFF006880BD000080B543F226
:101B6000E020C2F2000043F26C4C90F854E0C2F264
:101B7000000C0022634600BF01326FF01F0100BF5E
:101B800058182C31382980F82CE08284F8D1032AA7
:101B900003F15803F0D14CF62440C0F20400CCF815
:101BA000280180BD80B543F26C41C2F200014CF6C1
:101BB000583240F6D57343F2E02C0020C0F2040204
:101BC000C0F20203A1F12C0EC2F2000CC1E94800E0
:101BD000C1E94A230CEB001301300022714600BF1B
:101BE00081F851200132CB6381F85000022A01F1C3
:101BF0002C01F5D103280EF1580EEBD14CF6144010
:101C0000C0F20400CCF8340080BD000010B50446DA
:101C10000BF00CFD43F26C40C2F20000D0F8201132
:101C200071B10A8AA24201D1002205E00A46096880
:101C300031B10B8AA342F9D100F590700BF0C4FCCE
:101C4000012020F06DFA0BF00DFD10BD70B582B0D3
:101C500015460C4606460BF0E9FC01A9304620F07B
:101C600077FB28B106468089A04203D20D240CE000
:101C70000A240AE0706829462246FEF709FFB07B75
:101C8000000744BFB068048000240BF0EBFC204642
:101C900002B070BDB0B514460D4621F067FE456038
:101CA0000473B0BD10B50C4621F060FE046010BD99
:101CB00043F2CC50C2F200000021C0E90C1143F203
:101CC0006C4043F67D11C2F20000C0F20201C0F880
:101CD0002C1140F2741043F21D61C2F20000C0F2F8
:101CE000020141647047000047F2D441C2F2000192
:101CF00009688968814228BF70476FEA51028242B1
:101D000001F101029CBF104470474908114481420F
:101D100028BF801A7047000080B545F2957145F2E2
:101D2000C152C0F20201C0F20202032022F002F905
:101D300043F20460C2F200000021C0E90011C0E9D2
:101D40000211C0E90411C0E9061180BD80B545F259
:101D5000E571C0F202010720002222F0EBF845F6FF
:101D6000C101C0F202010820002222F0E3F843F290
:101D70002C70C2F200002421FEF733FF80BD00006A
:101D800080B544F63101C0F202010620002222F0A3
:101D9000D1F843F25070C2F200003421FEF721FF67
:101DA00080BD000080B544F6950144F26962C0F23E
:101DB0000201C0F20202042022F0BCF843F6D8006F
:101DC000C2F200000021C0E90011C0E90211C0E91F
:101DD0000411816180BD000080B545F66D0145F2BA
:101DE000C952C0F20201C0F20202052022F0A2F89C
:101DF00043F6D800C2F200000021C0E90011C0E99A
:101E00000211C0E90411816180BD00002DE9F0419B
:101E100082B041F20015C4F20005D5F80402C007F3
:101E200028D0286830B30020286028684FF204507A
:101E3000C4F201004FF48041416047F64040C2F2D5
:101E400000000178012906D141F25051C4F200018D
:101E500009680A2909D0017802297AD141F2505142
:101E6000C4F200010968022973D143F047FC02B0B3
:101E7000BDE8F081D5F80402400749D5A8680028DC
:101E800046D00020A86048F24416A868C4F20006B4
:101E90004FF4003048F24054C6F8C4010820C4F2A0
:101EA00000041EF01FFB0220C5F8000143F62C4081
:101EB000C2F200000178012940F0F28044F22602CB
:101EC000C2F200021378032B40F0B68043F6C650EE
:101ED000C2F2000000781821022808BF0C21012856
:101EE000A06808BF1821084400F16A014FF20452AB
:101EF0002160A5F1FC01C4F20102C2F880104FF488
:101F00008041C93011606060002030603068EBE0D3
:101F1000D5F80402000740F11481E868002800F0B9
:101F200010810020E86044F22606E868C2F200064C
:101F3000307803282DD10220307043F015FC43F691
:101F4000C050C2F2000001680020884702B0BDE81E
:101F5000F08144F22601C2F200010A78032A18BF78
:101F600002780978042903D00178022940F0F7802B
:101F700000226A6048F244116A68C4F200014FF41A
:101F80000032C1F8C0210A68002A1CBF01220A6081
:101F9000E5E03078042840F0D48043F6CC50C2F21B
:101FA0000000006848F2405143F66852C4F2000154
:101FB000C2F200024078896812783823022A18BFDA
:101FC000032200FA02F041F2505708BF20231844C0
:101FD000C4F20007081A57F8084CA0F1090809F0E4
:101FE00067F904F07F0108440221317043F669511A
:101FF000C2F200010E7847F64141C2F200010978B1
:1020000043F6C752C2F20002002908BF31461170E0
:1020100043F66452C2F20002D5F8001315684FF679
:10202000BC62CFF6FF72BA58C907C0F1000041B2D6
:1020300040F09A80042098E0012931D11278042AD6
:102040002ED143F66850C2F20000007843F6C65223
:102050000146C2F20002022818BF6FF0010192F897
:1020600000C043F6C852A368C2F2000292F900E031
:102070007D22022808BF7122D0180844BCF1020F4B
:1020800008BF013070444FF204512060A5F5807004
:10209000C4F20101C1F880004FF48040086041E0C3
:1020A000022945D144F22602C2F200021378042B21
:1020B00020D1D0E901104FF2045233392160A5F14B
:1020C000FC01C4F20102C2F880104FF4804111609B
:1020D0002168002801F17D0161604FF0000131604D
:1020E000316818BF43F042FA47F64040C2F20000A0
:1020F00002211CE002291BD11178032918D1D0E953
:1021000001104FF2045228392160A5F58071C4F204
:102110000102C2F880104FF480410028116018BFFE
:1021200043F024FA47F64040C2F20000012101705A
:10213000012046F8F80C2068E168401AB0F1FF3F32
:1021400002DD02B0BDE8F0814FF20450C4F201009C
:102150004FF48041416047F64040C2F20000002148
:10216000017002B0BDE8F081002043460096A84708
:1021700002B0BDE8F081000080B582B048F20830BE
:10218000C4F200004FF40031016041F20410C4F2C7
:102190000000006808B102B080BD43F0AFFA43F61A
:1021A0006450C2F20000D0F800C04FF0000E0320CF
:1021B000002100220023CDF800E0E04702B080BDFE
:1021C0002DE9F04F87B006468A460888317CC84022
:1021D000C00762D043F61C01C2F20001488898464D
:1021E00001304880D6E90001994649F8080FD960C6
:1021F000C8E90001B07C1D46DAF8041005F8130F99
:1022000014469874C1F3801011462A464B4621F0BB
:1022100003FE02284FF0000B00F0BD800694012859
:1022200008BF4FF0010BDAF80400DAE904742978EA
:10223000D9E90023CDE90274C0F3C0070097C0F3C9
:10224000800021F089FDBAF80210327C074621FA9D
:1022500002F02978D9E9002300F0010021F040FEC6
:10226000874224D9DAF80400DAE904742978D9E934
:102270000023CDE90274C0F3C0070097C0F38000CB
:1022800021F06AFD00B3012824D0022824D1BBF13B
:10229000000F21D04FF0000B7DE043F61C00C2F28E
:1022A000000001884FF0000B0131018073E0BAF8A3
:1022B0000200317CD9E90023C840297800F00100F0
:1022C00021F00EFE0028DED1BBF1000F08BF4FF059
:1022D000010B01E04FF0010B707C0121800788F8B1
:1022E00014B088F8151002D44FF0010B53E0F77CBE
:1022F000D6E90264DAF804002978D9E90023CDE9A7
:102300000423CDE900640291C0F3001006993A4617
:1023100021F044FD8346012806D0BBF1020F05D110
:1023200000204FF0000B32E0002030E00AF1040200
:1023300007CACDE90212C0F3400500F0010039469A
:1023400032462346009521F0E5FC022812D14FF0D9
:10235000000067B104F4404191F4804F4FF0000B4E
:1023600015D19AF8040080064FF0000004D44FF015
:10237000000B0CE001200AE043F61C02C2F200024E
:10238000118C4FF0010B0131118488F815000028E1
:1023900018BF4FF0010B5FFA8BF007B0BDE8F08F6C
:1023A00070B582B008F0D8FB43F6994543F6054472
:1023B00044F27906C0F20205C0F2020444F2450379
:1023C000C0F20206C0F2020301202946224600960E
:1023D00001F042F844F25503C0F2020302202946FC
:1023E0002246009601F038F844F2810644F2650373
:1023F000C0F20206C0F2020303200021224600962A
:1024000001F02AF843F60D51C0F20201012001F05B
:1024100033F843F28470C2F200009821FEF7E1FB2A
:1024200002B070BDB0B543F6420CC2F2000C0025FC
:102430008CF8005043F6430C8C07C2F2000C0C469B
:102440008CF8005001F1040E18BF2EF0030404EBC9
:102450000013591A47F2C843C2F2000391421C60AC
:102460009CBF8CF800000D46A8B2B0BDB0B543F6D5
:10247000480CC2F2000C00258CF8005043F6490CC1
:102480008C07C2F2000C0C4600EBC0038CF8005025
:1024900001F1040E18BF2EF0030404EBC303591A14
:1024A00047F2CC43C2F2000391421C609CBF8CF8FF
:1024B00000000D46A8B2B0BD10B543F64B0CC2F2F9
:1024C000000C4FF0000E43F64A038CF800E043F690
:1024D0004C0CC2F200038C07C2F2000C83F800E03F
:1024E00001F104030C468CF800E018BF23F003044C
:1024F00004EBC003591A47F2D043C2F200039142E1
:102500001C609CBF8CF800008E461FFA8EF010BD38
:102510002DE9F04F8BB0074600788A4600F00F088F
:102520000888012101FA08F919EA000F0DD01446B4
:1025300043F61C02C2F2000251887878013119F486
:10254000C07F51800AD00126EDE043F61C00C2F2A4
:1025500000000188002601310180E4E000F03F0026
:1025600083F810805874384610F8021B1D46C1F3DA
:10257000801601F011F82B4643F8080FE960C5E911
:102580000001DAF804002A4602F8136FAE74C0F3B3
:10259000801021460A929B4621F03EFC02284FF013
:1025A000000600F0C080CDE90745012808BF0126DC
:1025B0000A9DDAF80400DAE9044C2978DBE9002303
:1025C000CDE9024CC0F3C0040094C0F3800021F0B8
:1025D000C3FBBAF80210CDF824B0044619EA010092
:1025E0002978DBE9002318BF012021F079FC84421F
:1025F00015D9DDF828B0DDF82490DAF80400DAE91E
:10260000044C9BF80010D9E90023CDE9024CC0F33B
:10261000C0040094C0F3800021F09EFB0FE0BAF8E4
:102620000200DDF828B010EA0900DDF824909BF8DC
:102630000010D9E9002318BF012021F051FC089DAA
:1026400030B1012808D0022807D136B100266AE04F
:10265000002E08BF012600E001260120B8F1050F79
:102660002E75687526D800FA08F010F02A0F21D0D0
:1026700017F8088B38464FEAD81400F08DFF07464C
:10268000DAF804009BF80020D9E900368946CDE944
:102690000436CDE900710292C0F30010079922467A
:1026A00021F07CFB0646012806D0022E06D1002030
:1026B000002635E0012636E0002031E00AF1040270
:1026C00007CACDE90212C0F3400600F0010021461E
:1026D0003A464B46009621F01DFB022815D14FFAD1
:1026E00088F0B0F1FF3F4FF000000CDC09F44041EE
:1026F00091F4804F4FF0000612D19AF80400800642
:102700004FF0000003D400260AE0012008E043F661
:102710001C02C2F20002118C01260131118468757D
:10272000002818BF0126F0B20BB0BDE8F08F000002
:10273000B0B546F2A842C2F2000292F8EBC081F8AE
:1027400000C092F8EAE092F8EB30734508D1D2E984
:1027500036E3D2E93854634085EA0E052B4302D0B4
:102760004CF002030B70D2E93812C0E90012B0BD80
:10277000B0B590F813C082F800C090F812E0C37CA6
:10278000734508D1D0E900E3D0E90254634085EAFB
:102790000E052B4302D04CF002031370D0E9020265
:1027A000C1E90002B0BD0000B0B590F813C082F8D6
:1027B00000C090F812E0C37C734508D1D0E900E373
:1027C000D0E90254634085EA0E052B4302D04CF059
:1027D00002031370D0E90202C1E90002B0BD00009B
:1027E000B0B545F62802C2F2000292F86BC181F83A
:1027F00000C092F86AE192F86B31734508D1D2E9D2
:1028000056E3D2E95854634085EA0E052B4302D0C3
:102810004CF002030B70D2E95812C0E90012B0BDAF
:10282000B0B590F813C082F800C090F812E0C37CF5
:10283000734508D1D0E900E3D0E90254634085EA4A
:102840000E052B4302D04CF002031370D0E90202B4
:10285000C1E90002B0BD0000B0B590F813C082F825
:1028600000C090F812E0C37C734508D1D0E900E3C2
:10287000D0E90254634085EA0E052B4302D04CF0A8
:1028800002031370D0E90202C1E90002B0BD0000EA
:10289000B0B590F813C082F800C090F812E0C37C85
:1028A000734508D1D0E900E3D0E90254634085EADA
:1028B0000E052B4302D04CF002031370D0E9020244
:1028C000C1E90002B0BD000080B546F2A841C2F2E5
:1028D000000191F8EA2091F8EB3093424FF00002AA
:1028E000C0E900220AD1D1E936CED1E9383282EAF4
:1028F0000E0283EA0C031A4308BF80BDD1E93612E9
:10290000C0E9001280BD000080B5827CC37C934288
:102910004FF00002C1E900220AD1D0E900CED0E98F
:10292000023282EA0E0283EA0C031A4308BF80BD1A
:10293000D0E90002C1E9000280BD000080B5827CC0
:10294000C37C93424FF00002C1E900220AD1D0E9D2
:1029500000CED0E9023282EA0E0283EA0C031A4367
:1029600008BF80BDD0E90002C1E9000280BD0000BF
:1029700080B545F62801C2F2000191F86A2191F86C
:102980006B3193424FF00002C0E900220AD1D1E935
:1029900056CED1E9583282EA0E0283EA0C031A437A
:1029A00008BF80BDD1E95612C0E9001280BD000009
:1029B00080B544F6E101C0F202010920002221F0B5
:1029C000B9FA43F63C50C2F200002421FEF709F99F
:1029D00080BD000070B543F6420C43F64301C2F2DD
:1029E000000CC2F200019CF800E009788E4524BF7B
:1029F000002070BD47F2C841C2F200010968049C82
:102A000001EB0E1528720EF101004FEA0E166C72E2
:102A10008CF8000001208A516B6070BD70B543F6E0
:102A20004201C2F200010C78FCB147F2C844C2F284
:102A300000042468DDF810C091F800E004F10801FA
:102A4000002404E00134744501F110010DD20D7829
:102A50008542F7D151E902565E4055403543F1D1E8
:102A60004D786545EED1012070BD002070BD00009D
:102A700043F64200C2F200000021017070470000DE
:102A800043F64300C2F20000007870472DE9F0439E
:102A900043F6420CC2F2000C9CF80010A9B347F2B6
:102AA000C847C2F20007D7F800E0DDF81C809CF8A8
:102AB00000900EF10804002505E000BF0135103438
:102AC0004D45494621D226788642F7D154E902671E
:102AD0005F4056403E43F1D166784645EED1C8B2DC
:102AE00002280CD30138854209D00EEB001213895D
:102AF000000123805EF80000526844E90202481E8B
:102B00008CF800000120BDE8F0830020BDE8F083D0
:102B1000F0B581B01E461546074621F0CBF80446B5
:102B2000B0B943F6480043F64902C2F20000C2F2CF
:102B3000000201781278914256D247F2CC42C2F29A
:102B40000002126801EBC10302EBC3040131017002
:102B5000002C4CD0DDE9061046EA0742C4E90852D1
:102B60000A684B688F68C9682260E1600121636070
:102B7000A76084F840100021625C22B90E2901F19F
:102B80000101F9D902E0002184F84010016842688F
:102B90008368C768204640F8101F0121C760836022
:102BA000426080F8311000216218127C22B90E298F
:102BB00001F10101F8D902E0002184F8411094F8F4
:102BC000411000294FF00001A4F84210C4E90A1195
:102BD000C4E90C11C4E90E1103D121F0B7FAC4E91C
:102BE0000C01012001B0F0BD0024002CB2D1002066
:102BF00001B0F0BD2DE9F04182B0DDE9087814465E
:102C0000064610463A4643460D4621F053F820B199
:102C100090F8411019B1002423E0002421E0D0E90C
:102C20000E0169407040084301D1012419E043F6C8
:102C30004400C2F20000D0F800C0BCF1000F0FD079
:102C400043F61C00C2F20000818C00220131818415
:102C5000304629462346CDE900780024E04700E0CD
:102C60000024204602B0BDE8F0810000F0B583B03A
:102C700043F64806C2F2000635786DB347F2CC45FC
:102C8000C2F200052D6896F800C005F12004002569
:102C90004FF0000E08E04FF0010E0126CEB10135D5
:102CA000654504F1480419D294F82060002EF4D14F
:102CB000D4E902674F4046403E43ECD1A67906F086
:102CC000010616702668A788C3E900670026002E53
:102CD000E5D14FF0010C1EE04FF0000EBEF1000FE9
:102CE0004FF0000C17D043F64407C2F200073D68CE
:102CF0008DB143F61C07C2F200077E8C01367E843C
:102D000092F800C0D3E900276346009201220197A0
:102D1000A8474FF0000C604603B0F0BD43F64800F2
:102D2000C2F200000021017070470000B0B520F031
:102D3000C1FF18B1044690F8400008B10020B0BDB2
:102D400094F84200049D38B9204621F0FFF9C4E907
:102D50000A01012084F84200D4E90A01C5E9000112
:102D60000120B0BD80B520F0A5FF28B1029990F8F0
:102D700043000870012080BD002080BD43F649005B
:102D8000C2F20000007870472DE9F04381B043F6AD
:102D90004808C2F2000898F8000050B347F2CC4946
:102DA0000026C2F200090125002708E084F84450FB
:102DB00098F800000137874206F1480619D2D9F881
:102DC0000000841994F8410028B904F1100021F0A2
:102DD000BDF9C4E90C0194F840000028E6D194F84C
:102DE00042000028E2D0204621F0B0F9C4E90A01EF
:102DF000DCE701B0BDE8F08370B51446DDE90423DB
:102E0000054620460E4620F055FF10B190F84110BF
:102E100009B1002070BDD0E90E017140684008433F
:102E200004BF012070BD002070BD000080B520F0FF
:102E300041FF014600284FF0000008BF80BD91F817
:102E4000442081F84400104680BD000080B520F089
:102E500031FF60B1D0E90C1211431CBF032080BDCB
:102E600090F841100120002908BF022080BD0020F9
:102E700080BD000080B520F01DFF60B1D0E90A12CE
:102E800011431CBF032080BD90F840100120002991
:102E900008BF022080BD002080BD000080B520F06A
:102EA00009FF00281CBFD0E90C0150EA010201D142
:102EB000002080BD029AC2E90001012080BD00000F
:102EC00080B520F0F7FE00281CBFD0E90A0150EAC7
:102ED000010201D1002080BD029AC2E90001012057
:102EE00080BD0000B0B520F0E5FEB8B143F648045F
:102EF000C2F200042578022D0CD347F2CC41C2F275
:102F00000001096805EBC50201EBC20148394822FE
:102F1000FDF703FE681E20700120B0BD0020B0BD8B
:102F20002DE9F0410C461178D3E900230546084607
:102F300020F0C0FE43F61C08C2F2000808F1140796
:102F400028B1064690F8410018B1002018E0002092
:102F500016E0D6E90E0161406840084304BF012035
:102F6000BDE8F08106F110002A46234622F0ECFD70
:102F700000280FBF0020C6E90E5408F116070120F3
:102F8000398801313980BDE8F08100002DE9F04F2A
:102F900081B043F64805C2F200050F4629780029A2
:102FA00053D047F2CC469A468346C2F200064FF011
:102FB00000094FF0000800BF306800EB090494F8E6
:102FC000400018B1002080B34AE000BFD4E90A01F4
:102FD000794080EA0B00084319D02E46154620465A
:102FE0005A463B4622F0B0FD38B343F61C01C4E913
:102FF0000AB7C2F20001488A002284F842202A4619
:10300000354647F2CC460130C2F20006488294F8B9
:10301000260000F001001070206AA18CCAE90001AE
:103020000120002808BF0020D0B9287808F1010845
:10303000804509F14809BFD307E02A46354647F2E3
:10304000CC460020C2F20006EBE743F61C01C2F2B8
:103050000001088A01300882002001B0BDE8F08F2D
:10306000012001B0BDE8F08F43F64401C2F2000137
:103070000860704780B520F01DFE00280FBF0020BB
:10308000029980F84310012080BD000080B520F037
:1030900011FE30B10299D1E90012C0E90C120120F1
:1030A00080BD002080BD000070B543F28476C2F27E
:1030B00000060C460546C6F88C00A6F8881000F0FD
:1030C00085F9806A007805280AD196F870000028F2
:1030D00018BF70BD20F080FF2846214607F09AFDFA
:1030E00070BD000080B544F63D1144F29962C0F213
:1030F0000201C0F20202022020F01CFF43F67050D1
:10310000C2F200002821FDF76CFD80BDB0B545F688
:10311000F11445F69911C0F20204C0F20201002038
:103120002246002520F006FF45F64911C0F20201B3
:103130000120224620F0FEFE43F69850C2F2000025
:10314000C0E90055C0E90255C0E904558561B0BD2C
:103150002DE9F0410C46054600F038F9806A007808
:1031600004280ED143F28470C2F2000090F870007F
:1031700038B920F031FF2846214607F02BFEBDE884
:10318000F08143F6D808C2F20008B8F8166007F0DC
:10319000A7FE43F62847C2F200073968401AB0423A
:1031A00002D2B8F8160003E007F09AFE3968401A18
:1031B000A8F8160020F010FF2846214607F054FE1C
:1031C000BDE8F08170B51D461446064600F02AF8A9
:1031D00008B1012070BD43F64B0043F64C02C2F229
:1031E0000000C2F2000201781278914224BF002050
:1031F00070BD47F2D042C2F20002126845EA0643AF
:1032000002EBC10642F831400131736001700120C8
:1032100070BD000043F64A00C2F2000001210170B7
:103220007047000010B543F64B0EC2F2000E9EF838
:103230000010B1B143EA004C47F2D040C2F20000A6
:1032400001689EF800E0002001EBC00351F8304017
:103250005B68544083EA0C03234304D0013070457B
:10326000F2D3002010BD012010BD000043F64B003A
:10327000C2F200000021017043F64A00C2F20000D1
:103280000170704743F64C00C2F2000000787047AE
:1032900043F64A00C2F2000000787047F0B543F6EA
:1032A0004B0CC2F2000C9CF80010C9B143EA004E6E
:1032B00047F2D040C2F2000000689CF800300024C1
:1032C000E6B200EBC60550F836606F68564087EAF4
:1032D0000E073E4306D00134E1B299421946EFD3BE
:1032E0000020F0BDCAB2022A05D300EBC20050E9AB
:1032F0000202C5E90002481E8CF800000120F0BD62
:1033000043F64A00C2F2000000210170704700003D
:1033100010B543F65004C2F200042068002808BF2C
:1033200010BD417D01EB410104EBC101C9680029D9
:1033300018BF88470020206010BD0000B0B543F6DC
:103340005005C2F200050446286095F8810000216E
:10335000002885F8821008BF07F0BAFD95F88100B3
:1033600030B195F88000617D814218BF21F012FED6
:1033700095F8810010B9607D21F0F6FD607D00EBCD
:10338000400005EBC000816809B12046884795F8E8
:10339000820000281CBF00202860B0BD47F2D44046
:1033A000C2F20000006880687047000043F65000D9
:1033B000C2F2000090F882007047000047F2D4404B
:1033C000C2F20000006800887047000043F6500019
:1033D000C2F200000068704747F2D440C2F2000019
:1033E0000068C08870470000B0B50D46FEF77CFC51
:1033F00004462846FEF778FC47F2D441C2F20001A9
:10340000844207D90968201A8968B0EB510F88BF38
:103410000020B0BD0968001B8968B0EB510F92BF56
:103420000020081A0130B0BD80B507F07BFD43F6DF
:103430005000C2F200008421FDF7D3FB80BD0000E4
:1034400047F2D441C2F200010860704743F65001D0
:10345000C2F200014860704780B500EB400E43F6B1
:103460005000C2F2000000EBCE000830DDF808C0CA
:1034700080E80E1080BD000043F6500200EB4000D3
:10348000C2F2000202EBC0008161704743F65000B7
:10349000C2F20000016800291CBF012180F88210DF
:1034A00070470000B0B543F65005C2F2000595F82C
:1034B0008110044621B907F00BFD204621F054FD90
:1034C00004EB440005EBC000C1690131C161B0BD2E
:1034D00080B543F6500100EB4002C2F2000101EB5F
:1034E000C202D369013BD3610BD191F8812042B173
:1034F00091F88010814218BF80BD21F04BFD07F08C
:10350000DDFC80BD10B543F65004C2F20004206813
:1035100040B1407D00EB400004EBC0008069002812
:1035200018BF8047002061682060012084F8820075
:10353000884710BD110A4170110C4FEA132C81709D
:10354000110E0270C170037180F805C07047000051
:1035500000220146828006300A60704780B506224C
:10356000FDF7DCF9B0FA80F0400980BD8A888280DE
:10357000096801607047000080B582B00021ADF895
:103580000410009169460622FDF7C8F9B0FA80F0F0
:10359000400902B080BD0000026881881046704773
:1035A000026841681046704743F62740C2F20000A7
:1035B0000078002808BF70474FF20830C4F20000BE
:1035C0000121016043F61510C2F200004178FF2985
:1035D00006D043F6C451C2F2000109784170704729
:1035E000FEE70000D1F800C04B68CA688968C26075
:1035F00081604360C0F800C0704700004A680968F5
:10360000426001607047000001390138102200BF9C
:1036100011F801CF10F8013F013A8CEA030C1306B0
:1036200080F800C0F4D1704780B581B14CF6584C99
:10363000013AC0F2040C00BF12F801EFC3B283EAF2
:103640000E035CF82330013983EA1020F4D1C04323
:1036500080BD00002DE9F04F83B043F6D05BC2F28D
:10366000000BDBF8040010B103B0BDE8F08F9BF84D
:10367000095000260DF10B080DF102090DF1040AA5
:10368000002403E0032C04F10104EDD2E8B201357B
:103690008DF80B60022888BF0025EFB2780050FA41
:1036A00085F00BEB8000436A0196002BADF80260B9
:1036B000E8D040464946524698470028E2D0019952
:1036C0009DF80B00CBF804108BF808008BF809501C
:1036D00022F098FA9DF80B10BDF80220019B3846A5
:1036E00022F0D4FA03B0BDE8F08F0000F0B581B04D
:1036F00043F6D057C2F200070D4606463846682109
:103700001446FDF76EFA284621463E70BD81FC81C5
:1037100000F03EF801B0F0BD80B543F6D050C2F2E3
:1037200000004068002818BF80BD0020FFF792FF0E
:1037300080BD0000032888BF704700EB400C43F6B3
:10374000D050C2F2000000EB8C001C300EC070475D
:1037500043F6D051C2F20001886170474EF6045022
:10376000CEF200004FF0006101607047B0B582B04A
:103770008DF807100DF1070001211C46154610F0C9
:103780003DF82046294610F039F8284602B0B0BD71
:103790007047000010B5144601294FF0000206D012
:1037A000052903D0022907D1012200E00322114696
:1037B0001A4622F039FA2246104610BD0139C9B224
:1037C000022984BF0020704780B54FEAC10C40F247
:1037D0000241C0F2050121FA0CF1C9B2FFF7C6FFA0
:1037E00080BD000080B5042009F030FE002808BF2D
:1037F00080BD014643F68460C2F20000007B0522D2
:103800008A7009F057FE80BD80B509F00FFF40F2C5
:10381000C0104DF28411C2F20000C0F20401016038
:1038200022F0F2FE43F68870C2F20000002101602F
:10383000002001F0D1FF09F015FF80BD70B50646EC
:103840000C200D4609F002FE002808BF70BD04469A
:103850000620A070601D29462671FFF787FE43F6FB
:103860008460C2F20000007B214609F023FE70BD97
:103870002DE9F04107461220984615460E4609F0FC
:10388000E5FD002808BFBDE8F081014602208870F0
:103890000F717FB1002000BF325C0B185A7135F8F0
:1038A000102001EB4004228118F8002001308742EB
:1038B0009A73F1D143F68460C2F20000007B09F0F4
:1038C000F9FDBDE8F0810000B0B5044608200D46C2
:1038D00009F0BCFD002808BFB0BD01460320887078
:1038E0000C713CB1081D6A1E12F8013F013C00F842
:1038F000013FF9D143F68460C2F20000007B09F079
:10390000D9FDB0BDB0B586B094460A46DDE90A1EC1
:103910000C9C0125CDE9003100216346CDF808E07B
:103920000495039423F00AFA06B0B0BD10B504461E
:1039300009F07CFE43F6A86104EB4400C2F20001EA
:1039400001EB001030F8224C09F08CFE204610BD2F
:1039500070B50446242015460E4609F077FD002870
:1039600008BF70BD01461920887043F68460C2F21A
:103970000000007B0E800D71CD704C7109F09AFD36
:1039800070BD000043F6A861C2F200010C310322B1
:1039900007E000BF013A130601F1300104BF002027
:1039A00070478B7A002BF5D00B888342F2D10879CF
:1039B0007047000043F6A86100EB4000C2F200012E
:1039C00001EB001010F81A0C7047000080B509F0E8
:1039D0002DFE40F2C0104DF2E4114DF29012C2F2F1
:1039E0000000C0F20401C0F20402C0E903124DF26B
:1039F0006021C0F20401816343F69C604DF29C118A
:103A0000C2F20000C0F20401016043F67C704DF286
:103A10004C21C2F20000C0F20401016009F022FE54
:103A200080BD000043F6A86100EB4000C2F2000137
:103A300001EB00102A38704743F6A86100EB400004
:103A4000C2F2000101EB001010F81C0C70470000DE
:103A500043F6A86100EB4000C2F2000101EB001048
:103A60001638704780B509F0E1FD43F69C604DF2D1
:103A7000BC11C2F20000C0F20401416043F67C7048
:103A80004DF25021C2F20000C0F20401416009F081
:103A9000E9FD80BD80B586B09C460023CDE90033AA
:103AA0000292049300220023CDF80CC023F046F9C3
:103AB00006B080BD43F6A86100EB4000C2F20001F1
:103AC00001EB00103038704743F6A86100EB40006E
:103AD000C2F2000101EB001010F81D0C704700004D
:103AE00043F6A86100EB4000C2F2000101EB0010B8
:103AF00010387047B0B50C46054609F097FD43F6FF
:103B0000A860C2F2000000EB8500C0F8904009F008
:103B1000A9FDB0BD43F6A86100EB4000C2F2000170
:103B200001EB001010F8170C7047000043F6A86175
:103B300000EB4000C2F2000101EB001010F8190C7C
:103B40007047000010B5044609F070FD43F684602C
:103B5000C2F20000447309F085FD10BD80B5014636
:103B6000012023F085F980BD70B516460C46054648
:103B700009F05CFD2846FFF71DFF68B143F6A86118
:103B800005EB4500C2F2000101EB00103EB130F838
:103B9000221C214320F8221C09F064FD70BD30F87E
:103BA000221CA14320F8221C09F05CFD70BD00001E
:103BB00080B50A460146012023F076F980BD000059
:103BC00080B509F033FD43F69C604DF2D411C2F28A
:103BD0000000C0F20401816043F67C704DF2582170
:103BE000C2F20000C0F20401816009F03BFD80BD1B
:103BF00080B5042009F02AFC002808BF80BD0146DA
:103C000043F68460C2F20000007B38228A7009F01B
:103C100051FC80BD80B50A460146002023F070FBB0
:103C200080BD000010B5044643F68460C2F2000077
:103C30002146FFF79BFC204601F044FC10BD00002C
:103C400080B509F0F3FC40F2C0104DF27811C2F2D9
:103C50000000C0F2040101604DF2DC21C0F2040159
:103C6000816223F029FE24F0ABF943F6887045F217
:103C70009911C2F20000C0F200010160002001F0C1
:103C80009FFD4FF440500021012201F07BFD09F01F
:103C9000E9FC80BD80B509F0C9FC43F69C604DF29B
:103CA000B411C2F20000C0F20401416043F67C701E
:103CB0004DF25021C2F20000C0F20401416009F04F
:103CC000D1FC80BD2DE9F0410C46054600264FF0A1
:103CD00001080020002708E0062E88BFBDE8F0811B
:103CE000F8B2032806F101060CD208FA06F22A42BD
:103CF000F2D000EB400004EB8001D0B223F0B8F822
:103D00000137E9E7BDE8F0812DE9F04381B0914644
:103D10000D46064600274FF001080020002400BF92
:103D200008FA07F3334207D035F8101039F810209D
:103D3000D8B223F0B9F80134062F04D8E0B2032832
:103D400007F10107ECD301B0BDE8F08380B509F0BD
:103D50006DFC43F69C604DF2C411C2F20000C0F24B
:103D60000401816043F67C704DF25821C2F20000DC
:103D7000C0F20401816009F075FC80BD80B509F0D6
:103D800055FC40F2C0104DF20C31C2F20000C0F2FE
:103D90000401816024F038FC24F020FE09F062FC6C
:103DA00080BD000010B5D1B192F800E04FF0000CDA
:103DB000BEF1000F11D08BB273450ED9144614F822
:103DC000013F9446834208D06FEA0E0211440A0470
:103DD00004EB0E02E8D14FF0000C604610BD00204D
:103DE00010BD000080B599B143F68460C2F20000B6
:103DF000007C002818BF80BD88787C2202EA500031
:103E000040F2C012C2F20002105882680846904781
:103E100080BD000080B543F68461C2F200010873E2
:103E20000020C875087447F63560C0F2020000F043
:103E300029FE80BD43F68461C2F20001C97D0029DC
:103E400008BF7047022804BF00207047032808BF3E
:103E50000120704780B50146032024F005F880BD9D
:103E600080B582B0ADF8041043F6A861C2F200013B
:103E7000D1F89C107622ADF806006846ADF8022015
:103E8000884702B080BD000010B582B00C4622F019
:103E900075FE38B173218DF802106946ADF8044003
:103EA00023F058F902B010BDB0B584B005460846FD
:103EB000144622F063FE40B172218DF8061001A96C
:103EC00002948DF80C5023F045F904B0B0BD000009
:103ED00043F68461C2F20001C97D002908BF704722
:103EE000002804BF02207047012808BF0320704744
:103EF00010B50446062009F0A9FA002808BF10BD35
:103F000001465220887043F68460C2F20000007BB4
:103F10000C7109F0CFFA10BD10B50446062009F067
:103F200095FA002808BF10BD01465320887043F65B
:103F30008460C2F20000007B0C7109F0BBFA10BD76
:103F400080B509F073FB40F2C0104DF2E821C2F2D7
:103F50000000C0F2040141624FF410600021012210
:103F600001F010FC09F07EFB80BD00002DE9F0435C
:103F700081B004462C20984616460F4609F066FA92
:103F8000F0B10546DDE908903121A9702880681D4F
:103F900039462C71FFF7EAFA05F10B003146FFF7BD
:103FA00021FB05F11B004146FFF71CFB43F6846033
:103FB000C2F20000007B294685F82B9009F07AFABE
:103FC00001B0BDE8F083000080B52C2009F03EFA76
:103FD000002808BF80BD01463320887043F6846006
:103FE000C2F20000007B09F065FA80BD80B509F0DF
:103FF0001DFB40F2C0104DF20031C2F20000C0F2D1
:10400000040181614DF2F421C0F20401C16309F0A1
:1040100029FB80BD10B504462C2009F017FA0028B2
:1040200008BF10BD0146342088700020088043F688
:104030008460C2F20000007B0C7109F03BFA10BDF5
:1040400010B59AB040F2C011C2F20001096A4DF2F7
:10405000782243F68464C0F20402C2F20004914262
:10406000A0600AD000F032FD442806D80020C0F23B
:104070007710A168019001A888471AB010BD000010
:10408000B0B5054610200C4609F0E0F9002808BF3D
:10409000B0BD0146222088700D8020686268A36848
:1040A000486043F684608A60CB60C2F20000007B07
:1040B00009F000FAB0BD000080B509F0B7FA40F28F
:1040C000C0104DF21831C2F20000C0F2040181604C
:1040D00024F09AFA09F0C6FA80BD000080B524F0F9
:1040E000BBFA80BD10B5044609F0A0FA43F684601F
:1040F000C2F20000C47309F0B5FA10BD2DE9F04317
:1041000081B091460D46064600274FF00108002079
:10411000002400BF08FA07F3334207D035F8101027
:1041200039F81020D8B224F0BDFA0134062F04D893
:10413000E0B2032807F10107ECD301B0BDE8F0833A
:104140002DE9F04381B0074610209846164689466F
:10415000102409F07BF930B3DDE908EC01468470E6
:104160000771431D00200024002200BF27FA00F53C
:10417000ED0702D0355D01321D55D4B2022C03D8B3
:10418000072800F10100F1D343F68460C2F2000079
:10419000007B81F80890A1F80AE0A1F80CC081F832
:1041A0000E8009F087F901B0BDE8F08380B50420E6
:1041B00009F04CF9002808BF80BD014643F6846031
:1041C000C2F20000007B11228A7009F073F980BDF1
:1041D000F0B581B00746162015460C4609F036F9B1
:1041E00068B106460420B0703780347525B1301DA3
:1041F00029462246FCF74CFC304608F09DFC01B0F5
:10420000F0BD0000B0B5054604200C4609F01EF9CB
:10421000002808BFB0BD032181700580C47008F07C
:104220008BFCB0BDF0B581B00746202016460C4689
:1042300009F00CF988B105462820A870281D3146E0
:104240001A222F80FCF724FC43F68460C2F200009F
:10425000007B2946AC7709F02DF901B0F0BD0000D4
:10426000C0684DF6836100BAC4F21B31A0FB011295
:10427000910C43F609525143A0EB811070470000A6
:1042800046F63010C2F200007047000044F20C0005
:10429000C2F200004068704744F20C00C2F2000015
:1042A0000068704740F2C0104DF22431C2F20000A5
:1042B000C0F20401416144F20C004CF64641C2F2E6
:1042C0000000C0F20401C0E90011704740F2C010C4
:1042D0004DF23031C2F20000C0F2040101627047B9
:1042E0002DE9F04104461620984616460F4609F07F
:1042F000ADF8002808BFBDE8F08105462920A87068
:104300002C802F756E751FB1281D4146FFF76AF985
:1043100043F68460C2F20000007B294609F0CAF827
:10432000BDE8F081F0B581B0074608201C4615466F
:104330000E4609F08BF868B106990122827004F0EC
:10434000070201F007010780067145718271C17192
:1043500008F0F2FB01B0F0BDF0B581B007460820CF
:104360001C4615460E4609F071F868B106990222FE
:10437000827004F0070201F00701078006714571A1
:104380008271C17108F0D8FB01B0F0BD80B5014663
:1043900046F63010C2F200006022FCF779FB80BDC7
:1043A00010B5044609F042F944F20C00C2F20000D4
:1043B000446009F057F910BD10B5044609F036F90C
:1043C00044F20C00C2F20000046009F04BF910BD89
:1043D000B0B5054606200C4609F038F8002808BF9D
:1043E000B0BD052181700580047108F0A5FBB0BD4A
:1043F00010B5044680782C2801D02A2808D143F62D
:10440000A860C2F20000D0F8901009B12046884799
:1044100043F68460C2F2000081682046884710BDE0
:10442000B0B514460D4622F0C1FB002808BFB0BD50
:104430000021828981744CF646410576C0F2040160
:1044400010460022234601F097F8B0BDF0B591B0B8
:104450000646104615460C4646F0CEFF08B111B090
:10446000F0BD09AF3846214647F08AF901A8314628
:104470003A4647F077F93846394647F081F9204601
:1044800021462A4647F06EF92846294647F078F932
:10449000304631462A4647F099F8284629462A46AA
:1044A00047F094F8284631462A4647F077F93046D7
:1044B00031462A4647F056F928463146324647F0FB
:1044C00085F8304631462A4647F080F830460021CC
:1044D00047F072FA80B14DF25812C0F20402304631
:1044E000314646F045FF0746304647F0E9F9F069A6
:1044F00040EAC770F06102E0304647F0E1F9284633
:10450000314647F03DF901AF284629463A4647F083
:1045100045F9284629463A4647F040F93846394693
:104520002A4647F03BF9304631463A4647F01AF9F9
:1045300009AF384631463A4647F030F93046294609
:1045400047F0CCF92846214647F0C8F920463946BD
:1045500047F0C4F911B0F0BD10B5044646F04CFF69
:1045600038B104F1200046F047FF002818BF0120B1
:1045700010BD002010BD00002DE9F04F8BB00446A7
:104580000078042827D88A461646DFE800F003267C
:104590004266810004F12407DDF850A03846314618
:1045A00004F1040847F09AF904F1640506F12001CA
:1045B000284604F1440947F091F938462946424615
:1045C0004B46CDF800A009F087F9FF20C4F884001D
:1045D00000250120A9E00125A8E0D4F884101846A0
:1045E00047F0EAF9B0FA80F1221D4B09002818BF04
:1045F000012002EB401704F1440606EB401102EBE8
:10460000431206EB4313384609F0F6F80025022062
:104610008BE0D4F88410184647F0CEF9B0FA80F158
:104620004909221D002818BF012002EB411704F19F
:10463000440303EB411102EB401203EB40133846F5
:1046400009F08CF8D4F8840000250138C4F88400FF
:104650004FF00300C8BF012067E018460021002585
:1046600047F0AAF9B0FA80F1221D4B09002818BFC3
:10467000012002EB401704F1440606EB401102EB67
:10468000431206EB4313384609F0B6F804204CE019
:104690001846002147F090F90546B0FA80F040092D
:1046A00004F1040903AF029004F1240138464A469C
:1046B000002D18BF012547F071F804F1440808EBFC
:1046C000451B384639465A4647F04CF83846394675
:1046D000324647F047F83846394646F08FFF06F134
:1046E00020023846394647F03DF809EB4515384673
:1046F00039462A4647F036F802992A4609EB411016
:1047000008EB41115B4609F029F8484641463A4614
:104710001CF018FB5046494647F0E0F80AF120002B
:10472000414647F0DBF801250520207028460BB0F4
:10473000BDE8F08F80B5930706D4D20700F10C00D6
:1047400015D11CF043FB80BDC36802F0010203EAEF
:10475000010040EA020C8842184618BF0020002AD7
:1047600008BF1846BCF1000F08BF604680BD1CF0B2
:1047700005FB80BD80B50C301CF0C4FB80BD000083
:1047800080B540F23712C8F2010246F0A5FB80BDA9
:1047900080B540F23112C8F20102014646F09CFB9E
:1047A00080BD000080B540F23812C8F2010246F028
:1047B00093FB80BD80B540F23312C8F2010246F08F
:1047C0008BFB80BD80B540F23212C8F2010246F088
:1047D00083FB80BD80B540F039FE46F0BBFA80BD5A
:1047E0002DE9F04F85B04FF0000801244FF480769A
:1047F0000827CDF8108004E06400013F06F10406AC
:1048000010D0B5B228463FF0D5FA0028F4D02046A3
:104810003FF0FAFA0028EFD028463FF08BFA48EA3A
:104820000408E9E74FF4BE703FF0C4FA40B14FF41A
:10483000BE703FF07FFA04A848F000483FF06CFAE1
:104840005FEA08601CD00127002404E00134082C32
:104850004FEA470714D017EA080FF7D020463FF079
:10486000B3FA054620463FF0B9FA0646204621F045
:1048700097F90028EAD00246284631469047E5E7F6
:10488000B8F1FF3F02DD05B0BDE8F08F46F69418A1
:104890004FF000094FF0FF30C2F200080DF1080B95
:1048A00003254FF0000ACDF80C90029009E000BFFC
:1048B0004FF0000A4FF000095FEA0A604FF0000A6B
:1048C000E1D008EB090090F85040FF2C38D004F0FC
:1048D0003F06304659463FF023F888B3304621F072
:1048E00089F921F05DF9B5EB941F074600D03FB37D
:1048F000A409032C03D1304603A93FF01BF830462E
:104900003FF0A0F90546304604A93FF009F8022D12
:1049100000D110B9032D11D180B9032C08D1022187
:104920003046022D08BF03213FF02AF90AF1010A9F
:1049300003252FB130462146B84701E0032500BFCB
:1049400009F10109B9F1040FBBD15FEA0A60AFD0E8
:1049500001A83FF0E1F9019804998842A8D0039991
:1049600004900291A6E700004EF60450CEF200003B
:104970000068102101EA10607047000044F2301214
:10498000C2F20002C2E904017047000070B582B0B3
:1049900039B1887801283DD1084625F00DFA02B0DA
:1049A00070BDC00736D044F23014C2F200040DF1DD
:1049B0000701204608F05AFD60B306460DF10705D1
:1049C00009E000BF304608F067FD2046294608F0A0
:1049D0004DFD0646F0B19DF8070002280CD00428D2
:1049E00012D1304626F0C0FB94F821000028E9D00F
:1049F000304625F0FDFBE5E7304625F0DFF90028DD
:104A0000E3D0216904E000BFA1690029DAD0304673
:104A10008847DAE702B070BD80B544F27010C2F288
:104A200000000021C0E91C116FF01B014FF6FF725E
:104A300043181C3138299A85FAD14FF0FF31C0E96B
:104A40001511C1651B21A0F87C1040F20511A0F8DA
:104A500080100021C0F8A01025F010FB80BD0000E0
:104A6000B0B50C46054640F20640032125F04EF94C
:104A7000002808BFB0BD290AC5700171447125F036
:104A800075F9B0BD44F23011C2F200018860704780
:104A900044F27010C2F200006830704744F27010A7
:104AA000C2F20000B0F87E007047000044F27010BF
:104AB000C2F20000D0E922017047000044F27010F9
:104AC000C2F20000B0F892007047000044F270108B
:104AD000C2F20000B0F87C007047000080B5FFF71C
:104AE00055FF80BD80B544F23011C2F2000181F85B
:104AF00020000020C1E90000FFF78EFF80BD00000C
:104B00002DE9F0418846074642F2270027211C463E
:104B1000164625F0FBF8002808BFBDE8F0810546E1
:104B200004304146EF70FEF721FD30687168F2688D
:104B3000B368C5F81620C5F81230C5F80E10C5F8D0
:104B40000A0020686168A268E368C5F81A00284670
:104B5000C5F81E10C5F82220C5F8263025F006F944
:104B6000BDE8F08180B542F23D00002125F0CEF88D
:104B7000002818BF25F0FAF880BD000080B542F289
:104B80002900002125F0C2F8002818BF25F0EEF812
:104B900080BD0000B0B50C46054642F213000E2160
:104BA00025F0B4F8002808BFB0BDA0F80350217864
:104BB000417161788171A178C171E17801722179C7
:104BC000417261798172A179C172E1790173217AAF
:104BD0004173617A8173A17AC173E17A017425F01E
:104BE000C5F8B0BD80B542F20E00002125F08EF868
:104BF000002818BF25F0BAF880BD00002DE9F04765
:104C00000F46054642F20D0019219846914625F0BF
:104C10007DF8002808BFBDE8F0870446C570280A63
:104C2000DDE9081A2071380A0A9EA07104F1090012
:104C3000677184F8079084F80880FEF797FC84F881
:104C40000FA03078207470786074B078A074F07819
:104C5000E0743079207570796075B079A075F0795D
:104C6000E075307A2076707A6076B07AA076F07A45
:104C7000E076204625F07AF8BDE8F087B0B50C461E
:104C8000054642F21700202125F040F8002808BF11
:104C9000B0BD29686A68EB68AD68C0F80F30C0F82D
:104CA0000B50C0F80720C0F8031021686268A368A1
:104CB000E568C0F81310C0F81720C0F81B30C0F822
:104CC0001F5025F053F8B0BD2DE9F0470746007A94
:104CD000144688460026002120FA01F2D20718BFA8
:104CE0000136062904D8F2B2042A01F10101F3D3F6
:104CF0005FFA86F94FEA091000F10A0142F2430017
:104D000025F004F8002808BFBDE8F087824638780F
:104D10008AF8030078788AF80400B8788AF80500E1
:104D200079680AF10600FEF721FC387A31068AF824
:104D30000C0034D04FEA490151FA86F1AAF1030080
:104D40004FEA810CA21DA8F1020300279E78E51905
:104D500000F8106FDE78467013F8046F86705E7886
:104D6000C670E65D06716E784671AE788671EE7833
:104D7000C671D61916F8021C017216F8011C417290
:104D8000D15D0C3781727178BC45C172297A01738B
:104D9000697A4173A97A8173E97AC173D6D1504691
:104DA00024F0E4FFBDE8F087F0B581B00E46074679
:104DB00042F2420006211C46154624F0A7FF48B1E6
:104DC000290A8171210AC77006714571C471017287
:104DD00024F0CCFF01B0F0BD70B50C46064642F29F
:104DE0002600402124F092FF002808BF70BD054630
:104DF000033031462022FBF74BFE05F1230021460C
:104E00002022FBF745FE284624F0B0FF70BD0000CD
:104E100010B5044642F21B00022124F077FF00285F
:104E200008BF10BDA0F8034024F0A0FF10BD000093
:104E3000B0B50C46054642F21A00122124F066FF76
:104E4000002808BFB0BDA0F8035021686268A368BD
:104E5000E568C0F80510C0F80920C0F80D30C0F8AA
:104E6000115024F083FFB0BD80B542F2450000210F
:104E700024F04CFF002818BF24F078FF80BD00000C
:104E80002DE9F04F81B00F46054642F244000E2155
:104E90009846164624F03AFFD0B10446DDF830902B
:104EA000DDE90ABAC5700771063041466671FEF742
:104EB0005DFB4FEA1B2060734FEA1A20E073204627
:104EC00084F80CB084F80EA084F8109024F04EFF03
:104ED00001B0BDE8F08F000010B5044642F2460074
:104EE000022124F013FF002808BF10BDA0F80340E2
:104EF00024F03CFF10BD000080B542F218000021F4
:104F000024F004FF002818BF24F030FF80BD00000B
:104F100080B542F20200002124F0F8FE002818BFFC
:104F200024F024FF80BD000080B542F20300002180
:104F300024F0ECFE002818BF24F018FF80BD00000C
:104F400080B542F23A00002124F0E0FE002818BFAC
:104F500024F00CFF80BD000080B542F22F0000213C
:104F600024F0D4FE002818BF24F000FF80BD00000C
:104F700080B542F23B00002124F0C8FE002818BF93
:104F800024F0F4FE80BD000080B542F24A0000210A
:104F900024F0BCFE002818BF24F0E8FE80BD00000D
:104FA00080B542F22A00002124F0B0FE002818BF8C
:104FB00024F0DCFE80BD000080B542F21C00002120
:104FC00024F0A4FE002818BF24F0D0FE80BD00000D
:104FD00080B542F20F00002124F098FE002818BF8F
:104FE00024F0C4FE80BD0000B0B50C46054642F278
:104FF0002100032124F08AFE002808BFB0BD290A41
:10500000C5700171447124F0B1FEB0BDF0B581B03E
:105010000E46074642F220000E211C46154624F09B
:1050200075FEC8B1C7703F0A0899DDE906320771FD
:10503000370A87712F0A0772270AC3721B0A427345
:10504000120AC173090A4671C571447287720373EB
:105050008273017424F08AFE01B0F0BD10B50446DD
:1050600042F23C00012124F051FE002808BF10BD8F
:10507000C47024F07BFE10BD70B50C46054642F2AC
:105080002800072124F042FE002808BF70BD064614
:1050900004302146F570FEF769FA304624F066FECA
:1050A00070BD000010B5044642F26D00022124F0EC
:1050B0002DFE002808BF10BDA0F8034024F056FEC6
:1050C00010BD000010B5044642F22D00012124F06D
:1050D0001DFE002808BF10BDC47024F047FE10BD9F
:1050E000F0B581B00E46044642F20800202124F0BB
:1050F0000DFE78B1071D0546C4703846314622467C
:10510000FBF7C6FC3819C4F11F01FBF748FD284620
:1051100024F02CFE01B0F0BD10B5044642F20A00A6
:10512000012124F0F3FD002808BF10BDC47024F055
:105130001DFE10BD2DE9F0470F46054642F2060060
:105140000F219846164624F0E1FD002808BFBDE86F
:10515000F0870446DDE90821C570280ADDE90AA9BF
:105160002071380AA07104F10A006771E67184F8B1
:105170000880627221B1FEF7F9F904F1100001E034
:10518000FEF7E6F980F800A080F80190204624F0B0
:10519000EDFDBDE8F087000070B50C46054642F213
:1051A0003500072124F0B2FD002808BF70BD064677
:1051B00004302146F570FEF7D9F9304624F0D6FDCB
:1051C00070BD000070B50D46064642F22200062171
:1051D000144624F09BFD002808BF70BD310A017100
:1051E000290A8171210AC6704571C471017224F0C7
:1051F000BDFD70BD10B5044642F20100082124F047
:1052000085FD002808BF10BD61682268C0F807103E
:10521000C0F8032024F0AAFD10BD00002DE9F041E4
:105220001C460E460746FB2B03F1040142F23700F1
:10523000904628BF6FF00404FF2928BFFF2124F007
:1052400065FD002808BFBDE8F08106990546E2B279
:10525000C770067180F805800730AC71FBF718FC49
:10526000284624F083FDBDE8F081000070B50646B5
:1052700088000C46811C42F23900154624F046FD98
:10528000002808BF70BDC67004716CB1A91F421C14
:1052900011F8063F013C02F8043F8B785370CB783D
:1052A00093700B79D370F3D124F060FD70BD0000D2
:1052B00070B50C46064642F23600192124F026FD50
:1052C000002808BF70BDC670054620782871607838
:1052D00068716068A8716068000AE871E0882872E7
:1052E000A0686872A068000AA8726089E872207BD2
:1052F0002873607B6873A07BA873216905F10F0098
:10530000FEF734F9207D6875607DA875A07DE8758D
:10531000E07D2876207E6876607EA876A07EE8769E
:10532000284624F023FD70BD2DE9F04381B0984656
:105330001546894607460026002000BF25FA00F1E1
:10534000C90718BF0136062804D8F1B2042900F1B4
:105350000100F3D3F4B2A00050FA86F0C11C42F26F
:10536000410024F0D3FCC8B13106C77080F8049026
:10537000457111D0A8F10601421C00BF8B7A013C97
:1053800002F8053F11F8063F53704B7893708B7805
:10539000D370CB781371F1D124F0E8FC01B0BDE8F3
:1053A000F08300002DE9F0411C460E460746FB2B1A
:1053B00003F1040142F23800904628BF6FF0040464
:1053C000FF2928BFFF2124F0A1FC002808BFBDE869
:1053D000F08106990546E2B2C770067180F8058033
:1053E0000730AC71FBF754FB284624F0BFFCBDE846
:1053F000F08100002DE9F04115460E460746FC2AD3
:1054000002F1030142F23F00984628BF6FF0030506
:10541000FF2928BFFF2124F079FC002808BFBDE840
:10542000F0810446EAB2C7700671063041466571E4
:10543000FBF72EFB204624F099FCBDE8F08100002C
:10544000B0B50C4605464FF40150022124F05EFC35
:10545000002808BFB0BDC570047124F087FCB0BD42
:10546000F0B581B00E46074642F23E0007211C46C9
:10547000154624F04BFC58B1310A4171290AC1711B
:10548000210AC770067185710472417224F06EFCA6
:1054900001B0F0BDF0B581B00D46074642F24E00B6
:1054A0000821144624F032FC48B10646043029464F
:1054B000F770FEF75BF83046B47224F057FC01B089
:1054C000F0BD0000B0B5044642F20500062124F00C
:1054D0001DFC002808BFB0BD054603302146FEF77D
:1054E00045F8284624F042FCB0BD0000B0B50C469B
:1054F000054642F20C00022124F008FC002808BFF7
:10550000B0BDC570047124F031FCB0BDF0B581B000
:105510000E46074642F20B0007211C46154624F0B2
:10552000F5FB58B10699320A42712A0AC770067112
:105530008571C2710472417224F018FC01B0F0BD93
:10554000F0B581B00E46044642F20900202124F055
:10555000DDFB78B1071D0546C4703846314622464A
:10556000FBF796FA3819C4F11F01FBF718FB284620
:1055700024F0FCFB01B0F0BDF0B581B00E4607464B
:1055800042F219001C211C46154624F0BFFBC0B195
:10559000A0F8037071683268C0F80910290AC0F8D1
:1055A00005204573817321686268A368E768C0F8C5
:1055B0000F10C0F81320C0F81730C0F81B7024F08B
:1055C000D5FB01B0F0BD0000B0B50C46054642F277
:1055D0002400042124F09AFB002808BFB0BD290A4A
:1055E0000171210AC5704471817124F0BFFBB0BD07
:1055F00044F27010C2F2000090F89100002818BF29
:105600000120704780B541F20900002124F07EFBA3
:10561000002818BF24F0AAFB80BD000080B541F22D
:105620000100002124F072FB002818BF24F09EFB2B
:1056300080BD000010B5044641F20540022124F06F
:1056400065FB002808BF10BDA0F8034024F08EFBC6
:1056500010BD000080B544F25410C2F200000121D8
:10566000817640F60340002124F050FB002818BF4B
:1056700024F07CFB80BD000080B544F23010C2F203
:105680000000012180F8211024F0B6FD80BD00004B
:1056900044F23011C2F20001C86070472DE9F043B6
:1056A00081B0B0F8008006464488404624F06AFC89
:1056B00098B144F27019C2F2000909F17007054669
:1056C000384607F033FF60B199F8820048B1A1B2C3
:1056D0002846324624F0DAFD08E0304607F0DCFECA
:1056E00017E038460021324607F0CCFE4FF0FF307D
:1056F00010FA84F4FFF7D2F994FBF0F0297E084405
:10570000013099F88010C2B28A42287601D3E87D30
:1057100010B101B0BDE8F08344F23011C2F20001D3
:1057200001204A69E87540460121904701B0BDE873
:10573000F083000010B5044640F60140082124F033
:10574000E5FA002808BF10BD61682268C0F807109C
:10575000C0F8032024F00AFB10BD000010B5044679
:1057600040F66340082124F0D1FA002808BF10BD9C
:1057700061682268C0F80710C0F8032024F0F6FA28
:1057800010BD000040F2182CC2F2000C32B1DCE96E
:10579000003211431843CCE900017047DCE90023D3
:1057A00023EA010122EA0000CCE900017047000071
:1057B00044F27011C2F20001A1F87C0070470000B1
:1057C00044F270104AF20D01C2F20000C0F2020170
:1057D000C0F8A0107047000044F27010C2F2000040
:1057E0000021C0F8A0107047B0B50C46054640F641
:1057F0007C40042124F08AFA002808BFB0BD290AA1
:105800000171210AC5704471817124F0AFFAB0BDF5
:10581000EFF3108000281CBF01207047EFF31180C8
:10582000002818BF01207047EFF3108000281CBF2C
:1058300001207047EFF31180002818BF0120704746
:10584000EFF3108000281CBF01207047EFF3118098
:10585000002818BF01207047EFF3108000281CBFFC
:1058600001207047EFF31180002818BF0120704716
:10587000EFF3108000281CBF01207047EFF3118068
:10588000002818BF01207047EFF30580002818BFDB
:1058900001207047EFF30580002818BF01207047F2
:1058A000EFF30580002818BF01207047EFF3058053
:1058B000002818BF01207047EFF30580002818BFAB
:1058C00001207047EFF31480012121EA00007047A6
:1058D000B0B505F007F840F23824C2F20004012503
:1058E0006572BFF34F8FFFF73FF8002808BFB0BDC8
:1058F000FDF734FFA572B0BD80B540F23820C2F28A
:10590000000000214172BFF34F8F827A12B1817281
:1059100007F00CF804F0F0FF80BD000080B51970AE
:10592000090A5970111D9970090A9871000AD970F5
:10593000110AD87118461A715971FFF7AFFE80BD70
:105940002DE9F0410D460446FEF71CF8002840D032
:1059500044F26C260138C2F2000637184FF01208E4
:1059600030461E2187F8118007F0CAFE1420B4804B
:1059700026F0E2F9002808BFBDE8F081034680F870
:10598000088044F24420C2F2000090F824105972BA
:1059900090F8241039750131CAB28A4218BF012229
:1059A00080F82420082058812878214618736878C8
:1059B0000C225873A8789873E878D87328791874EB
:1059C00068795874A8799874E879D8740520FFF735
:1059D000A5FFBDE8F081000070B506460E20154613
:1059E0000C4626F0A9F9002808BF70BD0346132015
:1059F000187202205881280A587305202146062271
:105A00005E721D73FFF78AFF70BD000080B544F21F
:105A100044204BF6D531C2F20000C0F202014BF631
:105A200045524BF6D133C0E900114BF6D931C0F2E3
:105A30000202C0F20203C0F20201C0E90223C0E97F
:105A400004330162012180F824104BF6DD304BF65F
:105A50006941C0F20200C0F20201FEF78FFF80BD73
:105A600044F244204BF6A541C2F20000C0F202010C
:105A70008161704744F2442CC2F2000C10230428C8
:105A8000604608BF0C2318BF043001604CF80320A7
:105A90007047000080B531B18878012818BF80BDFB
:105AA000084626F089F980BD44F26C21C2F200015B
:105AB00001228A71087308747047000044F2442080
:105AC0004BF6C551C2F20000C0F20201C16144F2BE
:105AD0006C20C2F2000000218182817570470000B5
